:100000000C94CF050C9466680C943B680C941068B3
:100010000C94F9050C94F9050C94F9050C94F90568
:100020000C94F9050C94BB680C9491680C94E568E9
:100030000C94F9050C94F9050C94F9050C94F90548
:100040000C94F9050C94F9050C94CA670C94F90505
:100050000C9495670C946B670C94F9050C94F90556
:100060000C94F9050C94F9050C94F5690C94F905B8
:100070000C9436670C940C670C94F9050C94F905F4
:100080000C94F9050C94F9050C94F9055043463885
:1000900035323633004D43503739343178004453CC
:1000A0003133303700496E7374616C6C20465720D1
:1000B000726573756C743A20000A4352432073745E
:1000C000617475733A20000A446F776E6C6F6164D7
:1000D000204352433A20004669726D776172652071
:1000E0004352433A2000636F706965642070617207
:1000F0007469616C2073706D4275666665722074F8
:100100006F20666C6173683A200020636F6D706CBD
:10011000657465640A004669726D77617265206472
:100120006F776E6C6F616420666F722000636F7012
:100130006965642073706D42756666657220746FC0
:1001400020666C6173683A200045726173656420B3
:1001500074656D706F72617279206170706C696323
:100160006174696F6E206172656120696E20666CD2
:10017000617368200050726F63657373696E6720E6
:10018000465720757067726164652000557067720C
:10019000616465206669726D7761726520746F2095
:1001A00000416C72656164792068617665206669DA
:1001B000726D776172652076657273696F6E20006B
:1001C0005265636569766564207570677261646500
:1001D000206669726D77617265207461673A2000EC
:1001E0005265626F6F7420636F6D6D616E64207213
:1001F000656365697665642066726F6D20736572EC
:100200007665720A0053414D504C494E4720494E85
:1002100054455256414C204348414E4745442120C5
:10022000000A54696D65206572726F7220286F75BF
:10023000722D736572766572293A20000A4F7572C5
:100240002074696D653A200053657276657220747A
:10025000696D653A200054696D6520736574206688
:10026000726F6D207365727665720A00556E6B6EE3
:100270006F776E204D43550061746D656761313253
:100280003834700061746D656761313238340061F3
:10029000746D656761363434700061746D656761D3
:1002A00036343400756E6B6E6F776E205254430097
:1002B0009E0095008C0041637469766520736574B7
:1002C00074696E67733A0A004E6F2072656D6F74C1
:1002D0006520686F73742C20747279696E6720666C
:1002E0006F72203132307320746F20636F6D6D75C3
:1002F0006E696361746520746F200043616E6E6F78
:1003000074207265736F6C76652000207265736F60
:100310006C76657320746F20004C6F6F6B696E672D
:100320002075702000646F6E65004448435020665D
:1003300061696C65640052657175657374696E6797
:100340002049502E2E2E20005573696E672073743D
:10035000617469632049500A00202052656D6F74F2
:100360006520686F73746E616D653A200045455075
:10037000524F4D2073657474696E67733A0A20207A
:100380004D41433A2000536574757020646F6E656B
:100390000053657474696E672073616D706C6520BD
:1003A00074696D657273004672657175656E637907
:1003B0003A2032304D487A0041637475616C204DAB
:1003C00043553A2000546172676574204D43553A95
:1003D0002061746D656761313238347000436F6E2F
:1003E00066696775726174696F6E20636F6D706C9A
:1003F0006574650053616D706C696E6720696E7419
:10040000657276616C202873293A2000436F756C01
:1004100064206E6F74206765742074696D65206652
:10042000726F6D2068617264776172652052544307
:100430000A00536F667477617265205254432073CB
:1004400065742066726F6D20686172647761726591
:10045000205254430A00536F6674776172652052CC
:10046000544320636C6F636B3A2000436F6E666980
:10047000677572696E672052544320636C6F636BBB
:10048000730A005254432063616C6962726174693B
:100490006F6E3A20004E6F2052544320666F756E87
:1004A000640A002061742061646472657373203093
:1004B0007800466F756E6420004175746F70726FBE
:1004C00062696E6720666F72200024504F525A4155
:1004D0002C312C25642C310020746F20004368617E
:1004E0006E67696E6720474E5353206261756420C2
:1004F000726174652066726F6D200048494836311C
:1005000078780020706F7765722D75702064656C47
:10051000617920286D73293A200020707265736517
:100520006E7400206E6F74006D65616E0A006D65FB
:100530006469616E0A007472696D6D656420000AF9
:100540006167677265676174653A20006E756D5307
:10055000616D706C65733A2000206D697373696E0C
:10056000670A002070726573656E740A0020636804
:100570002E20005D3A203078004144435B00206625
:1005800061696C656420746F20696E697469616C5F
:100590006973650A0052696F00496E697469616C1C
:1005A0006973696E672000484D4143206B65793A55
:1005B0002000536974652049443A200046616E204A
:1005C000687973742E3A200046616E2074656D70F0
:1005D0002E3A200046656174757265733A20484F63
:1005E0005553454B454550494E472052494F4D457F
:1005F0005445522048494836315858285769726541
:100600002920474E535320425553595F54494D4575
:100610005F50494E2841332900436F6D6D733A2076
:100620005735353030287764745F72657365742987
:10063000000A4D435520636C6F636B3A2032304D96
:10064000487A0A4669726D776172653A2052696F1D
:100650004C6F672D312E32630A45706F63683A2004
:10066000323031380A000A4D435553523A20000ABD
:10067000434B53454C3A20000A5243206F73632E7C
:100680003A20000A457874656E6465642066757367
:10069000653A20000A4869676820667573653A20E4
:1006A000000A4C6F7720667573653A20000A53691B
:1006B000676E61747572653A20000A4163747561F2
:1006C0006C204D43553A20000A0A2D2D2D2D2D2D3D
:1006D0002D2D0A546172676574204D43553A20618F
:1006E000746D6567613132383470005061636B65D9
:1006F000742076616C69642062757420696E636F22
:10070000727265637420726573706F6E7365002317
:1007100023232323232323232323232323232323A9
:10072000232323232300546F6F206D616E79207281
:100730006574726965733A20003D3D3D3D0A003D98
:100740003D3D3D0A526573706F6E73653A0A006DE8
:1007500061696E7461696E2072657475726E65642C
:100760002000726562696E640072656E657765640B
:10077000006661696C6564006F6B004448435020FB
:100780006C6561736520004157414B45210A005358
:100790004C454550210A007320776974686F757461
:1007A000206D6573672061636B2C207265626F6FCB
:1007B00074696E670A00476F6E6520005365742088
:1007C000485720636C6F636B00454550524F4D2076
:1007D000636F6E74656E7473206C656E6774683ACF
:1007E0002000486561646572206C656E6774683AC4
:1007F00020000A5374617475733A20000A506F73B5
:100800006974696F6E3A20004669782074696D6575
:100810003A2000474E53532076616C69643A2000B9
:1008200055736520474E53533A20005D3A200052DD
:10083000696F20646174615B000A416D6269656E75
:10084000743A200048756D69646974793A200053E0
:100850007570706C7920766F6C746167653A2000F2
:1008600053797374656D2074656D702E3A20005451
:10087000696D657374616D703A2000474E53532063
:1008800073746174653A20002D2D0A53616D706C8C
:10089000696E6720737461727465642C207265617F
:1008A000736F6E3A200054696D65206572726F72C5
:1008B00020286F75722D474E5353293A2000474E1A
:1008C000535320636C6F636B2076616C69643A20CC
:1008D000003A20307800307800454550524F4D2086
:1008E00076616C7565733A0A004552524F523A2050
:1008F0006261642076616C75657320666F72206535
:100900006570726F6D52656164004552524F523A84
:10091000206261642076616C75657320666F722059
:10092000656570726F6D5772697465007665726285
:100930006F736974793A20005265626F6F74206337
:100940006F6D6D616E6420726563656976656420A4
:1009500066726F6D20636F6E736F6C650A0052650F
:10096000626F6F74696E67202E2E2E0A0073616DA0
:10097000706C696E67496E74657276616C5F313652
:1009800074685F733A2000556E6B6E6F776E2063EC
:100990006F6D6D616E643A200050726576696F7597
:1009A0007320636F6D6D616E642077617320746F67
:1009B0006F206C6F6E6720666F7220627566666569
:1009C000720A00556E6B6E6F776E204E4D4541205A
:1009D00073656E74656E63653A2000426164204EF3
:1009E0004D454120636865636B73756D3A200078EF
:1009F000A46AD756B7C7E8DB702024EECEBDC1AFDE
:100A00000F7CF52AC68747134630A8019546FDD8C6
:100A1000988069AFF7448BB15BFFFFBED75C89223A
:100A200011906B937198FD8E4379A62108B44962A9
:100A3000251EF640B340C0515A5E26AAC7B6E95DEE
:100A4000102FD65314440281E6A1D8C8FBD3E7E6A1
:100A5000CDE121D60737C3870DD5F4ED145A4505EE
:100A6000E9E3A9F8A3EFFCD9026F678A4C2A8D420B
:100A700039FAFF81F6718722619D6D0C38E5FD44DE
:100A8000EABEA4A9CFDE4B604BBBF670BCBFBEC6AE
:100A90007E9B28FA27A1EA8530EFD4051D8804390A
:100AA000D0D4D9E599DBE6F87CA21F6556ACC444E6
:100AB0002229F497FF2A43A72394AB39A093FCC3C0
:100AC000595B6592CC0C8F7DF4EFFFD15D84854F2F
:100AD0007EA86FE0E62CFE144301A3A111084E820C
:100AE0007E53F735F23ABDBBD2D72A91D386EB00BD
:100AF000002200250028002B00000000000000005C
:100B00000108030200090A000000000000000004C0
:100B10000700000000000000000000210024002762
:100B2000002A0001020408010204084020102040AD
:100B300080804020100804020110808040201008AE
:100B40000402010404040402020202040402020278
:100B5000020303030303030303040401010101016E
:100B60000101010A202052656D6F74653A2000284A
:100B70006E6F6E6529000A2020444E533A20000A09
:100B8000202047573A20000A20204D61736B3A20FD
:100B90000020204C6F63616C3A2000003B6B1124F5
:100BA0001FBECFEFD0E4DEBFCDBF13E0A0E0B1E0C9
:100BB000E6E4FDEE00E00BBF02C007900D92AA3EF6
:100BC000B107D9F727E3AAEEB3E001C01D92A6361C
:100BD000B207E1F715E0CFECD5E004C02197FE01A4
:100BE0000E943476CE3CD107C9F70E94F76F0C946F
:100BF000A1760C940000CF92DF92EF92FF92CF93F8
:100C0000DF93EC016A017B0160E47BE48CE490E01B
:100C1000A70196010E949D75215031094109510992
:100C20005695479537952795E889F98982E080831D
:100C3000211580E1380798F0E889F989108260EA87
:100C400075E286E290E0A70196010E949D75215011
:100C50003109410951095695479537952795EC85F6
:100C6000FD853083EE85FF852083188EEC89FD8914
:100C700086E08083EA89FB89808180618083EA89BC
:100C8000FB89808188608083EA89FB898081806814
:100C90008083EA89FB8980818F7D8083DF91CF917A
:100CA000FF90EF90DF90CF90089591E090935F08D0
:100CB00080935E0810925D0810925C080895809100
:100CC0005B0890915A08891B990B089590915A08D6
:100CD00080915B082FEF3FEF981748F4E92FF0E081
:100CE000EA57F74F208130E09F5F90935A08C9017F
:100CF000089590915A0880915B082FEF3FEF981765
:100D000048F4E92FF0E0EA57F74F208130E09F5F89
:100D100090935A08C9010895CF93DF93CDB7DEB7FA
:100D20006E970FB6F894DEBF0FBECDBF9C019FE05B
:100D3000E8E2F1E0DE01509601900D929A95E1F71C
:100D40009FE0E7E3F1E0DE01119601900D929A95A4
:100D5000E1F7AEE6BDE011964D915C91129795E0FA
:100D6000949FF001959FF00D112441E050E04C0F4D
:100D70005D1FE40FF51F8081F901808311962D918D
:100D80003C91929FF001939FF00D1124E40FF51F09
:100D900087856E960FB6F894DEBF0FBECDBFDF918C
:100DA000CF910895CF934FB7F8949091700081112F
:100DB00020C09D7F90937000B99A282F30E0F901F0
:100DC000E257F24F90819923C9F010824FBFCFB7FD
:100DD0007894220F331FF901E657F24F4081518179
:100DE0002A57324FD901ED91FC910995CFBFCF9190
:100DF00008959B7F90937000BA9ADFCF4FBFF7CFD3
:100E000081E0809315016093020108958F929F9273
:100E1000AF92BF92CF92DF92EF92FF92FC013FB769
:100E2000F8942091B10027708091B60080FDFCCF2E
:100E30001092B10093B5926093BD4091B00D509166
:100E4000B10D6091B20D7091B30DC080D180E28080
:100E5000F38084819581A681B78141155105610593
:100E6000710509F456C0882499245401841A950AFE
:100E7000A60AB70A8C209D20AE20BF20809256087B
:100E800090925708A0925808B092590841505109C1
:100E9000610971094C215D216E217F21EFE0440F32
:100EA000551F661F771FEA95D1F7842B952BA62B2C
:100EB000B72BE0914B08AC01BD010E2E04C0769516
:100EC0006795579547950A94D2F7DB01CA018827A1
:100ED00004C0880F991FAA1FBB1FEA95D2F7809301
:100EE000520890935308A0935408B09355088091EA
:100EF000B6008171E1F74093B2002093B1003FBF8B
:100F0000FF90EF90DF90CF90BF90AF909F908F9029
:100F10000895C0925608D0925708E0925808F0926F
:100F20005908C7CF20E3FC0120833296862F829593
:100F30008F706F706A3030F4605D6293682F81113A
:100F4000F5CF0895695CF9CFFC016150770B85E01E
:100F5000660F771F8A95E1F760764C50550B440F6A
:100F6000551F4C70642B243041F0283041F0223062
:100F700011F0608308956160FCCF6260FACF636016
:100F8000F8CFDC01ED91FC910190F081E02D099406
:100F9000EF92FF920F931F93CF93DF938C017B010E
:100FA000D0E0C0E0F701EC0FFD1F6491662361F013
:100FB000D801ED91FC910190F081E02DC8010995D7
:100FC000892B11F02196EECFCE01DF91CF911F91A9
:100FD0000F91FF90EF900895AF92BF92CF92DF9262
:100FE000EF92FF920F931F93CF93DF936C017B01DE
:100FF0008B01040F151FEB015E01AE18BF08C0176F
:10100000D10759F06991D601ED91FC910190F081E1
:10101000E02DC6010995892B79F7C501DF91CF91A4
:101020001F910F91FF90EF90DF90CF90BF90AF9006
:101030000895FC01538D448D252F30E0842F90E0DE
:10104000821B930B541718F081509F4F08950197FE
:101050000895FC01918D828D981759F0A28DAE0FE5
:10106000BF2FB11D5D968C91928D9F5F928F90E006
:1010700008958FEF9FEF0895FC01918D828D981751
:1010800031F0828DE80FF11D858D90E008958FEF8E
:101090009FEF0895FC01918D828D981B892F90E020
:1010A00008958CEA98E00E944A0821E0892B09F40F
:1010B00020E0822F089589EC9AE00E944A0821E0FE
:1010C000892B09F420E0822F0895FC01A48DA80F3C
:1010D000B92FB11DA35EBE4F9C91848D8F5F848F0D
:1010E000A689B7899C93A089B1898C91837080640B
:1010F0008C93938D848D981306C00288F389E02D1C
:1011000080818F7D808308950F931F93CF93DF930A
:10111000EC0181E0888F9B8D8C8D981318C0E88935
:10112000F989808185FF13C09FB7F894EE89FF8904
:101130006083E889F98980818370806480839FBFA0
:1011400081E090E0DF91CF911F910F910895062FDC
:101150001B8D1F5F8C8D81130CC00FB607FCFACF5F
:10116000E889F989808185FFF5CFCE010E94650865
:10117000F1CFEB8DEC0FFD2FF11DE35EFE4F0083F1
:101180009FB7F8941B8FEA89FB8980818062D6CF54
:10119000CF93DF93EC01888D8823B9F0AA89BB89AE
:1011A000E889F9898C9185FD03C0808186FD0DC099
:1011B0000FB607FCF7CF8C9185FFF2CF808185FFBA
:1011C000EDCFCE010E946508E9CFDF91CF91089560
:1011D00080E090E0892B29F00E945B0881110E9439
:1011E000000080E090E0892B29F00E9451088111D5
:1011F0000C940000089590E0FC01E750F54F249115
:10120000FC01ED5DF44F34918D5B944FFC018491B2
:10121000882359F12223C1F021502A30A8F4E22F6B
:10122000F0E0EB5EF64F0C9434763A093E091F0964
:10123000360924092409410947094B0951099091AC
:1012400080009F7790938000E82FF0E0EE0FFF1F63
:10125000E151F54FA591B4918FB7F894EC916111DC
:1012600024C030953E233C938FBF08959091800019
:101270009F7DE8CF94B59F7794BDE6CF94B59F7DD1
:10128000FBCF9091B0009F779093B000DDCF90910D
:10129000B0009F7DF9CF909190009F779093900040
:1012A000D3CF909190009F7DF9CF3E2BDCCFCF9391
:1012B000DF9390E0FC01ED5DF44F24918D5B944F42
:1012C000FC0184918823C9F090E0880F991FFC01EC
:1012D000E75EF44FA591B491FC01E151F54FC59142
:1012E000D49161110DC09FB7F8948C912095822301
:1012F0008C938881282328839FBFDF91CF91089505
:10130000623051F49FB7F8943C91822F80958323EB
:101310008C93E8812E2BEFCF8FB7F894EC912E2B86
:101320002C938FBFEACF8830D8F497E0981B892F91
:1013300020911D0190E4299F900111248770822B38
:1013400080937C0080917A00806480937A00809101
:101350007A0086FDFCCF8091780090917900089505
:101360008FEFE6CF9FB7F89440914308509144081F
:10137000609145087091460886B5A89B06C08F3FCE
:1013800021F04F5F5F4F6F4F7F4F9FBF2227342F5A
:10139000452F562F280F311D411D511DA3E0B0E0F0
:1013A0000E94DE7508958F929F92AF92BF92CF9266
:1013B000DF92EF92FF926B017C010E94B2094B0118
:1013C0005C01C114D104E104F104B9F00E94B20936
:1013D000681979098A099B09683E7340810591055E
:1013E00080F321E0C21AD108E108F10888EE880EE6
:1013F00083E0981EA11CB11CE4CFFF90EF90DF901A
:10140000CF90BF90AF909F908F9008952FB7F89492
:1014100060913F0870914008809141089091420886
:101420002FBF089508950FB6F89485B7806885BFDB
:1014300085BF0FBE089590E080E00895089581E093
:101440000895FC01818D928D0895FC0187A190A5DE
:1014500008952C9A08952C9808958EBD00000DB41F
:1014600007FEFDCF8EB50895DF92EF92FF920F93A6
:101470001F93CF93DF93D82FD92EC62F7A018901DE
:101480000E942B0A8D2D0E942D0A8D2F0E942D0A5D
:101490008C2F0E942D0AE701E00EF11E80E00E94D1
:1014A0002D0A8993EC16FD06C9F70E94290AC80186
:1014B000DF91CF911F910F91FF90EF90DF900895F2
:1014C000DF92EF92FF920F931F93CF93DF93D82F6A
:1014D000D92EC62F7A0189010E942B0A8D2D0E94D8
:1014E0002D0A8D2F0E942D0A8C2F0E942D0AE701B4
:1014F000E00EF11ECE15DF0521F089910E942D0A24
:10150000F9CF0E94290AC801DF91CF911F910F9155
:10151000FF90EF90DF9008951F93CF93DF93182FE4
:10152000D62FC42F0E942B0A80E00E942D0A812F03
:101530000E942D0A8D2F0E942D0A8C2F0E942D0AA9
:101540000E94290A81E0DF91CF911F9108950F93A6
:101550001F93CF9368EE73E080E090E00E94D30980
:10156000249ACFB7F89480914A08811127C0EDE4FE
:10157000FBE08491EDE2FBE09491E82FF0E0EE0FC8
:10158000FF1FE75EF44FA591B491EC91E92321F49C
:1015900061E08AE00E94FB0861E08AE00E9457094E
:1015A0008CB580618CBD8CB580648CBD61E08DE0B4
:1015B0000E94570961E08BE00E94570980914A0818
:1015C0008F5F80934A08CFBF40E864E090E080E0FE
:1015D0000E948C0A6AE070E080E090E00E94D309EB
:1015E000CCE008E010E042E06C2F8EE190E00E9439
:1015F0008C0A42E06C2F8FE190E00E948C0A01502F
:101600001109C05E0115110571F7CF911F910F915E
:1016100008959B018295880F807E6CE0680FC90158
:101620000C948C0ACF93DF93EC01898D9A8D892BD2
:1016300041F0E881F9810284F385E02DCE0109951E
:10164000F4CFDF91CF910895CF93DF931F92CDB761
:10165000DEB76983DC01ED91FC910280F381E02D1E
:1016600041E050E0BE016F5F7F4F09950F90DF9121
:10167000CF9108950E960C94240B1F93CF93DF9374
:10168000FB01DC0158961C921E9257972281211172
:1016900009C02381211106C02481211103C02581A5
:1016A000222339F14115510521F1EA01DC011C9693
:1016B0001C91AF014E5F5F4F612F6295660F607E98
:1016C000645F24E030E08CE090E00E94600A4D2FDF
:1016D00060E170E0812F0E94090B4C2F61E170E006
:1016E000812F0E94090B81E090E0DF91CF911F9143
:1016F000089590E080E0F9CF0F931F93CF93DF938D
:1017000000D000D000D0CDB7DEB7FC0143A554A572
:101710002FE832E03A83298307A510A921A932A92D
:101720000B831C832D833E83BE016F5F7F4F0E961C
:101730000E943D0B26960FB6F894DEBF0FBECDBFBC
:10174000DF91CF911F910F910895FC0113821282B6
:1017500088EE93E0A0E0B0E084839583A683B7830E
:101760008FEA91E09183808388E0848716861586CE
:101770008FE892E0908B8787118A128A138A148AE5
:10178000168A158A108E178A128E118E0895FC0102
:101790008589968908952FE832E0FC013183208302
:1017A000FB014189528963897489FC014283538317
:1017B000648375830895DC01ED91FC91048CF58DB3
:1017C000E02D099480E00895CF93DF93C82FD62FA2
:1017D0000E942B0A80E00E942D0A8D2F0E942D0A64
:1017E0008C2F8295880F807E885F0E942D0A80E072
:1017F0000E942D0AC82F0E94290A8C2FDF91CF91B9
:101800000895CF93C82F462F61E070E00E94090B26
:1018100061E070E08C2F0E94E40B8111F9CFCF9131
:101820000895CF93C82F60E170E00E94010C4FEF44
:1018300062E070E08C2FCF910C94090BCF93DF9373
:10184000EC018C85883021F00E94110C88E08C8797
:10185000DF91CF9108951F93CF93DF93182F66E206
:1018600070E00E94E40BC82FD0E0DC2FCC2767E2A9
:1018700070E0812F0E94E40B8C0F9D2F911DDF9152
:10188000CF911F9108951F93CF93DF93182F60E29C
:1018900070E00E94E40BC82FD0E0DC2FCC2761E27F
:1018A00070E0812F0E94E40B8C0F9D2F911DDF9122
:1018B000CF911F910895AF92BF92DF92EF92FF9266
:1018C0000F931F93CF93DF93D82E7B018A01B12C06
:1018D000A12C8D2D0E942B0CEC01892B21F08D2D3C
:1018E0000E942B0C5C01CA15DB0599F72097E9F4DF
:1018F00063E070E08D2D0E94E40B843159F0882361
:1019000049F0C1E0D0E08C3111F4D0E0C0E0D195D5
:10191000C195D109CE01DF91CF911F910F91FF9019
:10192000EF90DF90BF90AF9008950C171D070CF457
:10193000E8011C161D0674F768E270E08D2D0E9408
:10194000E40B082F10E0102F002769E270E08D2DC6
:101950000E94E40B080F111D6D2D6295660F607ECD
:10196000685E9E01A701C8010E94340A0C0F1D1F6A
:10197000412F68E270E08D2D0E94090B402F69E233
:1019800070E08D2D0E94090B60E470E08D2D0E94A7
:10199000010CC0CFCF93DF93FC01218D328D211537
:1019A000310529F48FEF9FEFDF91CF910895EC017E
:1019B00084854217530708F0A9010E945B0C181692
:1019C000190684F7298D3A8D281B390B3A8F298FF8
:1019D000EBCF0F931F93CF93DF931F92CDB7DEB75B
:1019E000FC01218D328D232B41F48FEF9FEF0F905F
:1019F000DF91CF911F910F9108958C0141E050E04C
:101A0000BE016F5F7F4FFC0184850E945B0C18163E
:101A100019065CF7F801818D928D0197928F818F65
:101A2000898190E0E4CF0E960C94E90C7F928F921E
:101A30009F92AF92BF92CF92DF92EF92FF920F935D
:101A40001F93CF93DF937C014B018A01FC01C7896F
:101A5000D08D7484B12CA12C872D0E94430C6C0175
:101A6000892B21F0872D0E94430C5C01CA14DB04F2
:101A700099F7C016D10678F4D12CC12C872D0E947D
:101A8000430C8C01892B21F0872D0E94430C6C01A3
:101A90000C151D0599F764E270E0872D0E94E40B98
:101AA000D82E65E270E0872D0E94E40BC80FD11D8F
:101AB0008D2D90E0982F8827C80FD91F672D62952C
:101AC000660F607E6C5E9801A401CE010E94600AE0
:101AD000C00FD11F4D2F64E270E0872D0E94090BCB
:101AE0004C2F65E270E0872D0E94090BF701878972
:101AF000908D800F911F908F878BC801DF91CF91C0
:101B00001F910F91FF90EF90DF90CF90BF90AF901B
:101B10009F908F907F900895CF93FC01C48560E2E1
:101B200070E08C2F0E94010C62E070E08C2F0E940C
:101B3000E40B84FD11C062E070E08C2F0E94E40B86
:101B400083FFF2CF48E162E070E08C2F0E94090B26
:101B500090E080E0CF91089540E162E070E08C2F4A
:101B60000E94090B81E090E0F5CF0E960C948C0D4D
:101B7000EF92FF920F931F93CF93FC01248528309F
:101B800039F080E0CF911F910F91FF90EF90089571
:101B90007B018C01C0E063E070E08C2F0E94E40BBD
:101BA000811129C0F801C487F801C485C83049F300
:101BB000F686E586128E118E8C2F0E94110C42E063
:101BC00070E060E08C2F0E94090BE114F104C9F071
:101BD0004F2D64E070E08C2F0E94090B4E2D65E0C4
:101BE00070E08C2F0E94090B61E070E08C2F0E9446
:101BF000010C81E0C7CF8831A9F2CF5FC83059F618
:101C0000D3CF00913C0810913D080F5F1F4F1093F8
:101C10003D0800933C08412F64E070E08C2F0E9447
:101C2000090B402FDCCFCF93DF93EC018AE0809348
:101C3000343784E080933537D0935237C09351378F
:101C4000FB0182819381A481B58180935737909362
:101C50005837A0935937B0935A375093543740931D
:101C6000533761E08AE00E94570961E08091343780
:101C70000E94FB08809135378F3F41F061E00E9460
:101C8000570961E0809135370E94FB08BE0186E369
:101C900097E30E94B80D81E0DF91CF91089524E091
:101CA00030E0AC0164E08FE090E00C94600A24E046
:101CB00030E0AC0164E085E090E00C94600A24E040
:101CC00030E0AC0164E081E090E00C94600AAF92F7
:101CD000BF92CF92DF92EF92FF920F931F93CF9319
:101CE000DF935C016B01EA0179010E94A70A26E0FB
:101CF00030E0A50164E089E090E00E94600AC6013E
:101D000002960E944F0EC70102960E945F0EC80104
:101D100002960E94570E8A819B81AC81BD8180937F
:101D2000060D9093070DA093080DB093090DDF9158
:101D3000CF911F910F91FF90EF90DF90CF90BF90C8
:101D4000AF900895FC012081243209F40196FC0132
:101D500020E0CF013191332341F03A3231F0232793
:101D6000F8CF305D08C0205D0CC0322F32953F7037
:101D70003A30B8F3395CFB0130832F702A3098F386
:101D8000295CFB012183089530E020E0EAE0615006
:101D900080F0DC017D91CD01E29FA001E39F500D19
:101DA00011249A01270F311D77FD3A9520533109EF
:101DB000EECFC9010895882349F08D3039F0982F6E
:101DC0009F7D81E09A3019F080E0089581E00895C8
:101DD000BF92CF92DF92EF92FF920F931F93CF9318
:101DE000DF93EB018C01D12CC12C892B61F490E0A5
:101DF00080E0DF91CF911F910F91FF90EF90DF90E6
:101E0000CF90BF9008957801F801B1908F01FCE266
:101E1000BF16F9F08B2D0E94DB0E81110CC0C6019C
:101E2000209739F0019626E0C216D10414F4B88246
:101E300021966C01E8CF2097D1F286E0C816D10434
:101E40000CF41882F70180818C3289F6C701019663
:101E5000D0CF2097D9F3F1CFCF92DF92FF920F939B
:101E60001F93CF93DF93EC010097B1F08C016801D1
:101E7000F801F1908F018F2D0E94DB0E81110AC0B5
:101E8000E801FCE2FF12F3CFF60181810E94DB0E34
:101E9000882311F0D0E0C0E0CE01DF91CF911F91F7
:101EA0000F91FF90DF90CF900895CF93DF93EC01D7
:101EB00062E00E94C40E8093620D62E0CE01029641
:101EC0000E94C40E8093630D62E0CE0104960E94CE
:101ED000C40E8093640D62E0CE0107960E94C40E8A
:101EE0008093650DCE010996DF91CF910C942C0F54
:101EF0006AE00E9400768295807F890F0895982F6E
:101F000092959F708F702AE0929F800D1124089502
:101F1000CF93DF93CDB7DEB72D970FB6F894DEBF22
:101F20000FBECDBF2DE0E6E4F1E0DE011196019099
:101F30000D922A95E1F7623021F483709927892B5D
:101F400081F0E1E0F0E0EC0FFD1FE60FF11D808174
:101F50002D960FB6F894DEBF0FBECDBFDF91CF91A7
:101F600008958DE1F5CF7F928F929F92AF92BF92AD
:101F7000CF92DF92EF92FF920F931F93CF93DF9355
:101F8000EC01888199816CE370E00E9420762A81BF
:101F90003B81620F731F7B836A8397FD33C09983F4
:101FA00088838A819B816CE370E00E9420762C817B
:101FB0003D81620F731F7D836C8397FD2BC09B83D4
:101FC0008A838C819D8168E170E00E9420762E8159
:101FD0003F81620F731F7F836E8397FD23C09D83B4
:101FE0008C83888599850C9740F48E819F813BE096
:101FF000A32EB12C18161906FCF0CC24CA94DC2CA4
:102000007601E0C0CC9699838883615071097B8307
:102010006A83C7CFCC969B838A83615071097D8385
:102020006C83CFCF48969D838C83615071097F83E9
:102030006E83D7CF99868886888499847724739411
:10204000780C0A851B85680184E9C81A88EFD80ACC
:10205000672DC6010E94880FEE80FF8090E08E15EC
:102060009F0594F4E81AF90AFF82EE828FEF881A2E
:10207000980A8CE088169104E9F6198618860F5F95
:102080001F4F1B870A87D8CF1E141F04DCF081E086
:10209000881A910880F09986888668856F5F8A859E
:1020A0009B858459984F0E94880F8E0D9F2D911DFE
:1020B0009F838E83C1CFB986A886015011091B87E3
:1020C0000A87EBCF61E0B12CA12C671550F499245D
:1020D0009394960EC6010E94880FA80EB11C692D1C
:1020E000F4CFF7013197EA0DFB1DFF87EE87065706
:1020F0008DE691E0089F9001099F300D1124032E79
:10210000000C440B550B802F86958695280F311DAA
:10211000411D511D60E871E581E090E00E948D75E0
:102120000370C12CD12C7601033039F420E8C22E83
:1021300021E5D22EEE24E394F12CC60ED71EE81E24
:10214000F91EDF0120E831E541E050E00E94E97529
:10215000C60ED71EE81EF91EAC81BD8120E13EE00F
:102160000E944476C60ED71EE81EF91E2A813B81C6
:102170004CE3429FC001439F900D1124C80ED91E0D
:10218000E11CF11C88819981092E000CAA0BBB0B64
:10219000C80ED91EEA1EFB1EC701B60120E831E5B4
:1021A00041E050E00E94BF75CA01B9016F5F7F4FE7
:1021B0008F4F9F4F27E030E040E050E00E949D7538
:1021C0007D876C87C701B601DF91CF911F910F9179
:1021D000FF90EF90DF90CF90BF90AF909F908F9047
:1021E0007F9008951F93CF93DF93CDB7DEB76297AB
:1021F0000FB6F894DEBF0FBECDBF1FB7F894809125
:10220000480D882309F403C180915E0D90915F0D04
:102210008C5697409C878B878091600D8150990BDD
:102220009A8789878091610D90E098878F8380914C
:10223000620D90E09E838D838091630D90E09C837E
:102240008B838091640D90E09A8389838FEF9FEF59
:10225000988B8F87CE0101960E94B30F6093350D46
:102260007093360D8093370D9093380D8091350D16
:102270009091360DA091370DB091380D8F3F9F4F43
:10228000AF4FBF4F09F0ACC010921F0D8091470DAA
:1022900080931E0D8091660D8093390D8091670D9E
:1022A00080933A0D8091490D90914A0DA0914B0D6C
:1022B000B0914C0D8093200D9093210DA093220D91
:1022C000B093230D80914D0D90914E0DA0914F0D27
:1022D000B091500D8093240D9093250DA093260D61
:1022E000B093270D2091550D80E090E0A0E0B0E87C
:1022F000222341F08091510D9091520DA091530DE8
:10230000B091540D20932C0D20912C0D222341F0DF
:102310008093280D9093290DA0932A0DB0932B0D37
:102320001092470D1092660D8FEF8093670D1092FB
:10233000480D80EC97E8ABE8BBE38093490D9093A0
:102340004A0DA0934B0DB0934C0D80934D0D90937F
:102350004E0DA0934F0DB093500D80E090E0A0E0A3
:10236000B0E880935A0D90935B0DA0935C0DB093F1
:102370005D0D8093560D9093570DA093580DB0931B
:10238000590D8093510D9093520DA093530DB0931E
:10239000540D1092550D1092610D1092600D109217
:1023A0005F0D10925E0D83E68093640D8093630D44
:1023B0008093620D1092650DE0916C0DF0916D0DA2
:1023C000309719F08EE19DE009951FBF62960FB618
:1023D000F894DEBF0FBECDBFDF91CF911F9108955E
:1023E0008091350D9091360DA091370DB091380D3B
:1023F0000196A11DB11D8093350D9093360DA093CC
:10240000370DB093380D81E080931F0D3FCF2FB76C
:10241000F89410921F0D10921E0D1092390D8FEF2F
:1024200080933A0D80EC97E8ABE8BBE38093200DF6
:102430009093210DA093220DB093230D8093240D32
:102440009093250DA093260DB093270D80E090E08A
:10245000A0E0B0E88093310D9093320DA093330D3E
:10246000B093340D80932D0D90932E0DA0932F0DCE
:10247000B093300D8093280D9093290DA0932A0DD1
:10248000B0932B0D10922C0D2FBF4ACF0F931F939B
:10249000CF93DF93FC010081118122813381EB0115
:1024A00088819981AA81BB81081719072A073B07F0
:1024B000ACF0081719072A073B0771F481E0048183
:1024C0001581268137814C815D816E817F81041762
:1024D0001507260737071CF080E001C081E0DF9177
:1024E000CF911F910F9108950F931F93CF93DF9377
:1024F000FC010081118122813381EB018881998166
:10250000AA81BB81081719072A073B0771F481E0EC
:1025100004811581268137814C815D816E817F81A7
:10252000041715072607370709F080E0DF91CF91E0
:102530001F910F9108950F931F93FC018481958142
:10254000A681B7814081518162817381811520E824
:102550009207A105B105DCF18C019D010F2EFFE072
:102560003595279517950795FA95D1F7F02D400FDA
:10257000511F621F731F40835183628373839F7750
:10258000AA27BB2784839583A683B7838081918103
:10259000A281B381B7FF42C04481558166817781B2
:1025A000141615061606170674F40196A11DB11D22
:1025B00080839183A283B383505861097109448356
:1025C000558366837783CF011F910F910895B7FFDD
:1025D000DDCFB095A095909581959F4FAF4FBF4FA0
:1025E0008C019D010F2EFFE03595279517950795D6
:1025F000FA95D1F7F02D401B510B620B730B408302
:102600005183628373839F77AA27BB27B095A095D8
:10261000909581959F4FAF4FBF4FB4CF0097A105C5
:10262000B10589F2448155816681778177FFCBCFEF
:102630000197A109B10980839183A283B383505884
:102640006F4F7F4FBCCF8F929F92AF92BF92CF922E
:10265000DF92EF92FF92CF93DF93EC018FB7F89464
:102660009091B60094FDFCCFA091B20080905608E6
:1026700090905708A0905808B0905908C090520800
:10268000D0905308E0905408F09055088FBF2091E7
:102690004E0830914F084091500850915108B0E0D9
:1026A0000E94DE75C60ED71EE81EF91ED701C601B0
:1026B0002FE0B695A795979587952A95D1F7880D20
:1026C000991DAA1DBB1D88839983AA83BB83CE0154
:1026D0000E949B12E894D7F8EE24FF24CC82DD827E
:1026E000EE82FF82CE01DF91CF91FF90EF90DF90DD
:1026F000CF90BF90AF909F908F900C949B127F9241
:102700008F929F92AF92BF92CF92DF92EF92FF9201
:102710000F931F93CF93DF93CDB7DEB760970FB6BC
:10272000F894DEBF0FBECDBF8C017FB6F89488E071
:10273000F801A0EABDE001900D928A95E1F7C09002
:10274000B00DD090B10DE090B20DF090B30DC1146A
:10275000D104E104F10409F4A0C01092940D109288
:10276000950D1092960D1092970D80E99DE00E94B4
:102770009B128090A00D9090A10DA090A20DB09002
:10278000A30DC501B401A70196010E94BF756B019D
:102790007C018C189D08AE08BF088092900D909225
:1027A000910DA092920DB092930D80E99DE00E9450
:1027B0009B128FE0CC0CDD1CEE1CFF1C8A95D1F720
:1027C0008091A40D9091A50DA091A60DB091A70D9B
:1027D000C82AD92AEA2AFB2A80914B0804C0F69419
:1027E000E794D794C7948A95D2F7C0924C0880E0BA
:1027F00097E09093870D8093860D10928B0D109229
:102800008A0D81E080938E0D7FBE19861A861B8605
:102810001C861D861E861F86188ACE0109960E9478
:102820002313FFB6F8948091520890915308A09119
:102830005408B0915508409156085091570860913E
:1028400058087091590849835A836B837C838D8320
:102850009E83AF83B887CE0101960E949B12809120
:10286000B60084FDFCCFBE016F5F7F4F80E99DE025
:102870000E947412882339F080914C089091B20024
:10288000981708F445C0B801CE0109960E94461277
:10289000FFBE882309F459C05CC08091A00D9091BF
:1028A000A10DA091A20DB091A30D8093900D9093D6
:1028B000910DA093920DB093930D80E99DE00E943D
:1028C0009B128090A40D9090A50DA090A60DB090A5
:1028D000A70D2091B40D3091B50D4091B60D5091DA
:1028E000B70DC501B4010E94BF756B017C018C1846
:1028F0009D08AE08BF088092940D9092950DA0920D
:10290000960DB092970D80E99DE00E949B1264CFD6
:102910009091B60093FDFCCF8093B300809170003E
:10292000826080937000CE0109960E942313B80143
:10293000CE0109960E944612811104C080918E0D2D
:10294000811102C0FFBEA8CFFFBE61E080E00E94FF
:10295000D20681E060960FB6F894DEBF0FBECDBF01
:10296000DF91CF911F910F91FF90EF90DF90CF906B
:10297000BF90AF909F908F907F9008950F931F937B
:10298000CF93DF93EC0188819981AA81BB81FB0100
:102990000081118122813381800F911FA21FB31FFB
:1029A00088839983AA83BB838C819D81AE81BF81FB
:1029B0004481558166817781840F951FA61FB71FBB
:1029C0008C839D83AE83BF83CE010E949B12CE0178
:1029D000DF91CF911F910F9108950F931F93CF9384
:1029E000DF93CDB7DEB728970FB6F894DEBF0FBEE2
:1029F000CDBF8C01FB0184819581A681B781B09503
:102A0000A095909581959F4FAF4FBF4F40815181C9
:102A10006281738170956095509541955F4F6F4FBE
:102A20007F4F49835A836B837C838D839E83AF83DF
:102A3000B887CE0101960E949B12BE016F5F7F4F47
:102A4000C8010E94BE14C80128960FB6F894DEBFD4
:102A50000FBECDBFDF91CF911F910F910895FC0163
:102A600080818C7090E0FC01F695E795E80FF91FE6
:102A7000EA56FE4F80819181A281BC018A2F90E0AD
:102A800008950F931F93CF93DF93EC010E94B20937
:102A9000088119812A813B81DC01CB01800F911FC4
:102AA000A21FB31F8C839D83AE83BF83DF91CF9121
:102AB0001F910F9108952F923F924F925F926F92C4
:102AC0007F928F929F92AF92BF92CF92DF92EF92BE
:102AD000FF920F931F93CF93DF9300D000D000D0CD
:102AE000CDB7DEB78C0161507109CA01880F991FFB
:102AF000880F991F9801280F391F3A832983312C99
:102B0000212CE981FA81C080D180E280F3802616F1
:102B100037060CF051C09101C101880F991F880F31
:102B2000991F800F911F9E838D83CB01D901ED8169
:102B3000FE8181909190A190B190FE83ED838C14E1
:102B40009D04AE04BF04ACF0FC01EE0FFF1FEE0FBE
:102B5000FF1FE00FF11FFC83EB8334974480558007
:102B600066807780C414D504E604F7042CF401973A
:102B7000F2CF2F5F3F4FDACF821793079CF0ED81A2
:102B8000FE8134974082518262827382EB81FC81A4
:102B900080829182A282B382D901119601978A170D
:102BA0009B073CF7841795070CF41D014A175B0738
:102BB0000CF0CB01BC01A5CFC701B60126960FB61C
:102BC000F894DEBF0FBECDBFDF91CF911F910F9163
:102BD000FF90EF90DF90CF90BF90AF909F908F903D
:102BE0007F906F905F904F903F902F900895DB0102
:102BF000A40FB11D282FFC018E2F821B841718F4FF
:102C00008E918193F9CF08950F931F93CF93DF9304
:102C1000DC011496EC911497F0E0FE2FEE27159648
:102C20008C911597E80FF11DC42FD0E0CC0FDD1F5C
:102C3000C350DE4F88819981EF01C80FD91F6C17EF
:102C40007D0798F0B9018D01EA0FFB1F41934FEF0B
:102C5000480FCF010E94F715F801D483C58381E0A6
:102C6000DF91CF911F910F91089580E0F9CF8F925E
:102C70009F92BF92CF92DF92EF92FF920F931F939A
:102C8000CF93DF9300D0CDB7DEB7FC01B62E6A013B
:102C900079019A01220F331F220F331FC9010196B8
:102CA0009A838983848190E0982F88270581080F73
:102CB000192F111D2C5F3F4F200F311F213084E051
:102CC000380738F5348325830E0F1F1F21E2F801E2
:102CD0002193CF0142E0BE016F5F7F4F0E94F71545
:102CE0004801F4E08F0E911CF801B38210E000E07F
:102CF000C016D106E9F044E0B701C4010E94F715FF
:102D0000F4E08F0E911C84E0E80EF11C0F5F1F4F62
:102D1000EFCF80E00F900F90DF91CF911F910F9137
:102D2000FF90EF90DF90CF90BF909F908F9008958D
:102D300081E0F0CF0F931F93CF93DF9300D000D0AB
:102D400000D0CDB7DEB7FC018B0181E4DB018C93B1
:102D500087E511968C931197808112968C93129728
:102D600081818E7F13968C93139714961C921497DF
:102D70008EE015968C9315978281938116969C937D
:102D8000169717968C93808591854481558166812D
:102D9000778149835A836B837C839E838D8344E050
:102DA000BE016F5F7F4FC80108960E94F71542E091
:102DB000BE016B5F7F4FC8010C960E94F71581E042
:102DC00026960FB6F894DEBF0FBECDBFDF91CF9130
:102DD0001F910F910895FC01248130E0322F2227AA
:102DE0009581A901490F511DCA01238120FD0A9730
:102DF00008952F923F924F925F926F927F928F929F
:102E00009F92AF92BF92CF92DF92EF92FF920F9379
:102E10001F93CF93DF93CDB7DEB72C970FB6F894FF
:102E2000DEBF0FBECDBF5B01822E902EE98628E06B
:102E3000E3E5F1E0DE01119601900D922A95E1F7AC
:102E4000437050E01A01220C331C220C331C280E54
:102E5000391ED1014D905D906D907C906A01BFEF5D
:102E6000CB1ADB0AE3E0CE22DD24CC0CDD1CCC0C3B
:102E7000DD1CC80ED91EFA013396E370FF27EE0F52
:102E8000FF1FEE0FFF1FE80FF91FE080F1800281A6
:102E900013814E5F5F4F43705527440F551F440FFA
:102EA000551F840F951FDC012D913D914D915C9133
:102EB000F6016081718182819381A985EA2FF0E01A
:102EC000EE0FFF1FA1E0B0E0AC0FBD1FEA0FFB1F2C
:102ED0000190F081E02D0995B4E09B9EF001112452
:102EE000E151F64F259135914591549129873A87C3
:102EF0004B875C87D5010D911D912D913C91400E22
:102F0000511E621E731E460E571E681E791E89854D
:102F10009A85AB85BC85840D951DA61DB71DAC019A
:102F2000BD01082C04C0440F551F661F771F0A946B
:102F3000D2F7282D21952F712C013D0104C07694E4
:102F40006794579447942A95D2F7442A552A662ABB
:102F5000772AF60180819181A281B381840D951D2C
:102F6000A61DB71DF10180839183A283B3832C96A4
:102F70000FB6F894DEBF0FBECDBFDF91CF911F918A
:102F80000F91FF90EF90DF90CF90BF90AF909F9008
:102F90008F907F906F905F904F903F902F9008950B
:102FA0003F924F925F926F927F928F929F92AF92D9
:102FB000BF92CF92DF92EF92FF920F931F93CF9326
:102FC000DF93CDB7DEB7A0970FB6F894DEBF0FBE84
:102FD000CDBF6C015B01FC0180819181A281B38135
:102FE00089839A83AB83BC8384819581A681B781D1
:102FF0008D839E83AF83B88780859185A285B385B5
:1030000089879A87AB87BC8784859585A685B78590
:103010008D879E87AF87B88B80915B0190915C0113
:10302000A0915D01B0915E01898B9A8BAB8BBC8BBB
:103030003B01F12C2E0181E1480E511C43010F2D63
:1030400014E033243394300EF20121912F01E12C4E
:10305000412FB401CE0101960E94F9161150F4E0FF
:103060008F0E911C032D1111ECCF84E0F80EE0E1DE
:103070006E0E711CF0E1FF12DDCF80915F01909127
:103080006001A0916101B09162018D8B9E8BAF8B2D
:10309000B88F88248394912C0FE0080D2E01F5E160
:1030A0004F0E511C340114E0FF24F394F00EF20192
:1030B00021912F01B3016F707727660F771F660F7D
:1030C000771F6A0D7B1DEE24E394412FCE010196FC
:1030D0000E94F9161150F5E06F0E711C0F2D1111A1
:1030E000E3CF84E0880E911CE1E18E169104A1F6F5
:1030F0008091630190916401A0916501B091660196
:10310000898F9A8FAB8FBC8FF5E06F2E712C10E2F8
:103110002E01E9E14E0E511C4301012F44E0F42E33
:1031200033243394300EF20121912F01B4016F70DA
:103130007727660F771F660F771F6A0D7B1DE2E00A
:10314000EE2E4F2DCE0101960E94F916FA94F3E06F
:103150008F0E911C032DF110E3CF1C5F84E0681AE1
:1031600071081033A9F68091670190916801A091D0
:103170006901B0916A018D8F9E8FAF8FB8A3712CBA
:10318000612C2E01EDE14E0E511C4301012F84E014
:10319000F82E33243394300EF20121912F01B40123
:1031A0006F707727660F771F660F771F6A0D7B1D7D
:1031B00033E0E32E4F2DCE0101960E94F916FA94CA
:1031C000F7E08F0E911C032DF110E3CF1C5F84E01C
:1031D000681A71081034A9F6F60180819181A281E4
:1031E000B38149815A816B817C81840F951FA61F11
:1031F000B71F80839183A283B38384819581A68145
:10320000B7814D815E816F817885840F951FA61FE0
:10321000B71F84839583A683B78380859185A28514
:10322000B38549855A856B857C85840F951FA61FBC
:10323000B71F80879187A287B38784859585A685E8
:10324000B7854D855E856F857889840F951FA61F8C
:10325000B71F84879587A687B78780899189A289B8
:10326000B3890196A11DB11D808B918BA28BB38B6D
:10327000A0960FB6F894DEBF0FBECDBFDF91CF9101
:103280001F910F91FF90EF90DF90CF90BF90AF9084
:103290009F908F907F906F905F904F903F90089598
:1032A000EF92FF920F931F93E094F0940095109586
:1032B0006E297F29802B912B6227732784279527DE
:1032C0001F910F91FF90EF900895EF92FF920F934F
:1032D0001F932E253F2540275127622773278427D8
:1032E00095271F910F91FF90EF900895EF92FF9215
:1032F0000F931F9362277327842795276E217F21C1
:103300008023912362277327842795271F910F918C
:10331000FF90EF900895EF92FF920F931F932E2549
:103320003F254027512762237323842395236E254D
:103330007F25802791271F910F91FF90EF9008958F
:1033400020911308260F3327331F21323105ECF467
:103350002091A608FC0190E080E0243069F082E032
:103360000895A09113082191AC014F50584FA40F1C
:10337000B52FB11D2C930196861798F380911308F1
:10338000680F6093130880E0089581E0089510921B
:10339000A60881E0809385081092800861E084E1AE
:1033A0000E94FB0861E085E10E94FB08E9EBF0E088
:1033B00080818E7F808380818D7F80838CE5809368
:1033C000B80085E48093BC000895CF93DF9391E02B
:1033D0009093F0078823B9F0C091B800D091BA005B
:1033E0008091BC008A7B8093BC0060E084E10E94F5
:1033F000FB0860E085E10E94FB080E94C719D0939A
:10340000BA00C093B800DF91CF910895CF92DF92B8
:10341000EF92FF920F931F93CF93DF93D82FC62F76
:10342000613208F098C00E94B2096B017C01809162
:10343000A60881116BC081E08093A608809385085F
:103440009FEF90938408109283089C0F90938208BA
:103450008093810880918108DD0FD82BD09381085B
:1034600080918008813009F078C0109280080E9415
:10347000B2096B017C01809181088093BB0080912F
:10348000A8089091A908A091AA08B091AB08892B2F
:103490008A2B8B2BA1F00E94B2090091A8081091F1
:1034A000A9082091AA083091AB086C197D098E09F2
:1034B0009F09061717072807390708F448C08091A5
:1034C000BC0083FDD8CF85EC8093BC000E94B2097C
:1034D0006B017C018091A608813009F440C0809185
:1034E00083088C1710F4C0918308E0E6F8E0A6E8A2
:1034F000B8E080E08C1355C08C2FDF91CF911F91E5
:103500000F91FF90EF90DF90CF9008958091A808E1
:103510009091A908A091AA08B091AB08892B8A2B99
:103520008B2B09F484CF0E94B2090091A808109156
:10353000A9082091AA083091AB086C197D098E0961
:103540009F09061717072807390708F070CF8091E1
:10355000A7080E94E519C0E0CFCF85EEB5CF8091D6
:10356000A8089091A908A091AA08B091AB08892B4E
:103570008A2B8B2B09F4AECF0E94B2090091A808C8
:103580001091A9082091AA083091AB086C197D0907
:103590008E099F09061717072807390708F09ACFE1
:1035A000D6CF91919D938F5FA5CF08950895E09117
:1035B0005A0880915B08E81730F4F0E0EA57F74FBB
:1035C000808190E008958FEF9FEF0895CF92DF9272
:1035D000EF92FF920F931F93CF93DF937C01CB0168
:1035E0008A0120915F08222389F0EB016B01C40E50
:1035F000D51ECC15DD0569F06991D701ED91FC91DF
:103600000190F081E02DC7010995F3CF642F0E944E
:10361000A019C801DF91CF911F910F91FF90EF90FA
:10362000DF90CF900895CF93DF931F92CDB7DEB791
:10363000698320915F082223F9F020915C082032F1
:1036400058F021E030E0FC013383228390E080E0F9
:103650000F90DF91CF91089580915D08E82FF0E001
:10366000E053F84F998190838F5F80935D0880933A
:103670005C0881E090E0ECCF61E0CE0101960E9411
:10368000A019F7CF682F81E692E30C94131BCF9219
:10369000DF92EF92FF920F931F93CF93DF93D0911E
:1036A0005C0881E0D13208F09CC0C0915E080E94A5
:1036B000B2096B017C018091A60881116CC082E087
:1036C0008093A60881E0809385088FEF809384081B
:1036D00010928308D0938208A0EDB7E0E0E6F8E00E
:1036E00080E0D8138DC01092810880918108CC0FA2
:1036F000C82BC093810880918008813009F084C074
:10370000109280080E94B2096B017C0180918108AF
:103710008093BB008091A8089091A908A091AA0865
:10372000B091AB08892B8A2B8B2BA1F00E94B20998
:103730000091A8081091A9082091AA083091AB081F
:103740006C197D098E099F09061717072807390785
:1037500008F442C08091BC0083FDD8CF85EC8093F3
:10376000BC000E94B2096B017C018091A6088230E6
:1037700009F44CC0809184088F3F09F469C080919E
:103780008408803209F466C080918408803309F48B
:1037900063C084E026C08091A8089091A908A091F8
:1037A000AA08B091AB08892B8A2B8B2B09F483CF05
:1037B0000E94B2090091A8081091A9082091AA08B6
:1037C0003091AB086C197D098E099F090617170700
:1037D0002807390708F06FCF8091A7080E94E519E4
:1037E00085E010925D0810925C0810925F08DF91EE
:1037F000CF911F910F91FF90EF90DF90CF900895A0
:103800009D9191938F5F6DCF85EEA9CF8091A80890
:103810009091A908A091AA08B091AB08892B8A2B96
:103820008B2B09F4A2CF0E94B2090091A808109135
:10383000A9082091AA083091AB086C197D098E095E
:103840009F09061717072807390708F08ECFC4CF3E
:1038500080E0C7CF82E0C5CF83E0C3CFCF93DF93B3
:10386000D82FC62F80916E0D0E9455066D2F81E6D0
:1038700092E30E94131B6C2F81E692E30E94131BBC
:1038800081E692E3DF91CF910C94471B682F8091E2
:103890006F0D9091700D8130910521F0029779F0B4
:1038A00080E00895603839F067FD06C088E00E9426
:1038B0002E1C81E0089561E861956068F7CF84E28D
:1038C000F6CFCF93DF93D82FC62F80911433806229
:1038D0000E9455066D2F81E692E30E94131B6C2F08
:1038E00081E692E30E94131B81E692E3DF91CF9180
:1038F0000C94471BE0912437E830E0F4F0E0EC57FB
:10390000FD4C608581E020912537211101C081E0C7
:10391000909184329923B9F0660F6E7090E1299FDF
:1039200090011124622B8295880F807E682B89E09C
:103930000C94611C80918B32E82FF0E0EC57FD4C29
:1039400060858170E0CF089580E00E94550688E090
:1039500090E00E94421B81E692E30C94471B80E0BA
:103960000E94550686E090E00E94421B81E692E3A9
:103970000C94471B90E080E008958091CF0781115F
:1039800013C04CE850EF61E070E06BBFFA01479163
:10399000579167917691483549F4523439F46A3633
:1039A00029F47093CF07089580E0089581E0089589
:1039B000CF92DF92EF92FF921F93CF93DF936B0131
:1039C0007C01EA01122F0E94BD1C811105C080916B
:1039D000CF07813049F082E0DF91CF911F91FF90B6
:1039E000EF90DF90CF9008958CE990EFA1E0B0E0E8
:1039F000ABBFFC01A791B691CD0101978E3F9F4FC0
:103A000028F10E94BD1C8111E7CF8091CF07813042
:103A100011F786E990EFA1E0B0E0ABBFFC01A79100
:103A2000B691CD0101978E3F9F4FA8F6C701B60111
:103A300078508F4F9F4F212FAE01FD01DF91CF9125
:103A40001F91FF90EF90DF90CF900994212FAE014E
:103A5000C701B601F2CF69E979E00C94C8076EE5B9
:103A600079E089EC9AE00E94C80789EC9AE00E940C
:103A7000C808F8940FB6F894A89580916000886102
:103A800080936000109260000FBE88E198E00FB64E
:103A9000F894A895809360000FBE90936000FFCFCC
:103AA000EB0168E379E0CE010E94C807E881F98163
:103AB0000680F781E02DCE0109950E942F1D0F93FE
:103AC0001F93CF93DF93EC0181E08093CE0761E0F9
:103AD0008BE10E94FB089FB7F89489819FBF8111F9
:103AE00007C01092B6071092B5071092CC073AC0E3
:103AF00080915E3290915F32892B19F50E94B20954
:103B000000915A3210915B3220915C3230915D32DB
:103B1000DC01CB01801B910BA20BB30B8095909520
:103B2000A095B0958827B7FD83959927AA27BB272D
:103B3000882351F081E090E09093B6078093B50719
:103B4000D4CF0E94060ADCCF8091B5079091B607CA
:103B500082309105D1F10397D9F581E08093CC07AC
:103B60008093CD0780EB94E0A0E0B0E080935632E4
:103B700090935732A0935832B093593281E090E03D
:103B800090935F3280935E3280915E3290915F328B
:103B9000892B09F50E94B2090091563210915732D3
:103BA0002091583230915932060F171F281F391FA4
:103BB00000935A3210935B3220935C3230935D3223
:103BC000DF91CF911F910F91089583E090E0B4CFE2
:103BD00082E090E0B1CF0E94060ADECFCF93DF9360
:103BE000CDB7DEB728970FB6F894DEBF0FBECDBFB6
:103BF00019821A821B821C821D821E821F821886D5
:103C0000809102018823B9F0CE0101960E9423130E
:103C100064ED7DE0CE0101960E94BE14CE010196B6
:103C20000E947F1328960FB6F894DEBF0FBECDBF5B
:103C3000DF91CF9108959FB7F89488E0E0EAFDE026
:103C4000DE01119601900D928A95E1F79FBFE0CFBA
:103C50000F931F93CF93DF93EC0188859985892B70
:103C6000D9F40E94B2090C811D812E813F81DC01B3
:103C7000CB01801B910BA20BB30B80959095A09567
:103C8000B0958827B7FD83959927AA27BB27DF9191
:103C9000CF911F910F9108950E94060AE4CF0F93D0
:103CA0001F93CF93DF93EC01CB018A01BE01685FC4
:103CB0007F4F44E00E94F715BE01645F7F4F42E0F2
:103CC000C801DF91CF911F910F910C94F715DF92EE
:103CD000EF92FF920F931F93CF93DF9300D000D00A
:103CE000CDB7DEB7FC015C834B83048110E0102F5D
:103CF00000278581080F111DC90102969A838983C7
:103D0000A9014B5F5F4F400F511F80E0641775079B
:103D1000D0F17901548345830E0F1F1F22E1F80172
:103D20002193CF0142E0BE016F5F7F4F0E94F715E4
:103D300042E0BE016D5F7F4FC80103960E94F715F8
:103D40000B5F1F4FE00EF11EDD24DA940E151F05E8
:103D5000C9F08B819C819C012F5F3F4FAC01405289
:103D600051094031510548F03C832B830E9467750F
:103D7000F80180830F5F1F4FE9CFF801D0823C83A9
:103D80002B83F8CF81E00F900F900F900F90DF9171
:103D9000CF911F910F91FF90EF90DF9008950F93B7
:103DA0001F93CF93DF93EC01488359836A837B830E
:103DB00081E090E0998788870E94060A088119812E
:103DC0002A813B81DC01CB01800F911FA21FB31F11
:103DD0008C839D83AE83BF83DF91CF911F910F9121
:103DE0000895862F413208F040E2642F0E94061A9F
:103DF00010925A0880935B080895CF92DF92FF9249
:103E00000F931F93CF93DF936C01F42E8B01D0E0BF
:103E1000C0E0F80180810E94550660E081E692E3EF
:103E20000E94131B81E692E30E94471B41E0F801C8
:103E3000608181E692E30E94F11E90915B0880917F
:103E40005A089817B9F0CC0FDD1FCC0DDD1D888105
:103E50009981F801208120936E0D9093700D8093CD
:103E60006F0D81E0DF91CF911F910F91FF90DF9057
:103E7000CF90089521960F5F1F4FCF1550F280E02D
:103E8000F1CF1F93CF93DF93182FCEE6DDE088812B
:103E90000E945506612F81E692E30E94131B81E682
:103EA00092E30E94471B41E0688181E692E30E9411
:103EB000F11E0E947906C82F81E692E30E94471BFB
:103EC0008C2FDF91CF911F91089580916F0D90916C
:103ED000700D029721F460E08EE20C942E1C80E0BD
:103EE0000E94411F20916F0D3091700D21153105F9
:103EF00039F02130310509F48068682F80E0EDCF7A
:103F00008F77FBCF80916F0D9091700D029721F408
:103F100061E08EE20C942E1C80E00E94411F2091F3
:103F20006F0D3091700D2115310531F021303105C3
:103F300029F0682F80E0EECF8068FBCF8F77F9CF34
:103F40008F929F92AF92BF92CF92DF92EF92FF92A9
:103F50000F931F93CF93DF931F92CDB7DEB78C01E2
:103F60001982CE0101960E948C06B82E8981882381
:103F700009F4A8C086E7C82ED12CEE24EA94FE2CC2
:103F800080916E0D0E9455066B2D81E692E30E9492
:103F9000131B81E692E30E94471B498160916E0DDD
:103FA00081E692E30E94F11E0E9479068F770E94BB
:103FB0007F0F90E0F801918380830E9479068F77CC
:103FC0000E947F0F90E0F801938382830E9479061C
:103FD000A82E86FF5DC08F710E947F0F90E0A5FC28
:103FE00055C0F8019583848380916F0D9091700D79
:103FF000029709F052C00E9479068F730E947F0FCA
:1040000090E0F801978386830E947906877099274C
:10401000F801958784870E9479068F710E947F0F2F
:104020008150990BF801918780878981873008F446
:1040300046C00E9479060E947F0F90E08C599F4FE6
:10404000F80193878287F801F786E68681E692E396
:104050000E94471BF801808091808B2D0E94411F98
:104060008F770E947F0F8815190409F089CF81E0AE
:104070000F90DF91CF911F910F91FF90EF90DF9004
:10408000CF90BF90AF909F908F9008950C96A9CF3E
:104090008F730E947F0F90E0A4CF0E9479068770F3
:1040A00099270197F801958784870E9479068F7375
:1040B0000E947F0F90E0F80197838683ACCFD38670
:1040C000C286C1CF80E0D4CF4F925F926F927F9231
:1040D0008F929F92AF92BF92CF92DF92EF92FF9218
:1040E0000F931F93CF93DF9300D000D0CDB7DEB7EF
:1040F0008B016A0119821A821B821C8244E0FC0136
:10410000608181E692E30E94F11E80915B089091AC
:104110005A08891B990B049709F07FC0CE010196BC
:104120007C014E0195E0890E911C57010E94790691
:10413000F50181935F018E169F06C1F78C81982F40
:104140009C709C3009F058C0F601808353E0F60162
:10415000808187FD65C08C7090E09C013695279525
:10416000820F931FFC01E851FE4F20813181428173
:104170002901642E062C000C7708530142018D5250
:104180009E4FFC01208131814281F8011082118211
:1041900012821382F70180E090E0DC016191BA2F76
:1041A000A92F982F8827862B6E2F6E196517B0F3CD
:1041B00088229922AA22BB2289288A288B2809F5DD
:1041C000F80180839183A283B38390E080E00F9015
:1041D0000F900F900F90DF91CF911F910F91FF9053
:1041E000EF90DF90CF90BF90AF909F908F907F9097
:1041F0006F905F904F9008958B81F601808352E01D
:10420000A6CF2901642E062C000C7708B301A20169
:104210008429952BA629B72BD3CF82E090E0D7CF66
:1042200084E090E0D4CF2F923F924F925F926F92B2
:104230007F928F929F92AF92BF92CF92DF92EF9236
:10424000FF920F931F93CF93DF93CDB7DEB76097A5
:104250000FB6F894DEBF0FBECDBFE0918532F0916E
:1042600086323197EC30F10508F0AFC0E65CFE4DC8
:104270000C943476462180218C21A721D1215D2206
:10428000D822D6239B23E02328243E2510921533E1
:10429000109216331092173310921833909188327F
:1042A00080918932989F902D1124E9E1F3E380E019
:1042B00040E050E060E070E8981731F0419351938E
:1042C000619371938F5FF8CF90E080E040E050E021
:1042D00060E070E8FC01E75EF94C28E041935193FF
:1042E000619371932150D1F78096811521E0920757
:1042F00089F782E090E0909386328093853265C0A2
:1043000086EF92E30E94281E882309F45EC00E9473
:10431000AF1C83E090E0EFCF19821A821B821C82CF
:104320001D821E821F821886CE0101960E942313D1
:1043300089819A81AB81BC81809315339093163328
:10434000A0931733B093183384E090E0D4CF0E9449
:104350007A1C409122015091230170E060E08AE0D4
:1043600093E30E94CF1E4091893284E892E320E0DB
:10437000C12CD12CE12C60E8F62E421779F0FC011B
:10438000EB56FE4F30E0C192D192E192F1923F5F45
:104390003031C9F72F5F805C9F4FEFCF85E090E011
:1043A000AACFE0918B32F0E0E251FD4C8081811187
:1043B00025C089E090E090938632809385321092F8
:1043C0004908109248081092470860960FB6F89472
:1043D000DEBF0FBECDBFDF91CF911F910F91FF9038
:1043E000EF90DF90CF90BF90AF909F908F907F9095
:1043F0006F905F904F903F902F900895F0904908F4
:1044000037E03F1518F486E090E0D5CFCF2CD12CC3
:1044100090E00F2C02C0959587950A94E2F780FFF3
:1044200042C0E0904808E11038C000918B3210E0A3
:10443000F601EC57FD4C80890E945506F80153E0C7
:10444000EE0FFF1F5A95E1F7EC57FD4CEC0DFD1DEB
:1044500060A181E692E30E94131B81E692E30E9431
:10446000471B882321F1E110B0CF8AEF90E0A0E054
:10447000B0E08093003390930133A0930233B09364
:104480000333109209331092083380E093E30E94C3
:10449000411581E08093480898CF80E093E30E9423
:1044A000281E882311F2F394F09249088ECFF394DA
:1044B000F09249081092480888CF109148081123BB
:1044C00009F443C080E093E30E94281E8823E9F1A9
:1044D0008CE992E30E942F156093F6327093F732C5
:1044E0008093F8329093F9321092FF321092FE329C
:1044F00086EF92E30E9441158CE992E30E942F150A
:104500008B019C013695279517950795DC01CB010A
:10451000800F911FA21FB31F80930033909301332C
:10452000A0930233B09303331092093310920833EF
:1045300080E093E30E94411587E090E090938632FB
:104540008093853210924908B5CF0E94A41C811136
:104550007CC180918B3248E0849FC00111248C552E
:104560009D4C0E942F156B017C01C092F632D092B7
:10457000F732E092F832F092F9321092FF32109254
:10458000FE3286EF92E30E944115D701C601B6952F
:10459000A79597958795C80ED91EEA1EFB1EC09257
:1045A0000033D0920133E0920233F0920333BCCF58
:1045B00080918B3290E0009147089C012C573D4C34
:1045C000F901EA56FB4F4081041708F4A8C02659A8
:1045D0003F4FD901BC91BE87F5E0880F991FFA952E
:1045E000E1F7FC01E75EF94CFB87EA8710E000E0A9
:1045F00081E090E0002E01C0880F0A94EAF7FE8562
:104600008F2301F180912237882349F120911937B6
:10461000622F70E0C80136E0880F991F3A95E1F7E4
:10462000875E9B4CAB015595479520FD02C04150DC
:1046300051090E945B15AA85BB856D937D938D936F
:104640009C9313970F5F1F4FEA85FB853496FB877A
:10465000EA870830110561F689E090E06FCF212CE0
:10466000312C412C512C3201F80194E0EE0FFF1F48
:104670009A95E1F7F88BEF8780911937281610F794
:10468000EF85F889E20DF11DEE0FFF1FEE0FFF1F02
:10469000E75EFB4C80819181A281B3810097A105E7
:1046A000F0E8BF07A9F03320A9F188159905AA05FC
:1046B000BB0514F44C015D01C816D906EA06FB06D9
:1046C00014F46C017D013394480E591E6A1E7B1E42
:1046D00080912337882369F022E0231550F44C1889
:1046E0005D086E087F08481859086A087B083A94E4
:1046F0003A94232D30E050E040E0C301B2010E9423
:10470000BF75AA85BB852D933D934D935C931397FD
:104710002394B2CF6C017D014C015D01D4CF109187
:104720004908183008F458C1E1E0E00FE093470869
:1047300086E090E003CF10914908809189321817E4
:1047400018F088E090E037CE812F90E09C012C5744
:104750003D4C7901F901EF59FF4F80818823F1F039
:1047600000914808011114C0D70150968C910E9405
:104770005506F701608D81E692E30E94131B81E6E6
:1047800092E30E94471B882369F001111ECE6DCE73
:1047900080E093E30E94281E882331F31F5F10936B
:1047A000490813CE1F5F1093490884CE8AE093E333
:1047B0000E94281E882309F408CE8AE090E09BCD51
:1047C000109148081123E9F180E093E30E94281E2C
:1047D0008823B9F18CE992E30E942F156093F63299
:1047E0007093F7328093F8329093F9321092FF323F
:1047F0001092FE3286EF92E30E9441158CE992E31B
:104800000E942F158B019C013695279517950795CA
:10481000DC01CB01800F911FA21FB31F80930033D7
:1048200090930133A0930233B09303331092093372
:104830001092083380E093E30E9441158BE090E0F2
:104840007DCE0E94A41C882329F21111BECD0DCE6D
:104850000091470880911937081708F4B0C0A12CBF
:104860003091893220918B32A31608F09AC08A2D9C
:1048700090E0FC01EB51FD4C4081442309F488C0D9
:10488000909019370A2D239F000D112410E02091DC
:104890002237A6E0880F991FAA95E1F7211160C081
:1048A000F0912337FE879C01275E3B4C1901812C38
:1048B000B12CC12CD12C7601000F111F000F111F3C
:1048C000075E1C4C981409F463C0F1018191919129
:1048D000A191B1911F010097A105F0E8BF07E1F098
:1048E000BB2009F457C02A853B854C855D8582171E
:1048F0009307A407B50724F48A879B87AC87BD87F5
:10490000481659066A067B0614F42C013D01B3943F
:10491000C80ED91EEA1EFB1E3E85332389F042E0F5
:104920004B1570F4C418D508E608F7088A859B85EE
:10493000AC85BD85C81AD90AEA0AFB0ABA94BA94AA
:104940002B2D30E050E040E0C701B6010E94BF755A
:10495000D8012D933D934D935C9313978394B2CFDD
:10496000692D70E0875E9B4CAB015595479590FC97
:1049700002C0415051090E945B15000F111F000F2A
:10498000111FF801E75EFC4C60837183828393837F
:10499000A39466CF2C013D014A865B866C867D869A
:1049A000B6CF81E0820F80938B3290918832891745
:1049B00008F4CACC10928B328CE090E09CCC109121
:1049C000490880918932181738F0E1E0E00FE09350
:1049D00047088AE090E0B2CDE12EF12CF701EB51CF
:1049E000FD4C8081882309F4D9CE86EF92E30E94A2
:1049F000281E882309F4E9CC1986AE01475F5F4F72
:104A0000BE016F5F7F4FC7018C569D4C0E94642092
:104A1000811103C0298527FF07C080E093E30E942E
:104A2000281E8111BBCED1CCF70184E0EE0FFF1F11
:104A30008A95E1F7E00FF11DEE0FFF1FEE0FFF1F4C
:104A4000E75EFB4C422F4C7050E05595479589E04E
:104A500090E0841B950B2370821B910949815A8138
:104A60006B817C8104C0440F551F661F771F8A9598
:104A7000D2F7408351836283738390CE0E947A1C65
:104A800080911E0190911F01A0912001B091210100
:104A9000892B8A2B8B2B29F060E080918A320E942F
:104AA000FB088DE090E027CCCF93C82F8091143382
:104AB00080620E9455066C2F81E692E30E94131BD0
:104AC00081E692E30E94471B8091143361E080628B
:104AD0000E94061A10925A0880935B0881110E9466
:104AE0007906CF910895EF92FF921F93CF93DF93B2
:104AF0001F92CDB7DEB7FC01218D328D8FEF9FEF76
:104B0000232B01F1148568E270E0812F0E94E40BF1
:104B1000E82EF12CFE2CEE2469E270E0812F0E9439
:104B2000E40B612F6295660F607E685E21E030E0E5
:104B3000AE014F5F5F4F8E0D9F2D911D0E94340A75
:104B4000898190E00F90DF91CF911F91FF90EF90BE
:104B500008950E960C947325CF92DF92EF92FF92F8
:104B60000F931F93CF93DF937C01EB01809126324B
:104B7000909127326817790788F0C81BD90BEC0E83
:104B8000FD1E20912232309123323093293220931E
:104B9000283210922B3210922A32EC018091283266
:104BA000909129320091243210912532081B190B63
:104BB0006801C017D10708F46E01A601B7010E9471
:104BC00061768091223290912332C017D10730F460
:104BD00080912832909129328C0D9D1D909329321D
:104BE000809328320C171D07C0F4CE01801B910B57
:104BF0008C01B7016C0D7D1DAC0180912832909124
:104C000029320E9461764091283250912932400F1A
:104C1000511F5093293240932832209126323091EF
:104C2000273280912A3290912B32A901481B590BCF
:104C3000C417D50768F030932B3220932A32DF91C6
:104C4000CF911F910F91FF90EF90DF90CF9008953B
:104C5000C80FD91FD0932B32C0932A32F0CFDC017A
:104C60008FE892E08D939D9384E0FB0101900D927B
:104C70008A95E1F708958F929F92AF92BF92CF925B
:104C8000DF92EF92FF920F931F93CF93DF93EC018C
:104C90007B01088519854017510708F48A01CC2447
:104CA000DD24C01AD10AE114F10481F06E817F8104
:104CB000888199815B01A81AB90A0A151B0558F564
:104CC0006C0D7D1DA801C7010E9461768E819F81B8
:104CD0008C0D9D1D9F838E832881398182179307B8
:104CE00030F42C813D81820F931F9F838E838885B2
:104CF0009985801B910B99878887C801DF91CF9197
:104D00001F910F91FF90EF90DF90CF90BF90AF90E9
:104D10009F908F90089548018A189B086A817B8133
:104D200068197909A401C7010E94617668817981B7
:104D3000A501C701880D991DC7CF0F931F93CF936E
:104D4000DF93CDB7DEB72C970FB6F894DEBF0FBE5A
:104D5000CDBF8C018AE0E2E2F2E3DE011196019020
:104D60000D928A95E1F742E050E0BE01655F7F4F0A
:104D7000CE0101960E943B260297B9F42B853C8513
:104D80002E5F3F4F81E0F801408551854217530760
:104D900008F080E02C960FB6F894DEBF0FBECDBFB2
:104DA000DF91CF911F910F91089581E0F3CFBF92D2
:104DB000CF92DF92EF92FF920F931F93CF93DF93E7
:104DC000CDB7DEB728970FB6F894DEBF0FBECDBFC4
:104DD0008C01DC01ED91FC910680F781E02D0995B5
:104DE000F801B484D12CC12C8B2D0E942B0C7C019A
:104DF000892B21F08B2D0E942B0C6C01EC14FD04EF
:104E000099F790E080E0EF2859F148E050E0BE01CA
:104E10006F5F7F4FD8011C968C910E945B0C181617
:104E20001906F4F4D801519684E0FE013196019000
:104E30000D928A95E1F78D8190E0982F88272E8139
:104E4000820F911DF801968B858B8F81282F30E082
:104E5000322F22278885820F932F911D928F818F69
:104E600028960FB6F894DEBF0FBECDBFDF91CF916D
:104E70001F910F91FF90EF90DF90CF90BF9008951A
:104E80000E960C94D7264F925F926F927F928F92DC
:104E90009F92AF92BF92CF92DF92EF92FF920F93C9
:104EA0001F93CF93DF93CDB7DEB763970FB6F89418
:104EB000DEBF0FBECDBF7C016B013A01FB01DB0100
:104EC0008D918111FDCF30E020E090E080E05AE04C
:104ED0004191442301F1843091050CF042C04E32DF
:104EE00069F42F3F310509F0E4F5D301A80FB91F8C
:104EF00012962C93019630E020E0EACF529FB00149
:104F0000539F700D1124242F440F330B205331096C
:104F1000260F371FDDCF2F3F310509F014F5843000
:104F20009105FCF4680E791EF3012283CC24C3940E
:104F3000D12CC60163960FB6F894DEBF0FBECDBF6D
:104F4000DF91CF911F910F91FF90EF90DF90CF9065
:104F5000BF90AF909F908F907F906F905F904F9099
:104F60000895F70142815381648175818091140D08
:104F70009091150DA091160DB091170D4817590776
:104F80006A077B0709F401C28701085F1F4F0E946F
:104F9000060A6F7077277C5FC8010E94B80D8130C8
:104FA00009F0F8C18FE892E09A838983F701828142
:104FB0009381A481B5818B839C83AD83BE8345E3BC
:104FC00050E0BE016F5F7F4FC8010E943D0B892BEF
:104FD00031F4D12CC12CC8010E941E0CAACF0E9412
:104FE000060AF7017783668342E050E0B7016A5F03
:104FF0007F4FC8010E94160D81E090E09A8389835B
:1050000042E050E0BE016F5F7F4FC8010E94160D65
:1050100080E091E09A83898342E050E0BE016F5FB7
:105020007F4FC8010E94160D1A82198242E050E09B
:10503000BE016F5F7F4FC8010E94160D42E050E035
:10504000BE016F5F7F4FC8010E94160D42E050E025
:10505000BE016F5F7F4FC8010E94160D5601F60119
:105060008081882301F16501F60181912F01882358
:1050700011F08E32B1F446018A189B0818141904F5
:1050800074F48D8641E050E0BE01635F7F4FC8013C
:105090000E94160DA401B501C8010E94160D52010F
:1050A000DECF6201E1CF1D8641E050E0BE01635FCB
:1050B0007F4FC8010E94160DC12CDD24D394DA82E3
:1050C000C98242E050E0BE016F5F7F4FC8010E947D
:1050D000160DDA82C98242E050E0BE016F5F7F4F59
:1050E000C8010E94160DC8010E948C0D892B09F47D
:1050F00070CFF3E0AF2EB12C230122E0420E511C01
:1051000043C0F7014281538164817581818D928D05
:10511000A38DB48D481759076A077B0709F02BC187
:10512000858D968DC59709F026C181A192A10C9716
:105130000CF426C14CE050E0BE016F5F7F4FC80108
:105140000E94CA0C8B819C819827892798279A8B6B
:10515000898BF7014681578129813A81421753078C
:1051600011F497FD30C0C8010E94120BECEFCE2E57
:10517000DD24DA9481E0A81AB10809F42CCFFFEFFE
:10518000CF16DF0609F027CF0E94060A3B014C012B
:10519000C8010E94D726181619060CF4B2CFA8959C
:1051A0000E94060A661977098809990969387341C6
:1051B0008105910508F0DBC062E370E080E090E0DB
:1051C0000E94D309E5CF8F709270892B41F0C801FE
:1051D0000E94120B7BEFC72EDD24DA94CBCF6F80B9
:1051E0007884762467247624D12CC12C6114710430
:1051F000D1F4C8010E94120B6AEFC62EDD24DA94A6
:10520000B9CF8D85811117C0C8010E94E90CC80172
:105210000E94E90CC8010E94E90CC8010E94E90C37
:10522000FFEFCF1ADF0A8D819E8198278927982763
:10523000C816D906A8F441E050E0BE01635F7F4F75
:10524000C8010E94CA0C8D858823D9F28D859FEFF5
:10525000980F9D878823A9F2C8010E94E90CF6CF18
:10526000912C812C41E050E0BE016D5E7F4FC80162
:105270000E94CA0C8B89982F907C61F4882389F056
:105280008B899FEF980F9B8B882341F0C8010E9468
:10529000E90CF6CFC8010E94E90C1B8A8B898111A9
:1052A000E1CF42E050E0BE01615F7F4FC8010E9444
:1052B000CA0C42E050E0BE01635F7F4FC8010E940C
:1052C000CA0CC8010E94E90CC8010E94E90CC8017F
:1052D0000E94E90CC8010E94E90C42E050E0BE01C6
:1052E0006F5E7F4FC8010E94CA0C8F859889811517
:1052F0009140E9F4CD84DE84DC24CD24DC2481E0FB
:10530000C816D104A1F489899A898115944041F085
:10531000C8010E94120B57EFC52EDD24DA942ACF64
:1053200044E050E0B201C8010E94CA0C23CFD12C46
:10533000C12C89899A89982789279827C816D90660
:1053400038F4C8010E94E90CFFEFCF1ADF0AF1CF51
:105350002FEF821A920A6814790409F083CFC801EA
:105360000E94120B46EFC42EDD24DA9403CFCC2426
:10537000CA94DC2CFFCE2EEFC22EDD24DA94FACEB6
:105380009DEFC92EDD24DA94F5CE8EEFC82EDD24F4
:10539000DA94CFCDD12CC12CCCCDAF92BF92CF928D
:1053A000DF92EF92FF920F931F93CF93DF93CDB7CE
:1053B000DEB7AF970FB6F894DEBF0FBECDBF7C014E
:1053C0005B016A010FE812E01A8309831B821C82C9
:1053D0001D821E82CE0109960E94A50B1BA70AA75B
:1053E0001CA61DA61EA61FA68091060D9091070D56
:1053F000A091080DB091090D8EA39FA3A8A7B9A7EE
:105400008B839C83AD83BE8318861F82AE01465D6D
:105410005F4FB501CE0101960E944327813091056F
:10542000B1F4D701ED91FC910488F589E02D1DA31D
:105430000CA38CA59DA5AEA5BFA58EA39FA3A8A7D1
:10544000B9A7A601BE016C5D7F4FC7010995AF9654
:105450000FB6F894DEBF0FBECDBFDF91CF911F9185
:105460000F91FF90EF90DF90CF90BF90AF90089595
:10547000FB0101900020E9F73197AF01461B570B64
:10548000DC01ED91FC910280F381E02D09948F9273
:105490009F92AF92BF92EF92FF920F931F93CF9381
:1054A000DF93CDB7DEB7A1970FB6F894DEBF0FBE7E
:1054B000CDBF7C01FA01CB0119A2223008F42AE009
:1054C0008E010F5D1F4F822E912CB12CA12CBF019C
:1054D000A50194010E949D75F901CA016A300CF57D
:1054E000605DD8016E938D01232B242B252B79F73A
:1054F00090E080E0109721F0BD01C7010E94382A9A
:10550000A1960FB6F894DEBF0FBECDBFDF91CF914D
:105510001F910F91FF90EF90BF90AF909F908F9051
:105520000895695CDECFAB0170E060E02AE00C9486
:10553000472ACF92DF92EF92FF920F931F93CF9360
:10554000DF932115310581F4DC01ED91FC9101908F
:10555000F081E02D642FDF91CF911F910F91FF908B
:10556000EF90DF90CF9009942A30310501F52AE0C1
:1055700077FF1DC06A017B01EC016DE20E94C1074B
:105580008C0144275527BA014C195D096E097F0922
:105590002AE0CE010E94472A800F911FDF91CF9110
:1055A0001F910F91FF90EF90DF90CF900895DF91C2
:1055B000CF911F910F91FF90EF90DF90CF900C94BF
:1055C000472AAB01770F660B770B2AE030E00C948B
:1055D000992ACF93DF93EC01FB012481358140812F
:1055E0005181628173810E94992ACE01DF91CF910E
:1055F0000895242F462F50E070E060E00C94472A75
:105600008F929F92AF92BF92CF92DF92EF92FF92D2
:105610000F931F93CF93DF937C018B014C0182E0AA
:10562000880E911C5701E5E0AE0EB11CD0E0C0E041
:10563000F40161914F014AE050E0C8010E94F92A4B
:105640006C016EE2C8010E94C1078C0D9D1DC80F40
:10565000D91F8A149B0461F74AE050E0F701658185
:10566000C8010E94F92A8C0F9D1FDF91CF911F91D5
:105670000F91FF90EF90DF90CF90BF90AF909F90F1
:105680008F90089569EC7AE00C94002B61E972E048
:105690000C94382AEF92FF920F931F93CF93DF93CE
:1056A00000D0CDB7DEB77B01FC0120812D33D9F4CA
:1056B0008C010F5F1F4F50E040E0BE016F5F7F4FD6
:1056C000C8010E94F4706F3F71058105910509F0D2
:1056D00050F4E981FA81E017F10729F020812111C6
:1056E00002C0609316016CE279E0C7010E94C8070E
:1056F0004AE050E060911601C7010E94F92AC701F3
:105700000E94462B81E00F900F90DF91CF911F9167
:105710000F91FF90EF900895CF92DF92EF92FF925A
:105720000F931F93CF93DF93CDB7DEB72A970FB6B2
:10573000F894DEBF0FBECDBF8B01FC0120812D335D
:1057400009F059C07C01FFEFEF1AFF0A50E040E07A
:10575000BE01675F7F4FC7010E94F47016161706DF
:10576000180619060CF047C0E985FA85EE15FF0505
:1057700009F441C0208121113EC06B017C0134E05D
:10578000F594E794D794C7943A95D1F72FE0D222B5
:10579000EE24FF24C982DA82EB82FC824BE0660FA2
:1057A000771F881F991F4A95D1F766277877882732
:1057B00099276D837E838F839887CE0101960E94FF
:1057C0009B126CEC7DE0CE0101960E944612811185
:1057D00012C0BE016F5F7F4F84EC9DE00E944612B5
:1057E000811109C088E0FE013196A4EDBDE0019071
:1057F0000D928A95E1F76DE679E0C8010E94C8072D
:105800004091D40D5091D50D6091D60D7091D70D6A
:1058100084E0440F551F661F771F8A95D1F780914A
:10582000D80D9091D90DA091DA0DB091DB0D2BE040
:10583000B595A795979587952A95D1F7480F591F44
:105840006A1F7B1F2AE030E0C8010E94992AC80124
:105850000E94462B81E02A960FB6F894DEBF0FBE59
:10586000CDBFDF91CF911F910F91FF90EF90DF900F
:10587000CF9008950F931F93CF93DF93EC010E9475
:10588000E12A8C01CE010E94462B800F911FDF91EF
:10589000CF911F910F9108950F931F93CF93DF9393
:1058A000EC010E94F92A8C01CE010E94462B800F48
:1058B000911FDF91CF911F910F9108950F931F9327
:1058C000CF93DF938C01D0E0C0E06115710519F032
:1058D0000E94382AEC01C8010E94462B8C0F9D1FA4
:1058E000DF91CF911F910F910895EF92FF920F9347
:1058F0001F93CF93DF9300D0CDB7DEB77C018B0130
:105900008091FE319091FF318617970760F464E92A
:1059100072E089EC9AE00E945E2C81E090E0909326
:10592000FD318093FC311A830983B801C7010E94BD
:10593000AC2562E070E0CE0101960E94AC25109289
:10594000FD311092FC3180910A3290910B32049714
:1059500021F410920B3210920A320F900F90DF91C7
:10596000CF911F910F91FF90EF9008950F931F9388
:10597000CF93DF93EC010E94C8078C01CE010E94F7
:10598000462B800F911FDF91CF911F910F910895AA
:105990004F925F926F927F928F929F92AF92BF923F
:1059A000CF92DF92EF92FF920F931F93CF93DF93EB
:1059B000CDB7DEB72C970FB6F894DEBF0FBECDBFC4
:1059C0007C018B012A0169ED78E00E94C80748013B
:1059D000B12CA12C400E511E80E1682E712C0115B6
:1059E00080E11807A8F50415150591F166ED78E03A
:1059F000C7010E94C8078F829886A986BA867C86CE
:105A00006B86BE01695F7F4FC7010E94E92A6C0166
:105A100061ED78E00E94C807C8010E94677590E0B8
:105A2000B0E0A0E089839A83AB83BC837E826D82E1
:105A3000BE016F5F7F4FC6010E94E92A0E94462B7C
:105A40000F5F1F4F8FEF881A980AA80AB80AC7CFAE
:105A5000C7012C960FB6F894DEBF0FBECDBFDF9105
:105A6000CF911F910F91FF90EF90DF90CF90BF905B
:105A7000AF909F908F907F906F905F904F90089520
:105A80004F925F926F927F92AF92BF92CF92DF92CE
:105A9000EF92FF920F931F93CF93DF9300D0CDB778
:105AA000DEB78C015B0150E040E0BE016F5F7F4FCD
:105AB0000E94F4706B017C01C11420E1D206E10464
:105AC000F10408F045C0E981FA81E017F10709F413
:105AD0003FC080818C32E1F58F010F5F1F4F1A8329
