:100000000C94F8050C9455690C942A690C94FF68BB
:100010000C9422060C9422060C9422060C942206C0
:100020000C9422060C94AA690C9480690C94D469EF
:100030000C9422060C9422060C9422060C942206A0
:100040000C9422060C9422060C94B9680C94220697
:100050000C9484680C945A680C9422060C94220622
:100060000C9422060C9422060C94E46A0C9422064A
:100070000C9425680C94FB670C9422060C942206C1
:100080000C9422060C9422060C942206496E76618A
:100090006C69642061646472657373004E6F7420D0
:1000A000666F756E64004E6F204150490053756352
:1000B00063657373005043463835323633004D4321
:1000C0005037393431780044533133303700496E7A
:1000D0007374616C6C20465720726573756C743A4A
:1000E00020000A435243207374617475733A2000F0
:1000F0000A446F776E6C6F6164204352433A20006C
:100100004669726D77617265204352433A200063FD
:100110006F70696564207061727469616C207370BE
:100120006D42756666657220746F20666C617368D7
:100130003A200020636F6D706C657465640A004638
:1001400069726D7761726520646F776E6C6F616440
:1001500020666F722000636F706965642073706D34
:1001600042756666657220746F20666C6173683ACA
:1001700020004572617365642074656D706F7261F3
:100180007279206170706C69636174696F6E20614F
:1001900072656120696E20666C6173682000507220
:1001A0006F63657373696E67204657207570677259
:1001B00061646520005570677261646520666972CC
:1001C0006D7761726520746F2000416C72656164A7
:1001D000792068617665206669726D776172652045
:1001E00076657273696F6E20005265636569766526
:1001F000642075706772616465206669726D7761ED
:100200007265207461673A20005265626F6F7420D6
:10021000636F6D6D616E6420726563656976656498
:100220002066726F6D207365727665720A005341A5
:100230004D504C494E4720494E54455256414C2052
:100240004348414E4745442120000A54696D6520CA
:100250006572726F7220286F75722D736572766584
:1002600072293A20000A4F75722074696D653A2030
:10027000005365727665722074696D653A2000548A
:10028000696D65207365742066726F6D2073657289
:100290007665720A0058626F6F743A2025642E25C5
:1002A000643B2041504920256400556E6B6E6F778A
:1002B0006E206572726F7220636F646500756E6B7D
:1002C0006E6F776E2052544300C700BE00B50041E8
:1002D00063746976652073657474696E67733A0A2E
:1002E000004E6F2072656D6F746520686F73742C9B
:1002F00020747279696E6720666F722031323073B4
:1003000020746F20636F6D6D756E69636174652015
:10031000746F200043616E6E6F74207265736F6C32
:1003200076652000207265736F6C76657320746F3C
:1003300020004C6F6F6B696E672075702000646FD2
:100340006E650044484350206661696C65640052E4
:10035000657175657374696E672049502E2E2E2065
:10036000005573696E672073746174696320495026
:100370000A00202052656D6F746520686F73746E7B
:10038000616D653A2000454550524F4D20736574AC
:1003900074696E67733A0A20204D41433A20005534
:1003A0006E6B6E6F776E204D43550061746D65679F
:1003B0006131323834700061746D65676131323893
:1003C000340061746D656761363434700061746D3A
:1003D00065676136343400536574757020646F6EE0
:1003E000650053657474696E672073616D706C6528
:1003F0002074696D657273004672657175656E6310
:10040000793A2032304D487A0041637475616C202E
:100410004D43553A2000546172676574204D435531
:100420003A2061746D656761313238347000436F12
:100430006E66696775726174696F6E20636F6D7047
:100440006C6574650053616D706C696E6720696ED0
:1004500074657276616C202873293A2000436F75A9
:100460006C64206E6F74206765742074696D6520FC
:1004700066726F6D20686172647761726520525494
:10048000430A00536F6674776172652052544320AB
:100490007365742066726F6D206861726477617233
:1004A00065205254430A00536F6674776172652069
:1004B00052544320636C6F636B3A2000436F6E6647
:1004C00069677572696E672052544320636C6F636D
:1004D0006B730A005254432063616C6962726174E9
:1004E000696F6E3A20004E6F2052544320666F753C
:1004F0006E640A0020617420616464726573732005
:10050000307800466F756E6420004175746F7072AC
:100510006F62696E6720666F72200024504F525AD6
:10052000412C312C25642C310020746F200043684D
:10053000616E67696E6720474E5353206261756430
:1005400020726174652066726F6D200048494836DC
:100550003178780020706F7765722D757020646532
:100560006C617920286D73293A20002070726573C0
:10057000656E7400206E6F74006D65616E0A006DAB
:10058000656469616E0A007472696D6D656420004E
:100590000A6167677265676174653A20006E756D00
:1005A00053616D706C65733A2000206D69737369D7
:1005B0006E670A002070726573656E740A002063AE
:1005C000682E20005D3A203078004144435B0020D3
:1005D0006661696C656420746F20696E6974696115
:1005E0006C6973650A0052696F00496E69746961CC
:1005F0006C6973696E672000484D4143206B6579D3
:100600003A2000536974652049443A200046616EDF
:1006100020687973742E3A200046616E2074656DEF
:10062000702E3A200046656174757265733A2048F1
:100630004F5553454B454550494E472052494F4D24
:100640004554455220484948363158582857697210
:10065000652920474E535320425553595F54494D05
:10066000455F50494E2841332900436F6D6D733A01
:10067000205735353030287764745F726573657440
:1006800029000A4669726D776172653A2052696F76
:100690004C6F672D312E32660A45706F63683A20C1
:1006A000323031380A000A4D435520636C6F636B5A
:1006B0003A2032304D487A0A000A4D435553523A97
:1006C00020000A434B53454C3A20000A5243206F06
:1006D00073632E3A20000A457874656E6465642061
:1006E000667573653A20000A486967682066757305
:1006F000653A20000A4C6F7720667573653A2000D2
:100700000A5369676E61747572653A20000A416325
:100710007475616C204D43553A20000A0A2D2D2D29
:100720002D2D2D2D2D0A546172676574204D435572
:100730003A2061746D656761313238347000506100
:10074000636B65742076616C6964206275742069DE
:100750006E636F727265637420726573706F6E730F
:10076000650023232323232323232323232323233A
:10077000232323232323232300546F6F206D616ED3
:100780007920726574726965733A20003D3D3D3D84
:100790000A003D3D3D3D0A526573706F6E73653AC8
:1007A0000A006D61696E7461696E2072657475729C
:1007B0006E65642000726562696E640072656E65C4
:1007C000776564006661696C6564006F6B0044481E
:1007D0004350206C6561736520004157414B4521B2
:1007E0000A00534C454550210A007320776974680C
:1007F0006F7574206D6573672061636B2C20726563
:10080000626F6F74696E670A00476F6E65200053F0
:10081000657420485720636C6F636B0045455052E8
:100820004F4D20636F6E74656E7473206C656E67D8
:1008300074683A2000486561646572206C656E6773
:1008400074683A20000A5374617475733A20000A80
:10085000506F736974696F6E3A200046697820742E
:10086000696D653A2000474E53532076616C696488
:100870003A200055736520474E53533A20005D3AA5
:10088000200052696F20646174615B000A416D62EF
:1008900069656E743A200048756D69646974793AC7
:1008A0002000537570706C7920766F6C7461676589
:1008B0003A200053797374656D2074656D702E3A1B
:1008C000200054696D657374616D703A2000474E65
:1008D00053532073746174653A20002D2D0A5361BF
:1008E0006D706C696E6720737461727465642C201E
:1008F000726561736F6E3A200054696D6520657290
:10090000726F7220286F75722D474E5353293A200B
:1009100000474E535320636C6F636B2076616C69A4
:10092000643A20003A203078003078004545505233
:100930004F4D2076616C7565733A0A004552524FEF
:10094000523A206261642076616C75657320666F2F
:100950007220656570726F6D526561640045525218
:100960004F523A206261642076616C75657320662F
:100970006F7220656570726F6D577269746500766D
:100980006572626F736974793A20005265626F6FA5
:100990007420636F6D6D616E642072656365697646
:1009A00065642066726F6D20636F6E736F6C650A8D
:1009B000005265626F6F74696E67202E2E2E0A00DA
:1009C00073616D706C696E67496E74657276616C87
:1009D0005F313674685F733A2000556E6B6E6F77C7
:1009E0006E20636F6D6D616E643A200050726576A3
:1009F000696F757320636F6D6D616E6420776173CD
:100A000020746F6F206C6F6E6720666F7220627546
:100A1000666665720A00556E6B6E6F776E204E4D7E
:100A200045412073656E74656E63653A20004261CE
:100A300064204E4D454120636865636B73756D3A64
:100A4000200078A46AD756B7C7E8DB702024EECE22
:100A5000BDC1AF0F7CF52AC68747134630A8019564
:100A600046FDD8988069AFF7448BB15BFFFFBED7D6
:100A70005C892211906B937198FD8E4379A62108B1
:100A8000B44962251EF640B340C0515A5E26AAC73B
:100A9000B6E95D102FD65314440281E6A1D8C8FBF5
:100AA000D3E7E6CDE121D60737C3870DD5F4ED14A2
:100AB0005A4505E9E3A9F8A3EFFCD9026F678A4C10
:100AC0002A8D4239FAFF81F6718722619D6D0C38BB
:100AD000E5FD44EABEA4A9CFDE4B604BBBF670BC7B
:100AE000BFBEC67E9B28FA27A1EA8530EFD4051D3C
:100AF000880439D0D4D9E599DBE6F87CA21F655685
:100B0000ACC4442229F497FF2A43A72394AB39A00D
:100B100093FCC3595B6592CC0C8F7DF4EFFFD15DE4
:100B200084854F7EA86FE0E62CFE144301A3A1113B
:100B3000084E827E53F735F23ABDBBD2D72A91D305
:100B400086EB00002200250028002B00000000009A
:100B50000000000108030200090A00000000000074
:100B60000000040700000000000000000000210059
:100B7000240027002A000102040801020408402082
:100B80001020408080402010080402011080804026
:100B900020100804020104040404020202020404F6
:100BA000020202020303030303030303040401011B
:100BB0000101010101010A202052656D6F74653A3F
:100BC0002000286E6F6E6529000A2020444E533A9B
:100BD00020000A202047573A20000A20204D617348
:100BE0006B3A200020204C6F63616C3A20002A6C25
:100BF00011241FBECFEFD0E4DEBFCDBF13E0A0E0D5
:100C0000B1E0E4E2FFEE00E00BBF02C007900D92FE
:100C1000A23FB107D9F727E3A2EFB3E001C01D92CD
:100C2000AE36B207E1F715E0C8EFD5E004C0219772
:100C3000FE010E942377C73FD107C9F70E94E670E3
:100C40000C9490770C940000CF92DF92EF92FF9279
:100C5000CF93DF93EC016A017B0160E47BE48CE4D9
:100C600090E0A70196010E948C762150310941093C
:100C700051095695479537952795E889F98982E076
:100C80008083211580E1380798F0E889F98910827E
:100C900060EA75E286E290E0A70196010E948C76F8
:100CA00021503109410951095695479537952795A6
:100CB000EC85FD853083EE85FF852083188EEC89D9
:100CC000FD8986E08083EA89FB8980818061808359
:100CD000EA89FB89808188608083EA89FB89808139
:100CE00080688083EA89FB8980818F7D8083DF91A2
:100CF000CF91FF90EF90DF90CF90089591E0909387
:100D00006708809366081092650810926408089539
:100D10008091630890916208891B990B08959091C6
:100D20006208809163082FEF3FEF981748F4E92F8E
:100D3000F0E0E257F74F208130E09F5F9093620828
:100D4000C901089590916208809163082FEF3FEFE9
:100D5000981748F4E92FF0E0E257F74F208130E090
:100D60009F5F90936208C9010895CF93DF93CDB739
:100D7000DEB76E970FB6F894DEBF0FBECDBF9C01F5
:100D80009FE0E8E2F1E0DE01509601900D929A9525
:100D9000E1F79FE0E7E3F1E0DE01119601900D92AB
:100DA0009A95E1F7A6E7BDE011964D915C911297F7
:100DB00095E0949FF001959FF00D112441E050E0E3
:100DC0004C0F5D1FE40FF51F8081F90180831196A0
:100DD0002D913C91929FF001939FF00D1124E40F0F
:100DE000F51F87856E960FB6F894DEBF0FBECDBF98
:100DF000DF91CF910895CF934FB7F8949091700001
:100E0000811120C09D7F90937000B99A282F30E007
:100E1000F901EA56F24F90819923C9F010824FBF31
:100E2000CFB77894220F331FF901EE56F24F40816D
:100E300051812257324FD901ED91FC910995CFBFD5
:100E4000CF9108959B7F90937000BA9ADFCF4FBFE8
:100E5000F7CF81E0809315016093020108958F928E
:100E60009F92AF92BF92CF92DF92EF92FF92FC01DE
:100E70003FB7F8942091B10027708091B60080FDB3
:100E8000FCCF1092B10093B5926093BD4091B80D24
:100E90005091B90D6091BA0D7091BB0DC080D18099
:100EA000E280F38084819581A681B7814115510547
:100EB0006105710509F456C0882499245401841AE7
:100EC000950AA60AB70A8C209D20AE20BF208092EA
:100ED0005E0890925F08A0926008B092610841504D
:100EE0005109610971094C215D216E217F21EFE0DB
:100EF000440F551F661F771FEA95D1F7842B952B5A
:100F0000A62BB72BE0915308AC01BD010E2E04C0F7
:100F100076956795579547950A94D2F7DB01CA01F4
:100F2000882704C0880F991FAA1FBB1FEA95D2F714
:100F300080935A0890935B08A0935C08B0935D0877
:100F40008091B6008171E1F74093B2002093B10027
:100F50003FBFFF90EF90DF90CF90BF90AF909F90FA
:100F60008F900895C0925E08D0925F08E09260086A
:100F7000F0926108C7CF20E3FC0120833296862FD0
:100F800082958F706F706A3030F4605D6293682F65
:100F90008111F5CF0895695CF9CFFC016150770BA1
:100FA00085E0660F771F8A95E1F760764C50550B08
:100FB000440F551F4C70642B243041F0283041F011
:100FC000223011F0608308956160FCCF6260FACF37
:100FD0006360F8CFDC01ED91FC910190F081E02D90
:100FE0000994EF92FF920F931F93CF93DF938C019D
:100FF0007B01D0E0C0E0F701EC0FFD1F6491662398
:1010000061F0D801ED91FC910190F081E02DC801D3
:101010000995892B11F02196EECFCE01DF91CF916A
:101020001F910F91FF90EF900895AF92BF92CF92D2
:10103000DF92EF92FF920F931F93CF93DF936C0198
:101040007B018B01040F151FEB015E01AE18BF0879
:10105000C017D10759F06991D601ED91FC9101902B
:10106000F081E02DC6010995892B79F7C501DF9143
:10107000CF911F910F91FF90EF90DF90CF90BF9095
:10108000AF900895FC01538D448D252F30E0842FBF
:1010900090E0821B930B541718F081509F4F0895D6
:1010A00001970895FC01918D828D981759F0A28DBA
:1010B000AE0FBF2FB11D5D968C91928D9F5F928F69
:1010C00090E008958FEF9FEF0895FC01918D828D40
:1010D000981731F0828DE80FF11D858D90E008950D
:1010E0008FEF9FEF0895FC01918D828D981B892FC2
:1010F00090E0089584EB98E00E94730821E0892B2A
:1011000009F420E0822F089581ED9AE00E9473088F
:1011100021E0892B09F420E0822F0895FC01A48DA1
:10112000A80FB92FB11DA35EBE4F9C91848D8F5F18
:10113000848FA689B7899C93A089B1898C9183708B
:1011400080648C93938D848D981306C00288F389F4
:10115000E02D80818F7D808308950F931F93CF931F
:10116000DF93EC0181E0888F9B8D8C8D981318C0E4
:10117000E889F989808185FF13C09FB7F894EE89CB
:10118000FF896083E889F989808183708064808326
:101190009FBF81E090E0DF91CF911F910F91089563
:1011A000062F1B8D1F5F8C8D81130CC00FB607FCA3
:1011B000FACFE889F989808185FFF5CFCE010E94B9
:1011C0008E08F1CFEB8DEC0FFD2FF11DE35EFE4F8E
:1011D00000839FB7F8941B8FEA89FB898081806226
:1011E000D6CFCF93DF93EC01888D8823B9F0AA89FD
:1011F000BB89E889F9898C9185FD03C0808186FDD2
:101200000DC00FB607FCF7CF8C9185FFF2CF808120
:1012100085FFEDCFCE010E948E08E9CFDF91CF91FF
:10122000089580E090E0892B29F00E9484088111C4
:101230000E94000080E090E0892B29F00E947A084B
:1012400081110C940000089590E0FC01E45BF44FE0
:101250002491FC01EA58F44F34918A56944FFC01D2
:101260008491882359F12223C1F021502A30A8F417
:10127000E22FF0E0E25CF64F0C94237763096709F4
:1012800048095F094D094D096A09700974097A090D
:10129000909180009F7790938000E82FF0E0EE0F10
:1012A000FF1FEE5BF44FA591B4918FB7F894EC91CA
:1012B000611124C030953E233C938FBF08959091D7
:1012C00080009F7DE8CF94B59F7794BDE6CF94B51D
:1012D0009F7DFBCF9091B0009F779093B000DDCFC2
:1012E0009091B0009F7DF9CF909190009F7790935F
:1012F0009000D3CF909190009F7DF9CF3E2BDCCF13
:10130000CF93DF9390E0FC01EA58F44F24918A5682
:10131000944FFC0184918823C9F090E0880F991FB5
:10132000FC01E459F44FA591B491FC01EE5BF44F3C
:10133000C591D49161110DC09FB7F8948C912095FF
:1013400082238C938881282328839FBFDF91CF91AC
:101350000895623051F49FB7F8943C91822F8095A4
:1013600083238C93E8812E2BEFCF8FB7F894EC91E9
:101370002E2B2C938FBFEACF8830D8F497E0981BA0
:10138000892F20911D0190E4299F900111248770DD
:10139000822B80937C0080917A00806480937A0015
:1013A00080917A0086FDFCCF809178009091790041
:1013B00008958FEFE6CF9FB7F89440914B08509176
:1013C0004C0860914D0870914E0886B5A89B06C0E8
:1013D0008F3F21F04F5F5F4F6F4F7F4F9FBF22279F
:1013E000342F452F562F280F311D411D511DA3E0CD
:1013F000B0E00E94CD7608958F929F92AF92BF92F7
:10140000CF92DF92EF92FF926B017C010E94DB0989
:101410004B015C01C114D104E104F104B9F00E9454
:10142000DB09681979098A099B09683E73408105BF
:10143000910580F321E0C21AD108E108F10888EE95
:10144000880E83E0981EA11CB11CE4CFFF90EF90A2
:10145000DF90CF90BF90AF909F908F9008952FB75F
:10146000F8946091470870914808809149089091DC
:101470004A082FBF089508950FB6F89485B780687D
:1014800085BF85BF0FBE089590E080E00895089560
:1014900081E00895FC01818D928D0895FC0187A162
:1014A00090A508952C9A08952C9808958EBD00005B
:1014B0000DB407FEFDCF8EB50895DF92EF92FF9237
:1014C0000F931F93CF93DF93D82FD92EC62F7A0176
:1014D00089010E94540A8D2D0E94560A8D2F0E9468
:1014E000560A8C2F0E94560AE701E00EF11E80E09A
:1014F0000E94560A8993EC16FD06C9F70E94520A0B
:10150000C801DF91CF911F910F91FF90EF90DF9075
:101510000895DF92EF92FF920F931F93CF93DF9383
:10152000D82FD92EC62F7A0189010E94540A8D2DF9
:101530000E94560A8D2F0E94560A8C2F0E94560A2E
:10154000E701E00EF11ECE15DF0521F089910E9422
:10155000560AF9CF0E94520AC801DF91CF911F911C
:101560000F91FF90EF90DF9008951F93CF93DF933B
:10157000182FD62FC42F0E94540A80E00E94560ACA
:10158000812F0E94560A8D2F0E94560A8C2F0E948E
:10159000560A0E94520A81E0DF91CF911F9108956F
:1015A0000F931F93CF9368EE73E080E090E00E946A
:1015B000FC09249ACFB7F89480915208811127C072
:1015C000E0EAFBE08491E0E8FBE09491E82FF0E0B2
:1015D000EE0FFF1FE459F44FA591B491EC91E9236C
:1015E00021F461E08AE00E94240961E08AE00E941F
:1015F00080098CB580618CBD8CB580648CBD61E048
:101600008DE00E94800961E08BE00E94800980915A
:1016100052088F5F80935208CFBF40E864E090E0AB
:1016200080E00E94B50A6AE070E080E090E00E94ED
:10163000FC09CCE008E010E042E06C2F8EE190E085
:101640000E94B50A42E06C2F8FE190E00E94B50A3B
:1016500001501109C05E0115110571F7CF911F915D
:101660000F9108959B018295880F807E6CE0680F32
:10167000C9010C94B50ACF93DF93EC01898D9A8D43
:10168000892B41F0E881F9810284F385E02DCE01B8
:101690000995F4CFDF91CF910895CF93DF931F92F7
:1016A000CDB7DEB76983DC01ED91FC910280F38157
:1016B000E02D41E050E0BE016F5F7F4F09950F9034
:1016C000DF91CF9108950E960C944D0B1F93CF93FD
:1016D000DF93FB01DC0158961C921E9257972281E2
:1016E000211109C02381211106C02481211103C0C9
:1016F0002581222339F14115510521F1EA01DC014F
:101700001C961C91AF014E5F5F4F612F6295660F73
:10171000607E645F24E030E08CE090E00E94890A03
:101720004D2F60E170E0812F0E94320B4C2F61E160
:1017300070E0812F0E94320B81E090E0DF91CF9129
:101740001F91089590E080E0F9CF0F931F93CF93FE
:10175000DF9300D000D000D0CDB7DEB7FC0143A5A9
:1017600054A527E932E03A83298307A510A921A9C6
:1017700032A90B831C832D833E83BE016F5F7F4F95
:101780000E960E94660B26960FB6F894DEBF0FBE2B
:10179000CDBFDF91CF911F910F910895FC0113826E
:1017A000128288EE93E0A0E0B0E084839583A68364
:1017B000B78387EB91E09183808388E084871686E6
:1017C000158687E992E0908B8787118A128A138A9F
:1017D000148A168A158A108E178A128E118E089511
:1017E000FC0185899689089527E932E0FC0131835F
:1017F0002083FB014189528963897489FC014283FA
:101800005383648375830895DC01ED91FC91048C0E
:10181000F58DE02D099480E00895CF93DF93C82FD4
:10182000D62F0E94540A80E00E94560A8D2F0E94F3
:10183000560A8C2F8295880F807E885F0E94560AF8
:1018400080E00E94560AC82F0E94520A8C2FDF9116
:10185000CF910895CF93C82F462F61E070E00E948A
:10186000320B61E070E08C2F0E940D0C8111F9CFDA
:10187000CF910895CF93C82F60E170E00E942A0CA9
:101880004FEF62E070E08C2FCF910C94320BCF932E
:10189000DF93EC018C85883021F00E943A0C88E0BF
:1018A0008C87DF91CF9108951F93CF93DF93182FEB
:1018B00066E270E00E940D0CC82FD0E0DC2FCC2730
:1018C00067E270E0812F0E940D0C8C0F9D2F911DFF
:1018D000DF91CF911F9108951F93CF93DF93182F1E
:1018E00060E270E00E940D0CC82FD0E0DC2FCC2706
:1018F00061E270E0812F0E940D0C8C0F9D2F911DD5
:10190000DF91CF911F910895AF92BF92DF92EF9236
:10191000FF920F931F93CF93DF93D82E7B018A0101
:10192000B12CA12C8D2D0E94540CEC01892B21F09F
:101930008D2D0E94540C5C01CA15DB0599F7209788
:10194000E9F463E070E08D2D0E940D0C843159F0B4
:10195000882349F0C1E0D0E08C3111F4D0E0C0E040
:10196000D195C195D109CE01DF91CF911F910F91F2
:10197000FF90EF90DF90BF90AF9008950C171D0778
:101980000CF4E8011C161D0674F768E270E08D2D5A
:101990000E940D0C082F10E0102F002769E270E064
:1019A0008D2D0E940D0C080F111D6D2D6295660F77
:1019B000607E685E9E01A701C8010E945D0A0C0F4F
:1019C0001D1F412F68E270E08D2D0E94320B402FC9
:1019D00069E270E08D2D0E94320B60E470E08D2D85
:1019E0000E942A0CC0CFCF93DF93FC01218D328D52
:1019F0002115310529F48FEF9FEFDF91CF910895E5
:101A0000EC0184854217530708F0A9010E94840C59
:101A10001816190684F7298D3A8D281B390B3A8F31
:101A2000298FEBCF0F931F93CF93DF931F92CDB7E7
:101A3000DEB7FC01218D328D232B41F48FEF9FEF18
:101A40000F90DF91CF911F910F9108958C0141E08C
:101A500050E0BE016F5F7F4FFC0184850E94840CC3
:101A6000181619065CF7F801818D928D0197928FF7
:101A7000818F898190E0E4CF0E960C94120D7F92B5
:101A80008F929F92AF92BF92CF92DF92EF92FF928E
:101A90000F931F93CF93DF937C014B018A01FC01CD
:101AA000C789D08D7484B12CA12C872D0E946C0C19
:101AB0006C01892B21F0872D0E946C0C5C01CA14EB
:101AC000DB0499F7C016D10678F4D12CC12C872DF0
:101AD0000E946C0C8C01892B21F0872D0E946C0CCC
:101AE0006C010C151D0599F764E270E0872D0E94CA
:101AF0000D0CD82E65E270E0872D0E940D0CC80FEA
:101B0000D11D8D2D90E0982F8827C80FD91F672DE4
:101B10006295660F607E6C5E9801A401CE010E9402
:101B2000890AC00FD11F4D2F64E270E0872D0E94FB
:101B3000320B4C2F65E270E0872D0E94320BF701CB
:101B40008789908D800F911F908F878BC801DF91BF
:101B5000CF911F910F91FF90EF90DF90CF90BF90AA
:101B6000AF909F908F907F900895CF93FC01C48594
:101B700060E270E08C2F0E942A0C62E070E08C2FF3
:101B80000E940D0C84FD11C062E070E08C2F0E9459
:101B90000D0C83FFF2CF48E162E070E08C2F0E94D1
:101BA000320B90E080E0CF91089540E162E070E078
:101BB0008C2F0E94320B81E090E0F5CF0E960C94B2
:101BC000B50DEF92FF920F931F93CF93FC012485E5
:101BD000283039F080E0CF911F910F91FF90EF9066
:101BE00008957B018C01C0E063E070E08C2F0E94BF
:101BF0000D0C811129C0F801C487F801C485C830D3
:101C000049F3F686E586128E118E8C2F0E943A0CCF
:101C100042E070E060E08C2F0E94320BE114F1048E
:101C2000C9F04F2D64E070E08C2F0E94320B4E2DD6
:101C300065E070E08C2F0E94320B61E070E08C2F29
:101C40000E942A0C81E0C7CF8831A9F2CF5FC8304B
:101C500059F6D3CF00914408109145080F5F1F4FEC
:101C60001093450800934408412F64E070E08C2FE6
:101C70000E94320B402FDCCFCF93DF93EC018AE040
:101C800080933C3784E080933D37D0935A37C0939C
:101C90005937FB0182819381A481B58180935F379D
:101CA00090936037A0936137B093623750935C375D
:101CB00040935B3761E08AE00E94800961E0809197
:101CC0003C370E94240980913D378F3F41F061E00D
:101CD0000E94800961E080913D370E942409BE0185
:101CE0008EE397E30E94E10D81E0DF91CF910895AB
:101CF00024E030E0AC0164E08FE090E00C94890ACD
:101D000024E030E0AC0164E085E090E00C94890AC6
:101D100024E030E0AC0164E081E090E00C94890ABA
:101D2000AF92BF92CF92DF92EF92FF920F931F93E9
:101D3000CF93DF935C016B01EA0179010E94D00A25
:101D400026E030E0A50164E089E090E00E94890A85
:101D5000C60102960E94780EC70102960E94880E64
:101D6000C80102960E94800E8A819B81AC81BD8150
:101D700080930E0D90930F0DA093100DB093110D45
:101D8000DF91CF911F910F91FF90EF90DF90CF9057
:101D9000BF90AF900895FC012081243209F4019690
:101DA000FC0120E0CF013191332341F03A3231F090
:101DB0002327F8CF305D08C0205D0CC0322F32954C
:101DC0003F703A30B8F3395CFB0130832F702A3012
:101DD00098F3295CFB012183089530E020E0EAE0DC
:101DE000615080F0DC017D91CD01E29FA001E39F75
:101DF000500D11249A01270F311D77FD3A9520537C
:101E00003109EECFC9010895882349F08D3039F0AA
:101E1000982F9F7D81E09A3019F080E0089581E04D
:101E20000895BF92CF92DF92EF92FF920F931F938C
:101E3000CF93DF93EB018C01D12CC12C892B61F462
:101E400090E080E0DF91CF911F910F91FF90EF9094
:101E5000DF90CF90BF9008957801F801B1908F0185
:101E6000FCE2BF16F9F08B2D0E94040F81110CC00B
:101E7000C601209739F0019626E0C216D10414F469
:101E8000B88221966C01E8CF2097D1F286E0C8167F
:101E9000D1040CF41882F70180818C3289F6C701D5
:101EA0000196D0CF2097D9F3F1CFCF92DF92FF9256
:101EB0000F931F93CF93DF93EC010097B1F08C0148
:101EC0006801F801F1908F018F2D0E94040F81119C
:101ED0000AC0E801FCE2FF12F3CFF60181810E9403
:101EE000040F882311F0D0E0C0E0CE01DF91CF9144
:101EF0001F910F91FF90DF90CF900895CF93DF93C4
:101F0000EC0162E00E94ED0E80936A0D62E0CE016A
:101F100002960E94ED0E80936B0D62E0CE01049656
:101F20000E94ED0E80936C0D62E0CE0107960E9438
:101F3000ED0E80936D0DCE010996DF91CF910C943B
:101F4000550F6AE00E94EF768295807F890F089591
:101F5000982F92959F708F702AE0929F800D112488
:101F60000895CF93DF93CDB7DEB72D970FB6F894D2
:101F7000DEBF0FBECDBF2DE0E6E4F1E0DE0111963D
:101F800001900D922A95E1F7623021F48370992730
:101F9000892B81F0E1E0F0E0EC0FFD1FE60FF11D71
:101FA00080812D960FB6F894DEBF0FBECDBFDF91B6
:101FB000CF9108958DE1F5CF7F928F929F92AF924E
:101FC000BF92CF92DF92EF92FF920F931F93CF9326
:101FD000DF93EC01888199816CE370E00E940F77B8
:101FE0002A813B81620F731F7B836A8397FD33C015
:101FF000998388838A819B816CE370E00E940F77CC
:102000002C813D81620F731F7D836C8397FD2BC0F4
:102010009B838A838C819D8168E170E00E940F77A9
:102020002E813F81620F731F7F836E8397FD23C0D4
:102030009D838C83888599850C9740F48E819F8140
:102040003BE0A32EB12C18161906FCF0CC24CA9440
:10205000DC2C7601E0C0CC969983888361507109AD
:102060007B836A83C7CFCC969B838A836150710937
:102070007D836C83CFCF48969D838C83615071099B
:102080007F836E83D7CF99868886888499847724C6
:102090007394780C0A851B85680184E9C81A88EF57
:1020A000D80A672DC6010E94B10FEE80FF8090E034
:1020B0008E159F0594F4E81AF90AFF82EE828FEFDD
:1020C000881A980A8CE088169104E9F61986188611
:1020D0000F5F1F4F1B870A87D8CF1E141F04DCF029
:1020E00081E0881A910880F09986888668856F5FFC
:1020F0008A859B858459984F0E94B10F8E0D9F2D24
:10210000911D9F838E83C1CFB986A8860150110986
:102110001B870A87EBCF61E0B12CA12C671550F427
:1021200099249394960EC6010E94B10FA80EB11C7B
:10213000692DF4CFF7013197EA0DFB1DFF87EE877C
:1021400006578DE691E0089F9001099F300D1124FC
:10215000032E000C440B550B802F86958695280F77
:10216000311D411D511D60E871E581E090E00E9444
:102170007C760370C12CD12C7601033039F420E831
:10218000C22E21E5D22EEE24E394F12CC60ED71EEA
:10219000E81EF91EDF0120E831E541E050E00E9431
:1021A000D876C60ED71EE81EF91EAC81BD8120E18F
:1021B0003EE00E943377C60ED71EE81EF91E2A8124
:1021C0003B814CE3429FC001439F900D1124C80EF8
:1021D000D91EE11CF11C88819981092E000CAA0BE3
:1021E000BB0BC80ED91EEA1EFB1EC701B60120E8B4
:1021F00031E541E050E00E94AE76CA01B9016F5F5F
:102200007F4F8F4F9F4F27E030E040E050E00E942B
:102210008C767D876C87C701B601DF91CF911F91C6
:102220000F91FF90EF90DF90CF90BF90AF909F9075
:102230008F907F9008951F93CF93DF93CDB7DEB734
:1022400062970FB6F894DEBF0FBECDBF1FB7F894EC
:102250008091660D9091670D8C5697409C878B8777
:102260008091680D8150990B9A8789878091690DBB
:1022700090E098878F8380916A0D90E09E838D8394
:1022800080916B0D90E09C838B8380916C0D90E02E
:102290009A8389838FEF9FEF988B8F87CE0101966A
:1022A0000E94DC0F60933D0D70933E0D80933F0DB7
:1022B0009093400D8091500D882309F4D1C08091F6
:1022C0003D0D90913E0DA0913F0DB091400D8F3F7F
:1022D0009F4FAF4FBF4F09F0ACC01092270D8091B8
:1022E0004F0D8093260D80916E0D8093410D80914E
:1022F0006F0D8093420D8091510D9091520DA091E0
:10230000530DB091540D8093280D9093290DA093F7
:102310002A0DB0932B0D8091550D9091560DA091E3
:10232000570DB091580D80932C0D90932D0DA093C7
:102330002E0DB0932F0D20915D0D80E090E0A0E078
:10234000B0E8222341F08091590D90915A0DA0914F
:102350005B0DB0915C0D2093340D2091340D222340
:1023600041F08093300D9093310DA093320DB093D6
:10237000330D10924F0D10926E0D8FEF80936F0DF5
:102380001092500D80EC97E8ABE8BBE38093510DC1
:102390009093520DA093530DB093540D8093550D0F
:1023A0009093560DA093570DB093580D80E090E098
:1023B000A0E0B0E88093620D9093630DA093640D4C
:1023C000B093650D80935E0D90935F0DA093600DAB
:1023D000B093610D8093590D90935A0DA0935B0DAE
:1023E000B0935C0D10925D0D1092690D1092680D06
:1023F0001092670D1092660D83E680936C0D8093AA
:102400006B0D80936A0D10926D0DE091740DF0913B
:10241000750D309719F086E29DE009951FBF629611
:102420000FB6F894DEBF0FBECDBFDF91CF911F91E5
:10243000089580913D0D90913E0DA0913F0DB0917A
:10244000400D0196A11DB11D80933D0D90933E0D51
:10245000A0933F0DB093400D81E08093270D3FCFB7
:102460002FB7F8941092270D1092260D1092410D5F
:102470008FEF8093420D80EC97E8ABE8BBE380934D
:10248000280D9093290DA0932A0DB0932B0D8093C6
:102490002C0D90932D0DA0932E0DB0932F0D80E059
:1024A00090E0A0E0B0E88093390D90933A0DA093AE
:1024B0003B0DB0933C0D8093350D9093360DA0935A
:1024C000370DB093380D8093300D9093310DA0935C
:1024D000320DB093330D1092340D2FBF4ACF0F93AE
:1024E0001F93CF93DF93FC010081118122813381FF
:1024F000EB0188819981AA81BB81081719072A07F6
:102500003B07ACF0081719072A073B0771F481E075
:1025100004811581268137814C815D816E817F81A7
:1025200004171507260737071CF080E001C081E07B
:10253000DF91CF911F910F9108950F931F93CF9328
:10254000DF93FC010081118122813381EB018881BD
:102550009981AA81BB81081719072A073B0771F4E3
:1025600081E004811581268137814C815D816E81F6
:102570007F81041715072607370709F080E0DF91F0
:10258000CF911F910F9108950F931F93FC018481A8
:102590009581A681B78140815181628173818115C6
:1025A00020E89207A105B105DCF18C019D010F2EF9
:1025B000FFE03595279517950795FA95D1F7F02DFA
:1025C000400F511F621F731F4083518362837383C7
:1025D0009F77AA27BB2784839583A683B7838081AF
:1025E0009181A281B381B7FF42C044815581668148
:1025F0007781141615061606170674F40196A11DA8
:10260000B11D80839183A283B383505861097109FE
:102610004483558366837783CF011F910F9108957B
:10262000B7FFDDCFB095A095909581959F4FAF4FA7
:10263000BF4F8C019D010F2EFFE035952795179513
:102640000795FA95D1F7F02D401B510B620B730BD8
:1026500040835183628373839F77AA27BB27B095FA
:10266000A095909581959F4FAF4FBF4FB4CF0097E6
:10267000A105B10589F2448155816681778177FF93
:10268000CBCF0197A109B10980839183A283B38342
:1026900050586F4F7F4FBCCF8F929F92AF92BF9297
:1026A000CF92DF92EF92FF92CF93DF93EC018FB73F
:1026B000F8949091B60094FDFCCFA091B200809068
:1026C0005E0890905F08A0906008B0906108C0908C
:1026D0005A08D0905B08E0905C08F0905D088FBFCE
:1026E0002091560830915708409158085091590848
:1026F000B0E00E94CD76C60ED71EE81EF91ED701A7
:10270000C6012FE0B695A795979587952A95D1F79D
:10271000880D991DAA1DBB1D88839983AA83BB833D
:10272000CE010E94C412E894D7F8EE24FF24CC8294
:10273000DD82EE82FF82CE01DF91CF91FF90EF909C
:10274000DF90CF90BF90AF909F908F900C94C41269
:102750007F928F929F92AF92BF92CF92DF92EF9231
:10276000FF920F931F93CF93DF93CDB7DEB76097A0
:102770000FB6F894DEBF0FBECDBF8C017FB6F894C4
:1027800088E0F801A8EABDE001900D928A95E1F792
:10279000C090B80DD090B90DE090BA0DF090BB0D7F
:1027A000C114D104E104F10409F4A0C010929C0DFD
:1027B00010929D0D10929E0D10929F0D88E99DE044
:1027C0000E94C4128090A80D9090A90DA090AA0D0F
:1027D000B090AB0DC501B401A70196010E94AE7681
:1027E0006B017C018C189D08AE08BF088092980D83
:1027F0009092990DA0929A0DB0929B0D88E99DE060
:102800000E94C4128FE0CC0CDD1CEE1CFF1C8A95CC
:10281000D1F78091AC0D9091AD0DA091AE0DB0911E
:10282000AF0DC82AD92AEA2AFB2A8091530804C08E
:10283000F694E794D794C7948A95D2F7C092540837
:1028400089E297E090938F0D80938E0D1092930DF7
:102850001092920D81E08093960D7FBE19861A86A4
:102860001B861C861D861E861F86188ACE01099629
:102870000E944C13FFB6F89480915A0890915B081F
:10288000A0915C08B0915D0840915E0850915F088E
:10289000609160087091610849835A836B837C83DF
:1028A0008D839E83AF83B887CE0101960E94C412A8
:1028B0008091B60084FDFCCFBE016F5F7F4F88E939
:1028C0009DE00E949D12882339F0809154089091D8
:1028D000B200981708F445C0B801CE0109960E94CD
:1028E0006F12FFBE882309F459C05CC08091A80D07
:1028F0009091A90DA091AA0DB091AB0D8093980D68
:102900009093990DA0939A0DB0939B0D88E99DE04B
:102910000E94C4128090AC0D9090AD0DA090AE0DB1
:10292000B090AF0D2091BC0D3091BD0D4091BE0D0A
:102930005091BF0DC501B4010E94AE766B017C01C0
:102940008C189D08AE08BF0880929C0D90929D0D3A
:10295000A0929E0DB0929F0D88E99DE00E94C41246
:1029600064CF9091B60093FDFCCF8093B30080912B
:102970007000826080937000CE0109960E944C1313
:10298000B801CE0109960E946F12811104C0809196
:10299000960D811102C0FFBEA8CFFFBE61E080E0AE
:1029A0000E94FB0681E060960FB6F894DEBF0FBE72
:1029B000CDBFDF91CF911F910F91FF90EF90DF90EE
:1029C000CF90BF90AF909F908F907F9008950F937E
:1029D0001F93CF93DF93EC0188819981AA81BB81FA
:1029E000FB010081118122813381800F911FA21F81
:1029F000B31F88839983AA83BB838C819D81AE8119
:102A0000BF814481558166817781840F951FA61F00
:102A1000B71F8C839D83AE83BF83CE010E94C412F7
:102A2000CE01DF91CF911F910F9108950F931F93C6
:102A3000CF93DF93CDB7DEB728970FB6F894DEBFFC
:102A40000FBECDBF8C01FB0184819581A681B7812A
:102A5000B095A095909581959F4FAF4FBF4F408106
:102A600051816281738170956095509541955F4F5A
:102A70006F4F7F4F49835A836B837C838D839E8303
:102A8000AF83B887CE0101960E94C412BE016F5F6A
:102A90007F4FC8010E94E714C80128960FB6F8942A
:102AA000DEBF0FBECDBFDF91CF911F910F91089573
:102AB000FC0180818C7090E0FC01F695E795E80FB1
:102AC000F91FE256FE4F80819181A281BC018A2FBD
:102AD00090E008950F931F93CF93DF93EC010E9432
:102AE000DB09088119812A813B81DC01CB01800F40
:102AF000911FA21FB31F8C839D83AE83BF83DF9181
:102B0000CF911F910F9108952F923F924F925F9214
:102B10006F927F928F929F92AF92BF92CF92DF92ED
:102B2000EF92FF920F931F93CF93DF9300D000D0CB
:102B300000D0CDB7DEB78C0161507109CA01880F92
:102B4000991F880F991F9801280F391F3A832983ED
:102B5000312C212CE981FA81C080D180E280F38080
:102B6000261637060CF051C09101C101880F991F3C
:102B7000880F991F800F911F9E838D83CB01D901F0
:102B8000ED81FE8181909190A190B190FE83ED83C3
:102B90008C149D04AE04BF04ACF0FC01EE0FFF1FCB
:102BA000EE0FFF1FE00FF11FFC83EB83349744808F
:102BB000558066807780C414D504E604F7042CF4AD
:102BC0000197F2CF2F5F3F4FDACF821793079CF028
:102BD000ED81FE8134974082518262827382EB8163
:102BE000FC8180829182A282B382D90111960197E1
:102BF0008A179B073CF7841795070CF41D014A17A9
:102C00005B070CF0CB01BC01A5CFC701B60126962E
:102C10000FB6F894DEBF0FBECDBFDF91CF911F91ED
:102C20000F91FF90EF90DF90CF90BF90AF909F906B
:102C30008F907F906F905F904F903F902F9008956E
:102C4000DB01A40FB11D282FFC018E2F821B8417DE
:102C500018F48E918193F9CF08950F931F93CF931A
:102C6000DF93DC011496EC911497F0E0FE2FEE2731
:102C700015968C911597E80FF11DC42FD0E0CC0F5D
:102C8000DD1FCB5FDD4F88819981EF01C80FD91F10
:102C90006C177D0798F0B9018D01EA0FFB1F419376
:102CA0004FEF480FCF010E942016F801D483C5834F
:102CB00081E0DF91CF911F910F91089580E0F9CFCE
:102CC0008F929F92BF92CF92DF92EF92FF920F93DB
:102CD0001F93CF93DF9300D0CDB7DEB7FC01B62EA4
:102CE0006A0179019A01220F331F220F331FC90194
:102CF00001969A838983848190E0982F88270581A3
:102D0000080F192F111D2C5F3F4F200F311F21304D
:102D100084E0380738F5348325830E0F1F1F21E226
:102D2000F8012193CF0142E0BE016F5F7F4F0E9407
:102D300020164801F4E08F0E911CF801B38210E0D8
:102D400000E0C016D106E9F044E0B701C4010E94DA
:102D50002016F4E08F0E911C84E0E80EF11C0F5F4A
:102D60001F4FEFCF80E00F900F90DF91CF911F9119
:102D70000F91FF90EF90DF90CF90BF909F908F903A
:102D8000089581E0F0CF0F931F93CF93DF9300D08E
:102D900000D000D0CDB7DEB7FC018B0181E4DB01B0
:102DA0008C9387E511968C931197808112968C9362
:102DB000129781818E7F13968C93139714961C9291
:102DC00014978EE015968C931597828193811696B1
:102DD0009C93169717968C93808591854481558195
:102DE0006681778149835A836B837C839E838D833D
:102DF00044E0BE016F5F7F4FC80108960E94201615
:102E000042E0BE016B5F7F4FC8010C960E94201606
:102E100081E026960FB6F894DEBF0FBECDBFDF91DE
:102E2000CF911F910F910895FC01248130E0322F42
:102E300022279581A901490F511DCA01238120FD37
:102E40000A9708952F923F924F925F926F927F92CE
:102E50008F929F92AF92BF92CF92DF92EF92FF92AA
:102E60000F931F93CF93DF93CDB7DEB72C970FB699
:102E7000F894DEBF0FBECDBF5B01822E902EE98697
:102E800028E0E3E5F1E0DE01119601900D922A952C
:102E9000E1F7437050E01A01220C331C220C331C62
:102EA000280E391ED1014D905D906D907C906A0185
:102EB000BFEFCB1ADB0AE3E0CE22DD24CC0CDD1C15
:102EC000CC0CDD1CC80ED91EFA013396E370FF2727
:102ED000EE0FFF1FEE0FFF1FE80FF91FE080F180DC
:102EE000028113814E5F5F4F43705527440F551F7A
:102EF000440F551F840F951FDC012D913D914D917D
:102F00005C91F6016081718182819381A985EA2FAC
:102F1000F0E0EE0FFF1FA1E0B0E0AC0FBD1FEA0F25
:102F2000FB1F0190F081E02D0995B4E09B9EF0011C
:102F30001124EE5BF54F25913591459154912987E8
:102F40003A874B875C87D5010D911D912D913C915E
:102F5000400E511E621E731E460E571E681E791EBD
:102F600089859A85AB85BC85840D951DA61DB71DE9
:102F7000AC01BD01082C04C0440F551F661F771F0C
:102F80000A94D2F7282D21952F712C013D0104C000
:102F900076946794579447942A95D2F7442A552AF1
:102FA000662A772AF60180819181A281B381840DFE
:102FB000951DA61DB71DF10180839183A283B38364
:102FC0002C960FB6F894DEBF0FBECDBFDF91CF9128
:102FD0001F910F91FF90EF90DF90CF90BF90AF9037
:102FE0009F908F907F906F905F904F903F902F9029
:102FF00008953F924F925F926F927F928F929F922D
:10300000AF92BF92CF92DF92EF92FF920F931F93F6
:10301000CF93DF93CDB7DEB7A0970FB6F894DEBF9E
:103020000FBECDBF6C015B01FC0180819181A2814B
:10303000B38189839A83AB83BC8384819581A68184
:10304000B7818D839E83AF83B88780859185A28564
:10305000B38589879A87AB87BC8784859585A68544
:10306000B7858D879E87AF87B88B80915B019091E4
:103070005C01A0915D01B0915E01898B9A8BAB8B55
:10308000BC8B3B01F12C2E0181E1480E511C430108
:103090000F2D14E033243394300EF20121912F01CF
:1030A000E12C412FB401CE0101960E94221711504C
:1030B000F4E08F0E911C032D1111ECCF84E0F80E7B
:1030C000E0E16E0E711CF0E1FF12DDCF80915F0137
:1030D00090916001A0916101B09162018D8B9E8BF6
:1030E000AF8BB88F88248394912C0FE0080D2E01AC
:1030F000F5E14F0E511C340114E0FF24F394F00E5F
:10310000F20121912F01B3016F707727660F771FAE
:10311000660F771F6A0D7B1DEE24E394412FCE01CD
:1031200001960E9422171150F5E06F0E711C0F2DB1
:103130001111E3CF84E0880E911CE1E18E16910419
:10314000A1F68091630190916401A0916501B09115
:103150006601898F9A8FAB8FBC8FF5E06F2E712C33
:1031600010E22E01E9E14E0E511C4301012F44E013
:10317000F42E33243394300EF20121912F01B40147
:103180006F707727660F771F660F771F6A0D7B1D9D
:10319000E2E0EE2E4F2DCE0101960E942217FA9406
:1031A000F3E08F0E911C032DF110E3CF1C5F84E040
:1031B000681A71081033A9F680916701909168012F
:1031C000A0916901B0916A018D8F9E8FAF8FB8A3D6
:1031D000712C612C2E01EDE14E0E511C4301012F8B
:1031E00084E0F82E33243394300EF20121912F0124
:1031F000B4016F707727660F771F660F771F6A0D10
:103200007B1D33E0E32E4F2DCE0101960E94221745
:10321000FA94F7E08F0E911C032DF110E3CF1C5FA1
:1032200084E0681A71081034A9F6F6018081918152
:10323000A281B38149815A816B817C81840F951F62
:10324000A61FB71F80839183A283B3838481958156
:10325000A681B7814D815E816F817885840F951F2E
:10326000A61FB71F84839583A683B7838085918526
:10327000A285B38549855A856B857C85840F951F0A
:10328000A61FB71F80879187A287B38784859585FE
:10329000A685B7854D855E856F857889840F951FD6
:1032A000A61FB71F84879587A687B78780899189CE
:1032B000A289B3890196A11DB11D808B918BA28B30
:1032C000B38BA0960FB6F894DEBF0FBECDBFDF91D3
:1032D000CF911F910F91FF90EF90DF90CF90BF9013
:1032E000AF909F908F907F906F905F904F903F90A6
:1032F0000895EF92FF920F931F93E094F09400953E
:1033000010956E297F29802B912B622773278427A4
:1033100095271F910F91FF90EF900895EF92FF92E4
:103320000F931F932E253F25402751276227732790
:10333000842795271F910F91FF90EF900895EF92AA
:10334000FF920F931F9362277327842795276E217F
:103350007F218023912362277327842795271F913C
:103360000F91FF90EF900895EF92FF920F931F93AC
:103370002E253F254027512762237323842395233D
:103380006E257F25802791271F910F91FF90EF9049
:10339000089520911B08260F3327331F2132310552
:1033A000ECF42091AE08FC0190E080E0243069F05C
:1033B00082E00895A0911B082191AC014750584F1D
:1033C000A40FB52FB11D2C930196861798F3809109
:1033D0001B08680F60931B0880E0089581E0089542
:1033E0001092AE0881E080938D081092880861E009
:1033F00084E10E94240961E085E10E942409E9EB4F
:10340000F0E080818E7F808380818D7F80838CE55A
:103410008093B80085E48093BC000895CF93DF9338
:1034200091E09093F8078823B9F0C091B800D0914B
:10343000BA008091BC008A7B8093BC0060E084E18C
:103440000E94240960E085E10E9424090E94F0198D
:10345000D093BA00C093B800DF91CF910895CF9276
:10346000DF92EF92FF920F931F93CF93DF93D82FAA
:10347000C62F613208F098C00E94DB096B017C0105
:103480008091AE0881116BC081E08093AE0880937B
:103490008D089FEF90938C0810928B089C0F90934F
:1034A0008A088093890880918908DD0FD82BD093F2
:1034B000890880918808813009F078C010928808C6
:1034C0000E94DB096B017C01809189088093BB001D
:1034D0008091B0089091B108A091B208B091B30862
:1034E000892B8A2B8B2BA1F00E94DB090091B0085D
:1034F0001091B1082091B2083091B3086C197D0980
:103500008E099F09061717072807390708F448C0CE
:103510008091BC0083FDD8CF85EC8093BC000E94D5
:10352000DB096B017C018091AE08813009F440C059
:1035300080918B088C1710F4C0918B08E8E6F8E0B6
:10354000AEE8B8E080E08C1355C08C2FDF91CF91AE
:103550001F910F91FF90EF90DF90CF900895809191
:10356000B0089091B108A091B208B091B308892B2E
:103570008A2B8B2B09F484CF0E94DB090091B008C1
:103580001091B1082091B2083091B3086C197D09EF
:103590008E099F09061717072807390708F070CF0B
:1035A0008091AF080E940E1AC0E0CFCF85EEB5CF54
:1035B0008091B0089091B108A091B208B091B30881
:1035C000892B8A2B8B2B09F4AECF0E94DB0900914B
:1035D000B0081091B1082091B2083091B3086C196D
:1035E0007D098E099F09061717072807390708F074
:1035F0009ACFD6CF91919D938F5FA5CF08950895CF
:10360000E091620880916308E81730F4F0E0E25737
:10361000F74F808190E008958FEF9FEF0895CF924C
:10362000DF92EF92FF920F931F93CF93DF937C0172
:10363000CB018A0120916708222389F0EB016B01FD
:10364000C40ED51ECC15DD0569F06991D701ED9149
:10365000FC910190F081E02DC7010995F3CF642F13
:103660000E94C919C801DF91CF911F910F91FF905E
:10367000EF90DF90CF900895CF93DF931F92CDB757
:10368000DEB76983209167082223F9F0209164084E
:10369000203258F021E030E0FC013383228390E0B7
:1036A00080E00F90DF91CF91089580916508E82F19
:1036B000F0E0E852F84F998190838F5F809365081E
:1036C0008093640881E090E0ECCF61E0CE01019648
:1036D0000E94C919F7CF682F89E692E30C943C1B2E
:1036E000CF92DF92EF92FF920F931F93CF93DF93CE
:1036F000D091640881E0D13208F09CC0C091660886
:103700000E94DB096B017C018091AE0881116CC0C5
:1037100082E08093AE0881E080938D088FEF8093E4
:103720008C0810928B08D0938A08A8EDB7E0E8E6E1
:10373000F8E080E0D8138DC0109289088091890844
:10374000CC0FC82BC093890880918808813009F07C
:1037500084C0109288080E94DB096B017C01809173
:1037600089088093BB008091B0089091B108A09126
:10377000B208B091B308892B8A2B8B2BA1F00E9441
:10378000DB090091B0081091B1082091B208309186
:10379000B3086C197D098E099F09061717072807BA
:1037A000390708F442C08091BC0083FDD8CF85EC76
:1037B0008093BC000E94DB096B017C018091AE0804
:1037C000823009F44CC080918C088F3F09F469C0A5
:1037D00080918C08803209F466C080918C08803317
:1037E00009F463C084E026C08091B0089091B108CC
:1037F000A091B208B091B308892B8A2B8B2B09F4C6
:1038000083CF0E94DB090091B0081091B10820918C
:10381000B2083091B3086C197D098E099F0906170B
:1038200017072807390708F06FCF8091AF080E946B
:103830000E1A85E0109265081092640810926708CD
:10384000DF91CF911F910F91FF90EF90DF90CF907C
:1038500008959D9191938F5F6DCF85EEA9CF809153
:10386000B0089091B108A091B208B091B308892B2B
:103870008A2B8B2B09F4A2CF0E94DB090091B008A0
:103880001091B1082091B2083091B3086C197D09EC
:103890008E099F09061717072807390708F08ECFEA
:1038A000C4CF80E0C7CF82E0C5CF83E0C3CFCF9342
:1038B000DF93D82FC62F8091760D0E947E066D2F44
:1038C00089E692E30E943C1B6C2F89E692E30E94FA
:1038D0003C1B89E692E3DF91CF910C94701B682F1B
:1038E0008091770D9091780D8130910521F00297AC
:1038F00079F080E00895603839F067FD06C088E00F
:103900000E94571C81E0089561E861956068F7CFD7
:1039100084E2F6CFCF93DF93D82FC62F80911C334C
:1039200080620E947E066D2F89E692E30E943C1B16
:103930006C2F89E692E30E943C1B89E692E3DF91BB
:10394000CF910C94701BE0912C37E830E0F4F0E05C
:10395000E457FD4C608581E020912D37211101C095
:1039600081E090918C329923B9F0660F6E7090E1EE
:10397000299F90011124622B8295880F807E682BED
:1039800089E00C948A1C80919332E82FF0E0E45790
:10399000FD4C60858170E0CF089580E00E947E0636
:1039A00088E090E00E946B1B89E692E30C94701B08
:1039B00080E00E947E0686E090E00E946B1B89E614
:1039C00092E30C94701B90E080E008958091D707FB
:1039D000811113C04CE850EF61E070E06BBFFA0159
:1039E0004791579167917691483549F4523439F4AB
:1039F0006A3629F47093D707089580E0089581E02E
:103A00000895CF92DF92EF92FF921F93CF93DF93AF
:103A10006B017C01EA01122F0E94E61C811105C096
:103A20008091D707813049F082E0DF91CF911F91DB
:103A3000FF90EF90DF90CF9008958CE990EFA1E098
:103A4000B0E0ABBFFC01A791B691CD0101978E3FCD
:103A50009F4F28F10E94E61C8111E7CF8091D70784
:103A6000813011F786E990EFA1E0B0E0ABBFFC0137
:103A7000A791B691CD0101978E3F9F4FA8F6C70140
:103A8000B60178508F4F9F4F212FAE01FD01DF917E
:103A9000CF911F91FF90EF90DF90CF900994212F4D
:103AA000AE01C701B601F2CF6CEE79E00C94F107DC
:103AB00061EB79E081ED9AE00E94F10781ED9AE0F7
:103AC0000E94F108F8940FB6F894A89580916000D0
:103AD000886180936000109260000FBE88E198E0DA
:103AE0000FB6F894A895809360000FBE9093600085
:103AF000FFCFEB016BE879E0CE010E94F107E8818E
:103B0000F9810680F781E02DCE0109950E94581DAC
:103B10000F931F93CF93DF93EC0181E08093D6073F
:103B200061E08BE10E9424099FB7F89489819FBFCF
:103B3000811107C01092BE071092BD071092D407E2
:103B40003AC08091663290916732892B19F50E94B4
:103B5000DB0900916232109163322091643230911E
:103B60006532DC01CB01801B910BA20BB30B80955E
:103B70009095A095B0958827B7FD83959927AA279A
:103B8000BB27882351F081E090E09093BE0780939B
:103B9000BD07D4CF0E942F0ADCCF8091BD07909142
:103BA000BE0782309105D1F10397D9F581E080936A
:103BB000D4078093D50780EB94E0A0E0B0E0809339
:103BC0005E3290935F32A0936032B093613281E0B5
:103BD00090E0909367328093663280916632909144
:103BE0006732892B09F50E94DB0900915E32109142
:103BF0005F322091603230916132060F171F281F0B
:103C0000391F0093623210936332209364323093F1
:103C10006532DF91CF911F910F91089583E090E07D
:103C2000B4CF82E090E0B1CF0E942F0ADECFCF93D5
:103C3000DF93CDB7DEB728970FB6F894DEBF0FBE7F
:103C4000CDBF19821A821B821C821D821E821F8296
:103C50001886809102018823B9F0CE0101960E9456
:103C60004C136CED7DE0CE0101960E94E714CE016D
:103C700001960E94A81328960FB6F894DEBF0FBED7
:103C8000CDBFDF91CF9108959FB7F89488E0E8EA1F
:103C9000FDE0DE01119601900D928A95E1F79FBF3C
:103CA000E0CF0F931F93CF93DF93EC018885998525
:103CB000892BD9F40E94DB090C811D812E813F8163
:103CC000DC01CB01801B910BA20BB30B809590956F
:103CD000A095B0958827B7FD83959927AA27BB277C
:103CE000DF91CF911F910F9108950E942F0AE4CF89
:103CF0000F931F93CF93DF93EC01CB018A01BE0199
:103D0000685F7F4F44E00E942016BE01645F7F4FD2
:103D100042E0C801DF91CF911F910F910C942016C2
:103D2000DF92EF92FF920F931F93CF93DF9300D018
:103D300000D0CDB7DEB7FC015C834B83048110E07B
:103D4000102F00278581080F111DC90102969A8343
:103D50008983A9014B5F5F4F400F511F80E06417BB
:103D60007507D0F17901548345830E0F1F1F22E19F
:103D7000F8012193CF0142E0BE016F5F7F4F0E94A7
:103D8000201642E0BE016D5F7F4FC80103960E947E
:103D900020160B5F1F4FE00EF11EDD24DA940E1586
:103DA0001F05C9F08B819C819C012F5F3F4FAC01A7
:103DB000405251094031510548F03C832B830E9409
:103DC0005676F80180830F5F1F4FE9CFF801D0824C
:103DD0003C832B83F8CF81E00F900F900F900F90D2
:103DE000DF91CF911F910F91FF90EF90DF90089599
:103DF0000F931F93CF93DF93EC01488359836A831A
:103E00007B8381E090E0998788870E942F0A088150
:103E100019812A813B81DC01CB01800F911FA21FF8
:103E2000B31F8C839D83AE83BF83DF91CF911F919E
:103E30000F910895862F413208F040E2642F0E94CE
:103E40002F1A10926208809363080895CF92DF9230
:103E5000FF920F931F93CF93DF936C01F42E8B018E
:103E6000D0E0C0E0F80180810E947E0660E089E633
:103E700092E30E943C1B89E692E30E94701B41E0A2
:103E8000F801608189E692E30E941A1F909163080D
:103E9000809162089817B9F0CC0FDD1FCC0DDD1DA5
:103EA00088819981F80120812093760D9093780D77
:103EB0008093770D81E0DF91CF911F910F91FF905B
:103EC000DF90CF90089521960F5F1F4FCF1550F2CE
:103ED00080E0F1CF1F93CF93DF93182FC6E7DDE08B
:103EE00088810E947E06612F89E692E30E943C1B36
:103EF00089E692E30E94701B41E0688189E692E3C3
:103F00000E941A1F0E94A206C82F89E692E30E940F
:103F1000701B8C2FDF91CF911F9108958091770DA9
:103F20009091780D029721F460E08EE20C94571C7A
:103F300080E00E946A1F2091770D3091780D211545
:103F4000310539F02130310509F48068682F80E0AF
:103F5000EDCF8F77FBCF8091770D9091780D029701
:103F600021F461E08EE20C94571C80E00E946A1FED
:103F70002091770D3091780D2115310531F02130E8
:103F8000310529F0682F80E0EECF8068FBCF8F7776
:103F9000F9CF8F929F92AF92BF92CF92DF92EF9222
:103FA000FF920F931F93CF93DF931F92CDB7DEB78E
:103FB0008C011982CE0101960E94B506B82E898126
:103FC000882309F4A8C086E7C82ED12CEE24EA94F1
:103FD000FE2C8091760D0E947E066B2D89E692E381
:103FE0000E943C1B89E692E30E94701B498160910C
:103FF000760D89E692E30E941A1F0E94A2068F772F
:104000000E94A80F90E0F801918380830E94A2068D
:104010008F770E94A80F90E0F801938382830E941B
:10402000A206A82E86FF5DC08F710E94A80F90E0A7
:10403000A5FC55C0F801958384838091770D9091FC
:10404000780D029709F052C00E94A2068F730E9459
:10405000A80F90E0F801978386830E94A2068770DC
:104060009927F801958784870E94A2068F710E9484
:10407000A80F8150990BF80191878087898187303B
:1040800008F446C00E94A2060E94A80F90E08C5936
:104090009F4FF80193878287F801F786E68689E6C5
:1040A00092E30E94701BF801808091808B2D0E940A
:1040B0006A1F8F770E94A80F8815190409F089CF0D
:1040C00081E00F90DF91CF911F910F91FF90EF90C2
:1040D000DF90CF90BF90AF909F908F9008950C96F7
:1040E000A9CF8F730E94A80F90E0A4CF0E94A206D0
:1040F000877099270197F801958784870E94A20607
:104100008F730E94A80F90E0F80197838683ACCF4D
:10411000D386C286C1CF80E0D4CF4F925F926F9298
:104120007F928F929F92AF92BF92CF92DF92EF9247
:10413000FF920F931F93CF93DF9300D000D0CDB7A2
:10414000DEB78B016A0119821A821B821C8244E04D
:10415000FC01608189E692E30E941A1F8091630846
:1041600090916208891B990B049709F07FC0CE01DA
:1041700001967C014E0195E0890E911C57010E9429
:10418000A206F50181935F018E169F06C1F78C810F
:10419000982F9C709C3009F058C0F601808353E042
:1041A000F601808187FD65C08C7090E09C0136959A
:1041B0002795820F931FFC01E051FE4F2081318132
:1041C00042812901642E062C000C7708530142011C
:1041D00085529E4FFC01208131814281F80110827D
:1041E000118212821382F70180E090E0DC0161917C
:1041F000BA2FA92F982F8827862B6E2F6E19651737
:10420000B0F388229922AA22BB2289288A288B28E7
:1042100009F5F80180839183A283B38390E080E065
:104220000F900F900F900F90DF91CF911F910F91F2
:10423000FF90EF90DF90CF90BF90AF909F908F90C6
:104240007F906F905F904F9008958B81F6018083EF
:1042500052E0A6CF2901642E062C000C7708B3018A
:10426000A2018429952BA629B72BD3CF82E090E019
:10427000D7CF84E090E0D4CF2F923F924F925F92BD
:104280006F927F928F929F92AF92BF92CF92DF9266
:10429000EF92FF920F931F93CF93DF93CDB7DEB7CB
:1042A00060970FB6F894DEBF0FBECDBFE0918D32A0
:1042B000F0918E323197EC30F10508F0AFC0ED5936
:1042C000FE4D0C9423776F21A921B521D021FA212D
:1042D00086220123FF23C423092451246725109239
:1042E0001D3310921E3310921F3310922033909181
:1042F000903280919132989F902D1124E1E2F3E366
:1043000080E040E050E060E070E8981731F04193C1
:104310005193619371938F5FF8CF90E080E040E01C
:1043200050E060E070E8FC01EF5DF94C28E041935B
:104330005193619371932150D1F78096811521E0BB
:10434000920789F782E090E090938E3280938D32CD
:1043500065C08EEF92E30E94511E882309F45EC06F
:104360000E94D81C83E090E0EFCF19821A821B8252
:104370001C821D821E821F821886CE0101960E9419
:104380004C1389819A81AB81BC8180931D339093BA
:104390001E33A0931F33B093203384E090E0D4CF3A
:1043A0000E94A31C409122015091230170E060E023
:1043B00082E193E30E94F81E409191328CE892E3EF
:1043C00020E0C12CD12CE12C60E8F62E421779F0C8
:1043D000FC01EB56FE4F30E0C192D192E192F19296
:1043E0003F5F3031C9F72F5F805C9F4FEFCF85E093
:1043F00090E0AACFE0919332F0E0EA50FD4C80814A
:10440000811125C089E090E090938E3280938D32A7
:10441000109251081092500810924F0860960FB6F3
:10442000F894DEBF0FBECDBFDF91CF911F910F91EA
:10443000FF90EF90DF90CF90BF90AF909F908F90C4
:104440007F906F905F904F903F902F900895F090E5
:10445000510837E03F1518F486E090E0D5CFCF2C17
:10446000D12C90E00F2C02C0959587950A94E2F725
:1044700080FF42C0E0905008E11038C000919332B4
:1044800010E0F601E457FD4C80890E947E06F80199
:1044900053E0EE0FFF1F5A95E1F7E457FD4CEC0D8A
:1044A000FD1D60A189E692E30E943C1B89E692E330
:1044B0000E94701B882321F1E110B0CF8AEF90E0B9
:1044C000A0E0B0E08093083390930933A0930A33BF
:1044D000B0930B33109211331092103388E093E3B2
:1044E0000E946A1581E08093500898CF88E093E39A
:1044F0000E94511E882311F2F394F09251088ECF3E
:10450000F394F09251081092500888CF10915008FF
:10451000112309F443C088E093E30E94511E8823CD
:10452000E9F184EA92E30E9458156093FE32709399
:10453000FF3280930033909301331092073310922F
:1045400006338EEF92E30E946A1584EA92E30E949A
:1045500058158B019C013695279517950795DC0119
:10456000CB01800F911FA21FB31F8093083390933C
:104570000933A0930A33B0930B3310921133109286
:10458000103388E093E30E946A1587E090E09093EF
:104590008E3280938D3210925108B5CF0E94CD1C7F
:1045A00081117CC18091933248E0849FC001112425
:1045B00084559D4C0E9458156B017C01C092FE32BF
:1045C000D092FF32E0920033F09201331092073321
:1045D000109206338EEF92E30E946A15D701C6014E
:1045E000B695A79597958795C80ED91EEA1EFB1E0E
:1045F000C0920833D0920933E0920A33F0920B3321
:10460000BCCF8091933290E000914F089C012457D9
:104610003D4CF901EA56FB4F4081041708F4A8C04D
:1046200026593F4FD901BC91BE87F5E0880F991FED
:10463000FA95E1F7FC01EF5DF94CFB87EA8710E0A2
:1046400000E081E090E0002E01C0880F0A94EAF7B4
:10465000FE858F2301F180912A37882349F120912B
:104660002137622F70E0C80136E0880F991F3A9514
:10467000E1F78F5D9B4CAB015595479520FD02C03E
:10468000415051090E948415AA85BB856D937D9385
:104690008D939C9313970F5F1F4FEA85FB8534968C
:1046A000FB87EA870830110561F689E090E06FCF5B
:1046B000212C312C412C512C3201F80194E0EE0FC9
:1046C000FF1F9A95E1F7F88BEF8780912137281625
:1046D00010F7EF85F889E20DF11DEE0FFF1FEE0FC9
:1046E000FF1FEF5DFB4C80819181A281B381009718
:1046F000A105F0E8BF07A9F03320A9F188159905B5
:10470000AA05BB0514F44C015D01C816D906EA06DA
:10471000FB0614F46C017D013394480E591E6A1E89
:104720007B1E80912B37882369F022E0231550F4FB
:104730004C185D086E087F08481859086A087B08FD
:104740003A943A94232D30E050E040E0C301B201A6
:104750000E94AE76AA85BB852D933D934D935C93C5
:1047600013972394B2CF6C017D014C015D01D4CF2E
:1047700010915108183008F458C1E1E0E00FE093BF
:104780004F0886E090E003CF10915108809191325C
:10479000181718F088E090E037CE812F90E09C0148
:1047A00024573D4C7901F901EF59FF4F808188234F
:1047B000F1F000915008011114C0D70150968C916E
:1047C0000E947E06F701608D89E692E30E943C1B01
:1047D00089E692E30E94701B882369F001111ECEC6
:1047E0006DCE88E093E30E94511E882331F31F5F52
:1047F0001093510813CE1F5F1093510884CE82E1AD
:1048000093E30E94511E882309F408CE8AE090E0C9
:104810009BCD109150081123E9F188E093E30E94A9
:10482000511E8823B9F184EA92E30E9458156093DF
:10483000FE327093FF3280930033909301331092D5
:104840000733109206338EEF92E30E946A1584EAD2
:1048500092E30E9458158B019C0136952795179578
:104860000795DC01CB01800F911FA21FB31F80931E
:10487000083390930933A0930A33B0930B3310920B
:1048800011331092103388E093E30E946A158BE095
:1048900090E07DCE0E94CD1C882329F21111BECD5F
:1048A0000DCE00914F0880912137081708F4B0C051
:1048B000A12C3091913220919332A31608F09AC026
:1048C0008A2D90E0FC01E351FD4C4081442309F422
:1048D00088C0909021370A2D239F000D112410E0ED
:1048E00020912A37A6E0880F991FAA95E1F7211198
:1048F00060C0F0912B37FE879C012F5D3B4C190166
:10490000812CB12CC12CD12C7601000F111F000F6E
:10491000111F0F5D1C4C981409F463C0F1018191C3
:104920009191A191B1911F010097A105F0E8BF07F6
:10493000E1F0BB2009F457C02A853B854C855D8595
:1049400082179307A407B50724F48A879B87AC874F
:10495000BD87481659066A067B0614F42C013D01F2
:10496000B394C80ED91EEA1EFB1E3E85332389F080
:1049700042E04B1570F4C418D508E608F7088A859C
:104980009B85AC85BD85C81AD90AEA0AFB0ABA9488
:10499000BA942B2D30E050E040E0C701B6010E94F0
:1049A000AE76D8012D933D934D935C9313978394EA
:1049B000B2CF692D70E08F5D9B4CAB01559547954B
:1049C00090FC02C0415051090E948415000F111F34
:1049D000000F111FF801EF5DFC4C6083718382832F
:1049E0009383A39466CF2C013D014A865B866C8637
:1049F0007D86B6CF81E0820F809393329091903282
:104A0000891708F4CACC109293328CE090E09CCCC9
:104A10001091510880919132181738F0E1E0E00FC1
:104A2000E0934F088AE090E0B2CDE12EF12CF7013F
:104A3000E351FD4C8081882309F4D9CE8EEF92E3B7
:104A40000E94511E882309F4E9CC1986AE01475F04
:104A50005F4FBE016F5F7F4FC70184569D4C0E9420
:104A60008D20811103C0298527FF07C088E093E3CB
:104A70000E94511E8111BBCED1CCF70184E0EE0F14
:104A8000FF1F8A95E1F7E00FF11DEE0FFF1FEE0FFC
:104A9000FF1FEF5DFB4C422F4C7050E05595479542
:104AA00089E090E0841B950B2370821B910949815A
:104AB0005A816B817C8104C0440F551F661F771F8C
:104AC0008A95D2F7408351836283738390CE0E948C
:104AD000A31C80911E0190911F01A0912001B09113
:104AE0002101892B8A2B8B2B29F060E08091923257
:104AF0000E9424098DE090E027CCCF93C82F8091AD
:104B00001C3380620E947E066C2F89E692E30E942D
:104B10003C1B89E692E30E94701B80911C3361E08C
:104B200080620E942F1A109262088093630881119C
:104B30000E94A206CF910895EF92FF921F93CF9308
:104B4000DF931F92CDB7DEB7FC01218D328D8FEF41
:104B50009FEF232B01F1148568E270E0812F0E9402
:104B60000D0CE82EF12CFE2CEE2469E270E0812F72
:104B70000E940D0C612F6295660F607E685E21E0D9
:104B800030E0AE014F5F5F4F8E0D9F2D911D0E9453
:104B90005D0A898190E00F90DF91CF911F91FF9086
:104BA000EF9008950E960C949C25CF92DF92EF9291
:104BB000FF920F931F93CF93DF937C01EB018091C2
:104BC0002E3290912F326817790788F0C81BD90BC5
:104BD000EC0EFD1E20912A3230912B32309331326F
:104BE000209330321092333210923232EC018091A5
:104BF00030329091313200912C3210912D32081BBD
:104C0000190B6801C017D10708F46E01A601B7019E
:104C10000E94507780912A3290912B32C017D10791
:104C200030F480913032909131328C0D9D1D9093F3
:104C30003132809330320C171D07C0F4CE01801B37
:104C4000910B8C01B7016C0D7D1DAC018091303250
:104C5000909131320E9450774091303250913132F0
:104C6000400F511F509331324093303220912E32F9
:104C700030912F328091323290913332A901481B0A
:104C8000590BC417D50768F0309333322093323272
:104C9000DF91CF911F910F91FF90EF90DF90CF9018
:104CA0000895C80FD91FD0933332C0933232F0CF5A
:104CB000DC0187E992E08D939D9384E0FB010190F4
:104CC0000D928A95E1F708958F929F92AF92BF92CD
:104CD000CF92DF92EF92FF920F931F93CF93DF93C8
:104CE000EC017B01088519854017510708F48A01FA
:104CF000CC24DD24C01AD10AE114F10481F06E81C4
:104D00007F81888199815B01A81AB90A0A151B0560
:104D100058F56C0D7D1DA801C7010E9450778E814A
:104D20009F818C0D9D1D9F838E83288139818217E1
:104D3000930730F42C813D81820F931F9F838E83D4
:104D400088859985801B910B99878887C801DF9199
:104D5000CF911F910F91FF90EF90DF90CF90BF9078
:104D6000AF909F908F90089548018A189B086A81A0
:104D70007B8168197909A401C7010E945077688175
:104D80007981A501C701880D991DC7CF0F931F9386
:104D9000CF93DF93CDB7DEB72C970FB6F894DEBF75
:104DA0000FBECDBF8C018AE0EAE2F2E3DE0111968C
:104DB00001900D928A95E1F742E050E0BE01655FF7
:104DC0007F4FCE0101960E9464260297B9F42B858D
:104DD0003C852E5F3F4F81E0F801408551854217A9
:104DE000530708F080E02C960FB6F894DEBF0FBE94
:104DF000CDBFDF91CF911F910F91089581E0F3CF47
:104E0000BF92CF92DF92EF92FF920F931F93CF93B7
:104E1000DF93CDB7DEB728970FB6F894DEBF0FBE8D
:104E2000CDBF8C01DC01ED91FC910680F781E02D76
:104E30000995F801B484D12CC12C8B2D0E94540CFF
:104E40007C01892B21F08B2D0E94540C6C01EC14F9
:104E5000FD0499F790E080E0EF2859F148E050E038
:104E6000BE016F5F7F4FD8011C968C910E94840C0D
:104E700018161906F4F4D801519684E0FE01319613
:104E800001900D928A95E1F78D8190E0982F882707
:104E90002E81820F911DF801968B858B8F81282F93
:104EA00030E0322F22278885820F932F911D928F19
:104EB000818F28960FB6F894DEBF0FBECDBFDF916D
:104EC000CF911F910F91FF90EF90DF90CF90BF9007
:104ED00008950E960C9400274F925F926F927F92E6
:104EE0008F929F92AF92BF92CF92DF92EF92FF92FA
:104EF0000F931F93CF93DF93CDB7DEB763970FB6B2
:104F0000F894DEBF0FBECDBF7C016B013A01FB01FF
:104F1000DB018D918111FDCF30E020E090E080E059
:104F20005AE04191442301F1843091050CF042C0D4
:104F30004E3269F42F3F310509F0E4F5D301A80F93
:104F4000B91F12962C93019630E020E0EACF529FD1
:104F5000B001539F700D1124242F440F330B2053A5
:104F60003109260F371FDDCF2F3F310509F014F52A
:104F700084309105FCF4680E791EF3012283CC2461
:104F8000C394D12CC60163960FB6F894DEBF0FBE52
:104F9000CDBFDF91CF911F910F91FF90EF90DF90E8
:104FA000CF90BF90AF909F908F907F906F905F90C9
:104FB0004F900895F70142815381648175818091FA
:104FC0001C0D90911D0DA0911E0DB0911F0D481745
:104FD00059076A077B0709F401C28701085F1F4F61
:104FE0000E942F0A6F7077277C5FC8010E94E10D35
:104FF000813009F0F8C187E992E09A838983F7014B
:1050000082819381A481B5818B839C83AD83BE8390
:1050100045E350E0BE016F5F7F4FC8010E94660B01
:10502000892B31F4D12CC12CC8010E94470CAACF86
:105030000E942F0AF7017783668342E050E0B701B0
:105040006A5F7F4FC8010E943F0D81E090E09A8324
:10505000898342E050E0BE016F5F7F4FC8010E942C
:105060003F0D80E091E09A83898342E050E0BE01E9
:105070006F5F7F4FC8010E943F0D1A82198242E084
:1050800050E0BE016F5F7F4FC8010E943F0D42E0BC
:1050900050E0BE016F5F7F4FC8010E943F0D42E0AC
:1050A00050E0BE016F5F7F4FC8010E943F0D560167
:1050B000F6018081882301F16501F60181912F01BC
:1050C000882311F08E32B1F446018A189B08181417
:1050D000190474F48D8641E050E0BE01635F7F4F98
:1050E000C8010E943F0DA401B501C8010E943F0DF7
:1050F0005201DECF6201E1CF1D8641E050E0BE01EA
:10510000635F7F4FC8010E943F0DC12CDD24D39403
:10511000DA82C98242E050E0BE016F5F7F4FC80172
:105120000E943F0DDA82C98242E050E0BE016F5F0B
:105130007F4FC8010E943F0DC8010E94B50D892B09
:1051400009F470CFF3E0AF2EB12C230122E0420E20
:10515000511C43C0F7014281538164817581818D67
:10516000928DA38DB48D481759076A077B0709F004
:105170002BC1858D968DC59709F026C181A192A17D
:105180000C970CF426C14CE050E0BE016F5F7F4FDE
:10519000C8010E94F30C8B819C819827892798274E
:1051A0009A8B898BF7014681578129813A81421771
:1051B000530711F497FD30C0C8010E943B0BECEF80
:1051C000CE2EDD24DA9481E0A81AB10809F42CCFA0
:1051D000FFEFCF16DF0609F027CF0E942F0A3B0111
:1051E0004C01C8010E940027181619060CF4B2CF12
:1051F000A8950E942F0A66197709880999096938C4
:1052000073418105910508F0DBC062E370E080E046
:1052100090E00E94FC09E5CF8F709270892B41F0DD
:10522000C8010E943B0B7BEFC72EDD24DA94CBCF65
:105230006F807884762467247624D12CC12C611465
:105240007104D1F4C8010E943B0B6AEFC62EDD2425
:10525000DA94B9CF8D85811117C0C8010E94120D53
:10526000C8010E94120DC8010E94120DC8010E94BF
:10527000120DFFEFCF1ADF0A8D819E8198278927B3
:105280009827C816D906A8F441E050E0BE01635F34
:105290007F4FC8010E94F30C8D858823D9F28D853C
:1052A0009FEF980F9D878823A9F2C8010E94120DD5
:1052B000F6CF912C812C41E050E0BE016D5E7F4F16
:1052C000C8010E94F30C8B89982F907C61F488238D
:1052D00089F08B899FEF980F9B8B882341F0C80141
:1052E0000E94120DF6CFC8010E94120D1B8A8B89F5
:1052F0008111E1CF42E050E0BE01615F7F4FC80104
:105300000E94F30C42E050E0BE01635F7F4FC80192
:105310000E94F30CC8010E94120DC8010E94120DD8
:10532000C8010E94120DC8010E94120D42E050E017
:10533000BE016F5E7F4FC8010E94F30C8F85988974
:1053400081159140E9F4CD84DE84DC24CD24DC2475
:1053500081E0C816D104A1F489899A898115944005
:1053600041F0C8010E943B0B57EFC52EDD24DA94B3
:105370002ACF44E050E0B201C8010E94F30C23CFD1
:10538000D12CC12C89899A89982789279827C816F2
:10539000D90638F4C8010E94120DFFEFCF1ADF0AB8
:1053A000F1CF2FEF821A920A6814790409F083CFA3
:1053B000C8010E943B0B46EFC42EDD24DA9403CFD4
:1053C000CC24CA94DC2CFFCE2EEFC22EDD24DA943E
:1053D000FACE9DEFC92EDD24DA94F5CE8EEFC82EDD
:1053E000DD24DA94CFCDD12CC12CCCCDAF92BF929D
:1053F000CF92DF92EF92FF920F931F93CF93DF93A1
:10540000CDB7DEB7AF970FB6F894DEBF0FBECDBFF6
:105410007C015B016A0107E912E01A8309831B82A0
:105420001C821D821E82CE0109960E94CE0B1BA7F4
:105430000AA71CA61DA61EA61FA680910E0D909160
:105440000F0DA091100DB091110D8EA39FA3A8A7D1
:10545000B9A78B839C83AD83BE8318861F82AE0160
:10546000465D5F4FB501CE0101960E946C278130E9
:105470009105B1F4D701ED91FC910488F589E02DF7
:105480001DA30CA38CA59DA5AEA5BFA58EA39FA310
:10549000A8A7B9A7A601BE016C5D7F4FC7010995FA
:1054A000AF960FB6F894DEBF0FBECDBFDF91CF91A0
:1054B0001F910F91FF90EF90DF90CF90BF90AF9032
:1054C0000895FB0101900020E9F73197AF01461BD9
:1054D000570BDC01ED91FC910280F381E02D0994E2
:1054E0008F929F92AF92BF92EF92FF920F931F9372
:1054F000CF93DF93CDB7DEB7A1970FB6F894DEBF99
:105500000FBECDBF7C01FA01CB0119A2223008F4F5
:105510002AE08E010F5D1F4F822E912CB12CA12C01
:10552000BF01A50194010E948C76F901CA016A307D
:105530000CF5605DD8016E938D01232B242B252B58
:1055400079F790E080E0109721F0BD01C7010E943B
:10555000612AA1960FB6F894DEBF0FBECDBFDF91D2
:10556000CF911F910F91FF90EF90BF90AF909F90C0
:105570008F900895695CDECFAB0170E060E02AE0B7
:105580000C94702ACF92DF92EF92FF920F931F93A9
:10559000CF93DF932115310581F4DC01ED91FC916E
:1055A0000190F081E02D642FDF91CF911F910F9139
:1055B000FF90EF90DF90CF9009942A30310501F5EC
:1055C0002AE077FF1DC06A017B01EC016DE20E94B9
:1055D000EA078C0144275527BA014C195D096E0969
:1055E0007F092AE0CE010E94702A800F911FDF916F
:1055F000CF911F910F91FF90EF90DF90CF90089582
:10560000DF91CF911F910F91FF90EF90DF90CF909E
:105610000C94702AAB01770F660B770B2AE030E011
:105620000C94C22ACF93DF93EC01FB0124813581D6
:1056300040815181628173810E94C22ACE01DF9133
:10564000CF910895242F462F50E070E060E00C9435
:10565000702A8F929F92AF92BF92CF92DF92EF9279
:10566000FF920F931F93CF93DF937C018B014C012B
:1056700082E0880E911C5701E5E0AE0EB11CD0E02F
:10568000C0E0F40161914F014AE050E0C8010E947E
:10569000222B6C016EE2C8010E94EA078C0D9D1D51
:1056A000C80FD91F8A149B0461F74AE050E0F70144
:1056B0006581C8010E94222B8C0F9D1FDF91CF9125
:1056C0001F910F91FF90EF90DF90CF90BF90AF9020
:1056D0009F908F90089561ED7AE00C94292B69E9F1
:1056E00072E00C94612AEF92FF920F931F93CF9375
:1056F000DF9300D0CDB7DEB77B01FC0120812D33D5
:10570000D9F48C010F5F1F4F50E040E0BE016F5F86
:105710007F4FC8010E94E3716F3F710581059105BC
:1057200009F050F4E981FA81E017F10729F02081AE
:10573000211102C0609316016FE779E0C7010E9452
:10574000F1074AE050E060911601C7010E94222B48
:10575000C7010E946F2B81E00F900F90DF91CF91D6
:105760001F910F91FF90EF900895CF92DF92EF92EB
:10577000FF920F931F93CF93DF93CDB7DEB72A9796
:105780000FB6F894DEBF0FBECDBF8B01FC012081A8
:105790002D3309F059C07C01FFEFEF1AFF0A50E0EA
:1057A00040E0BE01675F7F4FC7010E94E37116169C
:1057B0001706180619060CF047C0E985FA85EE159C
:1057C000FF0509F441C0208121113EC06B017C011D
:1057D00034E0F594E794D794C7943A95D1F72FE045
:1057E000D222EE24FF24C982DA82EB82FC824BE0D3
:1057F000660F771F881F991F4A95D1F7662778771C
:10580000882799276D837E838F839887CE010196A1
:105810000E94C41264ED7DE0CE0101960E946F12D9
:10582000811112C0BE016F5F7F4F8CEC9DE00E9422
:105830006F12811109C088E0FE013196ACEDBDE028
:1058400001900D928A95E1F760EC79E0C8010E9421
:10585000F1074091DC0D5091DD0D6091DE0D7091EE
:10586000DF0D84E0440F551F661F771F8A95D1F71F
:105870008091E00D9091E10DA091E20DB091E30DCA
:105880002BE0B595A795979587952A95D1F7480F61
:10589000591F6A1F7B1F2AE030E0C8010E94C22AFC
:1058A000C8010E946F2B81E02A960FB6F894DEBFE4
:1058B0000FBECDBFDF91CF911F910F91FF90EF9061
:1058C000DF90CF9008950F931F93CF93DF93EC0158
:1058D0000E940A2B8C01CE010E946F2B800F911F1A
:1058E000DF91CF911F910F9108950F931F93CF9345
:1058F000DF93EC010E94222B8C01CE010E946F2BC2
:10590000800F911FDF91CF911F910F9108950F93F9
:105910001F93CF93DF938C01D0E0C0E06115710538
:1059200019F00E94612AEC01C8010E946F2B8C0FB4
:105930009D1FDF91CF911F910F910895EF92FF92DC
:105940000F931F93CF93DF9300D0CDB7DEB77C01C9
:105950008B0180910632909107328617970760F489
:105960006CE972E081ED9AE00E94872C81E090E082
:1059700090930532809304321A830983B801C701DA
:105980000E94D52562E070E0CE0101960E94D525E7
:10599000109205321092043280911232909113329B
:1059A000049721F410921332109212320F900F903C
:1059B000DF91CF911F910F91FF90EF9008950F937A
:1059C0001F93CF93DF93EC010E94F1078C01CE016E
:1059D0000E946F2B800F911FDF91CF911F910F912C
:1059E00008954F925F926F927F928F929F92AF92A3
:1059F000BF92CF92DF92EF92FF920F931F93CF93BC
:105A0000DF93CDB7DEB72C970FB6F894DEBF0FBE8D
:105A1000CDBF7C018B012A016CE279E00E94F10785
:105A20004801B12CA12C400E511E80E1682E712C32
:105A3000011580E11807A8F50415150591F169E233
:105A400079E0C7010E94F1078F829886A986BA86FD
:105A50007C866B86BE01695F7F4FC7010E94122B57
:105A60006C0164E279E00E94F107C8010E94567659
:105A700090E0B0E0A0E089839A83AB83BC837E8210
:105A80006D82BE016F5F7F4FC6010E94122B0E9484
:105A90006F2B0F5F1F4F8FEF881A980AA80AB80A5A
:105AA000C7CFC7012C960FB6F894DEBF0FBECDBF8F
:105AB000DF91CF911F910F91FF90EF90DF90CF90EA
:105AC000BF90AF909F908F907F906F905F904F901E
:105AD00008954F925F926F927F92AF92BF92CF9252
