:100000000C94FF050C94FA320C94CF320C94A43269
:100010000C9429060C9429060C9429060C942906A4
:100020000C9429060C9469390C943F390C9493393B
:100030000C9429060C9429060C9429060C94290684
:100040000C9429060C9429060C945E320C94290613
:100050000C94C4620C949A620C9429060C942906A0
:100060000C9429060C9429060C948D5E0C94290698
:100070000C9464620C943A620C9429060C94290640
:100080000C9429060C9429060C9429061A2D1D2D72
:10009000102D142D342D342D212D252D2B2D2F2DCC
:1000A000702DB32DC32DDC2D0A2E3D2E492E3B2F56
:1000B000192F452F512F66307F4ED253D253744E95
:1000C000FA4ED253014FD253644F7C518851B851EC
:1000D000E451D253D253D253D253D253D253D253E8
:1000E000D253D253D253D253D253D253EA51F651B0
:1000F0005061636B65742076616C6964206275740D
:1001000020696E636F727265637420726573706FBD
:100110006E736500232323232323232323232323F5
:100120002323232323232323232300546F6F206DB2
:10013000616E7920726574726965733A20003D3D85
:100140003D3D0A003D3D3D3D0A526573706F6E7343
:10015000653A0A006D61696E7461696E207265743A
:1001600075726E65642000726562696E6400726506
:100170006E65776564006661696C6564006F6B002D
:1001800044484350206C6561736520004157414BE2
:1001900045210A00534C454550210A0073207769D8
:1001A00074686F7574206D6573672061636B2C20B4
:1001B0007265626F6F74696E670A00476F6E6520C3
:1001C0000053657420485720636C6F636B0045458E
:1001D00050524F4D20636F6E74656E7473206C6562
:1001E0006E6774683A2000486561646572206C65CA
:1001F0006E6774683A20000A5374617475733A200C
:10020000000A506F736974696F6E3A20004669780E
:100210002074696D653A2000474E53532076616C17
:1002200069643A200055736520474E53533A2000C5
:100230005D3A200052696F20646174615B000A417D
:100240006D6269656E743A200048756D6964697401
:10025000793A2000537570706C7920766F6C7461F8
:1002600067653A20000A52696F2074656D702E3AF6
:10027000200053797374656D2074656D702E3A207B
:100280000054696D657374616D703A2000474E5378
:10029000532073746174653A20002D2D0A53616DEB
:1002A000706C696E6720737461727465642C20725F
:1002B0006561736F6E3A200054696D6520657272D6
:1002C0006F7220286F75722D474E5353293A2000C4
:1002D000474E535320636C6F636B2076616C696487
:1002E0003A20005043463835323633004D435037BC
:1002F000393431780044533133303700756E6B6ECA
:100300006F776E2052544300F502EC02E302416322
:10031000746976652073657474696E67733A0A0050
:100320004E6F2072656D6F746520686F73742C203A
:10033000747279696E6720666F7220313230732073
:10034000746F20636F6D6D756E6963617465207481
:100350006F200043616E6E6F74207265736F6C76F0
:10036000652000207265736F6C76657320746F2052
:10037000004C6F6F6B696E672075702000646F6E44
:10038000650044484350206661696C6564005265AD
:100390007175657374696E672049502E2E2E20008A
:1003A0005573696E67207374617469632049500ADC
:1003B00000202052656D6F746520686F73746E61E4
:1003C0006D653A2000454550524F4D207365747459
:1003D000696E67733A0A20204D41433A2000536505
:1003E00074757020646F6E650053657474696E6710
:1003F0002073616D706C652074696D657273004661
:1004000072657175656E63793A2032304D487A00B5
:1004100041637475616C204D43553A2000546172FC
:10042000676574204D43553A2061746D656761318D
:100430003238347000436F6E666967757261746933
:100440006F6E20636F6D706C6574650053616D70C5
:100450006C696E6720696E74657276616C202873B2
:10046000293A2000436F756C64206E6F74206765B5
:10047000742074696D652066726F6D2068617264A6
:1004800077617265205254430A0053797374656D25
:1004900020636C6F636B207365742066726F6D20D0
:1004A0006861726477617265205254430A0053791F
:1004B0007374656D20636C6F636B3A2000436F6EDD
:1004C0006669677572696E672073797374656D20EC
:1004D000636C6F636B0A005254432063616C696202
:1004E000726174696F6E3A20004E6F20525443203F
:1004F000666F756E640A00206174206164647265C1
:10050000737320307800466F756E642000417574F7
:100510006F70726F62696E6720666F722000245080
:100520004F525A412C312C25642C310020746F20FD
:10053000004368616E67696E6720474E53532062BF
:1005400061756420726174652066726F6D20004869
:100550004948363178780020706F7765722D757054
:100560002064656C617920286D73293A2000207021
:10057000726573656E7400206E6F74006D65616ED8
:100580000A006D656469616E0A007472696D6D655B
:100590006420000A6167677265676174653A2000CC
:1005A0006E756D53616D706C65733A2000206D69D6
:1005B0007373696E670A002070726573656E740AE2
:1005C000002063682E20005D3A204F7800414443AC
:1005D0005B00206661696C656420746F20696E69D8
:1005E0007469616C6973650A0052696F00496E69CC
:1005F0007469616C6973696E672000484D414320DE
:100600006B65793A2000536974652049443A2000AB
:1006100046616E20687973742E3A200046616E2020
:1006200074656D702E3A200046656174757265734D
:100630003A20484F5553454B454550494E47205267
:10064000494F4D455445522048494836315858285D
:10065000576972652920474E535320425553595FBD
:1006600054494D455F50494E2841332900436F6D31
:100670006D733A205735353030287764745F726572
:1006800073657429000A4D435520636C6F636B3AA0
:100690002032304D487A0A4669726D776172653A48
:1006A0002052696F4C6F672D312E31620A45706F91
:1006B00063683A20323031380A000A4D43555352AC
:1006C0003A20000A434B53454C3A20000A5243203B
:1006D0006F73632E3A20000A457874656E64656412
:1006E00020667573653A20000A4869676820667558
:1006F00073653A20000A4C6F7720667573653A205F
:10070000000A5369676E61747572653A20000A4188
:10071000637475616C204D43553A200061746D65BA
:10072000676131323834700061746D6567613132F0
:1007300038340061746D65676136343470006174FB
:100740006D656761363434000A0A2D2D2D2D2D2D4F
:100750002D2D0A546172676574204D43553A20610E
:10076000746D6567613132383470000000220025F5
:100770000028002B00000000000000000108030218
:1007800000090A000000000000000004070000004B
:10079000000000000078A46AD756B7C7E8DB7020D5
:1007A00024EECEBDC1AF0F7CF52AC6874713463075
:1007B000A8019546FDD8988069AFF7448BB15BFFDF
:1007C000FFBED75C892211906B937198FD8E43799F
:1007D000A62108B44962251EF640B340C0515A5EB6
:1007E00026AAC7B6E95D102FD65314440281E6A1AC
:1007F000D8C8FBD3E7E6CDE121D60737C3870DD5AF
:10080000F4ED145A4505E9E3A9F8A3EFFCD9026F0A
:10081000678A4C2A8D4239FAFF81F6718722619DE1
:100820006D0C38E5FD44EABEA4A9CFDE4B604BBB9E
:10083000F670BCBFBEC67E9B28FA27A1EA8530EFC2
:10084000D4051D880439D0D4D9E599DBE6F87CA21B
:100850001F6556ACC4442229F497FF2A43A723946A
:10086000AB39A093FCC3595B6592CC0C8F7DF4EF40
:10087000FFD15D84854F7EA86FE0E62CFE14430116
:10088000A3A111084E827E53F735F23ABDBBD2D7F1
:100890002A91D386EB496E7374616C6C20465720A5
:1008A000726573756C743A20000A43524320737466
:1008B000617475733A20000A446F776E6C6F6164DF
:1008C000204352433A20004669726D776172652079
:1008D0004352433A2000636F70696564207061720F
:1008E0007469616C2073706D427566666572207400
:1008F0006F20666C6173683A200020636F6D706CC6
:10090000657465640A004669726D7761726520647A
:100910006F776E6C6F616420666F722000636F701A
:100920006965642073706D42756666657220746FC8
:1009300020666C6173683A200045726173656420BB
:1009400074656D706F72617279206170706C69632B
:100950006174696F6E206172656120696E20666CDA
:10096000617368200050726F63657373696E6720EE
:100970004657207570677261646520005570677214
:10098000616465206669726D7761726520746F209D
:1009900000416C72656164792068617665206669E2
:1009A000726D776172652076657273696F6E200073
:1009B0005265636569766564207570677261646508
:1009C000206669726D77617265207461673A2000F4
:1009D0005265626F6F7420636F6D6D616E6420721B
:1009E000656365697665642066726F6D20736572F4
:1009F0007665720A0053414D504C494E4720494E8E
:100A000054455256414C204348414E4745442120CD
:100A1000000A54696D65206572726F7220286F75C7
:100A2000722D736572766572293A20000A4F7572CD
:100A30002074696D653A2000536572766572207482
:100A4000696D653A200054696D6520736574206690
:100A5000726F6D207365727665720A003A20307885
:100A600000307800454550524F4D2076616C7565D9
:100A7000733A0A000A202052656D6F74653A2000AF
:100A8000286E6F6E6529000A2020444E533A2000DC
:100A90000A202047573A20000A20204D61736B3A04
:100AA000200020204C6F63616C3A20004552524F69
:100AB000523A206261642076616C75657320666FBE
:100AC0007220656570726F6D5265616400455252A7
:100AD0004F523A206261642076616C7565732066BE
:100AE0006F7220656570726F6D57726974650076FC
:100AF0006572626F736974793A20005265626F6F34
:100B00007420636F6D6D616E6420726563656976D4
:100B100065642066726F6D20636F6E736F6C650A1B
:100B2000005265626F6F74696E67202E2E2E0A0068
:100B300073616D706C696E67496E74657276616C15
:100B40005F313674685F733A2000556E6B6E6F7755
:100B50006E20636F6D6D616E643A20005072657631
:100B6000696F757320636F6D6D616E64207761735B
:100B700020746F6F206C6F6E6720666F72206275D5
:100B8000666665720A00556E6B6E6F776E204E4D0D
:100B900045412073656E74656E63653A200042615D
:100BA00064204E4D454120636865636B73756D3AF3
:100BB000200000002100240027002A000102040870
:100BC00001020408402010204080804020100804CA
:100BD0000201108080402010080402010404040473
:100BE00002020202040402020202030303030303DB
:100BF0000303040401010101010101011E6B112421
:100C00001FBECFEFD0E4DEBFCDBF14E0A0E0B1E067
:100C1000E6E6FCEE00E00BBF02C007900D92A831A3
:100C2000B107D9F724E3A8E1B4E001C01D92AD38C3
:100C3000B207E1F715E0CFEFD5E004C02197FE0140
:100C40000E94BF75CE3FD107C9F70E94346A0C9449
:100C500031760C9400002F923F924F925F926F92E8
:100C60007F928F929F92AF92BF92CF92DF92EF923C
:100C7000FF920F931F93CF93DF93CDB7DEB7C45688
:100C8000D4400FB6F894DEBF0FBECDBF80913F04B5
:100C90008823B9F08FB7F8941091180A8FBF60EDD0
:100CA00072E08CE699E00E94F733612F70E08CE6E9
:100CB00099E00E94AF408CE699E00E946E3310925A
:100CC0003F04EE24E3948FEC98E00E94C160892BEE
:100CD00009F453C08FEC98E00E949F602091350A80
:100CE0003091360A232B79F39091340A992359F3E2
:100CF000E091370AF091380A882321F08A3011F008
:100D00008D3009F510828091350A9091360A9093C2
:100D1000380A8093370ADC012C91243209F062C032
:100D2000BE016F5F7F4F0E947C49FC0180818A3247
:100D300009F058C091818981981354C092818A81A9
:100D4000981350C068C080832091370A3091380AC8
:100D50008091340A90E001974091350A5091360A0B
:100D6000840F951F2817390708F0ADCF2F5F3F4F2D
:100D70003093380A2093370AA6CF30901501A895F2
:100D800010913E041123A9F010923E048FB7F894FD
:100D90009091180A992351F080902E0A90902F0A72
:100DA000A090300AB090310A01E001C000E08FBF8E
:100DB00001C000E0D0901401DD2009F41AC2809136
:100DC0003D04882309F415C28091D10A9091D20A7A
:100DD000A091D30AB091D40A892B8A2B8B2B09F4CA
:100DE00011C207C2E091610AF091620A309759F08E
:100DF000A091350AB091360A8C91882309F463CF0B
:100E000084E39AE00995E091350AF091360A8081F1
:100E10008111DDC158CF8091350A9091360ADC01ED
:100E200011962C91273441F4FC0122812093390A38
:100E30006AE37AE0039605C01092390A6AE37AE021
:100E400001960E94852C8C016EEB72E08AE39AE099
:100E50000E941376892B09F0C6C0C45ADB4F198350
:100E60000883CC55D4408091390A8093400AC80148
:100E70000E94CC2CC45ADB4F99838883CC55D44034
:100E8000AE01445A5B4F62E00E94BA4A6093420A44
:100E90007093430A8093440A9093450AC45ADB4FE7
:100EA000E881F981CC55D44020812C3219F4CF014E
:100EB000019615C0233589F48B019C0144275527E1
:100EC000BA01401B510B620B730B4093420A5093C3
:100ED000430A6093440A7093450ACF010296C45AAC
:100EE000DB4F99838883CC55D440AE01445A5B4F85
:100EF00063E0C45ADB4F88819981CC55D4400E946D
:100F0000BA4A6093460A7093470A8093480A9093BE
:100F1000490AC45ADB4FE881F981CC55D44020817D
:100F20002C3219F4CF01019615C0273589F48B01B5
:100F30009C0144275527BA01401B510B620B730BD0
:100F40004093460A5093470A6093480A7093490AAF
:100F5000CF010296C45ADB4F99838883CC55D44085
:100F6000C45ADB4FE881F981CC55D440208121530C
:100F700031E0223008F030E03093410ACF01029690
:100F8000C45ADB4F99838883CC55D440AE01445A70
:100F90005B4F60E00E94EA4960935F0AAE01445AE9
:100FA0005B4F61E0C45ADB4F88819981CC55D440B6
:100FB0000E94EA496093600AAE01445A5B4F63E0C5
:100FC000C45ADB4F88819981CC55D4400E94EA49AC
:100FD00060934A0A70934B0A80934C0A90934D0A8F
:100FE000E0924E0AF4C062EC72E08AE39AE00E945A
:100FF0001376892B09F0E3C0C65ADB4F19830883A7
:10100000CA55D4408091390A8093400AC8010E9491
:10101000CC2CC65ADB4F99838883CA55D44021E033
:10102000DC013C91313409F020E02093410A029622
:10103000C65ADB4F99838883CA55D440AE01465ABD
:101040005B4F62E00E94BA4A6093420A7093430A7F
:101050008093440A9093450AC65ADB4FE881F98190
:10106000CA55D44020812C3219F4CF01019615C005
:10107000233589F48B019C0144275527BA01401B75
:10108000510B620B730B4093420A5093430A6093D7
:10109000440A7093450ACF010296C65ADB4F9983E2
:1010A0008883CA55D440AE01465A5B4F63E0C65AA6
:1010B000DB4F88819981CA55D4400E94BA4A609317
:1010C000460A7093470A8093480A9093490AC65A81
:1010D000DB4FE881F981CA55D44020812C3219F4C4
:1010E000CF01019615C0273589F48B019C01442757
:1010F0005527BA01401B510B620B730B4093460AF4
:101100005093470A6093480A7093490ACF010296A8
:10111000C65ADB4F99838883CA55D440AE01465ADC
:101120005B4F63E0C65ADB4F88819981CA55D44032
:101130000E94EA4960934F0A7093500A8093510AC3
:101140009093520AAE01465A5B4F63E0C65ADB4F9A
:1011500088819981CA55D4400E94EA496093530A14
:101160007093540A8093550A9093560AC65ADB4FDF
:1011700008811981CA55D440D8018C918C3211F460
:10118000C8011AC062E0C8010E94A14980935A0AAE
:1011900062E0C80102960E94A1498093590A62E068
:1011A000C80104960E94A1498053984F9093580A11
:1011B0008093570AC80106960E94C64908C0E0916C
:1011C000630AF091640A309709F01ACE1CCE809120
:1011D00021018C3009F077CD6091350A7091360A83
:1011E0008CE699E00E94F5338CE699E00E946E331C
:1011F0006ACD3320D9F085EB9AE00E945644111154
:1012000002C707C70023D9F02091CD0A3091CE0A3A
:101210004091CF0A5091D00AC501B4010E944A758D
:10122000672B682B692B09F491C4ACC4112369F0B6
:10123000DD2059F010E00111A9C4111199C5332026
:1012400021F0109215010E94EB538091770B8111D0
:101250000E94492D8091540B882309F4E3C08091AA
:10126000630B9091640B8230910591F118F4019712
:1012700041F0D8C083309105A9F1049709F4C5C0A5
:10128000D1C08DE69BE00E943554882309F4CAC082
:1012900067E28091650B9091660B0E941B608091C4
:1012A000650B9091660B0E94BF5F082F10E001153F
:1012B000110519F069EC72E025C04DE250E060E0E4
:1012C00070E08DE69BE00E94603F82E090E0A6C067
:1012D0008DE69BE00E943554882309F4A3C083E087
:1012E00090E09CC044E06091610B8091650B90910F
:1012F000660B0E942560082F10E00430110549F1AB
:1013000062EE72E08CE699E00E94F533B8018CE65B
:1013100099E00E94B7408091620B8F3F19F060E026
:101320000E94F32C85E090E09093640B8093630B14
:101330002FEF3FE73093680B2093670B2FEF3FEFC2
:1013400030936A0B2093690B90936C0B80936B0B1B
:1013500069C08E010F5F1F4F7E01B5E0EB0EF11CDF
:101360008091650B9091660BDC01ED91FC910284FC
:10137000F385E02D0995F80181938F01EE15FF05A6
:1013800079F72981822F90E046E0959587954A95D7
:10139000E1F790936C0B80936B0B2F7330E0322F3F
:1013A00022278A81282B0B81F0E40F9FA0011124B2
:1013B0008C81082F10E01695079516950795042B3C
:1013C000152BA0E1B7E20E947C75EEEFCE2EEFE385
:1013D000DE2EE12CF12CA70196010E944A75309374
:1013E0006A0B2093690B9801A4E7B0E40E947C7516
:1013F000A70196010E944A75205A3F403093680B1E
:101400002093670B84E090E009C08091620B8F3FCE
:1014100019F060E00E94F32C85E090E09093640B5B
:101420008093630B86E690E00E9400758C01019624
:1014300011F404EE1CE080916A0A90916B0A8330EB
:10144000910599F130F48130910561F00297A1F096
:101450008AC08530910509F456C070F1069709F4E9
:101460005DC081C085E79AE00E943554882309F465
:101470007AC082E090E04DC0809164008E7F8093BE
:10148000640085E690E00E94F274813049F028F013
:10149000823031F0833021F005C010921C0102C06F
:1014A00080931C0183E090E034C080916D0A0E941B
:1014B000D43184E090E02DC080916D0A0E94D43137
:1014C0002AE030E0DC010E94CF759B01AC01D8011D
:1014D0000E9469757E5F8F4F9F4F2FEF33E040E092
:1014E00050E00E944A75205737413093720A20938A
:1014F000710A80916F0A882319F085E090E009C095
:1015000087E090E006C080916C0A0E94D43186E0AA
:1015100090E090936B0A80936A0A25C080916C0AD0
:101520000E94D431FC0120916F0A30E0D8010E9462
:101530007C759B01AC01DF010E9474757E5F8F4F4B
:101540009F4F2FEF33E040E050E00E94287530932A
:10155000740A2093730A8091700A8111D1CF10927E
:101560006B0A10926A0A8091050B9091060B009706
:1015700039F484E090E09093F60A8093F50A82C2F1
:101580001092F60A1092F50ADC01ED91FC910488A4
:10159000F589E02D09958091030B9091040B813022
:1015A000910509F448C040F08230910509F458C013
:1015B000039709F4D5C066C28BE19BE00E945C638F
:1015C000811160C2E090F70AF090F80A0091F90AE0
:1015D0001091FA0A42E050E0BE016F5F7F4F8BE14D
:1015E0009BE00E9402630297B1F449815A81E4169C
:1015F000F50638F460E070E08BE19BE00E94026346
:101600000AC0B8018BE19BE00E94026329813A8104
:101610008217930711F020E030E03093FC0A20930A
:10162000FB0A232B09F42EC21092FE0A1092FD0A27
:1016300081E090E010C08091050B9091060BDC01D9
:10164000ED91FC910684F785E02D0995882309F436
:1016500019C282E090E09093040B8093030B12C2B6
:101660008091FD0A9091FE0A892B81F480912101DD
:101670008A3061F46091FB0A7091FC0A4CE659E0F3
:101680008091F90A9091FA0A0E944F3D8091FD0ADB
:101690009091FE0A892B59F48091050B9091060BCD
:1016A000DC01ED91FC910688F789E02D0995809188
:1016B000050B9091060BDC01ED91FC91028CF38DF2
:1016C000E02D0995AC01892B21F44091FB0A509142
:1016D000FC0A8091050B9091060B6091F90A7091BC
:1016E000FA0A2091FD0A3091FE0A620F731FDC0195
:1016F000ED91FC910280F381E02D09952091FD0A86
:101700003091FE0A820F931F9093FE0A8093FD0A88
:101710002091FB0A3091FC0A8217930709F0B2C1AD
:101720008091050B9091060BDC01ED91FC91008CF2
:10173000F18DE02D09951092000B1092FF0A40EDFB
:1017400057E060E070E087E09BE00E94603F8FEF31
:101750009FEF9093020B8093010B83E090E07BCF8F
:1017600087E09BE00E943554882309F4ABC067EF03
:1017700072E08CE699E00E94723382E090E09093F0
:10178000F60A8093F50A8091FB0A0091F90A1091FC
:10179000FA0AFF24F394F9821A822091B606309156
:1017A000B7063C832B831D821E821F8218861A86F1
:1017B00019869091B5069B871C861D861F861E86FE
:1017C0008E3078F142E050E0B80189E791E00E9464
:1017D000E475892B31F5F80182818983868190E057
:1017E000982F88272781820F911D9C838B83AE01C0
:1017F000475F5F4FBE016B5F7F4FC8010E945C5423
:101800001A82D80113968C9180FF0BC0FA82C8010E
:101810000E947F5EF801E80FF91F80818B8781812C
:101820008C878C858230C8F58F5F8C878091250BE3
:101830002091260B3091270B3F872E878D87409173
:10184000F70A5091F80A6091F90A7091FA0A20E0BB
:1018500030E0CE0101960E94963E1092FC0A109252
:10186000FB0A8091F90A9091FA0AFC01648170E008
:10187000762F66272581620F711DC85ADB4F798349
:101880006883C855D4400E94823F62E070E0CE0178
:10189000885A9B4F0E94823F12C06BE271E08CE637
:1018A00099E00E94F7336091F70A7091F80A4CE6CC
:1018B00059E08091F90A9091FA0A0E944F3D84E024
:1018C00090E0C9CE8091050B9091060BDC01ED9163
:1018D000FC91048CF58DE02D09958091050B90917C
:1018E000060BDC01ED91FC910084F185E02D09955A
:1018F0008C01892B09F4C6C08091FF0A9091000BDE
:101900008039914078F081E090E09093F60A8093DE
:10191000F50A1092FC0A1092FB0A1092040B109226
:10192000030BB0C08091050B9091060BDC01ED918B
:10193000FC910284F385E02D09952091FF0A3091F6
:10194000000B6901BFEFCB1ADB0AD092000BC092EB
:10195000FF0AF901EE5BFB4F80830150110911F77B
:1019600010E092E4A92E94E0B92E4E01E1E18E0E32
:10197000911CC114D10409F485C020E0822F90E0AD
:10198000A601F3E0CF16D10410F042E050E0841736
:101990009507B0F4F501E80FF91F408150E0FC0114
:1019A000E758FE4F8081082E000C990B4817590705
:1019B00011F42F5FE3CF02E0C016D10480F462C0BF
:1019C000B2E0CB16D10408F45DC024E0C216D10405
:1019D00008F449C0D50113968C9180FD07C03FEFF4
:1019E000A31AB30A41E0C41AD108C3CFE6E0CE1669
:1019F000D104C8F1F501E480F12CFE2CEE248581A0
:101A0000E80EF11CCE14DF0470F14091250BF8E0D4
:101A1000EF1AF0EEFF0A03E0EE0CFF1C0A95E1F767
:101A200000E010E028E0429FA00111246091260B05
:101A30007091270B9501CE0101960E94AB3BDE0110
:101A40001996F6013897EA0DFB1D81E03D91219131
:101A500091E0321390E089238A169B06B9F711E0D2
:101A6000882309F4BCCF8091FF0A9091000BC8161F
:101A7000D90631F0A601B50182E494E00E94FA751E
:101A80001111E2C28CE699E00E94C160892BD1F16C
:101A900080913C0B90913D0B892BA1F180913E0BE5
:101AA00090913F0B892B71F18CE699E00E949F6029
:101AB000E0913C0BF0913D0B20913E0B30913F0BA0
:101AC000A091480BB091490B8D3019F08A3009F084
:101AD00072C2CD018E1B9F0B821793070CF443C279
:101AE0004091460B5091470B452B51F02E0F3F1F55
:101AF000F90131971082E091460BF091470B09955F
:101B00000E9406688091770B882341F08091790BC1
:101B100090917A0B0D9711F00C945C1B8091540BF3
:101B2000882341F08091630B9091640B059711F02D
:101B30000C945C1B80916A0A90916B0A009709F4DF
:101B400078C3079711F00C945C1B73C389829A8247
:101B5000AB82BC821D821E821F821886CE01019636
:101B60000E94883888E0FE013196A5EBBAE001902A
:101B70000D928A95E1F7112309F4F8C011E02224AF
:101B8000239404C0112309F45ACB10E0C05DDB4F4D
:101B9000188219821A821B82C053D440CC5CDB4F5E
:101BA000188219821A821B82C453D440CE01805DF0
:101BB0009B4F0E945644CF5DDB4F88829982AA8258
:101BC000BB82C152D440CB5DDB4F188219821A828E
:101BD0001B82C552D440CE018F5D9B4F0E94883836
:101BE000C05DDB4F88819981AA81BB81C053D440FD
:101BF000CF5FDB4F88839983AA83BB83C150D440D6
:101C0000CC5CDB4F88819981AA81BB81C453D440CD
:101C1000CB5FDB4F88839983AA83BB83C550D440B5
:101C2000BE016F5D7B4FCE018F5F9B4F0E947F4651
:101C3000CB5FDB4F88819981AA81BB81C550D4409D
:101C4000B7FF07C0B095A095909581959F4FAF4F76
:101C5000BF4FCF5FDB4F488159816A817B81C15083
:101C6000D44077FF07C070956095509541955F4FC0
:101C70006F4F7F4F49835A836B837C838D839E8311
:101C8000AF83B887CE0101960E948838CE018F5D60
:101C90009B4F0E94F345BE016F5F7F4F8DEC9AE032
:101CA0000E943238882361F1CF5DDB4F88819981B2
:101CB000AA81BB81C152D440C85CDB4F8883998321
:101CC000AA83BB83C853D440CB5DDB4F8881998105
:101CD000AA81BB81C552D440C45CDB4F8883998301
:101CE000AA83BB83CC53D4406DEC7AE0CE01885CF0
:101CF0009B4F0E941039CE01885C9B4F0E94B244DA
:101D000080912101823008F498CACB5FDB4F888034
:101D10009980AA80BB80C550D440CF5FDB4F4880FC
:101D200059806A807B80C150D44068EB72E08CE6B9
:101D300099E00E94F7332AE030E0B301A2018CE67B
:101D400099E00E94AD3366EC72E08CE699E00E9467
:101D5000F5332AE030E0B501A4018CE699E00E9459
:101D6000AD338CE699E00E946E3367CA2224239437
:101D700061E08BE10E94F32C8091770B882351F076
:101D80008091790B90917A0B009709F445C10D97DA
:101D900009F442C18091630B9091640B009711F09C
:101DA0000597A9F48091620B8F3F59F061E00E9482
:101DB000F32C4BE450E060E070E08DE69BE00E9485
:101DC000603F81E090E09093640B8093630B80917F
:101DD0006A0A90916B0A009719F00797C9F412C02C
:101DE00080916E0A8F3F71F061E00E94F32C45E014
:101DF00050E060E070E085E79AE00E94603F81E09B
:101E000090E002C082E090E090936B0A80936A0AAF
:101E1000109213012FB7F8948091DF059091E0059F
:101E2000A091E105B091E2057091180A711102C00C
:101E300080E055C0C0902E0AD0902F0AE090300A62
:101E4000F090310A4090190A50901A0A60901B0ACB
:101E500070901C0A80901D0A90901E0AA0901F0A84
:101E6000B090200A6091250A3091250A332341F071
:101E70008091210A9091220AA091230AB091240A0C
:101E80005091170A4091320A3091330AC092E3050B
:101E9000D092E405E092E505F092E6054092D70580
:101EA0005092D8056092D9057092DA058092DB05D0
:101EB0009092DC05A092DD05B092DE056093D60518
:101EC0008093DF059093E005A093E105B093E205D0
:101ED0005093D5054093D4053093D30581E02FBFAF
:101EE0008093D2058091E3059091E405A091E505EA
:101EF000B091E6050197A109B1098093E30590939C
:101F0000E405A093E505B093E605809121018823BF
:101F100089F06AE972E08CE699E00E94F7334AE0C2
:101F200050E0622D8CE699E00E9484338CE699E0C3
:101F30000E946E338FB7F89400913B0410913C04DB
:101F40008FBF6DE872E08CE699E00E94F7334AE0BB
:101F500050E0602F8CE699E00E9484338CE699E093
:101F60000E946E336CC9AE17BF0709F4CBCD1C922B
:101F70000091420B1091430B40913C0B50913D0B53
:101F8000E091400BF091410B20E030E02017310749
:101F90008CF5C080D180CA017C01D6016D916D01A4
:101FA000662309F10196D7017C916717A9F32F5F8A
:101FB0003F4F3496EBCFAD014E1B5F0B21503109E3
:101FC0004217530734F48C93E091480BF091490B7E
:101FD00011828091480B9091490B01969093490B87
:101FE0008093480B8FCD0280F381E02D309709F06C
:101FF00086CD86CDE091440BF091450B309709F4E6
:102000007FCDCA017CCDDD2021F0F2E02F2E11E042
:1020100012C982E0282EACCE81E090E090937A0B3A
:102020008093790B61E080917E0B0E94F32C4091AC
:102030001D0150911E0160911F01709120018AEED7
:102040009BE00E94603FA6CEAE01405D5B4FBE01AB
:102050006F5F7B4F8091F90A9091FA0A0E945C545D
:10206000AE014F5D5B4FBE016F5F7F4F82E494E036
:102070000E945C54E091F90AF091FA0A80914804B8
:1020800090E0982F882720914904820F911D268186
:1020900030E0322F22274781240F311D821793070A
:1020A00009F0A0C0CF5FDB4F488159816A817B81F5
:1020B000C150D44089819A81AB81BC8148175907AE
:1020C0006A077B0709F08EC0C05DDB4F288139812C
:1020D000C053D440CF5DDB4F88819981C152D44039
:1020E0002817390709F07EC02091460430E0322FCE
:1020F000222780914704280F311D9481892F90E079
:10210000982F88274581840F911D8E0F9F1FDC011A
:102110001A97F901E85CFB4F5C914081541362C04F
:102120001196F901E75CFB4F9C91808198135AC08E
:102130001092FC0A1092FB0A1092040B1092030BEF
:102140001092010119821A821B821C821D821E823A
:102150001F821886CE0101960E94883888E0FE0111
:102160003196ADEDBAE001900D928A95E1F71092AB
:102170003904109238041092370460E08DE00E9418
:10218000F32C8091460490E0982F882720914704F3
:10219000820F911D8139914040F44CE45EE46CE67D
:1021A00079E082E494E00E944740809121018A30E6
:1021B000A1F464E471E08CE699E00E94F7334CE608
:1021C00059E060E971E082E494E00E944F3D6EE3E3
:1021D00071E08CE699E00E94F7338DEE9AE00E9460
:1021E000564450CC64E171E08CE699E00E941B34C7
:1021F00060EF70E08CE699E00E941B346091FF0A6A
:102200007091000B4CE659E082E494E00E944F3D4F
:1022100064E171E08CE699E00E941B341092000B9F
:102220001092FF0A8FEF9FEF9093020B8093010BA8
:1022300029CC8091130181110C94A51981E0809320
:10224000130180912101882381F1C090B90AD090B7
:10225000BA0AE090BB0AF090BC0A8090B50A909050
:10226000B60AA090B70AB090B80A61E872E08CE6AE
:1022700099E00E94F7332AE030E0B501A4018CE632
:1022800099E00E94AD3366EC72E08CE699E00E9422
:10229000F5332AE030E0B701A6018CE699E00E9410
:1022A000AD338CE699E00E946E330091710A109173
:1022B000720A62E772E08CE699E00E94F733B80197
:1022C0008CE699E00E94AF40809121018823B9F00B
:1022D0008091770B882399F000910D0C10910E0CD2
:1022E00065E672E08CE699E00E94F733B8018CE66F
:1022F00099E00E94AF408CE699E00E946E33809195
:102300002101882329F080916F0A81110C948D1A84
:1023100080912101882331F18091540B882311F1A0
:102320000091670B1091680BE090690BF0906A0BBD
:1023300069E472E08CE699E00E94F733B7018CE61D
:1023400099E00E94C9406EE372E08CE699E00E9439
:10235000F733B8018CE699E00E94AF408CE699E033
:102360000E946E338091770B8823C9F180912101FF
:102370008B30A9F510E080917C0B90917D0B899FAB
:10238000802D1124181758F5B4E01B9FF00111247B
:10239000E15FF34FC080D180E280F38064E372E0BC
:1023A0008CE699E00E94F7334AE050E0612F8CE61A
:1023B00099E00E94843360E372E08CE699E00E9429
:1023C000F7332AE030E0B701A6018CE699E00E94DD
:1023D000AD338CE699E00E946E331F5FCCCF8091C5
:1023E0002101882309F4BAC080913D04882311F0AB
:1023F00019E501C01EE465E272E08CE699E00E94F6
:10240000F733612F8CE699E00E94A6338CE699E0C1
:102410000E946E338091D205882311F019E501C026
:102420001EE468E172E08CE699E00E94F733612FC8
:102430008CE699E00E94A6338CE699E00E946E3308
:102440008091D205882309F489C0C090DB05D09023
:10245000DC05E090DD05F090DE058090D7059090DA
:10246000D805A090D905B090DA054090E3055090CA
:10247000E4056090E5057090E6056DE072E08CE69D
:1024800099E00E94F7332AE030E0B301A2018CE624
:1024900099E00E94AD3361E072E08CE699E00E9421
:1024A000F7332AE030E0B501A4018CE699E00E9400
:1024B000AD3366EC72E08CE699E00E94F5332AE0D9
:1024C00030E0B701A6018CE699E00E94AD3380911F
:1024D000D6058823B1F0C090DF05D090E005E090EC
:1024E000E105F090E20566EC72E08CE699E00E946E
:1024F000F5332AE030E0B701A6018CE699E00E94AE
:10250000AD330091D30510E0E090D405F12CD090CC
:10251000D50567EF71E08CE699E00E94F7336D2DE9
:102520008CE699E00E94A63366EC72E08CE699E0B6
:102530000E94F533B7018CE699E00E94AF4066EC4B
:1025400072E08CE699E00E94F533B8018CE699E0E0
:102550000E94AF408CE699E00E946E33D0905310F9
:10256000EFEFDE1641F180E690E00E9400758C01ED
:1025700082E690E00E9400757C01F694E794980151
:102580002E0D3F1D8091710A9091720A281739070C
:1025900024F461E08D2D0E94F32C0E191F09809107
:1025A000710A9091720A801791072CF460E0809173
:1025B00053100E94F32CCE018F5D9B4F0E94363D3D
:1025C00083E091E0C25DDB4F99838883CE52D44093
:1025D00080E1C35DDB4F8883CD52D44090910201EE
:1025E000CE5DDB4F8881C252D440992311F08260C6
:1025F00001C08D7FCE5DDB4F8883C252D440809175
:10260000B90A9091BA0A4091B50A5091B60A609100
:10261000B70A7091B80ACB5DDB4F488359836A8350
:102620007B83C552D440C75DDB4F99838883C952F1
:10263000D440BE016F5F7F4FCE018F5D9B4F0E94E4
:10264000453E809121018823B1F00D8110E0102FCB
:1026500000278E81080F111D67EE71E08CE699E06E
:102660000E94F733B8018CE699E00E94C9408CE6DD
:1026700099E00E946E338091770B882309F491C012
:10268000E0900F10F09018109090191080917C0B32
:1026900040917D0B849F402D112450E02FE03CE0C1
:1026A00068E0CE0101960E94236978E7C72E7BE09F
:1026B000D72E02EE1BE0812CAA24A394B12C80918A
:1026C0007C0B8816D8F5D8015C9120E030E080E0E2
:1026D00090E040E0B501082E01C0660F0A94EAF7C9
:1026E0006523C1F0A1E0B4E0AC0FBD1FE4E04E9F54
:1026F000A00DB11D1124F901E956FC4FEC0DFD1D93
:1027000040805180628073804D925D926D927C9288
:1027100013974F5F8730910531F001962C5F3F4F43
:102720004830C0F202C0442349F050E09E012F5FC0
:102730003B4F682DCE0101960E9423698394F0E2FD
:10274000CF0ED11C0F5F1F4F28E08212B8CF8091AF
:102750000D0C90910E0CCC5ADB4F99838883C45595
:10276000D4409E012C5A3B4F43E060E074E0CE0120
:1027700001960E943241892D90E0880F991F9E2971
:102780008F29CA5ADB4F99838883C655D4409E014E
:102790002A5A3B4F43E160E074E0CE0101960E946B
:1027A00032418091710A9091720ACE5ADB4F99831F
:1027B0008883C255D4409E012E5A3B4F44E060E0CE
:1027C00074E0CE0101960E94324180916F0A882305
:1027D000A1F08091730A9091740AC05BDB4F9983DA
:1027E0008883C055D4409E01205B3B4F45E060E0AC
:1027F00074E0CE0101960E9432418091CD0A909101
:10280000CE0A9C0144E0220F331F4A95E1F78091E4
:10281000D10A9091D20AA091D30AB091D40A5BE078
:10282000B595A795979587955A95D1F7822B932BB8
:10283000C25BDB4F99838883CE54D4409E01225BD8
:102840003B4F48E060E074E0CE0101960E943241C7
:102850008091540B882341F18091670B9091680B14
:10286000C65BDB4F99838883CA54D4409E01265BA4
:102870003B4F4BE160E074E0CE0101960E94324193
:102880008091690B90916A0BC45BDB4F99838883BD
:10289000CC54D4409E01245B3B4F4CE160E074E09B
:1028A000CE0101960E94324180910101882391F06E
:1028B00080913A04C05ADB4F8883C056D4409E01B1
:1028C000205A3B4F47E060E074E0CE0101960E9441
:1028D000324104C080913904882351F000E02BE29A
:1028E00031E04DE060E074E0CE0101960E946C4161
:1028F000CF5FDB4F188219821A821B82C150D440ED
:10290000CB5FDB4F188219821A821B82C550D440DC
:10291000CE018F5F9B4F0E948838BE016F5F7B4F57
:102920008DED9AE00E946138811149C08091E10AE1
:102930009091E20A4091DD0A5091DE0A6091DF0A2F
:102940007091E00ACC5BDB4F488359836A837B83B9
:10295000C454D440C85BDB4F99838883C854D440A7
:102960008D8190E0982F88272E81820F911D8C01F8
:10297000095F1F4F013034E0130708F5EE24E3949C
:10298000F12CEC0EFD1EE80EF91E26E0D7012C936B
:10299000019644E0BE016C5B7B4FE1E0F0E0EC0FA0
:1029A000FD1F8E0F9F1F0E94383E42E0BE01685BF4
:1029B0007B4FC70105960E94383E1D830E83009110
:1029C00037041091380401151105E9F06EEC71E03F
:1029D0008CE699E00E94F733B8018CE699E00E94FA
:1029E000C9408CE699E00E946E3320913704309103
:1029F0003804409135045091360460E074E0CE0113
:102A000001960E9497679091340480911A10911159
:102A100099C5883008F496C59091330480911B10B5
:102A20009111A2C5882309F49FC5C090D305B09029
:102A3000D405A090D505D090D2058091E305909162
:102A4000E405A091E505B091E605C05CDB4F888305
:102A50009983AA83BB83C054D4408D8190E0982F82
:102A600088272E81820F911D7C01F8E0EF0EF11C6A
:102A700001E0E01604E0F00638F501E010E00C0F8C
:102A80001D1F080F191F2DE1D8012C93019644E05A
:102A9000BE01605C7B4FE1E0F0E0EC0FFD1F8E0FAC
:102AA0009F1F0E94383EDD2011F080E801C080E0C9
:102AB000A82AD8011596AC9215971696BC9216972F
:102AC0001796CC92FD82EE82DD2009F453C08BE193
:102AD0009BE00E945C63882309F44CC08091D6057A
:102AE000811154C512E0F12EB4E0FB9E9001112437
:102AF000CF5FDB4F39832883C150D4408D8190E074
:102B0000982F88274E81840F911DAC014D5F5F4F38
:102B1000240F351F2130E4E03E0760F53D832E830E
:102B200001E010E00C0F1D1F080F191F2EE1D80146
:102B30002C93019642E0BE016F5F7B4FE1E0F0E035
:102B4000EC0FFD1F8E0F9F1F0E94383E0D5F1F4F21
:102B5000A7EDCA2EA5E0DA2EE12C44E0B601C801AB
:102B60000E94383E0C5F1F4FF4E0CF0ED11CE3945F
:102B7000FE10F3CF20E030E040E054E0BE016F5F94
:102B80007F4FCE018F5D9B4F0E94963E6D8170E01E
:102B9000762F66278E81680F711DCE0101960E94E7
:102BA0000640809141048F5F8093410490913204EC
:102BB000992369F090915110992321F0891710F011
:102BC00010923204609132048DE00E94F32CCE0109
:102BD0008F5F9B4F0E94FC42CE018F5F9B4F0E94F4
:102BE000144B6B017C01C05DDB4F188219821A8285
:102BF0001B82C053D440CC5CDB4F188219821A82EE
:102C00001B82C453D440CE01805D9B4F0E9456442A
:102C1000C05DDB4F88809980AA80BB80C053D440C0
:102C2000D701C60188199909AA09BB09B7FF07C0CE
:102C3000B095A095909581959F4FAF4FBF4F03974B
:102C4000A105B1050CF493C1C501B40120E83FE131
:102C500046E857E00E944A75B7FC02C0A22F02C0A6
:102C6000AFEFA20F04E0A00260011124760116E785
:102C7000E10EF11C0A2E000CBB0B20E830EE49E7F8
:102C800058EF0E947475680D791D8A1D9B1D20E800
:102C900031E541E050E00E944A7529013A0189017D
:102CA0002CE330E040E050E00E944A75CF5FDB4FFC
:102CB00079836883C150D440C9016CE370E00E94FD
:102CC000AB75CD5FDB4F99838883C350D440CB5F16
:102CD000DB4F79836883C550D44028E4421624E052
:102CE000520614F4C7010DC082010854144039E79C
:102CF000C30ED11CC55FDB4FD982C882CB50D440F4
:102D000014C0382F292F01960D3641E014071CF00E
:102D10000D561140F6CFC55FDB4F3883CB50D44002
:102D2000C45FDB4F2883CC50D440C15FDB4F198395
:102D30000883CF50D4400F5F1F4FC55FDB4FC88063
:102D4000D980CB50D44054E9C51A58EFD50AE12CAC
:102D5000F12C370161E06E0DC6010E94073890E04A
:102D60006FEFE61AF60A801791071CF4081B190B7F
:102D7000F0CFC75FDB4F6882C950D440C65FDB4FDE
:102D80007882CA50D440C95FDB4F19830883C7508B
:102D9000D440C501B40120E831E541E050E00E9493
:102DA0004A75C901019667E070E00E949775C35F9C
:102DB000DB4F99838883CD50D440C85CDB4F1882A9
:102DC000C853D440CE01885C9B4F0E94B542F82E78
:102DD000C85CDB4F8881C853D440882309F4C1C044
:102DE0008091680A9091690A0297E9F46091670AF4
:102DF00085E59BE00E941B606EE285E59BE00E94FA
:102E00000A5C61E085E59BE00E940A5C64EA85E576
:102E10009BE00E940A5C60E085E59BE00E940A5C02
:102E200010E000E020C00E940A448091680A90915E
:102E3000690A009749F0019749F483E00E948D42A6
:102E4000182F187300E004C000E801C000E010E093
:102E50006091670A85E59BE00E941B606F2D85E508
:102E60009BE00E940A5CCF5FDB4F8881C150D44059
:102E70000E94FF4A802B90E00E942D41CD5FDB4FE6
:102E80008881C350D4400E94FF4A682F85E59BE0AB
:102E90000E940A5CCB5FDB4F8881C550D4400E9402
:102EA000FF4A682F85E59BE00E940A5C8091680AD2
:102EB0009091690A029791F4C95FDB4F8881C750EE
:102EC000D4400E94FF4A682F85E59BE00E940A5C7F
:102ED000C35FDB4F8881CD50D44011C0C35FDB4F4F
:102EE0008881CD50D4408F5F0E94FF4A812B90E0B3
:102EF0000E942D41C95FDB4F8881C750D4400E949A
:102F0000FF4A682F85E59BE00E940A5CC75FDB4FA4
:102F10008881C950D4408F5F0E94FF4A682F85E5A1
:102F20009BE00E940A5CC85CDB4F8881C853D44098
:102F3000873088F0C55FDB4F88819981CB50D440C2
:102F400064E670E00E94AB750E94FF4A682F85E539
:102F50009BE00E940A5C85E59BE00E94BF5F0E94A7
:102F6000ED4361EC71E08CE699E00E941B34C05D9A
:102F7000DB4F88819981AA81BB81C053D4404091A5
:102F8000ED0A5091EE0A6091EF0A7091F00A841BED
:102F9000950BA60BB70B00911C1010911D10A801EA
:102FA00060E070E0481759076A077B0774F46BEB21
:102FB00071E08CE699E00E94F733B8018CE699E065
:102FC0000E94C9406CE971E072C1B7FF0AC088E095
:102FD000FE01E05DFB4FADEEBAE001900D928A95E7
:102FE000E1F780911804882309F495C100910F0A34
:102FF0001091100A0115110509F429C10E945232DD
:103000004B015C01F80186A997A9A0ADB1AD98016B
:103010002E5B3F4F7901892B8A2B8B2B09F4AEC095
:10302000F90180819181A281B381A5019401281BBE
:10303000390B4A0B5B0BCA01B90157FD67C028EE7B
:1030400033E040E050E00E944A75CF59DB4F68837F
:1030500079838A839B83C156D4402401350168EE6D
:10306000460E63E0561E611C711CCF59DB4F8881F0
:103070009981AA81BB81C156D440481A590A6A0A6B
:103080007B0AD7014D925D926D927C921397BA01A3
:10309000A9014F5F5F4F6F4F7F4FF80186A597A53E
:1030A000A0A9B1A96A017B01CC0CDD1CEE1CFF1CA0
:1030B0008C159D05AE05BF0544F4D8019E961D9262
:1030C0001D921D921C92D19709C0841B950BA60BD3
:1030D000B70BF80186A797A7A0ABB1ABF80182A9FF
:1030E00093A9A4A9B5A98C159D05AE05BF052CF41F
:1030F00012AA13AA14AA15AA09C0841B950BA60B21
:10310000B70BF80182AB93ABA4ABB5AB6801F6E4A7
:10311000CF0ED11CD6018C91833099F4F80186A58D
:1031200097A5A0A9B1A9181619061A061B064CF0F6
:1031300084E0D6018C93C8010E94586501967C01F9
:1031400002C0E12CF12CF6018081833011F0811155
:1031500022C0F80182A993A9A4A9B5A91816190635
:103160001A061B06C4F0D6011C92C8010E94DC6638
:10317000C8010E94586503967C010DC0D501C401A9
:1031800088519C4FAF4FBF4FF90180839183A28339
:10319000B383E12CF12CD801D6968D929D92AD92FD
:1031A000BC92D997B2E0EB16F10429F0E4E0EE16F8
:1031B000F10409F04EC060910F0A7091100A625F2D
:1031C0007F4FCE01885C9B4F0E942E6208E314E083
:1031D0000C0F1D1F0E5F1F4FC8010E9464496091B4
:1031E0000F0A7091100A6A5E7F4FCE01885C9B4F78
:1031F0000E942E62C8010E94744960910F0A70916A
:10320000100A6E5E7F4FCE01885C9B4F0E942E623B
:10321000C8010E946C4960910F0A7091100A625EA9
:103220007F4FCE01885C9B4F0E942E62C65CDB4FB5
:1032300088819981AA81BB81CA53D44080930B0AAB
:1032400090930C0AA0930D0AB0930E0A02C0E12CD1
:10325000F12C1E2DE1100EC080912101813009F06A
:103260005AC060E871E08CE699E00E94F7336DE7A0
:1032700071E029C060E871E08CE699E00E94F733C4
:10328000FF24F2E0EF16F104E1F024F4EA94EF28D1
:1032900061F01EC033E0E316F10439F044E0E416B7
:1032A000F104B1F467E671E00EC066E771E08CE608
:1032B00099E00E941B348CE699E00E9450610E94C4
:1032C00031606EE671E08CE699E00E941B3423C009
:1032D000812F90E0A0E0B0E0C85CDB4F8883998349
:1032E000AA83BB83C853D4408AE090E0C45CDB4F20
:1032F00099838883CC53D44064E571E08CE699E0EF
:103300000E94F733BE01685C7B4F8CE699E00E9417
:1033100025540E946E3360E08BE10E94F32C809173
:103320002101811112C06091400470E06F5F7F4FF6
:1033300067707727609340046F5D8CE699E00E9488
:10334000A6338CE699E00E946E3380912104882395
:1033500009F4D0C020911F043091200480911D04F5
:1033600090911E042817390708F0C4C08BE19BE038
:103370000E945C63882309F4BDC08091030B909187
:10338000040B892B09F0B6C08091B5068F5F80933E
:10339000B506CE018F5F9B4F0E94363D83E091E0E2
:1033A000C25FDB4F99838883CE50D44080E1C35FF6
:1033B000DB4F8883CD50D440CF5DDB4F188219821C
:1033C0001A821B82C152D440CB5DDB4F1882198216
:1033D0001A821B82C552D440CE018F5D9B4F0E9442
:1033E0005644CB5DDB4F88819981C552D440CF5D77
:1033F000DB4F488159816A817B81C152D440CB5FC8
:10340000DB4F488359836A837B83C550D440C75FB1
:10341000DB4F99838883C950D440BE016F5F7F4FD3
:10342000CE018F5F9B4F0E94453E80911F0490917B
:103430002004C05DDB4F99838883C053D440AD81A5
:10344000B0E0BA2FAA278E81A80FB11D8D010D5EA5
:103450001F4F013051E0150700F581E090E08C0F1F
:103460009D1F8A0F9B1F2FE0FC012083119621E0F6
:1034700030E02C0F3D1FA20FB31F20E1E1E2F4E08A
:1034800001900D922A95E1F742E0BE01605D7B4F0D
:1034900041960E94383E1D830E8320E030E040E0DC
:1034A00051E0BE016F5F7F4FCE018F5F9B4F0E9447
:1034B000963E6D8170E0762F66278E81680F711DB4
:1034C000CE0101960E940640809141048F5F809357
:1034D000410490913204992369F0909151109923FD
:1034E00021F0891710F010923204609132048DE0BF
:1034F0000E94F32C8BE19BE00E945C632091030B04
:103500003091040B882321F02115310509F441C0C5
:103510002430310509F0D0C03CC00091730A1091ED
:10352000740A64E572E08CE699E00E94F733B80112
:103530008CE699E00E94C9408CE699E00E946E33C7
:103540000C948811C15ADB4F8883CF55D4409E011B
:10355000215A3B4F42E260E074E0CE0101960E94A6
:1035600032411092340458CAC25ADB4F8883CE5578
:10357000D4409E01225A3B4F43E260E074E0CE010A
:1035800001960E943241109233044FCA93E0F92E03
:10359000ABCA8091050B9091060BDC01ED91FC917B
:1035A0000088F189E02D0995882309F485C0809170
:1035B0000001882309F480C065ED7AE08DEC9AE083
:1035C0000E943238811178C064E971E08CE699E09C
:1035D0000E94F7338CE699E00E9450610E94FA62E3
:1035E0008091B60081FDFCCF8091B000898328E1F5
:1035F00039E28091150181114BC0F89487B387603F
:1036000087BB78948091B60081FDFCCF898180933F
:10361000B0008091B60081FDFCCFF89483B7817F24
:10362000866083BF83B7816083BF0FB6F894A89587
:1036300080916000886180936000109260000FBEEE
:103640008091190490911A04A0911B04B0911C045C
:10365000893046E994074EE1A407B10551F0863060
:103660009749AE41B10529F085B7806685BF8F7D4A
:1036700085BF7894889583B78E7F83BF78940FB683
:10368000F894A895209360000FBE30936000B1CFEE
:103690008091BC008B7E8093BC008091BC008460D4
:1036A0008093BC006CE871E08CE699E00E94F733EF
:1036B0008CE699E00E945061CC59DB4F0FB6F8942C
:1036C000DEBF0FBECDBFDF91CF911F910F91FF9055
:1036D000EF90DF90CF90BF90AF909F908F907F90B2
:1036E0006F905F904F903F902F9008952F923F9250
:1036F0004F925F926F927F928F929F92AF92BF9202
:10370000CF92DF92EF92FF920F931F93CF93DF93AD
:10371000CDB7DEB7CB5AD2400FB6F894DEBF0FBE9E
:10372000CDBF84B780933A0414BE0FB6F894A89521
:1037300080916000886180936000109260000FBEED
:1037400099E288E10FB6F894A895809360000FBEC7
:103750009093600010E062E0812F0E9498311F5F1B
:103760001032C9F7809153108F3F41F061E00E9401
:10377000983160E0809153100E94F32C8091521098
:103780008F3F41F061E00E94983160E080915210DB
:103790000E94F32C61E08BE10E94983160E08BE1A4
:1037A0000E94F32C88E0EBE3F1E0DE01A35BBD4F68
:1037B00001900D928A95E1F788E0E3E4F1E0DE0103
:1037C000AB5ABD4F01900D928A95E1F744E050E06D
:1037D00064ED70E0CE0187569D4F0E94E274C7569B
:1037E000DD4F488159816A817B81C959D240DB0113
:1037F000CA01805C9241A109B109813E944EA34067
:10380000B10520F040E052EC61E070E08CE699E018
:103810000E94CF408CE699E00E94506184B78F7E71
:1038200084BF8BB185608BB989E0E0E0F0E08093E4
:103830005700F490E3E0F0E080935700E490E2E07A
:10384000F0E08093570014918091190490911A042C
:10385000A0911B04B0911C04E0E0F0E031E2309351
:1038600057002491BA2FA92F982F8827822B3296A0
:10387000E630F105A1F78093190490931A04A09300
:103880001B04B0931C0468E477E08CE699E00E9486
:10389000F7338091190490911A04A0911B04B09100
:1038A0001C048A3046E994074EE1A407B105C1F033
:1038B00040F489309649AE41B105D9F48EE397E0E2
:1038C00014C0853027E992072EE1A207B10559F00F
:1038D00086309749AE41B10561F488E297E005C0B2
:1038E00083E397E002C08CE197E09093A806809371
:1038F000A706C090A706D090A8066EE077E08CE6F9
:1039000099E00E94F733B6018CE699E00E94F73304
:10391000812F90E0A0E0B0E0C55CDD4F8883998303
:10392000AA83BB83CB53D24000E110E0C15CDD4FE2
:1039300019830883CF53D2408E2D90E0A0E0B0E0F1
:10394000C75DDD4F88839983AA83BB83C952D24068
:10395000C35DDD4F19830883CD52D2408F2D90E097
:10396000A0E0B0E0CF5FDD4F88839983AA83BB835B
:10397000C150D240CB5FDD4F19830883C550D24080
:103980008091190490911A04A0911B04B0911C0419
:1039900089839A83AB83BC831E830D8361E077E0C8
:1039A0008CE699E00E94F733CE0101963C01BC0100
:1039B0008CE699E00E9425546C0165EF76E00E9448
:1039C000F733BE016F5F7D4FC6010E9425546C0125
:1039D00068EE76E00E94F733BE01675D7D4FC60159
:1039E0000E9425546C0167ED76E00E94F733BE011A
:1039F000655C7D4FC6010E9425549F2D9F70F92E56
:103A000080913A0490E0A0E0B0E0CF5FDD4F888382
:103A10009983AA83BB83C150D240CB5FDD4F19830A
:103A20000883C550D2408F2D90E0A0E0B0E089839C
:103A30009A83AB83BC831E830D836CEC76E08CE6AB
:103A400099E00E94F73361E070E0E2E0FE1611F0C9
:103A500060E070E08CE699E00E94AF4063EC76E0B5
:103A60008CE699E00E94F733B3018CE699E00E945E
:103A700025548C016AEB76E00E94F733BE016F5F3C
:103A80007D4FC8010E94255465E876E08CE699E0F8
:103A90000E94F7336DE676E08CE699E00E94F733FA
:103AA0008CE699E00E946E3368E276E08CE699E05D
:103AB0000E94F7338CE699E00E946E3380913A04BD
:103AC000857019F081E08093320461E084E00E9407
:103AD000983161E084E00E94F32C61E08AE00E946A
:103AE000983161E08AE00E94F32C61E08EE00E9450
:103AF000983161E08EE00E94F32C809153108F3F4B
:103B000041F180E690E00E9400758C016CE176E066
:103B10008CE699E00E94F733B8018CE699E00E94A8
:103B2000AF408CE699E00E946E3382E690E00E94FE
:103B300000758C0160E176E08CE699E00E94F73335
:103B4000B8018CE699E00E94AF408CE699E00E94B3
:103B50006E3380E390E00E9400758C0166E076E0B1
:103B60008CE699E00E94F733B8018CE699E00E9458
:103B7000C9408CE699E00E946E336BEF75E08CE6ED
:103B800099E00E94F73333E0E32E31E0F32E00E2B8
:103B900010E040E1C42ED12CC8010E94F274F7015C
:103BA00081937F0190E0A0E0B0E089839A83AB83AA
:103BB000BC83DE82CD8260E28CE699E00E94A6336F
:103BC000B3018CE699E00E9425540F5F1F4F00332C
:103BD000110511F78CE699E00E946E330E94F1689E
:103BE00060E085E59BE00E941B6086E090E00E941B
:103BF0002D4185E59BE00E94BF5F60E085E59BE08D
:103C00000E941B6084E090E00E942D4185E59BE0CE
:103C10000E94BF5F40E150E060E270E083E091E02D
:103C20000E94E27480E390E00E9400759093B706D2
:103C30008093B60661E089E00E94983161E089E0F6
:103C40000E94F32C60911D0170911E0180911F0153
:103C5000909120010E941832CE01835B9D4FC75581
:103C6000DD4F99838883C95AD240FE01EB5AFD4F3C
:103C7000CC55DD4FF983E883C45AD2407F016C01F3
:103C800000E011E0C8010E94F274F60181936F0117
:103C9000C8019E5F0E94F2749FEF980F943010F459
:103CA000F70180830F5F1F4FFFEFEF1AFF0A083005
:103CB00021E0120739F784E490E00E94F274482E64
:103CC0008FEF840D803110F04424439485E490E01C
:103CD0000E94F274C056DD4F8883C05AD2408F3F95
:103CE00031F441E0C056DD4F4883C05AD240809144
:103CF000770B882309F4A4C26DEE75E08CE699E099
:103D00000E94F73369EE75E08CE699E00E941B345F
:103D100089E080937E0B61E00E94983110927F0BC6
:103D20008091780B81111AC00E949F688EE390E009
:103D30000E94F2748F3F09F49BC0E2E38E9FC001A2
:103D40001124092E000CAA0BBB0B80931D0190932C
:103D50001E01A0931F01B09320018AC08770809339
:103D6000080C0E94F1686091080C606285E59BE098
:103D70000E941B6060E085E59BE00E940A5C6FEF9B
:103D800085E59BE00E940A5C60E085E59BE00E947F
:103D90000A5C60E085E59BE00E940A5C60E085E5E6
:103DA0009BE00E940A5C60E085E59BE00E940A5C63
:103DB00060E085E59BE00E940A5C60E085E59BE0B1
:103DC0000E940A5C60E085E59BE00E940A5C60E07E
:103DD00085E59BE00E940A5C60E085E59BE00E942F
:103DE0000A5C85E59BE00E94BF5F00E010E0CC2408
:103DF000C394D12C80E00E94CB687601002E01C0D4
:103E0000EE0C0A94EAF7682F6E2980E00E9484681D
:103E100086E00E94CB68682F6E2986E00E94846845
:103E20000F5F1F4F0830110529F701E010E0EE2465
:103E3000E394F12C80E00E94CB68B701002E01C012
:103E4000660F0A94EAF7D62ED094682F6D2180E091
:103E50000E94846889E00E94CB68682F6D2189E008
:103E60000E9484680F5F1F4F0630110519F75CCF61
:103E700061E080917E0B0E94F32C40911D015091D6
:103E80001E0160911F0170912001411551056105CE
:103E9000710521F448EE53E060E070E08AEE9BE0AB
:103EA0000E94603F0E94D53A83E193E00E94F27441
:103EB000282E880F88518C70582EB8E7CB2EBBE087
:103EC000DB2E89ED9BE0C955DD4F99838883C75A66
:103ED000D2407C018E01035B1D4FA12CB12C91E0DF
:103EE000CA55DD4F9883C65AD24088248394912CBA
:103EF000F80131908F018CEF830D8437A0F441E0FD
:103F0000632D85E59BE00E9425609091CD06809110
:103F1000CC06981711F40C94792CF601308A81E0C4
:103F2000F701808302C0F7011082F70181917F01C0
:103F30008823E9F02091E10BC4010A2C01C0880F0D
:103F40000A94EAF7822399F080E093E00E94F274E9
:103F5000382E88E093E00E94F274282F422D632DC2
:103F6000C3010E9464688981F601808F02C0F60156
:103F7000508EFFEFAF1ABF0A2FEFC21AD20A48E0E5
:103F8000A416B10409F0B4CFA2EEEA2EABE0FA2EEB
:103F9000812C912C04E112E0F7011082C8010E94EB
:103FA000F274F7018083C80104970E9400759C0198
:103FB000215031092031310508F081E0F701E25D3F
:103FC000FB4F8083C80101970E94F274582E880F1E
:103FD00088518C70C555DD4F8883CB5AD24068011B
:103FE000F4E1CF1AD108F9ED2F2EFBE03F2EA12CE2
:103FF000B12CC40182549109CE55DD4F9983888339
:10400000C25AD240F10181911F01882361F1F70169
:10401000208181E090E00A2C01C0880F0A94EAF721
:10402000822309F1C6010E94F274CF55DD4F8883C7
:10403000C15AD240C60108960E94F274282F452D1D
:10404000CF55DD4F6881C15AD240C3010E946468D8
:104050008981CE55DD4FE881F981C25AD240E20D07
:10406000F31D80830EC0CE55DD4FE881F981C25A21
:10407000D240E20DF31DC555DD4F2881CB5AD24009
:1040800020834FEFA41AB40A8FEFC81AD80A98E019
:10409000A916B10409F0B6CFEFEFEE1AFE0A005EE2
:1040A0001F4FF8E08F0E911C043123E0120709F036
:1040B00073CF88E68093D80BCA55DD4F4881C65A26
:1040C000D24041110CC069EE75E08CE699E00E9487
:1040D000F73362ED75E08CE699E00E94F733C05645
:1040E000DD4F8881C05AD2408170982E40920F10C7
:1040F0008093181081E0C056DD4F9881C05AD2409D
:104100009270892EC056DD4FE881C05AD240E1FF3F
:1041100080E08093191000E010E0E0E1CE2ED12C79
:10412000C955DD4FE881F981C75AD2408191C955FF
:10413000DD4FF983E883C75AD240811105C07DEA7B
:10414000A72E75E0B72E04C067EBA62E65E0B62E4D
:10415000CC55DD4FE881F981C45AD2405190CC55FD
:10416000DD4FF983E883C45AD240C755DD4FE8815B
:10417000F981C95AD2408191C755DD4FF983E8834F
:10418000C95AD24090E0A0E0B0E089839A83AB8323
:10419000BC83DE82CD826DEC75E08CE699E00E94F6
:1041A000F733B8018CE699E00E94AF4067EC75E008
:1041B0008CE699E00E94F733B3018CE699E00E9407
:1041C00025547C0161EC75E00E94F7334AE050E031
:1041D000652DC7010E948433B501C7010E94F733E2
:1041E0000F5F1F4F0830110509F09ACF60EA75E0A4
:1041F0008CE699E00E94F7334AE050E0642D8CE6AB
:1042000099E00E94843363E975E08CE699E00E94AE
:10421000F733882031F06AE875E08CE699E00E9477
:10422000F733911003C06CE775E002C062E875E0F7
:104230008CE699E00E94F7338CE699E00E94506189
:1042400069EE75E08CE699E00E94F7338091770B78
:10425000811106C067E775E08CE699E00E94F733AC
:104260006EE675E08CE699E00E941B348091770B36
:104270008823E9F069EE75E08CE699E00E94F73357
:1042800067E575E08CE699E00E94F73340911D01E7
:1042900050911E0160911F01709120012AE08CE66F
:1042A00099E00E9425338CE699E00E946E3380915C
:1042B000540B8823D1F06DEE75E08CE699E00E94F6
:1042C000F7336FE475E08CE699E00E941B348FEFC2
:1042D0008093620B4BE450E060E070E08DE69BE081
:1042E0000E94603F81E08093540B6FE475E08CE6A0
:1042F00099E00E94F7338091540B811106C067E763
:1043000075E08CE699E00E94F7336EE675E08CE686
:1043100099E00E941B348AE390E00E94F27480933B
:1043200018048EED90E00E94F27491E0811101C0BA
:1043300090E09093140181EE90E00E94FA744B019A
:104340005C01DC01CB010197A109B1098E3F9F4FB0
:10435000AF4FBF4F30F0812C52EC952EAA24A3947E
:10436000B12CB501A4018FEC98E00E94CF4085E507
:104370008093340A82E596E09093360A8093350A5A
:104380009093380A8093370A109252061092A6062C
:1043900060E086E00E94983180E69CE490931B01E7
:1043A00080931A0180916900806380936900EA9A82
:1043B00061E088E10E94983160E088E10E94F32C7E
:1043C00065E070E080E090E00E94183261E088E1F2
:1043D0000E94F32C64EF71E080E090E00E941832BC
:1043E00085EE90E00E94FA746B017C01DC01CB0148
:1043F0000197A109B1098E3F9F4FAF4FBF4F28F0E2
:10440000C12C4BE4D42EE12CF12CC814D904EA04BD
:10441000FB0409F447C061E375E08CE699E00E9473
:10442000F7332AE0B501A4018CE699E00E94253318
:104430006CE275E08CE699E00E94F7332AE0B70160
:10444000A6018CE699E00E9425338CE699E00E9453
:104450006E33FF92EF92DF92CF928EE195E09F93C1
:104460008F931F9280E58F937F926F920E94E871E5
:10447000C3010E94346862E370E080E090E00E9433
:104480001832B701A6018FEC98E00E94CF4062E39A
:1044900070E080E090E00E9418320FB6F894DEBF22
:1044A0000FBECDBF87E093E00E94346886E193E0C1
:1044B0000E9434688DE193E00E9434688EE490E0BD
:1044C0000E94F2748F3F09F481E091E0209118047A
:1044D000223008F490E022E020936C0A27E0209339
:1044E0006D0A2EE120936E0A80936F0A9093700AF2
:1044F000882321F060E08AE10E94983180916D0A62
:10450000883010F4885E01C08FEF60E00E9498311F
:1045100080916E0A8F3F19F061E00E9498316DE042
:1045200075E08CE699E00E94F7338FED90E00E94F1
:10453000F274082F10E0C356DD4F19830883CD595C
:10454000D24080EE90E00E94F274C156DD4F888325
:10455000CF59D2400430110504F588508037E8F473
:104560000430110540F4F801EE0FFF1FE85FFC4F27
:104570006591749102C06CEF72E08CE699E00E9444
:10458000F7338CE699E00E946E3348E7BE0161562E
:104590007D4FCE0183569D4F0BC060E373E08CE6E8
:1045A00099E00E94723346E06BE471E08EE491E0A2
:1045B0000E9438428823B1F18091670A90E0A0E020
:1045C000B0E089839A83AB83BC8380E190E09E83D3
:1045D0008D83E091680AF091690AE430F10538F4BE
:1045E000EE0FFF1FE85FFC4F0591149102C00CEF26
:1045F00012E066E075E08CE699E00E94F733B801BE
:104600008CE699E00E94F73367EF74E08CE699E05E
:104610000E94F733B3018CE699E00E9425540E9472
:104620006E3306C069EE74E08CE699E00E94F733C1
:104630008CE699E00E9450618091680A9091690A25
:1046400082309105C1F56091670A85E59BE00E9483
:104650001B6063E285E59BE00E940A5C60E085E503
:104660009BE00E940A5C60E085E59BE00E940A5C9A
:1046700062E185E59BE00E940A5C60E085E59BE0E5
:104680000E940A5C60E085E59BE00E940A5C67E0AE
:1046900085E59BE00E940A5C60E085E59BE00E9466
:1046A0000A5C60E085E59BE00E940A5C85E59BE092
:1046B0000E94BF5F16C0019789F483E00E948D427B
:1046C00083FD0CC00E940A4483E00E948D42682F43
:1046D000686083E00E94D3430E94ED4380E00E9423
:1046E00019680E94ED438BE490E00E94F274182F49
:1046F0008F3F09F410E0812F0E9419688823E9F0A8
:10470000812F90E0A0E0B0E089839A83AB83BC83E3
:104710008AE090E09E838D8367ED74E08CE699E0FB
:104720000E94F733B3018CE699E00E9425540E9461
:104730006E338CE699E00E94506160E08FE00E9449
:1047400098316DEB74E08CE699E00E94F7338CE6CB
:1047500099E00E9450618091680A9091690A8130C5
:10476000910581F068F00297B1F460E088E20E9460
:10477000D34387E20E948D42682F6F7787E209C09A
:1047800063E106C087E00E948D42887F682F6364E2
:1047900087E00E94D34380E090E89093B20A809330
:1047A000B10A80E091E0980F903111F0892FFACF93
:1047B0008093B30A81E090E0A0E0B0E08093C0066F
:1047C0009093C106A093C206B093C3061092BD0693
:1047D00080E091E0A0E0B0E08093B8069093B90645
:1047E000A093BA06B093BB0619821A821B821C8260
:1047F0008D839E83AF83B887CE0101960E9488384F
:1048000088E0FE013196A9EABAE001900D928A95FE
:10481000E1F71092700087B3876087BB91E09093B7
:10482000B40A1092870A1092840A1092830A109296
:10483000800A10927F0A1092880A1092860A1092BB
:10484000850A1092820A1092810A2FB7F89410926A
:10485000C8061092C9061092CA061092CB06109292
:10486000C4061092C5061092C6061092C706109292
:10487000B6008091B60080648093B6008091B60047
:1048800080628093B6001092B0001092B100109236
:10489000B2001092B3001092B4001092B000909346
:1048A000B1008091B6008F71E1F787B3876087BB55
:1048B00081E0809370002FBF6EEA74E08CE699E08F
:1048C0000E94F73360E070E88CE699E00E94C940EE
:1048D00064E373E08CE699E00E94F533C35ADD4F40
:1048E000188219821A821B82CD55D240CF59DD4FD2
:1048F000188219821A821B82C156D240CE01855C71
:104900009D4F0E94FC42882321F1CE01855C9D4F82
:104910000E94144BC35ADD4F688379838A839B833B
:10492000CD55D240CE01835A9D4F0E948838CE018A
:10493000835A9D4F0E94F34588E0FE01E35AFD4FE4
:10494000ADEEBAE001900D928A95E1F76AE874E065
:1049500002C064E674E08CE699E00E94F7338CE6CE
:1049600099E00E94506180911804823009F0CAC415
:10497000A89546E050E060E770E0CE0181579D4F7A
:104980000E94E27444E050E060E570E0CE018B5696
:104990009D4F0E94E274BE016B567D4FCE0187573A
:1049A0009D4F0E942E6244E050E060EC70E0CE012A
:1049B0008B569D4F0E94E274BE016B567D4FCE0117
:1049C0008D579D4F0E942E6244E050E064EC70E0F1
:1049D000CE018B569D4F0E94E274BE016B567D4FF7
:1049E000CE0183589D4F0E942E6288E892E0C75DF9
:1049F000DD4F99838883C952D240C55DDD4F18824F
:104A000019821A821B82CB52D240C15DDD4F99833D
:104A10008883CF52D240CF5CDD4F188219821A8230
:104A20001B82C153D240CB5CDD4F99838883C55331
:104A3000D240C95CDD4F188219821A821B82C7538B
:104A4000D240FE01E75DFD4F7F0108EC10E044E03D
:104A500050E0B801CE018B569D4F0E94E274BE011A
:104A60006B567D4FCE0101960E942E628B819C81F8
:104A7000AD81BE81F70182839383A483B5830C5FEC
:104A80001F4FF6E0EF0EF11C043D110501F744E065
:104A900050E064E570E0CE018B569D4F0E94E274B9
:104AA000BE016B567D4FCE0189589D4F0E942E62EC
:104AB00088E590E00E9400755C018AE590E00E9424
:104AC00000754C0140E450E060E870E0CE010196D2
:104AD0000E94E27465EC73E08CE699E00E94F73383
:104AE0008E0101571D4F712C90E1E92EF12C6801C8
:104AF000F8018081803128F460E38CE699E00E941F
:104B0000A6330F5F1F4FF601808190E0A0E0B0E078
:104B1000CF5FDD4F88839983AA83BB83C150D24086
:104B2000CB5FDD4FF982E882C550D240BE016F5F96
:104B30007D4F8CE699E00E9425547394F6E07F1631
:104B400031F06AE38CE699E00E94A633D0CF8CE680
:104B500099E00E946E336401CE0189589D4F7C011B
:104B60008E01075D1D4F9E0123583D4FAE014D57ED
:104B70005D4FB50142960E94155761EB73E08CE6DC
:104B800099E00E94F733BE016F5F7F4F8CE699E09A
:104B90000E94F5338CE699E00E946E33A895C557C4
:104BA000DD4F88819981AA81BB81CB58D240892B66
:104BB0008A2B8B2B09F471C060EA73E08CE699E0D4
:104BC0000E94F73388E892E0CF5FDD4F99838883B6
:104BD000C150D240CB57DD4F488159816A817B81DA
:104BE000C558D240CD5FDD4F488359836A837B83AC
:104BF000C350D240CB59DD4F99838883C556D240EC
:104C0000C158DD4F488159816A817B81CF57D2409D
:104C1000C959DD4F488359836A837B83C756D24085
:104C2000C559DD4F99838883CB56D240C55DDD4F92
:104C3000488159816A817B81CB52D240C359DD4F73
:104C4000488359836A837B83CD56D240CF58DD4F4A
:104C500099838883C157D240C557DD4F8881998198
:104C6000AA81BB81CB58D240CD58DD4F8883998330
:104C7000AA83BB83C357D240085211099E012B5906
:104C80003D4FAE0145595D4FBE016F587D4FCE017E
:104C900081579D4F0E945C6714C16EE873E08CE6FB
:104CA00099E00E94F7338CE699E00E945061809170
:104CB0004A06811107C08FE296E00E94BD4781E05D
:104CC00080934A0688EE95E09093100A80930F0A2D
:104CD0000E94FC6626E030E0AE0141575D4F64E083
:104CE00089E090E00E943D6488E892E0CF5FDD4F6C
:104CF00099838883C150D240CD5FDD4F1882C35065
:104D0000D240CC5FDD4F1882C450D240CB5FDD4F24
:104D10001882C550D240CA5FDD4F1882C650D240BB
:104D2000EE24E394B2E0FB2EEC0EFD1E92E0E90EC1
:104D3000F11CC7010E94644900910F0A1091100AEA
:104D4000F80112A213A214A215A216A217A210A66D
:104D500011A612A613A614A615A616AA17AA10AE77
:104D600011AE80E69AEEA0E0B0E082AF93AFA4AFC0
:104D7000B5AFFE9688E893E1A0E0B0E08083918330
:104D8000A283B3836801F8E0CF0ED11C86E0782EB1
:104D9000F601272D11922A95E9F7C8010E94DC66D9
:104DA000FE01E157FD4FD60101900D927A94E1F793
:104DB000F801EA5BFF4F1082C8010E9458658130FC
:104DC000910509F046C060910F0A7091100A625F68
:104DD0007F4FCE018F5F9D4F0E942E62C7010E94C0
:104DE000644960910F0A7091100A6A5E7F4FCE018C
:104DF0008F5F9D4F0E942E62C7010E94744960918F
:104E00000F0A7091100A6E5E7F4FCE018F5F9D4F2B
:104E10000E942E62C7010E946C4960910F0A709136
:104E2000100A625E7F4FCE018F5F9D4F0E942E62FF
:104E3000CD5FDD4F88819981AA81BB81C350D2406B
:104E400080930B0A90930C0AA0930D0AB0930E0A5C
:104E50000EC0892B61F462E873E08CE699E00E9451
:104E6000F7338CE699E00E9450610E94316099E22C
:104E700088E10FB6F894A895809360000FBE9093D8
:104E8000600080910B0A90910C0AA0910D0AB091DC
:104E90000E0ACD5FDD4F88839983AA83BB83C350FD
:104EA000D240C55DDD4F88839983AA83BB83CB52F3
:104EB000D240109200016DE773E08CE699E00E9409
:104EC0001B34A8958981082E000C990B0E94DD7572
:104ED000892B09F4DBC061E773E08CE699E00E945E
:104EE000F733BE016F5F7F4F8CE699E00E94F53388
:104EF0008CE699E00E946E338E0105591D4F88E8BB
:104F000092E0F801918380831282138214821582C9
:104F1000F3E03F2E212C2E01F5EC4F1AFDEF5F0A36
:104F20003C01CC24C394A2E0DA2ECC0EDD1E28E096
:104F3000C20ED11CCE01875D9D4F7C01A895F70163
:104F400082819381A481B5810097A105B10509F4FF
:104F500046C0C959DD4F88839983AA83BB83C7564E
:104F6000D240CF5FDD4F79826882C150D240CD5FA1
:104F7000DD4F188219821A821B82C350D240C601AB
:104F80000E94BD47C959DD4F88819981AA81BB81A3
:104F9000C756D240CD5FDD4F88839983AA83BB83F8
:104FA000C350D240C95FDD4F19821882C750D2402A
:104FB000A801BE016F5F7F4FCE018F5F9D4F0E94A2
:104FC0008954019761F4C359DD4F88819981AA8181
:104FD000BB81CD56D240892B8A2B8B2B41F4F6E036
:104FE000EF0EF11C4E145F0409F0A8CF02C022247A
:104FF00023943A9431109ECF2220B9F188E892E0B0
:10500000CF5FDD4F99838883C150D240F801828100
:105010009381A481B581CD5FDD4F88839983AA8375
:10502000BB83C350D240BE016F5F7F4F8CE699E0D7
:105030000E94F53363E673E08CE699E00E94F73353
:10504000BE016F5F7D4F8CE699E00E941057F8011A
:1050500082819381A481B581C758DD4F888399836C
:10506000AA83BB83C957D2400DC063E573E08CE6C9
:1050700099E00E94F733BE016F5F7F4F8CE699E0A5
:105080000E94F5338CE699E00E946E33C758DD4FDD
:1050900088819981AA81BB81C957D240892B8A2BEB
:1050A0008B2B09F07DC008E812E0CF5FDD4F19833C
:1050B0000883C150D240CD5FDD4F188219821A8219
:1050C0001B82C350D24041E052E04C0F5D1F4E5F47
:1050D0005F4F24E030E060E08FE090E00E94D36317
:1050E000CD5FDD4FC880D980EA80FB80C350D240BD
:1050F000CB59DD4F19830883C556D240C959DD4FBE
:10510000188219821A821B82C756D24045E652E0A5
:105110004C0F5D1F4E5F5F4F24E030E060E085E0A4
:1051200090E00E94D363C959DD4F88819981AA819B
:10513000BB81C756D24080959095A095B0958C299B
:105140009D29AE29BF29C758DD4F88839983AA833B
:10515000BB83C957D24028E730E030931D1020931D
:105160001C10CF5FDD4F19830883C150D240CD5F43
:10517000DD4F88839983AA83BB83C350D24060E20A
:1051800073E08CE699E00E94F733BE016F5F7D4FBC
:105190008CE699E00E9410578CE699E00E946E33ED
:1051A0006EE073E08CE699E00E94F733E8E86E2E3B
:1051B000E2E07E2ECF5FDD4F79826882C150D2401F
:1051C000CD5FDD4F188219821A821B82C350D240F4
:1051D00041E052E04C0F5D1F4E5F5F4F24E030E036
:1051E00060E081E090E00E94D363CB59DD4F79828B
:1051F0006882C556D240C959DD4F188219821A8279
:105200001B82C756D24045E652E04C0F5D1F4E5FF1
:105210005F4F24E030E060E085E090E00E94D363DF
:10522000C559DD4F79826882CB56D240C359DD4FD4
:10523000188219821A821B82CD56D2404BE652E068
:105240004C0F5D1F4E5F5F4F24E030E060E08FE069
:1052500090E00E94D3636401CE0189589D4F7C0188
:105260008E01075D1D4F9E012F5F3D4FAE014B59D3
:105270005D4FB5010C970E9415578CE699E00E948E
:105280005061CF5FDD4F79826882C150D240C758EC
:10529000DD4F88819981AA81BB81C957D240CD5FFA
:1052A000DD4F88839983AA83BB83C350D240A40176
:1052B000BE016F5F7D4FC5010E946C580E94FA626B
:1052C0008EE190E19093060B8093050B81E0809333
:1052D000320419821A821B821C8280E098E0A0E0CE
:1052E000B0E08D839E83AF83B887CE0101960E9484
:1052F000883888E0FE013196A5ECBAE001900D9265
:105300008A95E1F782E490E00E9400759C012150AB
:1053100031092E3F3F4F38F5AC015F7064E0569580
:1053200047956A95E1F760E070E049835A836B83A3
:105330007C838F709927982F8827990F990F990F41
:10534000A0E0B0E08D839E83AF83B887CE01019645
:105350000E94883888E0FE013196ADECBAE00190F9
:105360000D928A95E1F765EC7AE08DEC9AE00E9467
:105370003238882321F088E0E5ECFAE00BC06DECD0
:105380007AE08DEB9AE00E943238882349F088E079
:10539000EDEBFAE0ADECBAE001900D928A95E1F701
:1053A000C090D10AD090D20AE090D30AF090D40AEB
:1053B0008090CD0A9090CE0AA090CF0AB090D00AEB
:1053C0006CE474E08CE699E00E94F7332AE030E068
:1053D000B501A4018CE699E00E94AD3366EC72E061
:1053E0008CE699E00E94F5332AE030E0B701A6018F
:1053F0008CE699E00E94AD338CE699E00E946E3312
:105400008CE699E00E94506161E08DE00E94983145
:1054100060E08DE00E94F32C03E011E01093270B75
:105420000093260B80E1F82EF092250B8BEB9DE488
:105430009093660A8093650A83E59CE59093620ADF
:105440008093610A8DE39CE59093640A8093630ADC
:1054500065E374E08CE699E00E941B348CE699E0E9
:105460000E94506189E198E090933D0B80933C0B42
:1054700080E590E090933F0B80933E0B88E29BE0A9
:105480009093410B8093400B85E090E09093430B09
:105490008093420B8FE69CE59093450B8093440BE1
:1054A00089E69CE59093470B8093460B0E94066823
:1054B000CE01835A9D4F0E945644CE01875D9D4F79
:1054C0000E94363DCA5CDD4F19830883C653D24023
:1054D000CB5CDD4FF882C553D240CF59DD4F888178
:1054E0009981C156D240C35ADD4F488159816A81A2
:1054F0007B81CD55D240C35DDD4F488359836A839C
:105500007B83CD52D240CF5CDD4F99838883C153DA
:10551000D240BE016F5F7F4FCE01875D9D4F0E94DD
:10552000453E20E031E040E053E060E072E0CE0133
:1055300001960E94976720E030E040E052E0BE0113
:105540006F5F7F4FCE01875D9D4F0E94963E6D81BC
:1055500070E0762F66278E81680F711DCE0101964F
:105560000E940640CA5CDD4F19830883C653D240AF
:10557000CB5CDD4FF882C553D240CF59DD4F8881D7
:105580009981C156D240C35ADD4F488159816A8101
:105590007B81CD55D240C35DDD4F488359836A83FB
:1055A0007B83CD52D240CF5CDD4F99838883C1533A
:1055B000D240BE016F5F7F4FCE01875D9D4F0E943D
:1055C000453E20E031E040E052E060E072E0CE0194
:1055D00001960E94976720E030E040E052E0BE0173
:1055E0006F5F7F4FCE01875D9D4F0E94963E6D811C
:1055F00070E0762F66278E81680F711DCE010196AF
:105600000E940640CA5CDD4F19830883C653D2400E
:10561000CB5CDD4FF882C553D240CF59DD4F888136
:105620009981C156D240C35ADD4F488159816A8160
:105630007B81CD55D240C35DDD4F488359836A835A
:105640007B83CD52D240CF5CDD4F99838883C15399
:10565000D240BE016F5F7F4FCE01875D9D4F0E949C
:10566000453E20E031E040E051E060E072E0CE01F4
:1056700001960E94976720E030E040E052E0BE01D2
:105680006F5F7F4FCE01875D9D4F0E94963E6D817B
:1056900070E0762F66278E81680F711DCE0101960E
:1056A0000E940640CA5CDD4F19830883C653D2406E
:1056B000CB5CDD4FF882C553D240CF59DD4F888196
:1056C0009981C156D240C35ADD4F488159816A81C0
:1056D0007B81CD55D240C35DDD4F488359836A83BA
:1056E0007B83CD52D240CF5CDD4F99838883C153F9
:1056F000D240BE016F5F7F4FCE01875D9D4F0E94FC
:10570000453E20E031E040E050E060E072E0CE0154
:1057100001960E94976720E030E040E052E0BE0131
:105720006F5F7F4FCE01875D9D4F0E94963E6D81DA
:1057300070E0762F66278E81680F711DCE0101966D
:105740000E940640CA5CDD4F19830883C653D240CD
:10575000CB5CDD4FF882C553D240CF59DD4F8881F5
:105760009981C156D240C35ADD4F488159816A811F
:105770007B81CD55D240C35DDD4F488359836A8319
:105780007B83CD52D240CF5CDD4F99838883C15358
:10579000D240BE016F5F7F4FCE01875D9D4F0E945B
:1057A000453E80913A04CB59DD4F8883C556D2409F
:1057B0009E012B593D4F47E060E072E0CE0101961B
:1057C0000E94324100E02BE231E04DE060E072E007
:1057D000CE0101960E946C414DE154E0BE016F5F25
:1057E0007F4FCE01875D9D4F0E94EB4148E250E024
:1057F00060E174E0CE018F5F9D4F0E94CB7160919C
:10580000A7067091A80648E250E0CE018F5F9D4F39
:105810000E94AC719E012F5F3D4F40E260E072E05C
:10582000CE0101960E946C414FEF53E0BE016F5FC5
:105830007F4FCE01875D9D4F0E94EB414DE656E0C4
:10584000BE016F5F7F4FCE01875D9D4F0E94EB4190
:1058500048E256E0BE016F5F7F4FCE01875D9D4FEE
:105860000E94EB4120E030E040E052E0BE016F5F7B
:105870007F4FCE01875D9D4F0E94963E6D8170E007
:10588000762F66278E81680F711DCE0101960E94CA
:10589000064069EE73E08CE699E00E94F7338CE6EF
:1058A00099E00E946E330E94EB536EED73E08CE63C
:1058B00099E00E94F7338CE699E00E946E33C5555B
:1058C000DD4F0FB6F894DEBF0FBECDBFDF91CF9195
:1058D0001F910F91FF90EF90DF90CF90BF90AF900E
:1058E0009F908F907F906F905F904F903F902F9000
:1058F0000895F7011082CA55DD4F1882C65AD2406A
:105900000C94951F08950E94D675BF92CF92DF9296
:10591000EF92FF920F931F93CF93DF93EB010097CA
:1059200019F480E090E02EC07C0100E010E06701F7
:10593000F701B1907F01FCE2BF16A1F08B2D0E9410
:10594000B84981111CC0209759F0C8010196063052
:10595000110514F08C0104C0B88221968C01E7CFA8
:10596000C801FCCF209741F0063011050CF41882D5
:10597000F60180818C32A9F6C601019603C02097FA
:1059800099F7CFCFDF91CF911F910F91FF90EF90BB
:10599000DF90CF90BF900895CF93DF93FC012081DB
:1059A0002C32E9F0EC0162E00E94A14980935B0A8D
:1059B00062E0CE0102960E94A14980935C0A62E0F7
:1059C000CE0104960E94A14980935D0A62E0CE0157
:1059D00007960E94A14980935E0ACE010996DF9145
:1059E000CF910C94C649362F90E0FC01EB58F84F4C
:1059F0004491FC01E454F44F2491FC01E452F44F2F
:105A00008491882309F444C0442371F150E0FA01E1
:105A10003197EA30F10540F5EA5BFF4F0C94BF7512
:105A2000909180009F7703C0909180009F7D90931C
:105A300080001AC094B59F7702C094B59F7D94BD35
:105A400013C09091B0009F7703C09091B0009F7DEC
:105A50009093B00009C0909190009F7703C09091FF
:105A600090009F7D90939000E82FF0E0EE0FFF1FD5
:105A7000E559F84FA591B4919FB7F894311104C03E
:105A80008C912095282302C0EC912E2B2C939FBF44
:105A900008952F923F924F925F926F927F928F92D2
:105AA0009F92AF92BF92CF92DF92EF92FF920F93AD
:105AB0001F93CF93DF93CDB7DEB762970FB6F894FD
:105AC000DEBF0FBECDBFE091790BF0917A0B31971D
:105AD000EC30F10508F013C4E05BFF4F0C94BF7588
