:100000000C94FB040C942A050C942A050C942A05E4
:100010000C942A050C942A050C942A050C942A05A4
:100020000C942A050C949B3A0C94C73A0C94543DBA
:100030000C942A050C942A050C942A050C942A0584
:100040000C942A050C942A050C94A6650C942A0598
:100050000C94E5680C941B690C942A050C942A05F1
:100060000C942A050C942A050C94F3260C942A056A
:100070000C9492690C94C8690C942A050C942A0576
:100080000C942A050C942A050C942A053D10F512AF
:10009000F512480FAE10F512BA10F5121D118912A3
:1000A0009712C712E912AE35EC3503363E36763676
:1000B0009936D7363337E266E566D866DC66FC6685
:1000C000FC66E966ED66F366F7664552524F523AB2
:1000D00020756E6B6E6F776E20636F6D6D616E64F1
:1000E0003A202700270A00766572626F7369747977
:1000F0003A00766572626F736974790073616D702E
:100100006C696E67496E74657276616C5F313674C6
:10011000685F73005245424F4F543D7472756500DD
:10012000656570726F6D57726974653D00656570C5
:10013000726F6D526561643D005061636B65742040
:1001400076616C69642062757420696E636F727287
:1001500065637420726573706F6E7365002323236B
:10016000232323232323232323232323232323235F
:1001700023232300546F6F206D616E7920726574A4
:10018000726965733A20004157414B45210A00537B
:100190004C454550210A007320776974686F757467
:1001A000206D6573672061636B2C207265626F6FD1
:1001B00074696E670A00476F6E652000536574208E
:1001C000485720636C6F636B00454550524F4D207C
:1001D000636F6E74656E7473206C656E6774683AD5
:1001E0002000486561646572206C656E6774683ACA
:1001F00020006D6167446174615B005D3A200048D6
:10020000756D69646974793A20000A416D626965A7
:100210006E743A20000A4F626A65637420323A2095
:10022000004D4C582074656D703A20000A4F626A88
:1002300065637420313A2000537570706C792076B4
:100240006F6C746167653A20000A464C4331303068
:100250002074656D702E3A200054696D6573746169
:100260006D703A20000A53797374656D2074656D62
:10027000702E3A20002D2D2D2D0A53616D706C6962
:100280006E6720737461727465640A0053657475D7
:100290007020636F6D706C6574650053616D706C78
:1002A000696E6720696E74657276616C20287329A7
:1002B0003A2000436F756C64206E6F74206765741C
:1002C0002074696D652066726F6D20686172647755
:1002D000617265205254430A005365742073797328
:1002E00074656D20636C6F636B2066726F6D206840
:1002F00061726477617265205254430A00537973C6
:1003000074656D20636C6F636B3A2000436F6E669B
:1003100069677572696E672073797374656D2063A0
:100320006C6F636B0A004D4350373934317820636A
:10033000616C6962726174696F6E3A20004E6F2061
:1003400052544320666F756E640A00466F756E6482
:100350002052544320617420616464726573732079
:100360003078004175746F70726F62696E672074C7
:100370006F2066696E64205254430A00484948362B
:10038000317878004D4C583930363134006D656124
:100390006E0A006D656469616E0A007472696D6D44
:1003A000656420006E756D53616D706C65733A20E5
:1003B000000A6167677265676174653A20004144AD
:1003C000435B005D3A204F78002063682E200020B8
:1003D0006D697373696E670A002070726573656E6C
:1003E000740A00464C433130300020706F776572DC
:1003F0002D75702064656C617920286D73293A2011
:10040000002070726573656E7400206E6F74004911
:100410006E697469616C6973696E672000484D414B
:1004200043206B65793A200046616E2068797374C9
:100430002E3A200046616E2074656D702E3A2000C1
:100440000A4669726D776172653A204D6167436C47
:100450006F75642D302E3238610A465F4350553A2D
:1004600020384D487A0A436F6D6D733A20585246D2
:100470002057353130300A46656174757265733ABC
:1004800020464C43313030204849483631585820B6
:100490004D4C5839303631340A005243206F736363
:1004A0002E3A20000A434B53454C3A20000A4D4354
:1004B0005553523A20004C6F7720667573653A2089
:1004C000000A4869676820667573653A20000A4526
:1004D0007874656E64656420667573653A20006D96
:1004E00061696E7461696E2072657475726E65649F
:1004F0002000726562696E640072656E657765647E
:10050000006661696C65642C207265626F6F746946
:100510006E67006F6B0044484350206C65617365E3
:1005200020004163746976652073657474696E6731
:10053000733A0A004E6F2072656D6F746520686FA4
:1005400073742C20747279696E6720666F72203123
:1005500032307320746F20636F6D6D756E696361E7
:10056000746520746F200043616E6E6F7420726535
:10057000736F6C76652000207265736F6C7665739F
:1005800020746F200044484350206661696C6564A4
:100590002C207265626F6F74696E672E2E2E0A00B2
:1005A00052657175657374696E672049500A00550C
:1005B00073696E67207374617469632049500A001F
:1005C000202052656D6F746520686F73746E616D65
:1005D000653A2000454550524F4D2073657474694B
:1005E0006E67733A0A20204D41433A20000A2020CA
:1005F00052656D6F74653A2000286E6F6E65290034
:1006000020204C6F63616C3A20000A20204D6173FA
:100610006B3A20000A202047573A20000A20204445
:100620004E533A2000496E7374616C6C204657201B
:10063000726573756C743A20004669726D776172E9
:1006400065204352433A20000A446F776E6C6F6115
:1006500064204352433A20000A435243207374619A
:100660007475733A2000636F7069656420706172FD
:100670007469616C2073706D427566666572207472
:100680006F20666C6173683A20004669726D77610D
:10069000726520646F776E6C6F616420666F722084
:1006A0000020636F6D706C657465640A00636F7021
:1006B0006965642073706D42756666657220746F3B
:1006C00020666C6173683A2000457261736564202E
:1006D00074656D706F72617279206170706C69639E
:1006E0006174696F6E206172656120696E20666C4D
:1006F000617368200050726F63657373696E672061
:100700004657207570677261646520005570677286
:10071000616465206669726D7761726520746F200F
:1007200000416C7265616479206861766520666954
:10073000726D776172652076657273696F6E2000E5
:10074000526563656976656420757067726164657A
:10075000206669726D77617265207461673A200066
:1007600053414D504C494E4720494E5445525641F5
:100770004C204348414E4745442120005365727642
:1007800065722074696D653A20000A4F7572207495
:10079000696D653A20000A54696D65206572726F53
:1007A0007220286F75722D736572766572293A20F2
:1007B0000054696D65207365742066726F6D2073D7
:1007C00065727665720A003D3D3D3D0A003D3D3D46
:1007D0003D0A526573706F6E73653A0A0078A46AB9
:1007E000D756B7C7E8DB702024EECEBDC1AF0F7C73
:1007F000F52AC68747134630A8019546FDD898804C
:1008000069AFF7448BB15BFFFFBED75C89221190C3
:100810006B937198FD8E4379A62108B44962251E19
:10082000F640B340C0515A5E26AAC7B6E95D102F04
:10083000D65314440281E6A1D8C8FBD3E7E6CDE144
:1008400021D60737C3870DD5F4ED145A4505E9E3E2
:10085000A9F8A3EFFCD9026F678A4C2A8D4239FAB6
:10086000FF81F6718722619D6D0C38E5FD44EABE7B
:10087000A4A9CFDE4B604BBBF670BCBFBEC67E9B4F
:1008800028FA27A1EA8530EFD4051D880439D0D491
:10089000D9E599DBE6F87CA21F6556ACC444222951
:1008A000F497FF2A43A72394AB39A093FCC3595B69
:1008B0006592CC0C8F7DF4EFFFD15D84854F7EA8CF
:1008C0006FE0E62CFE144301A3A111084E827E5373
:1008D000F735F23ABDBBD2D72A91D386EB415441CA
:1008E000430D4154444E0D004368616E6E656C20AB
:1008F0006E756D6265723A20004154434E2000418E
:100900005452450D4154534D20320D002B2B2B00DA
:1009100054696D656F75742077616974696E6720BD
:10092000666F722058524620746F20706F77657220
:10093000206F6E0054696D656F75742077616974FE
:10094000696E6720666F722058524620746F20725D
:1009500065736574000000000000000001080302D8
:1009600000090A0000000000000000040700000069
:1009700000000000000102040801020408402010E9
:100980002040808040201008040201108080402018
:100990001008040201040404040202020204040216
:1009A000020202030303030303030304040101011E
:1009B00001010101010000200023002600290000A0
:1009C000002200250028002B000000210024002721
:1009D000002A0000B20B390E09267C387E40CA4836
:1009E000794B79511757B95BC75BD25B325EB56300
:1009F0004F69FC69B46A11241FBECFEFD0E4DEBF9B
:100A0000CDBF13E0A0E0B1E0EEE1FFED00E00BBFF1
:100A100002C007900D92A43CB107D9F72EE2A4ECD6
:100A2000B3E001C01D92AF31B207E1F719E0C6EFA4
:100A3000D9E000E006C022970109FE010BBF0E9429
:100A4000736DC43DD10780E00807A9F70E94A96C27
:100A50000C948D6F0C9400000F931F93CF93DF9332
:100A6000DB01ED018C01222717FD2095322F2BBFD2
:100A7000F8010791002331F011962881201309C055
:100A80000196EFCF4115510531F0FA01B183A083F2
:100A900002C080E001C081E0DF91CF911F910F91F2
:100AA0000895EF92FF920F931F93CF93DF93EC0182
:100AB0008B017A0163E571E00E94246BE00EF11E68
:100AC000011580E1180738F50E151F0521F165E6BF
:100AD00071E0CE010E94246BA80160E070E020E18B
:100AE00030E0CE010E94B86B63E671E0CE010E9457
:100AF000246BC8010E946A6F482F50E060E070E0EC
:100B000020E130E0CE010E94B86BCE010E94376B2D
:100B10000F5F1F4FD5CFCE01DF91CF911F910F9166
:100B2000FF90EF9008952F923F924F925F926F92B5
:100B30007F928F929F92AF92BF92CF92DF92EF926D
:100B4000FF920F931F93CF93DF93CDB7DEB72F970D
:100B50000FB6F894DEBF0FBECDBF6C017B01805B8A
:100B60009F4F9E878D87D701ED91FC910480F58181
:100B7000E02DC7010995892B09F4F7C1D701ED9143
:100B8000FC910680F781E02DC7010995482F8D3033
:100B900019F08A3009F0B5C1ED85FE8520813181DB
:100BA000C216D30608F0ADC1AE01455F5F4FB60176
:100BB0008DE291E00E942C05882309F44BC040E0AF
:100BC00050E0BE016F5F7F4F8B859C850E94D26D88
:100BD0002B013C016115F0E17F078105910508F0CB
:100BE000B4C1E981FA812B853C85E217F30709F44A
:100BF000ACC120812C3209F0A8C1CF0101969A83A3
:100C000089839C878B8740E050E0BE016F5F7F4FF8
:100C10000E94D26D16161706180619060CF095C11B
:100C200093018201060F171F281F391F011510415C
:100C3000210531050CF089C1E981FA812B853C85BC
:100C4000E217F30709F481C1208121117EC1AB01B4
:100C5000B20177C1AE01455F5F4FB60180E291E01E
:100C60000E942C05882309F452C040E050E0BE01E8
:100C70006F5F7F4F8B859C850E94D26D4B015C011D
:100C8000E981FA818B859C85E817F907E9F1808174
:100C90008C32D1F52401350112018201081919099C
:100CA000411490E1590661047104A0F489819A818C
:100CB00001969A8389839C878B8740E050E0BE0130
:100CC0006F5F7F4F0E94D26D6F3F71058105910567
:100CD00031F028F0B201601B710BA80132C1E9812B
:100CE000FA812B853C85E217F307A1F320812C3292
:100CF00011F02111EFCFC1010E94786F8FEF481AD8
:100D0000580A680A780AC8CF68E671E020C1AE01C7
:100D1000455F5F4FB60184E191E00E942C05882376
:100D200091F06BE871E0C7010E94246BC7010E943B
:100D3000376BD701ED91FC910284F385E02DC7015B
:100D400009950E94CD24AE01455F5F4FB6018CEF3F
:100D500090E00E942C05882309F47EC0EB85FC8579
:100D6000CF0101969C878B8720812D3309F045C0E8
:100D700040E050E0BE01675F7F4F0E94D26D1616C3
:100D8000170618061906CCF5E985FA852B853C85EA
:100D9000E217F30791F1208121112FC08B019C01F3
:100DA0000F701127222733274BE0000F111F221F3E
:100DB000331F4A95D1F7AB01BC01407F66277727E7
:100DC000E4E07595679557954795EA95D1F7CE017B
:100DD00001960E94073C6BEF74E0CE0101960E94E1
:100DE000283D81110AC0BE016F5F7F4F83EF94E001
:100DF0000E94283D882309F4AEC04090030550901E
:100E00000405609005057090060584E0440C551CAF
:100E1000661C771C8A95D1F780910705909108058B
:100E2000A0910905B0910A052BE0B595A795979576
:100E300087952A95D1F7480E591E6A1E7B1E69E9CF
:100E400071E0C7010E94246B2AE030E0B301A201E7
:100E5000C7010E94B86B39C0AE01455F5F4FB60154
:100E600082EF90E00E942C05882399F1EB85FC85A8
:100E7000CF0101969C878B8720812D33C9F440E0F8
:100E800050E0BE016F5F7F4F0E94D26D6F3F7105D2
:100E90008105910509F060F4E981FA812B853C8593
:100EA000E217F30729F02081211102C06093892AFB
:100EB0001091892A67EE70E0C7010E94016B4AE039
:100EC00050E0612FC7010E94176CC7010E94376B69
:100ED0000EC06AEC70E0C7010E94016BB601C70149
:100EE0000E94246B64EE70E0C7010E94016BF60162
:100EF00040E511924A95E9F7AD85BE85CD92DC9229
:100F000032CEED85FE850081118198012C193D09B5
:100F1000203531050CF027CE842F992787FD909539
:100F20004F870E94086F4F85892B09F41CCE9801CA
:100F30002F5F3F4FAD85BE852D933C93F8014083D5
:100F400012CEC7010E945105D2CF62EB71E0C701FA
:100F50000E94246BCCCFFE013196A3E0B5E088E07F
:100F600001900D928A95E1F748CF2F960FB6F8942D
:100F7000DEBF0FBECDBFDF91CF911F910F91FF90CC
:100F8000EF90DF90CF90BF90AF909F908F907F9029
:100F90006F905F904F903F902F9008950F931F9305
:100FA000CF93DF93EC01CB018A01BE01685F7F4FD5
:100FB00044E00E947A2DBE01645F7F4F42E0C80189
:100FC000DF91CF911F910F910C947A2DEF92FF92A8
:100FD0000F931F93CF93DF9300D0CDB7DEB77C0183
:100FE0008B01413082E0580788F064ED71E0809118
:100FF00026029091270249835A830E944D6B81E01B
:1010000090E0F701918380835A814981B801C7013B
:101010008E5D9D4F0E944965F70111821082E65F47
:10102000FD4F80819181049711F4118210820F90FD
:101030000F90DF91CF911F910F91FF90EF90089546
:101040002F923F924F925F926F927F928F929F92D8
:10105000AF92BF92CF92DF92EF92FF920F931F93C6
:10106000CF93DF93CDB7DEB762970FB6F894DEBFAC
:101070000FBECDBF362E272E4A01FA01C080D18087
:10108000A62EB72E10E09C01245D3D4F3A8B298B94
:101090002C0133ED431A3DEF530A3E0141E1640E4A
:1010A000711CC114D10419F160E0262F30E0C60193
:1010B000E3E0CE16D10410F082E090E02817390763
:1010C00090F4F501E20FF31F408150E0F901E25185
:1010D000FD4F8081992787FD90954817590709F0A2
:1010E00059C06F5FE2CF32E0C316D10410F480E044
:1010F0005EC0F4E0CF16D10408F43FC0F50183814F
:1011000080FF4DC0F6E0CF16D104B8F1F50124817F
:1011100030E0322F22278581280F311DC216D306D9
:1011200060F1E989FA8940817901F8E0EF1AF0EE7F
:10113000FF0A83E0EE0CFF1C8A95E1F700E010E067
:1011400028E0429FA0011124F20160817181950184
:10115000CE0101960E942428DE011996F6013897E7
:10116000EA0DFB1D81E02D919191291380E0A615D8
:10117000B705C9F711E0882391F0F40180819181CE
:10118000C816D90699F0A601B501832D922D0E94AB
:101190002C6F0CC042E0C416D10408F4A8CFFFEFB6
:1011A000AF1ABF0A21E0C21AD1087BCF812F629605
:1011B0000FB6F894DEBF0FBECDBFDF91CF911F9168
:1011C0000F91FF90EF90DF90CF90BF90AF909F90E6
:1011D0008F907F906F905F904F903F902F900895E9
:1011E0004F925F926F927F928F929F92AF92BF9237
:1011F000CF92DF92EF92FF920F931F93CF93DF93E3
:10120000CDB7DEB767970FB6F894DEBF0FBECDBF80
:101210008C017B013A016C0124EFC21A2DEFD20A36
:10122000D6018D919C91009741F484E090E0F80103
:101230009183808380E090E07EC2D8011D921C9251
:10124000DC01ED91FC910288F389E02D09955801AC
:10125000B6EFAB1ABDEFBB0AF501808191818130F9
:10126000910509F45AC01CF4892B49F062C28230FE
:10127000910509F463C0039709F4F6C05AC27801D6
:10128000FEEDEF1AFDEFFF0AC7010E9423658111F1
:1012900050C240E052E0B8016E5F7F4FC7010E942C
:1012A00065659C01780182E0E80EF81ED7012D9358
:1012B0003C932115310509F43CC2F801EC5FFD4F68
:1012C0001182108281E090E0F50191838083E091AA
:1012D000EC28F091ED28309709F42BC2C901BF0129
:1012E0000E94D46C882309F424C2AF01481B510921
:1012F0006A01C20ED31EF1E0CF16F2E0DF0608F05D
:1013000018C2C901029660E070E0800F911F0E9430
:101310003E6FD701CD92DC920CC2F60180819181A3
:10132000DC01ED91FC910484F585E02D099588237D
:1013300009F4FFC182E090E0F501F9C17801FCEF0A
:10134000EF1AFDEFFF0AD7018D919C91F801EE5F36
:10135000FD4F4F01892B71F48091892A8A3051F415
:10136000409126025091270260817181C801029646
:101370000E940A2ED7018D919C91892B51F4F60180
:1013800080819181DC01ED91FC910488F589E02D4B
:101390000995F60180819181DC01ED91FC91008C31
:1013A000F18DE02D0995009719F4F4018081918168
:1013B000F601A081B1812D913C911197F7016081D7
:1013C00071816E5F7F4F600F711FF9012281338140
:1013D000AC01CD01F9010995D7012D913C911197EF
:1013E000280F391F2D933C93F40180819181281798
:1013F000390709F09EC1D6018D919C91DC01ED91D8
:10140000FC910688F789E02D0995F801EA5FFD4F08
:10141000118210827801B2EFEB1ABDEFFB0A80ED6A
:1014200097E0A0E0B0E0F70180839183A283B383CB
:1014300081E090E0918780870E94F065D7014D9010
:101440005D906D907C90640D751D861D971DF70154
:10145000648375838683978336978FEF9FEF91839D
:10146000808383E090E07DC04801B2EF8B1ABDEF2E
:101470009B0AF40180859185892B51F40E94FC65BB
:10148000D40114962D913D914D915C91179707C011
:101490000E94F065F4012481358146815781621BE9
:1014A000730B840B950B60957095809590956627CE
:1014B00097FD6395772788279927662309F455C0F8
:1014C000C0902602D090270265EE71E0C6010E940E
:1014D0004D6B82E090E0D8018D939D937D01480192
:1014E000B2E08B0E9B1EF4014081B701CE01019644
:1014F0000E94012F8C85823038F58F5F8C87F80130
:10150000E45DFD4F20813196808191819F878E8798
:101510002D8720E030E040E052E0B701CE01019697
:101520000E941432D4011D921C92F801468150E0B1
:10153000542F44278781480F511DB701C8018E5D84
:101540009D4F0E9449650BC064E771E0C6010E948F
:10155000016BA60160E072E0C7010E940A2E84E0E0
:1015600090E0D5018D939C93E4C0F6018081918138
:10157000DC01ED91FC91028CF38DE02D0995F601D3
:1015800080819181DC01ED91FC910480F581E02D59
:1015900009952C01009709F4CCC04801BAEF8B1AC9
:1015A000BDEF9B0AF401808191818615970560F05B
:1015B00081E090E0D8018D939C9334971182108242
:1015C000F50111821082B5C0D6018D919C91DC018C
:1015D000ED91FC910680F781E02D0995F4012081C1
:1015E0003181A9014F5F5F4F51834083F701E20FC3
:1015F000F31F8083F1E04F1A510831F7A401B701BE
:10160000C8010E942008882309F493C0680122E0E1
:10161000C20ED11CAE014A5E5F4FBE01605F7F4FBC
:10162000C6010E94CE07AE014C5E5F4FBE016F5FE8
:101630007F4FC7010E94CE07D70116962C911697AF
:1016400030E0322F222717968C91280F311DF80198
:10165000808590E0982F88274185840F911D281759
:10166000390709F042C0488959896A897B8989818B
:101670009A81AB81BC81481759076A077B07A9F596
:101680002E893F898C899D892817390771F5D701E3
:1016900014962C91149730E0322F222715968C91B6
:1016A000280F311D868190E0982F88274781840F6D
:1016B000911D2E0D3F1DD9011A978C0D9D1DFC010A
:1016C0003A975C914081541310C0119631962C9139
:1016D000808128130AC0F801EE5FFD4F118210824D
:1016E000F5011182108281E025C0C0902602D090C1
:1016F00027026DE571E0C6010E943B6B69E371E072
:10170000C6010E943B6BD4016D917C91A601C7017B
:101710000E940A2E6DE571E0C6010E943B6BF40148
:1017200011821082F801E85FFD4F8FEF9FEF9183E8
:10173000808380E090E067960FB6F894DEBF0FBE1E
:10174000CDBFDF91CF911F910F91FF90EF90DF9070
:10175000CF90BF90AF909F908F907F906F905F9051
:101760004F90089585EF91E09093C5038093C40353
:1017700084ED91E09093C7038093C60385EE91E0DA
:101780009093C9038093C803089581E08093050175
:10179000609304010895CF93DF93EC01FB01248152
:1017A000358140815181628173810E94B86BCE0185
:1017B000DF91CF9108950F931F93CF93DF93EC01A7
:1017C000188219821A821B8281E090E099878887AB
:1017D0000E94F065088119812A813B81600F711F89
:1017E000821F931F6C837D838E839F83DF91CF91B4
:1017F0001F910F91089584B78093D50414BE88E19A
:101800000FB6F89480936000109260000FBE0895A8
:101810000F931F93CF93DF93CDB7DEB728970FB603
:10182000F894DEBF0FBECDBFCE0101960E94F33A01
:1018300080910401882341F0BE016F5F7F4F82E0F9
:101840009CE20E94A13B0CC000E010E020E030E0F0
:10185000AE014F5F5F4F60E082E09CE20E94333A4E
:1018600063E075E0CE0101960E94014000E010E0C7
:1018700025EC3BE0AE014F5F5F4F60E082E09CE211
:101880000E94743E28960FB6F894DEBF0FBECDBFFF
:10189000DF91CF911F910F910895CF93DF9300D0E7
:1018A000CDB7DEB78A830E949D658A819091B6008C
:1018B00091FDFCCF9091B000998348E128E130E0A0
:1018C00059E290910501911133C0F89497B3976054
:1018D00097BB78949091B60091FDFCCF998190933D
:1018E000B0009091B60091FDFCCFF89493B7917F32
:1018F000982B93BF93B7916093BF0FB6F894409322
:101900006000109260000FBE95B7906695BF9F7DF6
:1019100095BF7894889593B79E7F93BF78940FB6C0
:10192000F894A895209360000FBE50936000C9CF33
:101930008091BC008B7E8093BC008091BC00846051
:101940008093BC000F900F90DF91CF910895CF92BC
:10195000DF92EF92FF920F931F93CF93DF93CDB758
:10196000DEB728970FB6F894DEBF0FBECDBF7C015F
:101970006B011092060100E010E0980140E050E099
:10198000BA01CE0101960E94073C88E0FE01319623
:10199000A5E1B5E001900D928A95E1F71092F1046E
:1019A0001092D7041092D60460E0809118010E9432
:1019B00036670BE51DE220E23FE04DED5CE2B6014B
:1019C000C7010E94882D8091892A8A3091F46DEC9C
:1019D00077E08DED9CE20E94016B4DED5CE2B6017B
:1019E000C7010E940A2E67EC77E08DED9CE20E9411
:1019F000016B65EB76E082E09CE20E94A13B2896B9
:101A00000FB6F894DEBF0FBECDBFDF91CF911F910F
:101A10000F91FF90EF90DF90CF900895EF92FF929B
:101A20000F931F93CF93DF93CDB7DEB7A5970FB674
:101A3000F894DEBF0FBECDBF7C018B01CE010196B5
:101A40004CA35DA30E94796ACE0109960E94BA5DFB
:101A500088E10FB6F89480936000109260000FBE8A
:101A6000B701CE0101960E94D7564CA15DA1B801E5
:101A7000CE0101960E94365949E228E130E00FB6C6
:101A8000F894A895209360000FBE40936000A5963F
:101A90000FB6F894DEBF0FBECDBFDF91CF911F917F
:101AA0000F91FF90EF9008952F923F924F925F9287
:101AB0006F927F928F929F92AF92BF92CF92DF925E
:101AC000EF92FF920F931F93CF93DF93CDB7DEB7C3
:101AD00062970FB6F894DEBF0FBECDBF4C013A013E
:101AE00082EB93E09A838983F801228033804480DB
:101AF00055802B823C824D825E8298878F83F901CC
:101B0000028113812481358109871A872B873C87BD
:101B10009E878D87FB0182819381A481B5818F8708
:101B2000988BA98BBA8B60E076E0C4010E94016BB0
:101B3000BE01635F7F4FC4010E942D6B6AE3C40145
:101B40000E94266B4AE050E0B301C4010E94356C4C
:101B50006AE076E0C4010E94016BBE01695F7F4FBD
:101B6000C4010E942D6B64E176E0C4010E94016B08
:101B7000BE016F5F7F4FC4010E942D6B6CE176E068
:101B8000C4010E94016B870183E0782E20E092EB74
:101B9000E92E93E0F92EF80182819381A481B58129
:101BA000892B8A2B8B2BD9F0222339F060911901D4
:101BB00070911A01C4010E94246BFA82E982F80133
:101BC00082819381A481B5818B839C83AD83BE8305
:101BD000BE016F5F7F4FC4010E942D6B21E07A949C
:101BE0000A5F1F4F7110D7CF211105C069EF75E053
:101BF000C4010E94016B82EB93E09A838983F60112
:101C000082819381A481B5818B839C83AD83BE83C4
:101C10006DEE75E0C4010E94016BBE016F5F7F4FE6
:101C2000C4010E942D6B6AE3C4010E94266B4AE046
:101C300050E0B501C4010E94356CC4010E94376BAD
:101C400062960FB6F894DEBF0FBECDBFDF91CF9185
:101C50001F910F91FF90EF90DF90CF90BF90AF90CA
:101C60009F908F907F906F905F904F903F902F90BC
:101C700008950F931F9300E020E040E060E081EEC4
:101C80009AE20E94836A80912F038093DF2A8091D9
:101C900030038093E02A84E690E00E946A6F80938C
:101CA000DE2A8FE690E00E946A6F8093DD2A6AE761
:101CB0007DE28DEB9AE20E946D4F8AE89AE20E94E3
:101CC000976388ED90E00E94726F9093882A8093CA
:101CD000872A80E999E20E94DD328CE590E00E943B
:101CE0006A6F91E0811101C090E090938F2987E69F
:101CF00099E20E94BC438DE590E00E946A6F91E0FA
:101D0000811101C090E09093662981E499E20E94DC
:101D1000C8458EE590E00E946A6F91E0811101C094
:101D200090E0909340298EEE98E290933F29809323
:101D30003E291092C0081092BF081092C808109255
:101D4000C7081092CA081092C9081092CB081092C6
:101D5000CC081092CD081092CE0881E090E09093CC
:101D6000D4088093D3080E94F0650091CB081091AD
:101D7000CC082091CD083091CE08600F711F821FD2
:101D8000931F6093CF087093D0088093D1089093ED
:101D9000D20885ED98E00E94DB0B40E050E26CEE4B
:101DA00078E08FED98E00E94316485EB96E00E9428
:101DB000F33A00E010E0980141E050E060E070E0AC
:101DC0008DE195E00E94073C00E010E0980140E0C2
:101DD00050E0BA0185E195E00E94073C00E010E088
:101DE000980142E050E060E070E08BE095E00E94F6
:101DF000073C00E010E098014EE150E060E070E048
:101E000083E095E00E94073C00E010E0980145E087
:101E100050E060E070E08BEF94E00E94073C00E04F
:101E200010E0980148E552E060E070E083EF94E054
:101E30000E94073C8CEC93E01F910F910C94F33AB5
:101E40002F923F924F925F926F927F928F929F92CA
:101E5000AF92BF92CF92DF92EF92FF920F931F93B8
:101E6000CF93DF93CDB7DEB7AE970FB6F894DEBF52
:101E70000FBECDBF8B017A01590190E0FC0138976C
:101E8000ED30F10508F0B1C3EA5BFF4F0C943D6DF6
:101E9000CE0149960E94F33ABE01675E7F4F82E011
:101EA0009CE20E94A13B44E0B801CE0181960E94D1
:101EB0007A2DB8016C5F7F4F42E0CE0185960E947B
:101EC0007A2D0DA11EA120E030E049A15AA16BA1FD
:101ED0007CA1CE0141960E94073CBE01675E7F4F08
:101EE000CE0109960E94FD3ABE016F5E7F4FCE0182
:101EF00009960E945B400D851E852F85388937FF26
:101F000007C030952095109501951F4F2F4F3F4FDB
:101F100049855A856B857C8577FF07C070956095EC
:101F2000509541955F4F6F4F7F4FCE0101960E94B4
:101F3000073CBE016F5F7F4F8DE195E00E94283D19
:101F40008823E9F0BE016F5E7F4F82E09CE20E9431
:101F5000AB3961EB77E08DED9CE20E94016BBE0135
:101F6000675F7F4FCE0101960E942F4088E0FE01FF
:101F70003196A5E1B5E001900D928A95E1F7809147
:101F8000892A823008F431C38D859E85AF85B88952
:101F90008BA79CA7ADA7BEA72090190130901A016E
:101FA000C984DA84EB84FC848D8C9E8CAF8CB8A0C1
:101FB000498C5A8C6B8C7C8C0DA11EA189A19AA195
:101FC000ABA1BCA18FA398A7A9A7BAA76CE777E09C
:101FD0008DED9CE20E94016B2AE030E04FA158A5F4
:101FE00069A57AA58DED9CE20E940A6C60E28DEDF8
:101FF0009CE20E94266B4AE050E0B8018DED9CE225
:102000000E94356C6AE877E08DED9CE20E94016BDE
:102010002AE030E0B301A2018DED9CE20E94B86B92
:1020200060E28DED9CE20E94266B2AE030E0B50173
:10203000A4018DED9CE20E94B86B66E977E08DED1E
:102040009CE20E94016B2AE030E0B701A6018DED11
:102050009CE20E94B86BB1018DED9CE20E94246B62
:102060002AE030E04BA55CA56DA57EA58DED9CE238
:102070000E94B86B8DED9CE26EC042E0CE010996E5
:102080000E947A2D49855A858A010F701127102FD9
:102090000027110F110F110F20E030E074E056956A
:1020A00047957A95E1F760E070E0CE0101960E94D5
:1020B000073C88E0FE013196A3E0B5E001900D9267
:1020C0008A95E1F76BEF74E083E095E00E94283D8C
:1020D000882321F088E0EBEFF4E00BC063E075E0CB
:1020E00083EF94E00E94283D882349F088E0E3EFE5
:1020F000F4E0A3E0B5E001900D928A95E1F7C0907D
:102100000705D0900805E0900905F0900A050091B8
:10211000190110911A014090030550900405609038
:1021200005057090060560E677E0C5010E94016B29
:102130002AE030E0B301A201C5010E94B86BB801EA
:10214000C5010E94246B2AE030E0B701A601C50159
:102150000E94B86BC5010E94376B47C22EE088E130
:1021600090E00FB6F894A895809360000FBE20937E
:102170006000FFCF8091E004811137C280E1FB0154
:10218000A0EEB4E001900D928A95E1F71092F00470
:1021900060E477E08DED9CE20E94016B60EE74E0FC
:1021A0008DED9CE20E94246B8DED9CE20E94376BCA
:1021B00040E150E066E172E080EE94E00E944C6FF6
:1021C000892BB1F41092E00461E277E08DED9CE29E
:1021D0000E94016B66E172E08DED9CE20E94246B2F
:1021E0008DED9CE20E94376B81E08093F104FDC18C
:1021F0006CE077E08DED9CE20E94016B60EE74E094
:102200008DED9CE20E94246B8DED9CE20E94376B69
:10221000B801605F7F4F42E08EED94E00E947A2D1E
:10222000B8016E5E7F4F42E08CED94E00E947A2D03
:102230001092DB041092DA04D8C142E0605F7F4F55
:10224000CE0109960E947A2D40E150E0B80180EE5F
:1022500094E00E944C6F892B09F0C7C1E090DA042A
:10226000F090DB0489859A85E816F90609F0BDC16E
:102270008091DE049091DF04E816F90608F0B5C1FC
:102280009E2D9170992E65EF76E08DED9CE20E9477
:10229000016B4AE050E0B7018DED9CE20E94356C85
:1022A00060E28DED9CE20E94266B4AE050E0692DD1
:1022B0008DED9CE20E94176C8DED9CE20E94376BC5
:1022C000A92CB12CD501B695BA2FAA27B795A795F9
:1022D000AB52BC4FF801729680E801900D928A953E
:1022E000E1F7A1E09A124FC08091DA049091DB04EB
:1022F0000197A1F40E949923182F69EC76E08DEDE7
:102300009CE20E94016B4AE050E0612F8DED9CE25F
:102310000E94176C8DED9CE20E94376BC090DA042E
:10232000D090DB04CA18DB08E12CF12C37E0CC0C90
:10233000DD1CEE1CFF1C3A95D1F720E045ED53E083
:10234000C701B6010E94D723182F6DEA76E08DED04
:102350009CE20E94016B2AE030E0B701A6018DEDFE
:102360009CE20E940A6C60E28DED9CE20E94266B6A
:102370004AE050E0612F8DED9CE20E94176C8DEDDC
:102380009CE20E94376B2091DA043091DB0480914B
:10239000DE049091DF0401972817390709F0B2C0D5
:1023A0006AE876E08DED9CE20E94016B60EE74E0DD
:1023B0008DED9CE20E94246B61EA76E08DED9CE25B
:1023C0000E94016BB1E09B16E9F140E850E06FEF2D
:1023D00070E085E594E00E943E6FC090DA04D090F2
:1023E000DB04CA18DB08E12CF12C27E0CC0CDD1C47
:1023F000EE1CFF1C2A95D1F720E045ED53E0C70104
:10240000B6010E94D723182F66E676E08DED9CE298
:102410000E94016B2AE030E0B701A6018DED9CE23D
:102420000E940A6C60E28DED9CE20E94266B4AE0FD
:1024300050E0612F8DED9CE20E94176C8DED9CE2C7
:102440000E94376BCE0101960E946724D82E098125
:102450001A81E090DC04F090DD0469E376E08DED14
:102460009CE20E94016B4AE050E0B7018DED9CE2D6
:102470000E94356C68E476E08DED9CE20E94016B71
:102480004AE050E0B8018DED9CE20E94356C68E5B1
:1024900076E08DED9CE20E94016B4AE050E06D2DEC
:1024A0008DED9CE20E94176C8DED9CE20E94376BD3
:1024B00064E670E080E090E00E941F668091DC049A
:1024C0009091DD040E947724182F65E276E08DED6F
:1024D0009CE20E94016B4AE050E0612F8DED9CE28E
:1024E0000E94176C8DED9CE20E94376B8DED9CE293
:1024F0000E94026868EE73E080E090E00E941F6630
:102500000E94CD242F5F3F4F3093DB042093DA04E9
:102510006CC042E088ED94E00E947A2DB8016E5FB5
:102520007F4F42E086ED94E00E947A2D5EC042E04B
:10253000CE0101960E947A2D6801E2E0CE0ED11CF8
:1025400089819A819093D9048093D804C701029716
:102550009093D7048093D6040E0D1F1DC016D1068C
:1025600009F443C089819A819C01205231092031AC
:10257000310520F0D6016C910E94786F89819A8193
:1025800001969A838983BFEFCB1ADB0AE7CF41E03C
:10259000CE0109960E947A2D8985882331F1B801F0
:1025A0006F5F7F4F41E0CE0101960E947A2D8981B5
:1025B00081FB992790F9282F217089853FEF380FEB
:1025C000303198F48093842A2093852A9093862A28
:1025D0000CC041E0CE0101960E947A2D81E09981E4
:1025E000911101C080E08093F20480E0AE960FB6B6
:1025F000F894DEBF0FBECDBFDF91CF911F910F9139
:10260000FF90EF90DF90CF90BF90AF909F908F9012
:102610007F906F905F904F903F902F9008956F92B2
:102620007F928F929F92AF92BF92CF92DF92EF9262
:10263000FF920F931F93CF93DF93CDB7DEB7CC58A4
:10264000D1090FB6F894DEBF0FBECDBFA89546E006
:1026500050E060E770E0CE018D579F4F0E945A6FA7
:1026600044E050E060E570E0CE0187579F4F0E9444
:102670005A6FBE0167577F4FCE0183589F4F0E940C
:10268000996A44E050E060EC70E0CE0187579F4FBC
:102690000E945A6FBE0167577F4FCE0189589F4FE6
:1026A0000E94996A44E050E064EC70E0CE018757E4
:1026B0009F4F0E945A6FBE0167577F4FCE018F58C0
:1026C0009F4F0E94996ACE018F5B9F4F0E94796A4B
:1026D00081E490E08C0F9D1F06960E94796A81E448
:1026E00090E08C0F9D1F0C960E94796ACE018F5B43
:1026F0009F4F7C0108EC10E044E050E0B801CE01AF
:1027000087579F4F0E945A6FBE0167577F4FCE0178
:1027100001960E94996A8B819C81AD81BE81F701EF
:1027200082839383A483B5830C5F1F4FF6E0EF0E83
:10273000F11C043D110501F744E050E064E570E050
:10274000CE0187579F4F0E945A6FBE0167577F4F38
:10275000CE0185599F4F0E94996A88E590E00E94BA
:10276000726F4C018AE590E00E94726F3C0140E478
:1027700050E060E870E0CE0101960E945A6F64ED6F
:1027800075E08DED9CE20E94016B8E010D571F4F8D
:10279000B12C90E1E92EF12C6801F80180818031A3
:1027A00028F460E38DED9CE20E94266B0F5F1F4FC3
:1027B000F601808190E0A0E0B0E067968CAF9DAF1D
:1027C000AEAFBFAF67976996FFAEEEAE6997BE0139
:1027D0006D5A7F4F8DED9CE20E94CB0BB394F6E0D7
:1027E000BF1631F06AE38DED9CE20E94266BD4CFD8
:1027F0008DED9CE20E94376B5301CE0185599F4FAE
:102800006C01FE01EF5BFF4F7F018E010F581F4FE0
:102810009E0129583F4FA401BE0163587F4F8DEDA3
:102820009CE20E94540D60EC75E08DED9CE20E94EC
:10283000016BBE016F5F7F4F8DED9CE20E94246BA8
:102840008DED9CE20E94376BA895C158DF4F8881BF
:102850009981AA81BB81CF57D040892B8A2B8B2BA2
:1028600009F45EC06FEA75E08DED9CE20E94016B99
:1028700022EB33E065963FAF2EAF6597ED968CADBA
:102880009DADAEADBFADED9769968CAF9DAFAEAFD0
:10289000BFAF69976B963FAF2EAF6B97E7968CAD46
:1028A0009DADAEADBFADE7976F968CAF9DAFAEAFB0
:1028B000BFAF6F97A1963FAF2EAFA19727968CAD74
:1028C0009DADAEADBFAD2797A5968CAF9DAFAEAF1A
:1028D000BFAFA597A7963FAF2EAFA797C158DF4FC1
:1028E00088819981AA81BB81CF57D040AB968CAFAC
:1028F0009DAFAEAFBFAFAB97CE018D5A9F4F7C015E
:10290000085111099E01215A3F4FAE014B595F4FAB
:10291000BE016D577F4F8CE89CE20E94B25A57C0AF
:1029200060EA75E08DED9CE20E94016B88E10FB6D4
:10293000F89480936000109260000FBE10EAE12EC0
:102940001FE0F12E00E010E020E63AEE40E050E01B
:10295000BE016D577F4F8CE89CE20E94095A892B7B
:10296000B1F465E875E08DED9CE20E94016B8DEDA0
:102970009CE20E9402682EE088E190E00FB6F89495
:10298000A895809360000FBE20936000FFCF29E2DE
:1029900088E190E00FB6F894A895809360000FBE90
:1029A000209360006CE87CE2CE018D5A9F4F0E941C
:1029B000A95B69968CAD9DADAEADBFAD699727960D
:1029C0008CAF9DAFAEAFBFAF279710921701A89500
:1029D0008981992787FD90950E94086F892B09F4BA
:1029E00092C0CE01875A9F4F0E94796AF3E0BF2EB2
:1029F000A12CA1E4EA2EF12CEC0EFD1E92E1E90ED1
:102A0000F11CB2EBCB2EB3E0DB2E8E010F5B1F4F20
:102A1000A895F80182819381A481B5810097A105D1
:102A2000B10509F16596DFAECEAE659769968CAFBC
:102A30009DAFAEAFBFAF6997AE01475A5F4FBE01C2
:102A40006F5F7F4FCE018D5A9F4F0E940E0D0197F1
:102A500051F46F968CAD9DADAEADBFAD6F97892B28
:102A60008A2B8B2B31F40A5F1F4F0E151F0581F641
:102A700002C0AA24A394BA9441F6AA2099F182EB49
:102A800093E065969FAF8EAF65976F968CAD9DADC9
:102A9000AEADBFAD6F9769968CAF9DAFAEAFBFAF18
:102AA0006997BE016F5F7F4F8DED9CE20E94246BA2
:102AB00067E775E08DED9CE20E94016BBE016D5AE7
:102AC0007F4F8DED9CE20E942D6B6F968CAD9DAD7E
:102AD000AEADBFAD6F97E1968CAF9DAFAEAFBFAF60
:102AE000E1970DC067E675E08DED9CE20E94016BF9
:102AF000BE016F5F7F4F8DED9CE20E94246B8DEDD8
:102B00009CE20E94376BE1968CAD9DADAEADBFAD42
:102B1000E197892B8A2B8B2B09F056C06CE87CE25D
:102B2000CE01875A9F4F0E94615B6F96CCACDDACA3
:102B3000EEACFFAC6F976CE87CE2CE018D5A9F4FF4
:102B40000E94795B69964CAD5DAD6EAD7FAD6997C6
:102B500040955095609570954C295D296E297F2987
:102B6000CE01815A9F4F0E948F6AA5968CAD9DAD74
:102B7000AEADBFADA597E1968CAF9DAFAEAFBFAF89
:102B8000E19728E730E03093882A2093872A22EBC8
:102B900033E065963FAF2EAF659769968CAF9DAFDA
:102BA000AEAFBFAF699764E375E08DED9CE20E9424
:102BB000016BBE016D5A7F4F8DED9CE20E942D6B23
:102BC0008DED9CE20E94376B62E275E08DED9CE238
:102BD0000E94016B6CE87CE2CE018D5A9F4F0E94EF
:102BE000915B6CE87CE2CE01875A9F4F0E94795B33
:102BF0006CE87CE2CE01815A9F4F0E94615B5301D9
:102C0000CE0185599F4F6C01FE01EF5BFF4F7F01A5
:102C10008E010D5A1F4F9E01275A3F4FA401BE013E
:102C2000615A7F4F8DED9CE20E94540D8DED9CE228
:102C30000E94376B8DED9CE20E94026882EB93E06C
:102C400065969FAF8EAF6597E1968CAD9DADAEADAD
:102C5000BFADE19769968CAF9DAFAEAFBFAF69973F
:102C6000E4E0EE2E0AE09301AE014D5A5F4FB4014D
:102C70008AE89AE20E94CC63C457DF4F0FB6F894FB
:102C8000DEBF0FBECDBFDF91CF911F910F91FF909F
:102C9000EF90DF90CF90BF90AF909F908F907F90FC
:102CA0006F9008950F931F93CF93DF9300D000D0C0
:102CB00000D0CDB7DEB78091DA2A882309F45CC052
:102CC0008CE89CE20E94FD5A8C0166E175E08DED76
:102CD0009CE20E94016B980133272230310551F1AB
:102CE0003CF42115310569F02130310569F029C026
:102CF0002330310549F02430310519F562EF74E0D5
:102D00001BC063E175E018C061E075E08DED9CE2E9
:102D10000E943B6B8DED9CE20E9402682EE088E1F0
:102D200090E00FB6F894A895809360000FBE2093B2
:102D30006000FFCF69EF74E08DED9CE20E943B6B79
:102D40001BC0802F90E0A0E0B0E089839A83AB8322
:102D5000BC838AE090E09E838D836FED74E08DEDFF
:102D60009CE20E94016BBE016F5F7F4F8DED9CE284
:102D70000E94CB0B0E94376B26960FB6F894DEBFED
:102D80000FBECDBFDF91CF911F910F9108952F926C
:102D90003F924F925F926F927F928F929F92AF92EB
:102DA000BF92CF92DF92EF92FF920F931F93CF9338
:102DB000DF93CDB7DEB7E2970FB6F894DEBF0FBE54
:102DC000CDBF0E94FB0B29E288E190E00FB6F8949A
:102DD000A895809360000FBE2093600010E062E031
:102DE000812F0E94FD661F5F1032C9F78091DE2A95
:102DF0008F3F41F061E00E94FD6660E08091DE2A35
:102E00000E9436678091DD2A8F3F41F061E00E9489
:102E1000FD6660E08091DD2A0E9436678EE68EA70F
:102E20008AE68FA78CE688AB81E08BA78CA78DA75D
:102E300092E198A799A79AA78DA38EA38FA344E0A8
:102E400050E064ED70E0CE0181960E945A6F49A176
:102E50005AA16BA17CA1DB01CA01805C9241A1094E
:102E6000B109813E944EA340B10530F026E040E820
:102E700055E260E070E001C026E08DED9CE20E942A
:102E8000896884B78F7E84BF8BB185608BB9E0E0A1
:102E9000F0E089E080935700D490E3E0F0E0809385
:102EA00057008491E2E0F0E049E0409357004491FC
:102EB00050E060E070E049835A836B837C8300E1DB
:102EC00010E01E830D8390E0A0E0B0E08B8B9C8B24
:102ED000AD8BBE8B188F0F8B8D2D90E0A0E0B0E0F6
:102EE0008B8F9C8FAD8FBE8F18A30F8F66EB74E016
:102EF0008DED9CE20E94016BBE01655E7F4F8DED02
:102F00009CE20E94CB0B7C0161EC74E00E94016B9F
:102F1000BE016D5E7F4FC7010E94CB0B7C016EEC42
:102F200074E00E94016BBE016F5F7F4FC7010E947A
:102F3000CB0B0E94376B4D2D4F70D42E8091D50452
:102F400090E0A0E0B0E089839A83AB83BC831E83CA
:102F50000D83842F90E0A0E0B0E08B8B9C8BAD8B39
:102F6000BE8B188F0F8B6AE974E08DED9CE20E9496
:102F7000016B61E070E082E0D81611F060E070E073
:102F80004AE050E08DED9CE20E94026C64EA74E03D
:102F90008DED9CE20E94016BBE016D5E7F4F8DED59
:102FA0009CE20E94CB0B8C016DEA74E00E94016BE5
:102FB000BE016F5F7F4FC8010E94CB0B0E94376B31
:102FC00060E474E08DED9CE20E94016B8091D50479
:102FD000857019F081E08093DC2A61E084E00E9432
:102FE000FD6661E084E00E94366761E08AE00E944D
:102FF000FD6661E08AE00E94366761E08EE00E9433
:10300000FD6661E08EE00E9436678091DE2A8F3F88
:1030100061F180E690E00E94726F8C0164E374E0DD
:103020008DED9CE20E94016B4AE050E0B8018DED0D
:103030009CE20E94026C8DED9CE20E94376B82E65E
:1030400090E00E94726F8C0168E274E08DED9CE26A
:103050000E94016B4AE050E0B8018DED9CE20E94B5
:10306000026C8DED9CE20E94376B6DE174E08DED9A
:103070009CE20E94016BB7E0EB2EB1E0FB2E00E278
:1030800010E080E1C82ED12CC8010E946A6FF701C0
:1030900081937F01482F50E060E070E049835A83BC
:1030A0006B837C83DE82CD8260E28DED9CE20E94A8
:1030B000266BBE016F5F7F4F8DED9CE20E94CB0BB4
:1030C0000F5F1F4F00331105F9F68DED9CE20E9452
:1030D000376B88EE9AE20E94792540E150E060E289
:1030E00070E087E091E00E945A6F80E390E00E94D8
:1030F000726F9093A92B8093A82B61E089E00E94C6
:10310000FD6661E089E00E94366760911B01709165
:103110001C0180911D0190911E010E941F6600E01C
:1031200010E0C801C2960E946A6F18163CF4EEE2E5
:10313000F0E0EC0FFD1FE00FF11F8083C801C59682
:103140000E946A6F9FEF980F943038F4EBE2F0E042
:10315000EC0FFD1FE00FF11F8083C8018A589F4FBD
:103160000E946A6F9FEF980F923138F4E8E2F0E026
:10317000EC0FFD1FE00FF11F8083C80187589F4FA0
:103180000E946A6F9FEF980F983038F4E5E2F0E004
:10319000EC0FFD1FE00FF11F80830F5F1F4F033007
:1031A000110509F0BECF84E490E00E946A6F782E8A
:1031B0008FEF870D803110F07724739485E490E0D1
:1031C0000E946A6FD82EFFEF8F1302C0DD24D394C4
:1031D00086E490E00E946A6F91E0811101C090E066
:1031E0009093F20480918F29882309F4B1C06FE095
:1031F00074E08DED9CE20E94016B63EE73E08DED57
:103200009CE20E943B6BCE0185967C018E01085D9D
:103210001F4F9E01255D3F4FAE01425D5F4F69E04C
:1032200080E999E20E943233D1FA662460F82D2DAC
:10323000217029AB7092842A2093852A6092862A75
:10324000FBE9AF2EF9E2BF2ECE018B966C01FE0199
:10325000BE962F0100E010E0A0E12A2E312CF501EE
:1032600081915F01882329F0E9ED8E2EE3E09E2E07
:1032700004C07FEC872E73E0972EF60121916F0139
:10328000F20181912F0190E0A0E0B0E089839A8360
:10329000AB83BC833E822D826EEB73E08DED9CE2AE
:1032A0002AAB0E94016B4AE050E0B8018DED9CE230
:1032B0000E94026C63EC73E08DED9CE20E94016B56
:1032C000BE016F5F7F4F8DED9CE20E94CB0B7C01B6
:1032D00069EC73E00E94016B4AE050E02AA9622F7A
:1032E000C7010E94176CB401C7010E94016B0F5FF8
:1032F0001F4F0330110509F0B2CF64EA73E08DED82
:103300009CE20E94016B4AE050E0672D8DED9CE24B
:103310000E94176C61EB73E08DED9CE20E94016BE3
:10332000662031F06BE973E08DED9CE20E94016B49
:1033300029A9222319F063E973E002C06DE873E064
:103340008DED9CE20E94016B8DED9CE20E94026873
:1033500063EE73E08DED9CE20E94016B80918F29FA
:10336000811106C06AE074E08DED9CE20E94016B61
:1033700061E074E08DED9CE20E943B6B80918F29AF
:103380008823D1F063EE73E08DED9CE20E94016B27
:103390006AEE73E08DED9CE20E94016B40911B018F
:1033A00050911C0160911D0170911E012AE030E0D6
:1033B0008DED9CE20E94516C809166298823A9F0D2
:1033C0006FE074E08DED9CE20E94016B64E873E0B5
:1033D0008DED9CE20E943B6B82E08093802987E622
:1033E00099E20E94E3438093662964E873E08DEDDF
:1033F0009CE20E94016B80916629811106C06AE0FF
:1034000074E08DED9CE20E94016B61E074E08DED53
:103410009CE20E943B6B809166298823D1F064E88E
:1034200073E08DED9CE20E94016B6AEE73E08DED1E
:103430009CE20E94016B40911F015091200160911C
:103440002101709122012AE030E08DED9CE20E9482
:10345000516C809140298823A9F06FE074E08DEDD4
:103460009CE20E94016B6CE773E08DED9CE20E9490
:103470003B6B2FEF4DE16CE181E499E20E94FE4548
:10348000809340296CE773E08DED9CE20E94016B14
:1034900080914029811106C06AE074E08DED9CE2C4
:1034A0000E94016B61E074E08DED9CE20E943B6B39
:1034B0008AE390E00E946A6F8F3F19F08093DA2AC6
:1034C00002C01092DA2A8EE490E00E946A6F8F3F69
:1034D00009F481E0EE24E3949091DA2A923008F422
:1034E000E12C082F2EE147E062E086E09CE20E949A
:1034F000AC4763E673E08DED9CE20E94016B8DEDBD
:103500009CE20E94026842E06FED7AE28BE19CE26D
:103510000E94CA4B8823E9F080911B2C90E0A0E028
:10352000B0E089839A83AB83BC8380E190E09E8383
:103530008D836BE473E08DED9CE20E94016BBE0114
:103540006F5F7F4F8DED9CE20E94CB0B0E94376B2B
:1035500006C06DE373E08DED9CE20E94016B8DED82
:103560009CE20E94026861E08BE19CE20E94424D75
:103570008BE490E00E946A6F682F8BE19CE20E94CE
:10358000A24B8BE19CE20E945B4C80911C2C9091A1
:103590001D2C019721F58BE19CE20E946B4D992730
:1035A00087FD9095A92FB92F89839A83AB83BC831C
:1035B0008AE090E09E838D8366E273E08DED9CE26D
:1035C0000E94016BBE016F5F7F4F8DED9CE20E94F8
:1035D000CB0B0E94376B8DED9CE20E94026860E08D
:1035E0008FE00E94FD666CE073E08DED9CE20E942E
:1035F000016B8DED9CE20E94026861E070E08BE15E
:103600009CE20E941B4D26E041E060E170E082E018
:103610009CE20E94163C80E190E090931405809318
:1036200013056DEF72E08DED9CE20E94016B4AE0A4
:1036300050E060E170E08DED9CE20E94356C6EEF31
:1036400071E08DED9CE20E94246B40E050E0BE01F1
:103650006F5F7F4F8BE19CE20E94D34D882319F16D
:10366000CE0143960E94F33ACE0101960E9424496E
:103670006B8B7C8B8D8B9E8BCE0143960E94123B75
:10368000BE016D5E7F4F82E09CE20E94AB3988E014
:10369000FE017396A5EBB6E001900D928A95E1F7D5
:1036A00069ED72E002C063EB72E08DED9CE20E9476
:1036B000016B8DED9CE20E94026882E490E00E9422
:1036C000726F9C01215031092E3F3F4F00F58C0154
:1036D0000F701127102F0027110F110F110F20E06D
:1036E00030E0AC015F7064E0569547956A95E1F76C
:1036F00060E070E0CE0143960E94073C88E0FE0146
:103700007396A3E0B5E001900D928A95E1F76BEF17
:1037100074E083E095E00E94283D882321F088E052
:10372000EBEFF4E00BC063E075E083EF94E00E9400
:10373000283D882349F088E0E3EFF4E0A3E0B5E01A
:1037400001900D928A95E1F7C0900705D090080589
:10375000E0900905F0900A050091190110911A01F5
:103760008090030590900405A0900505B090060593
:103770006BE972E08DED9CE20E94016B2AE030E083
:10378000B501A4018DED9CE20E94B86BB8018DEDEE
:103790009CE20E94246B2AE030E0B701A6018DED87
:1037A0009CE20E94B86B8DED9CE20E94376B8DED20
:1037B0009CE20E9402688091DA2A823081F40E94A1
:1037C0000F130E949D6581E1809318018AE89AE2B7
:1037D0009093CA088093C90881E08093DC2A809185
:1037E000DA2A811122C062E072E08DED9CE20E9433
:1037F0004D6B26E040E855E260E070E08AE79DE22C
:103800000E9489688CE090E09093ED288093EC28EA
:1038100025E047E167E08DEB9AE20E94A44F8DEB33
:103820009AE29093CA088093C90861E080911801D8
:103830000E94FD6660E0809118010E94366787E073
:1038400091E09093EB088093EA0880E18093E90887
:103850006CE872E08DED9CE20E943B6B8DED9CE28A
:103860000E9402680E94080CE2960FB6F894DEBF30
:103870000FBECDBFDF91CF911F910F91FF90EF90C1
:10388000DF90CF90BF90AF909F908F907F906F9080
:103890005F904F903F902F9008953F924F925F928C
:1038A0006F927F928F929F92AF92BF92CF92DF9250
:1038B000EF92FF920F931F93CF93DF93CDB7DEB7B5
:1038C000C254D2400FB6F894DEBF0FBECDBFA8954C
:1038D000809105018823F1F16CEC73E082E09CE2B9
:1038E0000E94A13B80918F29882351F080919029DB
:1038F00090919129009709F48BC0099709F488C029
:103900008091672990916829009709F4B7C00797BB
:1039100009F4B4C08091432990914429009709F497
:10392000B2C0059709F4AFC08091062C9091072C86
:10393000009709F4ADC0079709F4AAC010920501D9
:103940000E94080C1092D40365E772E08DED9CE2B2
:103950000E94016B80918F29882321F080E999E2F0
:103960000E948D3580916629882321F087E699E2AF
:103970000E94D34480914029882321F081E499E278
:103980000E94954686E09CE20E94104840E951E082
:1039900065E275E08DEB96E00E94F008892B31F02E
:1039A00060E971E085E295E00E94A70C6DED7CE294
:1039B0008EEE98E20E94930580918F29882339F03A
:1039C0008091902990919129099709F016C68091CC
:1039D0006629882339F08091672990916829079793
:1039E00009F00BC680914029882339F08091432942
:1039F00090914429059709F000C68091062C90917A
:103A0000072C009709F449C0079709F0F6C545C08F
:103A100001E010E0109391290093902961E08091DA
:103A200093290E94366780911B0190911C01A091FF
:103A30001D01B0911E0180939E2990939F29A09310
:103A4000A029B093A1291093A7290093A6290E9429
:103A5000F06500919E2910919F292091A029309115
:103A6000A129600F711F821F931F6093A229709379
:103A7000A3298093A4299093A52942CF87E699E2B0
:103A80000E94014447CF81E499E20E9442464CCF14
:103A900086E09CE20E94D64751CF8091D4038111E9
:103AA000A3C481E08093D40300910D2C10910E2CBF
:103AB000C090D003D090D103E090D203F090D30314
:103AC000A0901901B0901A014090CC035090CD0302
:103AD0006090CE037090CF0369E572E08DED9CE2BB
:103AE0000E94016B2AE030E0B301A2018DED9CE25F
:103AF0000E94B86BB5018DED9CE20E94246B2AE018
:103B000030E0B701A6018DED9CE20E94B86B65E63E
:103B100072E08DED9CE20E94016B4AE050E0B8013A
:103B20008DED9CE20E94026C80918F29882389F0A0
:103B30000091B6291091B72969E472E08DED9CE2FD
:103B40000E94016B4AE050E0B8018DED9CE20E94BA
:103B5000026C8DED9CE20E94376B80910B2C8823C8
:103B6000A9F000910F2C1091102C68E372E08DEDFC
:103B70009CE20E94016B4AE050E0B8018DED9CE2AE
:103B80000E94356C8DED9CE20E94376B8091662916
:103B90008823D9F100916E2910916F29E0906C294A
:103BA000F0906D2961E272E08DED9CE20E94016B64
:103BB0004AE050E0B7018DED9CE20E94026C6CE29D
:103BC00072E08DED9CE20E94016B4AE050E0B8018A
:103BD0008DED9CE20E94026C80917229882389F00D
:103BE000009170291091712965E172E08DED9CE2E0
:103BF0000E94016B4AE050E0B8018DED9CE20E940A
:103C0000026C8DED9CE20E94376B809140298823E5
:103C100031F10091572910915829E0905929F090DD
:103C20005A296FEF71E08DED9CE20E94016B4AE032
:103C300050E0B7018DED9CE20E94356C6AE072E0C5
:103C40008DED9CE20E94016B4AE050E0B8018DEDE1
:103C50009CE20E94026C8DED9CE20E94376B809189
:103C60008F29811106C08091892A8B3009F07DC08F
:103C700037C09BE9A92E99E2B92E08EB19E2912CE5
:103C8000D5018D915D01882321F1F801C080D1809B
:103C9000E280F38062EF71E08DED9CE20E94016BA7
:103CA0004AE050E0692D8DED9CE20E94176C6BEFAD
:103CB00071E08DED9CE20E94016B2AE030E0B701DB
:103CC000A6018DED9CE20E94B86B8DED9CE20E94F6
:103CD000376B93940C5F1F4FF3E09F12D1CFC3CF8C
:103CE00080918F29882309F440C01BE9812E19E2B5
:103CF000912E00E9A02E09E2B02E88E5782ED4019D
:103D00008D914D01882351F1672D8DED9CE20E942C
:103D1000266B6AE38DED9CE20E94266B00E010E0CA
:103D2000F501E00FF11FC4A8D5A8E6A8F7A860E246
:103D30008DED9CE20E94266B2AE030E0B701A601DF
:103D40008DED9CE20E94B86B0C5F1F4F0034110593
:103D500039F76AE08DED9CE20E94266BB0E4AB0E71
:103D6000B11C7394EBE57E12CACFD090DE2A8FEFA0
:103D7000D81641F180E690E00E94726F8C0182E6D5
:103D800090E00E94726F7C01F694E79498012E0DEA
:103D90003F1D40910D2C50910E2C2417350724F413
:103DA00061E08D2D0E9436670E191F0980910D2C40
:103DB00090910E2C801791072CF460E08091DE2A00
:103DC0000E943667CE018D5E9D4F0E94E92E87E0EE
:103DD00091E0C05EDD4F99838883C052D24080E17C
:103DE000C15EDD4F8883CF51D24090910401CC5EFB
:103DF000DD4F8881C451D240992311F0826001C007
:103E00008D7FCC5EDD4F8883C451D2402091D0039A
:103E10003091D1038091CC039091CD03A091CE033A
:103E2000B091CF03C95EDD4F88839983AA83BB839A
:103E3000C751D240C55EDD4F39832883CB51D24074
:103E400040E052E0BE016F5F7F4FCE018D5E9D4F1F
:103E50000E94542F0D8110E0102F00278E81080F33
:103E6000111D62EE71E08DED9CE20E94016B4AE053
:103E700050E0B8018DED9CE20E94356C8DED9CE226
:103E80000E94376B80918F29882309F470C090902D
:103E9000842A8090852A3090862A7BE9472E79E211
:103EA000572EE4ECAE2EE9E2BE2EF8EB6F2EF9E2CF
:103EB0007F2E10E0D2018D912D018823F1F0F301C6
:103EC000C080D180E280F380FD01359700810F70C2
:103ED000212F40E052E0BE016F5F7F4FCE018D5E2B
:103EE0009D4F0E94AA2F8091F204882331F08FED1C
:103EF00098E00E94236581113BC31F5FF0E4AF0E81
:103F0000B11C84E0680E711C1330A1F68091B629B3
:103F10009091B729C05CDD4F99838883C054D2400B
:103F20008E01005C1D4F23E040E052E0BE016F5F58
:103F30007F4FCE018D5E9D4F0E94F22F832D90E02A
:103F4000880F991F99298829C25CDD4F998388833E
:103F5000CE53D2400250110923E140E052E0BE01AD
:103F60006F5F7F4FCE018D5E9D4F0E94F22F80913B
:103F70000D2C90910E2CC45CDD4F99838883CC531B
:103F8000D2408E01045C1D4F24E040E052E0BE01AF
:103F90006F5F7F4FCE018D5E9D4F0E94F22F80910B
:103FA0000B2C8823B9F080910F2C9091102CC65CBB
:103FB000DD4F99838883CA53D2400250110925E00E
:103FC00040E052E0BE016F5F7F4FCE018D5E9D4F9E
:103FD0000E94F22F209103053091040544E0220F46
:103FE000331F4A95E1F78091070590910805A0914C
:103FF0000905B0910A055BE0B595A795979587955A
:104000005A95D1F7282B392BC85CDD4F398328838B
:10401000C853D2408E01085C1D4F28E040E052E0BA
:10402000BE016F5F7F4FCE018D5E9D4F0E94F22FCC
:1040300080916629882309F449C080916C29909168
:104040006D29CA5CDD4F99838883C653D2400250E4
:10405000110928E140E052E0BE016F5F7F4FCE01C1
:104060008D5E9D4F0E94F22F80916E2990916F2955
:10407000CC5CDD4F99838883C453D2400250110930
:1040800029E140E052E0BE016F5F7F4FCE018D5EBF
:104090009D4F0E94F22F809172298823B9F0809160
:1040A000702990917129CE5CDD4F99838883C2532A
:1040B000D240025011092AE140E052E0BE016F5F98
:1040C0007F4FCE018D5E9D4F0E94F22F809140293F
:1040D000882379F18091572990915829C05DDD4F4F
:1040E00099838883C053D2408E01005D1D4F2BE120
:1040F00040E052E0BE016F5F7F4FCE018D5E9D4F6D
:104100000E94F22F8091592990915A29C25DDD4F6A
:1041100099838883CE52D240025011092CE140E0AD
:1041200052E0BE016F5F7F4FCE018D5E9D4F0E94BA
:10413000F22F809106018823B1F08091D504CE5BE7
:10414000DD4F8883C254D2408E010E5B1D4F27E0A5
:1041500040E052E0BE016F5F7F4FCE018D5E9D4F0C
:104160000E94F22F04C08091F104882369F006E1D7
:1041700012E02DE040E052E0BE016F5F7F4FCE01C4
:104180008D5E9D4F0E94253000E010E0980140E0D8
:1041900050E0BA01CE018F5F9D4F0E94073CBE01E7
:1041A0006F5F7D4F85E195E00E94023D811116C051
:1041B000E0901905F0901A0500911505109116056B
:1041C000209117053091180540E052E0BE016F5F65
:1041D0007F4FCE018D5E9D4F0E94BF300091D6046F
:1041E0001091D7040115110519F169EC71E08DEDFD
:1041F0009CE20E94016B4AE050E0B8018DED9CE228
:104200000E94356C8DED9CE20E94376B0091D604C4
:104210001091D7042091D8043091D90440E052E0A5
:10422000BE016F5F7F4FCE018D5E9D4F0E940B31AF
:104230002091EC283091ED2840E052E0BE016F5F04
:104240007F4FCE018D5E9D4F0E9414324D8150E014
:10425000542F44278E81480F511DBE016F5F7F4F41
:104260008DEB96E00E94E6071091DB2A1F5F10930A
:10427000DB2A8091DC2A882381F08AE490E00E9486
:104280006A6F882321F0181710F01092DC2A6091D1
:10429000DC2A809118010E94366740E050E0BE01A0
:1042A0006F5F7D4F8BE19CE20E94D34DCE018F5F0B
:1042B0009D4F0E9424496B017C01CE018E5D9D4F74
:1042C0000E94F33ABE016E5D7D4F82E09CE20E9447
:1042D000A13BCE5DDD4F488159816A817B81C2520D
:1042E000D240D701C601841B950BA60BB70BB7FFB5
:1042F00007C0B095A095909581959F4FAF4FBF4F48
:104300000397A105B105FCF0C65DDD4F48835983D5
:104310006A837B83CA52D240BE016F5F7D4FCE015C
:10432000865D9D4F0E945E4A40E050E0BE016F5F97
:104330007D4F8BE19CE20E94794C6CEB71E08DED3E
:104340009CE20E943B6BCE5DDD4F88819981AA8102
:10435000BB81C252D2404091B5065091B6066091E1
:10436000B7067091B806841B950BA60BB70B00918E
:10437000872A1091882AA80160E070E04817590741
:104380006A077B071CF566EB71E08DED9CE20E94ED
:10439000016B4AE050E0B8018DED9CE20E94356C63
:1043A00067E971E08DED9CE20E943B6B8DED9CE234
:1043B0000E94026829E288E190E00FB6F894A8957F
:1043C000809360000FBE20936000FFCFB7FF0AC04C
:1043D00088E0FE01EE5DFD4FA5EBB6E001900D9289
:1043E0008A95E1F70E945216809105018111AAC0B9
:1043F0008091E004882309F4A5C02091DA0430916B
:10440000DB048091DE049091DF042817390708F05F
:1044100099C08FED98E00E942365882309F492C02B
:104420008091C7089091C808892B09F08BC08091B2
:10443000AA2B8F5F8093AA2BCE018F5F9D4F0E9486
:10444000E92E87E091E0C25FDD4F99838883CE50EB
:10445000D24080E1C35FDD4F8883CD50D240CE0192
:104460008D5E9D4F0E94F33ABE016D5E7D4F82E0EE
:104470009CE20E94A13BC95EDD4F28813981C75172
:10448000D240CD5EDD4F88819981AA81BB81C35125
:10449000D240CB5FDD4F88839983AA83BB83C5500D
:1044A000D240C75FDD4F39832883C950D24040E0F6
:1044B00051E0BE016F5F7F4FCE018F5F9D4F0E9425
:1044C000542F0091DA041091DB0420EE34E040E038
:1044D00051E0BE016F5F7F4FCE018F5F9D4F0E9405
:1044E00084302091EC283091ED2840E051E0BE016D
:1044F0006F5F7F4FCE018F5F9D4F0E9414324D81C1
:1045000050E0542F44278E81480F511DBE016F5F2C
:104510007F4F8DEB96E00E94E6071091DB2A1F5F2C
:104520001093DB2A8091DC2A882361F08AE490E0F2
:104530000E946A6F81112CC06091DC2A8091180161
:104540000E94366780910501811157C08FED98E078
:104550000E9423652091C7083091C808882319F06C
:1045600021153105D1F02430310509F046C015C0C0
:104570006501E92C04E025E1210F40E052E0BE0195
:104580006F5F7F4FCE018D5E9D4F0E947331B5CC22
:10459000181790F21092DC2ACFCF8091C908909121
:1045A000CA08DC01ED91FC910684F785E02D0995A0
:1045B000882319F1809117018823F9F06BE075E0E9
:1045C00083E095E00E94283D811117C06FE871E0FB
:1045D0008DED9CE20E94016B8DED9CE20E940268D1
:1045E00086E00E944D0C67E871E08DED9CE20E9430
:1045F000016B8DED9CE20E940268CE5BDD4F0FB631
:10460000F894DEBF0FBECDBFDF91CF911F910F9108
:10461000FF90EF90DF90CF90BF90AF909F908F90E2
:104620007F906F905F904F903F9008958091E72A20
:10463000811115C08CE890EFA1E0B0E0ABBFFC01A8
:1046400087919791A791B691883539F4923429F4DE
:10465000AA3619F4B093E72A02C081E0089580E0F9
:104660000895CF92DF92EF92FF926B017C010E943E
:10467000162381111AC08091E72A8130A9F484E9B8
:1046800090EFA1E0B0E0ABBFFC0127913691C901EA
:1046900001978E3F9F4F40F4C701B601F901FF908B
:1046A000EF90DF90CF90099482E0FF90EF90DF9041
:1046B000CF900895CF92DF92EF92FF92CF93DF9346
:1046C00000D01F92CDB7DEB76B017C012B834983ED
:1046D0005A830E9416232B8149815A8181111FC060
:1046E0008091E72A8130D1F486E990EFA1E0B0E033
:1046F000ABBFFC01A791B691CD0101978E3F9F4FB3
:1047000068F4C701B601FD010F900F900F90DF9183
:10471000CF91FF90EF90DF90CF90099482E00F90BF
:104720000F900F90DF91CF91FF90EF90DF90CF909F
:104730000895CF92DF92EF92FF920E94162381118B
:1047400031C08091E72A813061F58AE990EFA1E0DC
:10475000B0E0ABBFFC01879196919C0121503109DB
:104760002E3F3F4FC0F0C12C88EFD82EE12CF12C0A
:10477000C701B6010E943123811114C08FEFD81AEE
:10478000E80AF80AC114E0EFDE06E1E0EE06F10403
:1047900079F780E007C0FC01FF90EF90DF90CF90A9
:1047A000099482E0FF90EF90DF90CF900895CF9230
:1047B000DF92EF92FF92CF93DF9300D01F92CDB79D
:1047C000DEB76B017C012B8349835A830E94162339
:1047D0002B8149815A8181112FC08091E72A813034
:1047E00051F58CE990EFA1E0B0E0ABBFFC01A791DF
:1047F000B691CD0101978E3F9F4F80F0C701B60162
:1048000078508F4F9F4F0F900F900F90DF91CF9167
:10481000FF90EF90DF90CF900C945A23C701B60120
:10482000FD010F900F900F90DF91CF91FF90EF90CF
:10483000DF90CF90099482E00F900F900F90DF915E
:10484000CF91FF90EF90DF90CF900895CF92DF92BD
:10485000EF92FF920F931F93260F371F481F591F88
:10486000A0E0B0E0621773078407950709F424C03D
:104870006B017C01EFEFCE1ADE0AEE0AFE0A8BBF57
:10488000FB016791A6276A2F62956A27062E669517
:1048900066956025062E6695602567700A2EAB2FFB
:1048A000669507946795B02DA62706946795B02561
:1048B000A627C701B601D6CFF801B183A08380E057
:1048C0001F910F91FF90EF90DF90CF9008950F937D
:1048D0001F938C0120E038EF40E050E060E078EF7B
:1048E00080E090E00E9426241F910F9108950F937D
:1048F0001F93CF93DF93CDB7DEB7DA950FB6F89459
:10490000DEBF0FBECDBFDE01119600E01FEE21E03D
:1049100030E0AD012BBFF80167916D930F5F1F4F22
:104920002F4F3F4F011560EF160761E02607310555
:1049300089F728E5C550DF4F2883CB5FD04022E4BC
:10494000C450DF4F2883CC5FD04029E4C350DF4FF1
:104950002883CD5FD04026E4C250DF4F2883CE5F4E
:10496000D040C150DF4F9883CF5FD040C050DF4F61
:104970008883C050D14021E060E077EF80E090E094
:104980000E94D723D3950FB6F894DEBF0FBECDBFDC
:10499000DF91CF911F910F910895F89488E10FB6A0
:1049A000F89480936000109260000FBE28E088E1C8
:1049B00090E00FB6F894A895809360000FBE209306
:1049C0006000FFCF8091182B90E02091192B821B63
:1049D000910908952091192B8091182B281750F4D4
:1049E000E22FF0E0E65EF44D808190E02F5F2093AF
:1049F000192B08958FEF9FEF0895E091192B809167
:104A0000182BE81730F4F0E0E65EF44D808190E07A
:104A100008958FEF9FEF08950895CF92DF92EF9260
:104A2000FF920F931F93CF93DF937C01CB018A01F9
:104A30002091F42A222389F0EB016B01C40ED51ECC
:104A4000CC15DD0569F06991D701ED91FC910190DC
:104A5000F081E02DC7010995F3CF642F0E94CA268B
:104A6000C801DF91CF911F910F91FF90EF90DF90E0
:104A7000CF900895CF93DF931F92CDB7DEB76983B0
:104A80002091F42A2223D1F02091F52A203240F0FF
:104A900021E030E0FC013383228380E090E015C008
:104AA0008091F62AE82FF0E0E950F54D9981908346
:104AB0008F5F8093F62A8093F52A05C061E0CE01CE
:104AC00001960E94CA2681E090E00F90DF91CF917D
:104AD0000895FC011382128248EE53E060E070E01A
:104AE00044835583668377838CE292E0918380834D
:104AF00008951092192B1092182B1092F62A1092EA
:104B0000F52A0C940D2681E08093F42A6093172BEC
:104B10001092F62A1092F52A08950C9483250F938B
:104B2000062F21E04091F52A67EF7AE28091172B5A
:104B30000E9473261092F62A1092F52A1092F42AF7
:104B40000F9108958F929F92AF92BF92CF92DF9272
:104B5000EF92FF920F931F93CF93DF93EC01F62E0A
:104B6000D42E48015901EE2019F10E9483251E2DF3
:104B7000143008F013E01150B8F0E881F98128E012
:104B8000129FB0011124A501940104C056954795C8
:104B9000379527956A95D2F7CA01B9010190F0813E
:104BA000E02DCE010995E7CF60E0CE010E948F2570
:104BB0004D2D413208F040E22C2D6AE17BE28F2D31
:104BC0000E942B261092192B8093182BDF91CF91E6
:104BD0001F910F91FF90EF90DF90CF90BF90AF901B
:104BE0009F908F900895CF92EF920F931F93C22EB4
:104BF000E12C00E010E098010E94A2251F910F9186
:104C0000EF90CF90089521E00C94F32561E00C948F
:104C10008F2588EE9AE20C9469251092A72B81E0EB
:104C20008093A52B1092A42B61E084E10E9436674B
:104C300061E085E10E943667E9EBF0E080818E7FDC
:104C4000808380818D7F808380E28093B80085E4BB
:104C50008093BC000895413208F043C09091A72B87
:104C60009111FCCF91E09093A72B2093A52B2FEFD0
:104C700020933A2B10927F2B240F20937E2B90931E
:104C8000A62B9091A62B880F892B8093A62B809121
:104C9000A42B813061F41092A42B8091A62B8093D9
:104CA000BB008091BC0083FDF8CF85EC01C085EE90
:104CB0008093BC008091A72B8130E1F380917F2B02
:104CC000841710F440917F2B20E83BE2FB01D901CF
:104CD0008A2F821B841718F48D918193F9CF842F2A
:104CE000089580E008950F93413208F04AC09091F2
:104CF000A72B9111FCCF92E09093A72B0093A52BAB
:104D00009FEF90933A2B10927F2B40937E2BFB01C9
:104D100060E87BE2DB019A2F961B941718F49191BF
:104D20009D93F9CF1092A62B9091A62B880F892BDB
:104D30008093A62B8091A42B813061F41092A42B38
:104D40008091A62B8093BB008091BC0083FDF8CF9F
:104D500085EC01C085EE8093BC00222321F0809178
:104D6000A72B8230E1F380913A2B8F3F61F0809145
:104D70003A2B803251F080913A2B803341F483E01A
:104D800007C081E005C080E003C082E001C084E08C
:104D90000F910895613298F42091A72B243089F463
:104DA00060935C2BFC018EE59BE2DC012A2F281B23
:104DB000261718F421912D93F9CF80E0089581E012
:104DC000089582E0089585ED8093BC008091BC0039
:104DD00084FDFCCF1092A72B089585EC8093BC0036
:104DE0001092A72B08951F920F920FB60F921124C5
:104DF0000BB60F922F933F934F935F936F937F93D5
:104E00008F939F93AF93BF93EF93FF938091B900DC
:104E1000887F803609F49EC078F5883209F45DC039
:104E200090F4803109F456C038F4882309F4F5C0B1
:104E3000883009F44FC0F5C0883109F44EC0803283
:104E400009F45FC0EEC0803409F46AC058F48033BE
:104E500009F457C0883309F0E4C080933A2B0E94CC
:104E6000ED26DFC0803509F44FC0883509F45DC0F8
:104E7000883409F0D6C0D3C0883909F4C4C0A8F476
:104E8000883709F467C038F4883609F463C080377E
:104E900009F460C0C6C0883809F4B5C0803909F487
:104EA0005FC0803809F0BDC05BC0803B09F483C09F
:104EB00038F4803A09F466C0883A09F47CC0B1C07D
:104EC000803C09F4A4C0883C09F4A1C0883B09F4E3
:104ED00087C0A7C08091A62B10C090917F2B809196
:104EE0007E2B981770F5E0917F2B81E08E0F8093D9
:104EF0007F2BF0E0E058F44D80818093BB0085EC7F
:104F000083C080933A2B8BC0E0917F2B81E08E0F82
:104F100080937F2B8091BB00F0E0E058F44D8083BC
:104F200090917F2B80917E2B6BC0E0917F2B81E055
:104F30008E0F80937F2B8091BB00F0E0E058F44D02
:104F400080838091A52B81116AC081E08093A42B7E
:104F500084EA5EC083E08093A72B10923B2BCFCFD7
:104F600080913B2B803208F04EC0E0913B2B81E0DA
:104F70008E0F80933B2B8091BB00F0E0E45CF44DFE
:104F80008083BDCF0E94ED2680913B2B803230F490
:104F9000E0913B2BF0E0E45CF44D108260913B2B00
:104FA00070E0E091A02BF091A12B8CE39BE209959E
:104FB00010923B2B36C084E08093A72B10925D2B80
:104FC00010925C2BE091A22BF091A32B099580917C
:104FD0005C2B811105C081E080935C2B10925E2BCD
:104FE000E0915D2B81E08E0F80935D2BF0E0E25A23
:104FF000F44D80818093BB0090915D2B80915C2B60
:10500000981708F47CCF85E88093BC000AC085EC33
:105010008093BC001092A72B04C010923A2B0E94E0
:10502000E326FF91EF91BF91AF919F918F917F9177
:105030006F915F914F913F912F910F900BBE0F9009
:105040000FBE0F901F9018952F923F924F925F9234
:105050006F927F928F929F92AF92BF92CF92DF9288
:10506000EF92FF920F931F93CF93DF93CDB7DEB7ED
:10507000C855D1090FB6F894DEBF0FBECDBF5C0195
:105080004901170128018E010F5F1F4F80E4F801CD
:1050900011928A95E9F74130F2E05F0738F09A0102
:1050A00040E050E0C8010E94A02C0AC0495F5F4F59
:1050B000E3E056954795EA95E1F7C8010E94236F12
:1050C0006E0181E4C80ED11CF80196E38081892726
:1050D0008193EC15FD05D1F7C6010E942E2AB80177
:1050E000C6010E94542AA201910134012115F2E067
:1050F0003F074105510518F1B301C60166962FAF70
:10510000669767963FAF679768964FAF68976996BF
:105110005FAF69970E94542AE0E46E0E711C669698
:105120002FAD669767963FAD679768964FAD6897C6
:1051300069965FAD6997325041095109D7CFB201E5
:10514000A101517066277727D201C10129E0B695E8
:10515000A795979587952A95D1F71C0136E0220CE3
:10516000331C3A95E1F7280C391CB101C6010E94A5
:10517000E22B48019AE6F4018081892781934F014F
:10518000EC15FD05C1F7BF01C5010E94982CC401B3
:105190000E942E2AB801C4010E94542A40E850E01F
:1051A000B501C4010E94E22BB401C5010E94982CF4
:1051B000C85ADF4F0FB6F894DEBF0FBECDBFDF91E8
:1051C000CF911F910F91FF90EF90DF90CF90BF9004
:1051D000AF909F908F907F906F905F904F903F9097
:1051E0002F9008958F929F92AF92BF92EF92FF926D
:1051F0000F931F934B015C0160957095809590957E
:105200006E217F2180239123282139214A215B218E
:10521000622B732B842B952B1F910F91FF90EF9096
:10522000BF90AF909F908F9008958F929F92AF9272
:10523000BF92EF92FF920F931F934B015C01C80145
:10524000B7016095709580959095622373238423B0
:1052500095238E209F20A022B122682979298A29AE
:105260009B291F910F91FF90EF90BF90AF909F905F
:105270008F900895EF92FF920F931F932E253F2555
:10528000402751272627372748275927CA01B90120
:105290001F910F91FF90EF900895EF92FF920F935F
:1052A0001F93E094F09400951095E62AF72A082BB6
:1052B000192BE226F32604271527C801B7011F91F1
:1052C0000F91FF90EF9008952F923F924F925F922F
:1052D0006F927F928F929F92AF92BF92CF92DF9206
:1052E000EF92FF920F931F93CF93DF93CDB7DEB76B
:1052F00060970FB6F894DEBF0FBECDBF4B01322EC4
:10530000202E28E0E4E2F1E0DE01119601900D92FA
:105310002A95E1F74370642F70E05C0124E0429F1E
:10532000A00CB11C1124D5014D905D906D907C9026
:105330006B01BFEFCB1ADB0AE3E0CE22DD24CC0CFD
:10534000DD1CCC0CDD1CC80ED91EFE013196EE0D05
:10535000F11DEE0DF11D9B012D5F3F4F2370332793
:10536000220F331F220F331F280F391FD901ED9051
:10537000FD900D911C91DB011296A370BB27AA0F23
:10538000BB1FAA0FBB1FA80FB91F2D913D914D91B7
:105390005C91D6016D917D918D919C910190F081F0
:1053A000E02D0995B4E02B9EF0011124E352F84F53
:1053B0002591359145915491D401ED90FD900D9139
:1053C0001C91E40CF51C061D171DE60EF71E081FA8
:1053D000191FE20EF31E041F151FB801A701032CAD
:1053E00004C0440F551F661F771F0A94D2F720E2AE
:1053F0002319D801C70104C0B695A795979587953D
:105400002A95D2F7482B592B6A2B7B2BF6018081EA
:105410009181A281B381480F591F6A1F7B1FD5015B
:105420004D935D936D937C93139760960FB6F894AC
:10543000DEBF0FBECDBFDF91CF911F910F91FF90C7
:10544000EF90DF90CF90BF90AF909F908F907F9024
:105450006F905F904F903F902F900895FC01108ABD
:10546000118A128A138A41E053E265E477E64083A9
:1054700051836283738349E85BEA6DEC7FEE44837A
:105480005583668377834EEF5CED6AEB78E940875E
:1054900051876287738746E754E562E370E144878A
:1054A00055876687778708952F923F924F925F9234
:1054B0006F927F928F929F92AF92BF92CF92DF9224
:1054C000EF92FF920F931F93CF93DF93CDB7DEB789
:1054D000A2970FB6F894DEBF0FBECDBF1C017AA312
:1054E00069A3FC0180819181A281B38189839A8320
:1054F000AB83BC8384819581A681B7818D839E8394
:10550000AF83B88780859185A285B38589879A877F
:10551000AB87BC8784859585A685B7858D879E8753
:10552000AF87B88B87E08D8F8CE08E8F81E18F8F76
:1055300086E188A32B01A12CB12C3E01FDE16F0E69
:10554000711C65E0F62EF60C43011A2D110F110F98
:105550001619C12CD12C012F080DF40121914F01F6
:105560004F2D4E1BB601640D751DE12CCE01019629
:105570000E946429F4E0CF0ED11C80E1C816D1044A
:1055800051F79FEFA91AB90AE0E14E0E511CF4E061
:10559000AF16B104C9F685E0898F89E08A8F8EE065
:1055A0008B8F84E18C8FCC24C394D12C3E0189E174
:1055B000680E711C5FE0552E56184601530114E029
:1055C000452C4C0C042D0A0DF50121915F01B4010D
:1055D0006F707727660F771F660F771F89A19AA1D3
:1055E000680F791FEE24E394412FCE0101960E94AB
:1055F0006429115095E0890E911C1111E3CFE4E06C
:10560000CE0ED11CF1E1CF16D104B9F684E08D8B1A
:105610008BE08E8B80E18F8B87E1888F95E0C92EA0
:10562000D12C3E0185E1680E711C25E2522E5618E0
:105630004601530114E0452C4C18042D0A0DF501C8
:1056400021915F01B4016F707727660F771F660F96
:10565000771F89A19AA1680F791F82E0E82E412F58
:10566000CE0101960E946429115093E0890E911C8D
:105670001111E3CFE4E0CE1AD108F5EFCF16FFEF1A
:10568000DF06B1F686E0898B8AE08A8B8FE08B8B10
:1056900085E18C8BC12CD12C3E0181E1680E711CFF
:1056A000A0E35A2E56184601530114E0452C4C181D
:1056B000042D0A0DF50121915F01B4016F70772768
:1056C000660F771F660F771F89A19AA1680F791F50
:1056D000F3E0EF2E412FCE0101960E946429115074
:1056E00097E0890E911C1111E3CFE4E0CE1AD108A6
:1056F000F0EFCF16FFEFDF06B1F6F1018081918167
:10570000A281B38149815A816B817C81840F951F6D
:10571000A61FB71F80839183A283B3838481958161
:10572000A681B7814D815E816F817885840F951F39
:10573000A61FB71F84839583A683B7838085918531
:10574000A285B38549855A856B857C85840F951F15
:10575000A61FB71F80879187A287B3878485958509
:10576000A685B7854D855E856F857889840F951FE1
:10577000A61FB71F84879587A687B78780899189D9
:10578000A289B3890196A11DB11D808B918BA28B3B
:10579000B38BA2960FB6F894DEBF0FBECDBFDF91DC
:1057A000CF911F910F91FF90EF90DF90CF90BF901E
:1057B000AF909F908F907F906F905F904F903F90B1
:1057C0002F9008956F927F928F929F92AF92BF9287
:1057D000CF92DF92EF92FF920F931F93CF93DF93BD
:1057E000CDB7DEB7C054D1090FB6F894DEBF0FBEF7
:1057F000CDBF8C013B014A017A016B01E114E2E06B
:10580000FE0650F0B601C8010E94542A82E0F81A40
:1058100090E4C90ED11CF2CF5401AB2CBB24A6944A
:10582000F6E0AA0CBB1CFA95E1F7A60CB71C6401C4
:10583000F1E0DF22CE0101967C0180E4F7011192B4
:105840008A95E9F73601A3E076946794AA95E1F783
:10585000A301B501C7010E94236FF7E08F229924AD
:10586000F701E60DF71D8114910471F0D501A60D25
:10587000B71D80E890E002C0959587958A94E2F77D
:105880009C91982B908302C080E8808388E0680E0A
:10589000711C90E469167104A8F0B701C8010E9458
:1058A000542AF80180899189A289B3890197A109B5
:1058B000B109808B918BA28BB38B88E3F701119296
:1058C0008A95E9F7F80180899189A289B38979E0FD
:1058D000880F991FAA1FBB1F7A95D1F78C0D9D1DAC
:1058E000A11DB11D9C01AD0189AF3AAF4BAF5CAFBB
:1058F0001DAE1EAE1FAE21961FAE2197B701C80187
:105900000E94542AC05CDF4F0FB6F894DEBF0FBE72
:10591000CDBFDF91CF911F910F91FF90EF90DF905E
:10592000CF90BF90AF909F908F907F906F90089591
:1059300020E1FB01DC0101900D922A95E1F7089529
:105940008F929F92AF92BF92CF92DF92EF92FF928F
:105950000F931F93CF93DF93CDB7DEB768970FB642
:10596000F894DEBF0FBECDBF6C017B01CE01019666
:105970002D8B3E8B4F8B588F0E942E2A2D893E896E
:105980004F89588D49015A018701811482E0980698
:10599000A104B104A0F0B801CE0101962D8B3E8B7D
:1059A0004F8B588F0E94542A005C1F4F82E0981A38
:1059B000A108B108588D4F893E892D89E6CFDA01BB
:1059C000C9019170AA27BB27BA01A901B9E0769550
:1059D000679557954795BA95D1F7BA0116E0660FC6
:1059E000771F1A95E1F76E0D7F1DAC01CE01019670
:1059F0000E94E22BBE016F5F7F4FC6010E94982C70
:105A000068960FB6F894DEBF0FBECDBFDF91CF9181
:105A10001F910F91FF90EF90DF90CF90BF90AF90CC
:105A20009F908F900895CF92DF92EF92FF920F9305
:105A30001F93CF93DF93182F7B016A01E90168E37D
:105A400072E0C9010E94246B4AE050E0612FCE0150
:105A50000E94176C6AE3CE010E94266B8701E12C3D
:105A6000F12CEC14FD04D1F060E2CE010E94266B13
:105A700080E1E816F10431F464E971E0CE010E949E
:105A8000246B0CC0F80161918F0140E150E0CE0120
:105A90000E94176CFFEFEF1AFF0AE3CFCE010E94BE
:105AA000376B80E0DF91CF911F910F91FF90EF90C6
:105AB000DF90CF9008951F93CF93DF93182FEB01C2
:105AC0006DE372E0CE010E94246B4AE050E0612F4A
:105AD000CE01DF91CF911F910C941E6CFC0184814B
