:100000000C94C2040C948D610C94B8610C94E3615F
:100010000C94F1040C94F1040C94F1040C94F1048C
:100020000C94F1040C94E23B0C940E3C0C949B3E1B
:100030000C94F1040C94F1040C94F1040C94F1046C
:100040000C94F1040C94F1040C940E620C94F104E1
:100050000C9419650C944F650C94F1040C94F10404
:100060000C94F1040C94F1040C94E9270C94F10421
:100070000C94C6650C94FC650C94F1040C94F1048A
:100080000C94F1040C94F1040C94F10452100A1332
:100090000A13360FC3100A13CF100A1332119E121F
:1000A000AC12DC12FE12F53633374A378537BD37CE
:1000B000E0371E387A383F634263356339635963EA
:1000C000596346634A63506354634552524F523AF0
:1000D00020756E6B6E6F776E20636F6D6D616E64F1
:1000E0003A202700270A00766572626F7369747977
:1000F0003A00766572626F736974790073616D702E
:100100006C696E67496E74657276616C5F313674C6
:10011000685F73005245424F4F543D7472756500DD
:10012000656570726F6D57726974653D00656570C5
:10013000726F6D526561643D005061636B65742040
:1001400076616C69642062757420696E636F727287
:1001500065637420726573706F6E7365002323236B
:10016000232323232323232323232323232323235F
:1001700023232300546F6F206D616E7920726574A4
:10018000726965733A20004157414B45210A00537B
:100190004C454550210A007320776974686F757467
:1001A000206D6573672061636B2C207265626F6FD1
:1001B00074696E670A00476F6E652000536574208E
:1001C000485720636C6F636B00454550524F4D207C
:1001D000636F6E74656E7473206C656E6774683AD5
:1001E0002000486561646572206C656E6774683ACA
:1001F00020000A5374617475733A200046697820B0
:1002000074696D653A20000A506F736974696F6E86
:100210003A2000474E53532076616C69643A2000BF
:100220006D6167446174615B005D3A2000537570D5
:10023000706C7920766F6C746167653A20000A46AD
:100240004C433130302074656D702E3A2000546973
:100250006D657374616D703A20000A53797374652B
:100260006D2074656D702E3A20002D2D2D2D0A53B2
:10027000616D706C696E6720737461727465640A75
:100280000054696D65206572726F7220286F7572F7
:100290002D474E5353293A200054696D65207365EC
:1002A000742066726F6D20474E53530A0053657475
:1002B000757020636F6D706C6574650053616D704F
:1002C0006C696E6720696E74657276616C20287344
:1002D000293A2000436F756C64206E6F7420676547
:1002E000742074696D652066726F6D206861726438
:1002F00077617265205254430A0053657420737904
:100300007374656D20636C6F636B2066726F6D2014
:100310006861726477617265205254430A005379B0
:100320007374656D20636C6F636B3A2000436F6E6E
:100330006669677572696E672073797374656D207D
:10034000636C6F636B0A004D43503739343178204A
:1003500063616C6962726174696F6E3A20004E6FFE
:100360002052544320666F756E640A00466F756EA6
:100370006420525443206174206164647265737315
:10038000203078004175746F70726F62696E6720FB
:10039000746F2066696E64205254430A006D656173
:1003A0006E0A006D656469616E0A007472696D6D34
:1003B000656420006E756D53616D706C65733A20D5
:1003C000000A6167677265676174653A200041449D
:1003D000435B005D3A204F78002063682E200020A8
:1003E0006D697373696E670A002070726573656E5C
:1003F000740A00464C433130300020706F776572CC
:100400002D75702064656C617920286D73293A2000
:10041000002070726573656E7400206E6F74004901
:100420006E697469616C6973696E672000484D413B
:1004300043206B65793A200046616E2068797374B9
:100440002E3A200046616E2074656D702E3A2000B1
:100450000A4669726D776172653A204D6167436C37
:100460006F75642D302E3238610A465F4350553A1D
:100470002031324D487A0A436F6D6D733A205735FB
:10048000353030287764745F7265736574290A4665
:10049000656174757265733A20464C433130302083
:1004A000474E53530A005243206F73632E3A200085
:1004B0000A434B53454C3A20000A4D435553523A98
:1004C00020004C6F7720667573653A20000A4869F2
:1004D000676820667573653A20000A457874656E12
:1004E00064656420667573653A20006D61696E7499
:1004F00061696E2072657475726E65642000726544
:1005000062696E640072656E657765640066616934
:100510006C65642C207265626F6F74696E67006F22
:100520006B0044484350206C656173652000416353
:10053000746976652073657474696E67733A0A002E
:100540004E6F2072656D6F746520686F73742C2018
:10055000747279696E6720666F7220313230732051
:10056000746F20636F6D6D756E696361746520745F
:100570006F200043616E6E6F74207265736F6C76CE
:10058000652000207265736F6C76657320746F2030
:100590000044484350206661696C65642C20726594
:1005A000626F6F74696E672E2E2E0A005265717528
:1005B000657374696E672049500A005573696E67E8
:1005C000207374617469632049500A0020205265C9
:1005D0006D6F746520686F73746E616D653A20008D
:1005E000454550524F4D2073657474696E67733A78
:1005F0000A20204D41433A20000A202052656D6FA9
:1006000074653A2000286E6F6E65290020204C6FBB
:1006100063616C3A20000A20204D61736B3A200020
:100620000A202047573A20000A2020444E533A20FF
:1006300000496E7374616C6C204657207265737547
:100640006C743A20004669726D776172652043527E
:10065000433A20000A446F776E6C6F616420435206
:10066000433A20000A435243207374617475733A0D
:100670002000636F70696564207061727469616CD9
:100680002073706D42756666657220746F20666CAB
:100690006173683A20004669726D77617265206403
:1006A0006F776E6C6F616420666F72200020636FDD
:1006B0006D706C657465640A00636F7069656420B1
:1006C00073706D42756666657220746F20666C612A
:1006D00073683A20004572617365642074656D70BB
:1006E0006F72617279206170706C69636174696F97
:1006F0006E206172656120696E20666C617368208E
:100700000050726F63657373696E6720465720757A
:10071000706772616465200055706772616465205E
:100720006669726D7761726520746F2000416C722A
:10073000656164792068617665206669726D7761AC
:1007400072652076657273696F6E2000526563650D
:100750006976656420757067726164652066697288
:100760006D77617265207461673A200053414D5086
:100770004C494E4720494E54455256414C2043481F
:10078000414E4745442120005365727665722074BE
:10079000696D653A20000A4F75722074696D653A7B
:1007A00020000A54696D65206572726F7220286F8F
:1007B00075722D736572766572293A200054696DE1
:1007C00065207365742066726F6D2073657276653F
:1007D000720A003D3D3D3D0A003D3D3D3D0A5265EA
:1007E00073706F6E73653A0A0078A46AD756B7C7FC
:1007F000E8DB702024EECEBDC1AF0F7CF52AC687A2
:1008000047134630A8019546FDD8988069AFF74454
:100810008BB15BFFFFBED75C892211906B937198FF
:10082000FD8E4379A62108B44962251EF640B340E7
:10083000C0515A5E26AAC7B6E95D102FD65314449C
:100840000281E6A1D8C8FBD3E7E6CDE121D6073780
:10085000C3870DD5F4ED145A4505E9E3A9F8A3EFD4
:10086000FCD9026F678A4C2A8D4239FAFF81F671F2
:100870008722619D6D0C38E5FD44EABEA4A9CFDE58
:100880004B604BBBF670BCBFBEC67E9B28FA27A14F
:10089000EA8530EFD4051D880439D0D4D9E599DB39
:1008A000E6F87CA21F6556ACC4442229F497FF2ABF
:1008B00043A72394AB39A093FCC3595B6592CC0C3E
:1008C0008F7DF4EFFFD15D84854F7EA86FE0E62C2D
:1008D000FE144301A3A111084E827E53F735F23A6C
:1008E000BDBBD2D72A91D386EB00000000000000E8
:1008F0000108030200090A000000000000000004D3
:1009000007000000000000000001020408010204CA
:100910000840201020408080402010080402011070
:100920008080402010080402010404040402020232
:100930000204040202020203030303030303030489
:10094000040101010101010101000022002500282C
:10095000002B0000002100240027002A00007B0B50
:100960005A0EFF26C339C54160430F46214FAC4F95
:100970008455B959C759D259AF5BBA5B6D5F83656E
:100980003066E86611241FBECFEFD0E4DEBFCDBFD6
:1009900013E0A0E0B1E0E0E9F7ED00E00BBF02C03A
:1009A00007900D92AE3BB107D9F72EE2AEEBB3E064
:1009B00001C01D92AC37B207E1F719E0C4E8D9E0F5
:1009C00000E006C022970109FE010BBF0E94A36947
:1009D000CE35D10780E00807A9F70E94D8680C94AB
:1009E000C66B0C9400000F931F93CF93DF93DB0132
:1009F000ED018C01222717FD2095322F2BBFF80126
:100A00000791002331F011962881201309C0019627
:100A1000EFCF4115510531F0FA01B183A08302C037
:100A200080E001C081E0DF91CF911F910F91089587
:100A3000EF92FF920F931F93CF93DF93EC018B0103
:100A40007A016FE471E00E945867E00EF11E011513
:100A500080E1180738F50E151F0521F161E671E0F8
:100A6000CE010E945867A80160E070E020E130E00C
:100A7000CE010E94EC676FE571E0CE010E945867DD
:100A8000C8010E94A36B482F50E060E070E020E1B5
:100A900030E0CE010E94EC67CE010E946B670F5FD1
:100AA0001F4FD5CFCE01DF91CF911F910F91FF90B6
:100AB000EF9008952F923F924F925F926F927F92A4
:100AC0008F929F92AF92BF92CF92DF92EF92FF925E
:100AD0000F931F93CF93DF93CDB7DEB72F970FB64A
:100AE000F894DEBF0FBECDBF6C017B01805B9F4FD2
:100AF0009E878D87D701ED91FC910480F581E02DD3
:100B0000C7010995892B09F4F7C1D701ED91FC9133
:100B10000680F781E02DC7010995482F8D3019F027
:100B20008A3009F0B5C1ED85FE8520813181C2167C
:100B3000D30608F0ADC1AE01455F5F4FB6018DE24F
:100B400091E00E94F304882309F44BC040E050E098
:100B5000BE016F5F7F4F8B859C850E94026A2B01CF
:100B60003C016115F0E17F078105910508F0B4C1F2
:100B7000E981FA812B853C85E217F30709F4ACC1C2
:100B800020812C3209F0A8C1CF0101969A83898374
:100B90009C878B8740E050E0BE016F5F7F4F0E94D3
:100BA000026A16161706180619060CF095C193016D
:100BB0008201060F171F281F391F0115104121053B
:100BC00031050CF089C1E981FA812B853C85E2175A
:100BD000F30709F481C1208121117EC1AB01B2016B
:100BE00077C1AE01455F5F4FB60180E291E00E94A0
:100BF000F304882309F452C040E050E0BE016F5F67
:100C00007F4F8B859C850E94026A4B015C01E981C4
:100C1000FA818B859C85E817F907E9F180818C3290
:100C2000D1F5240135011201820108191909411475
:100C300090E1590661047104A0F489819A810196BA
:100C40009A8389839C878B8740E050E0BE016F5F69
:100C50007F4F0E94026A6F3F71058105910531F057
:100C600028F0B201601B710BA80132C1E981FA8141
:100C70002B853C85E217F307A1F320812C3211F07C
:100C80002111EFCFC1010E94B16B8FEF481A580AB2
:100C9000680A780AC8CF64E671E020C1AE01455FFA
:100CA0005F4FB60184E191E00E94F304882391F044
:100CB00067E871E0C7010E945867C7010E946B672F
:100CC000D701ED91FC910284F385E02DC7010995D0
:100CD0000E94C325AE01455F5F4FB6018CEF90E0E7
:100CE0000E94F304882309F47EC0EB85FC85CF01C4
:100CF00001969C878B8720812D3309F045C040E009
:100D000050E0BE01675F7F4F0E94026A1616170609
:100D100018061906CCF5E985FA852B853C85E2177E
:100D2000F30791F1208121112FC08B019C010F70DD
:100D30001127222733274BE0000F111F221F331FDB
:100D40004A95D1F7AB01BC01407F66277727E4E0E5
:100D50007595679557954795EA95D1F7CE01019618
:100D60000E944E3D66EF74E0CE0101960E946F3EF8
:100D700081110AC0BE016F5F7F4F8EEE94E00E942A
:100D80006F3E882309F4AEC04090FE045090FF04EB
:100D9000609000057090010584E0440C551C661CB1
:100DA000771C8A95D1F78091020590910305A09157
:100DB0000405B09105052BE0B595A7959795879506
:100DC0002A95D1F7480E591E6A1E7B1E65E971E00F
:100DD000C7010E9458672AE030E0B301A201C701B1
:100DE0000E94EC6739C0AE01455F5F4FB60182EFEC
:100DF00090E00E94F304882399F1EB85FC85CF01F4
:100E000001969C878B8720812D33C9F440E050E008
:100E1000BE016F5F7F4F0E94026A6F3F71058105BF
:100E2000910509F060F4E981FA812B853C85E21790
:100E3000F30729F02081211102C06093B32A109199
:100E4000B32A67EE70E0C7010E9435674AE050E0C0
:100E5000612FC7010E944B68C7010E946B670EC0DB
:100E60006AEC70E0C7010E943567B601C7010E94B5
:100E7000586764EE70E0C7010E943567F60140E5EF
:100E800011924A95E9F7AD85BE85CD92DC9232CEBE
:100E9000ED85FE850081118198012C193D092035D1
:100EA00031050CF027CE842F992787FD90954F8729
:100EB0000E94386B4F85892B09F41CCE98012F5F57
:100EC0003F4FAD85BE852D933C93F801408312CEF4
:100ED000C7010E941805D2CF6EEA71E0C7010E94D7
:100EE0005867CCCFFE013196AEEFB4E088E00190B8
:100EF0000D928A95E1F748CF2F960FB6F894DEBF92
:100F00000FBECDBFDF91CF911F910F91FF90EF905A
:100F1000DF90CF90BF90AF909F908F907F906F9019
:100F20005F904F903F902F9008950F931F93CF9312
:100F3000DF93EC01CB018A01BE01685F7F4F44E083
:100F40000E94702EBE01645F7F4F42E0C801DF91B6
:100F5000CF911F910F910C94702EEF92FF920F93EF
:100F60001F93CF93DF9300D0CDB7DEB77C018B0109
:100F7000413082E0580788F060ED71E080913A02DC
:100F800090913B0249835A830E94816781E090E0FF
:100F9000F701918380835A814981B801C7018E5D31
:100FA0009D4F0E940161F70111821082E65FFD4FA3
:100FB00080819181049711F4118210820F900F901B
:100FC000DF91CF911F910F91FF90EF9008952F9295
:100FD0003F924F925F926F927F928F929F92AF92C9
:100FE000BF92CF92DF92EF92FF920F931F93CF9316
:100FF000DF93CDB7DEB762970FB6F894DEBF0FBEB2
:10100000CDBF362E272E4A01FA01C080D180A62EF0
:10101000B72E10E09C01245D3D4F3A8B298B2C01AB
:1010200033ED431A3DEF530A3E0141E1640E711C5A
:10103000C114D10419F160E0262F30E0C601E3E0CD
:10104000CE16D10410F082E090E02817390790F412
:10105000F501E20FF31F408150E0F901EE5FFC4F14
:101060008081992787FD90954817590709F05BC043
:101070006F5FE2CF32E0C316D10410F480E060C0AD
:10108000F4E0CF16D10408F441C0F501838180FF5C
:101090004FC0F6E0CF16D104C8F1F501248130E04D
:1010A000322F22278581280F311DC216D30670F1F9
:1010B000E989FA8940817901F8E0EF1AF0EEFF0A38
:1010C00083E0EE0CFF1C8A95E1F700E010E028E0D9
:1010D000429FA0011124F201608171819501CE012E
:1010E00001960E941A29DE011996F6013897EA0D39
:1010F000FB1D81E03D91219191E0321390E0892325
:10110000A615B705B9F711E0882391F0F4018081A5
:101110009181C816D90699F0A601B501832D922DAB
:101120000E945C6B0CC042E0C416D10408F4A6CF48
:10113000FFEFAF1ABF0A21E0C21AD10879CF812F81
:1011400062960FB6F894DEBF0FBECDBFDF91CF9190
:101150001F910F91FF90EF90DF90CF90BF90AF90D5
:101160009F908F907F906F905F904F903F902F90C7
:1011700008954F925F926F927F928F929F92AF925B
:10118000BF92CF92DF92EF92FF920F931F93CF9374
:10119000DF93CDB7DEB767970FB6F894DEBF0FBE0B
:1011A000CDBF8C017B013A016C0124EFC21A2DEFF7
:1011B000D20AD6018D919C91009741F484E090E091
:1011C000F8019183808380E090E07EC2D8011D9277
:1011D0001C92DC01ED91FC910288F389E02D0995C8
:1011E0005801B6EFAB1ABDEFBB0AF50180819181C2
:1011F0008130910509F45AC01CF4892B49F062C270
:101200008230910509F463C0039709F4F6C05AC20D
:101210007801FEEDEF1AFDEFFF0AC7010E94DB60C7
:10122000811150C240E052E0B8016E5F7F4FC701AC
:101230000E941D619C01780182E0E80EF81ED70132
:101240002D933C932115310509F43CC2F801EC5F64
:10125000FD4F1182108281E090E0F501918380833F
:10126000E091E728F091E828309709F42BC2C901F2
:10127000BF010E940469882309F424C2AF01481BFE
:1012800051096A01C20ED31EF1E0CF16F2E0DF066B
:1012900008F018C2C901029660E070E0800F911F4B
:1012A0000E946E6BD701CD92DC920CC2F601808158
:1012B0009181DC01ED91FC910484F585E02D099587
:1012C000882309F4FFC182E090E0F501F9C17801BB
:1012D000FCEFEF1AFDEFFF0AD7018D919C91F80109
:1012E000EE5FFD4F4F01892B71F48091B32A8A3054
:1012F00051F440913A0250913B0260817181C801E2
:1013000002960E94002FD7018D919C91892B51F458
:10131000F60180819181DC01ED91FC910488F589D1
:10132000E02D0995F60180819181DC01ED91FC9120
:10133000008CF18DE02D0995009719F4F40180815E
:101340009181F601A081B1812D913C911197F70116
:10135000608171816E5F7F4F600F711FF901228183
:101360003381AC01CD01F9010995D7012D913C9153
:101370001197280F391F2D933C93F401808191819F
:101380002817390709F09EC1D6018D919C91DC0187
:10139000ED91FC910688F789E02D0995F801EA5F47
:1013A000FD4F118210827801B2EFEB1ABDEFFB0AFC
:1013B00080ED97E0A0E0B0E0F70180839183A28305
:1013C000B38381E090E0918780870E945862D701C3
:1013D0004D905D906D907C90640D751D861D971DE0
:1013E000F701648375838683978336978FEF9FEF2A
:1013F0009183808383E090E07DC04801B2EF8B1A37
:10140000BDEF9B0AF40180859185892B51F40E94E0
:101410006462D40114962D913D914D915C91179782
:1014200007C00E945862F4012481358146815781AA
:10143000621B730B840B950B60957095809590954E
:10144000662797FD6395772788279927662309F4F0
:1014500055C0C0903A02D0903B0261EE71E0C601E7
:101460000E94816782E090E0D8018D939D937D0179
:101470004801B2E08B0E9B1EF4014081B701CE0102
:1014800001960E94F72F8C85823038F58F5F8C870C
:10149000F801E45DFD4F20813196808191819F8725
:1014A0008E872D8720E030E040E052E0B701CE018A
:1014B00001960E945B33D4011D921C92F801468173
:1014C00050E0542F44278781480F511DB701C801B0
:1014D0008E5D9D4F0E9401610BC064E771E0C60103
:1014E0000E943567A60160E072E0C7010E94002FEC
:1014F00084E090E0D5018D939C93E4C0F601808157
:101500009181DC01ED91FC91028CF38DE02D099528
:10151000F60180819181DC01ED91FC910480F581DF
:10152000E02D09952C01009709F4CCC04801BAEFD1
:101530008B1ABDEF9B0AF401808191818615970576
:1015400060F081E090E0D8018D939C9334971182F4
:101550001082F50111821082B5C0D6018D919C9147
:10156000DC01ED91FC910680F781E02D0995F401F5
:1015700020813181A9014F5F5F4F51834083F70183
:10158000E20FF31F8083F1E04F1A510831F7A401F5
:10159000B701C8010E94E707882309F493C06801D6
:1015A00022E0C20ED11CAE014A5E5F4FBE01605FF9
:1015B0007F4FC6010E949507AE014C5E5F4FBE0192
:1015C0006F5F7F4FC7010E949507D70116962C9138
:1015D000169730E0322F222717968C91280F311D55
:1015E000F801808590E0982F88274185840F911D10
:1015F0002817390709F042C0488959896A897B89C7
:1016000089819A81AB81BC81481759076A077B079A
:10161000A9F52E893F898C899D892817390771F58D
:10162000D70114962C91149730E0322F222715966B
:101630008C91280F311D868190E0982F8827478153
:10164000840F911D2E0D3F1DD9011A978C0D9D1DE4
:10165000FC013A975C914081541310C01196319669
:101660002C91808128130AC0F801EE5FFD4F118292
:101670001082F5011182108281E025C0C0903A02EB
:10168000D0903B026DE571E0C6010E946F6769E38F
:1016900071E0C6010E946F67D4016D917C91A60133
:1016A000C7010E94002F6DE571E0C6010E946F67BF
:1016B000F40111821082F801E85FFD4F8FEF9FEF78
:1016C0009183808380E090E067960FB6F894DEBF48
:1016D0000FBECDBFDF91CF911F910F91FF90EF9083
:1016E000DF90CF90BF90AF909F908F907F906F9042
:1016F0005F904F90089581EF91E09093BF038093A6
:10170000BE0380ED91E09093C1038093C00381EE0E
:1017100091E09093C3038093C203089581E0809386
:1017200005016093040108950F931F93FC018181CB
:10173000882339F18091AD29882351F18091B62910
:101740009091B729892B19F40E94646202C00E940B
:1017500058620091B2291091B3292091B429309197
:10176000B529601B710B820B930B6095709580956A
:101770009095662797FD6395772788279927662395
:1017800019F01092AD2938C081E08093B82903C0C8
:1017900081E08093AD2980EB94E0A0E0B0E08093FD
:1017A000AE299093AF29A093B029B093B12981E0DD
:1017B00090E09093B7298093B6298091B6299091B3
:1017C000B729892B19F40E94646202C00E945862F2
:1017D0000091AE291091AF292091B0293091B12903
:1017E000600F711F821F931F6093B2297093B329FA
:1017F0008093B4299093B5291F910F910895CF93A9
:10180000DF93EC01FB0124813581408151816281AC
:1018100073810E94EC67CE01DF91CF9108950F9301
:101820001F93CF93DF93EC01188219821A821B82D7
:1018300081E090E0998788870E9458620881198129
:101840002A813B81600F711F821F931F6C837D83F0
:101850008E839F83DF91CF911F910F91089584B75D
:101860008093CF0414BE88E10FB6F8948093600093
:10187000109260000FBE08950F931F93CF93DF93D4
:10188000CDB7DEB728970FB6F894DEBF0FBECDBF39
:10189000CE0101960E943A3C80910401882341F0D8
:1018A000BE016F5F7F4F8FE09CE20E94E83C0CC05E
:1018B00000E010E020E030E0AE014F5F5F4F60E0FD
:1018C0008FE09CE20E947A3B6EEF74E0CE010196BD
:1018D0000E94484100E010E02EE83BE0AE014F5F7F
:1018E0005F4F60E08FE09CE20E94BB3F28960FB6FE
:1018F000F894DEBF0FBECDBFDF91CF911F910F9146
:101900000895CF93DF9300D0CDB7DEB78A830E94CE
:1019100055618A819091B60091FDFCCF9091B00005
:10192000998348E128E130E059E29091D004911187
:1019300033C0F89497B3976097BB78949091B600B2
:1019400091FDFCCF99819093B0009091B60091FDEC
:10195000FCCFF89493B7917F982B93BF93B7916086
:1019600093BF0FB6F89440936000109260000FBED2
:1019700095B7906695BF9F7D95BF7894889593B7EE
:101980009E7F93BF78940FB6F894A895209360003B
:101990000FBE50936000C9CF8091BC008B7E8093B6
:1019A000BC008091BC0084608093BC000F900F90BD
:1019B000DF91CF910895CF92DF92EF92FF920F9334
:1019C0001F93CF93DF93CDB7DEB728970FB6F89468
:1019D000DEBF0FBECDBF7C016B011092060100E09F
:1019E00010E0980140E050E0BA01CE0101960E945B
:1019F0004E3D88E0FE013196A0E1B5E001900D92E8
:101A00008A95E1F71092EC041092D2041092D1045E
:101A100060E0809118010E94936301E51EE22EE0D0
:101A20003FE04AE35DE2B601C7010E947E2E80914D
:101A3000B32A8A3091F469ED77E08AE39DE20E944F
:101A400035674AE35DE2B601C7010E94002F63EDEE
:101A500077E08AE39DE20E94356760EB76E08FE0F5
:101A60009CE20E94E83C28960FB6F894DEBF0FBEB9
:101A7000CDBFDF91CF911F910F91FF90EF90DF903D
:101A8000CF900895EF92FF920F931F93CF93DF9320
:101A9000CDB7DEB7A5970FB6F894DEBF0FBECDBFAA
:101AA0007C018B01CE0101964CA35DA30E94AD6623
:101AB000CE0109960E943C5BB701CE0101960E94BF
:101AC00036554CA15DA1B801CE0101960E949C57EC
:101AD000A5960FB6F894DEBF0FBECDBFDF91CF91B4
:101AE0001F910F91FF90EF9008952F923F924F9288
:101AF0005F926F927F928F929F92AF92BF92CF929E
:101B0000DF92EF92FF920F931F93CF93DF93CDB7A6
:101B1000DEB762970FB6F894DEBF0FBECDBF4C01A3
:101B20003A018FEA93E09A838983F8012280338017
:101B3000448055802B823C824D825E8298878F83C1
:101B4000F901028113812481358109871A872B8746
:101B50003C879E878D87FB0182819381A481B5811B
:101B60008F87988BA98BBA8B6CE076E0C4010E94BA
:101B70003567BE01635F7F4FC4010E9461676AE3FE
:101B8000C4010E945A674AE050E0B301C4010E94B8
:101B9000696866E176E0C4010E943567BE01695F4D
:101BA0007F4FC4010E94616760E276E0C4010E9439
:101BB0003567BE016F5F7F4FC4010E94616768E2B5
:101BC00076E0C4010E943567870133E0732E20E080
:101BD0004FEAE42E43E0F42EF80182819381A48140
:101BE000B581892B8A2B8B2BD9F0222339F0609178
:101BF000190170911A01C4010E945867FA82E982A2
:101C0000F80182819381A481B5818B839C83AD830C
:101C1000BE83BE016F5F7F4FC4010E94616721E0F8
:101C20007A940A5F1F4F7110D7CF211105C065E06C
:101C300076E0C4010E9435678FEA93E09A83898336
:101C4000F60182819381A481B5818B839C83AD83CE
:101C5000BE8369EF75E0C4010E943567BE016F5F06
:101C60007F4FC4010E9461676AE3C4010E945A6702
:101C70004AE050E0B501C4010E946968C4010E94B5
:101C80006B6762960FB6F894DEBF0FBECDBFDF91D3
:101C9000CF911F910F91FF90EF90DF90CF90BF9069
:101CA000AF909F908F907F906F905F904F903F90FC
:101CB0002F9008950F931F9300E020E040E060E034
:101CC0008EEE9AE20E94B766809143038093EC2ADD
:101CD000809144038093ED2A84E690E00E94A36BF8
:101CE0008093EB2A8FE690E00E94A36B8093EA2A10
:101CF00084EB9AE20E944F5F88ED90E00E94AB6B0C
:101D00009093B22A8093B12A8AEB99E20E942434FC
:101D10008CE590E00E94A36B91E0811101C090E0FE
:101D20009093B9298EEA99E20E940F0C00E010E02E
:101D3000980141E050E060E070E085EA99E20E949D
:101D40004E3D89EE98E290933A298093392910927A
:101D5000BB081092BA081092C3081092C2081092E1
:101D6000C5081092C40886EC98E00E940F0C80ED24
:101D700098E00E940F0C40E050E267EE78E08AEDB8
:101D800098E00E94E95F80EB96E00E943A3C00E018
:101D900010E0980141E050E060E070E088E195E0FB
:101DA0000E944E3D00E010E0980140E050E0BA0192
:101DB00080E195E00E944E3D00E010E0980142E095
:101DC00050E060E070E086E095E00E944E3D00E06B
:101DD00010E098014EE150E060E070E08EEF94E09A
:101DE0000E944E3D00E010E0980145E050E060E0C8
:101DF00070E086EF94E00E944E3D00E010E0980114
:101E000048E552E060E070E08EEE94E00E944E3DC6
:101E100086EC93E01F910F910C943A3C2F923F92E5
:101E20004F925F926F927F928F929F92AF92BF92EA
:101E3000CF92DF92EF92FF920F931F93CF93DF9396
:101E4000CDB7DEB7E6970FB6F894DEBF0FBECDBFB5
:101E50008B017A01590190E0FC013897ED30F105D2
:101E600008F0D8C3EA5BFF4F0C946D698091AD29EF
:101E70008111D0C3CE0181960E943A3CBE016F5DB4
:101E80007F4F8FE09CE20E94E83C44E0B801CE0125
:101E900089960E94702EB8016C5F7F4F42E0CE01A0
:101EA0008D960E94702E0DA51EA520E030E049A55C
:101EB0005AA56BA57CA5CE0149960E944E3DBE0158
:101EC0006F5D7F4FCE0141960E94443CBE01675E2C
:101ED0007F4FCE0141960E94A2410D891E892F8914
:101EE000388D37FF07C030952095109501951F4F0D
:101EF0002F4F3F4F49895A896B897C8977FF07C0EB
:101F000070956095509541955F4F6F4F7F4FCE0113
:101F100009960E944E3DBE01675F7F4F88E195E0C4
:101F20000E946F3E882309F43FC0BE01675E7F4F69
:101F30008FE09CE20E94F23ABE01675F7F4F8EEF16
:101F400094E00E946F3E8823C9F0BE01675E7F4F18
:101F5000CE0101960E94443C6EEF74E0CE010196E2
:101F60000E94484100E010E02EE83BE0AE014F5FE8
:101F70005F4F60E08FE09CE20E94BB3F6DEB77E03B
:101F80008AE39DE20E943567BE016F5E7F4FCE01FE
:101F900001960E94764188E0FE013196A0E1B5E00D
:101FA00001900D928A95E1F78091B32A823008F46E
:101FB00031C38D899E89AF89B88D8BAB9CABADAB9E
:101FC000BEAB2090190130901A01C988DA88EB88DD
:101FD000FC888DA09EA0AFA0B8A449A05AA06BA079
:101FE0007CA00DA51EA589A59AA5ABA5BCA58FA70C
:101FF00098ABA9ABBAAB68E877E08AE39DE20E94B0
:1020000035672AE030E04FA558A969A97AA98AE383
:102010009DE20E943E6860E28AE39DE20E945A6768
:102020004AE050E0B8018AE39DE20E94696866E9EF
:1020300077E08AE39DE20E9435672AE030E0B30151
:10204000A2018AE39DE20E94EC6760E28AE39DE2DE
:102050000E945A672AE030E0B501A4018AE39DE2BC
:102060000E94EC6762EA77E08AE39DE20E943567AE
:102070002AE030E0B701A6018AE39DE20E94EC6706
:10208000B1018AE39DE20E9458672AE030E04BA943
:102090005CA96DA97EA98AE39DE20E94EC678AE3B0
:1020A0009DE26EC042E0CE0109960E94702E4985E5
:1020B0005A858A010F701127102F0027110F110F59
:1020C000110F20E030E0F4E056954795FA95E1F7DE
:1020D00060E070E0CE0101960E944E3D88E0FE0176
:1020E0003196AEEFB4E001900D928A95E1F766EF7C
:1020F00074E08EEF94E00E946F3E882321F088E028
:10210000E6EFF4E00BC06EEF74E08EEE94E00E9418
:102110006F3E882349F088E0EEEEF4E0AEEFB4E0E5
:1021200001900D928A95E1F7C0900205D0900305C9
:10213000E0900405F09005050091190110911A0135
:102140004090FE045090FF046090000570900105DF
:102150006CE677E0C5010E9435672AE030E0B30104
:10216000A201C5010E94EC67B801C5010E94586731
:102170002AE030E0B701A601C5010E94EC67C50165
:102180000E946B6747C22EE088E190E00FB6F8949A
:10219000A895809360000FBE20936000FFCF8091D0
:1021A000DB04811137C280E1FB01ABEDB4E00190AB
:1021B0000D928A95E1F71092EB046CE477E08AE3E4
:1021C0009DE20E9435676BED74E08AE39DE20E9418
:1021D00058678AE39DE20E946B6740E150E06AE243
:1021E00072E08BED94E00E94856B892BB1F4109224
:1021F000DB046DE277E08AE39DE20E9435676AE2E4
:1022000072E08AE39DE20E9458678AE39DE20E94A1
:102210006B6781E08093EC04FDC168E177E08AE3BD
:102220009DE20E9435676BED74E08AE39DE20E94B7
:1022300058678AE39DE20E946B67B801605F7F4F39
:1022400042E089ED94E00E94702EB8016E5E7F4FEF
:1022500042E087ED94E00E94702E1092D604109216
:10226000D504D8C142E0605F7F4FCE0109960E943D
:10227000702E40E150E0B8018BED94E00E94856B38
:10228000892B09F0C7C1E090D504F090D604898568
:102290009A85E816F90609F0BDC18091D90490919C
:1022A000DA04E816F90608F0B5C19E2D9170992E52
:1022B00061E077E08AE39DE20E9435674AE050E002
:1022C000B7018AE39DE20E94696860E28AE39DE2C9
:1022D0000E945A674AE050E0692D8AE39DE20E941D
:1022E0004B688AE39DE20E946B67A92CB12CD50153
:1022F000B695BA2FAA27B795A795A153BC4FF80159
:10230000729680E801900D928A95E1F7A1E09A1209
:102310004FC08091D5049091D6040197A1F40E94FA
:102320008F24182F65ED76E08AE39DE20E943567E1
:102330004AE050E0612F8AE39DE20E944B688AE305
:102340009DE20E946B67C090D504D090D604CA1855
:10235000DB08E12CF12C67E0CC0CDD1CEE1CFF1C33
:102360006A95D1F720E04FEC53E0C701B6010E9417
:10237000CD24182F69EB76E08AE39DE20E94356751
:102380002AE030E0B701A6018AE39DE20E943E68A0
:1023900060E28AE39DE20E945A674AE050E0612FC2
:1023A0008AE39DE20E944B688AE39DE20E946B678C
:1023B0002091D5043091D6048091D9049091DA040B
:1023C00001972817390709F0B2C066E976E08AE379
:1023D0009DE20E9435676BED74E08AE39DE20E9406
:1023E00058676DEA76E08AE39DE20E943567B1E0C6
:1023F0009B16E9F140E850E06FEF70E08FE494E065
:102400000E946E6BC090D504D090D604CA18DB0829
:10241000E12CF12C57E0CC0CDD1CEE1CFF1C5A9576
:10242000D1F720E04FEC53E0C701B6010E94CD2464
:10243000182F62E776E08AE39DE20E9435672AE082
:1024400030E0B701A6018AE39DE20E943E6860E2A7
:102450008AE39DE20E945A674AE050E0612F8AE3D6
:102460009DE20E944B688AE39DE20E946B67CE0169
:1024700001960E945D25D82E09811A81E090D7042B
:10248000F090D80465E476E08AE39DE20E94356727
:102490004AE050E0B7018AE39DE20E94696864E582
:1024A00076E08AE39DE20E9435674AE050E0B80199
:1024B0008AE39DE20E94696864E676E08AE39DE231
:1024C0000E9435674AE050E06D2D8AE39DE20E944C
:1024D0004B688AE39DE20E946B6764E670E080E0EF
:1024E00090E00E9485628091D7049091D8040E9468
:1024F0006D25182F61E376E08AE39DE20E9435673F
:102500004AE050E0612F8AE39DE20E944B688AE333
:102510009DE20E946B678AE39DE20E94366468EE4A
:1025200073E080E090E00E9485620E94C3252F5FE7
:102530003F4F3093D6042093D5046CC042E083ED26
:1025400094E00E94702EB8016E5F7F4F42E081EDF3
:1025500094E00E94702E5EC042E0CE0101960E947F
:10256000702E6801E2E0CE0ED11C89819A81909391
:10257000D4048093D304C70102979093D20480932C
:10258000D1040E0D1F1DC016D10609F443C0898168
:102590009A819C01205231092031310520F0D60169
:1025A0006C910E94B16B89819A8101969A8389838B
:1025B000BFEFCB1ADB0AE7CF41E0CE0109960E94BC
:1025C000702E8985882331F1B8016F5F7F4F41E01C
:1025D000CE0101960E94702E898181FB992790F986
:1025E000282F217089853FEF380F303198F4809380
:1025F000AE2A2093AF2A9093B02A0CC041E0CE01BE
:1026000001960E94702E81E09981911101C080E0B5
:102610008093ED0480E0E6960FB6F894DEBF0FBE1F
:10262000CDBFDF91CF911F910F91FF90EF90DF9081
:10263000CF90BF90AF909F908F907F906F905F9062
:102640004F903F902F9008956F927F928F929F921C
:10265000AF92BF92CF92DF92EF92FF920F931F93B0
:10266000CF93DF93CDB7DEB7CC58D1090FB6F8942E
:10267000DEBF0FBECDBFA89546E050E060E770E03A
:10268000CE018D579F4F0E94936B44E050E060E570
:1026900070E0CE0187579F4F0E94936BBE01675732
:1026A0007F4FCE0183589F4F0E94CD6644E050E09B
:1026B00060EC70E0CE0187579F4F0E94936BBE0184
:1026C00067577F4FCE0189589F4F0E94CD6644E0E7
:1026D00050E064EC70E0CE0187579F4F0E94936BEF
:1026E000BE0167577F4FCE018F589F4F0E94CD6626
:1026F000CE018F5B9F4F0E94AD6681E490E08C0F0E
:102700009D1F06960E94AD6681E490E08C0F9D1F90
:102710000C960E94AD66CE018F5B9F4F7C0108EC4A
:1027200010E044E050E0B801CE0187579F4F0E946F
:10273000936BBE0167577F4FCE0101960E94CD6615
:102740008B819C81AD81BE81F70182839383A483B9
:10275000B5830C5F1F4FF6E0EF0EF11C043D110531
:1027600001F744E050E064E570E0CE0187579F4FE9
:102770000E94936BBE0167577F4FCE0185599F4FD3
:102780000E94CD6688E590E00E94AB6B4C018AE523
:1027900090E00E94AB6B3C0140E450E060E870E0E8
:1027A000CE0101960E94936B60EE75E08AE39DE294
:1027B0000E9435678E010D571F4FB12C80E1E82E26
:1027C000F12C6801F8018081803128F460E38AE30C
:1027D0009DE20E945A670F5F1F4FF601808190E0D3
:1027E000A0E0B0E067968CAF9DAFAEAFBFAF67978C
:1027F0006996FFAEEEAE6997BE016D5A7F4F8AE3D0
:102800009DE20E94FF0BB394F6E0BF1631F06AE33D
:102810008AE39DE20E945A67D4CF8AE39DE20E9438
:102820006B675301CE0185599F4F6C01FE01EF5B31
:10283000FF4F7F018E010F581F4F9E0129583F4FB8
:10284000A401BE0163587F4F8AE39DE20E94750D8B
:102850006CEC75E08AE39DE20E943567BE016F5F14
:102860007F4F8AE39DE20E9458678AE39DE20E94BF
:102870006B67A895C158DF4F88819981AA81BB8178
:10288000CF57D040892B8A2B8B2B09F45EC06BEB82
:1028900075E08AE39DE20E9435672FEA33E0659692
:1028A0003FAF2EAF6597ED968CAD9DADAEADBFAD94
:1028B000ED9769968CAF9DAFAEAFBFAF69976B9642
:1028C0003FAF2EAF6B97E7968CAD9DADAEADBFAD74
:1028D000E7976F968CAF9DAFAEAFBFAF6F97A196E6
:1028E0003FAF2EAFA19727968CAD9DADAEADBFADDE
:1028F0002797A5968CAF9DAFAEAFBFAFA597A79614
:102900003FAF2EAFA797C158DF4F88819981AA8129
:10291000BB81CF57D040AB968CAF9DAFAEAFBFAFB2
:10292000AB97CE018D5A9F4F7C01085111099E0132
:10293000215A3F4FAE014B595F4FBE016D577F4F3C
:102940008AEE9CE20E94DA5845C06CEA75E08AE3A0
:102950009DE20E943567BE016D577F4F8AEE9CE273
:102960000E944F58892BB1F461E975E08AE39DE23A
:102970000E9435678AE39DE20E9436642EE088E17A
:1029800090E00FB6F894A895809360000FBE209356
:102990006000FFCF29E288E190E00FB6F894A89597
:1029A000809360000FBE209360006AEE7CE2CE014F
:1029B0008D5A9F4F0E94A95969968CAD9DADAEADC1
:1029C000BFAD699727968CAF9DAFAEAFBFAF2797CE
:1029D00010921701A8958981992787FD90950E94EB
:1029E000386B892B09F492C0CE01875A9F4F0E9401
:1029F000AD66B3E0BB2EA12C11E4E12EF12CEC0E60
:102A0000FD1E92E1E90EF11C0FEAC02E03E0D02E6C
:102A10008E010F5B1F4FA895F80182819381A481DD
:102A2000B5810097A105B10509F16596DFAECEAE7F
:102A3000659769968CAF9DAFAEAFBFAF6997AE019A
:102A4000475A5F4FBE016F5F7F4FCE018D5A9F4F38
:102A50000E94420D019751F46F968CAD9DADAEADC5
:102A6000BFAD6F97892B8A2B8B2B31F40A5F1F4FD9
:102A70000E151F0581F602C0AA24A394BA9441F64C
:102A8000AA2099F18FEA93E065969FAF8EAF659784
:102A90006F968CAD9DADAEADBFAD6F9769968CAFA7
:102AA0009DAFAEAFBFAF6997BE016F5F7F4F8AE347
:102AB0009DE20E94586763E875E08AE39DE20E9408
:102AC0003567BE016D5A7F4F8AE39DE20E946167C0
:102AD0006F968CAD9DADAEADBFAD6F97E1968CAFEF
:102AE0009DAFAEAFBFAFE1970DC063E775E08AE37E
:102AF0009DE20E943567BE016F5F7F4F8AE39DE2D2
:102B00000E9458678AE39DE20E946B67E1968CAD54
:102B10009DADAEADBFADE197892B8A2B8B2B09F014
:102B200056C06AEE7CE2CE01875A9F4F0E947059D0
:102B30006F96CCACDDACEEACFFAC6F976AEE7CE28E
:102B4000CE018D5A9F4F0E94835969964CAD5DAD61
:102B50006EAD7FAD699740955095609570954C2905
:102B60005D296E297F29CE01815A9F4F0E94C3663D
:102B7000A5968CAD9DADAEADBFADA597E1968CAFE2
:102B80009DAFAEAFBFAFE19728E730E03093B22AF8
:102B90002093B12A2FEA33E065963FAF2EAF6597B9
:102BA00069968CAF9DAFAEAFBFAF699760E475E03B
:102BB0008AE39DE20E943567BE016D5A7F4F8AE32A
:102BC0009DE20E9461678AE39DE20E946B676EE26C
:102BD00075E08AE39DE20E9435676AEE7CE2CE01F1
:102BE0008D5A9F4F0E9496596AEE7CE2CE01875A19
:102BF0009F4F0E9483596AEE7CE2CE01815A9F4F1B
:102C00000E9470595301CE0185599F4F6C01FE01FE
:102C1000EF5BFF4F7F018E010D5A1F4F9E01275A18
:102C20003F4FA401BE01615A7F4F8AE39DE20E949B
:102C3000750D8AE39DE20E946B678AE39DE20E9424
:102C400036648FEA93E065969FAF8EAF6597E19605
:102C50008CAD9DADAEADBFADE19769968CAF9DAF2C
:102C6000AEAFBFAF6997A4E0EA2E0AE09301AE01D0
:102C70004D5A5F4FB40184EB9AE20E94845FC457BF
:102C8000DF4F0FB6F894DEBF0FBECDBFDF91CF91FF
:102C90001F910F91FF90EF90DF90CF90BF90AF907A
:102CA0009F908F907F906F9008950F931F93CF9375
:102CB000DF9300D000D000D0CDB7DEB78091E72AF7
:102CC000882309F45CC08AEE9CE20E9413598C01AF
:102CD00062E275E08AE39DE20E943567980133273E
:102CE0002230310551F13CF42115310569F02130D4
:102CF000310569F029C02330310549F02430310510
:102D000019F56EEF74E01BC06FE175E018C06DE05F
:102D100075E08AE39DE20E946F678AE39DE20E946C
:102D200036642EE088E190E00FB6F894A895809381
:102D300060000FBE20936000FFCF65E075E08AE37E
:102D40009DE20E946F671BC0802F90E0A0E0B0E082
:102D500089839A83AB83BC838AE090E09E838D83D2
:102D60006BEE74E08AE39DE20E943567BE016F5FFF
:102D70007F4F8AE39DE20E94FF0B0E946B672696BD
:102D80000FB6F894DEBF0FBECDBFDF91CF911F917C
:102D90000F9108952F923F924F925F926F927F9280
:102DA0008F929F92AF92BF92CF92DF92EF92FF925B
:102DB0000F931F93CF93DF93CDB7DEB7E2970FB694
:102DC000F894DEBF0FBECDBF0E942F0C29E288E130
:102DD00090E00FB6F894A895809360000FBE209302
:102DE000600010E062E0812F0E945A631F5F103282
:102DF000C9F78091EB2A8F3F41F061E00E945A634E
:102E000060E08091EB2A0E9493638091EA2A8F3FD1
:102E100041F061E00E945A6360E08091EA2A0E94DA
:102E200093638EE68EA78AE68FA78CE688AB81E057
:102E30008BA78CA78DA792E198A799A79AA78DA396
:102E40008EA38FA344E050E064ED70E0CE01819644
:102E50000E94936B49A15AA16BA17CA1DB01CA011D
:102E6000805C9241A109B109813E944EA340B10515
:102E700030F026E040E052EC61E070E001C026E076
:102E80008AE39DE20E94BD6484B78F7E84BF8BB1CC
:102E900085608BB9E0E0F0E089E080935700D49042
:102EA000E3E0F0E0809357008491E2E0F0E049E055
:102EB00040935700449150E060E070E049835A83AA
:102EC0006B837C8300E110E01E830D8390E0A0E023
:102ED000B0E08B8B9C8BAD8BBE8B188F0F8B8D2DA9
:102EE00090E0A0E0B0E08B8F9C8FAD8FBE8F18A3D9
:102EF0000F8F62EC74E08AE39DE20E943567BE01A9
:102F0000655E7F4F8AE39DE20E94FF0B7C016DECC2
:102F100074E00E943567BE016D5E7F4FC7010E945D
:102F2000FF0B7C016AED74E00E943567BE016F5FA4
:102F30007F4FC7010E94FF0B0E946B674D2D4F70A2
:102F4000D42E8091CF0490E0A0E0B0E089839A83F2
:102F5000AB83BC831E830D83842F90E0A0E0B0E0A0
:102F60008B8B9C8BAD8BBE8B188F0F8B66EA74E0BE
:102F70008AE39DE20E94356761E070E082E0D81646
:102F800011F060E070E04AE050E08AE39DE20E94C8
:102F9000366860EB74E08AE39DE20E943567BE010B
:102FA0006D5E7F4F8AE39DE20E94FF0B8C0169EB0F
:102FB00074E00E943567BE016F5F7F4FC8010E94B9
:102FC000FF0B0E946B6760E574E08AE39DE20E945C
:102FD00035678091CF04857019F081E08093E92AEC
:102FE00061E084E00E945A6361E084E00E949363A0
:102FF00061E08AE00E945A6361E08AE00E94936384
:1030000061E08EE00E945A6361E08EE00E9493636B
:103010008091EB2A8F3F61F180E690E00E94AB6BDC
:103020008C0164E474E08AE39DE20E9435674AE023
:1030300050E0B8018AE39DE20E9436688AE39DE28F
:103040000E946B6782E690E00E94AB6B8C0168E3A4
:1030500074E08AE39DE20E9435674AE050E0B801DF
:103060008AE39DE20E9436688AE39DE20E946B67D4
:103070006DE274E08AE39DE20E943567B7E0EB2ED3
:10308000B1E0FB2E00E210E080E1C82ED12CC80197
:103090000E94A36BF70181937F01482F50E060E00D
:1030A00070E049835A836B837C83DE82CD8260E249
:1030B0008AE39DE20E945A67BE016F5F7F4F8AE3F9
:1030C0009DE20E94FF0B0F5F1F4F00331105F9F6C1
:1030D0008AE39DE20E946B6785EF9AE20E946F2669
:1030E00040E150E060E270E087E091E00E94936B85
:1030F00080E390E00E94AB6B9093B62B8093B52B4E
:1031000061E089E00E945A6361E089E00E94936374
:1031100060911B0170911C0180911D0190911E0115
:103120000E94856200E010E0C801C2960E94A36B75
:1031300018163CF4EEE2F0E0EC0FFD1FE00FF11F7B
:103140008083C801C5960E94A36B9FEF980F9430AF
:1031500038F4EBE2F0E0EC0FFD1FE00FF11F80838D
:10316000C8018A589F4F0E94A36B9FEF980F92311E
:1031700038F4E8E2F0E0EC0FFD1FE00FF11F808370
:10318000C80187589F4F0E94A36B9FEF980F9830FC
:1031900038F4E5E2F0E0EC0FFD1FE00FF11F808353
:1031A0000F5F1F4F0330110509F0BECF84E490E09C
:1031B0000E94A36B782E8FEF870D803110F077245B
:1031C000739485E490E00E94A36BD82EFFEF8F13D9
:1031D00002C0DD24D39486E490E00E94A36B91E0CA
:1031E000811101C090E09093ED048091B92988236A
:1031F00009F4B1C06FE174E08AE39DE20E94356793
:1032000063EF73E08AE39DE20E946F67CE018596CB
:103210007C018E01085D1F4F9E01255D3F4FAE0171
:10322000425D5F4F69E08AEB99E20E947934D1FAFE
:10323000662460F82D2D217029AB7092AE2A209360
:10324000AF2A6092B02AF5ECAF2EF9E2BF2ECE0184
:103250008B966C01FE01BE962F0100E010E0A0E10C
:103260002A2E312CF50181915F01882329F0E9EEA6
:103270008E2EE3E09E2E04C07FED872E73E0972E06
:10328000F60121916F01F20181912F0190E0A0E000
:10329000B0E089839A83AB83BC833E822D826EEC3F
:1032A00073E08AE39DE22AAB0E9435674AE050E072
:1032B000B8018AE39DE20E94366863ED73E08AE319
:1032C0009DE20E943567BE016F5F7F4F8AE39DE2FA
:1032D0000E94FF0B7C0169ED73E00E9435674AE0B4
:1032E00050E02AA9622FC7010E944B68B401C701B0
:1032F0000E9435670F5F1F4F0330110509F0B2CFF1
:1033000064EB73E08AE39DE20E9435674AE050E097
:10331000672D8AE39DE20E944B6861EC73E08AE3CB
:103320009DE20E943567662031F06BEA73E08AE324
:103330009DE20E94356729A9222319F063EA73E010
:1033400002C06DE973E08AE39DE20E9435678AE37B
:103350009DE20E94366463EF73E08AE39DE20E947F
:1033600035678091B929811106C06AE174E08AE36A
:103370009DE20E94356761E174E08AE39DE20E946C
:103380006F678091B9298823D1F063EF73E08AE3F6
:103390009DE20E9435676AEF73E08AE39DE20E9436
:1033A000356740911B0150911C0160911D01709186
:1033B0001E012AE030E08AE39DE20E9485688AE3EC
:1033C00090E00E94A36B8093E72A26E040E052EC55
:1033D00061E070E087ED9DE20E94BD6403E026E0BD
:1033E00045E560E579E28BE29CE20E94AC4D6AEF34
:1033F00071E087ED9DE20E94314B69E072E087ED5C
:103400009DE20E94314B60E172E087ED9DE20E94F7
:10341000314B8EE490E00E94A36B8F3F09F481E072
:10342000EE24E3949091E72A923008F4E12C082FDF
:103430002EE147E062E083E19CE20E94424264E8C0
:1034400073E08AE39DE20E9435678AE39DE20E9471
:10345000366442E06CEE7AE288E29CE20E946046CA
:103460008823E9F08091282C90E0A0E0B0E08983E7
:103470009A83AB83BC8380E190E09E838D836CE66E
:1034800073E08AE39DE20E943567BE016F5F7F4F64
:103490008AE39DE20E94FF0B0E946B6706C06EE507
:1034A00073E08AE39DE20E9435678AE39DE20E9411
:1034B000366461E088E29CE20E94D8478BE490E0A9
:1034C0000E94A36B682F88E29CE20E94384688E243
:1034D0009CE20E94F1468091292C90912A2C019720
:1034E00021F588E29CE20E940148992787FD90958A
:1034F000A92FB92F89839A83AB83BC838AE090E09C
:103500009E838D8367E473E08AE39DE20E943567C2
:10351000BE016F5F7F4F8AE39DE20E94FF0B0E9416
:103520006B678AE39DE20E94366460E08FE00E9450
:103530005A636DE273E08AE39DE20E9435678AE395
:103540009DE20E94366463E070E088E29CE20E94A3
:10355000B14721E041E060E070E88FE09CE20E942A
:103560005D3D80E090E890930F0580930E0508E4A0
:1035700011E020E030E040E050E0BA01CE010196D9
:103580000E944E3D88E0FE013196A5EAB9E2019025
:103590000D928A95E1F700910E0510910F056EE1ED
:1035A00073E08AE39DE20E9435674AE050E0B8018B
:1035B0008AE39DE20E94696863E272E08AE39DE229
:1035C0000E94586740E050E0BE016F5F7F4F88E285
:1035D0009CE20E946948882319F1CE0143960E941B
:1035E0003A3CCE0101960E94BA436B8B7C8B8D8B4B
:1035F0009E8BCE0143960E94593CBE016D5E7F4F6B
:103600008FE09CE20E94F23A88E0FE017396A0EB04
:10361000B6E001900D928A95E1F76AEF72E002C080
:1036200064ED72E08AE39DE20E9435678AE39DE2E1
:103630000E9436648091E72A823001F50E942413AB
:103640000E94556181E18093180184EB9AE2909386
:10365000C5088093C40881E08093E92A81E090E066
:10366000A0E0B0E08093F6049093F704A093F804F0
:10367000B093F90486EF94E00E94593C82E490E014
:103680000E94AB6B9C01215031092E3F3F4F00F54A
:103690008C010F701127102F0027110F110F110F20
:1036A00020E030E0AC015F7064E0569547956A9584
:1036B000E1F760E070E0CE0143960E944E3D88E065
:1036C000FE017396AEEFB4E001900D928A95E1F79A
:1036D00066EF74E08EEF94E00E946F3E882321F045
:1036E00088E0E6EFF4E00BC06EEF74E08EEE94E05D
:1036F0000E946F3E882349F088E0EEEEF4E0AEEFE2
:10370000B4E001900D928A95E1F7C0900205D09047
:103710000305E0900405F090050500911901109152
:103720001A018090FE049090FF04A0900005B090D4
:1037300001056CEB72E08AE39DE20E9435672AE0A6
:1037400030E0B501A4018AE39DE20E94EC67B80174
:103750008AE39DE20E9458672AE030E0B701A601A3
:103760008AE39DE20E94EC678AE39DE20E946B6718
:103770008AE39DE20E94366461E0809118010E9414
:103780005A6360E0809118010E94936387E091E0A2
:103790009093E6088093E50880E18093E40884E94B
:1037A0009BE090937A2C8093792C6DEA72E08AE307
:1037B0009DE20E946F678AE39DE20E9436640E9448
:1037C0003C0CE2960FB6F894DEBF0FBECDBFDF9182
:1037D000CF911F910F91FF90EF90DF90CF90BF900E
:1037E000AF909F908F907F906F905F904F903F90A1
:1037F0002F9008953F924F925F926F927F928F9297
:103800009F92AF92BF92CF92DF92EF92FF920F936F
:103810001F93CF93DF93CDB7DEB7CE53D2400FB611
:10382000F894DEBF0FBECDBFA8958091AD29882347
:1038300069F08091020590910305A0910405B09173
:103840000505892B8A2B8B2B09F47BC180910501FF
:10385000882319F081E08093D0048091B8298823CF
:1038600009F4F1C01092B82900E010E0980141E09D
:1038700050E060E070E0CE0101960E944E3DBE0136
:103880006F5F7F4F8EEF94E00E94493E882319F0CE
:1038900081E08093D0048091AD29882309F4D3C0BE
:1038A000BE016E5C7D4F8BE29CE20E94CD4D882371
:1038B00009F4C9C0CE01865D9D4F0E943A3CBE010D
:1038C000665D7D4F8FE09CE20E94E83CCE5CDD4F60
:1038D000488159816A817B81C253D24000E010E067
:1038E0009801CE018E5D9D4F0E944E3DBE01665DEA
:1038F0007D4FCE018D5E9D4F0E94443CBE016E5DAA
:103900007D4FCE018D5E9D4F0E94A241C95EDD4F6D
:10391000088119812A813B81C751D24037FF07C0F6
:1039200030952095109501951F4F2F4F3F4FCD5E3D
:10393000DD4F488159816A817B81C351D24077FF35
:1039400007C070956095509541955F4F6F4F7F4FC1
:10395000CE018F5F9D4F0E944E3DBE016E5D7D4F3B
:103960008FE09CE20E94F23ABE016F5F7D4F8EEFC6
:1039700094E00E946F3E8823C9F0BE016E5D7D4FCA
:10398000CE0101960E94443C6EEF74E0CE01019698
:103990000E94484100E010E02EE83BE0AE014F5F9E
:1039A0005F4F60E08FE09CE20E94BB3F69E972E0FC
:1039B0008AE39DE20E943567BE016D5E7D4FCE01B8
:1039C00001960E94764188E0FE013196A0E1B5E0C3
:1039D00001900D928A95E1F78091B32A823098F197
:1039E000C95EDD4FC880D980EA80FB80C751D240D4
:1039F0000091190110911A01CD5EDD4F88809980E8
:103A0000AA80BB80C351D24061E872E08AE39DE2A4
:103A10000E9435672AE030E0B501A4018AE39DE207
:103A20000E94EC67B8018AE39DE20E9458672AE091
:103A300030E0B701A6018AE39DE20E94EC678AE3C9
:103A40009DE20E946B678091D004882309F459C0DD
:103A500066EC73E08FE09CE20E94E83C8091B9291B
:103A6000882351F08091BA299091BB29009709F4DD
:103A70008BC0099709F488C08091132C9091142C65
:103A8000009709F4B7C0079709F4B4C01092D004A6
:103A90001092CE032BE3822E29E2922E3CE3A32E3A
:103AA00039E2B32E4DE3C42E49E2D42E5EE3E52E77
:103AB00059E2F52E07E419E223E439E24FE359E233
:103AC0006CE479E28BE29CE20E94E44D80934B2906
:103AD00080914C2990914D29A0914E29B0914F2968
:103AE0000197A109B10980934C2990934D29A09386
:103AF0004E29B0934F296AE672E08AE39DE20E9464
:103B0000356780910501882321F0109205010E94FC
:103B10003C0C8091B929882321F08AEB99E20E941C
:103B2000D43683E19CE20E94A6428091B82981119B
:103B300066C087ED9DE20E94C963892B09F08AC0A7
:103B40005EC08091B829882309F487CEBE016F5FDB
:103B50007F4F8BE29CE20E94CD4D882309F47DCEFD
:103B600069817A818B819C812091FE043091FF04D0
:103B700040910005509101050E944E69672B682B0A
:103B8000692B09F467CE69CE01E010E01093BB29E0
:103B90000093BA2961E08091BD290E9493638091CE
:103BA0001B0190911C01A0911D01B0911E018093F9
:103BB000C8299093C929A093CA29B093CB291093FF
:103BC000D1290093D0290E9458620091C8291091F0
:103BD000C9292091CA293091CB29600F711F821FFA
:103BE000931F6093CC297093CD298093CE29909315
:103BF000CF2942CF83E19CE20E946C4247CF40E94B
:103C000051E060E275E088EB96E00E94B908892BEC
:103C100031F060E971E080E295E00E94DB0C6AE33C
:103C20007DE289EE98E20E945A058091B9298823A5
:103C300039F08091BA299091BB29099709F0D3C531
:103C40008091132C9091142C0097C1F0079709F0E4
:103C5000CAC514C087ED9DE20E94E263182F8091CF
:103C6000B32A8C3029F4612F8AE39DE20E945A67BF
:103C7000612F88E49CE20E941C4D57CF8091CE03B7
:103C80008111A6C481E08093CE0300911A2C10917B
:103C90001B2CC090CA03D090CB03E090CC03F090D3
:103CA000CD03A0901901B0901A014090C603509026
:103CB000C7036090C8037090C9036EE472E08AE3A2
:103CC0009DE20E9435672AE030E0B301A2018AE359
:103CD0009DE20E94EC67B5018AE39DE20E9458676D
:103CE0002AE030E0B701A6018AE39DE20E94EC677A
:103CF0006AE572E08AE39DE20E9435674AE050E09F
:103D0000B8018AE39DE20E9436688091B929882330
:103D100089F00091E0291091E1296EE372E08AE3D5
:103D20009DE20E9435674AE050E0B8018AE39DE2D7
:103D30000E9436688AE39DE20E946B678091182C8E
:103D40008823A9F000911C2C10911D2C6DE272E0CB
:103D50008AE39DE20E9435674AE050E0B8018AE3B9
:103D60009DE20E9469688AE39DE20E946B678091F0
:103D7000B929811106C08091B32A8B3009F07DC02A
:103D800037C095ECA92E99E2B92E02EE19E2912CDA
:103D9000D5018D915D01882321F1F801C080D1808A
:103DA000E280F38060E272E08AE39DE20E94356780
:103DB0004AE050E0692D8AE39DE20E944B6869E287
:103DC00072E08AE39DE20E9435672AE030E0B701A5
:103DD000A6018AE39DE20E94EC678AE39DE20E94CD
:103DE0006B6793940C5F1F4FF3E09F12D1CFC3CF4B
:103DF0008091B929882309F440C015EC812E19E27D
:103E0000912E0AEBA02E09E2B02E88E5782ED4017F
:103E10008D914D01882351F1672D8AE39DE20E9427
:103E20005A676AE38AE39DE20E945A6700E010E065
:103E3000F501E00FF11FC4A8D5A8E6A8F7A860E235
:103E40008AE39DE20E945A672AE030E0B701A601AA
:103E50008AE39DE20E94EC670C5F1F4F003411055E
:103E600039F76AE08AE39DE20E945A67B0E4AB0E3C
:103E7000B11C7394EBE57E12CACF8091B32A8823DC
:103E800009F4AFC080914B29882311F019E501C0D6
:103E90001EE463E172E08AE39DE20E943567612FD0
:103EA0008AE39DE20E945A678AE39DE20E946B6763
:103EB00080914B29882309F494C0C0904329D09065
:103EC0004429E0904529F09046290091190110916C
:103ED0001A0180903F2990904029A0904129B090EC
:103EE000422940904C2950904D2960904E29709065
:103EF0004F296CEF71E08AE39DE20E9435672AE06A
:103F000030E0B301A2018AE39DE20E94EC6767E022
:103F100072E08AE39DE20E9435672AE030E0B50155
:103F2000A4018AE39DE20E94EC67B8018AE39DE266
:103F30000E9458672AE030E0B701A6018AE39DE2BB
:103F40000E94EC6780913E298823C1F0C0904729E8
:103F5000D0904829E0904929F0904A2960911901B0
:103F600070911A018AE39DE20E9458672AE030E0CE
:103F7000B701A6018AE39DE20E94EC67E0903B292D
:103F8000F12CC0903C29D12C0091190110911A01FB
:103F9000B0903D2962EF71E08AE39DE20E943567AF
:103FA0006B2D8AE39DE20E945A67B8018AE39DE285
:103FB0000E9458674AE050E0B6018AE39DE20E9401
:103FC0003668B8018AE39DE20E9458674AE050E0F3
:103FD000B7018AE39DE20E9436688AE39DE20E946F
:103FE0006B67D090EB2AFFEFDF1641F180E690E09F
:103FF0000E94AB6B8C0182E690E00E94AB6B7C016F
:10400000F694E79498012E0D3F1D40911A2C509183
:104010001B2C2417350724F461E08D2D0E94936337
:104020000E191F0980911A2C90911B2C8017910753
:104030002CF460E08091EB2A0E949363CE018D5EA8
:104040009D4F0E94DF2F87E091E0C05EDD4F998396
:104050008883C052D24080E1C15EDD4F8883CF515A
:10406000D24090910401CC5EDD4F8881C451D24092
:10407000992311F0826001C08D7FCC5EDD4F888373
:10408000C451D2402091CA033091CB038091C60322
:104090009091C703A091C803B091C903C95EDD4FD9
:1040A00088839983AA83BB83C751D240C55EDD4F05
:1040B00039832883CB51D24040E052E0BE016F5F8C
:1040C0007F4FCE018D5E9D4F0E944A300D8110E0E2
:1040D000102F00278E81080F111D62EE71E08AE318
:1040E0009DE20E9435674AE050E0B8018AE39DE214
:1040F0000E9469688AE39DE20E946B678091B929FA
:10410000882309F470C05090AE2A4090AF2A3090B6
:10411000B02A75EC672E79E2772EEEEEAE2EE9E24C
:10412000BE2EF2EE8F2EF9E29F2E10E0D3018D917C
:104130003D018823F1F0F401C080D180E280F3805A
:10414000FD01359700810F70212F40E052E0BE0144
:104150006F5F7F4FCE018D5E9D4F0E94A03080919A
:10416000ED04882331F08AED98E00E94DB60811134
:10417000F3C21F5FF0E4AF0EB11C84E0880E911C07
:104180001330A1F68091E0299091E129C45CDD4FC4
:1041900099838883CC53D2408E01045C1D4F23E069
:1041A00040E052E0BE016F5F7F4FCE018D5E9D4FBC
:1041B0000E94E830832D90E0880F991F952984296B
:1041C000C65CDD4F99838883CA53D24002501109DF
:1041D00023E140E052E0BE016F5F7F4FCE018D5E74
:1041E0009D4F0E94E83080911A2C90911B2CC85C46
:1041F000DD4F99838883C853D2408E01085C1D4FE0
:1042000024E040E052E0BE016F5F7F4FCE018D5E43
:104210009D4F0E94E8308091182C8823B9F080913E
:104220001C2C90911D2CCA5CDD4F99838883C6534A
:10423000D2400250110925E040E052E0BE016F5F1C
:104240007F4FCE018D5E9D4F0E94E8302091FE048D
:104250003091FF0444E0220F331F4A95E1F780912B
:10426000020590910305A0910405B09105055BE05E
:10427000B595A795979587955A95D1F7282B392B02
:10428000CE5CDD4F39832883C253D2408E010E5C51
:104290001D4F28E040E052E0BE016F5F7F4FCE012E
:1042A0008D5E9D4F0E94E830809106018823A9F021
:1042B0008091CF04C25CDD4F8883CE53D240045F2F
:1042C0001F4F27E040E052E0BE016F5F7F4FCE01FD
:1042D0008D5E9D4F0E94E83004C08091EC048823DD
:1042E00069F00AE212E02DE040E052E0BE016F5FAB
:1042F0007F4FCE018D5E9D4F0E941B3100E010E08C
:10430000980140E050E0BA01CE018F5F9D4F0E94BE
:104310004E3DBE016F5F7D4F80E195E00E94493EBA
:10432000811116C0E0901405F0901505009110055C
:1043300010911105209112053091130540E052E0D3
:10434000BE016F5F7F4FCE018D5E9D4F0E94B531E4
:104350000091D1041091D2040115110519F169ECF5
:1043600071E08AE39DE20E9435674AE050E0B801BF
:104370008AE39DE20E9469688AE39DE20E946B677E
:104380000091D1041091D2042091D3043091D4042F
:1043900040E052E0BE016F5F7F4FCE018D5E9D4FCA
:1043A0000E94013200914C2910914D2920914E29F3
:1043B00030914F2980903B29A0903C29C0903D2905
:1043C000E0904B2940E052E0BE016F5F7F4FCE018D
:1043D0008D5E9D4F0E94BD3280914B298823E1F074
:1043E0008AED98E00E94DB608823B1F080913E293D
:1043F0008111C2C182E03FE3C32E39E2D32EE82E01
:1044000004E02EE140E052E0BE016F5F7F4FCE013D
:104410008D5E9D4F0E9469322091E7283091E828F7
:1044200040E052E0BE016F5F7F4FCE018D5E9D4F39
:104430000E945B334D8150E0542F44278E81480FFA
:10444000511DBE016F5F7F4F88EB96E00E94AD0764
:104450001091E82A1F5F1093E82A8091E92A8823A7
:1044600081F08AE490E00E94A36B882321F0181762
:1044700010F01092E92A6091E92A809118010E94B7
:10448000936340E050E0BE016F5F7D4F88E29CE2A5
:104490000E946948CE018F5F9D4F0E94BA436B0115
:1044A0007C01CE018E5D9D4F0E943A3CBE016E5D47
:1044B0007D4F8FE09CE20E94E83CCE5DDD4F48815D
:1044C00059816A817B81C252D240D701C601841BC7
:1044D000950BA60BB70BB7FF07C0B095A0959095AD
:1044E00081959F4FAF4FBF4F0397A105B105FCF0DA
:1044F000C65DDD4F488359836A837B83CA52D240AD
:10450000BE016F5F7D4FCE01865D9D4F0E94F444DA
:1045100040E050E0BE016F5F7D4F88E29CE20E9468
:104520000F476CEB71E08AE39DE20E946F67CE5DFE
:10453000DD4F88819981AA81BB81C252D2404091CE
:10454000B0065091B1066091B2067091B306841B1B
:10455000950BA60BB70B0091B12A1091B22AA801B6
:1045600060E070E0481759076A077B071CF566EBA7
:1045700071E08AE39DE20E9435674AE050E0B801AD
:104580008AE39DE20E94696867E971E08AE39DE23F
:104590000E946F678AE39DE20E94366429E288E107
:1045A00090E00FB6F894A895809360000FBE20931A
:1045B0006000FFCFB7FF0AC088E0FE01EE5DFD4F4F
:1045C000A0EBB6E001900D928A95E1F70E94551696
:1045D0008091D0048111AAC08091DB04882309F462
:1045E000A5C02091D5043091D6048091D904909132
:1045F000DA042817390708F099C08AED98E00E947C
:10460000DB60882309F492C08091C2089091C308AE
:10461000892B09F08BC08091B72B8F5F8093B72BCC
:10462000CE018F5F9D4F0E94DF2F87E091E0C25F38
:10463000DD4F99838883CE50D24080E1C35FDD4F48
:104640008883CD50D240CE018D5E9D4F0E943A3C72
:10465000BE016D5E7D4F8FE09CE20E94E83CC95E2A
:10466000DD4F28813981C751D240CD5EDD4F888131
:104670009981AA81BB81C351D240CB5FDD4F888332
:104680009983AA83BB83C550D240C75FDD4F39836E
:104690002883C950D24040E051E0BE016F5F7F4F98
:1046A000CE018F5F9D4F0E944A300091D50410913A
:1046B000D6042BED34E040E051E0BE016F5F7F4F48
:1046C000CE018F5F9D4F0E947A312091E728309173
:1046D000E82840E051E0BE016F5F7F4FCE018F5F61
:1046E0009D4F0E945B334D8150E0542F44278E81B3
:1046F000480F511DBE016F5F7F4F88EB96E00E940F
:10470000AD071091E82A1F5F1093E82A8091E92AEB
:10471000882361F08AE490E00E94A36B81112EC08F
:104720006091E92A809118010E9493638091D004DE
:10473000811159C08AED98E00E94DB602091C20887
:104740003091C308882319F021153105E1F0243098
:10475000310509F048C017C06501E52C04E025E1EA
:10476000210F40E052E0BE016F5F7F4FCE018D5EB2
:104770009D4F0E946932FDCC83E03DCE181780F238
:104780001092E92ACDCF8091C4089091C508DC0130
:10479000ED91FC910684F785E02D0995882319F1A8
:1047A000809117018823F9F066E075E08EEF94E0C0
:1047B0000E946F3E811117C06FE871E08AE39DE2AD
:1047C0000E9435678AE39DE20E94366486E00E947B
:1047D000810C67E871E08AE39DE20E9435678AE315
:1047E0009DE20E943664C25CDD4F0FB6F894DEBFD6
:1047F0000FBECDBFDF91CF911F910F91FF90EF9032
:10480000DF90CF90BF90AF909F908F907F906F90F0
:104810005F904F903F9008958091F42A811115C0C8
:104820008CE890EFA1E0B0E0ABBFFC0187919791DD
:10483000A791B691883539F4923429F4AA3619F43F
:10484000B093F42A02C081E0089580E00895CF92E9
:10485000DF92EF92FF926B017C010E940C24811188
:104860001AC08091F42A8130A9F484E990EFA1E084
:10487000B0E0ABBFFC0127913691C90101978E3F93
:104880009F4F40F4C701B601F901FF90EF90DF9010
:10489000CF90099482E0FF90EF90DF90CF90089541
:1048A000CF92DF92EF92FF92CF93DF9300D01F92CF
:1048B000CDB7DEB76B017C012B8349835A830E94FD
:1048C0000C242B8149815A8181111FC08091F42AC7
:1048D0008130D1F486E990EFA1E0B0E0ABBFFC01FC
:1048E000A791B691CD0101978E3F9F4F68F4C70104
:1048F000B601FD010F900F900F90DF91CF91FF90C7
:10490000EF90DF90CF90099482E00F900F900F907E
:10491000DF91CF91FF90EF90DF90CF900895CF92ED
:10492000DF92EF92FF920E940C24811131C080919E
:10493000F42A813061F58AE990EFA1E0B0E0ABBFE5
:10494000FC01879196919C01215031092E3F3F4FE8
:10495000C0F0C12C88EFD82EE12CF12CC701B60194
:104960000E942724811114C08FEFD81AE80AF80A90
:10497000C114E0EFDE06E1E0EE06F10479F780E035
:1049800007C0FC01FF90EF90DF90CF90099482E088
:10499000FF90EF90DF90CF900895CF92DF92EF924B
:1049A000FF92CF93DF9300D01F92CDB7DEB76B019C
:1049B0007C012B8349835A830E940C242B814981DB
:1049C0005A8181112FC08091F42A813051F58CE9F0
:1049D00090EFA1E0B0E0ABBFFC01A791B691CD0193
:1049E00001978E3F9F4F80F0C701B60178508F4FDF
:1049F0009F4F0F900F900F90DF91CF91FF90EF900E
:104A0000DF90CF900C945024C701B601FD010F90A8
:104A10000F900F90DF91CF91FF90EF90DF90CF90AC
:104A2000099482E00F900F900F90DF91CF91FF904B
:104A3000EF90DF90CF900895CF92DF92EF92FF92A8
:104A40000F931F93260F371F481F591FA0E0B0E098
:104A5000621773078407950709F424C06B017C0172
:104A6000EFEFCE1ADE0AEE0AFE0A8BBFFB0167915A
:104A7000A6276A2F62956A27062E66956695602599
:104A8000062E6695602567700A2EAB2F66950794F3
:104A90006795B02DA62706946795B025A627C70170
:104AA000B601D6CFF801B183A08380E01F910F91AA
:104AB000FF90EF90DF90CF9008950F931F938C019C
:104AC00020E038EF40E050E060E078EF80E090E0F8
:104AD0000E941C251F910F9108950F931F93CF9350
:104AE000DF93CDB7DEB7DA950FB6F894DEBF0FBE11
:104AF000CDBFDE01119600E01FEE21E030E0AD01F8
:104B00002BBFF80167916D930F5F1F4F2F4F3F4FE2
:104B1000011560EF160761E02607310589F728E5E2
:104B2000C550DF4F2883CB5FD04022E4C450DF4F15
:104B30002883CC5FD04029E4C350DF4F2883CD5F6A
:104B4000D04026E4C250DF4F2883CE5FD040C15012
:104B5000DF4F9883CF5FD040C050DF4F8883C05075
:104B6000D14021E060E077EF80E090E00E94CD242A
:104B7000D3950FB6F894DEBF0FBECDBFDF91CF91B6
:104B80001F910F910895F89488E10FB6F8948093DF
:104B90006000109260000FBE28E088E190E00FB640
:104BA000F894A895809360000FBE20936000FFCF1B
:104BB0008091252B90E02091262B821B910908954E
:104BC0002091262B8091252B281750F4E22FF0E01E
:104BD000E95DF44D808190E02F5F2093262B0895AE
:104BE0008FEF9FEF0895E091262B8091252BE817FA
:104BF00030F4F0E0E95DF44D808190E008958FEFAE
:104C00009FEF08950895CF92DF92EF92FF920F9356
:104C10001F93CF93DF937C01CB018A012091012B5D
:104C2000222389F0EB016B01C40ED51ECC15DD05E6
:104C300069F06991D701ED91FC910190F081E02D2F
:104C4000C7010995F3CF642F0E94C027C801DF91E7
:104C5000CF911F910F91FF90EF90DF90CF9008952B
:104C6000CF93DF931F92CDB7DEB769832091012BDD
:104C70002223D1F02091022B203240F021E030E0BD
:104C8000FC013383228380E090E015C08091032BE8
:104C9000E82FF0E0EC5FF44D998190838F5F809373
:104CA000032B8093022B05C061E0CE0101960E9488
:104CB000C02781E090E00F90DF91CF910895FC0133
:104CC0001382128248EE53E060E070E04483558323
:104CD0006683778380E492E09183808308951092C5
:104CE000262B1092252B1092032B1092022B0C9442
:104CF000032781E08093012B6093242B1092032BD8
:104D00001092022B08950C9479260F93062F21E020
:104D10004091022B64E07BE28091242B0E94692762
:104D20001092032B1092022B1092012B0F910895D9
:104D30008F929F92AF92BF92CF92DF92EF92FF92AB
:104D40000F931F93CF93DF93EC01F62ED42E4801DF
:104D50005901EE2019F10E9479261E2D143008F019
:104D600013E01150B8F0E881F98128E0129FB001FA
:104D70001124A501940104C05695479537952795B0
:104D80006A95D2F7CA01B9010190F081E02DCE01F8
:104D90000995E7CF60E0CE010E9485264D2D413276
:104DA00008F040E22C2D67E27BE28F2D0E94212744
:104DB0001092262B8093252BDF91CF911F910F917D
:104DC000FF90EF90DF90CF90BF90AF909F908F902B
:104DD0000895CF92EF920F931F93C22EE12C00E023
:104DE00010E098010E9498261F910F91EF90CF90AC
:104DF000089521E00C94E92661E00C94852685EF66
:104E00009AE20C945F261092B42B81E08093B22B2F
:104E10001092B12B61E084E10E94936361E085E12F
:104E20000E949363E9EBF0E080818E7F8083808134
:104E30008D7F808384E38093B80085E48093BC00F9
:104E40000895413208F043C09091B42B9111FCCFEA
:104E500091E09093B42B2093B22B2FEF2093472B0C
:104E600010928C2B240F20938B2B9093B32B90912B
:104E7000B32B880F892B8093B32B8091B12B81307A
:104E800061F41092B12B8091B32B8093BB00809181
:104E9000BC0083FDF8CF85EC01C085EE8093BC009B
:104EA0008091B42B8130E1F380918C2B841710F426
:104EB00040918C2B2DE83BE2FB01D9018A2F821B0C
:104EC000841718F48D918193F9CF842F089580E091
:104ED00008950F93413208F04AC09091B42B91117C
:104EE000FCCF92E09093B42B0093B22B9FEF909362
:104EF000472B10928C2B40938B2BFB016DE87BE2B0
:104F0000DB019A2F961B941718F491919D93F9CF7A
:104F10001092B32B9091B32B880F892B8093B32BD6
:104F20008091B12B813061F41092B12B8091B32B21
:104F30008093BB008091BC0083FDF8CF85EC01C05D
:104F400085EE8093BC00222321F08091B42B823027
:104F5000E1F38091472B8F3F61F08091472B8032A6
:104F600051F08091472B803341F483E007C081E00A
:104F700005C080E003C082E001C084E00F91089585
:104F8000613298F42091B42B243089F46093692B1A
:104F9000FC018BE69BE2DC012A2F281B261718F464
:104FA00021912D93F9CF80E0089581E0089582E06A
:104FB000089585ED8093BC008091BC0084FDFCCFFA
:104FC0001092B42B089585EC8093BC001092B42B02
:104FD00008951F920F920FB60F9211240BB60F92E5
:104FE0002F933F934F935F936F937F938F939F93F1
:104FF000AF93BF93EF93FF938091B900887F803682
:1050000009F49EC078F5883209F45DC090F48031CF
:1050100009F456C038F4882309F4F5C0883009F43F
:105020004FC0F5C0883109F44EC0803209F45FC02A
:10503000EEC0803409F46AC058F4803309F457C0D4
:10504000883309F0E4C08093472B0E94E327DFC038
:10505000803509F44FC0883509F45DC0883409F003
:10506000D6C0D3C0883909F4C4C0A8F4883709F47D
:1050700067C038F4883609F463C0803709F460C02B
:10508000C6C0883809F4B5C0803909F45FC08038DB
:1050900009F0BDC05BC0803B09F483C038F4803A9E
:1050A00009F466C0883A09F47CC0B1C0803C09F4B8
:1050B000A4C0883C09F4A1C0883B09F487C0A7C0FC
:1050C0008091B32B10C090918C2B80918B2B9817D3
:1050D00070F5E0918C2B81E08E0F80938C2BF0E0AB
:1050E000E357F44D80818093BB0085EC83C08093AF
:1050F000472B8BC0E0918C2B81E08E0F80938C2B03
:105100008091BB00F0E0E357F44D808390918C2BAD
:1051100080918B2B6BC0E0918C2B81E08E0F809364
:105120008C2B8091BB00F0E0E357F44D808380919D
:10513000B22B81116AC081E08093B12B84EA5EC0FA
:1051400083E08093B42B1092482BCFCF8091482BD3
:10515000803208F04EC0E091482B81E08E0F8093A2
:10516000482B8091BB00F0E0E75BF44D8083BDCF1E
:105170000E94E3278091482B803230F4E091482B45
:10518000F0E0E75BF44D10826091482B70E0E09115
:10519000AD2BF091AE2B89E49BE209951092482B40
:1051A00036C084E08093B42B10926A2B1092692B46
:1051B000E091AF2BF091B02B09958091692B811173
:1051C00005C081E08093692B10926B2BE0916A2BD4
:1051D00081E08E0F80936A2BF0E0E559F44D8081D9
:1051E0008093BB0090916A2B8091692B981708F4EB
:1051F0007CCF85E88093BC000AC085EC8093BC001E
:105200001092B42B04C01092472B0E94D927FF9113
:10521000EF91BF91AF919F918F917F916F915F912E
:105220004F913F912F910F900BBE0F900FBE0F909B
:105230001F9018952F923F924F925F926F927F929C
:105240008F929F92AF92BF92CF92DF92EF92FF9296
:105250000F931F93CF93DF93CDB7DEB7C855D10916
:105260000FB6F894DEBF0FBECDBF5C014901170138
:1052700028018E010F5F1F4F80E4F80111928A957B
:10528000E9F74130F2E05F0738F09A0140E050E082
:10529000C8010E94962D0AC0495F5F4FE3E0569512
:1052A0004795EA95E1F7C8010E94536B6E0181E4CE
:1052B000C80ED11CF80196E3808189278193EC15F3
:1052C000FD05D1F7C6010E94242BB801C6010E943A
:1052D0004A2BA201910134012115F2E03F0741055B
:1052E000510518F1B301C60166962FAF6697679610
:1052F0003FAF679768964FAF689769965FAF6997BA
:105300000E944A2BE0E46E0E711C66962FAD6697E4
:1053100067963FAD679768964FAD689769965FADA2
:105320006997325041095109D7CFB201A10151709B
:1053300066277727D201C10129E0B695A7959795F1
:1053400087952A95D1F71C0136E0220C331C3A953B
:10535000E1F7280C391CB101C6010E94D82C480184
:105360009AE6F4018081892781934F01EC15FD05B0
:10537000C1F7BF01C5010E948E2DC4010E94242BDC
:10538000B801C4010E944A2B40E850E0B501C401B5
:105390000E94D82CB401C5010E948E2DC85ADF4F3F
:1053A0000FB6F894DEBF0FBECDBFDF91CF911F9136
:1053B0000F91FF90EF90DF90CF90BF90AF909F90B4
:1053C0008F907F906F905F904F903F902F900895B7
:1053D0008F929F92AF92BF92EF92FF920F931F9383
:1053E0004B015C0160957095809590956E217F21B1
:1053F00080239123282139214A215B21622B732BA1
:10540000842B952B1F910F91FF90EF90BF90AF9041
:105410009F908F9008958F929F92AF92BF92EF923C
:10542000FF920F931F934B015C01C801B701609578
:1054300070958095909562237323842395238E2005
:105440009F20A022B122682979298A299B291F91AE
:105450000F91FF90EF90BF90AF909F908F90089525
:10546000EF92FF920F931F932E253F254027512740
:105470002627372748275927CA01B9011F910F91BD
:10548000FF90EF900895EF92FF920F931F93E09497
:10549000F09400951095E62AF72A082B192BE2269E
:1054A000F32604271527C801B7011F910F91FF901C
:1054B000EF9008952F923F924F925F926F927F925A
:1054C0008F929F92AF92BF92CF92DF92EF92FF9214
:1054D0000F931F93CF93DF93CDB7DEB760970FB6CF
:1054E000F894DEBF0FBECDBF4B01322E202E28E038
:1054F000E6E2F1E0DE01119601900D922A95E1F7C6
:105500004370642F70E05C0124E0429FA00CB11C4A
:105510001124D5014D905D906D907C906B01BFEF93
:10552000CB1ADB0AE3E0CE22DD24CC0CDD1CCC0C54
:10553000DD1CC80ED91EFE013196EE0DF11DEE0DDB
:10554000F11D9B012D5F3F4F23703327220F331F27
:10555000220F331F280F391FD901ED90FD900D91B7
:105560001C91DB011296A370BB27AA0FBB1FAA0FC9
:10557000BB1FA80FB91F2D913D914D915C91D60194
:105580006D917D918D919C910190F081E02D099517
:10559000B4E02B9EF0011124E751F84F259135918D
:1055A00045915491D401ED90FD900D911C91E40C26
:1055B000F51C061D171DE60EF71E081F191FE20E2B
:1055C000F31E041F151FB801A701032C04C0440FCC
:1055D000551F661F771F0A94D2F720E22319D801BE
:1055E000C70104C0B695A795979587952A95D2F7D8
:1055F000482B592B6A2B7B2BF60180819181A2814C
:10560000B381480F591F6A1F7B1FD5014D935D93CE
:105610006D937C93139760960FB6F894DEBF0FBE20
:10562000CDBFDF91CF911F910F91FF90EF90DF9051
:10563000CF90BF90AF909F908F907F906F905F9032
:105640004F903F902F900895FC01108A118A128A82
:10565000138A41E053E265E477E640835183628335
:10566000738349E85BEA6DEC7FEE44835583668380
:1056700077834EEF5CED6AEB78E94087518762876C
:10568000738746E754E562E370E144875587668790
:10569000778708952F923F924F925F926F927F92F9
:1056A0008F929F92AF92BF92CF92DF92EF92FF9232
:1056B0000F931F93CF93DF93CDB7DEB7A2970FB6AB
:1056C000F894DEBF0FBECDBF1C017AA369A3FC0115
:1056D00080819181A281B38189839A83AB83BC83CA
:1056E00084819581A681B7818D839E83AF83B8879E
:1056F00080859185A285B38589879A87AB87BC878A
:1057000084859585A685B7858D879E87AF87B88B5D
:1057100087E08D8F8CE08E8F81E18F8F86E188A36B
:105720002B01A12CB12C3E01FDE16F0E711C65E037
:10573000F62EF60C43011A2D110F110F1619C12C5C
:10574000D12C012F080DF40121914F014F2D4E1B3B
:10575000B601640D751DE12CCE0101960E945A2AF6
:10576000F4E0CF0ED11C80E1C816D10451F79FEFB1
:10577000A91AB90AE0E14E0E511CF4E0AF16B104CB
:10578000C9F685E0898F89E08A8F8EE08B8F84E16E
:105790008C8FCC24C394D12C3E0189E1680E711CFE
:1057A0005FE0552E56184601530114E0452C4C0C71
:1057B000042D0A0DF50121915F01B4016F70772767
:1057C000660F771F660F771F89A19AA1680F791F4F
:1057D000EE24E394412FCE0101960E945A2A1150E3
:1057E00095E0890E911C1111E3CFE4E0CE0ED11C9F
:1057F000F1E1CF16D104B9F684E08D8B8BE08E8B6E
:1058000080E18F8B87E1888F95E0C92ED12C3E01F6
:1058100085E1680E711C25E2522E5618460153018F
:1058200014E0452C4C18042D0A0DF50121915F015F
:10583000B4016F707727660F771F660F771F89A1F6
:105840009AA1680F791F82E0E82E412FCE010196C0
:105850000E945A2A115093E0890E911C1111E3CF36
:10586000E4E0CE1AD108F5EFCF16FFEFDF06B1F670
:1058700086E0898B8AE08A8B8FE08B8B85E18C8B2D
:10588000C12CD12C3E0181E1680E711CA0E35A2E7F
:1058900056184601530114E0452C4C18042D0A0DEE
:1058A000F50121915F01B4016F707727660F771FB3
:1058B000660F771F89A19AA1680F791FF3E0EF2E79
:1058C000412FCE0101960E945A2A115097E0890E6D
:1058D000911C1111E3CFE4E0CE1AD108F0EFCF16FE
:1058E000FFEFDF06B1F6F10180819181A281B381E2
:1058F00049815A816B817C81840F951FA61FB71F38
:1059000080839183A283B38384819581A681B781AB
:105910004D815E816F817885840F951FA61FB71F0B
:1059200084839583A683B78380859185A285B3857B
:1059300049855A856B857C85840F951FA61FB71FE7
:1059400080879187A287B38784859585A685B7854B
:105950004D855E856F857889840F951FA61FB71FBB
:1059600084879587A687B78780899189A289B3891B
:105970000196A11DB11D808B918BA28BB38BA2963A
:105980000FB6F894DEBF0FBECDBFDF91CF911F9150
:105990000F91FF90EF90DF90CF90BF90AF909F90CE
:1059A0008F907F906F905F904F903F902F900895D1
:1059B0006F927F928F929F92AF92BF92CF92DF921F
:1059C000EF92FF920F931F93CF93DF93CDB7DEB784
:1059D000C054D1090FB6F894DEBF0FBECDBF8C0105
:1059E0003B014A017A016B01E114E2E0FE0650F04E
:1059F000B601C8010E944A2B82E0F81A90E4C90E51
:105A0000D11CF2CF5401AB2CBB24A694F6E0AA0C17
:105A1000BB1CFA95E1F7A60CB71C6401F1E0DF228C
:105A2000CE0101967C0180E4F70111928A95E9F795
:105A30003601A3E076946794AA95E1F7A301B50136
:105A4000C7010E94536BF7E08F229924F701E60DFE
:105A5000F71D8114910471F0D501A60DB71D80E8E2
:105A600090E002C0959587958A94E2F79C91982BD7
:105A7000908302C080E8808388E0680E711C90E407
:105A800069167104A8F0B701C8010E944A2BF801F9
:105A900080899189A289B3890197A109B109808B75
:105AA000918BA28BB38B88E3F70111928A95E9F76A
:105AB000F80180899189A289B38979E0880F991FBB
:105AC000AA1FBB1F7A95D1F78C0D9D1DA11DB11D7D
:105AD0009C01AD0189AF3AAF4BAF5CAF1DAE1EAEBE
