:100000000C94D3050C94D1690C94A6690C947B696B
:100010000C94FD050C94FD050C94FD050C94FD0558
:100020000C94FD050C94266A0C94FC690C94506A9F
:100030000C94FD050C94FD050C94FD050C94FD0538
:100040000C94FD050C94FD050C9431690C94FD0590
:100050000C94FC680C94D2680C94FD050C94FD057E
:100060000C94FD050C94FD050C94606B0C94FD053F
:100070000C949D680C9473680C94FD050C94FD051C
:100080000C94FD050C94FD050C94FD055043463879
:1000900035323633004D43503739343178004453CC
:1000A0003133303700496E7374616C6C20465720D1
:1000B000726573756C743A20000A4352432073745E
:1000C000617475733A20000A446F776E6C6F6164D7
:1000D000204352433A20004669726D776172652071
:1000E0004352433A2000636F706965642070617207
:1000F0007469616C2073706D4275666665722074F8
:100100006F20666C6173683A200020636F6D706CBD
:10011000657465640A004669726D77617265206472
:100120006F776E6C6F616420666F722000636F7012
:100130006965642073706D42756666657220746FC0
:1001400020666C6173683A200045726173656420B3
:1001500074656D706F72617279206170706C696323
:100160006174696F6E206172656120696E20666CD2
:10017000617368200050726F63657373696E6720E6
:10018000465720757067726164652000557067720C
:10019000616465206669726D7761726520746F2095
:1001A00000416C72656164792068617665206669DA
:1001B000726D776172652076657273696F6E20006B
:1001C0005265636569766564207570677261646500
:1001D000206669726D77617265207461673A2000EC
:1001E0005265626F6F7420636F6D6D616E64207213
:1001F000656365697665642066726F6D20736572EC
:100200007665720A0053414D504C494E4720494E85
:1002100054455256414C204348414E4745442120C5
:10022000000A54696D65206572726F7220286F75BF
:10023000722D736572766572293A20000A4F7572C5
:100240002074696D653A200053657276657220747A
:10025000696D653A200054696D6520736574206688
:10026000726F6D207365727665720A00556E6B6EE3
:100270006F776E204D43550061746D656761313253
:100280003834700061746D656761313238340061F3
:10029000746D656761363434700061746D656761D3
:1002A00036343400756E6B6E6F776E205254430097
:1002B0009E0095008C0041637469766520736574B7
:1002C00074696E67733A0A004E6F2072656D6F74C1
:1002D0006520686F73742C20747279696E6720666C
:1002E0006F72203132307320746F20636F6D6D75C3
:1002F0006E696361746520746F200043616E6E6F78
:1003000074207265736F6C76652000207265736F60
:100310006C76657320746F20004C6F6F6B696E672D
:100320002075702000646F6E65004448435020665D
:1003300061696C65640052657175657374696E6797
:100340002049502E2E2E20005573696E672073743D
:10035000617469632049500A00202052656D6F74F2
:100360006520686F73746E616D653A200045455075
:10037000524F4D2073657474696E67733A0A20207A
:100380004D41433A2000536574757020646F6E656B
:100390000053657474696E672073616D706C6520BD
:1003A00074696D657273004672657175656E637907
:1003B0003A2031324D487A0041637475616C204DAA
:1003C00043553A2000546172676574204D43553A95
:1003D0002061746D656761313238347000436F6E2F
:1003E00066696775726174696F6E20636F6D706C9A
:1003F0006574650053616D706C696E6720696E7419
:10040000657276616C202873293A2000436F756C01
:1004100064206E6F74206765742074696D65206652
:10042000726F6D2068617264776172652052544307
:100430000A0053797374656D20636C6F636B20736E
:1004400065742066726F6D20686172647761726591
:10045000205254430A0053797374656D20636C6FA6
:10046000636B3A2000436F6E6669677572696E67E9
:100470002073797374656D20636C6F636B0A00522F
:1004800054432063616C6962726174696F6E3A20D3
:10049000004E6F2052544320666F756E640A002030
:1004A0006174206164647265737320307800466FF4
:1004B000756E6420004175746F70726F62696E674B
:1004C00020666F72200024504F525A412C312C2547
:1004D000642C310020746F20004368616E67696E80
:1004E0006720474E535320626175642072617465C2
:1004F0002066726F6D2000484948363178780020B8
:10050000706F7765722D75702064656C6179202835
:100510006D73293A20002070726573656E74002037
:100520006E6F74006D65616E0A006D656469616E61
:100530000A007472696D6D656420000A61676772F4
:1005400065676174653A20006E756D53616D706CFE
:1005500065733A2000206D697373696E670A002025
:1005600070726573656E740A002063682E20005DEA
:100570003A204F78004144435B00206661696C6516
:100580006420746F20696E697469616C6973650AAF
:100590000052696F00496E697469616C6973696EB4
:1005A000672000484D4143206B65793A200053692C
:1005B00074652049443A200046616E20687973745E
:1005C0002E3A200046616E2074656D702E3A200030
:1005D00046656174757265733A20484F5553454BB3
:1005E000454550494E472052494F4D4554455220AC
:1005F0004849483631585828576972652920474E6E
:10060000535320425553595F54494D455F50494E0D
:100610002841332900436F6D6D733A2057353130CF
:1006200030287764745F726573657429000A4D43DE
:100630005520636C6F636B3A2031324D487A0A461D
:1006400069726D776172653A2052696F4C6F672DE0
:10065000312E32620A45706F63683A203230313889
:100660000A000A4D435553523A20000A434B534562
:100670004C3A20000A5243206F73632E3A20000A3E
:10068000457874656E64656420667573653A20000C
:100690000A4869676820667573653A20000A4C6FDE
:1006A0007720667573653A20000A5369676E617436
:1006B0007572653A20000A41637475616C204D4380
:1006C000553A20000A0A2D2D2D2D2D2D2D2D0A54A1
:1006D0006172676574204D43553A2061746D65679A
:1006E000613132383470005061636B65742076611B
:1006F0006C69642062757420696E636F72726563E1
:100700007420726573706F6E736500232323232337
:1007100023232323232323232323232323232323A9
:100720002300546F6F206D616E7920726574726959
:1007300065733A20003D3D3D3D0A003D3D3D3D0A8B
:10074000526573706F6E73653A0A006D61696E74FD
:1007500061696E2072657475726E656420007265E1
:1007600062696E640072656E6577656400666169D2
:100770006C6564006F6B0044484350206C65617386
:100780006520004157414B45210A00534C454550D7
:10079000210A007320776974686F7574206D657322
:1007A000672061636B2C207265626F6F74696E677E
:1007B0000A00476F6E652000536574204857206318
:1007C0006C6F636B00454550524F4D20636F6E74E4
:1007D000656E7473206C656E6774683A20004865B6
:1007E00061646572206C656E6774683A20000A5314
:1007F00074617475733A20000A506F736974696F7D
:100800006E3A20004669782074696D653A20004789
:100810004E53532076616C69643A2000557365200D
:10082000474E53533A20005D3A200052696F2064CE
:100830006174615B000A416D6269656E743A200003
:1008400048756D69646974793A2000537570706CED
:100850007920766F6C746167653A20000A52696F7F
:100860002074656D702E3A200053797374656D2085
:1008700074656D702E3A200054696D657374616DF6
:10088000703A2000474E53532073746174653A20C8
:10089000002D2D0A53616D706C696E672073746151
:1008A000727465642C20726561736F6E3A20005417
:1008B000696D65206572726F7220286F75722D47A1
:1008C0004E5353293A2000474E535320636C6F63B5
:1008D0006B2076616C69643A20003A2030780030F1
:1008E0007800454550524F4D2076616C7565733ADE
:1008F0000A004552524F523A206261642076616C80
:1009000075657320666F7220656570726F6D5265D4
:100910006164004552524F523A2062616420766110
:100920006C75657320666F7220656570726F6D57A8
:100930007269746500766572626F736974793A20C2
:10094000005265626F6F7420636F6D6D616E64201D
:1009500072656365697665642066726F6D20636F8A
:100960006E736F6C650A005265626F6F74696E67B3
:10097000202E2E2E0A0073616D706C696E67496EB1
:1009800074657276616C5F313674685F733A20000B
:10099000556E6B6E6F776E20636F6D6D616E643A2E
:1009A000200050726576696F757320636F6D6D619D
:1009B0006E642077617320746F6F206C6F6E672098
:1009C000666F72206275666665720A00556E6B6EA0
:1009D0006F776E204E4D45412073656E74656E6372
:1009E000653A2000426164204E4D454120636865B0
:1009F000636B73756D3A200078A46AD756B7C7E861
:100A0000DB702024EECEBDC1AF0F7CF52AC6874730
:100A1000134630A8019546FDD8988069AFF7448BFE
:100A2000B15BFFFFBED75C892211906B937198FD7B
:100A30008E4379A62108B44962251EF640B340C012
:100A4000515A5E26AAC7B6E95D102FD65314440248
:100A500081E6A1D8C8FBD3E7E6CDE121D60737C3AD
:100A6000870DD5F4ED145A4505E9E3A9F8A3EFFC89
:100A7000D9026F678A4C2A8D4239FAFF81F6718755
:100A800022619D6D0C38E5FD44EABEA4A9CFDE4B82
:100A9000604BBBF670BCBFBEC67E9B28FA27A1EA9E
:100AA0008530EFD4051D880439D0D4D9E599DBE62B
:100AB000F87CA21F6556ACC4442229F497FF2A4350
:100AC000A72394AB39A093FCC3595B6592CC0C8FE0
:100AD0007DF4EFFFD15D84854F7EA86FE0E62CFEAC
:100AE000144301A3A111084E827E53F735F23ABD9B
:100AF000BBD2D72A91D386EB000022002500280024
:100B00002B00000000000000000108030200090A99
:100B100000000000000000000407000000000000CA
:100B2000000000002100240027002A000102040820
:100B3000010204084020102040808040201008045A
:100B40000201108080402010080402010404040403
:100B5000020202020404020202020303030303036B
:100B60000303040401010101010101010A202052D3
:100B7000656D6F74653A2000286E6F6E6529000AF6
:100B80002020444E533A20000A202047573A2000A4
:100B90000A20204D61736B3A200020204C6F636166
:100BA0006C3A2000A66C11241FBECFEFD0E4DEBF4C
:100BB000CDBF13E0A0E0B1E0EEE3F0EF00E00BBF4B
:100BC00002C007900D92A03FB107D9F727E3A0EF2D
:100BD000B3E001C01D92A437B207E1F715E0C3ED01
:100BE000D5E004C02197FE010E94B077C23DD10735
:100BF000C9F70E9473710C941D780C940000CF9279
:100C0000DF92EF92FF92CF93DF93EC016A017B01B9
:100C100060EC76EC8DE290E0A70196010E941977D6
:100C20002150310941095109569547953795279526
:100C3000E889F98982E08083211580E1380798F0FE
:100C4000E889F989108260E673EE86E190E0A701F9
:100C500096010E9419772150310941095109569591
:100C6000479537952795EC85FD853083EE85FF8583
:100C70002083188EEC89FD8986E08083EA89FB89D0
:100C8000808180618083EA89FB898081886080839C
:100C9000EA89FB89808180688083EA89FB89808179
:100CA0008F7D8083DF91CF91FF90EF90DF90CF9089
:100CB000089591E0909371088093700810926F08E6
:100CC00010926E08089580916D0890916C08891BB0
:100CD000990B089590916C0880916D082FEF3FEF6C
:100CE000981748F4E92FF0E0E856F74F208130E0FC
:100CF0009F5F90936C08C901089590916C08809152
:100D00006D082FEF3FEF981748F4E92FF0E0E85611
:100D1000F74F208130E09F5F90936C08C9010895E0
:100D2000CF93DF93CDB7DEB76E970FB6F894DEBFE3
:100D30000FBECDBF9C019FE0E8E2F1E0DE015096DE
:100D400001900D929A95E1F79FE0E7E3F1E0DE0173
:100D5000119601900D929A95E1F7AAE7BDE01196E0
:100D60004D915C91129795E0949FF001959FF00D45
:100D7000112441E050E04C0F5D1FE40FF51F80810E
:100D8000F901808311962D913C91929FF001939FE0
:100D9000F00D1124E40FF51F87856E960FB6F894B9
:100DA000DEBF0FBECDBFDF91CF910895CF934FB778
:100DB000F89490917000811120C09D7F90937000F5
:100DC000B99A282F30E0F901E656F24F9081992325
:100DD000C9F010824FBFCFB77894220F331FF901AB
:100DE000EA56F24F408151812E56324FD901ED9192
:100DF000FC910995CFBFCF9108959B7F9093700090
:100E0000BA9ADFCF4FBFF7CF81E08093150160938F
:100E1000020108958F929F92AF92BF92CF92DF927C
:100E2000EF92FF92FC013FB7F8942091B100277038
:100E30008091B60080FDFCCF1092B10093B5926016
:100E400093BD4091BC0D5091BD0D6091BE0D709150
:100E5000BF0DC080D180E280F38084819581A6811E
:100E6000B781411551056105710509F456C0882403
:100E700099245401841A950AA60AB70A8C209D2049
:100E8000AE20BF208092680890926908A0926A08FC
:100E9000B0926B0841505109610971094C215D21E3
:100EA0006E217F21EFE0440F551F661F771FEA95E3
:100EB000D1F7842B952BA62BB72BE0915D08AC01C5
:100EC000BD010E2E04C076956795579547950A94F7
:100ED000D2F7DB01CA01882704C0880F991FAA1F17
:100EE000BB1FEA95D2F78093640890936508A0939E
:100EF0006608B09367088091B6008171E1F740936E
:100F0000B2002093B1003FBFFF90EF90DF90CF90F1
:100F1000BF90AF909F908F900895C0926808D09234
:100F20006908E0926A08F0926B08C7CF8CBD9DBD3E
:100F3000089520E3FC0120833296862F82958F70DE
:100F40006F706A3030F4605D6293682F8111F5CF65
:100F50000895695CF9CFFC016150770B85E0660F5D
:100F6000771F8A95E1F760764C50550B440F551F5B
:100F70004C70642B243041F0283041F0223011F0C5
:100F8000608308956160FCCF6260FACF6360F8CF40
:100F9000DC01ED91FC910190F081E02D0994EF923C
:100FA000FF920F931F93CF93DF938C017B01D0E0CF
:100FB000C0E0F701EC0FFD1F6491662361F0D801DA
:100FC000ED91FC910190F081E02DC8010995892BEC
:100FD00011F02196EECFCE01DF91CF911F910F91AD
:100FE000FF90EF900895AF92BF92CF92DF92EF9271
:100FF000FF920F931F93CF93DF936C017B018B01C3
:10100000040F151FEB015E01AE18BF08C017D10712
:1010100059F06991D601ED91FC910190F081E02D9C
:10102000C6010995892B79F7C501DF91CF911F91F1
:101030000F91FF90EF90DF90CF90BF90AF90089509
:10104000FC01538D448D252F30E0842F90E0821BCE
:10105000930B541718F081509F4F089501970895EE
:10106000FC01918D828D981759F0A28DAE0FBF2F84
:10107000B11D5D968C91928D9F5F928F90E0089547
:101080008FEF9FEF0895FC01918D828D981731F0BD
:10109000828DE80FF11D858D90E008958FEF9FEF11
:1010A0000895FC01918D828D981B892F90E0089501
:1010B0008EEB98E00E94510821E0892B09F420E092
:1010C000822F08958BED9AE00E94510821E0892B30
:1010D00009F420E0822F0895FC01A48DA80FB92FF8
:1010E000B11DA35EBE4F9C91848D8F5F848FA689B6
:1010F000B7899C93A089B1898C91837080648C930B
:10110000938D848D981306C00288F389E02D808129
:101110008F7D808308950F931F93CF93DF93EC010E
:1011200081E0888F9B8D8C8D981318C0E889F98990
:10113000808185FF13C09FB7F894EE89FF89608393
:10114000E889F98980818370806480839FBF81E012
:1011500090E0DF91CF911F910F910895062F1B8D85
:101160001F5F8C8D81130CC00FB607FCFACFE88986
:10117000F989808185FFF5CFCE010E946C08F1CFFF
:10118000EB8DEC0FFD2FF11DE35EFE4F00839FB74B
:10119000F8941B8FEA89FB8980818062D6CFCF9338
:1011A000DF93EC01888D8823B9F0AA89BB89E8898F
:1011B000F9898C9185FD03C0808186FD0DC00FB635
:1011C00007FCF7CF8C9185FFF2CF808185FFEDCFB3
:1011D000CE010E946C08E9CFDF91CF91089580E0A5
:1011E00090E0892B29F00E94620881110E94000082
:1011F00080E090E0892B29F00E94580881110C941E
:101200000000089590E0FC01EE5FF44F2491FC0192
:10121000E45DF44F3491845B944FFC018491882306
:1012200059F12223C1F021502A30A8F4E22FF0E036
:10123000E45EF64F0C94B0774109450926093D0953
:101240002B092B0948094E09520958099091800031
:101250009F7790938000E82FF0E0EE0FFF1FE8509B
:10126000F54FA591B4918FB7F894EC91611124C01A
:1012700030953E233C938FBF0895909180009F7DD1
:10128000E8CF94B59F7794BDE6CF94B59F7DFBCF13
:101290009091B0009F779093B000DDCF9091B00017
:1012A0009F7DF9CF909190009F7790939000D3CF3E
:1012B000909190009F7DF9CF3E2BDCCFCF93DF93B1
:1012C00090E0FC01E45DF44F2491845B944FFC01B9
:1012D00084918823C9F090E0880F991FFC01EE5D8E
:1012E000F44FA591B491FC01E850F54FC591D4910C
:1012F00061110DC09FB7F8948C91209582238C9337
:101300008881282328839FBFDF91CF910895623081
:1013100051F49FB7F8943C91822F809583238C934E
:10132000E8812E2BEFCF8FB7F894EC912E2B2C93D6
:101330008FBFEACF8830D8F497E0981B892F20918F
:101340001D0190E4299F900111248770822B8093C6
:101350007C0080917A00806480937A0080917A008A
:1013600086FDFCCF809178009091790008958FEFF1
:10137000E6CF9FB7F8944091450850914608609198
:1013800047087091480886B5A89B06C08F3F21F09A
:101390004F5F5F4F6F4F7F4F9FBF2227342F452FE7
:1013A000562F280F311D411D511DA5E0B0E00E94B0
:1013B0005A7708958F929F92AF92BF92CF92DF9209
:1013C000EF92FF926B017C010E94B9094B015C0115
:1013D000C114D104E104F104B9F00E94B9096819FB
:1013E00079098A099B09683E73408105910580F35C
:1013F00021E0C21AD108E108F10888EE880E83E0E6
:10140000981EA11CB11CE4CFFF90EF90DF90CF900D
:10141000BF90AF909F908F9008952FB7F8946091F0
:1014200041087091420880914308909144082FBF71
:10143000089508950FB6F89485B7806885BF85BF75
:101440000FBE089590E080E00895089581E008952A
:10145000FC01818D928D0895FC0187A190A50895CE
:101460002C9A08952C9808958EBD00000DB407FEA7
:10147000FDCF8EB50895CF92DF92EF92FF920F933A
:101480001F93CF93DF93EC017A018B016C01C40EA3
:10149000D51ECC15DD05A9F00E94320A8FE00E940E
:1014A000340A8D2F0E94340A8C2F0E94340A219610
:1014B00080E00E94340AF80181938F010E94300A73
:1014C000E8CFC701DF91CF911F910F91FF90EF906F
:1014D000DF90CF900895AF92BF92CF92DF92EF92BC
:1014E000FF920F931F93CF93DF9300D0CDB7DEB75A
:1014F0007A836983BA01A901E981FA81F770082F1B
:1015000010E0000F111F0B5A174FD8018D919C91BD
:101510008E0F9F1F9F01240F351F21303840A0F0F0
:101520005A016B0160E078E07B01EE1AFF0AA70127
:10153000B6010E943B0AA5014E195F09B6016E0D66
:101540007F1DF801808191810F900F90DF91CF91E5
:101550001F910F91FF90EF90DF90CF90BF90AF90D1
:101560000C943B0ACF92DF92EF92FF920F931F935E
:10157000CF93DF93EC017A018B016C01C40ED51E71
:10158000CC15DD05A1F00E94320A80EF0E94340ADA
:101590008D2F0E94340A8C2F0E94340A2196F80164
:1015A00081918F010E94340A0E94300AE9CFC7015D
:1015B000DF91CF911F910F91FF90EF90DF90CF902F
:1015C00008951F93CF93DF93D82F192FC62F0E9412
:1015D000320A80EF0E94340A812F0E94340A8D2F34
:1015E0000E94340A8C2F0E94340A0E94300A81E043
:1015F000DF91CF911F91089544E050E0BC018FE04E
:1016000090E00C94B20A44E050E0BC0185E090E028
:101610000C94B20A44E050E0BC0181E090E00C94EC
:10162000B20A0895CF936CE271E080E090E00E94EE
:10163000DA09CFB7F89480914C08811127C0E6E50C
:10164000FBE08491E6E3FBE09491E82FF0E0EE0FFD
:10165000FF1FEE5DF44FA591B491EC91E92321F4C5
:1016600061E08AE00E94020961E08AE00E945E096E
:101670008CB580618CBD8CB580648CBD61E08DE0E3
:101680000E945E0961E08BE00E945E0980914C0837
:101690008F5F80934C08CFBF249A80E590E00E9432
:1016A000960760E890E080E00E94E10A65E58BE142
:1016B00090E00E94E10A65E58AE190E00E94E10A7B
:1016C00080E090E490934E0880934D0880E090E68F
:1016D000909356088093550880E098E490935008C2
:1016E00080934F0880E098E69093580880935708BD
:1016F00080E090E5909352088093510880E090E755
:1017000090935A088093590880E098E59093540884
:101710008093530880E098E790935C0880935B087F
:10172000CF910895AF92BF92CF92DF92EF92FF9246
:101730000F931F93CF93DF935C016B01EA01790153
:101740000E94120B80E590E00E94960746E050E070
:10175000B50189E090E00E94B20AC60102960E949B
:10176000FC0AC70102960E940A0BC80102960E9459
:10177000030B8A819B81AC81BD818093000D909386
:10178000010DA093020DB093030DDF91CF911F9136
:101790000F91FF90EF90DF90CF90BF90AF900895A2
:1017A000CF93DF931F92CDB7DEB76983DC01ED9154
:1017B000FC910280F381E02D41E050E0BE016F5FBB
:1017C0007F4F09950F90DF91CF9108950E960C945D
:1017D000D00BFC0184899589089525E932E0FC014C
:1017E00031832083FB014089518962897389FC011F
:1017F00042835383648375830895DC01ED91FC91EA
:10180000048CF58DE02D09949B0190E00496982FAF
:101810008827642F820F931F0C94E10AFF920F9385
:101820001F93CF93DF93EB01FC01178A168A2A815D
:10183000211109C02B81211106C02C81211103C067
:101840002D81222359F14115510541F18A01FC01F5
:10185000F08C80E590E00E949607BE016E5F7F4F9E
:101860008F2D90E0982F882744E050E0845F9B4FB5
:101870000E94B20A412F60E170E08F2D0E94040C9B
:10188000402F61E170E08F2D0E94040C81E090E018
:10189000DF91CF911F910F91FF90089590E080E02C
:1018A000F7CF0F931F93CF93DF9300D000D000D0DA
:1018B000CDB7DEB7FC0143A554A525E932E03A8354
:1018C000298307A510A921A932A90B831C832D8385
:1018D0003E83BE016F5F7F4F0E960E940E0C2696D0
:1018E0000FB6F894DEBF0FBECDBFDF91CF911F9131
:1018F0000F910895CF93DF93C82FD0E02496DC2F6B
:10190000CC27C60FD71F0E94320A8FE00E94340AEC
:101910008D2F0E94340A8C2F0E94340A80E00E948E
:10192000340AC82F0E94300A8C2FDF91CF9108957E
:10193000CF93C82F462F61E070E00E94040C61E055
:1019400070E08C2F0E947A0C8111F9CFCF9108950D
:10195000CF93C82F80E590E00E94960760E170E089
:101960008C2F0E94980C4FEF62E070E08C2FCF918B
:101970000C94040CFF920F931F93CF93DF93C82F07
:10198000D62F8A01F22E0E94A80C80E590E00E94DA
:1019900096074D2F4F2970E060E08C2F0E94040CB9
:1019A00001151105C1F0412F64E070E08C2F0E94F9
:1019B000040C402F65E070E08C2F0E94040C61E065
:1019C00070E08C2F0E94980C81E0DF91CF911F91E5
:1019D0000F91FF90089500913E0810913F080F5F0E
:1019E0001F4F10933F0800933E08DDCFCF93DF9346
:1019F000EC01888D843021F00E94A80C84E0888F4F
:101A0000DF91CF9108951F93CF93DF93182F66E254
:101A100070E00E947A0CC82F67E270E0812F0E946C
:101A20007A0C9C2FDF91CF911F9108951F93CF9334
:101A3000DF93182F60E270E00E947A0CC82F61E2F9
:101A400070E0812F0E947A0C9C2FDF91CF911F9123
:101A50000895AF92BF92CF92DF92EF92FF921F93C1
:101A6000CF93DF93182F6B017A0180E590E00E94FD
:101A70009607B12CA12C812F0E94030DEC01892B1C
:101A800021F0812F0E94030D5C01CA15DB0599F737
:101A90002097E9F463E070E0812F0E947A0C843192
:101AA00059F0882349F0C1E0D0E08C3111F4D0E046
:101AB000C0E0D195C195D109CE01DF91CF911F91A1
:101AC000FF90EF90DF90CF90BF90AF900895EC160D
:101AD000FD060CF4E7011C161D0674F768E270E0C1
:101AE000812F0E947A0CE82E69E270E0812F0E941B
:101AF0007A0C282F3E2D79019E01A601B701812F76
:101B00000E946B0AEC0EFD1E4F2D68E270E0812FE3
:101B10000E94040C4E2D69E270E0812F0E94040C9B
:101B200060E470E0812F0E94980CC6CFCF93DF93C2
:101B3000FC01218D328D2115310529F48FEF9FEFA6
:101B4000DF91CF910895EC01808D4217530708F083
:101B5000A9010E94290D1816190684F7298D3A8DBE
:101B6000281B390B3A8F298FEBCF0F931F93CF93FD
:101B7000DF931F92CDB7DEB7FC01218D328D232B71
:101B800041F48FEF9FEF0F90DF91CF911F910F9155
:101B900008958C0141E050E0BE016F5F7F4FFC0172
:101BA000808D0E94290D181619065CF7F801818DA9
:101BB000928D0197928F818F898190E0E4CF0E966C
:101BC0000C94B50DBF92CF92DF92EF92FF920F93DC
:101BD0001F93CF93DF9300D000D000D0CDB7DEB7F6
:101BE000FC01208D243009F06DC06A017B018C015D
:101BF000B12C63E070E08B2D0E947A0C81115AC0E9
:101C0000F801B08EF801808D843009F45BC096E055
:101C1000E6E4F1E0DE01119601900D929A95E1F76C
:101C2000F70193819F779C8394819D8395819E8307
:101C3000B7016E5F7F4F90E0982F882744E050E017
:101C4000845F9B4F0E94B20AF801F08C4D2D60E139
:101C500070E08F2D0E94040C4C2D61E170E08F2DFF
:101C60000E94040CF801808D90E0982F882746E0B0
:101C700050E0BE016F5F7F4F8A5F9B4F0E94B20AA8
:101C8000F801128E118E20E8A60162E0808D0E947C
:101C9000BA0C81E026960FB6F894DEBF0FBECDBF1A
:101CA000DF91CF911F910F91FF90EF90DF90CF9038
:101CB000BF900895883109F4A3CFB394F4E0BF1224
:101CC00098CFA0CF80E0E6CF7F928F929F92AF9285
:101CD000BF92CF92DF92EF92FF920F931F93CF9319
:101CE000DF936C015B01EA01FC0186889788708CA8
:101CF00080E590E00E949607F12CE12C872D0E9450
:101D0000160D8C01892B21F0872D0E94160D7C0168
:101D10000E151F0599F70C171D0778F410E000E069
:101D2000872D0E94160DEC01892B21F0872D0E9432
:101D3000160D8C01C017D10799F764E270E0872D6A
:101D40000E947A0C082F65E270E0872D0E947A0CC1
:101D5000902F8C01080D191D98013770872C912C3C
:101D6000880C991CC401835B974F4C01FC01808156
:101D70009181820F931FAE01420F531F4130584093
:101D8000C0F160E078E07B01E21AF30AA701B50137
:101D90000E94B20AAE014E195F09B5016E0D7F1D9A
:101DA000F401808191810E94B20A0C0F1D1F412F06
:101DB00064E270E0872D0E94040C402F65E270E021
:101DC000872D0E94040CF601868997898C0F9D1F30
:101DD000978B868BCE01DF91CF911F910F91FF9052
:101DE000EF90DF90CF90BF90AF909F908F907F90BB
:101DF0000895AE01B501D7CFCF93FC01C08D80E52A
:101E000090E00E94960760E270E08C2F0E94980C90
:101E100062E070E08C2F0E947A0C84FD16C062E0B4
:101E200070E08C2F0E947A0C83FF0AC048E162E0C8
:101E300070E08C2F0E94040C90E080E0CF91089518
:101E400080E590E00E949607E3CF40E162E070E019
:101E50008C2F0E94040C81E090E0F0CF0E960C9441
:101E6000FC0EEF92FF921F93CF93DF93FC01208D26
:101E7000243039F080E0DF91CF911F91FF90EF90F7
:101E800008957B01EC0110E080E590E00E94960748
:101E900063E070E0812F0E947A0C81110FC0188FCF
:101EA000888D843039F3FD86EC861A8E198E20E0F9
:101EB000A70162E00E94BA0C81E0DDCF883179F39E
:101EC0001F5F143009F7ECCFCF93DF93EC018AE06A
:101ED0008093423784E080934337D0936037C09338
:101EE0005F37FB0182819381A481B581809365373F
:101EF00090936637A0936737B093683750936237F3
:101F00004093613761E08AE00E945E0961E0809160
:101F100042370E940209809143378F3F41F061E0D0
:101F20000E945E0961E0809143370E940209BE0170
:101F300084E497E30E94310F81E0DF91CF9108950F
:101F4000FC012081243209F40196FC0120E0CF013C
:101F50003191332341F03A3231F02327F8CF305D0D
:101F600008C0205D0CC0322F32953F703A30B8F374
:101F7000395CFB0130832F702A3098F3295CFB0118
:101F80002183089530E020E0EAE0615080F0DC0138
:101F90007D91CD01E29FA001E39F500D11249A0194
:101FA000270F311D77FD3A9520533109EECFC90136
:101FB0000895882349F08D3039F0982F9F7D81E076
:101FC0009A3019F080E0089581E00895BF92CF9291
:101FD000DF92EF92FF920F931F93CF93DF93EB016A
:101FE0008C01D12CC12C892B61F490E080E0DF9131
:101FF000CF911F910F91FF90EF90DF90CF90BF9006
:1020000008957801F801B1908F01FCE2BF16F9F054
:102010008B2D0E94D90F81110CC0C601209739F079
:10202000019626E0C216D10414F4B88221966C0100
:10203000E8CF2097D1F286E0C816D1040CF41882BC
:10204000F70180818C3289F6C7010196D0CF2097A5
:10205000D9F3F1CFCF92DF92FF920F931F93CF93DB
:10206000DF93EC010097B1F08C016801F801F19069
:102070008F018F2D0E94D90F81110AC0E801FCE267
:10208000FF12F3CFF60181810E94D90F882311F04E
:10209000D0E0C0E0CE01DF91CF911F910F91FF9072
:1020A000DF90CF900895CF93DF93EC0162E00E9420
:1020B000C20F80936E0D62E0CE0102960E94C20FA5
:1020C00080936F0D62E0CE0104960E94C20F809350
:1020D000700D62E0CE0107960E94C20F8093710DD1
:1020E000CE010996DF91CF910C942A106AE00E94EC
:1020F0007C778295807F890F0895982F92959F70A5
:102100008F702AE0929F800D11240895CF93DF9362
:10211000CDB7DEB72D970FB6F894DEBF0FBECDBF9B
:102120002DE0ECE4F1E0DE01119601900D922A958C
:10213000E1F7623021F483709927892B81F0E1E087
:10214000F0E0EC0FFD1FE60FF11D80812D960FB61C
:10215000F894DEBF0FBECDBFDF91CF9108958DE122
:10216000F5CF7F928F929F92AF92BF92CF92DF92E4
:10217000EF92FF920F931F93CF93DF93EC0188812F
:1021800099816CE370E00E949C772A813B81620F09
:10219000731F7B836A8397FD33C0998388838A8109
:1021A0009B816CE370E00E949C772C813D81620FE3
:1021B000731F7D836C8397FD2BC09B838A838C81E7
:1021C0009D8168E170E00E949C772E813F81620FC3
:1021D000731F7F836E8397FD23C09D838C838885C7
:1021E00099850C9740F48E819F813BE0A32EB12C02
:1021F00018161906FCF0CC24CA94DC2C7601E0C039
:10220000CC9699838883615071097B836A83C7CF99
:10221000CC969B838A83615071097D836C83CFCF79
:1022200048969D838C83615071097F836E83D7CFDD
:10223000998688868884998477247394780C0A8593
:102240001B85680184E9C81A88EFD80A672DC60182
:102250000E948610EE80FF8090E08E159F0594F41A
:10226000E81AF90AFF82EE828FEF881A980A8CE04A
:1022700088169104E9F6198618860F5F1F4F1B8791
:102280000A87D8CF1E141F04DCF081E0881A910859
:1022900080F09986888668856F5F8A859B858459DA
:1022A000984F0E9486108E0D9F2D911D9F838E83C7
:1022B000C1CFB986A886015011091B870A87EBCFC9
:1022C00061E0B12CA12C671550F499249394960EDB
:1022D000C6010E948610A80EB11C692DF4CFF7012B
:1022E0003197EA0DFB1DFF87EE8706578DE691E0DB
:1022F000089F9001099F300D1124032E000C440B00
:10230000550B802F86958695280F311D411D511D37
:1023100060E871E581E090E00E9409770370C12CCC
:10232000D12C7601033039F420E8C22E21E5D22EDB
:10233000EE24E394F12CC60ED71EE81EF91EDF0131
:1023400020E831E541E050E00E946577C60ED71ED7
:10235000E81EF91EAC81BD8120E13EE00E94C077FD
:10236000C60ED71EE81EF91E2A813B814CE3429F10
:10237000C001439F900D1124C80ED91EE11CF11C11
:1023800088819981092E000CAA0BBB0BC80ED91E9F
:10239000EA1EFB1EC701B60120E831E541E050E02E
:1023A0000E943B77CA01B9016F5F7F4F8F4F9F4FEC
:1023B00027E030E040E050E00E9419777D876C878D
:1023C000C701B601DF91CF911F910F91FF90EF9060
:1023D000DF90CF90BF90AF909F908F907F900895A7
:1023E0001F93CF93DF93CDB7DEB762970FB6F89404
:1023F000DEBF0FBECDBF1FB7F8948091540D882368
:1024000009F403C180916A0D90916B0D8C56974031
:102410009C878B8780916C0D8150990B9A87898757
:1024200080916D0D90E098878F8380916E0D90E084
:102430009E838D8380916F0D90E09C838B83809130
:10244000700D90E09A8389838FEF9FEF988B8F8731
:10245000CE0101960E94B1106093410D7093420D20
:102460008093430D9093440D8091410D9091420DC6
:10247000A091430DB091440D8F3F9F4FAF4FBF4F81
:1024800009F0ACC010922B0D8091530D80932A0D52
:102490008091720D8093450D8091730D8093460D50
:1024A0008091550D9091560DA091570DB091580DFA
:1024B00080932C0D90932D0DA0932E0DB0932F0D86
:1024C0008091590D90915A0DA0915B0DB0915C0DCA
:1024D0008093300D9093310DA093320DB093330D56
:1024E0002091610D80E090E0A0E0B0E8222341F06F
:1024F00080915D0D90915E0DA0915F0DB091600D8A
:102500002093380D2091380D222341F08093340D13
:102510009093350DA093360DB093370D1092530D57
:102520001092720D8FEF8093730D1092540D80EC0A
:1025300097E8ABE8BBE38093550D9093560DA093BD
:10254000570DB093580D8093590D90935A0DA09349
:102550005B0DB0935C0D80E090E0A0E0B0E880936C
:10256000660D9093670DA093680DB093690D8093ED
:10257000620D9093630DA093640DB093650D8093ED
:102580005D0D90935E0DA0935F0DB093600D109262
:10259000610D10926D0D10926C0D10926B0D1092DA
:1025A0006A0D83E68093700D80936F0D80936E0D9E
:1025B0001092710DE091780DF091790D309719F02E
:1025C0008AE29DE009951FBF62960FB6F894DEBFC0
:1025D0000FBECDBFDF91CF911F9108958091410D26
:1025E0009091420DA091430DB091440D0196A11D13
:1025F000B11D8093410D9093420DA093430DB09374
:10260000440D81E080932B0D3FCF2FB7F8941092AB
:102610002B0D10922A0D1092450D8FEF8093460DD1
:1026200080EC97E8ABE8BBE380932C0D90932D0DE5
:10263000A0932E0DB0932F0D8093300D9093310DFC
:10264000A093320DB093330D80E090E0A0E0B0E8AD
:1026500080933D0D90933E0DA0933F0DB093400DA0
:102660008093390D90933A0DA0933B0DB0933C0DA0
:102670008093340D9093350DA093360DB093370DA4
:102680001092380D2FBF4ACF0F931F93CF93DF9334
:10269000FC010081118122813381EB0188819981C4
:1026A000AA81BB81081719072A073B07ACF0081756
:1026B00019072A073B0771F481E0048115812681FF
:1026C00037814C815D816E817F8104171507260754
:1026D00037071CF080E001C081E0DF91CF911F91AE
:1026E0000F9108950F931F93CF93DF93FC01008107
:1026F000118122813381EB0188819981AA81BB817B
:10270000081719072A073B0771F481E00481158136
:10271000268137814C815D816E817F810417150789
:102720002607370709F080E0DF91CF911F910F91C5
:1027300008950F931F93FC0184819581A681B78131
:102740004081518162817381811520E89207A10542
:10275000B105DCF18C019D010F2EFFE03595279529
:1027600017950795FA95D1F7F02D400F511F621F6D
:10277000731F40835183628373839F77AA27BB278C
:1027800084839583A683B78380819181A281B3815D
:10279000B7FF42C0448155816681778114161506C2
:1027A0001606170674F40196A11DB11D808391834E
:1027B000A283B383505861097109448355836683AA
:1027C0007783CF011F910F910895B7FFDDCFB095AB
:1027D000A095909581959F4FAF4FBF4F8C019D0164
:1027E0000F2EFFE03595279517950795FA95D1F7A8
:1027F000F02D401B510B620B730B4083518362839E
:1028000073839F77AA27BB27B095A0959095819554
:102810009F4FAF4FBF4FB4CF0097A105B10589F2CD
:10282000448155816681778177FFCBCF0197A109DC
:10283000B10980839183A283B38350586F4F7F4F38
:10284000BCCF8F929F92AF92BF92CF92DF92EF92C6
:10285000FF92CF93DF93EC018FB7F8949091B6007D
:1028600094FDFCCFA091B200809068089090690818
:10287000A0906A08B0906B08C0906408D09065087A
:10288000E0906608F09067088FBF20916008309153
:1028900061084091620850916308B0E00E945A7745
:1028A000C60ED71EE81EF91ED701C6012FE0B69549
:1028B000A795979587952A95D1F7880D991DAA1DFB
:1028C000BB1D88839983AA83BB83CE010E94991381
:1028D000E894D7F8EE24FF24CC82DD82EE82FF82DA
:1028E000CE01DF91CF91FF90EF90DF90CF90BF901E
:1028F000AF909F908F900C9499137F928F929F929C
:10290000AF92BF92CF92DF92EF92FF920F931F93FD
:10291000CF93DF93CDB7DEB760970FB6F894DEBFE5
:102920000FBECDBF8C017FB6F89488E0F801ACEA09
:10293000BDE001900D928A95E1F7C090BC0DD0905A
:10294000BD0DE090BE0DF090BF0DC114D104E104A7
:10295000F10409F4A0C01092A00D1092A10D1092E4
:10296000A20D1092A30D8CE99DE00E949913809016
:10297000AC0D9090AD0DA090AE0DB090AF0DC50117
:10298000B401A70196010E943B776B017C018C1872
:102990009D08AE08BF0880929C0D90929D0DA0925C
:1029A0009E0DB0929F0D8CE99DE00E9499138FE0DF
:1029B000CC0CDD1CEE1CFF1C8A95D1F78091B00D6C
:1029C0009091B10DA091B20DB091B30DC82AD92A42
:1029D000EA2AFB2A80915D0804C0F694E794D79414
:1029E000C7948A95D2F7C0925E0884E097E09093EE
:1029F000930D8093920D1092970D1092960D81E099
:102A000080939A0D7FBE19861A861B861C861D86AA
:102A10001E861F86188ACE0109960E942114FFB6D1
:102A2000F8948091640890916508A0916608B0912F
:102A30006708409168085091690860916A08709130
:102A40006B0849835A836B837C838D839E83AF831A
:102A5000B887CE0101960E9499138091B60084FD3B
:102A6000FCCFBE016F5F7F4F8CE99DE00E94721327
:102A7000882339F080915E089091B200981708F48D
:102A800045C0B801CE0109960E944413FFBE8823B9
:102A900009F459C05CC08091AC0D9091AD0DA0912E
:102AA000AE0DB091AF0D80939C0D90939D0DA093B2
:102AB0009E0DB0939F0D8CE99DE00E94991380902C
:102AC000B00D9090B10DA090B20DB090B30D2091CB
:102AD000C00D3091C10D4091C20D5091C30DC50183
:102AE000B4010E943B776B017C018C189D08AE08F5
:102AF000BF088092A00D9092A10DA092A20DB0925D
:102B0000A30D8CE99DE00E94991364CF9091B600CB
:102B100093FDFCCF8093B30080917000826080931E
:102B20007000CE0109960E942114B801CE010996C9
:102B30000E944413811104C080919A0D811102C03A
:102B4000FFBEA8CFFFBE61E080E00E94D60681E014
:102B500060960FB6F894DEBF0FBECDBFDF91CF9168
:102B60001F910F91FF90EF90DF90CF90BF90AF90AB
:102B70009F908F907F9008950F931F93CF93DF9333
:102B8000EC0188819981AA81BB81FB0100811181BF
:102B900022813381800F911FA21FB31F88839983E5
:102BA000AA83BB838C819D81AE81BF814481558185
:102BB00066817781840F951FA61FB71F8C839D8325
:102BC000AE83BF83CE010E949913CE01DF91CF91D6
:102BD0001F910F9108950F931F93CF93DF93CDB75C
:102BE000DEB728970FB6F894DEBF0FBECDBF8C01BD
:102BF000FB0184819581A681B781B095A0959095C0
:102C000081959F4FAF4FBF4F40815181628173814A
:102C100070956095509541955F4F6F4F7F4F4983F9
:102C20005A836B837C838D839E83AF83B887CE0169
:102C300001960E949913BE016F5F7F4FC8010E94E9
:102C4000BC15C80128960FB6F894DEBF0FBECDBFE5
:102C5000DF91CF911F910F910895FC0180818C70BD
:102C600090E0FC01F695E795E80FF91FE456FE4F5A
:102C700080819181A281BC018A2F90E008950F93F9
:102C80001F93CF93DF93EC010E94B909088119814A
:102C90002A813B81DC01CB01800F911FA21FB31F52
:102CA0008C839D83AE83BF83DF91CF911F910F9162
:102CB00008952F923F924F925F926F927F928F92E0
:102CC0009F92AF92BF92CF92DF92EF92FF920F93BB
:102CD0001F93CF93DF9300D000D000D0CDB7DEB7E5
:102CE0008C0161507109CA01880F991F880F991FC3
:102CF0009801280F391F3A832983312C212CE9812F
:102D0000FA81C080D180E280F380261637060CF06D
:102D100051C09101C101880F991F880F991F800F21
:102D2000911F9E838D83CB01D901ED81FE8181901E
:102D30009190A190B190FE83ED838C149D04AE041C
:102D4000BF04ACF0FC01EE0FFF1FEE0FFF1FE00F02
:102D5000F11FFC83EB833497448055806680778035
:102D6000C414D504E604F7042CF40197F2CF2F5FC6
:102D70003F4FDACF821793079CF0ED81FE813497A5
:102D80004082518262827382EB81FC8180829182D7
:102D9000A282B382D901119601978A179B073CF74B
:102DA000841795070CF41D014A175B070CF0CB0143
:102DB000BC01A5CFC701B60126960FB6F894DEBFB9
:102DC0000FBECDBFDF91CF911F910F91FF90EF907C
:102DD000DF90CF90BF90AF909F908F907F906F903B
:102DE0005F904F903F902F900895DB01A40FB11D8D
:102DF000282FFC018E2F821B841718F48E9181934B
:102E0000F9CF08950F931F93CF93DF93DC011496AE
:102E1000EC911497F0E0FE2FEE2715968C91159704
:102E2000E80FF11DC42FD0E0CC0FDD1FC552DE4FDF
:102E300088819981EF01C80FD91F6C177D0798F021
:102E4000B9018D01EA0FFB1F41934FEF480FCF01EE
:102E50000E94F516F801D483C58381E0DF91CF91FC
:102E60001F910F91089580E0F9CF8F929F92BF92AA
:102E7000CF92DF92EF92FF920F931F93CF93DF9346
:102E800000D0CDB7DEB7FC01B62E6A0179019A01F8
:102E9000220F331F220F331FC90101969A838983A2
:102EA000848190E0982F88270581080F192F111D24
:102EB0002C5F3F4F200F311F213084E0380738F559
:102EC000348325830E0F1F1F21E2F8012193CF01C8
:102ED00042E0BE016F5F7F4F0E94F5164801F4E0AB
:102EE0008F0E911CF801B38210E000E0C016D106ED
:102EF000E9F044E0B701C4010E94F516F4E08F0E3A
:102F0000911C84E0E80EF11C0F5F1F4FEFCF80E0B3
:102F10000F900F90DF91CF911F910F91FF90EF9045
:102F2000DF90CF90BF909F908F90089581E0F0CF79
:102F30000F931F93CF93DF9300D000D000D0CDB775
:102F4000DEB7FC018B0181E4DB018C9387E51196F0
:102F50008C931197808112968C93129781818E7F2A
:102F600013968C93139714961C9214978EE01596D3
:102F70008C9315978281938116969C93169717963A
:102F80008C938085918544815581668177814983C1
:102F90005A836B837C839E838D8344E0BE016F5F85
:102FA0007F4FC80108960E94F51642E0BE016B5F94
:102FB0007F4FC8010C960E94F51681E026960FB649
:102FC000F894DEBF0FBECDBFDF91CF911F910F915F
:102FD0000895FC01248130E0322F22279581A90138
:102FE000490F511DCA01238120FD0A9708952F9290
:102FF0003F924F925F926F927F928F929F92AF9289
:10300000BF92CF92DF92EF92FF920F931F93CF93D5
:10301000DF93CDB7DEB72C970FB6F894DEBF0FBEA7
:10302000CDBF5B01822E902EE98628E0E9E5F1E034
:10303000DE01119601900D922A95E1F7437050E060
:103040001A01220C331C220C331C280E391ED1010C
:103050004D905D906D907C906A01BFEFCB1ADB0ABA
:10306000E3E0CE22DD24CC0CDD1CCC0CDD1CC80E34
:10307000D91EFA013396E370FF27EE0FFF1FEE0F04
:10308000FF1FE80FF91FE080F180028113814E5F7E
:103090005F4F43705527440F551F440F551F840F32
:1030A000951FDC012D913D914D915C91F601608160
:1030B000718182819381A985EA2FF0E0EE0FFF1FD5
:1030C000A1E0B0E0AC0FBD1FEA0FFB1F0190F08143
:1030D000E02D0995B4E09B9EF0011124E850F64FD5
:1030E000259135914591549129873A874B875C8783
:1030F000D5010D911D912D913C91400E511E621EE6
:10310000731E460E571E681E791E89859A85AB85EB
:10311000BC85840D951DA61DB71DAC01BD01082CF5
:1031200004C0440F551F661F771F0A94D2F7282D3D
:1031300021952F712C013D0104C07694679457941A
:1031400047942A95D2F7442A552A662A772AF60107
:1031500080819181A281B381840D951DA61DB71D2B
:10316000F10180839183A283B3832C960FB6F894E8
:10317000DEBF0FBECDBFDF91CF911F910F91FF90AA
:10318000EF90DF90CF90BF90AF909F908F907F9007
:103190006F905F904F903F902F9008953F924F9285
:1031A0005F926F927F928F929F92AF92BF92CF92D7
:1031B000DF92EF92FF920F931F93CF93DF93CDB7E0
:1031C000DEB7A0970FB6F894DEBF0FBECDBF6C017F
:1031D0005B01FC0180819181A281B38189839A8303
:1031E000AB83BC8384819581A681B7818D839E83C7
:1031F000AF83B88780859185A285B38589879A87B3
:10320000AB87BC8784859585A685B7858D879E8786
:10321000AF87B88B8091610190916201A0916301A9
:10322000B0916401898B9A8BAB8BBC8B3B01F12CE9
:103230002E0181E1480E511C43010F2D14E033246F
:103240003394300EF20121912F01E12C412FB40172
:10325000CE0101960E94F7171150F4E08F0E911CD9
:10326000032D1111ECCF84E0F80EE0E16E0E711C1D
:10327000F0E1FF12DDCF8091650190916601A09190
:103280006701B09168018D8B9E8BAF8BB88F8824BE
:103290008394912C0FE0080D2E01F5E14F0E511C87
:1032A000340114E0FF24F394F00EF20121912F0178
:1032B000B3016F707727660F771F660F771F6A0D50
:1032C0007B1DEE24E394412FCE0101960E94F71757
:1032D0001150F5E06F0E711C0F2D1111E3CF84E03A
:1032E000880E911CE1E18E169104A1F6809169018E
:1032F00090916A01A0916B01B0916C01898F9A8FB6
:10330000AB8FBC8FF5E06F2E712C10E22E01E9E13E
:103310004E0E511C4301012F44E0F42E332433940C
:10332000300EF20121912F01B4016F707727660FE3
:10333000771F660F771F6A0D7B1DE2E0EE2E4F2D83
:10334000CE0101960E94F717FA94F3E08F0E911CBC
:10335000032DF110E3CF1C5F84E0681A710810336D
:10336000A9F680916D0190916E01A0916F01B091CD
:1033700070018D8F9E8FAF8FB8A3712C612C2E01A1
:10338000EDE14E0E511C4301012F84E0F82E332451
:103390003394300EF20121912F01B4016F70772721
:1033A000660F771F660F771F6A0D7B1D33E0E32ED4
:1033B0004F2DCE0101960E94F717FA94F7E08F0E79
:1033C000911C032DF110E3CF1C5F84E0681A710893
:1033D0001034A9F6F60180819181A281B3814981DF
:1033E0005A816B817C81840F951FA61FB71F808334
:1033F0009183A283B38384819581A681B7814D8116
:103400005E816F817885840F951FA61FB71F848307
:103410009583A683B78380859185A285B3854985E9
:103420005A856B857C85840F951FA61FB71F8087E3
:103430009187A287B38784859585A685B7854D85B5
:103440005E856F857889840F951FA61FB71F8487B7
:103450009587A687B78780899189A289B3890196C4
:10346000A11DB11D808B918BA28BB38BA0960FB643
:10347000F894DEBF0FBECDBFDF91CF911F910F91AA
:10348000FF90EF90DF90CF90BF90AF909F908F9084
:103490007F906F905F904F903F900895EF92FF92D2
:1034A0000F931F93E094F094009510956E297F2957
:1034B000802B912B62277327842795271F910F91CB
:1034C000FF90EF900895EF92FF920F931F932E2598
:1034D0003F254027512762277327842795271F916F
:1034E0000F91FF90EF900895EF92FF920F931F932B
:1034F00062277327842795276E217F2180239123BC
:1035000062277327842795271F910F91FF90EF90D3
:103510000895EF92FF920F931F932E253F2540278A
:10352000512762237323842395236E257F258027CB
:1035300091271F910F91FF90EF900895209115080A
:10354000260F3327331F21323105ECF42091B808C0
:10355000FC0190E080E0243069F082E00895A091C1
:1035600015082191AC014D50584FA40FB52FB11D36
:103570002C930196861798F380911508680F609335
:10358000150880E0089581E008951092B80881E060
:10359000809397081092920861E084E10E940209EA
:1035A00061E085E10E940209E9EBF0E080818E7F15
:1035B000808380818D7F808384E38093B80085E45D
:1035C0008093BC000895CF93DF9391E09093F2072E
:1035D0008823B9F0C091B800D091BA008091BC00A6
:1035E0008A7B8093BC0060E084E10E94020960E075
:1035F00085E10E9402090E94C51AD093BA00C093C7
:10360000B800DF91CF910895CF92DF92EF92FF92B1
:103610000F931F93CF93DF93D82FC62F613208F0FB
:1036200098C00E94B9096B017C018091B808811192
:103630006BC081E08093B808809397089FEF9093C8
:103640009608109295089C0F909394088093930885
:1036500080919308DD0FD82BD09393088091920826
:10366000813009F078C0109292080E94B9096B016C
:103670007C01809193088093BB008091BA0890915F
:10368000BB08A091BC08B091BD08892B8A2B8B2B5D
:10369000A1F00E94B9090091BA081091BB082091CD
:1036A000BC083091BD086C197D098E099F09061769
:1036B00017072807390708F448C08091BC0083FD2C
:1036C000D8CF85EC8093BC000E94B9096B017C01C6
:1036D0008091B808813009F440C0809195088C171A
:1036E00010F4C0919508E2E7F8E0A8E9B8E080E0BE
:1036F0008C1355C08C2FDF91CF911F910F91FF90AC
:10370000EF90DF90CF9008958091BA089091BB0818
:10371000A091BC08B091BD08892B8A2B8B2B09F492
:1037200084CF0E94B9090091BA081091BB0820917A
:10373000BC083091BD086C197D098E099F090617D8
:1037400017072807390708F070CF8091B9080E9441
:10375000E31AC0E0CFCF85EEB5CF8091BA08909143
:10376000BB08A091BC08B091BD08892B8A2B8B2B7C
:1037700009F4AECF0E94B9090091BA081091BB08B4
:103780002091BC083091BD086C197D098E099F09F4
:10379000061717072807390708F09ACFD6CF919157
:1037A0009D938F5FA5CF08950895E0916C08809157
:1037B0006D08E81730F4F0E0E856F74F808190E0AC
:1037C00008958FEF9FEF0895CF92DF92EF92FF92CF
:1037D0000F931F93CF93DF937C01CB018A0120913C
:1037E0007108222389F0EB016B01C40ED51ECC15A4
:1037F000DD0569F06991D701ED91FC910190F081AF
:10380000E02DC7010995F3CF642F0E949E1AC801CD
:10381000DF91CF911F910F91FF90EF90DF90CF90AC
:103820000895CF93DF931F92CDB7DEB769832091C0
:1038300071082223F9F020916E08203258F021E01F
:1038400030E0FC013383228390E080E00F90DF9131
:10385000CF91089580916F08E82FF0E0EE52F84F75
:10386000998190838F5F80936F0880936E0881E0C9
:1038700090E0ECCF61E0CE0101960E949E1AF7CF56
:10388000682F8DE692E30C94111CCF92DF92EF9299
:10389000FF920F931F93CF93DF93D0916E0881E037
:1038A000D13208F09CC0C09170080E94B9096B0128
:1038B0007C018091B80881116CC082E08093B808C7
:1038C00081E0809397088FEF809396081092950877
:1038D000D0939408A2EDB7E0E2E7F8E080E0D813D7
:1038E0008DC01092930880919308CC0FC82BC09381
:1038F000930880919208813009F084C01092920858
:103900000E94B9096B017C01809193088093BB00F0
:103910008091BA089091BB08A091BC08B091BD08F5
:10392000892B8A2B8B2BA1F00E94B9090091BA0830
:103930001091BB082091BC083091BD086C197D091D
:103940008E099F09061717072807390708F442C090
:103950008091BC0083FDD8CF85EC8093BC000E9491
:10396000B9096B017C018091B808823009F44CC020
:10397000809196088F3F09F469C080919608803243
:1039800009F466C080919608803309F463C084E02E
:1039900026C08091BA089091BB08A091BC08B09154
:1039A000BD08892B8A2B8B2B09F483CF0E94B90980
:1039B0000091BA081091BB082091BC083091BD0855
:1039C0006C197D098E099F09061717072807390703
:1039D00008F06FCF8091B9080E94E31A85E0109239
:1039E0006F0810926E0810927108DF91CF911F91AD
:1039F0000F91FF90EF90DF90CF9008959D9191935C
:103A00008F5F6DCF85EEA9CF8091BA089091BB08EA
:103A1000A091BC08B091BD08892B8A2B8B2B09F48F
:103A2000A2CF0E94B9090091BA081091BB08209159
:103A3000BC083091BD086C197D098E099F090617D5
:103A400017072807390708F08ECFC4CF80E0C7CF0B
:103A500082E0C5CF83E0C3CFCF93DF93D82FC62FAB
:103A600080917A0D0E9459066D2F8DE692E30E9497
:103A7000111C6C2F8DE692E30E94111C8DE692E3DF
:103A8000DF91CF910C94451C682F80917B0D909114
:103A90007C0D8130910521F0029779F080E0089546
:103AA000603839F067FD06C088E00E942C1D81E077
:103AB000089561E861956068F7CF84E2F6CFCF930F
:103AC000DF93D82FC62F8091203380620E94590641
:103AD0006D2F8DE692E30E94111C6C2F8DE692E310
:103AE0000E94111C8DE692E3DF91CF910C94451C4E
:103AF000E0913237E830E0F4F0E0E057FD4C6085CB
:103B000081E020913337211101C081E09091903202
:103B10009923B9F0660F6E7090E1299F90011124EE
:103B2000622B8295880F807E682B89E00C945F1D44
:103B300080919732E82FF0E0E057FD4C608581706E
:103B4000E0CF089580E00E94590688E090E00E944E
:103B5000401C8DE692E30C94451C80E00E945906BF
:103B600086E090E00E94401C8DE692E30C94451C98
:103B700090E080E008958091D107811113C04CE856
:103B800050EF61E070E06BBFFA0147915791679188
:103B90007691483549F4523439F46A3629F47093F1
:103BA000D107089580E0089581E00895CF92DF92D3
:103BB000EF92FF921F93CF93DF936B017C01EA0199
:103BC000122F0E94BB1D811105C08091D107813049
:103BD00049F082E0DF91CF911F91FF90EF90DF904D
:103BE000CF9008958CE990EFA1E0B0E0ABBFFC016D
:103BF000A791B691CD0101978E3F9F4F28F10E946A
:103C0000BB1D8111E7CF8091D107813011F786E983
:103C100090EFA1E0B0E0ABBFFC01A791B691CD0160
:103C200001978E3F9F4FA8F6C701B60178508F4F7E
:103C30009F4F212FAE01FD01DF91CF911F91FF908A
:103C4000EF90DF90CF900994212FAE01C701B6010C
:103C5000F2CF62EA79E00C94CF0767E679E08BED6A
:103C60009AE00E94CF078BED9AE00E94CF08F8946B
:103C70000FB6F894A89580916000886180936000E9
:103C8000109260000FBE88E198E00FB6F894A895F6
:103C9000809360000FBE90936000FFCFEB0161E462
:103CA00079E0CE010E94CF07E881F9810680F78193
:103CB000E02DCE0109950E942D1E0F931F93CF93E7
:103CC000DF93EC0181E08093D00761E08BE10E94FB
:103CD00002099FB7F89489819FBF811107C0109294
:103CE000B8071092B7071092CE073AC080916A3297
:103CF00090916B32892B19F50E94B90900916632B7
:103D0000109167322091683230916932DC01CB0129
:103D1000801B910BA20BB30B80959095A095B0954D
:103D20008827B7FD83959927AA27BB27882351F0B9
:103D300081E090E09093B8078093B707D4CF0E94BA
:103D40000D0ADCCF8091B7079091B80782309105BA
:103D5000D1F10397D9F581E08093CE078093CF0707
:103D600080EB94E0A0E0B0E0809362329093633205
:103D7000A0936432B093653281E090E090936B320F
:103D800080936A3280916A3290916B32892B09F567
:103D90000E94B9090091623210916332209164321D
:103DA00030916532060F171F281F391F00936632A6
:103DB000109367322093683230936932DF91CF914C
:103DC0001F910F91089583E090E0B4CF82E090E0DE
:103DD000B1CF0E940D0ADECFCF93DF93CDB7DEB710
:103DE00028970FB6F894DEBF0FBECDBF19821A8296
:103DF0001B821C821D821E821F82188680910201F6
:103E00008823B9F0CE0101960E94211460EE7DE076
:103E1000CE0101960E94BC15CE0101960E947D1430
:103E200028960FB6F894DEBF0FBECDBFDF91CF91BD
:103E300008959FB7F89488E0ECEAFDE0DE01119662
:103E400001900D928A95E1F79FBFE0CF0F931F93EA
:103E5000CF93DF93EC0188859985892BD9F40E9453
:103E6000B9090C811D812E813F81DC01CB01801BB2
:103E7000910BA20BB30B80959095A095B0958827D8
:103E8000B7FD83959927AA27BB27DF91CF911F9173
:103E90000F9108950E940D0AE4CF0F931F93CF93C3
:103EA000DF93EC01CB018A01BE01685F7F4F44E0E4
:103EB0000E94F516BE01645F7F4F42E0C801DF91AA
:103EC000CF911F910F910C94F516DF92EF92FF9214
:103ED0000F931F93CF93DF9300D000D0CDB7DEB701
:103EE000FC015C834B83048110E0102F0027858147
:103EF000080F111DC90102969A838983A9014B5F9E
:103F00005F4F400F511F80E064177507D0F17901B2
:103F1000548345830E0F1F1F22E1F8012193CF0127
:103F200042E0BE016F5F7F4F0E94F51642E0BE0186
:103F30006D5F7F4FC80103960E94F5160B5F1F4F00
:103F4000E00EF11EDD24DA940E151F05C9F08B81F9
:103F50009C819C012F5F3F4FAC0140525109403181
:103F6000510548F03C832B830E94E376F80180835F
:103F70000F5F1F4FE9CFF801D0823C832B83F8CF2E
:103F800081E00F900F900F900F90DF91CF911F91D4
:103F90000F91FF90EF90DF9008950F931F93CF93B1
:103FA000DF93EC01488359836A837B8381E090E04F
:103FB000998788870E940D0A088119812A813B818F
:103FC000DC01CB01800F911FA21FB31F8C839D8347
:103FD000AE83BF83DF91CF911F910F910895CF934F
:103FE000C82F8091203380620E9459066C2F8DE685
:103FF00092E30E94111C8DE692E30E94451C809181
:10400000203361E080620E94041B10926C08809350
:104010006D0881110E947D06CF910895EF92FF9265
:104020001F93CF93DF931F92CDB7DEB7FC01218D95
:10403000328D8FEF9FEF232BE9F0108D80E590E01C
:104040000E94960768E270E0812F0E947A0CE82EA9
:1040500069E270E0812F0E947A0C282F3E2DB90171
:1040600021E030E0AE014F5F5F4F812F0E946B0A6D
:10407000898190E00F90DF91CF911F91FF90EF9099
:1040800008950E960C940E20862F413208F040E2DF
:10409000642F0E94041B10926C0880936D08089591
:1040A000CF92DF92FF920F931F93CF93DF936C0118
:1040B000F42E8B01D0E0C0E0F80180810E94590607
:1040C00060E08DE692E30E94111C8DE692E30E946F
:1040D000451C41E0F80160818DE692E30E94442096
:1040E00090916D0880916C089817B9F0CC0FDD1F86
:1040F000CC0DDD1D88819981F801208120937A0DF6
:1041000090937C0D80937B0D81E0DF91CF911F9187
:104110000F91FF90DF90CF90089521960F5F1F4F72
:10412000CF1550F280E0F1CF1F93CF93DF93182F7C
:10413000CAE7DDE088810E945906612F8DE692E38F
:104140000E94111C8DE692E30E94451C41E06881AB
:104150008DE692E30E9444200E947D06C82F8DE6E2
:1041600092E30E94451C8C2FDF91CF911F910895FF
:1041700080917B0D90917C0D029721F460E08EE29E
:104180000C942C1D80E00E94942020917B0D309196
:104190007C0D2115310539F02130310509F4806895
:1041A000682F80E0EDCF8F77FBCF80917B0D9091D2
:1041B0007C0D029721F461E08EE20C942C1D80E0CE
:1041C0000E94942020917B0D30917C0D21153105AA
:1041D00031F02130310529F0682F80E0EECF806882
:1041E000FBCF8F77F9CF8F929F92AF92BF92CF92F2
:1041F000DF92EF92FF920F931F93CF93DF931F9263
:10420000CDB7DEB78C011982CE0101960E949006CF
:10421000B82E8981882309F4A8C086E7C82ED12C3E
:10422000EE24EA94FE2C80917A0D0E9459066B2DA3
:104230008DE692E30E94111C8DE692E30E94451CDC
:10424000498160917A0D8DE692E30E9444200E949C
:104250007D068F770E947D1090E0F8019183808326
:104260000E947D068F770E947D1090E0F801938375
:1042700082830E947D06A82E86FF5DC08F710E94FA
:104280007D1090E0A5FC55C0F80195838483809152
:104290007B0D90917C0D029709F052C00E947D0623
:1042A0008F730E947D1090E0F801978386830E94AF
:1042B0007D0687709927F801958784870E947D067F
:1042C0008F710E947D108150990BF8019187808732
:1042D0008981873008F446C00E947D060E947D10C7
:1042E00090E08C599F4FF80193878287F801F786F9
:1042F000E6868DE692E30E94451CF801808091805D
:104300008B2D0E9494208F770E947D1088151904B0
:1043100009F089CF81E00F90DF91CF911F910F912C
:10432000FF90EF90DF90CF90BF90AF909F908F90D5
:1043300008950C96A9CF8F730E947D1090E0A4CFB2
:104340000E947D06877099270197F80195878487D9
:104350000E947D068F730E947D1090E0F801978384
:104360008683ACCFD386C286C1CF80E0D4CF4F92B4
:104370005F926F927F928F929F92AF92BF92CF92F5
:10438000DF92EF92FF920F931F93CF93DF9300D0B2
:1043900000D0CDB7DEB78B016A0119821A821B8269
:1043A0001C8244E0FC0160818DE692E30E9444207F
:1043B00080916D0890916C08891B990B049709F006
:1043C0007FC0CE0101967C014E0195E0890E911CC3
:1043D00057010E947D06F50181935F018E169F06AD
:1043E000C1F78C81982F9C709C3009F058C0F60161
:1043F000808353E0F601808187FD65C08C7090E07A
:104400009C0136952795820F931FFC01EA53FE4FBE
:104410002081318142812901642E062C000C77080D
:10442000530142018F549E4FFC0120813181428112
:10443000F8011082118212821382F70180E090E06D
:10444000DC016191BA2FA92F982F8827862B6E2F18
:104450006E196517B0F388229922AA22BB228928F7
:104460008A288B2809F5F80180839183A283B3837E
:1044700090E080E00F900F900F900F90DF91CF9120
:104480001F910F91FF90EF90DF90CF90BF90AF9072
:104490009F908F907F906F905F904F9008958B8149
:1044A000F601808352E0A6CF2901642E062C000C71
:1044B0007708B301A2018429952BA629B72BD3CF66
:1044C00082E090E0D7CF84E090E0D4CF2F923F926B
:1044D0004F925F926F927F928F929F92AF92BF9214
:1044E000CF92DF92EF92FF920F931F93CF93DF93C0
:1044F000CDB7DEB760970FB6F894DEBF0FBECDBF65
:10450000E0919132F09192323197EC30F10508F060
:10451000B5C0E357FD4D0C94B0779922D922E5221E
:1045200000232A23B62331242F25F424392581257D
:104530009726109221331092223310922333109237
:10454000243380E090E89093263380932533909134
:10455000943280919532989F902D1124E7E2F3E3F5
:1045600080E040E050E060E070E8981731F041935F
:104570005193619371938F5FF8CF90E080E040E0BA
:1045800050E060E070E8FC01E95DF94C28E04193FF
:104590005193619371932150D1F78096811521E059
:1045A000920789F782E090E0909392328093913263
:1045B00065C082E093E30E94261F882309F45EC051
:1045C0000E94AD1D83E090E0EFCF19821A821B821A
:1045D0001C821D821E821F821886CE0101960E94B7
:1045E000211489819A81AB81BC818093213390937E
:1045F0002233A0932333B093243384E090E0D4CFCC
:104600000E94781D409122015091230170E060E0EA
:1046100086E193E30E94CD1F4091953280E992E3B9
:1046200020E0C12CD12CE12C60E8F62E421779F065
:10463000FC01E956FE4F30E0C192D192E192F19235
:104640003F5F3031C9F72F5F805C9F4FEFCF85E030
:1046500090E0AACFE0919732F0E0E650FD4C8081E7
:10466000811125C089E090E090939232809391323D
:1046700010924B0810924A081092490860960FB6A3
:10468000F894DEBF0FBECDBFDF91CF911F910F9188
:10469000FF90EF90DF90CF90BF90AF909F908F9062
:1046A0007F906F905F904F903F902F900895F09083
:1046B0004B0837E03F1518F486E090E0D5CFCF2CBB
:1046C000D12C90E00F2C02C0959587950A94E2F7C3
:1046D00080FF42C0E0904A08E11038C00091973254
:1046E00010E0F601E057FD4C80890E945906F80160
:1046F00053E0EE0FFF1F5A95E1F7E057FD4CEC0D2C
:10470000FD1D60A18DE692E30E94111C8DE692E3EF
:104710000E94451C882321F1E110B0CF8AEF90E080
:10472000A0E0B0E080930C3390930D33A0930E3350
:10473000B0930F3310921533109214338CE093E33F
:104740000E943F1681E080934A0898CF8CE093E363
:104750000E94261F882311F2F394F0924B088ECF0B
:10476000F394F0924B0810924A0888CF10914A08AF
:10477000112309F443C08CE093E30E94261F882391
:10478000E9F188EA92E30E942D1660930233709358
:104790000333809304339093053310920B331092BC
:1047A0000A3382E093E30E943F1688EA92E30E9474
:1047B0002D168B019C013695279517950795DC01E1
:1047C000CB01800F911FA21FB31F80930C339093D6
:1047D0000D33A0930E33B0930F3310921533109214
:1047E00014338CE093E30E943F1687E090E09093AF
:1047F00092328093913210924B08B5CF0E94A21D45
:1048000081117CC18091973248E0849FC0011124BE
:1048100080559D4C0E942D166B017C01C092023385
:10482000D0920333E0920433F092053310920B33AD
:1048300010920A3382E093E30E943F16D701C6012B
:10484000B695A79597958795C80ED91EEA1EFB1EAB
:10485000C0920C33D0920D33E0920E33F0920F33AE
:10486000BCCF8091973290E0009149089C0120577D
:104870003D4CF901E856FB4F4081041708F4A8C0ED
:1048800026593F4FD901BC91BE87F5E0880F991F8B
:10489000FA95E1F7FC01E95DF94CFB87EA8710E046
:1048A00000E081E090E0002E01C0880F0A94EAF752
:1048B000FE858F2301F180913037882349F12091C3
:1048C0002737622F70E0C80136E0880F991F3A95AC
:1048D000E1F7895D9B4CAB015595479520FD02C0E2
:1048E000415051090E945916AA85BB856D937D934D
:1048F0008D939C9313970F5F1F4FEA85FB8534962A
:10490000FB87EA870830110561F689E090E06FCFF8
:10491000212C312C412C512C3201F80194E0EE0F66
:10492000FF1F9A95E1F7F88BEF87809127372816BC
:1049300010F7EF85F889E20DF11DEE0FFF1FEE0F66
:10494000FF1FE95DFB4C80819181A281B3810097BB
:10495000A105F0E8BF07A9F03320A9F18815990552
:10496000AA05BB0514F44C015D01C816D906EA0678
:10497000FB0614F46C017D013394480E591E6A1E27
:104980007B1E80913137882369F022E0231550F493
:104990004C185D086E087F08481859086A087B089B
:1049A0003A943A94232D30E050E040E0C301B20144
:1049B0000E943B77AA85BB852D933D934D935C93D5
:1049C00013972394B2CF6C017D014C015D01D4CFCC
:1049D00010914B08183008F458C1E1E0E00FE09363
:1049E000490886E090E003CF10914B088091953202
:1049F000181718F088E090E037CE812F90E09C01E6
:104A000020573D4C7901F901EF59FF4F80818823F0
:104A1000F1F000914A08011114C0D70150968C9111
:104A20000E945906F701608D8DE692E30E94111CE9
:104A30008DE692E30E94451C882369F001111ECE89
:104A40006DCE8CE093E30E94261F882331F31F5F15
:104A500010934B0813CE1F5F10934B0884CE86E152
:104A600093E30E94261F882309F408CE8AE090E091
:104A70009BCD10914A081123E9F18CE093E30E9449
:104A8000261F8823B9F188EA92E30E942D166093CD
:104A90000233709303338093043390930533109261
:104AA0000B3310920A3382E093E30E943F1688EAA8
:104AB00092E30E942D168B019C0136952795179540
:104AC0000795DC01CB01800F911FA21FB31F8093BC
:104AD0000C3390930D33A0930E33B0930F33109299
:104AE0001533109214338CE093E30E943F168BE051
:104AF00090E07DCE0E94A21D882329F21111BECD27
:104B00000DCE0091490880912737081708F4B0C0EE
:104B1000A12C3091953220919732A31608F09AC0BB
:104B20008A2D90E0FC01EF50FD4C4081442309F4B4
:104B300088C0909027370A2D239F000D112410E084
:104B400020913037A6E0880F991FAA95E1F721112F
:104B500060C0F0913137FE879C01295D3B4C190103
:104B6000812CB12CC12CD12C7601000F111F000F0C
:104B7000111F095D1C4C981409F463C0F101819167
:104B80009191A191B1911F010097A105F0E8BF0794
:104B9000E1F0BB2009F457C02A853B854C855D8533
:104BA00082179307A407B50724F48A879B87AC87ED
:104BB000BD87481659066A067B0614F42C013D0190
:104BC000B394C80ED91EEA1EFB1E3E85332389F01E
:104BD00042E04B1570F4C418D508E608F7088A853A
:104BE0009B85AC85BD85C81AD90AEA0AFB0ABA9426
:104BF000BA942B2D30E050E040E0C701B6010E948E
:104C00003B77D8012D933D934D935C9313978394F9
:104C1000B2CF692D70E0895D9B4CAB0155954795EE
:104C200090FC02C0415051090E945916000F111FFB
:104C3000000F111FF801E95DFC4C608371838283D2
:104C40009383A39466CF2C013D014A865B866C86D4
:104C50007D86B6CF81E0820F809397329091943217
:104C6000891708F4CACC109297328CE090E09CCC63
:104C700010914B0880919532181738F0E1E0E00F61
:104C8000E09349088AE090E0B2CDE12EF12CF701E3
:104C9000EF50FD4C8081882309F4D9CE82E093E364
:104CA0000E94261F882309F4E9CC1986AE01475FCC
:104CB0005F4FBE016F5F7F4FC70180569D4C0E94C2
:104CC000B721811103C0298527FF07C08CE093E33A
:104CD0000E94261F8111BBCED1CCF70184E0EE0FDC
:104CE000FF1F8A95E1F7E00FF11DEE0FFF1FEE0F9A
:104CF000FF1FE95DFB4C422F4C7050E055954795E6
:104D000089E090E0841B950B2370821B91094981F7
:104D10005A816B817C8104C0440F551F661F771F29
:104D20008A95D2F7408351836283738390CE0E9429
:104D3000781D80911E0190911F01A0912001B091DA
:104D40002101892B8A2B8B2B29F060E080919632F0
:104D50000E9402098DE090E027CCCF92DF92EF9283
:104D6000FF920F931F93CF93DF937C01EB01809110
:104D70003232909133326817790788F0C81BD90B0B
:104D8000EC0EFD1E20912E3230912F3230933532B1
:104D9000209334321092373210923632EC018091E7
:104DA0003432909135320091303210913132081BFB
:104DB000190B6801C017D10708F46E01A601B701ED
:104DC0000E94DD7780912E3290912F32C017D1074B
:104DD00030F480913432909135328C0D9D1D90933A
:104DE0003532809334320C171D07C0F4CE01801B7E
:104DF000910B8C01B7016C0D7D1DAC01809134329B
:104E0000909135320E94DD774091343250913532A5
:104E1000400F511F5093353240933432209132323B
:104E2000309133328091363290913732A901481B4C
:104E3000590BC417D50768F03093373220933632B8
:104E4000DF91CF911F910F91FF90EF90DF90CF9066
:104E50000895C80FD91FD0933732C0933632F0CFA0
:104E6000DC0185E992E08D939D9384E0FB01019044
:104E70000D928A95E1F708958F929F92AF92BF921B
:104E8000CF92DF92EF92FF920F931F93CF93DF9316
:104E9000EC017B01088519854017510708F48A0148
:104EA000CC24DD24C01AD10AE114F10481F06E8112
:104EB0007F81888199815B01A81AB90A0A151B05AF
:104EC00058F56C0D7D1DA801C7010E94DD778E810C
:104ED0009F818C0D9D1D9F838E8328813981821730
:104EE000930730F42C813D81820F931F9F838E8323
:104EF00088859985801B910B99878887C801DF91E8
:104F0000CF911F910F91FF90EF90DF90CF90BF90C6
:104F1000AF909F908F90089548018A189B086A81EE
:104F20007B8168197909A401C7010E94DD77688136
:104F30007981A501C701880D991DC7CF0F931F93D4
:104F4000CF93DF93CDB7DEB72C970FB6F894DEBFC3
:104F50000FBECDBF8C018AE0EEE2F2E3DE011196D6
:104F600001900D928A95E1F742E050E0BE01655F45
:104F70007F4FCE0101960E943C270297B9F42B8502
:104F80003C852E5F3F4F81E0F801408551854217F7
:104F9000530708F080E02C960FB6F894DEBF0FBEE2
:104FA000CDBFDF91CF911F910F91089581E0F3CF95
:104FB000BF92CF92DF92EF92FF920F931F93CF9306
:104FC000DF93CDB7DEB728970FB6F894DEBF0FBEDC
:104FD000CDBF8C01D8015996CD90DC905A97C11461
:104FE000D10441F0ED91FC910284F385E02DC801DC
:104FF0000995F0CFF801B08C80E590E00E9496070B
:105000008B2D0E94030D7C01892B21F08B2D0E949A
:10501000030D6C01EC14FD0499F790E080E01E1480
:105020001F045CF548E050E0BE016F5F7F4FD80180
:1050300058968C910E94290D18161906F4F4D8017F
:10504000509684E0FE01319601900D928A95E1F729
:105050008D8190E0982F88272E81820F911DF80175
:10506000958B848B8F81282F30E0322F22278885E3
:10507000820F932F911D928F818F28960FB6F894EF
:10508000DEBF0FBECDBFDF91CF911F910F91FF907B
:10509000EF90DF90CF90BF9008950E960C94D82794
:1050A0004F925F926F927F928F929F92AF92BF9238
:1050B000CF92DF92EF92FF920F931F93CF93DF93E4
:1050C000CDB7DEB763970FB6F894DEBF0FBECDBF86
:1050D0007C016B013A01FB0120E090E080E06AE096
:1050E0003191332309F461C040ED430F4A3008F099
:1050F0004DC0689FA001699F500D1124CA01C0973F
:10510000830F911D37FD9A958F3F910549F340F329
:10511000F70142815381648175818091200D9091C6
:10512000210DA091220DB091230D481759076A0750
:105130007B0709F42BC28701085F1F4F0E940D0AED
:105140006F7077277C5FC8010E94310F813009F0B2
:1051500022C285E992E09A838983F7018281938153
:10516000A481B5818B839C83AD83BE8345E350E0EE
:10517000BE016F5F7F4FC8010E940E0C892BA9F5FD
:10518000D12CC12CC8010E94F60C17C03E3209F088
:10519000BFCF233009F4BCCFD301A20FB11D1296AB
:1051A0008C932F5F90E080E09BCF233009F0B0CF4D
:1051B000F3018583CC24C394D12CC60163960FB62A
:1051C000F894DEBF0FBECDBFDF91CF911F910F913D
:1051D000FF90EF90DF90CF90BF90AF909F908F9017
:1051E0007F906F905F904F9008950E940D0AF70195
:1051F000778366837627672776277A83698342E0F9
:1052000050E0BE016F5F7F4FC8010E94640E81E0D5
:1052100090E09E878D8742E050E0BE01635F7F4F44
:10522000C8010E94640E80E091E09E878D8742E075
:1052300050E0BE01635F7F4FC8010E94640E1E866E
:105240001D8642E050E0BE01635F7F4FC8010E94AF
:10525000640E42E050E0BE01635F7F4FC8010E94D0
:10526000640E42E050E0BE01635F7F4FC8010E94C0
:10527000640E5601F6018081882301F16501F60173
:1052800081912F01882311F08E32B1F446018A18E2
:105290009B081814190474F48F8641E050E0BE0195
:1052A000615F7F4FC8010E94640EA401B501C8016F
:1052B0000E94640E5201DECF6201E1CF1F8641E001
:1052C00050E0BE01615F7F4FC8010E94640EC12C97
:1052D000DD24D394DE86CD8642E050E0BE01635FDC
:1052E0007F4FC8010E94640EDE86CD8642E050E00A
:1052F000BE01635F7F4FC8010E94640EC8010E9417
:10530000FC0E892B09F43CCFF3E0AF2EB12C230126
:1053100022E0420E511CECC0F701428153816481AE
:105320007581808D918DA28DB38D481759076A07BD
:105330007B0709F021C1848D958DC59709F01CC1AB
:1053400081A192A15DEFC52EDD24DA940C970CF4B7
:10535000C5C04CE050E0BE016F5F7F4FC8010E94A6
:10536000960D8B819C819827892798279A8B898B0A
:1053700029813A81322723273227F7014681578135
:105380004217530709F0FDC097FFFBC08F70927062
:105390003BEFC32EDD24DA94892B09F09FC06F8088
:1053A00078847624672476242AEFC22EDD24DA94CA
:1053B0006114710409F492C0D12CC12C8D819E819D
:1053C000982789279827C816D90640F541E050E06C
:1053D000BE01635F7F4FC8010E94960D8D858823B3
:1053E00051F08D859FEF980F9D87882321F0C8018C
:1053F0000E94B50DF6CF8D858111E8CFC8010E94BE
:10540000B50DC8010E94B50DC8010E94B50DC801B7
:105410000E94B50DFFEFCF1ADF0AD0CF912C812C5F
:1054200041E050E0BE016D5E7F4FC8010E94960DC5
:105430008B89982F907C61F4882389F08B899FEF6A
:10544000980F9B8B882341F0C8010E94B50DF6CFC1
:10545000C8010E94B50D1B8A8B898111E1CF42E002
:1054600050E0BE01615F7F4FC8010E94960D42E08F
:1054700050E0BE01635F7F4FC8010E94960DC801D6
:105480000E94B50DC8010E94B50DC8010E94B50D5E
:10549000C8010E94B50D42E050E0BE016F5E7F4F33
:1054A000C8010E94960D8F8598898115914009F059
:1054B0003DC0CD84DE84DC24CD24DC2481E0C8160C
:1054C000D104A1F589899A898115944009F04BC0CE
:1054D00044E050E0B201C8010E94960D81E0A81A94
:1054E000B10809F44FCEFFEFCF16DF0609F04ACE20
:1054F0000E940D0A3B014C01C8010E94D8271816D2
:1055000019060CF409CFA8950E940D0A66197709AF
:1055100088099909693873418105910548F562E365
:1055200070E080E090E00E94DA09E6CFD12CC12C37
:1055300089899A89982789279827C816D90638F41F
:10554000C8010E94B50DFFEFCF1ADF0AF1CF2FEF90
:10555000821A920A6814790409F062CF96EFC92E74
:10556000DD24DA94BBCFE7EFCE2EDD24DA94B6CF7C
:10557000CC24CA94DC2CB2CF6EEFC62EDD24DA9494
:10558000ADCF4CEFC42EDD24DA94A8CF8EEFC82E19
:10559000DD24DA9412CED12CC12C0FCECF92DF9223
:1055A000EF92FF920F931F93CF93DF93CDB7DEB7A8
:1055B000AF970FB6F894DEBF0FBECDBF7C016A0176
:1055C00005E912E01A8309831C861B8688EE93E0A6
:1055D000A0E0B0E08D879E87AF87B88B8BE492E028
:1055E0009A878987188F0F8B198E1A8E1B8E1C8EA7
:1055F00084E089A31BA70AA71CA61DA61EA61FA69A
:105600008091000D9091010DA091020DB091030DBC
:105610008EA39FA3A8A7B9A78B839C83AD83BE83CA
:1056200018861F82AE01465D5F4FCE0101960E9433
:10563000502881309105B1F4D701ED91FC91048897
:10564000F589E02D1DA30CA38CA59DA5AEA5BFA536
:105650008EA39FA3A8A7B9A7A601BE016C5D7F4F2B
:10566000C7010995AF960FB6F894DEBF0FBECDBF48
:10567000DF91CF911F910F91FF90EF90DF90CF902E
:105680000895FB0101900020E9F73197AF01461B17
:10569000570BDC01ED91FC910280F381E02D099420
:1056A0008F929F92AF92BF92EF92FF920F931F93B0
:1056B000CF93DF93CDB7DEB7A1970FB6F894DEBFD7
:1056C0000FBECDBF7C01FA01CB0119A2223008F434
:1056D0002AE08E010F5D1F4F822E912CB12CA12C40
:1056E000BF01A50194010E941977F901CA016A302E
:1056F0000CF5605DD8016E938D01232B242B252B97
:1057000079F790E080E0109721F0BD01C7010E9479
:10571000412BA1960FB6F894DEBF0FBECDBFDF912F
:10572000CF911F910F91FF90EF90BF90AF909F90FE
:105730008F900895695CDECFAB0170E060E02AE0F5
:105740000C94502BCF92DF92EF92FF920F931F9306
:10575000CF93DF932115310581F4DC01ED91FC91AC
:105760000190F081E02D642FDF91CF911F910F9177
:10577000FF90EF90DF90CF9009942A30310501F52A
:105780002AE077FF1DC06A017B01EC016DE20E94F7
:10579000C8078C0144275527BA014C195D096E09C9
:1057A0007F092AE0CE010E94502B800F911FDF91CC
:1057B000CF911F910F91FF90EF90DF90CF900895C0
:1057C000DF91CF911F910F91FF90EF90DF90CF90DD
:1057D0000C94502BAB01770F660B770B2AE030E06F
:1057E0000C94A22BCF93DF93EC01FB012481358134
:1057F00040815181628173810E94A22BCE01DF9191
:10580000CF910895242F462F50E070E060E00C9473
:10581000502B8F929F92AF92BF92CF92DF92EF92D6
:10582000FF920F931F93CF93DF937C018B014C0169
:1058300082E0880E911C5701E5E0AE0EB11CD0E06D
:10584000C0E0F40161914F014AE050E0C8010E94BC
:10585000022C6C016EE2C8010E94C8078C0D9D1DD0
:10586000C80FD91F8A149B0461F74AE050E0F70182
:105870006581C8010E94022C8C0F9D1FDF91CF9182
:105880001F910F91FF90EF90DF90CF90BF90AF905E
:105890009F908F9008956BED7AE00C94092C67E946
:1058A00072E00C94412BEF92FF920F931F93CF93D2
:1058B000DF9300D0CDB7DEB77B01FC0120812D3313
:1058C000D9F48C010F5F1F4F50E040E0BE016F5FC5
:1058D0007F4FC8010E9470726F3F7105810591056D
:1058E00009F050F4E981FA81E017F10729F02081ED
:1058F000211102C06093160165E379E0C7010E949F
:10590000CF074AE050E060911601C7010E94022CC7
:10591000C7010E944F2C81E00F900F90DF91CF9133
:105920001F910F91FF90EF900895CF92DF92EF9229
:10593000FF920F931F93CF93DF93CDB7DEB72A97D4
:105940000FB6F894DEBF0FBECDBF8B01FC012081E6
:105950002D3309F059C07C01FFEFEF1AFF0A50E028
:1059600040E0BE01675F7F4FC7010E94707216164C
:105970001706180619060CF047C0E985FA85EE15DA
:10598000FF0509F441C0208121113EC06B017C015B
:1059900034E0F594E794D794C7943A95D1F72FE083
:1059A000D222EE24FF24C982DA82EB82FC824BE011
:1059B000660F771F881F991F4A95D1F7662778775A
:1059C000882799276D837E838F839887CE010196E0
:1059D0000E94991368ED7DE0CE0101960E94441368
:1059E000811112C0BE016F5F7F4F80ED9DE00E946C
:1059F0004413811109C088E0FE013196A0EEBDE09C
:105A000001900D928A95E1F766E779E0C8010E945E
:105A1000CF074091E00D5091E10D6091E20D709142
:105A2000E30D84E0440F551F661F771F8A95D1F759
:105A30008091E40D9091E50DA091E60DB091E70DF8
:105A40002BE0B595A795979587952A95D1F7480F9F
:105A5000591F6A1F7B1F2AE030E0C8010E94A22B59
:105A6000C8010E944F2C81E02A960FB6F894DEBF41
:105A70000FBECDBFDF91CF911F910F91FF90EF909F
:105A8000DF90CF9008950F931F93CF93DF93EC0196
:105A90000E94EA2B8C01CE010E944F2C800F911F97
:105AA000DF91CF911F910F9108950F931F93CF9383
:105AB000DF93EC010E94022C8C01CE010E944F2C3E
:105AC000800F911FDF91CF911F910F9108950F9338
:105AD0001F93CF93DF938C01D0E0C0E06115710577
