:100000000C94F8050C94966A0C946B6A0C94406AF4
:100010000C9422060C9422060C9422060C942206C0
:100020000C9422060C94EB6A0C94C16A0C94156B28
:100030000C9422060C9422060C9422060C942206A0
:100040000C9422060C9422060C94F6690C94220659
:100050000C94C1690C9497690C9422060C942206A6
:100060000C9422060C9422060C94256C0C94220607
:100070000C9462690C9438690C9422060C94220644
:100080000C9422060C9422060C942206496E76618A
:100090006C69642061646472657373004E6F7420D0
:1000A000666F756E64004E6F204150490053756352
:1000B00063657373005043463835323633004D4321
:1000C0005037393431780044533133303700496E7A
:1000D0007374616C6C20465720726573756C743A4A
:1000E00020000A435243207374617475733A2000F0
:1000F0000A446F776E6C6F6164204352433A20006C
:100100004669726D77617265204352433A200063FD
:100110006F70696564207061727469616C207370BE
:100120006D42756666657220746F20666C617368D7
:100130003A200020636F6D706C657465640A004638
:1001400069726D7761726520646F776E6C6F616440
:1001500020666F722000636F706965642073706D34
:1001600042756666657220746F20666C6173683ACA
:1001700020004572617365642074656D706F7261F3
:100180007279206170706C69636174696F6E20614F
:1001900072656120696E20666C6173682000507220
:1001A0006F63657373696E67204657207570677259
:1001B00061646520005570677261646520666972CC
:1001C0006D7761726520746F2000416C72656164A7
:1001D000792068617665206669726D776172652045
:1001E00076657273696F6E20005265636569766526
:1001F000642075706772616465206669726D7761ED
:100200007265207461673A20005265626F6F7420D6
:10021000636F6D6D616E6420726563656976656498
:100220002066726F6D207365727665720A005341A5
:100230004D504C494E4720494E54455256414C2052
:100240004348414E4745442120000A54696D6520CA
:100250006572726F7220286F75722D736572766584
:1002600072293A20000A4F75722074696D653A2030
:10027000005365727665722074696D653A2000548A
:10028000696D65207365742066726F6D2073657289
:100290007665720A0058626F6F743A2025642E25C5
:1002A000643B2041504920256400556E6B6E6F778A
:1002B0006E206572726F7220636F646500756E6B7D
:1002C0006E6F776E2052544300C700BE00B50041E8
:1002D00063746976652073657474696E67733A0A2E
:1002E000004E6F2072656D6F746520686F73742C9B
:1002F00020747279696E6720666F722031323073B4
:1003000020746F20636F6D6D756E69636174652015
:10031000746F200043616E6E6F74207265736F6C32
:1003200076652000207265736F6C76657320746F3C
:1003300020004C6F6F6B696E672075702000646FD2
:100340006E650044484350206661696C65640052E4
:10035000657175657374696E672049502E2E2E2065
:10036000005573696E672073746174696320495026
:100370000A00202052656D6F746520686F73746E7B
:10038000616D653A2000454550524F4D20736574AC
:1003900074696E67733A0A20204D41433A20005534
:1003A0006E6B6E6F776E204D43550061746D65679F
:1003B0006131323834700061746D65676131323893
:1003C000340061746D656761363434700061746D3A
:1003D00065676136343400536574757020646F6EE0
:1003E000650053657474696E672073616D706C6528
:1003F0002074696D657273004672657175656E6310
:10040000793A2031324D487A0041637475616C202D
:100410004D43553A2000546172676574204D435531
:100420003A2061746D656761313238347000436F12
:100430006E66696775726174696F6E20636F6D7047
:100440006C6574650053616D706C696E6720696ED0
:1004500074657276616C202873293A2000436F75A9
:100460006C64206E6F74206765742074696D6520FC
:1004700066726F6D20686172647761726520525494
:10048000430A00536F6674776172652052544320AB
:100490007365742066726F6D206861726477617233
:1004A00065205254430A00536F6674776172652069
:1004B00052544320636C6F636B3A2000436F6E6647
:1004C00069677572696E672052544320636C6F636D
:1004D0006B730A005254432063616C6962726174E9
:1004E000696F6E3A20004E6F2052544320666F753C
:1004F0006E640A0020617420616464726573732005
:10050000307800466F756E6420004175746F7072AC
:100510006F62696E6720666F72200024504F525AD6
:10052000412C312C25642C310020746F200043684D
:10053000616E67696E6720474E5353206261756430
:1005400020726174652066726F6D200048494836DC
:100550003178780020706F7765722D757020646532
:100560006C617920286D73293A20002070726573C0
:10057000656E7400206E6F74006D65616E0A006DAB
:10058000656469616E0A007472696D6D656420004E
:100590000A6167677265676174653A20006E756D00
:1005A00053616D706C65733A2000206D69737369D7
:1005B0006E670A002070726573656E740A002063AE
:1005C000682E20005D3A203078004144435B0020D3
:1005D0006661696C656420746F20696E6974696115
:1005E0006C6973650A0052696F00496E69746961CC
:1005F0006C6973696E672000484D4143206B6579D3
:100600003A2000536974652049443A200046616EDF
:1006100020687973742E3A200046616E2074656DEF
:10062000702E3A200046656174757265733A2048F1
:100630004F5553454B454550494E472052494F4D24
:100640004554455220484948363158582857697210
:10065000652920474E535320425553595F54494D05
:10066000455F50494E2841332900436F6D6D733A01
:10067000205735313030287764745F726573657444
:1006800029000A4669726D776172653A2052696F76
:100690004C6F672D312E32680A45706F63683A20BF
:1006A000323031380A000A4D435520636C6F636B5A
:1006B0003A2031324D487A0A000A4D435553523A96
:1006C00020000A434B53454C3A20000A5243206F06
:1006D00073632E3A20000A457874656E6465642061
:1006E000667573653A20000A486967682066757305
:1006F000653A20000A4C6F7720667573653A2000D2
:100700000A5369676E61747572653A20000A416325
:100710007475616C204D43553A20000A0A2D2D2D29
:100720002D2D2D2D2D0A546172676574204D435572
:100730003A2061746D656761313238347000506100
:10074000636B65742076616C6964206275742069DE
:100750006E636F727265637420726573706F6E730F
:10076000650023232323232323232323232323233A
:10077000232323232323232300546F6F206D616ED3
:100780007920726574726965733A20003D3D3D3D84
:100790000A003D3D3D3D0A526573706F6E73653AC8
:1007A0000A006D61696E7461696E2072657475729C
:1007B0006E65642000726562696E640072656E65C4
:1007C000776564006661696C6564006F6B0044481E
:1007D0004350206C6561736520004157414B4521B2
:1007E0000A00534C454550210A007320776974680C
:1007F0006F7574206D6573672061636B2C20726563
:10080000626F6F74696E670A00476F6E65200053F0
:10081000657420485720636C6F636B0045455052E8
:100820004F4D20636F6E74656E7473206C656E67D8
:1008300074683A2000486561646572206C656E6773
:1008400074683A20000A5374617475733A20000A80
:10085000506F736974696F6E3A200046697820742E
:10086000696D653A2000474E53532076616C696488
:100870003A200055736520474E53533A20005D3AA5
:10088000200052696F20646174615B000A416D62EF
:1008900069656E743A200048756D69646974793AC7
:1008A0002000537570706C7920766F6C7461676589
:1008B0003A200053797374656D2074656D702E3A1B
:1008C000200054696D657374616D703A2000474E65
:1008D00053532073746174653A20002D2D0A5361BF
:1008E0006D706C696E6720737461727465642C201E
:1008F000726561736F6E3A200054696D6520657290
:10090000726F7220286F75722D474E5353293A200B
:1009100000474E535320636C6F636B2076616C69A4
:10092000643A20003A203078003078004545505233
:100930004F4D2076616C7565733A0A004552524FEF
:10094000523A206261642076616C75657320666F2F
:100950007220656570726F6D526561640045525218
:100960004F523A206261642076616C75657320662F
:100970006F7220656570726F6D577269746500766D
:100980006572626F736974793A20005265626F6FA5
:100990007420636F6D6D616E642072656365697646
:1009A00065642066726F6D20636F6E736F6C650A8D
:1009B000005265626F6F74696E67202E2E2E0A00DA
:1009C00073616D706C696E67496E74657276616C87
:1009D0005F313674685F733A2000556E6B6E6F77C7
:1009E0006E20636F6D6D616E643A200050726576A3
:1009F000696F757320636F6D6D616E6420776173CD
:100A000020746F6F206C6F6E6720666F7220627546
:100A1000666665720A00556E6B6E6F776E204E4D7E
:100A200045412073656E74656E63653A20004261CE
:100A300064204E4D454120636865636B73756D3A64
:100A4000200078A46AD756B7C7E8DB702024EECE22
:100A5000BDC1AF0F7CF52AC68747134630A8019564
:100A600046FDD8988069AFF7448BB15BFFFFBED7D6
:100A70005C892211906B937198FD8E4379A62108B1
:100A8000B44962251EF640B340C0515A5E26AAC73B
:100A9000B6E95D102FD65314440281E6A1D8C8FBF5
:100AA000D3E7E6CDE121D60737C3870DD5F4ED14A2
:100AB0005A4505E9E3A9F8A3EFFCD9026F678A4C10
:100AC0002A8D4239FAFF81F6718722619D6D0C38BB
:100AD000E5FD44EABEA4A9CFDE4B604BBBF670BC7B
:100AE000BFBEC67E9B28FA27A1EA8530EFD4051D3C
:100AF000880439D0D4D9E599DBE6F87CA21F655685
:100B0000ACC4442229F497FF2A43A72394AB39A00D
:100B100093FCC3595B6592CC0C8F7DF4EFFFD15DE4
:100B200084854F7EA86FE0E62CFE144301A3A1113B
:100B3000084E827E53F735F23ABDBBD2D72A91D305
:100B400086EB00002200250028002B00000000009A
:100B50000000000108030200090A00000000000074
:100B60000000040700000000000000000000210059
:100B7000240027002A000102040801020408402082
:100B80001020408080402010080402011080804026
:100B900020100804020104040404020202020404F6
:100BA000020202020303030303030303040401011B
:100BB0000101010101010A202052656D6F74653A3F
:100BC0002000286E6F6E6529000A2020444E533A9B
:100BD00020000A202047573A20000A20204D617348
:100BE0006B3A200020204C6F63616C3A20006B6DE3
:100BF00011241FBECFEFD0E4DEBFCDBF13E0A0E0D5
:100C0000B1E0EAEDF1EF00E00BBF02C007900D92FA
:100C1000A83FB107D9F727E3A8EFB3E001C01D92C1
:100C2000AA37B207E1F715E0C8EFD5E004C0219775
:100C3000FE010E947E78C73FD107C9F70E9441722A
:100C40000C94EB780C940000CF92DF92EF92FF921D
:100C5000CF93DF93EC016A017B0160EC76EC8DE2CF
:100C600090E0A70196010E94E777215031094109E0
:100C700051095695479537952795E889F98982E076
:100C80008083211580E1380798F0E889F98910827E
:100C900060E673EE86E190E0A70196010E94E77797
:100CA00021503109410951095695479537952795A6
:100CB000EC85FD853083EE85FF852083188EEC89D9
:100CC000FD8986E08083EA89FB8980818061808359
:100CD000EA89FB89808188608083EA89FB89808139
:100CE00080688083EA89FB8980818F7D8083DF91A2
:100CF000CF91FF90EF90DF90CF90089591E0909387
:100D000079088093780810927708109276080895F1
:100D10008091750890917408891B990B08959091A2
:100D20007408809175082FEF3FEF981748F4E92F6A
:100D3000F0E0E056F74F208130E09F5F9093740819
:100D4000C901089590917408809175082FEF3FEFC5
:100D5000981748F4E92FF0E0E056F74F208130E093
:100D60009F5F90937408C9010895CF93DF93CDB727
:100D7000DEB76E970FB6F894DEBF0FBECDBF9C01F5
:100D80009FE0E8E2F1E0DE01509601900D929A9525
:100D9000E1F79FE0E7E3F1E0DE01119601900D92AB
:100DA0009A95E1F7A2E8BDE011964D915C911297FA
:100DB00095E0949FF001959FF00D112441E050E0E3
:100DC0004C0F5D1FE40FF51F8081F90180831196A0
:100DD0002D913C91929FF001939FF00D1124E40F0F
:100DE000F51F87856E960FB6F894DEBF0FBECDBF98
:100DF000DF91CF910895CF934FB7F8949091700001
:100E0000811120C09D7F90937000B99A282F30E007
:100E1000F901EE55F24F90819923C9F010824FBF2E
:100E2000CFB77894220F331FF901E256F24F408179
:100E300051812656324FD901ED91FC910995CFBFD2
:100E4000CF9108959B7F90937000BA9ADFCF4FBFE8
:100E5000F7CF81E0809315016093020108958F928E
:100E60009F92AF92BF92CF92DF92EF92FF92FC01DE
:100E70003FB7F8942091B10027708091B60080FDB3
:100E8000FCCF1092B10093B5926093BD4091C40D18
:100E90005091C50D6091C60D7091C70DC080D18075
:100EA000E280F38084819581A681B7814115510547
:100EB0006105710509F456C0882499245401841AE7
:100EC000950AA60AB70A8C209D20AE20BF208092EA
:100ED000700890927108A0927208B0927308415005
:100EE0005109610971094C215D216E217F21EFE0DB
:100EF000440F551F661F771FEA95D1F7842B952B5A
:100F0000A62BB72BE0916508AC01BD010E2E04C0E5
:100F100076956795579547950A94D2F7DB01CA01F4
:100F2000882704C0880F991FAA1FBB1FEA95D2F714
:100F300080936C0890936D08A0936E08B0936F082F
:100F40008091B6008171E1F74093B2002093B10027
:100F50003FBFFF90EF90DF90CF90BF90AF909F90FA
:100F60008F900895C0927008D0927108E092720834
:100F7000F0927308C7CF8CBD9DBD089520E3FC019E
:100F800020833296862F82958F706F706A3030F48E
:100F9000605D6293682F8111F5CF0895695CF9CF88
:100FA000FC016150770B85E0660F771F8A95E1F7AA
:100FB00060764C50550B440F551F4C70642B2430F9
:100FC00041F0283041F0223011F0608308956160D3
:100FD000FCCF6260FACF6360F8CFDC01ED91FC9149
:100FE0000190F081E02D0994EF92FF920F931F93EF
:100FF000CF93DF938C017B01D0E0C0E0F701EC0FD1
:10100000FD1F6491662361F0D801ED91FC91019080
:10101000F081E02DC8010995892B11F02196EECFC2
:10102000CE01DF91CF911F910F91FF90EF90089526
:10103000AF92BF92CF92DF92EF92FF920F931F93E6
:10104000CF93DF936C017B018B01040F151FEB0124
:101050005E01AE18BF08C017D10759F06991D601DB
:10106000ED91FC910190F081E02DC6010995892B4D
:1010700079F7C501DF91CF911F910F91FF90EF900C
:10108000DF90CF90BF90AF900895FC01538D448DB9
:10109000252F30E0842F90E0821B930B541718F01B
:1010A00081509F4F089501970895FC01918D828D85
:1010B000981759F0A28DAE0FBF2FB11D5D968C9180
:1010C000928D9F5F928F90E008958FEF9FEF08952C
:1010D000FC01918D828D981731F0828DE80FF11D02
:1010E000858D90E008958FEF9FEF0895FC01918D1D
:1010F000828D981B892F90E0089586EC98E00E94DD
:10110000760821E0892B09F420E0822F089583EEF0
:101110009AE00E94760821E0892B09F420E0822FD2
:101120000895FC01A48DA80FB92FB11DA35EBE4F79
:101130009C91848D8F5F848FA689B7899C93A089A9
:10114000B1898C91837080648C93938D848D981376
:1011500006C00288F389E02D80818F7D8083089509
:101160000F931F93CF93DF93EC0181E0888F9B8DCA
:101170008C8D981318C0E889F989808185FF13C088
:101180009FB7F894EE89FF896083E889F9898081A7
:101190008370806480839FBF81E090E0DF91CF9176
:1011A0001F910F910895062F1B8D1F5F8C8D81134A
:1011B0000CC00FB607FCFACFE889F989808185FF5A
:1011C000F5CFCE010E949108F1CFEB8DEC0FFD2FF2
:1011D000F11DE35EFE4F00839FB7F8941B8FEA89F1
:1011E000FB8980818062D6CFCF93DF93EC01888D1D
:1011F0008823B9F0AA89BB89E889F9898C9185FD92
:1012000003C0808186FD0DC00FB607FCF7CF8C911F
:1012100085FFF2CF808185FFEDCFCE010E9491083E
:10122000E9CFDF91CF91089580E090E0892B29F0FC
:101230000E94870881110E94000080E090E0892BC5
:1012400029F00E947D0881110C940000089590E01F
:10125000FC01E45BF44F2491FC01EA58F44F349113
:101260008A56944FFC018491882359F12223C1F0BE
:1012700021502A30A8F4E22FF0E0EF5BF64F0C94F7
:101280007E7866096A094B096209500950096D099F
:10129000730977097D09909180009F779093800072
:1012A000E82FF0E0EE0FFF1FEE5BF44FA591B49135
:1012B0008FB7F894EC91611124C030953E233C9394
:1012C0008FBF0895909180009F7DE8CF94B59F7760
:1012D00094BDE6CF94B59F7DFBCF9091B0009F77F2
:1012E0009093B000DDCF9091B0009F7DF9CF9091A9
:1012F00090009F7790939000D3CF909190009F7D26
:10130000F9CF3E2BDCCFCF93DF9390E0FC01EA587E
:10131000F44F24918A56944FFC0184918823C9F09C
:1013200090E0880F991FFC01E459F44FA591B49106
:10133000FC01EE5BF44FC591D49161110DC09FB7D4
:10134000F8948C91209582238C938881282328837C
:101350009FBFDF91CF910895623051F49FB7F89409
:101360003C91822F809583238C93E8812E2BEFCFA5
:101370008FB7F894EC912E2B2C938FBFEACF883047
:10138000D8F497E0981B892F20911D0190E4299FA4
:10139000900111248770822B80937C0080917A00C9
:1013A000806480937A0080917A0086FDFCCF8091E2
:1013B00078009091790008958FEFE6CF9FB7F89469
:1013C00040914D0850914E0860914F08709150081F
:1013D00086B5A89B06C08F3F21F04F5F5F4F6F4FD0
:1013E0007F4F9FBF2227342F452F562F280F311DA7
:1013F000411D511DA5E0B0E00E94287808958F920C
:101400009F92AF92BF92CF92DF92EF92FF926B01C9
:101410007C010E94DE094B015C01C114D104E1048E
:10142000F104B9F00E94DE09681979098A099B095B
:10143000683E73408105910580F321E0C21AD1080E
:10144000E108F10888EE880E83E0981EA11CB11C0B
:10145000E4CFFF90EF90DF90CF90BF90AF909F9040
:101460008F9008952FB7F8946091490870914A08B9
:1014700080914B0890914C082FBF089508950FB6A6
:10148000F89485B7806885BF85BF0FBE089590E04A
:1014900080E00895089581E00895FC01818D928D8A
:1014A0000895FC0187A190A508952C9A08952C9881
:1014B00008958EBD00000DB407FEFDCF8EB50895D2
:1014C000CF92DF92EF92FF920F931F93CF93DF9310
:1014D000EC017A018B016C01C40ED51ECC15DD0523
:1014E000A9F00E94570A8FE00E94590A8D2F0E948E
:1014F000590A8C2F0E94590A219680E00E94590AAD
:10150000F80181938F010E94550AE8CFC701DF914E
:10151000CF911F910F91FF90EF90DF90CF900895A2
:10152000AF92BF92CF92DF92EF92FF920F931F93F1
:10153000CF93DF9300D0CDB7DEB77A836983BA014A
:10154000A901E981FA81F770082F10E0000F111F3F
:10155000035A174FD8018D919C918E0F9F1F9F01A9
:10156000240F351F21303840A0F05A016B0160E094
:1015700078E07B01EE1AFF0AA701B6010E94600A1B
:10158000A5014E195F09B6016E0D7F1DF80180811E
:1015900091810F900F90DF91CF911F910F91FF904C
:1015A000EF90DF90CF90BF90AF900C94600ACF92F5
:1015B000DF92EF92FF920F931F93CF93DF93EC0193
:1015C0007A018B016C01C40ED51ECC15DD05A1F08E
:1015D0000E94570A80EF0E94590A8D2F0E94590AD3
:1015E0008C2F0E94590A2196F80181918F010E9447
:1015F000590A0E94550AE9CFC701DF91CF911F9187
:101600000F91FF90EF90DF90CF9008951F93CF93AD
:10161000DF93D82F192FC62F0E94570A80EF0E9400
:10162000590A812F0E94590A8D2F0E94590A8C2F26
:101630000E94590A0E94550A81E0DF91CF911F91C3
:10164000089544E050E0BC018FE090E00C94D70A8C
:1016500044E050E0BC0185E090E00C94D70A44E0FF
:1016600050E0BC0181E090E00C94D70A0895CF933C
:101670006CE271E080E090E00E94FF09CFB7F8943F
:1016800080915408811127C0E0EAFBE08491E0E8F2
:10169000FBE09491E82FF0E0EE0FFF1FE459F44FC8
:1016A000A591B491EC91E92321F461E08AE00E94D4
:1016B000270961E08AE00E9483098CB580618CBDB6
:1016C0008CB580648CBD61E08DE00E94830961E08F
:1016D0008BE00E948309809154088F5F80935408A7
:1016E000CFBF249A80E590E00E94BB0760E890E0BD
:1016F00080E00E94060B65E58BE190E00E94060BFE
:1017000065E58AE190E00E94060B80E090E490930A
:1017100056088093550880E090E690935E08809389
:101720005D0880E098E4909358088093570880E023
:1017300098E69093600880935F0880E090E590932E
:101740005A088093590880E090E79093620880934C
:10175000610880E098E590935C0880935B0880E0E6
:1017600098E79093640880936308CF910895AF92AF
:10177000BF92CF92DF92EF92FF920F931F93CF937E
:10178000DF935C016B01EA0179010E94370B80E570
:1017900090E00E94BB0746E050E0B50189E090E090
:1017A0000E94D70AC60102960E94210BC701029629
:1017B0000E942F0BC80102960E94280B8A819B81F0
:1017C000AC81BD818093080D9093090DA0930A0D03
:1017D000B0930B0DDF91CF911F910F91FF90EF9080
:1017E000DF90CF90BF90AF900895CF93DF931F927B
:1017F000CDB7DEB76983DC01ED91FC910280F38106
:10180000E02D41E050E0BE016F5F7F4F09950F90E2
:10181000DF91CF9108950E960C94F50BFC0184890D
:10182000958908952DE932E0FC0131832083FB0185
:101830004089518962897389FC014283538364839F
:1018400075830895DC01ED91FC91048CF58DE02DFC
:1018500009949B0190E00496982F8827642F820FAB
:10186000931F0C94060BFF920F931F93CF93DF935C
:10187000EB01FC01178A168A2A81211109C02B81EC
:10188000211106C02C81211103C02D81222359F181
:101890004115510541F18A01FC01F08C80E590E091
:1018A0000E94BB07BE016E5F7F4F8F2D90E0982F87
:1018B000882744E050E0845F9B4F0E94D70A412F65
:1018C00060E170E08F2D0E94290C402F61E170E0F3
:1018D0008F2D0E94290C81E090E0DF91CF911F9124
:1018E0000F91FF90089590E080E0F7CF0F931F9342
:1018F000CF93DF9300D000D000D0CDB7DEB7FC018E
:1019000043A554A52DE932E03A83298307A510A900
:1019100021A932A90B831C832D833E83BE016F5FF7
:101920007F4F0E960E94330C26960FB6F894DEBFBA
:101930000FBECDBFDF91CF911F910F910895CF932F
:10194000DF93C82FD0E02496DC2FCC27C60FD71FFB
:101950000E94570A8FE00E94590A8D2F0E94590A4F
:101960008C2F0E94590A80E00E94590AC82F0E94B9
:10197000550A8C2FDF91CF910895CF93C82F462F12
:1019800061E070E00E94290C61E070E08C2F0E9401
:101990009F0C8111F9CFCF910895CF93C82F80E587
:1019A00090E00E94BB0760E170E08C2F0E94BD0CAC
:1019B0004FEF62E070E08C2FCF910C94290CFF92D6
:1019C0000F931F93CF93DF93C82FD62F8A01F22E48
:1019D0000E94CD0C80E590E00E94BB074D2F4F295F
:1019E00070E060E08C2F0E94290C01151105C1F0F8
:1019F000412F64E070E08C2F0E94290C402F65E09D
:101A000070E08C2F0E94290C61E070E08C2F0E9406
:101A1000BD0C81E0DF91CF911F910F91FF90089550
:101A200000914608109147080F5F1F4F1093470819
:101A300000934608DDCFCF93DF93EC01888D84308F
:101A400021F00E94CD0C84E0888FDF91CF91089522
:101A50001F93CF93DF93182F66E270E00E949F0CD4
:101A6000C82F67E270E0812F0E949F0C9C2FDF91AE
:101A7000CF911F9108951F93CF93DF93182F60E2AA
:101A800070E00E949F0CC82F61E270E0812F0E94DD
:101A90009F0C9C2FDF91CF911F910895AF92BF9221
:101AA000CF92DF92EF92FF921F93CF93DF93182F85
:101AB0006B017A0180E590E00E94BB07B12CA12C5C
:101AC000812F0E94280DEC01892B21F0812F0E948B
:101AD000280D5C01CA15DB0599F72097E9F463E04E
:101AE00070E0812F0E949F0C843159F0882349F0C7
:101AF000C1E0D0E08C3111F4D0E0C0E0D195C195C7
:101B0000D109CE01DF91CF911F91FF90EF90DF902F
:101B1000CF90BF90AF900895EC16FD060CF4E7014E
:101B20001C161D0674F768E270E0812F0E949F0C5E
:101B3000E82E69E270E0812F0E949F0C282F3E2D35
:101B400079019E01A601B701812F0E94900AEC0E37
:101B5000FD1E4F2D68E270E0812F0E94290C4E2D52
:101B600069E270E0812F0E94290C60E470E0812F0F
:101B70000E94BD0CC6CFCF93DF93FC01218D328D27
:101B80002115310529F48FEF9FEFDF91CF91089553
:101B9000EC01808D4217530708F0A9010E944E0DF9
:101BA0001816190684F7298D3A8D281B390B3A8FA0
:101BB000298FEBCF0F931F93CF93DF931F92CDB756
:101BC000DEB7FC01218D328D232B41F48FEF9FEF87
:101BD0000F90DF91CF911F910F9108958C0141E0FB
:101BE00050E0BE016F5F7F4FFC01808D0E944E0D63
:101BF000181619065CF7F801818D928D0197928F66
:101C0000818F898190E0E4CF0E960C94DA0DBF921B
:101C1000CF92DF92EF92FF920F931F93CF93DF93B8
:101C200000D000D000D0CDB7DEB7FC01208D24302D
:101C300009F06DC06A017B018C01B12C63E070E09A
:101C40008B2D0E949F0C81115AC0F801B08EF801B3
:101C5000808D843009F45BC096E0E6E4F1E0DE01BB
:101C6000119601900D929A95E1F7F70193819F7774
:101C70009C8394819D8395819E83B7016E5F7F4F86
:101C800090E0982F882744E050E0845F9B4F0E94AB
:101C9000D70AF801F08C4D2D60E170E08F2D0E9485
:101CA000290C4C2D61E170E08F2D0E94290CF80168
:101CB000808D90E0982F882746E050E0BE016F5F4E
:101CC0007F4F8A5F9B4F0E94D70AF801128E118EB8
:101CD00020E8A60162E0808D0E94DF0C81E026965C
:101CE0000FB6F894DEBF0FBECDBFDF91CF911F912D
:101CF0000F91FF90EF90DF90CF90BF9008958831C3
:101D000009F4A3CFB394F4E0BF1298CFA0CF80E042
:101D1000E6CF7F928F929F92AF92BF92CF92DF9247
:101D2000EF92FF920F931F93CF93DF936C015B01B0
:101D3000EA01FC0186889788708C80E590E00E941B
:101D4000BB07F12CE12C872D0E943B0D8C01892BC8
:101D500021F0872D0E943B0D7C010E151F0599F780
:101D60000C171D0778F410E000E0872D0E943B0D52
:101D7000EC01892B21F0872D0E943B0D8C01C017AF
:101D8000D10799F764E270E0872D0E949F0C082F1D
:101D900065E270E0872D0E949F0C902F8C01080D4A
:101DA000191D98013770872C912C880C991CC4013F
:101DB0008B5A974F4C01FC0180819181820F931FB8
:101DC000AE01420F531F41305840C0F160E078E04F
:101DD0007B01E21AF30AA701B5010E94D70AAE01FE
:101DE0004E195F09B5016E0D7F1DF401808191814F
:101DF0000E94D70A0C0F1D1F412F64E270E0872D4F
:101E00000E94290C402F65E270E0872D0E94290C6A
:101E1000F601868997898C0F9D1F978B868BCE0143
:101E2000DF91CF911F910F91FF90EF90DF90CF90B6
:101E3000BF90AF909F908F907F900895AE01B501B5
:101E4000D7CFCF93FC01C08D80E590E00E94BB0707
:101E500060E270E08C2F0E94BD0C62E070E08C2F7D
:101E60000E949F0C84FD16C062E070E08C2F0E94DF
:101E70009F0C83FF0AC048E162E070E08C2F0E9453
:101E8000290C90E080E0CF91089580E590E00E94D9
:101E9000BB07E3CF40E162E070E08C2F0E94290C89
:101EA00081E090E0F0CF0E960C94210FEF92FF921C
:101EB0001F93CF93DF93FC01208D243039F080E015
:101EC000DF91CF911F91FF90EF9008957B01EC017E
:101ED00010E080E590E00E94BB0763E070E0812F96
:101EE0000E949F0C81110FC0188F888D843039F3A8
:101EF000FD86EC861A8E198E20E0A70162E00E9412
:101F0000DF0C81E0DDCF883179F31F5F143009F7F2
:101F1000ECCFCF93DF93EC018AE08093483784E0E5
:101F200080934937D0936637C0936537FB01828130
:101F30009381A481B58180936B3790936C37A09384
:101F40006D37B0936E37509368374093673761E0D1
:101F50008AE00E94830961E0809148370E94270946
:101F6000809149378F3F41F061E00E94830961E031
:101F7000809149370E942709BE018AE497E30E94B5
:101F8000560F81E0DF91CF910895FC01208124322A
:101F900009F40196FC0120E0CF013191332341F097
:101FA0003A3231F02327F8CF305D08C0205D0CC0F5
:101FB000322F32953F703A30B8F3395CFB013083F1
:101FC0002F702A3098F3295CFB012183089530E0BB
:101FD00020E0EAE0615080F0DC017D91CD01E29FDC
:101FE000A001E39F500D11249A01270F311D77FDA9
:101FF0003A9520533109EECFC9010895882349F05D
:102000008D3039F0982F9F7D81E09A3019F080E073
:10201000089581E00895BF92CF92DF92EF92FF92F0
:102020000F931F93CF93DF93EB018C01D12CC12C25
:10203000892B61F490E080E0DF91CF911F910F91A7
:10204000FF90EF90DF90CF90BF9008957801F80156
:10205000B1908F01FCE2BF16F9F08B2D0E94FE0FAC
:1020600081110CC0C601209739F0019626E0C216F6
:10207000D10414F4B88221966C01E8CF2097D1F2F4
:1020800086E0C816D1040CF41882F70180818C32E6
:1020900089F6C7010196D0CF2097D9F3F1CFCF921F
:1020A000DF92FF920F931F93CF93DF93EC01009782
:1020B000B1F08C016801F801F1908F018F2D0E9421
:1020C000FE0F81110AC0E801FCE2FF12F3CFF60116
:1020D00081810E94FE0F882311F0D0E0C0E0CE0184
:1020E000DF91CF911F910F91FF90DF90CF900895D6
:1020F000CF93DF93EC0162E00E94E70F8093760DAF
:1021000062E0CE0102960E94E70F8093770D62E0B5
:10211000CE0104960E94E70F8093780D62E0CE0115
:1021200007960E94E70F8093790DCE010996DF9103
:10213000CF910C944F106AE00E944A788295807F7C
:10214000890F0895982F92959F708F702AE0929F23
:10215000800D11240895CF93DF93CDB7DEB72D976F
:102160000FB6F894DEBF0FBECDBF2DE0ECE4F1E07A
:10217000DE01119601900D922A95E1F7623021F46B
:1021800083709927892B81F0E1E0F0E0EC0FFD1FCF
:10219000E60FF11D80812D960FB6F894DEBF0FBEBD
:1021A000CDBFDF91CF9108958DE1F5CF7F928F92D2
:1021B0009F92AF92BF92CF92DF92EF92FF920F93D6
:1021C0001F93CF93DF93EC01888199816CE370E0DA
:1021D0000E946A782A813B81620F731F7B836A8326
:1021E00097FD33C0998388838A819B816CE370E07B
:1021F0000E946A782C813D81620F731F7D836C83FE
:1022000097FD2BC09B838A838C819D8168E170E060
:102210000E946A782E813F81620F731F7F836E83D5
:1022200097FD23C09D838C83888599850C9740F406
:102230008E819F813BE0A32EB12C18161906FCF06D
:10224000CC24CA94DC2C7601E0C0CC969983888398
:10225000615071097B836A83C7CFCC969B838A8345
:10226000615071097D836C83CFCF48969D838C83A9
:10227000615071097F836E83D7CF99868886888461
:10228000998477247394780C0A851B85680184E906
:10229000C81A88EFD80A672DC6010E94AB10EE80DD
:1022A000FF8090E08E159F0594F4E81AF90AFF82EA
:1022B000EE828FEF881A980A8CE088169104E9F66E
:1022C000198618860F5F1F4F1B870A87D8CF1E14E9
:1022D0001F04DCF081E0881A910880F099868886D6
:1022E00068856F5F8A859B858459984F0E94AB10E3
:1022F0008E0D9F2D911D9F838E83C1CFB986A88699
:10230000015011091B870A87EBCF61E0B12CA12C8A
:10231000671550F499249394960EC6010E94AB1051
:10232000A80EB11C692DF4CFF7013197EA0DFB1D02
:10233000FF87EE8706578DE691E0089F9001099F81
:10234000300D1124032E000C440B550B802F869565
:102350008695280F311D411D511D60E871E581E012
:1023600090E00E94D7770370C12CD12C7601033006
:1023700039F420E8C22E21E5D22EEE24E394F12C8C
:10238000C60ED71EE81EF91EDF0120E831E541E048
:1023900050E00E943378C60ED71EE81EF91EAC81AD
:1023A000BD8120E13EE00E948E78C60ED71EE81E59
:1023B000F91E2A813B814CE3429FC001439F900D4F
:1023C0001124C80ED91EE11CF11C88819981092EA7
:1023D000000CAA0BBB0BC80ED91EEA1EFB1EC701C0
:1023E000B60120E831E541E050E00E940978CA01D9
:1023F000B9016F5F7F4F8F4F9F4F27E030E040E084
:1024000050E00E94E7777D876C87C701B601DF91B6
:10241000CF911F910F91FF90EF90DF90CF90BF90E1
:10242000AF909F908F907F9008951F93CF93DF93ED
:10243000CDB7DEB762970FB6F894DEBF0FBECDBF43
:102440001FB7F8948091720D9091730D8C56974040
:102450009C878B878091740D8150990B9A8789870F
:102460008091750D90E098878F838091760D90E034
:102470009E838D838091770D90E09C838B838091E8
:10248000780D90E09A8389838FEF9FEF988B8F87E9
:10249000CE0101960E94D6106093490D70934A0DAB
:1024A00080934B0D90934C0D80915C0D882309F423
:1024B000D1C08091490D90914A0DA0914B0DB091E2
:1024C0004C0D8F3F9F4FAF4FBF4F09F0ACC01092E4
:1024D000330D80915B0D8093320D80917A0D809346
:1024E0004D0D80917B0D80934E0D80915D0D9091EF
:1024F0005E0DA0915F0DB091600D8093340D9093AF
:10250000350DA093360DB093370D8091610D9091EC
:10251000620DA091630DB091640D8093380D90937E
:10252000390DA0933A0DB0933B0D2091690D80E0D9
:1025300090E0A0E0B0E8222341F08091650D9091F9
:10254000660DA091670DB091680D2093400D20910C
:10255000400D222341F080933C0D90933D0DA093BC
:102560003E0DB0933F0D10925B0D10927A0D8FEFE0
:1025700080937B0D10925C0D80EC97E8ABE8BBE399
:1025800080935D0D90935E0DA0935F0DB093600DF1
:102590008093610D9093620DA093630DB093640DD1
:1025A00080E090E0A0E0B0E880936E0D90936F0D16
:1025B000A093700DB093710D80936A0D90936B0D85
:1025C000A0936C0DB0936D0D8093650D9093660D87
:1025D000A093670DB093680D1092690D1092750D60
:1025E0001092740D1092730D1092720D83E6809309
:1025F000780D8093770D8093760D1092790DE09190
:10260000800DF091810D309719F082E39DE00995DE
:102610001FBF62960FB6F894DEBF0FBECDBFDF912D
:10262000CF911F9108958091490D90914A0DA091ED
:102630004B0DB0914C0D0196A11DB11D8093490D1C
:1026400090934A0DA0934B0DB0934C0D81E0809375
:10265000330D3FCF2FB7F8941092330D1092320DF7
:1026600010924D0D8FEF80934E0D80EC97E8ABE804
:10267000BBE38093340D9093350DA093360DB0934A
:10268000370D8093380D9093390DA0933A0DB09388
:102690003B0D80E090E0A0E0B0E88093450D909382
:1026A000460DA093470DB093480D8093410D909334
:1026B000420DA093430DB093440D80933C0D909335
:1026C0003D0DA0933E0DB0933F0D1092400D2FBFD6
:1026D0004ACF0F931F93CF93DF93FC0100811181A9
:1026E00022813381EB0188819981AA81BB810817FE
:1026F00019072A073B07ACF0081719072A073B07F9
:1027000071F481E004811581268137814C815D81DE
:102710006E817F8104171507260737071CF080E0BC
:1027200001C081E0DF91CF911F910F9108950F9328
:102730001F93CF93DF93FC010081118122813381AC
:10274000EB0188819981AA81BB81081719072A07A3
:102750003B0771F481E004811581268137814C812A
:102760005D816E817F81041715072607370709F001
:1027700080E0DF91CF911F910F9108950F931F93E8
:10278000FC0184819581A681B7814081518162815C
:102790007381811520E89207A105B105DCF18C0158
:1027A0009D010F2EFFE03595279517950795FA9512
:1027B000D1F7F02D400F511F621F731F40835183CB
:1027C000628373839F77AA27BB2784839583A6831D
:1027D000B78380819181A281B381B7FF42C04481D8
:1027E000558166817781141615061606170674F44E
:1027F0000196A11DB11D80839183A283B38350589C
:10280000610971094483558366837783CF011F91E2
:102810000F910895B7FFDDCFB095A0959095819564
:102820009F4FAF4FBF4F8C019D010F2EFFE035959D
:10283000279517950795FA95D1F7F02D401B510B69
:10284000620B730B40835183628373839F77AA2744
:10285000BB27B095A095909581959F4FAF4FBF4FE7
:10286000B4CF0097A105B10589F2448155816681F5
:10287000778177FFCBCF0197A109B109808391833D
:10288000A283B38350586F4F7F4FBCCF8F929F92DC
:10289000AF92BF92CF92DF92EF92FF92CF93DF93EE
:1028A000EC018FB7F8949091B60094FDFCCFA09105
:1028B000B2008090700890907108A0907208B0905B
:1028C0007308C0906C08D0906D08E0906E08F0908E
:1028D0006F088FBF209168083091690840916A089D
:1028E00050916B08B0E00E942878C60ED71EE81EF3
:1028F000F91ED701C6012FE0B695A7959795879544
:102900002A95D1F7880D991DAA1DBB1D888399832F
:10291000AA83BB83CE010E94BE13E894D7F8EE24AD
:10292000FF24CC82DD82EE82FF82CE01DF91CF9147
:10293000FF90EF90DF90CF90BF90AF909F908F90DF
:102940000C94BE137F928F929F92AF92BF92CF92C0
:10295000DF92EF92FF920F931F93CF93DF93CDB748
:10296000DEB760970FB6F894DEBF0FBECDBF8C0107
:102970007FB6F89488E0F801A4EBBDE001900D92D9
:102980008A95E1F7C090C40DD090C50DE090C60DBA
:10299000F090C70DC114D104E104F10409F4A0C002
:1029A0001092A80D1092A90D1092AA0D1092AB0DC5
:1029B00084EA9DE00E94BE138090B40D9090B50D06
:1029C000A090B60DB090B70DC501B401A701960156
:1029D0000E9409786B017C018C189D08AE08BF0825
:1029E0008092A40D9092A50DA092A60DB092A70D75
:1029F00084EA9DE00E94BE138FE0CC0CDD1CEE1C2F
:102A0000FF1C8A95D1F78091B80D9091B90DA091D6
:102A1000BA0DB091BB0DC82AD92AEA2AFB2A8091A7
:102A2000650804C0F694E794D794C7948A95D2F7C2
:102A3000C092660889E297E090939B0D80939A0D6F
:102A400010929F0D10929E0D81E08093A20D7FBE8B
:102A500019861A861B861C861D861E861F86188A66
:102A6000CE0109960E944614FFB6F89480916C0836
:102A700090916D08A0916E08B0916F084091700818
:102A800050917108609172087091730849835A835C
:102A90006B837C838D839E83AF83B887CE01019641
:102AA0000E94BE138091B60084FDFCCFBE016F5F13
:102AB0007F4F84EA9DE00E949713882339F080912C
:102AC00066089091B200981708F445C0B801CE018D
:102AD00009960E946913FFBE882309F459C05CC09F
:102AE0008091B40D9091B50DA091B60DB091B70D38
:102AF0008093A40D9093A50DA093A60DB093A70D60
:102B000084EA9DE00E94BE138090B80D9090B90DAC
:102B1000A090BA0DB090BB0D2091C80D3091C90D99
:102B20004091CA0D5091CB0DC501B4010E940978A6
:102B30006B017C018C189D08AE08BF088092A80D1F
:102B40009092A90DA092AA0DB092AB0D84EA9DE0DF
:102B50000E94BE1364CF9091B60093FDFCCF80938A
:102B6000B30080917000826080937000CE0109965E
:102B70000E944614B801CE0109960E946913811182
:102B800004C08091A20D811102C0FFBEA8CFFFBE7C
:102B900061E080E00E94FB0681E060960FB6F89449
:102BA000DEBF0FBECDBFDF91CF911F910F91FF9080
:102BB000EF90DF90CF90BF90AF909F908F907F90DD
:102BC00008950F931F93CF93DF93EC018881998130
:102BD000AA81BB81FB010081118122813381800F99
:102BE000911FA21FB31F88839983AA83BB838C8103
:102BF0009D81AE81BF814481558166817781840F3B
:102C0000951FA61FB71F8C839D83AE83BF83CE0104
:102C10000E94BE13CE01DF91CF911F910F910895B5
:102C20000F931F93CF93DF93CDB7DEB728970FB6DF
:102C3000F894DEBF0FBECDBF8C01FB01848195816E
:102C4000A681B781B095A095909581959F4FAF4F84
:102C5000BF4F40815181628173817095609550951D
:102C600041955F4F6F4F7F4F49835A836B837C83BE
:102C70008D839E83AF83B887CE0101960E94BE13D9
:102C8000BE016F5F7F4FC8010E94E115C801289601
:102C90000FB6F894DEBF0FBECDBFDF91CF911F916D
:102CA0000F910895FC0180818C7090E0FC01F695F5
:102CB000E795E80FF91FEC55FE4F80819181A281C5
:102CC000BC018A2F90E008950F931F93CF93DF9359
:102CD000EC010E94DE09088119812A813B81DC0117
:102CE000CB01800F911FA21FB31F8C839D83AE83E6
:102CF000BF83DF91CF911F910F9108952F923F9243
:102D00004F925F926F927F928F929F92AF92BF92FB
:102D1000CF92DF92EF92FF920F931F93CF93DF93A7
:102D200000D000D000D0CDB7DEB78C016150710962
:102D3000CA01880F991F880F991F9801280F391F02
:102D40003A832983312C212CE981FA81C080D180FA
:102D5000E280F380261637060CF051C09101C101C4
:102D6000880F991F880F991F800F911F9E838D8355
:102D7000CB01D901ED81FE8181909190A190B1901C
:102D8000FE83ED838C149D04AE04BF04ACF0FC0103
:102D9000EE0FFF1FEE0FFF1FE00FF11FFC83EB8311
:102DA00034974480558066807780C414D504E60447
:102DB000F7042CF40197F2CF2F5F3F4FDACF821741
:102DC00093079CF0ED81FE813497408251826282AC
:102DD0007382EB81FC8180829182A282B382D901CD
:102DE000119601978A179B073CF7841795070CF4F7
:102DF0001D014A175B070CF0CB01BC01A5CFC70131
:102E0000B60126960FB6F894DEBF0FBECDBFDF9198
:102E1000CF911F910F91FF90EF90DF90CF90BF90D7
:102E2000AF909F908F907F906F905F904F903F906A
:102E30002F900895DB01A40FB11D282FFC018E2FC8
:102E4000821B841718F48E918193F9CF08950F9304
:102E50001F93CF93DF93DC011496EC911497F0E06D
:102E6000FE2FEE2715968C911597E80FF11DC42FB4
:102E7000D0E0CC0FDD1FCD51DE4F88819981EF016D
:102E8000C80FD91F6C177D0798F0B9018D01EA0FA3
:102E9000FB1F41934FEF480FCF010E941A17F80113
:102EA000D483C58381E0DF91CF911F910F91089565
:102EB00080E0F9CF8F929F92BF92CF92DF92EF92F4
:102EC000FF920F931F93CF93DF9300D0CDB7DEB760
:102ED000FC01B62E6A0179019A01220F331F220FDD
:102EE000331FC90101969A838983848190E0982FCA
:102EF00088270581080F192F111D2C5F3F4F200FC8
:102F0000311F213084E0380738F5348325830E0FD4
:102F10001F1F21E2F8012193CF0142E0BE016F5F44
:102F20007F4F0E941A174801F4E08F0E911CF801A0
:102F3000B38210E000E0C016D106E9F044E0B7012A
:102F4000C4010E941A17F4E08F0E911C84E0E80E71
:102F5000F11C0F5F1F4FEFCF80E00F900F90DF91BC
:102F6000CF911F910F91FF90EF90DF90CF90BF9086
:102F70009F908F90089581E0F0CF0F931F93CF9390
:102F8000DF9300D000D000D0CDB7DEB7FC018B01BD
:102F900081E4DB018C9387E511968C9311978081F6
:102FA00012968C93129781818E7F13968C93139730
:102FB00014961C9214978EE015968C931597828127
:102FC000938116969C93169717968C93808591857E
:102FD000448155816681778149835A836B837C83E1
:102FE0009E838D8344E0BE016F5F7F4FC8010896CA
:102FF0000E941A1742E0BE016B5F7F4FC8010C961A
:103000000E941A1781E026960FB6F894DEBF0FBE15
:10301000CDBFDF91CF911F910F910895FC012481C5
:1030200030E0322F22279581A901490F511DCA0195
:10303000238120FD0A9708952F923F924F925F922D
:103040006F927F928F929F92AF92BF92CF92DF92B8
:10305000EF92FF920F931F93CF93DF93CDB7DEB71D
:103060002C970FB6F894DEBF0FBECDBF5B01822E4A
:10307000902EE98628E0E9E5F1E0DE011196019065
:103080000D922A95E1F7437050E01A01220C331C8F
:10309000220C331C280E391ED1014D905D906D908D
:1030A0007C906A01BFEFCB1ADB0AE3E0CE22DD247D
:1030B000CC0CDD1CCC0CDD1CC80ED91EFA013396DD
:1030C000E370FF27EE0FFF1FEE0FFF1FE80FF91F42
:1030D000E080F180028113814E5F5F4F437055277E
:1030E000440F551F440F551F840F951FDC012D9170
:1030F0003D914D915C91F601608171818281938156
:10310000A985EA2FF0E0EE0FFF1FA1E0B0E0AC0FC1
:10311000BD1FEA0FFB1F0190F081E02D0995B4E07F
:103120009B9EF0011124EE5BF54F25913591459161
:10313000549129873A874B875C87D5010D911D9162
:103140002D913C91400E511E621E731E460E571E5D
:10315000681E791E89859A85AB85BC85840D951D71
:10316000A61DB71DAC01BD01082C04C0440F551F9E
:10317000661F771F0A94D2F7282D21952F712C01F5
:103180003D0104C076946794579447942A95D2F7EA
:10319000442A552A662A772AF60180819181A281E4
:1031A000B381840D951DA61DB71DF1018083918308
:1031B000A283B3832C960FB6F894DEBF0FBECDBFAB
:1031C000DF91CF911F910F91FF90EF90DF90CF9003
:1031D000BF90AF909F908F907F906F905F904F9037
:1031E0003F902F9008953F924F925F926F927F92FF
:1031F0008F929F92AF92BF92CF92DF92EF92FF9207
:103200000F931F93CF93DF93CDB7DEB7A0970FB681
:10321000F894DEBF0FBECDBF6C015B01FC01808165
:103220009181A281B38189839A83AB83BC8384819A
:103230009581A681B7818D839E83AF83B887808572
:103240009185A285B38589879A87AB87BC8784855A
:103250009585A685B7858D879E87AF87B88B80912A
:10326000610190916201A0916301B0916401898B29
:103270009A8BAB8BBC8B3B01F12C2E0181E1480E6C
:10328000511C43010F2D14E033243394300EF2010E
:1032900021912F01E12C412FB401CE0101960E9412
:1032A0001C181150F4E08F0E911C032D1111ECCF5E
:1032B00084E0F80EE0E16E0E711CF0E1FF12DDCF4C
:1032C0008091650190916601A0916701B0916801BC
:1032D0008D8B9E8BAF8BB88F88248394912C0FE0BD
:1032E000080D2E01F5E14F0E511C340114E0FF24AE
:1032F000F394F00EF20121912F01B3016F70772743
:10330000660F771F660F771F6A0D7B1DEE24E3940F
:10331000412FCE0101960E941C181150F5E06F0E4E
:10332000711C0F2D1111E3CF84E0880E911CE1E197
:103330008E169104A1F68091690190916A01A09185
:103340006B01B0916C01898F9A8FAB8FBC8FF5E0C8
:103350006F2E712C10E22E01E9E14E0E511C43013B
:10336000012F44E0F42E33243394300EF2012191E6
:103370002F01B4016F707727660F771F660F771FD5
:103380006A0D7B1DE2E0EE2E4F2DCE0101960E94CC
:103390001C18FA94F3E08F0E911C032DF110E3CF6B
:1033A0001C5F84E0681A71081033A9F680916D01E2
:1033B00090916E01A0916F01B09170018D8F9E8FE1
:1033C000AF8FB8A3712C612C2E01EDE14E0E511C74
:1033D0004301012F84E0F82E33243394300EF201A0
:1033E00021912F01B4016F707727660F771F660F49
:1033F000771F6A0D7B1D33E0E32E4F2DCE01019622
:103400000E941C18FA94F7E08F0E911C032DF11006
:10341000E3CF1C5F84E0681A71081034A9F6F60146
:1034200080819181A281B38149815A816B817C81A4
:10343000840F951FA61FB71F80839183A283B38338
:1034400084819581A681B7814D815E816F81788568
:10345000840F951FA61FB71F84839583A683B78308
:1034600080859185A285B38549855A856B857C8544
:10347000840F951FA61FB71F80879187A287B387E8
:1034800084859585A685B7854D855E856F85788908
:10349000840F951FA61FB71F84879587A687B787B8
:1034A00080899189A289B3890196A11DB11D808B64
:1034B000918BA28BB38BA0960FB6F894DEBF0FBE94
:1034C000CDBFDF91CF911F910F91FF90EF90DF90D3
:1034D000CF90BF90AF909F908F907F906F905F90B4
:1034E0004F903F900895EF92FF920F931F93E094B7
:1034F000F094009510956E297F29802B912B6227DF
:103500007327842795271F910F91FF90EF900895BF
:10351000EF92FF920F931F932E253F2540275127AF
:1035200062277327842795271F910F91FF90EF90B3
:103530000895EF92FF920F931F93622773278427BA
:1035400095276E217F21802391236227732784276B
:1035500095271F910F91FF90EF900895EF92FF92A2
:103560000F931F932E253F25402751276223732356
:10357000842395236E257F25802791271F910F9106
:10358000FF90EF90089520911D08260F3327331FD9
:1035900021323105ECF42091C008FC0190E080E07C
:1035A000243069F082E00895A0911D082191AC01BA
:1035B0004550584FA40FB52FB11D2C930196861777
:1035C00098F380911D08680F60931D0880E00895AE
:1035D00081E008951092C00881E080939F081092C6
:1035E0009A0861E084E10E94270961E085E10E9478
:1035F0002709E9EBF0E080818E7F808380818D7FD9
:10360000808384E38093B80085E48093BC000895B0
:10361000CF93DF9391E09093FA078823B9F0C0919C
:10362000B800D091BA008091BC008A7B8093BC0026
:1036300060E084E10E94270960E085E10E9427099B
:103640000E94EA1AD093BA00C093B800DF91CF91DC
:103650000895CF92DF92EF92FF920F931F93CF9333
:10366000DF93D82FC62F613208F098C00E94DE0980
:103670006B017C018091C00881116BC081E0809357
:10368000C00880939F089FEF90939E0810929D081A
:103690009C0F90939C0880939B0880919B08DD0F62
:1036A000D82BD0939B0880919A08813009F078C07C
:1036B00010929A080E94DE096B017C0180919B08A0
:1036C0008093BB008091C2089091C308A091C40868
:1036D000B091C508892B8A2B8B2BA1F00E94DE09A3
:1036E0000091C2081091C3082091C4083091C50808
:1036F0006C197D098E099F090617170728073907D6
:1037000008F448C08091BC0083FDD8CF85EC80933D
:10371000BC000E94DE096B017C018091C0088130F1
:1037200009F440C080919D088C1710F4C0919D0849
:10373000EAE7F8E0A0EAB8E080E08C1355C08C2FEF
:10374000DF91CF911F910F91FF90EF90DF90CF907D
:1037500008958091C2089091C308A091C408B091C7
:10376000C508892B8A2B8B2B09F484CF0E94DE0994
:103770000091C2081091C3082091C4083091C50877
:103780006C197D098E099F09061717072807390745
:1037900008F070CF8091C1080E94081BC0E0CFCF15
:1037A00085EEB5CF8091C2089091C308A091C4085E
:1037B000B091C508892B8A2B8B2B09F4AECF0E94C0
:1037C000DE090091C2081091C3082091C40830910D
:1037D000C5086C197D098E099F0906171707280768
:1037E000390708F09ACFD6CF91919D938F5FA5CFDF
:1037F00008950895E091740880917508E81730F4F1
:10380000F0E0E056F74F808190E008958FEF9FEF52
:103810000895CF92DF92EF92FF920F931F93CF9371
:10382000DF937C01CB018A0120917908222389F062
:10383000EB016B01C40ED51ECC15DD0569F0699155
:10384000D701ED91FC910190F081E02DC701099520
:10385000F3CF642F0E94C31AC801DF91CF911F914B
:103860000F91FF90EF90DF90CF900895CF93DF936B
:103870001F92CDB7DEB76983209179082223F9F032
:1038800020917608203258F021E030E0FC013383AB
:10389000228390E080E00F90DF91CF910895809196
:1038A0007708E82FF0E0E652F84F998190838F5F18
:1038B000809377088093760881E090E0ECCF61E018
:1038C000CE0101960E94C31AF7CF682F85E792E3D5
:1038D0000C94361CCF92DF92EF92FF920F931F93BE
:1038E000CF93DF93D091760881E0D13208F09CC06D
:1038F000C09178080E94DE096B017C018091C008AC
:1039000081116CC082E08093C00881E080939F08A1
:103910008FEF80939E0810929D08D0939C08AAED8B
:10392000B7E0EAE7F8E080E0D8138DC010929B087A
:1039300080919B08CC0FC82BC0939B0880919A085C
:10394000813009F084C010929A080E94DE096B0150
:103950007C0180919B088093BB008091C20890916C
:10396000C308A091C408B091C508892B8A2B8B2B62
:10397000A1F00E94DE090091C2081091C3082091B5
:10398000C4083091C5086C197D098E099F09061776
:1039900017072807390708F442C08091BC0083FD4F
:1039A000D8CF85EC8093BC000E94DE096B017C01BE
:1039B0008091C008823009F44CC080919E088F3FEE
:1039C00009F469C080919E08803209F466C0809134
:1039D0009E08803309F463C084E026C08091C20849
:1039E0009091C308A091C408B091C508892B8A2B77
:1039F0008B2B09F483CF0E94DE090091C20810913D
:103A0000C3082091C4083091C5086C197D098E093E
:103A10009F09061717072807390708F06FCF80910D
:103A2000C1080E94081B85E0109277081092760862
:103A300010927908DF91CF911F910F91FF90EF9035
:103A4000DF90CF9008959D9191938F5F6DCF85EE1C
:103A5000A9CF8091C2089091C308A091C408B091E9
:103A6000C508892B8A2B8B2B09F4A2CF0E94DE0973
:103A70000091C2081091C3082091C4083091C50874
:103A80006C197D098E099F09061717072807390742
:103A900008F08ECFC4CF80E0C7CF82E0C5CF83E0EF
:103AA000C3CFCF93DF93D82FC62F8091820D0E9472
:103AB0007E066D2F85E792E30E94361C6C2F85E70A
:103AC00092E30E94361C85E792E3DF91CF910C943C
:103AD0006A1C682F8091830D9091840D813091052F
:103AE00021F0029779F080E00895603839F067FDA1
:103AF00006C088E00E94511D81E0089561E861954B
:103B00006068F7CF84E2F6CFCF93DF93D82FC62F2C
:103B10008091283380620E947E066D2F85E792E3B4
:103B20000E94361C6C2F85E792E30E94361C85E7C5
:103B300092E3DF91CF910C946A1CE0913837E83022
:103B4000E0F4F0E0E856FD4C608581E020913937E3
:103B5000211101C081E0909198329923B9F0660F4C
:103B60006E7090E1299F90011124622B8295880F3D
:103B7000807E682B89E00C94841D80919F32E82F11
:103B8000F0E0E856FD4C60858170E0CF089580E05C
:103B90000E947E0688E090E00E94651C85E792E323
:103BA0000C946A1C80E00E947E0686E090E00E94F1
:103BB000651C85E792E30C946A1C90E080E0089510
:103BC0008091D907811113C04CE850EF61E070E09B
:103BD0006BBFFA014791579167917691483549F447
:103BE000523439F46A3629F47093D907089580E085
:103BF000089581E00895CF92DF92EF92FF921F9394
:103C0000CF93DF936B017C01EA01122F0E94E01D2C
:103C1000811105C08091D907813049F082E0DF91A0
:103C2000CF911F91FF90EF90DF90CF9008958CE996
:103C300090EFA1E0B0E0ABBFFC01A791B691CD0140
:103C400001978E3F9F4F28F10E94E01D8111E7CF21
:103C50008091D907813011F786E990EFA1E0B0E0BB
:103C6000ABBFFC01A791B691CD0101978E3F9F4F4D
:103C7000A8F6C701B60178508F4F9F4F212FAE0194
:103C8000FD01DF91CF911F91FF90EF90DF90CF90DA
:103C90000994212FAE01C701B601F2CF6CEE79E095
:103CA0000C94F40761EB79E083EE9AE00E94F4074C
:103CB00083EE9AE00E94F408F8940FB6F894A89561
:103CC00080916000886180936000109260000FBE58
:103CD00088E198E00FB6F894A895809360000FBE35
:103CE00090936000FFCFEB016BE879E0CE010E947A
:103CF000F407E881F9810680F781E02DCE0109956E
:103D00000E94521E0F931F93CF93DF93EC0181E02B
:103D10008093D80761E08BE10E9427099FB7F89450
:103D200089819FBF811107C01092C0071092BF0701
:103D30001092D6073AC08091723290917332892BDB
:103D400019F50E94DE0900916E3210916F322091B8
:103D5000703230917132DC01CB01801B910BA20BD0
:103D6000B30B80959095A095B0958827B7FD839566
:103D70009927AA27BB27882351F081E090E09093F0
:103D8000C0078093BF07D4CF0E94320ADCCF809156
:103D9000BF079091C00782309105D1F10397D9F503
:103DA00081E08093D6078093D70780EB94E0A0E072
:103DB000B0E080936A3290936B32A0936C32B093F0
:103DC0006D3281E090E090937332809372328091F3
:103DD000723290917332892B09F50E94DE090091AD
:103DE0006A3210916B3220916C3230916D32060F35
:103DF000171F281F391F00936E3210936F322093C4
:103E0000703230937132DF91CF911F910F910895ED
:103E100083E090E0B4CF82E090E0B1CF0E94320A1C
:103E2000DECFCF93DF93CDB7DEB728970FB6F894E8
:103E3000DEBF0FBECDBF19821A821B821C821D827B
:103E40001E821F821886809102018823B9F0CE015C
:103E500001960E94461468EE7DE0CE0101960E9414
:103E6000E115CE0101960E94A21428960FB6F8948F
:103E7000DEBF0FBECDBFDF91CF9108959FB7F894FD
:103E800088E0E4EBFDE0DE01119601900D928A9549
:103E9000E1F79FBFE0CF0F931F93CF93DF93EC0128
:103EA00088859985892BD9F40E94DE090C811D81B2
:103EB0002E813F81DC01CB01801B910BA20BB30B48
:103EC00080959095A095B0958827B7FD8395992703
:103ED000AA27BB27DF91CF911F910F9108950E94D0
:103EE000320AE4CF0F931F93CF93DF93EC01CB0102
:103EF0008A01BE01685F7F4F44E00E941A17BE012D
:103F0000645F7F4F42E0C801DF91CF911F910F9115
:103F10000C941A17DF92EF92FF920F931F93CF9397
:103F2000DF9300D000D0CDB7DEB7FC015C834B83BC
:103F3000048110E0102F00278581080F111DC90191
:103F400002969A838983A9014B5F5F4F400F511FEF
:103F500080E064177507D0F17901548345830E0F13
:103F60001F1F22E1F8012193CF0142E0BE016F5FE4
:103F70007F4F0E941A1742E0BE016D5F7F4FC8015C
:103F800003960E941A170B5F1F4FE00EF11EDD24EF
:103F9000DA940E151F05C9F08B819C819C012F5F5F
:103FA0003F4FAC01405251094031510548F03C832C
:103FB0002B830E94B177F80180830F5F1F4FE9CFF9
:103FC000F801D0823C832B83F8CF81E00F900F90D3
:103FD0000F900F90DF91CF911F910F91FF90EF9075
:103FE000DF9008950F931F93CF93DF93EC014883E5
:103FF00059836A837B8381E090E0998788870E9458
:10400000320A088119812A813B81DC01CB01800FB2
:10401000911FA21FB31F8C839D83AE83BF83DF914B
:10402000CF911F910F910895862F413208F040E201
:10403000642F0E94291B10927408809375080895BC
:10404000CF92DF92FF920F931F93CF93DF936C0178
:10405000F42E8B01D0E0C0E0F80180810E947E0642
:1040600060E085E792E30E94361C85E792E30E94B8
:104070006A1C41E0F801608185E792E30E94142008
:1040800090917508809174089817B9F0CC0FDD1FD6
:10409000CC0DDD1D88819981F80120812093820D4E
:1040A0009093840D8093830D81E0DF91CF911F91D8
:1040B0000F91FF90DF90CF90089521960F5F1F4FD3
:1040C000CF1550F280E0F1CF1F93CF93DF93182FDD
:1040D000C2E8DDE088810E947E06612F85E792E3D9
:1040E0000E94361C85E792E30E946A1C41E06881C9
:1040F00085E792E30E9414200E94A206C82F85E75C
:1041000092E30E946A1C8C2FDF91CF911F9108953A
:104110008091830D9091840D029721F460E08EE2EE
:104120000C94511D80E00E9464202091830D3091F9
:10413000840D2115310539F02130310509F48068ED
:10414000682F80E0EDCF8F77FBCF8091830D90912A
:10415000840D029721F461E08EE20C94511D80E001
:104160000E9464202091830D3091840D211531052A
:1041700031F02130310529F0682F80E0EECF8068E2
:10418000FBCF8F77F9CF8F929F92AF92BF92CF9252
:10419000DF92EF92FF920F931F93CF93DF931F92C3
:1041A000CDB7DEB78C011982CE0101960E94B5060B
:1041B000B82E8981882309F4A8C086E7C82ED12C9F
:1041C000EE24EA94FE2C8091820D0E947E066B2DD7
:1041D00085E792E30E94361C85E792E30E946A1C01
:1041E00049816091820D85E792E30E9414200E942C
:1041F000A2068F770E94A21090E0F801918380833D
:104200000E94A2068F770E94A21090E0F80193838B
:1042100082830E94A206A82E86FF5DC08F710E9435
:10422000A21090E0A5FC55C0F8019583848380918D
:10423000830D9091840D029709F052C00E94A2064E
:104240008F730E94A21090E0F801978386830E94EA
:10425000A20687709927F801958784870E94A20695
:104260008F710E94A2108150990BF801918780876D
:104270008981873008F446C00E94A2060E94A210DD
:1042800090E08C599F4FF80193878287F801F78659
:10429000E68685E792E30E946A1CF801808091809F
:1042A0008B2D0E9464208F770E94A210881519041C
:1042B00009F089CF81E00F90DF91CF911F910F918D
:1042C000FF90EF90DF90CF90BF90AF909F908F9036
:1042D00008950C96A9CF8F730E94A21090E0A4CFEE
:1042E0000E94A206877099270197F8019587848715
:1042F0000E94A2068F730E94A21090E0F80197839B
:104300008683ACCFD386C286C1CF80E0D4CF4F9214
:104310005F926F927F928F929F92AF92BF92CF9255
:10432000DF92EF92FF920F931F93CF93DF9300D012
:1043300000D0CDB7DEB78B016A0119821A821B82C9
:104340001C8244E0FC01608185E792E30E94142016
:104350008091750890917408891B990B049709F056
:104360007FC0CE0101967C014E0195E0890E911C23
:1043700057010E94A206F50181935F018E169F06E8
:10438000C1F78C81982F9C709C3009F058C0F601C1
:10439000808353E0F601808187FD65C08C7090E0DA
:1043A0009C0136952795820F931FFC01E253FE4F27
:1043B0002081318142812901642E062C000C77086E
:1043C0005301420187549E4FFC012081318142817B
:1043D000F8011082118212821382F70180E090E0CE
:1043E000DC016191BA2FA92F982F8827862B6E2F79
:1043F0006E196517B0F388229922AA22BB22892858
:104400008A288B2809F5F80180839183A283B383DE
:1044100090E080E00F900F900F900F90DF91CF9180
:104420001F910F91FF90EF90DF90CF90BF90AF90D2
:104430009F908F907F906F905F904F9008958B81A9
:10444000F601808352E0A6CF2901642E062C000CD1
:104450007708B301A2018429952BA629B72BD3CFC6
:1044600082E090E0D7CF84E090E0D4CF2F923F92CB
:104470004F925F926F927F928F929F92AF92BF9274
:10448000CF92DF92EF92FF920F931F93CF93DF9320
:10449000CDB7DEB760970FB6F894DEBF0FBECDBFC5
:1044A000E0919932F0919A323197EC30F10508F0B1
:1044B000AFC0E35AFD4D0C947E786922A322AF224F
:1044C000CA22F4228023FB23F924BE2403254B2592
:1044D00061261092293310922A3310922B331092B6
:1044E0002C3390919C3280919D32989F902D112475
:1044F000EDE2F3E380E040E050E060E070E8981720
:1045000031F041935193619371938F5FF8CF90E0B5
:1045100080E040E050E060E070E8FC01E35DF94CD1
:1045200028E041935193619371932150D1F7809684
:10453000811521E0920789F782E090E090939A320A
:104540008093993265C08AE093E30E944B1F8823D1
:1045500009F45EC00E94D21D83E090E0EFCF198283
:104560001A821B821C821D821E821F821886CE0127
:1045700001960E94461489819A81AB81BC81809307
:10458000293390932A33A0932B33B0932C3384E0B8
:1045900090E0D4CF0E949D1D4091220150912301B3
:1045A00070E060E08EE193E30E94F21F40919D3243
:1045B00088E992E320E0C12CD12CE12C60E8F62EB2
:1045C000421779F0FC01EB56FE4F30E0C192D192D8
:1045D000E192F1923F5F3031C9F72F5F805C9F4FCE
:1045E000EFCF85E090E0AACFE0919F32F0E0EE5F60
:1045F000FC4C8081811125C089E090E090939A3233
:1046000080939932109253081092520810925108D8
:1046100060960FB6F894DEBF0FBECDBFDF91CF918D
:104620001F910F91FF90EF90DF90CF90BF90AF90D0
:104630009F908F907F906F905F904F903F902F90C2
:104640000895F090530837E03F1518F486E090E0A5
:10465000D5CFCF2CD12C90E00F2C02C0959587950B
:104660000A94E2F780FF42C0E0905208E11038C09F
:1046700000919F3210E0F601E856FD4C80890E94BF
:104680007E06F80153E0EE0FFF1F5A95E1F7E8565A
:10469000FD4CEC0DFD1D60A185E792E30E94361CE8
:1046A00085E792E30E946A1C882321F1E110B0CFD4
:1046B0008AEF90E0A0E0B0E080931433909315333C
:1046C000A0931633B093173310921D3310921C33FE
:1046D00084E193E30E94641681E08093520898CFAE
:1046E00084E193E30E944B1F882311F2F394F0922C
:1046F00053088ECFF394F09253081092520888CF4B
:1047000010915208112309F443C084E193E30E94FD
:104710004B1F8823E9F180EB92E30E9452166093CD
:104720000A3370930B3380930C3390930D331092B4
:104730001333109212338AE093E30E94641680EBE5
:1047400092E30E9452168B019C013695279517958E
:104750000795DC01CB01800F911FA21FB31F80932F
:10476000143390931533A0931633B09317331092EC
:104770001D3310921C3384E193E30E94641687E09A
:1047800090E090939A328093993210925308B5CF6B
:104790000E94C71D81117CC180919F3248E0849F97
:1047A000C001112488549D4C0E9452166B017C015B
:1047B000C0920A33D0920B33E0920C33F0920D3357
:1047C00010921333109212338AE093E30E9464161E
:1047D000D701C601B695A79597958795C80ED91E9E
:1047E000EA1EFB1EC0921433D0921533E0921633AA
:1047F000F0921733BCCF80919F3290E00091510826
:104800009C0128563D4CF901EA56FB4F40810417A4
:1048100008F4A8C026593F4FD901BC91BE87F5E0E6
:10482000880F991FFA95E1F7FC01E35DF94CFB87CE
:10483000EA8710E000E081E090E0002E01C0880FE0
:104840000A94EAF7FE858F2301F180913637882399
:1048500049F120912D37622F70E0C80136E0880FB2
:10486000991F3A95E1F7835D9B4CAB0155954795B0
:1048700020FD02C0415051090E947E16AA85BB85C9
:104880006D937D938D939C9313970F5F1F4FEA85D4
:10489000FB853496FB87EA870830110561F689E0CD
:1048A00090E06FCF212C312C412C512C3201F8019A
:1048B00094E0EE0FFF1F9A95E1F7F88BEF87809158
:1048C0002D37281610F7EF85F889E20DF11DEE0F50
:1048D000FF1FEE0FFF1FE35DFB4C80819181A281E2
:1048E000B3810097A105F0E8BF07A9F03320A9F133
:1048F00088159905AA05BB0514F44C015D01C8167D
:10490000D906EA06FB0614F46C017D013394480EC7
:10491000591E6A1E7B1E80913737882369F022E07A
:10492000231550F44C185D086E087F084818590884
:104930006A087B083A943A94232D30E050E040E036
:10494000C301B2010E940978AA85BB852D933D93CE
:104950004D935C9313972394B2CF6C017D014C016E
:104960005D01D4CF10915308183008F458C1E1E02C
:10497000E00FE093510886E090E003CF10915308D8
:1049800080919D32181718F088E090E037CE812F83
:1049900090E09C0128563D4C7901F901EF59FF4FF9
:1049A00080818823F1F000915208011114C0D701D1
:1049B00050968C910E947E06F701608D85E792E308
:1049C0000E94361C85E792E30E946A1C882369F0E6
:1049D00001111ECE6DCE84E193E30E944B1F88230C
:1049E00031F31F5F1093530813CE1F5F10935308CA
:1049F00084CE8EE193E30E944B1F882309F408CEF6
:104A00008AE090E09BCD109152081123E9F184E1F6
:104A100093E30E944B1F8823B9F180EB92E30E943D
:104A2000521660930A3370930B3380930C33909338
:104A30000D3310921333109212338AE093E30E94E5
:104A4000641680EB92E30E9452168B019C0136950E
:104A5000279517950795DC01CB01800F911FA21FA9
:104A6000B31F8093143390931533A0931633B093F0
:104A7000173310921D3310921C3384E193E30E948C
:104A800064168BE090E07DCE0E94C71D882329F23A
:104A90001111BECD0DCE0091510880912D37081710
:104AA00008F4B0C0A12C30919D3220919F32A31602
:104AB00008F09AC08A2D90E0FC01E750FD4C40813F
:104AC000442309F488C090902D370A2D239F000DB0
:104AD000112410E020913637A6E0880F991FAA957F
:104AE000E1F7211160C0F0913737FE879C01235D0B
:104AF0003B4C1901812CB12CC12CD12C7601000F1B
:104B0000111F000F111F035D1C4C981409F463C0A2
:104B1000F10181919191A191B1911F010097A1059E
:104B2000F0E8BF07E1F0BB2009F457C02A853B85B8
:104B30004C855D8582179307A407B50724F48A87FF
:104B40009B87AC87BD87481659066A067B0614F416
:104B50002C013D01B394C80ED91EEA1EFB1E3E85F2
:104B6000332389F042E04B1570F4C418D508E608E9
:104B7000F7088A859B85AC85BD85C81AD90AEA0ADB
:104B8000FB0ABA94BA942B2D30E050E040E0C70104
:104B9000B6010E940978D8012D933D934D935C9303
:104BA00013978394B2CF692D70E0835D9B4CAB016A
:104BB0005595479590FC02C0415051090E947E16C0
:104BC000000F111F000F111FF801E35DFC4C608303
:104BD000718382839383A39466CF2C013D014A861F
:104BE0005B866C867D86B6CF81E0820F80939F3294
:104BF00090919C32891708F4CACC10929F328CE0B5
:104C000090E09CCC1091530880919D32181738F099
:104C1000E1E0E00FE09351088AE090E0B2CDE12EB0
:104C2000F12CF701E750FD4C8081882309F4D9CE9F
:104C30008AE093E30E944B1F882309F4E9CC19868C
:104C4000AE01475F5F4FBE016F5F7F4FC701885561
:104C50009D4C0E948721811103C0298527FF07C031
:104C600084E193E30E944B1F8111BBCED1CCF701AD
:104C700084E0EE0FFF1F8A95E1F7E00FF11DEE0FC4
:104C8000FF1FEE0FFF1FE35DFB4C422F4C7050E007
:104C90005595479589E090E0841B950B2370821B06
:104CA000910949815A816B817C8104C0440F551F51
:104CB000661F771F8A95D2F740835183628373837F
:104CC00090CE0E949D1D80911E0190911F01A09188
:104CD0002001B0912101892B8A2B8B2B29F060E0D8
:104CE00080919E320E9427098DE090E027CCCF93DF
:104CF000C82F8091283380620E947E066C2F85E742
:104D000092E30E94361C85E792E30E946A1C809120
:104D1000283361E080620E94291B109274088093FE
:104D2000750881110E94A206CF910895EF92FF921B
:104D30001F93CF93DF931F92CDB7DEB7FC01218D78
:104D4000328D8FEF9FEF232BE9F0108D80E590E0FF
:104D50000E94BB0768E270E0812F0E949F0CE82E42
:104D600069E270E0812F0E949F0C282F3E2DB9012F
:104D700021E030E0AE014F5F5F4F812F0E94900A2B
:104D8000898190E00F90DF91CF911F91FF90EF907C
:104D900008950E960C949626CF92DF92EF92FF9292
:104DA0000F931F93CF93DF937C01EB0180913A32F5
:104DB00090913B326817790788F0C81BD90BEC0E2D
:104DC000FD1E209136323091373230933D322093A0
:104DD0003C3210923F3210923E32EC0180913C32D4
:104DE00090913D320091383210913932081B190BE5
:104DF0006801C017D10708F46E01A601B7010E942F
:104E0000AB788091363290913732C017D10730F4A9
:104E100080913C3290913D328C0D9D1D90933D329E
:104E200080933C320C171D07C0F4CE01801B910B00
:104E30008C01B7016C0D7D1DAC0180913C329091CD
:104E40003D320E94AB7840913C3250913D32400F50
:104E5000511F50933D3240933C3220913A32309171
:104E60003B3280913E3290913F32A901481B590B51
:104E7000C417D50768F030933F3220933E32DF915C
:104E8000CF911F910F91FF90EF90DF90CF900895F9
:104E9000C80FD91FD0933F32C0933E32F0CFDC0110
:104EA0008DE992E08D939D9384E0FB0101900D923A
:104EB0008A95E1F708958F929F92AF92BF92CF9219
:104EC000DF92EF92FF920F931F93CF93DF93EC014A
:104ED0007B01088519854017510708F48A01CC2405
:104EE000DD24C01AD10AE114F10481F06E817F81C2
:104EF000888199815B01A81AB90A0A151B0558F522
:104F00006C0D7D1DA801C7010E94AB788E819F8129
:104F10008C0D9D1D9F838E83288139818217930775
:104F200030F42C813D81820F931F9F838E8388856F
:104F30009985801B910B99878887C801DF91CF9154
:104F40001F910F91FF90EF90DF90CF90BF90AF90A7
:104F50009F908F90089548018A189B086A817B81F1
:104F600068197909A401C7010E94AB786881798129
:104F7000A501C701880D991DC7CF0F931F93CF932C
:104F8000DF93CDB7DEB72C970FB6F894DEBF0FBE18
:104F9000CDBF8C018AE0E6E3F2E3DE0111960190D9
:104FA0000D928A95E1F742E050E0BE01655F7F4FC8
:104FB000CE0101960E945B270297B9F42B853C85B0
:104FC0002E5F3F4F81E0F80140855185421753071E
:104FD00008F080E02C960FB6F894DEBF0FBECDBF70
:104FE000DF91CF911F910F91089581E0F3CFBF9290
:104FF000CF92DF92EF92FF920F931F93CF93DF93A5
:10500000CDB7DEB728970FB6F894DEBF0FBECDBF81
:105010008C01D8015996CD90DC905A97C114D104D7
:1050200041F0ED91FC910284F385E02DC8010995D2
:10503000F0CFF801B08C80E590E00E94BB078B2D8B
:105040000E94280D7C01892B21F08B2D0E94280DB8
:105050006C01EC14FD0499F790E080E01E141F042D
:105060005CF548E050E0BE016F5F7F4FD801589675
:105070008C910E944E0D18161906F4F4D801509622
:1050800084E0FE01319601900D928A95E1F78D81C1
:1050900090E0982F88272E81820F911DF801958B23
:1050A000848B8F81282F30E0322F22278885820F32
:1050B000932F911D928F818F28960FB6F894DEBFA3
:1050C0000FBECDBFDF91CF911F910F91FF90EF9059
:1050D000DF90CF90BF9008950E960C94F7274F92D3
:1050E0005F926F927F928F929F92AF92BF92CF9278
:1050F000DF92EF92FF920F931F93CF93DF93CDB781
:10510000DEB763970FB6F894DEBF0FBECDBF7C014C
:105110006B013A01FB0120E090E080E06AE0319110
:10512000332309F461C040ED430F4A3008F04DC00D
:10513000689FA001699F500D1124CA01C097830F79
:10514000911D37FD9A958F3F910549F340F3F70183
:1051500042815381648175818091280D9091290D40
:10516000A0912A0DB0912B0D481759076A077B07AC
:1051700009F42BC28701085F1F4F0E94320A6F702B
:1051800077277C5FC8010E94560F813009F022C248
:105190008DE992E09A838983F70182819381A481CA
:1051A000B5818B839C83AD83BE8345E350E0BE0114
:1051B0006F5F7F4FC8010E94330C892BA9F5D12C5A
:1051C000C12CC8010E941B0D17C03E3209F0BFCF91
:1051D000233009F4BCCFD301A20FB11D12968C93DA
:1051E0002F5F90E080E09BCF233009F0B0CFF30138
:1051F0008583CC24C394D12CC60163960FB6F89452
:10520000DEBF0FBECDBFDF91CF911F910F91FF90F9
:10521000EF90DF90CF90BF90AF909F908F907F9056
:105220006F905F904F9008950E94320AF701778344
:1052300066837627672776277A83698342E050E082
:10524000BE016F5F7F4FC8010E94890E81E090E030
:105250009E878D8742E050E0BE01635F7F4FC801AB
:105260000E94890E80E091E09E878D8742E050E0A9
:10527000BE01635F7F4FC8010E94890E1E861D8696
:1052800042E050E0BE01635F7F4FC8010E94890E7B
:1052900042E050E0BE01635F7F4FC8010E94890E6B
:1052A00042E050E0BE01635F7F4FC8010E94890E5B
:1052B0005601F6018081882301F16501F601819193
:1052C0002F01882311F08E32B1F446018A189B0811
:1052D0001814190474F48F8641E050E0BE01615F38
:1052E0007F4FC8010E94890EA401B501C8010E9428
:1052F000890E5201DECF6201E1CF1F8641E050E00E
:10530000BE01615F7F4FC8010E94890EC12CDD2460
:10531000D394DE86CD8642E050E0BE01635F7F4FCE
:10532000C8010E94890EDE86CD8642E050E0BE01B3
:10533000635F7F4FC8010E94890EC8010E94210F40
:10534000892B09F43CCFF3E0AF2EB12C230122E0EE
:10535000420E511CECC0F70142815381648175817A
:10536000808D918DA28DB38D481759076A077B07F1
:1053700009F021C1848D958DC59709F01CC181A1CB
:1053800092A15DEFC52EDD24DA940C970CF4C5C014
:105390004CE050E0BE016F5F7F4FC8010E94BB0D23
:1053A0008B819C819827892798279A8B898B2981C3
:1053B0003A81322723273227F70146815781421746
:1053C000530709F0FDC097FFFBC08F7092703BEF51
:1053D000C32EDD24DA94892B09F09FC06F80788476
:1053E0007624672476242AEFC22EDD24DA94611411
:1053F000710409F492C0D12CC12C8D819E81982713
:1054000089279827C816D90640F541E050E0BE012B
:10541000635F7F4FC8010E94BB0D8D85882351F0CB
:105420008D859FEF980F9D87882321F0C8010E94EA
:10543000DA0DF6CF8D858111E8CFC8010E94DA0D13
:10544000C8010E94DA0DC8010E94DA0DC8010E944D
:10545000DA0DFFEFCF1ADF0AD0CF912C812C41E07B
:1054600050E0BE016D5E7F4FC8010E94BB0D8B896D
:10547000982F907C61F4882389F08B899FEF980F97
:105480009B8B882341F0C8010E94DA0DF6CFC8013A
:105490000E94DA0D1B8A8B898111E1CF42E050E036
:1054A000BE01615F7F4FC8010E94BB0D42E050E02A
:1054B000BE01635F7F4FC8010E94BB0DC8010E94FF
:1054C000DA0DC8010E94DA0DC8010E94DA0DC80188
:1054D0000E94DA0D42E050E0BE016F5E7F4FC801CE
:1054E0000E94BB0D8F8598898115914009F03DC0C0
:1054F000CD84DE84DC24CD24DC2481E0C816D104F4
:10550000A1F589899A898115944009F04BC044E03E
:1055100050E0B201C8010E94BB0D81E0A81AB10899
:1055200009F44FCEFFEFCF16DF0609F04ACE0E94F6
:10553000320A3B014C01C8010E94F72718161906D0
:105540000CF409CFA8950E94320A661977098809D8
:105550009909693873418105910548F562E370E066
:1055600080E090E00E94FF09E6CFD12CC12C898910
:105570009A89982789279827C816D90638F4C80128
:105580000E94DA0DFFEFCF1ADF0AF1CF2FEF821A58
:10559000920A6814790409F062CF96EFC92EDD24CF
:1055A000DA94BBCFE7EFCE2EDD24DA94B6CFCC244D
:1055B000CA94DC2CB2CF6EEFC62EDD24DA94ADCFC8
:1055C0004CEFC42EDD24DA94A8CF8EEFC82EDD2454
:1055D000DA9412CED12CC12C0FCECF92DF92EF9263
:1055E000FF920F931F93CF93DF93CDB7DEB7AF97A3
:1055F0000FB6F894DEBF0FBECDBF7C016A010DE986
:1056000012E01A8309831C861B8688EE93E0A0E0D3
:10561000B0E08D879E87AF87B88B83E592E09A874D
:105620008987188F0F8B198E1A8E1B8E1C8E84E023
:1056300089A31BA70AA71CA61DA61EA61FA68091AC
:10564000080D9091090DA0910A0DB0910B0D8EA33C
:105650009FA3A8A7B9A78B839C83AD83BE8318861D
:105660001F82AE01465D5F4FCE0101960E946F28FA
:1056700081309105B1F4D701ED91FC910488F58951
:10568000E02D1DA30CA38CA59DA5AEA5BFA58EA343
:105690009FA3A8A7B9A7A601BE016C5D7F4FC70154
:1056A0000995AF960FB6F894DEBF0FBECDBFDF9160
:1056B000CF911F910F91FF90EF90DF90CF900895C1
:1056C000FB0101900020E9F73197AF01461B570B12
:1056D000DC01ED91FC910280F381E02D09948F9221
:1056E0009F92AF92BF92EF92FF920F931F93CF932F
:1056F000DF93CDB7DEB7A1970FB6F894DEBF0FBE2C
:10570000CDBF7C01FA01CB0119A2223008F42AE0B6
:105710008E010F5D1F4F822E912CB12CA12CBF0149
:10572000A50194010E94E777F901CA016A300CF5DE
:10573000605DD8016E938D01232B242B252B79F7E7
:1057400090E080E0109721F0BD01C7010E94602B1E
:10575000A1960FB6F894DEBF0FBECDBFDF91CF91FB
:105760001F910F91FF90EF90BF90AF909F908F90FF
:105770000895695CDECFAB0170E060E02AE00C9434
:105780006F2BCF92DF92EF92FF920F931F93CF93E5
:10579000DF932115310581F4DC01ED91FC9101903D
:1057A000F081E02D642FDF91CF911F910F91FF9039
:1057B000EF90DF90CF9009942A30310501F52AE06F
:1057C00077FF1DC06A017B01EC016DE20E94ED07CD
:1057D0008C0144275527BA014C195D096E097F09D0
:1057E0002AE0CE010E946F2B800F911FDF91CF9195
:1057F0001F910F91FF90EF90DF90CF900895DF9170
:10580000CF911F910F91FF90EF90DF90CF900C946C
:105810006F2BAB01770F660B770B2AE030E00C940F
:10582000C12BCF93DF93EC01FB01248135814081B3
:105830005181628173810E94C12BCE01DF91CF9192
:105840000895242F462F50E070E060E00C946F2BF9
:105850008F929F92AF92BF92CF92DF92EF92FF9280
:105860000F931F93CF93DF937C018B014C0182E058
:10587000880E911C5701E5E0AE0EB11CD0E0C0E0EF
:10588000F40161914F014AE050E0C8010E94212CCF
:105890006C016EE2C8010E94ED078C0D9D1DC80FC2
:1058A000D91F8A149B0461F74AE050E0F701658133
:1058B000C8010E94212C8C0F9D1FDF91CF911F9159
:1058C0000F91FF90EF90DF90CF90BF90AF909F909F
:1058D0008F90089563EE7AE00C94282C6FE972E0C3
:1058E0000C94602BEF92FF920F931F93CF93DF9353
:1058F00000D0CDB7DEB77B01FC0120812D33D9F478
:105900008C010F5F1F4F50E040E0BE016F5F7F4F83
:10591000C8010E943E736F3F71058105910509F032
:1059200050F4E981FA81E017F10729F02081211173
:1059300002C0609316016FE779E0C7010E94F40787
:105940004AE050E060911601C7010E94212CC70176
:105950000E946E2C81E00F900F90DF91CF911F91EC
:105960000F91FF90EF900895CF92DF92EF92FF9208
:105970000F931F93CF93DF93CDB7DEB72A970FB660
:10598000F894DEBF0FBECDBF8B01FC0120812D330B
:1059900009F059C07C01FFEFEF1AFF0A50E040E028
:1059A000BE01675F7F4FC7010E943E731616170640
:1059B000180619060CF047C0E985FA85EE15FF05B3
:1059C00009F441C0208121113EC06B017C0134E00B
:1059D000F594E794D794C7943A95D1F72FE0D22263
:1059E000EE24FF24C982DA82EB82FC824BE0660F50
:1059F000771F881F991F4A95D1F7662778778827E0
:105A000099276D837E838F839887CE0101960E94AC
:105A1000BE1360EE7DE0CE0101960E9469138111F4
:105A200012C0BE016F5F7F4F88ED9DE00E94691339
:105A3000811109C088E0FE013196A8EEBDE0019019
:105A40000D928A95E1F760EC79E0C8010E94F407B5
:105A50004091E80D5091E90D6091EA0D7091EB0DC8
:105A600084E0440F551F661F771F8A95D1F78091F8
:105A7000EC0D9091ED0DA091EE0DB091EF0D2BE09E
:105A8000B595A795979587952A95D1F7480F591FF2
:105A90006A1F7B1F2AE030E0C8010E94C12BC801A9
:105AA0000E946E2C81E02A960FB6F894DEBF0FBEDE
:105AB000CDBFDF91CF911F910F91FF90EF90DF90BD
:105AC000CF9008950F931F93CF93DF93EC010E9423
:105AD000092C8C01CE010E946E2C800F911FDF914A
