:100000000C94EE050C9405520C94DA510C94AF51FB
:100010000C9418060C9418060C9418060C941806E8
:100020000C9418060C94BE600C9494600C94E860D8
:100030000C9418060C9418060C9418060C941806C8
:100040000C9418060C9418060C9465510C94180620
:100050000C943F540C9415540C9418060C941806E8
:100060000C9418060C9418060C94453F0C94180632
:100070000C94DF530C94B5530C9418060C9418068A
:100080000C9418060C9418060C941806CF2ED22E39
:10009000C52EC92EE92EE92ED62EDA2EE02EE42E1C
:1000A000402F802F9F2FE62FFE2F27303330A73190
:1000B0005B429B479B475042D6429B47DD429B4752
:1000C0004043584566459645C24500002000230040
:1000D000260029005061636B65742076616C696449
:1000E0002062757420696E636F727265637420722A
:1000F0006573706F6E7365002323232323232323EB
:1001000023232323232323232323232323230054B1
:100110006F6F206D616E7920726574726965733AD4
:1001200020003D3D3D3D0A003D3D3D3D0A52657389
:10013000706F6E73653A0A006D61696E7461696E05
:100140002072657475726E65642000726562696EF6
:10015000640072656E65776564006661696C6564EC
:10016000006F6B0044484350206C6561736520004C
:100170004157414B45210A00534C454550210A0047
:100180007320776974686F7574206D65736720617B
:10019000636B2C207265626F6F74696E670A00472B
:1001A0006F6E65200053657420485720636C6F6341
:1001B0006B00454550524F4D20636F6E74656E74F1
:1001C00073206C656E6774683A20004865616465E9
:1001D00072206C656E6774683A20000A537461740B
:1001E00075733A20000A506F736974696F6E3A2014
:1001F000004669782074696D653A2000474E535374
:100200002076616C69643A200055736520474E532F
:10021000533A20005D3A20004D61672064617461AB
:100220005B000A416D6269656E743A200048756D25
:1002300069646974793A2000537570706C7920761E
:100240006F6C746167653A20000A4D6167207465C0
:100250006D702E3A200053797374656D2074656D4E
:10026000702E3A200054696D657374616D703A2088
:1002700000474E53532073746174653A20002D2D4E
:100280000A53616D706C696E672073746172746576
:10029000642C20726561736F6E3A200054696D653D
:1002A000206572726F7220286F75722D474E5353FE
:1002B000293A2000474E535320636C6F636B2076BE
:1002C000616C69643A200050434638353236330059
:1002D0004D4350373934317800445331333037008F
:1002E000756E6B6E6F776E2052544300D902D00248
:1002F000C7024163746976652073657474696E67BB
:10030000733A0A004E6F2072656D6F746520686FD6
:1003100073742C20747279696E6720666F72203155
:1003200032307320746F20636F6D6D756E69636119
:10033000746520746F200043616E6E6F7420726567
:10034000736F6C76652000207265736F6C766573D1
:1003500020746F20004C6F6F6B696E672075702082
:1003600000646F6E650044484350206661696C65A7
:10037000640052657175657374696E672049502E0B
:100380002E2E20005573696E672073746174696343
:100390002049500A00202052656D6F746520686FF7
:1003A00073746E616D653A2000454550524F4D2083
:1003B00073657474696E67733A0A20204D41433A3D
:1003C0002000536574757020646F6E65005365740A
:1003D00074696E672073616D706C652074696D65FA
:1003E0007273004672657175656E63793A203132B9
:1003F0004D487A0041637475616C204D43553A2035
:1004000000546172676574204D43553A2061746DE4
:10041000656761313238347000436F6E66696775A5
:10042000726174696F6E20636F6D706C65746500C6
:1004300053616D706C696E6720696E746572766168
:100440006C202873293A2000436F756C64206E6F0E
:1004500074206765742074696D652066726F6D2005
:100460006861726477617265205254430A0053795F
:100470007374656D20636C6F636B207365742066A5
:10048000726F6D20686172647761726520525443A7
:100490000A0053797374656D20636C6F636B3A2047
:1004A00000436F6E6669677572696E672073797352
:1004B00074656D20636C6F636B0A00525443206354
:1004C000616C6962726174696F6E3A20004E6F20D0
:1004D00052544320666F756E640A00206174206177
:1004E00064647265737320307800466F756E6420A3
:1004F000004175746F70726F62696E6720666F720B
:10050000200024504F525A412C312C25642C3100AC
:1005100020746F20004368616E67696E6720474EE4
:100520005353206261756420726174652066726F36
:100530006D2000484948363178780020706F776523
:10054000722D75702064656C617920286D73293A6D
:1005500020002070726573656E7400206E6F7400E9
:100560006D65616E0A006D656469616E0A00747282
:10057000696D6D656420000A616767726567617403
:10058000653A20006E756D53616D706C65733A202D
:1005900000206D697373696E670A0020707265735D
:1005A000656E740A002063682E20005D3A204F7843
:1005B000004144435B00206661696C656420746F90
:1005C00020696E697469616C6973650A004D6167C1
:1005D00000496E697469616C6973696E67200048CF
:1005E0004D4143206B65793A200053697465204979
:1005F000443A200046616E20687973742E3A2000D8
:1006000046616E2074656D702E3A200046656174F7
:10061000757265733A20484F5553454B45455049CF
:100620004E4720464C4331303020484948363158F7
:100630005828576972652920474E53532044415426
:10064000415F5155414C49545900436F6D6D733AA8
:10065000205735353030287764745F726573657460
:1006600029000A4D435520636C6F636B3A20313289
:100670004D487A0A4669726D776172653A2052690F
:100680006F4C6F672D312E31610A45706F63683A88
:1006900020323031380A000A4D435553523A200077
:1006A0000A434B53454C3A20000A5243206F736370
:1006B0002E3A20000A457874656E6465642066757C
:1006C00073653A20000A4869676820667573653A61
:1006D00020000A4C6F7720667573653A20000A5334
:1006E00069676E61747572653A20000A41637475BA
:1006F000616C204D43553A200061746D656761312E
:10070000323834700061746D65676131323834009D
:1007100061746D656761363434700061746D65674E
:1007200061363434000A0A2D2D2D2D2D2D2D2D0A44
:10073000546172676574204D43553A2061746D654C
:100740006761313238347000000022002500280033
:100750002B00000000000000000108030200090A4D
:10076000000000000000000004070000000000007E
:10077000000000002100240027002A0001020408D4
:10078000010204084020102040808040201008040E
:1007900002011080804020100804020104040404B7
:1007A000020202020404020202020303030303031F
:1007B000030304040101010101010101556E6B6E87
:1007C0006F776E20636F6D6D616E643A20005072BA
:1007D0006576696F757320636F6D6D616E642077E8
:1007E000617320746F6F206C6F6E6720666F72206C
:1007F0006275666665720A00556E6B6E6F776E2065
:100800004E4D45412073656E74656E63653A2000F8
:10081000426164204E4D454120636865636B73758A
:100820006D3A2000496E7374616C6C2046572072DB
:100830006573756C743A20000A43524320737461E7
:100840007475733A20000A446F776E6C6F61642090
:100850004352433A20004669726D776172652043C6
:1008600052433A2000636F7069656420706172744E
:1008700069616C2073706D42756666657220746F75
:1008800020666C6173683A200020636F6D706C6540
:100890007465640A004669726D7761726520646FE1
:1008A000776E6C6F616420666F722000636F706991
:1008B00065642073706D42756666657220746F2082
:1008C000666C6173683A20004572617365642074D8
:1008D000656D706F72617279206170706C696361AF
:1008E00074696F6E206172656120696E20666C614B
:1008F0007368200050726F63657373696E6720467A
:100900005720757067726164652000557067726169
:100910006465206669726D7761726520746F20006E
:10092000416C7265616479206861766520666972E0
:100930006D776172652076657273696F6E20005203
:1009400065636569766564207570677261646520AA
:100950006669726D77617265207461673A20005232
:1009600065626F6F7420636F6D6D616E6420726578
:100970006365697665642066726F6D207365727653
:1009800065720A0053414D504C494E4720494E5420
:10099000455256414C204348414E47454421200092
:1009A0000A54696D65206572726F7220286F7572C6
:1009B0002D736572766572293A20000A4F75722090
:1009C00074696D653A2000536572766572207469AA
:1009D0006D653A200054696D6520736574206672F8
:1009E0006F6D207365727665720A003A2030780068
:1009F000307800454550524F4D2076616C756573D7
:100A00003A0A000A202052656D6F74653A2000286A
:100A10006E6F6E6529000A2020444E533A20000A6A
:100A2000202047573A20000A20204D61736B3A205E
:100A30000020204C6F63616C3A200078A46AD7567E
:100A4000B7C7E8DB702024EECEBDC1AF0F7CF52A1E
:100A5000C68747134630A8019546FDD8988069AFF0
:100A6000F7448BB15BFFFFBED75C892211906B937B
:100A70007198FD8E4379A62108B44962251EF6407F
:100A8000B340C0515A5E26AAC7B6E95D102FD653AF
:100A900014440281E6A1D8C8FBD3E7E6CDE121D614
:100AA0000737C3870DD5F4ED145A4505E9E3A9F8D6
:100AB000A3EFFCD9026F678A4C2A8D4239FAFF8175
:100AC000F6718722619D6D0C38E5FD44EABEA4A94C
:100AD000CFDE4B604BBBF670BCBFBEC67E9B28FA18
:100AE00027A1EA8530EFD4051D880439D0D4D9E593
:100AF00099DBE6F87CA21F6556ACC4442229F49722
:100B0000FF2A43A72394AB39A093FCC3595B65929A
:100B1000CC0C8F7DF4EFFFD15D84854F7EA86FE014
:100B2000E62CFE144301A3A111084E827E53F73533
:100B3000F23ABDBBD2D72A91D386EB4552524F52DF
:100B40003A206261642076616C75657320666F720D
:100B500020656570726F6D52656164004552524F39
:100B6000523A206261642076616C75657320666F0D
:100B70007220656570726F6D577269746500766575
:100B800072626F736974793A20005265626F6F7494
:100B900020636F6D6D616E64207265636569766553
:100BA000642066726F6D20636F6E736F6C650A00F0
:100BB0005265626F6F74696E67202E2E2E0A007365
:100BC000616D706C696E67496E74657276616C5F99
:100BD000313674685F733A2000002A6711241FBE03
:100BE000CFEFD0E4DEBFCDBF14E0A0E0B1E0E4EB96
:100BF000F3EE00E00BBF02C007900D92AE30B107DC
:100C0000D9F72EE2AEE0B4E001C01D92A83DB207D4
:100C1000E1F715E0CEEED5E004C02197FE010E9479
:100C20006671CD3ED107C9F70E94D1660C94D87188
:100C30000C9400004F925F926F927F928F929F92DE
:100C4000AF92BF92CF92DF92EF92FF920F931F93DA
:100C5000CF93DF93CDB7DEB7C855D2400FB6F89427
:100C6000DEBF0FBECDBF809135048823B9F08FB7AA
:100C7000F8940091C1098FBF64EB72E085E199E0BF
:100C80000E947353602F70E085E199E00E948C49C7
:100C900085E199E00E94A8521092350401E088E7AE
:100CA00098E00E94BA4F7C01892B09F453C088E771
:100CB00098E00E94984F2091DE093091DF09232BA4
:100CC00071F39091DD09992351F3E091E009F091DE
:100CD000E109882321F08A3011F08D3009F5108266
:100CE0008091DE099091DF099093E1098093E009FA
:100CF000DC012C91243209F063C0BE016F5F7F4F8D
:100D00000E948D38FC0180818A3209F059C091819E
:100D10008981981355C092818A81981351C069C006
:100D200080832091E0093091E1098091DD0990E014
:100D300001974091DE095091DF09840F951F281714
:100D4000390708F0ACCF2F5F3F4F3093E109209374
:100D5000E009A5CFC0901501A895609034046620E5
:100D6000A9F0109234048FB7F8949091C109992397
:100D700051F08090D7099090D809A090D909B090EF
:100D8000DA0901E001C000E08FBF01C000E070900F
:100D90001401772009F41BC280913304882309F4DD
:100DA00016C280917A0A90917B0AA0917C0AB09138
:100DB0007D0A892B8A2B8B2B11F40C94C20F07C24E
:100DC000E0910A0AF0910B0A309759F0A091DE09E0
:100DD000B091DF098C91882309F461CF8DED99E002
:100DE0000995E091DE09F091DF0980818111DDC173
:100DF00056CF8091DE099091DF09DC0111962C918C
:100E0000273441F4FC0122812093E20963EE79E06A
:100E1000039605C01092E20963EE79E001960E9404
:100E20004D2E7C0165EB72E083EE99E00E94BA7171
:100E3000892B09F0C6C0CE5ADD4FF982E882C2552F
:100E4000D2408091E2098093E909C7010E94942E63
:100E5000CE5ADD4F99838883C255D240AE014E5A97
:100E60005D4F62E00E94CB396093EB097093EC090F
:100E70008093ED099093EE09CE5ADD4FE881F98118
:100E8000C255D24020812C3219F4CF01019615C0F1
:100E9000233589F46B017C0144275527BA014C198D
:100EA0005D096E097F094093EB095093EC0960934B
:100EB000ED097093EE09CF010296CE5ADD4F99836A
:100EC0008883C255D240AE014E5A5D4F63E0CE5A80
:100ED000DD4F88819981C255D2400E94CB39609301
:100EE000EF097093F0098093F1099093F209CE5ABB
:100EF000DD4FE881F981C255D24020812C3219F4AE
:100F0000CF01019615C0273589F46B017C01442778
:100F10005527BA014C195D096E097F094093EF0905
:100F20005093F0096093F1097093F209CF01029692
:100F3000CE5ADD4F99838883C255D240CE5ADD4FB9
:100F4000E881F981C255D2402081215331E022301D
:100F500008F030E03093EA09CF010296CE5ADD4F17
:100F600099838883C255D240AE014E5A5D4F60E0EE
:100F70000E94FB386093080AAE014E5A5D4F61E053
:100F8000CE5ADD4F88819981C255D2400E94FB38EC
:100F90006093090AAE014E5A5D4F63E0CE5ADD4FB1
:100FA00088819981C255D2400E94FB386093F30931
:100FB0007093F4098093F5099093F6090093F7096B
:100FC000F4C069EB72E083EE99E00E94BA71892B5C
:100FD00009F0E3C0C05BDD4FF982E882C055D24022
:100FE0008091E2098093E909C7010E94942EC05BB9
:100FF000DD4F99838883C055D24021E0DC013C91CC
:10100000313409F020E02093EA090296C05BDD4FFD
:1010100099838883C055D240AE01405B5D4F62E04A
:101020000E94CB396093EB097093EC098093ED0932
:101030009093EE09C05BDD4FE881F981C055D24045
:1010400020812C3219F4CF01019615C0233589F483
:101050006B017C0144275527BA014C195D096E09C3
:101060007F094093EB095093EC096093ED0970936D
:10107000EE09CF010296C05BDD4F99838883C0558E
:10108000D240AE01405B5D4F63E0C05BDD4F8881C5
:101090009981C055D2400E94CB396093EF0970937B
:1010A000F0098093F1099093F209C05BDD4FE8816C
:1010B000F981C055D24020812C3219F4CF0101961C
:1010C00015C0273589F46B017C0144275527BA01E7
:1010D0004C195D096E097F094093EF095093F0099F
:1010E0006093F1097093F209CF010296C05BDD4F66
:1010F00099838883C055D240AE01405B5D4F63E069
:10110000C05BDD4F88819981C055D2400E94FB3879
:101110006093F8097093F9098093FA099093FB0999
:10112000AE01405B5D4F63E0C05BDD4F888199811C
:10113000C055D2400E94FB386093FC097093FD09B2
:101140008093FE099093FF09C05BDD4FE880F98032
:10115000C055D240D7018C918C3211F4C7011AC00E
:1011600062E0C7010E94B2388093030A62E0C701BF
:1011700002960E94B2388093020A62E0C701049688
:101180000E94B2388053984F9093010A8093000ACE
:10119000C70106960E94D73808C0E0910C0AF0916A
:1011A0000D0A309709F01ACE1CCE809121018C30A7
:1011B00009F075CD6091DE097091DF0985E199E054
:1011C0000E94715385E199E00E94A85268CDCC201D
:1011D00009F4EAC68EE59AE00E94E34C12E0DD24B1
:1011E000D39480913204811107C0662009F4FEC0B7
:1011F000772009F4FBC009C0662009F43EC77720B8
:1012000009F43BC714E0DD24D394002309F4EEC0B5
:10121000CE5DDD4F188219821A821B82C252D240E3
:10122000CA5DDD4F188219821A821B82C652D240D3
:10123000CE018E5D9D4F0E94E34CCD5EDD4F8882D6
:101240009982AA82BB82C351D240C95EDD4F188207
:1012500019821A821B82C751D240CE018D5E9D4FEA
:101260000E94DD5FCE5DDD4F88819981AA81BB81BF
:10127000C252D240CF5FDD4F88839983AA83BB835C
:10128000C150D240CA5DDD4F88819981AA81BB815E
:10129000C652D240CB5FDD4F88839983AA83BB833C
:1012A000C550D240BE016D5E7D4FCE018F5F9D4F18
:1012B0000E940C4FCB5FDD4F88819981AA81BB8151
:1012C000C550D240B7FF07C0B095A09590958195C5
:1012D0009F4FAF4FBF4FCF5FDD4F488159816A812C
:1012E0007B81C150D24077FF07C0709560955095C3
:1012F00041955F4F6F4F7F4F49835A836B837C8348
:101300008D839E83AF83B887CE0101960E94DD5FF7
:10131000CE018D5E9D4F0E94804EBE016F5F7F4F5C
:1013200086E79AE00E94875F882361F1CD5EDD4FFA
:1013300088819981AA81BB81C351D240C65DDD4FAE
:1013400088839983AA83BB83CA52D240C95EDD4F8A
:1013500088819981AA81BB81C751D240C25DDD4F8E
:1013600088839983AA83BB83CE52D24066E77AE012
:10137000CE01865D9D4F0E946560CE01865D9D4FCA
:101380000E943F4D80912101823080F1CB5FDD4F83
:1013900088809980AA80BB80C550D240CF5FDD4F46
:1013A000488059806A807B80C150D2406CE972E0ED
:1013B00085E199E00E9473532AE030E0B301A20175
:1013C00085E199E00E94E7526DEB72E085E199E0DA
:1013D0000E9471532AE030E0B501A40185E199E053
:1013E0000E94E75285E199E00E94A852DD2009F4AD
:1013F00008C18091220B882351F08091230B90919A
:10140000240B009709F43BC6099709F438C680916C
:101410000E0B90910F0B009711F00597A9F4809196
:101420000D0B8F3F59F061E00E94EA2E4BE450E033
:1014300060E070E088E19BE00E943D4881E090E040
:1014400090930F0B80930E0B8091130A9091140AC6
:10145000009719F00797C9F412C08091170A8F3FBF
:1014600071F061E00E94EA2E45E050E060E070E03B
:101470008EE19AE00E943D4881E090E002C082E067
:1014800090E09093140A8093130A109213012FB7DF
:10149000F8944091DA055091DB056091DC0570917C
:1014A000DD05CB5ADD4F488359836A837B83C5555D
:1014B000D2408091D6059091D705A091D805B091E2
:1014C000D9057091C109711102C080E055C04091E9
:1014D000D7095091D8096091D9097091DA094090E3
:1014E000C2095090C3096090C4097090C5098090EA
:1014F000C6099090C709A090C809B090C909009189
:10150000CE093091CE09332341F08091CA099091E0
:10151000CB09A091CC09B091CD09F091C009E0911F
:10152000DB093091DC094093DA055093DB056093C9
:10153000DC057093DD054092CE055092CF05609298
:10154000D0057092D1058092D2059092D305A092D9
:10155000D405B092D5050093CD058093D605909320
:10156000D705A093D805B093D905F093CC05E093A7
:10157000CB053093CA0581E02FBF8093C9058091C8
:10158000DA059091DB05A091DC05B091DD050197AE
:10159000A109B1098093DA059093DB05A093DC05DE
:1015A000B093DD051092C80580912101882389F050
:1015B0006EE772E085E199E00E9473534AE050E0E3
:1015C000612F85E199E00E94BE5285E199E00E9479
:1015D000A8528FB7F89400913004109131048FBF56
:1015E00061E772E085E199E00E9473534AE050E0C0
:1015F000602F85E199E00E94BE5285E199E00E944A
:10160000A852CC2021F0109215010E94B44780917D
:10161000220B81110E94192F8091FF0A882309F45F
:10162000E3C080910E0B90910F0B8230910591F1E8
:1016300018F4019741F0D8C083309105A9F10497BF
:1016400009F4C5C0D1C088E19BE00E94FE47882311
:1016500009F4CAC067E28091100B9091110B0E94AF
:10166000D3408091100B9091110B0E947740082F6E
:1016700010E00115110519F060EC72E025C04DE293
:1016800050E060E070E088E19BE00E943D4882E02D
:1016900090E0A6C088E19BE00E94FE47882309F401
:1016A000A3C083E090E09CC044E060910C0B80916B
:1016B000100B9091110B0E94DD40082F10E00430B8
:1016C000110549F169ED72E085E199E00E947153DD
:1016D000B80185E199E00E94944980910D0B8F3FFC
:1016E00019F060E00E94EA2E85E090E090930F0BE5
:1016F00080930E0B2FEF3FE73093130B2093120BC9
:101700002FEF3FEF3093150B2093140B9093170B93
:101710008093160B69C08E010F5F1F4F6E0155E05D
:10172000C50ED11C8091100B9091110BDC01ED9135
:10173000FC910284F385E02D0995F80181938F01D6
:10174000EC15FD0579F72981822F90E006E095954B
:1017500087950A95E1F79093170B8093160B2F73DB
:1017600030E0322F22278A81282B0B81F0E40F9F53
:10177000A00111248C81082F10E01695079516956D
:101780000795042B152BA0E1B7E20E9423712EEFE1
:10179000822E2FE3922EA12CB12CA50194010E9440
:1017A000F1703093150B2093140B9801A4E7B0E46B
:1017B0000E942371A50194010E94F170205A3F40BC
:1017C0003093130B2093120B84E090E009C08091BA
:1017D0000D0B8F3F19F060E00E94EA2E85E090E04B
:1017E00090930F0B80930E0B86E690E00E94A770FB
:1017F0008C01019611F404EE1CE08091130A909183
:10180000140A8330910599F130F48130910561F02B
:101810000297A1F08AC08530910509F456C070F195
:10182000069709F45DC081C08EE19AE00E94FE47F0
:10183000882309F47AC082E090E04DC08091640072
:101840008E7F8093640085E690E00E9499708130DD
:1018500049F028F0823031F0833021F005C0109239
:10186000200102C08093200183E090E034C0809189
:10187000160A0E94DB5084E090E02DC08091160A89
:101880000E94DB502AE030E0DC010E9476719B016F
:10189000AC01D8010E9410717E5F8F4F9F4F2FEFD8
:1018A00033E040E050E00E94F17020573741309320
:1018B0001B0A20931A0A8091180A882319F085E0E0
:1018C00090E009C087E090E006C08091150A0E9470
:1018D000DB5086E090E09093140A8093130A25C0B1
:1018E0008091150A0E94DB50FC012091180A30E01B
:1018F000D8010E9423719B01AC01DF010E941B7182
:101900007E5F8F4F9F4F2FEF33E040E050E00E940B
:10191000CF7030931D0A20931C0A8091190A8111FF
:10192000D1CF1092140A1092130A2091F40A2F3F7B
:1019300009F435C01092320430E0F901EE5AF84F44
:101940008491F901E458F84F0491F901E456F84FF5
:101950001491112399F081110E94BB2EE12FF0E028
:10196000EE0FFF1FE653FF4FA591B491EC910E23AC
:1019700091E080E009F490E0E92EF82E8091F30ADE
:10198000811102C09E2D04C0C70131E08327982F2A
:1019900091708091C805E82EE92AE092C8058091EF
:1019A000AE0A9091AF0A009739F484E090E09093EA
:1019B0009F0A80939E0A82C210929F0A10929E0AEA
:1019C000DC01ED91FC910488F589E02D0995809169
:1019D000AC0A9091AD0A8130910509F448C040F0FD
:1019E0008230910509F458C0039709F4D5C066C246
:1019F00084EC9AE00E94D754811160C2E090A00A62
:101A0000F090A10A0091A20A1091A30A42E050E0CE
:101A1000BE016F5F7F4F84EC9AE00E947D54029775
:101A2000B1F449815A81E416F50638F460E070E0BB
:101A300084EC9AE00E947D540AC0B80184EC9AE0DC
:101A40000E947D5429813A818217930711F020E08A
:101A500030E03093A50A2093A40A232B09F42EC268
:101A60001092A70A1092A60A81E090E010C080911F
:101A7000AE0A9091AF0ADC01ED91FC910684F785E6
:101A8000E02D0995882309F419C282E090E0909333
:101A9000AD0A8093AC0A12C28091A60A9091A70A5F
:101AA000892B81F4809121018A3061F46091A40A2C
:101AB0007091A50A45E159E08091A20A9091A30A8C
:101AC0000E945C3E8091A60A9091A70A892B59F446
:101AD0008091AE0A9091AF0ADC01ED91FC910688ED
:101AE000F789E02D09958091AE0A9091AF0ADC014B
:101AF000ED91FC91028CF38DE02D0995AC01892BC1
:101B000021F44091A40A5091A50A8091AE0A9091C7
:101B1000AF0A6091A20A7091A30A2091A60A30919F
:101B2000A70A620F731FDC01ED91FC910280F38123
:101B3000E02D09952091A60A3091A70A820F931FE4
:101B40009093A70A8093A60A2091A40A3091A50A2F
:101B50008217930709F0B2C18091AE0A9091AF0A43
:101B6000DC01ED91FC91008CF18DE02D0995109236
:101B7000A90A1092A80A40ED57E060E070E080EBFF
:101B80009AE00E943D488FEF9FEF9093AB0A8093BD
:101B9000AA0A83E090E07BCF80EB9AE00E94FE47A8
:101BA000882309F4ABC06EEE72E085E199E00E94F3
:101BB000AC5282E090E090939F0A80939E0A8091BD
:101BC000A40A0091A20A1091A30AFF24F394F982B7
:101BD0001A822091B0063091B1063C832B831D827E
:101BE0001E821F8218861A8619869091AF069B87DF
:101BF0001C861D861F861E868E3078F142E050E0DE
:101C0000B8018DE991E00E948B71892B31F5F801C3
:101C100082818983868190E0982F88272781820F8F
:101C2000911D9C838B83AE01475F5F4FBE016B5F4D
:101C30007F4FC8010E9425481A82D80113968C91C3
:101C400080FF0BC0FA82C8010E94843DF801E80FB2
:101C5000F91F80818B8781818C878C858230C8F5C4
:101C60008F5F8C878091CE0A2091CF0A3091D00A65
:101C70003F872E878D874091A00A5091A10A6091DD
:101C8000A20A7091A30A20E030E0CE0101960E94E2
:101C9000923D1092A50A1092A40A8091A20A9091F6
:101CA000A30AFC01648170E0762F66272581620F0C
:101CB000711DC25BDD4F79836883CE54D2400E9490
:101CC0005F4862E070E0CE01825B9D4F0E945F48FA
:101CD00012C06FE071E085E199E00E94735360915A
:101CE000A00A7091A10A45E159E08091A20A909161
:101CF000A30A0E945C3E84E090E0C9CE8091AE0AC7
:101D00009091AF0ADC01ED91FC91048CF58DE02DF2
:101D100009958091AE0A9091AF0ADC01ED91FC919A
:101D20000084F185E02D09958C01892B09F4C6C04A
:101D30008091A80A9091A90A8039914078F081E0B9
:101D400090E090939F0A80939E0A1092A50A1092A9
:101D5000A40A1092AD0A1092AC0AB0C08091AE0AEB
:101D60009091AF0ADC01ED91FC910284F385E02DA6
:101D700009952091A80A3091A90A6901BFEFCB1AF1
:101D8000DB0AD092A90AC092A80AF901E85CFB4FCD
:101D900080830150110911F710E0E8E3AE2EE4E072
:101DA000BE2E4E01E1E18E0E911CC114D10409F446
:101DB00085C020E0822F90E0A601F3E0CF16D10489
:101DC00010F042E050E084179507B0F4F501E80FF9
:101DD000F91F408150E0FC01E356FE4F8081082E40
:101DE000000C990B4817590711F42F5FE3CF22E03D
:101DF000C216D10480F462C0B2E0CB16D10408F45C
:101E00005DC034E0C316D10408F449C0D50113966F
:101E10008C9180FD07C03FEFA31AB30A41E0C41ABA
:101E2000D108C3CFE6E0CE16D104C8F1F501E480B5
:101E3000F12CFE2CEE248581E80EF11CCE14DF047B
:101E400070F14091CE0AF8E0EF1AF0EEFF0A63E07D
:101E5000EE0CFF1C6A95E1F700E010E028E0429FDD
:101E6000A00111246091CF0A7091D00A9501CE0192
:101E700001960E94823BDE011996F6013897EA0D21
:101E8000FB1D81E03D91219191E0321390E0892387
:101E9000A815B905B9F711E0882309F4BCCF8091E2
:101EA000A80A9091A90AC816D90631F0A601B50171
:101EB00088E394E00E94A1711111F9C085E199E0D5
:101EC0000E94BA4F892BD1F18091E50A9091E60AE0
:101ED000892BA1F18091E70A9091E80A892B71F191
:101EE00085E199E00E94984FE091E50AF091E60AB9
:101EF0002091E70A3091E80AA091F10AB091F20A24
:101F00008D3019F08A3009F090C0CD018E1B9F0BE7
:101F1000821793070CF461C04091EF0A5091F00AC8
:101F2000452B51F02E0F3F1FF90131971082E091A0
:101F3000EF0AF091F00A09950E949C2D8091220BE6
:101F4000882341F08091230B9091240B099711F085
:101F50000C94721B8091FF0A882341F080910E0B34
:101F600090910F0B059711F00C94721B8091130A3E
:101F70009091140A009709F48FC1079711F00C94FF
:101F8000721B8AC1002381F02091760A3091770A72
:101F90004091780A5091790AC501B4010E94F1700C
:101FA000672B682B692B11F0D12C1BC989829A826F
:101FB000AB82BC821D821E821F821886CE010196D2
:101FC0000E94DD5F88E0FE013196AEE5BAE0019047
:101FD0000D928A95E1F711E002C9AE17BF0709F427
:101FE000ADCF1C920091EB0A1091EC0A4091E50AEA
:101FF0005091E60AE091E90AF091EA0A20E030E027
:10200000201731078CF5C080D180CA017C01D60130
:102010006D916D01662309F10196D7017C916717D7
:10202000A9F32F5F3F4F3496EBCFAD014E1B5F0BF3
:10203000215031094217530734F48C93E091F10A8F
:10204000F091F20A11828091F10A9091F20A0196C0
:102050009093F20A8093F10A71CF0280F381E02D10
:10206000309709F068CF68CFE091ED0AF091EE0A61
:10207000309709F461CFCA015ECF14E0BAC981E09C
:1020800090E09093240B8093230B61E08091260BCA
:102090000E94EA2E4091160150911701609118019B
:1020A0007091190181E39BE00E943D48B0C9AE01E7
:1020B0004E5D5D4FBE016F5F7D4F8091A20A909192
:1020C000A30A0E942548AE014D5E5D4FBE016F5FC1
:1020D0007F4F88E394E00E942548E091A20AF091A6
:1020E000A30A80913E0490E0982F882720913F0416
:1020F000820F911D268130E0322F22274781240F45
:10210000311D8217930709F0A0C0CF5FDD4F4881D2
:1021100059816A817B81C150D24089819A81AB818A
:10212000BC81481759076A077B0709F08EC0CE5D4E
:10213000DD4F28813981C252D240CD5EDD4F88818A
:102140009981C351D2402817390709F07EC02091E8
:102150003C0430E0322F222780913D04280F311DAE
:102160009481892F90E0982F88274581840F911DB5
:102170008E0F9F1FDC011A97F901E25DFB4F5C9106
:102180004081541362C01196F901E15DFB4F9C91AF
:10219000808198135AC01092A50A1092A40A109236
:1021A000AD0A1092AC0A1092010119821A821B82A8
:1021B0001C821D821E821F821886CE0101960E94FB
:1021C000DD5F88E0FE013196A6E8BAE001900D924D
:1021D0008A95E1F710922D0410922C0410922B0492
:1021E00060E08DE00E94EA2E80913C0490E0982F00
:1021F000882720913D04820F911D8139914040F440
:1022000048E252E465E179E088E394E00E942449E1
:10221000809121018A30A1F468E271E085E199E0C2
:102220000E94735345E159E060E971E088E394E06E
:102230000E945C3E62E271E085E199E00E94735386
:1022400086E99AE00E94E34C39CE68EF70E085E1C0
:1022500099E00E94975364ED70E085E199E00E9457
:1022600097536091A80A7091A90A45E159E088E363
:1022700094E00E945C3E68EF70E085E199E00E9486
:1022800097531092A90A1092A80A8FEF9FEF90938C
:10229000AB0A8093AA0A12CE8091130181110C948B
:1022A000CA1981E08093130180912101882381F173
:1022B000C090620AD090630AE090640AF090650AC8
:1022C00080905E0A90905F0AA090600AB090610AC8
:1022D00065E672E085E199E00E9473532AE030E000
:1022E000B501A40185E199E00E94E7526DEB72E02F
:1022F00085E199E00E9471532AE030E0B701A60120
:1023000085E199E00E94E75285E199E00E94A85298
:1023100000911A0A10911B0A66E572E085E199E0C6
:102320000E947353B80185E199E00E948C49809125
:1023300021018823B9F08091220B882399F0009124
:10234000490B10914A0B69E472E085E199E00E9423
:102350007353B80185E199E00E948C4985E199E0C9
:102360000E94A85280912101882329F08091180AA7
:1023700081110C94A51A80912101882331F180915B
:10238000FF0A882311F10091120B1091130BE090BA
:10239000140BF090150B6DE272E085E199E00E945C
:1023A0007353B70185E199E00E94A64962E272E0A9
:1023B00085E199E00E947353B80185E199E00E949C
:1023C0008C4985E199E00E94A8528091220B8111ED
:1023D00005C080912101811187C040C180912101F8
:1023E00081110EC0809121018B3099F71EE2A12E40
:1023F0001BE0B12E03E2C02E0BE0D02E18E562C028
:102400008EE2C82E8BE0D82E93E2E92E9BE0F92EC7
:1024100010E0F60181916F01882331F1D701989680
:102420008D909D90AD90BC909B9768E172E085E1A6
:1024300099E00E9473534AE050E0612F85E199E0F2
:102440000E94BE5264E172E085E199E00E947353FC
:102450002AE030E0B501A40185E199E00E94E7524D
:1024600085E199E00E94A8521F5FB4E0EB0EF11CD9
:10247000133079F6B7CFF601EE0DFF1D44A855A82D
:1024800066A877A860E285E199E00E94E0522AE020
:1024900030E0B301A20185E199E00E94E752F4E047
:1024A000EF0EF11C20E4E216F10429F76AE085E161
:1024B00099E00E94E05230E4C30ED11C1F5F1B352F
:1024C00009F487CFF50181915F018823A1F3612F82
:1024D00085E199E00E94E0526AE385E199E00E947B
:1024E000E052E12CF12CC7CF80913304882311F006
:1024F00019E501C01EE469E072E085E199E00E94FF
:102500007353612F85E199E00E94E05285E199E0E3
:102510000E94A8528091C905882311F019E501C0D5
:102520001EE46CEF71E085E199E00E947353612F26
:1025300085E199E00E94E05285E199E00E94A8526D
:102540008091C905882309F489C0C090D205D09034
:10255000D305E090D405F090D5058090CE059090FD
:10256000CF05A090D005B090D1054090DA055090ED
:10257000DB056090DC057090DD0561EF71E085E1C1
:1025800099E00E9473532AE030E0B301A20185E193
:1025900099E00E94E75265EE71E085E199E00E94C2
:1025A00073532AE030E0B501A40185E199E00E946F
:1025B000E7526DEB72E085E199E00E9471532AE0E9
:1025C00030E0B701A60185E199E00E94E7528091D1
:1025D000CD058823B1F0C090D605D090D705E09006
:1025E000D805F090D9056DEB72E085E199E00E9485
:1025F00071532AE030E0B701A60185E199E00E941D
:10260000E7520091CA0510E0E090CB05F12CD09084
:10261000CC056BED71E085E199E00E9473536D2D5F
:1026200085E199E00E94E0526DEB72E085E199E06E
:102630000E947153B70185E199E00E948C496DEBCE
:1026400072E085E199E00E947153B80185E199E05B
:102650000E948C4985E199E00E94A852D090510CCB
:102660004FEFD41641F180E690E00E94A7708C01F4
:1026700082E690E00E94A7707C01F694E7949801AE
:102680002E0D3F1D80911A0A90911B0A28173907B9
:1026900024F461E08D2D0E94EA2E0E191F0980910D
:1026A0001A0A90911B0A801791072CF460E0809120
:1026B000510C0E94EA2ECE018D5E9D4F0E940D3D71
:1026C00083E091E0C05EDD4F99838883C052D240A1
:1026D00080E1C15EDD4F8883CF51D24090910201ED
:1026E000CC5EDD4F8881C451D240992311F08260C5
:1026F00001C08D7FCC5EDD4F8883C451D240809174
:10270000C805882339F0CC5EDD4F8881C451D240A2
:10271000886006C0CC5EDD4F8881C451D240877F7F
:10272000CC5EDD4F8883C451D2408091620A909183
:10273000630A40915E0A50915F0A6091600A70914D
:10274000610AC95EDD4F488359836A837B83C75121
:10275000D240C55EDD4F99838883CB51D240BE0104
:102760006F5F7F4FCE018D5E9D4F0E94333D809104
:1027700021018823B1F00D8110E0102F00278E81F8
:10278000080F111D6BEC71E085E199E00E94735315
:10279000B80185E199E00E94A64985E199E00E948F
:1027A000A8528091220B882309F487C05090170CFF
:1027B0004090180C7090190C73E2A72E7BE0B72E96
:1027C000E7E5CE2EEBE0DE2EFDEB8F2EF1E09F2E27
:1027D0007501612CD7011B968C918823C1F1F701FB
:1027E0008781D50198964D915D916D917C919B97D4
:1027F000C65CDD4F488359836A837B83CA53D240CA
:10280000ED81F0E0FE2FEE279E81E90FF11DD4014E
:102810000D911C910E0F1F1F0130B2E01B0798F4A1
:1028200021E030E02C0F3D1FE20FF31F60828F701C
:10283000818344E0BE01665C7D4FCF0102960E9419
:10284000263D1D830E8380912F04811193C66394CE
:102850003FEFE31AF30A40E4C40ED11C54E0A50E86
:10286000B11C62E0860E911C73E06712B3CF8091B9
:10287000490B90914A0BC65BDD4F99838883CA54FC
:10288000D240AE01465B5D4F63E0CE0101960E94EF
:102890000F4A872D90E0880F991F95298429C45BE2
:1028A000DD4F99838883CC54D240AE01445B5D4FA9
:1028B00063E1CE0101960E940F4A80911A0A90911D
:1028C0001B0AC85BDD4F99838883C854D240AE0190
:1028D000485B5D4F64E0CE0101960E940F4A8091F3
:1028E000180A882391F080911C0A90911D0ACA5BF6
:1028F000DD4F99838883C654D240AE014A5B5D4F59
:1029000065E0CE0101960E940F4A8091760A90916F
:10291000770A9C0144E0220F331F4A95E1F780912A
:102920007A0A90917B0AA0917C0AB0917D0A5BE0C3
:10293000B595A795979587955A95D1F7822B932BA7
:10294000CC5BDD4F99838883C454D240AE014C5B8D
:102950005D4F68E0CE0101960E940F4A8091FF0A08
:10296000882321F18091120B9091130BC05CDD4FF5
:1029700099838883C054D240AE01405C5D4F6BE1C7
:10298000CE0101960E940F4A8091140B9091150B75
:10299000CE5BDD4F99838883C254D240AE014E5B3B
:1029A0005D4F6CE1CE0101960E940F4A80910101BA
:1029B000882381F080912E04CC5ADD4F8883C45542
:1029C000D240AE014C5A5D4F67E0CE0101960E94A5
:1029D0000F4A04C080912D04882341F020E049E291
:1029E00051E06DE0CE0101960E94424ACF5FDD4F7B
:1029F000188219821A821B82C150D240CB5FDD4FF0
:102A0000188219821A821B82C550D240CE018F5F74
:102A10009D4F0E94DD5FBE016F5F7D4F86E89AE0AB
:102A20000E94B65F81114AC080918A0A90918B0AF8
:102A30004091860A5091870A6091880A7091890AAC
:102A4000CA5CDD4F488359836A837B83C653D24077
:102A5000C25CDD4F99838883CE53D2408D8190E054
:102A6000982F88272E81820F911D8C01095F1F4F9F
:102A70000130A2E01A0710F5EE24E394F12CEC0EDD
:102A8000FD1EE80EF91E26E0F7012083019644E0C2
:102A9000BE016A5C7D4FCC24C394D12CCC0EDD1ECC
:102AA0008C0D9D1D0E94263D42E0BE01625C7D4F63
:102AB000C70105960E94263D1D830E8300912B04BD
:102AC00010912C0401151105D9F062EB71E085E13C
:102AD00099E00E947353B80185E199E00E94A649EC
:102AE00085E199E00E94A85240912B0450912C045A
:102AF0006091290470912A04CE0101960E942E2D26
:102B0000C090CA05B090CB05A090CC05D090C90567
:102B10008091DA059091DB05A091DC05B091DD058F
:102B2000CE5CDD4F88839983AA83BB83C253D24096
:102B30008D8190E0982F88272E81820F911D7C0136
:102B400028E0E20EF11C31E0E31632E0F30638F53E
:102B500001E010E00C0F1D1F080F191F2DE1D80117
:102B60002C93019644E0BE016E5C7D4FE1E0F0E005
:102B7000EC0FFD1F8E0F9F1F0E94263DDD2011F0E0
:102B800080E801C080E0A82AD8011596AC9215977C
:102B90001696BC9216971796CC92FD82EE82DD2097
:102BA00091F084EC9AE00E94D754882361F08091E0
:102BB000CD058111EFC442E02EEC35E06EE1CE018F
:102BC00001960E94FA2D20E030E040E052E0BE0184
:102BD0006F5F7F4FCE018D5E9D4F0E94923D6D8154
:102BE00070E0762F66278E81680F711DCE010196E9
:102BF0000E94E348809137048F5F8093370490915F
:102C00002804992369F090914F0C992321F089179A
:102C100010F010922804609128048DE00E94EA2EA2
:102C2000CE018F5F9D4F0E94894BCE018F5F9D4FDC
:102C30000E943B5E6B017C01CE5DDD4F18821982E4
:102C40001A821B82C252D240CA5DDD4F188219829D
:102C50001A821B82C652D240CE018E5D9D4F0E94C9
:102C6000E34CCE5DDD4F88809980AA80BB80C25244
:102C7000D240D701C60188199909AA09BB09B7FF33
:102C800007C0B095A095909581959F4FAF4FBF4FCE
:102C90000397A105B1050CF493C1C501B40120E867
:102CA0003FE146E857E00E94F170B7FC02C0A22F56
:102CB00002C0AFEFA20FB4E0AB02600111247601B5
:102CC000E6E7EE0EF11C0A2E000CBB0B20E830EEFE
:102CD00049E758EF0E941B71680D791D8A1D9B1DE5
:102CE00020E831E541E050E00E94F17029013A010D
:102CF00089012CE330E040E050E00E94F170CF5FAA
:102D0000DD4F79836883C150D240C9016CE370E024
:102D10000E945271CD5FDD4F99838883C350D240AA
:102D2000CB5FDD4F79836883C550D240F8E44F16FE
:102D3000F4E05F0614F4C7010DC08201085414408A
:102D400029E7C20ED11CC55FDD4FD982C882CB50A6
:102D5000D24014C0382F292F01960D3641E01407B8
:102D60001CF00D561140F6CFC55FDD4F3883CB50B8
:102D7000D240C45FDD4F2883CC50D240C15FDD4FCD
:102D800019830883CF50D2400F5F1F4FC55FDD4FBF
:102D9000C880D980CB50D24054E9C51A58EFD50A23
:102DA000E12CF12C370161E06E0DC6010E94105E2E
:102DB00090E06FEFE61AF60A801791071CF4081BE3
:102DC000190BF0CFC75FDD4F6882C950D240C65F94
:102DD000DD4F7882CA50D240C95FDD4F1983088326
:102DE000C750D240C501B40120E831E541E050E0D0
:102DF0000E94F170C901019667E070E00E943E7187
:102E0000C35FDD4F99838883CD50D240C65DDD4FCF
:102E10001882CA52D240CE01865D9D4F0E94424B1D
:102E2000F82EC65DDD4F8881CA52D240882309F44E
:102E3000C1C08091110A9091120A0297E9F4609141
:102E4000100A80E09BE00E94D3406EE280E09BE0AD
:102E50000E94B13A61E080E09BE00E94B13A64EAEE
:102E600080E09BE00E94B13A60E080E09BE00E943D
:102E7000B13A10E000E020C00E94974C8091110A06
:102E80009091120A009749F0019749F483E00E945B
:102E90001A4B182F187300E004C000E801C000E0CE
:102EA00010E06091100A80E09BE00E94D3406F2DFB
:102EB00080E09BE00E94B13ACF5FDD4F8881C15036
:102EC000D2400E94103A802B90E00E940A4ACD5FC7
:102ED000DD4F8881C350D2400E94103A682F80E0B5
:102EE0009BE00E94B13ACB5FDD4F8881C550D24054
:102EF0000E94103A682F80E09BE00E94B13A8091D6
:102F0000110A9091120A029791F4C95FDD4F8881EE
:102F1000C750D2400E94103A682F80E09BE00E9488
:102F2000B13AC35FDD4F8881CD50D24011C0C35F3D
:102F3000DD4F8881CD50D2408F5F0E94103A812BA7
:102F400090E00E940A4AC95FDD4F8881C750D24095
:102F50000E94103A682F80E09BE00E94B13AC75F60
:102F6000DD4F8881C950D2408F5F0E94103A682F90
:102F700080E09BE00E94B13AC65DDD4F8881CA5275
:102F8000D240873088F0C55FDD4F88819981CB5072
:102F9000D24064E670E00E9452710E94103A682F9D
:102FA00080E09BE00E94B13A80E09BE00E94774085
:102FB0000E947A4C65EA71E085E199E00E9497539E
:102FC000CE5DDD4F88819981AA81BB81C252D240FA
:102FD0004091960A5091970A6091980A7091990AC7
:102FE000841B950BA60BB70B00911A0C10911B0CB0
:102FF000A80160E070E0481759076A077B0774F47E
:103000006FE971E085E199E00E947353B80185E1B1
:1030100099E00E94A64960E871E072C1B7FF0AC05A
:1030200088E0FE01EE5DFD4FA6E9BAE001900D9249
:103030008A95E1F780910E04882309F495C10091E7
:10304000B8091091B9090115110509F429C10E94A7
:1030500059514B015C01F80186A997A9A0ADB1AD0A
:1030600098012E5B3F4F7901892B8A2B8B2B09F41A
:10307000AEC0F90180819181A281B381A501940143
:10308000281B390B4A0B5B0BCA01B90157FD67C0FE
:1030900028EE33E040E050E00E94F170CB5ADD4F63
:1030A000688379838A839B83C555D2402401350187
:1030B00068EE460E63E0561E611C711CCB5ADD4F54
:1030C00088819981AA81BB81C555D240481A590A85
:1030D0006A0A7B0AD7014D925D926D927C9213979A
:1030E000BA01A9014F5F5F4F6F4F7F4FF80186A56F
:1030F00097A5A0A9B1A96A017B01CC0CDD1CEE1C2F
:10310000FF1C8C159D05AE05BF0544F4D8019E96A5
:103110001D921D921D921C92D19709C0841B950B84
:10312000A60BB70BF80186A797A7A0ABB1ABF80128
:1031300082A993A9A4A9B5A98C159D05AE05BF05C3
:103140002CF412AA13AA14AA15AA09C0841B950B61
:10315000A60BB70BF80182AB93ABA4ABB5AB680180
:10316000F6E4CF0ED11CD6018C91833099F4F8018E
:1031700086A597A5A0A9B1A9181619061A061B06B7
:103180004CF084E0D6018C93C8010E948A2B0196F2
:103190007C0102C0E12CF12CF6018081833011F01A
:1031A000811122C0F80182A993A9A4A9B5A9181672
:1031B00019061A061B06C4F0D6011C92C8010E940B
:1031C0000E2DC8010E948A2B03967C010DC0D501EB
:1031D000C40188519C4FAF4FBF4FF9018083918349
:1031E000A283B383E12CF12CD801D6968D929D92C7
:1031F000AD92BC92D997B2E0EB16F10429F0E4E06D
:10320000EE16F10409F04EC06091B8097091B90949
:10321000625F7F4FCE01865D9D4F0E94A9530AE2F7
:1032200012E00C0F1D1F0E5F1F4FC8010E94753862
:103230006091B8097091B9096A5E7F4FCE01865DD1
:103240009D4F0E94A953C8010E9485386091B8091A
:103250007091B9096E5E7F4FCE01865D9D4F0E94D1
:10326000A953C8010E947D386091B8097091B909CD
:10327000625E7F4FCE01865D9D4F0E94A953C45D63
:10328000DD4F88819981AA81BB81CC52D240809345
:10329000B4099093B509A093B609B093B70902C0D9
:1032A000E12CF12C1E2DE1100EC080912101813006
:1032B00009F05AC064E671E085E199E00E94735319
:1032C00061E671E029C064E671E085E199E00E9461
:1032D0007353FF24F2E0EF16F104E1F024F4EA94D2
:1032E000EF2861F01EC043E0E416F10439F054E029
:1032F000E516F104B1F46BE471E00EC06AE571E02B
:1033000085E199E00E94975385E199E00E94495038
:103310000E947A6662E571E085E199E00E94975328
:1033200023C0812F90E0A0E0B0E0C65DDD4F888330
:103330009983AA83BB83CA52D2408AE090E0C25DDF
:10334000DD4F99838883CE52D24068E371E085E1F6
:1033500099E00E947353BE01665D7D4F85E199E05F
:103360000E94EE470E94A85280912101811112C053
:103370006091360470E06F5F7F4F677077276093CE
:1033800036046F5D85E199E00E94E05285E199E0A5
:103390000E94A85280911704882309F4C4C0209188
:1033A0001504309116048091130490911404281789
:1033B000390708F0B8C084EC9AE00E94D7548823FB
:1033C00009F4B1C08091AC0A9091AD0A892B09F043
:1033D000AAC08091AF068F5F8093AF06CE018F5F4A
:1033E0009D4F0E940D3D83E091E0C25FDD4F9983C8
:1033F0008883CE50D24080E1C35FDD4F8883CD50BB
:10340000D240CD5EDD4F188219821A821B82C351D1
:10341000D240C95EDD4F188219821A821B82C751C1
:10342000D240CE018D5E9D4F0E94E34CC95EDD4FC0
:1034300088819981C751D240CD5EDD4F4881598145
:103440006A817B81C351D240CB5FDD4F4883598372
:103450006A837B83C550D240C75FDD4F99838883E1
:10346000C950D240BE016F5F7F4FCE018F5F9D4F2D
:103470000E94333D8091150490911604CE5DDD4F7E
:1034800099838883C252D240AD81B0E0BA2FAA2777
:103490008E81A80FB11D8D010D5E1F4F0130F1E02F
:1034A0001F0708F581E090E08C0F9D1F8A0F9B1F7E
:1034B0002FE0FC0120831196CC24C394D12CCC0E98
:1034C000DD1EAC0DBD1D20E1E7E1F4E001900D92A1
:1034D0002A95E1F742E0BE016E5D7D4F41960E9464
:1034E000263D1D830E8320E030E040E051E0BE0128
:1034F0006F5F7F4FCE018F5F9D4F0E94923D6D8128
:1035000070E0762F66278E81680F711DCE010196BF
:103510000E94E348809137048F5F80933704909135
:1035200028049111D1C084EC9AE00E94D7542091D4
:10353000AC0A3091AD0A882319F02115310561F1EB
:103540002430310509F0CEC027C000911C0A10912B
:103550001D0A68E372E085E199E00E947353B801A7
:1035600085E199E00E94A64985E199E00E94A85270
:103570000C94BB1184EC9AE00E94D754882309F480
:1035800066C99601452D65E1660DCE0101960E9442
:10359000FA2D5DC943E010CB8091AE0A9091AF0A3D
:1035A000DC01ED91FC910088F189E02D09958823DB
:1035B00009F498C080910001882309F493C06EE754
:1035C0007AE086E79AE00E94875F81118BC068E706
:1035D00071E085E199E00E94735385E199E00E94D2
:1035E00049500E9475548091B60081FDFCCF8091B6
:1035F000B000898328E139E28091150181114FC023
:103600008091320481114BC0F89487B3876087BBE7
:1036100078948091B60081FDFCCF89818093B000C1
:103620008091B60081FDFCCFF89483B7817F8660DE
:1036300083BF83B7816083BF0FB6F894A89580914C
:103640006000886180936000109260000FBE8091DE
:103650000F0490911004A0911104B09112048930CC
:1036600046E994074EE1A407B10551F08630974929
:10367000AE41B10529F085B7806685BF8F7D85BFD6
:103680007894889583B78E7F83BF78940FB6F8942B
:10369000A895209360000FBE30936000ADCF80915D
:1036A000BC008B7E8093BC008091BC0084608093C2
:1036B000BC0060E771E085E199E00E94735385E109
:1036C00099E00E9449500EC090914F0C992321F02F
:1036D000891710F010922804609128048DE00E9450
:1036E000EA2E21CFC85ADD4F0FB6F894DEBF0FBEC9
:1036F000CDBFDF91CF911F910F91FF90EF90DF90A1
:10370000CF90BF90AF909F908F907F906F905F9081
:103710004F9008952F923F924F925F926F927F92B7
:103720008F929F92AF92BF92CF92DF92EF92FF92D1
:103730000F931F93CF93DF93CDB7DEB7C05AD2401C
:103740000FB6F894DEBF0FBECDBF84B780932E04B2
:1037500014BE0FB6F894A89580916000886180939C
:103760006000109260000FBE99E288E10FB6F894F5
:10377000A895809360000FBE9093600010E062E017
:10378000812F0E9495321F5F1032C9F78091510C32
:103790008F3F41F061E00E94953260E08091510CD2
:1037A0000E94EA2E8091500C8F3F41F061E00E9410
:1037B000953260E08091500C0E94EA2E8091390190
:1037C00090913A01A0913B01C357DD4F88839983C3
:1037D000AA83CD58D24080913C0190913D01A091A7
:1037E0003E01C057DD4F88839983AA83C059D240D8
:1037F00020913F013091400140914101CD56DD4F74
:10380000288339834A83C359D240CA56DD4F8883FF
:103810009983AA83C659D24044E050E064ED70E039
:10382000CE0187579D4F0E948970C757DD4F488151
:1038300059816A817B81C958D240DB01CA01805C11
:103840009241A109B109813E944EA340B10520F0F7
:1038500040E052EC61E070E085E199E00E94AC4903
:1038600085E199E00E94495084B78F7E84BF8BB177
:1038700085608BB989E0E0E0F0E080935700D49058
:10388000E3E0F0E080935700F490E2E0F0E0809312
:103890005700149180910F0490911004A09111048D
:1038A000B0911204E0E0F0E031E23093570024914F
:1038B000BA2FA92F982F8827822B3296E630F10550
:1038C000A1F780930F0490931004A0931104B09378
:1038D000120465E277E085E199E00E9473538091DC
:1038E0000F0490911004A0911104B09112048A3039
:1038F00046E994074EE1A407B105C1F040F48930D0
:103900009649AE41B105D9F48BE197E014C08530FA
:1039100027E992072EE1A207B10559F086309749B1
:10392000AE41B10561F485E097E005C080E197E024
:1039300002C089EF96E090939E0680939D06A0902A
:103940009D06B0909E066BEE76E085E199E00E94C0
:103950007353B50185E199E00E947353812F90E084
:10396000A0E0B0E0C55CDD4F88839983AA83BB8368
:10397000CB53D24000E110E0C15CDD4F19830883D6
:10398000CF53D2408F2D90E0A0E0B0E0C75DDD4F77
:1039900088839983AA83BB83C952D240C35DDD4F1C
:1039A00019830883CD52D2408D2D90E0A0E0B0E085
:1039B000CF5FDD4F88839983AA83BB83C150D240F8
:1039C000CB5FDD4F19830883C550D24080910F042F
:1039D00090911004A0911104B091120489839A83EC
:1039E000AB83BC831E830D836EED76E085E199E0A9
:1039F0000E947353CE0101967C01BC0185E199E0E0
:103A00000E94EE475C0162ED76E00E947353BE01B6
:103A10006F5F7D4FC5010E94EE475C0165EC76E06B
:103A20000E947353BE01675D7D4FC5010E94EE4742
:103A30005C0164EB76E00E947353BE01655C7D4FD0
:103A4000C5010E94EE479D2D9F70D92E80912E04B6
:103A500090E0A0E0B0E0CF5FDD4F88839983AA8338
:103A6000BB83C150D240CB5FDD4F19830883C55063
:103A7000D2408D2D90E0A0E0B0E089839A83AB83A3
:103A8000BC831E830D8369EA76E085E199E00E949C
:103A9000735361E070E0E2E0DE1611F060E070E088
:103AA00085E199E00E948C4960EA76E085E199E041
:103AB0000E947353B70185E199E00E94EE478C01A3
:103AC00067E976E00E947353BE016F5F7D4FC801C6
:103AD0000E94EE4762E676E085E199E00E9473532A
:103AE0006AE476E085E199E00E94735385E199E00C
:103AF0000E94A8526CE076E085E199E00E94735341
:103B000085E199E00E94A85280912E04857019F0F9
:103B100081E08093280461E084E00E94953261E0B6
:103B200084E00E94EA2E61E08AE00E94953261E022
:103B30008AE00E94EA2E61E08EE00E94953261E008
:103B40008EE00E94EA2E8091510C8F3F41F180E679
:103B500090E00E94A7708C0160E076E085E199E03A
:103B60000E947353B80185E199E00E948C4985E178
:103B700099E00E94A85282E690E00E94A7708C0112
:103B800064EF75E085E199E00E947353B80185E127
:103B900099E00E948C4985E199E00E94A85280E357
:103BA00090E00E94A7708C016AEE75E085E199E0D3
:103BB0000E947353B80185E199E00E94A64985E10E
:103BC00099E00E94A8526FED75E085E199E00E94AE
:103BD0007353E3E0CE2EE1E0DE2E00E210E0F0E1F0
:103BE000AF2EB12CC8010E949970F60181936F012C
:103BF00090E0A0E0B0E089839A83AB83BC83BE826F
:103C0000AD8260E285E199E00E94E052B70185E172
:103C100099E00E94EE470F5F1F4F0033110511F727
:103C200085E199E00E94A85210926D0810926E08EA
:103C30001092A7061092A6061092AC0681E080931F
:103C4000AE061092AD0661E084E10E94EA2E61E0CA
:103C500085E10E94EA2E8091B9008E7F8093B900A1
:103C60008091B9008D7F8093B90084E38093B80080
:103C700085E48093BC0087E59AE39093A90680933E
:103C8000A80688E59AE39093AB068093AA0660E0C5
:103C900080E09BE00E94D34086E090E00E940A4AC8
:103CA00080E09BE00E94774060E080E09BE00E9423
:103CB000D34084E090E00E940A4A80E09BE00E94AA
:103CC000774040E150E060E270E083E091E00E94E4
:103CD000897080E390E00E94A7709093B106809372
:103CE000B00661E089E00E94953261E089E00E94BF
:103CF000EA2E609116017091170180911801909140
:103D000019010E941F51CE0183579D4FC156DD4FAF
:103D100099838883CF59D240FE01EA56FD4F3F0177
:103D200006962C013697C356DD4FF983E883CD59AB
:103D3000D2406F015201430133971F0102E310E0AB
:103D4000C8010E949970F10181931F01C801039677
:103D50000E9499709FEF980F943010F4F6018083C1
:103D6000C8018C5B9F4F0E9499709FEF980F923112
:103D700010F4F5018083C801895B9F4F0E94997000
:103D80009FEF980F983010F4F40180830F5F1F4F5E
:103D9000FFEF8F1A9F0A2FEFA21AB20A4FEFC41A31
:103DA000D40A0533110561F684E490E00E9499700D
:103DB000182F8FEF810F803108F011E085E490E03B
:103DC0000E949970082F8F3F09F401E086E490E08B
:103DD0000E94997091E0811101C090E090932F04AE
:103DE0008091220B882309F463C161ED75E085E1C0
:103DF00099E00E9473536DEC75E085E199E00E94B3
:103E0000975389E08093260B61E00E94953261E030
:103E10008AE00E94953261E08AE00E94EA2E8EE3F9
:103E200090E00E9499708F3F81F0E2E38E9FC00185
:103E30001124092E000CAA0BBB0B80931601909342
:103E40001701A0931801B093190161E08091260B2E
:103E50000E94EA2E409116015091170160911801BD
:103E600070911901411551056105710521F448EE64
:103E700053E060E070E081E39BE00E943D480E94D7
:103E80001D6263E2A62E6BE0B62E7DE8272E72E05F
:103E9000372E2C0E3D1EF3E02F0E311CCE01805725
:103EA0009D4F4C01FE01E357FD4F6F01F1E0C456F9
:103EB000DD4FF883CC59D240F6016081F50164836F
:103EC000F30121913F01F20181912F01F4019191C0
:103ED0004F01880F8851382F3C70892F90E001974F
:103EE0008370992755E0880F991F5A95E1F7832B26
:103EF000243031F0283031F0223029F4816003C0C1
:103F0000826001C08360F501878341E080E09BE02F
:103F10000E94DD4090916E0880916D08981711F411
:103F20000C94D62AF6018081F501848381E0838791
:103F3000FFEFCF1ADF0A2FEFA21AB20A2C143D04AA
:103F400009F0BACF88E680932D0BC456DD4F488127
:103F5000CC59D24041110CC06DEC75E085E199E07F
:103F60000E94735366EB75E085E199E00E947353FC
:103F7000802F8170382E1093170C8093180C81E0DD
:103F8000902F9270292E01FF80E08093190C3EE261
:103F9000832E3BE0932EC12CD12C40E1442E512C9A
:103FA000F40181914F01882329F02BE9622E25E04D
:103FB000722E04C091E9692E95E0792EC356DD4F2B
:103FC000E881F981CD59D2400191C356DD4FF98383
:103FD000E883CD59D240C156DD4FE881F981CF59F0
:103FE000D2408191C156DD4FF983E883CF59D24049
:103FF00090E0A0E0B0E089839A83AB83BC835E82CB
:104000004D8261EB75E085E199E00E947353B60142
:1040100085E199E00E948C496BEA75E085E199E0C1
:104020000E947353B70185E199E00E94EE475C015D
:1040300065EA75E00E9473534AE050E0602FC501C5
:104040000E94BE52B301C5010E947353FFEFCF1A05
:10405000DF0A23E0C216D10409F0A2CF64E875E0BC
:1040600085E199E00E9473534AE050E0612F85E1B9
:1040700099E00E94BE5267E775E085E199E00E94F1
:104080007353222031F06EE675E085E199E00E94DD
:104090007353332019F066E675E002C060E675E000
:1040A00085E199E00E94735385E199E00E944950AF
:1040B0006DEC75E085E199E00E9473538091220BCD
:1040C000811106C06BE575E085E199E00E947353AC
:1040D00062E575E085E199E00E9497538091220B9B
:1040E0008823E9F06DEC75E085E199E00E94735357
:1040F0006BE375E085E199E00E94735340911601EE
:104100005091170160911801709119012AE085E121
:1041100099E00E945F5285E199E00E94A852809147
:10412000FF0A8823D1F061ED75E085E199E00E94F6
:10413000735363E375E085E199E00E9497538FEF35
:1041400080930D0B4BE450E060E070E088E19BE071
:104150000E943D4881E08093FF0A63E375E085E1BA
:1041600099E00E9473538091FF0A811106C06BE5AC
:1041700075E085E199E00E94735362E575E085E1A1
:1041800099E00E9497538AE390E00E94997080938F
:104190000E048EED90E00E94997091E0811101C0B3
:1041A00090E09093140181EE90E00E94A1702B01A9
:1041B0003C01DC01CB010197A109B1098E3F9F4F62
:1041C000AF4FBF4F30F0412C82EC582E66246394E1
:1041D000712CB301A20188E798E00E94AC4985E503
:1041E0008093DD0988E496E09093DF098093DE09EF
:1041F0009093E1098093E0091092480610929C0682
:1042000060E086E00E94953243E050E065EB73E3A6
:1042100082E00E94305261E088E10E94953260E0C5
:1042200088E10E94EA2E65E070E080E090E00E9464
:104230001F5161E088E10E94EA2E64EF71E080E0A6
:1042400090E00E941F5185EE90E00E94A1704B010A
:104250005C01DC01CB010197A109B1098E3F9F4FA1
:10426000AF4FBF4F28F0812C0BE4902EA12CB12C26
:1042700084149504A604B70409F447C065E175E009
:1042800085E199E00E9473532AE0B301A20185E120
:1042900099E00E945F5260E175E085E199E00E943B
:1042A00073532AE0B501A40185E199E00E945F52B1
:1042B00085E199E00E94A852BF92AF929F928F929F
:1042C00082E095E09F938F931F9280E58F93FF92FA
:1042D000EF920E948F6DC7010E94CA2D62E370E0C9
:1042E00080E090E00E941F51B501A40188E798E0AA
:1042F0000E94AC4962E370E080E090E00E941F51B0
:104300000FB6F894DEBF0FBECDBF8EEF92E00E94D5
:10431000CA2D8DE093E00E94CA2D84E193E00E94B3
:10432000CA2D8091F40A8F3FC1F062E00E9495325D
:104330008091F40A823031F0833031F0863031F4EC
:1043400082E005C080E003C081E001C08FEF41E062
:1043500050E065E971E40E9430528EE490E00E94E2
:1043600099708F3F09F481E091E020910E04223092
:1043700008F490E022E02093150A27E02093160A23
:104380002EE12093170A8093180A9093190A882324
:1043900021F060E08AE10E9495328091160A88300F
:1043A00010F4885E01C08FEF60E00E94953280912A
:1043B000170A8F3F19F061E00E94953261EF74E0B7
:1043C00085E199E00E9473538FED90E00E9499700F
:1043D000082F10E0C756DD4F19830883C959D24012
:1043E00080EE90E00E949970C556DD4F8883CB59CE
:1043F000D2400430110504F588508037E8F40430C9
:10440000110540F4F801EE0FFF1FE451FD4F6591D7
:10441000749102C060EE72E085E199E00E947353EE
:1044200085E199E00E94A85248E7BE0165567D4F9C
:10443000CE0187569D4F0BC067E273E085E199E09E
:104440000E94AC5246E062E471E085E491E00E9493
:10445000C54A8823C1F18091100A90E0A0E0B0E045
:1044600089839A83AB83BC8380E190E09E838D83B4
:10447000E091110AF091120AE430F10538F4EE0FE0
:10448000FF1FE451FD4F0591149102C000EE12E0B0
:104490006AEE74E085E199E00E947353B80185E10A
:1044A00099E00E9473536BED74E085E199E00E94FE
:1044B0007353BE016F5F7F4F85E199E00E94EE4725
:1044C0000E94A85206C06DEC74E085E199E00E945C
:1044D000735385E199E00E9449508091110A9091AF
:1044E000120A82309105C1F56091100A80E09BE0CC
:1044F0000E94D34063E280E09BE00E94B13A60E01A
:1045000080E09BE00E94B13A60E080E09BE00E9486
:10451000B13A62E180E09BE00E94B13A60E080E065
:104520009BE00E94B13A60E080E09BE00E94B13ADB
:1045300067E080E09BE00E94B13A60E080E09BE0B1
:104540000E94B13A60E080E09BE00E94B13A80E0D6
:104550009BE00E94774016C0019789F483E00E9497
:104560001A4B83FD0CC00E94974C83E00E941A4BAB
:10457000682F686083E00E94604C0E947A4C80E063
:104580000E94AF2D0E947A4C8BE490E00E949970BB
:10459000182F8F3F09F410E0812F0E94AF2D882340
:1045A000F9F0812F90E0A0E0B0E089839A83AB839B
:1045B000BC838AE090E09E838D836BEB74E085E1A1
:1045C00099E00E947353BE016F5F7F4F85E199E0D0
:1045D0000E94EE470E94A85285E199E00E9449504E
:1045E00060E08FE00E94953261EA74E085E199E035
:1045F0000E94735385E199E00E9449508091110A0D
:104600009091120A8130910581F068F00297B1F41F
:1046100060E088E20E94604C87E20E941A4B682F9B
:104620006F7787E209C063E106C087E00E941A4BFA
:10463000887F682F636487E00E94604C80E090E888
:1046400090935B0A80935A0A80E091E0980F903132
:1046500011F0892FFACF80935C0A81E090E0A0E00E
:10466000B0E08093610890936208A0936308B093D0
:10467000640810925E0880E091E0A0E0B0E08093D2
:10468000822E9093832EA093842EB093852E198230
:104690001A821B821C828D839E83AF83B887CE01D2
:1046A00001960E94DD5F88E0FE013196A2E5BAE046
:1046B00001900D928A95E1F71092700087B38760A0
:1046C00087BB91E090935D0A1092300A10922D0AF8
:1046D00010922C0A1092290A1092280A1092310A7C
:1046E00010922F0A10922E0A10922B0A10922A0A68
:1046F0002FB7F8941092690810926A0810926B080C
:1047000010926C0810926508109266081092670863
:10471000109268081092B6008091B6008064809371
:10472000B6008091B60080628093B6001092B0000F
:104730001092B1001092B2001092B3001092B40027
:104740001092B0009093B1008091B6008F71E1F7A4
:1047500087B3876087BB81E0809370002FBF62E9D9
:1047600074E085E199E00E94735360E070E885E1B0
:1047700099E00E94A6496BE273E085E199E00E940E
:104780007153C35BDD4F188219821A821B82CD548C
:10479000D240CF5ADD4F188219821A821B82C1552E
:1047A000D240CE01855C9D4F0E94894B882321F128
:1047B000CE01855C9D4F0E943B5EC35BDD4F6883ED
:1047C00079838A839B83CD54D240CE01835B9D4FF6
:1047D0000E94DD5FCE01835B9D4F0E94804E88E08A
:1047E000FE01E35BFD4FA6E9BAE001900D928A95C8
:1047F000E1F76EE674E002C068E474E085E199E0F8
:104800000E94735385E199E00E94495080910E0403
:10481000823009F0CAC4A89546E050E060E770E035
:10482000CE0181589D4F0E94897044E050E060E5C0
:1048300070E0CE018B579D4F0E948970BE016B576F
:104840007D4FCE0187589D4F0E94A95344E050E010
:1048500060EC70E0CE018B579D4F0E948970BE01C5
:104860006B577D4FCE018D589D4F0E94A95344E058
:1048700050E064EC70E0CE018B579D4F0E94897030
:10488000BE016B577D4FCE0183599D4F0E94A953A6
:104890008FE692E0C75DDD4F99838883C952D2408D
:1048A000C55DDD4F188219821A821B82CB52D2401D
:1048B000C15DDD4F99838883CF52D240CF5CDD4FFD
:1048C000188219821A821B82C153D240CB5CDD4F01
:1048D00099838883C553D240C95CDD4F1882198201
:1048E0001A821B82C753D240FE01E75DFD4F7F0154
:1048F00008EC10E044E050E0B801CE018B579D4F2A
:104900000E948970BE016B577D4FCE0101960E94B7
:10491000A9538B819C81AD81BE81F70182839383F2
:10492000A483B5830C5F1F4FF6E0EF0EF11C043D2E
:10493000110501F744E050E064E570E0CE018B57CB
:104940009D4F0E948970BE016B577D4FCE018959E2
:104950009D4F0E94A95388E590E00E94A7705C01DA
:104960008AE590E00E94A7704C0140E450E060E8C6
:1049700070E0CE0101960E94897069EA73E085E1DA
:1049800099E00E9473538E0101581D4F712CA0E1D4
:10499000EA2EF12C6801F8018081803128F460E36F
:1049A00085E199E00E94E0520F5F1F4FF601808180
:1049B00090E0A0E0B0E0CF5FDD4F88839983AA83C9
:1049C000BB83C150D240CB5FDD4FF982E882C55036
:1049D000D240BE016F5F7D4F85E199E00E94EE47B6
:1049E0007394F6E07F1631F06AE385E199E00E9466
:1049F000E052D0CF85E199E00E94A8526401CE0137
:104A000089599D4F7C018E01075D1D4F9E012359E1
:104A10003D4FAE014D585D4FB50142960E945F5823
:104A200065E973E085E199E00E947353BE016F5F11
:104A30007F4F85E199E00E94715385E199E00E94E2
:104A4000A852A895C558DD4F88819981AA81BB815C
:104A5000CB57D240892B8A2B8B2B09F471C064E889
:104A600073E085E199E00E9473538FE692E0CF5F97
:104A7000DD4F99838883C150D240CB58DD4F4881A8
:104A800059816A817B81C557D240CD5FDD4F488314
:104A900059836A837B83C350D240CB5ADD4F9983BD
:104AA0008883C555D240C159DD4F488159816A81FB
:104AB0007B81CF56D240C95ADD4F488359836A83E0
:104AC0007B83C755D240C55ADD4F99838883CB5528
:104AD000D240C55DDD4F488159816A817B81CB52CF
:104AE000D240C35ADD4F488359836A837B83CD55B7
:104AF000D240CF59DD4F99838883C156D240C558E3
:104B0000DD4F88819981AA81BB81CB57D240CD5995
:104B1000DD4F88839983AA83BB83C356D240085252
:104B200011099E012B5A3D4FAE01455A5D4FBE0102
:104B30006F597D4FCE0181589D4F0E94313314C172
:104B400062E773E085E199E00E94735385E199E0A3
:104B50000E94495080914006811107C085E296E08D
:104B60000E94743581E0809340068EED95E090932D
:104B7000B9098093B8090E94D13226E030E0AE0135
:104B800041585D4F64E089E090E00E9442558FE615
:104B900092E0CF5FDD4F99838883C150D240CD5FD3
:104BA000DD4F1882C350D240CC5FDD4F1882C45015
:104BB000D240CB5FDD4F1882C550D240CA5FDD4F77
:104BC0001882C650D240EE24E394E2E0FE2EEC0EB2
:104BD000FD1E92E0E90EF11CC7010E94753800919C
:104BE000B8091091B909F80112A213A214A215A2D2
:104BF00016A217A210A611A612A613A614A615A6F1
:104C000016AA17AA10AE11AE80E69AEEA0E0B0E0A8
:104C100082AF93AFA4AFB5AFFE9688E893E1A0E072
:104C2000B0E080839183A283B3836801F8E0CF0E64
:104C3000D11CF6E07F2EF601272D11922A95E9F777
:104C4000C8010E940E2DFE01E158FD4FD6010190D2
:104C50000D927A94E1F7F801EA5BFF4F1082C801E8
:104C60000E948A2B8130910509F046C06091B809F5
:104C70007091B909625F7F4FCE018F5F9D4F0E9497
:104C8000A953C7010E9475386091B8097091B9099C
:104C90006A5E7F4FCE018F5F9D4F0E94A953C7016F
:104CA0000E9485386091B8097091B9096E5E7F4F96
:104CB000CE018F5F9D4F0E94A953C7010E947D388E
:104CC0006091B8097091B909625E7F4FCE018F5F24
:104CD0009D4F0E94A953CD5FDD4F88819981AA81A4
:104CE000BB81C350D2408093B4099093B509A0937F
:104CF000B609B093B7090EC0892B61F466E673E07C
:104D000085E199E00E94735385E199E00E94495042
:104D10000E947A6699E288E10FB6F894A89580938C
:104D200060000FBE909360008091B4099091B50926
:104D3000A091B609B091B709CD5FDD4F8883998303
:104D4000AA83BB83C350D240C55DDD4F888399835E
:104D5000AA83BB83CB52D2401092000161E673E07C
:104D600085E199E00E949753A8958981082E000C4F
:104D7000990B0E948471892B09F4DBC065E573E00F
:104D800085E199E00E947353BE016F5F7F4F85E11B
:104D900099E00E94715385E199E00E94A8528E012A
:104DA000055A1D4F8FE692E0F801918380831282AD
:104DB00013821482158263E0362E212C2E01F5EC2D
:104DC0004F1AFDEF5F0A3C01CC24C39472E0D72E4A
:104DD000CC0EDD1E28E0C20ED11CCE01875D9D4F9A
:104DE0007C01A895F70182819381A481B581009708
:104DF000A105B10509F446C0C95ADD4F88839983DE
:104E0000AA83BB83C755D240CF5FDD4F79826882CA
:104E1000C150D240CD5FDD4F188219821A821B82A9
:104E2000C350D240C6010E947435C95ADD4F8881F3
:104E30009981AA81BB81C755D240CD5FDD4F888360
:104E40009983AA83BB83C350D240C95FDD4F1982C7
:104E50001882C750D240A801BE016F5F7F4FCE01BC
:104E60008F5F9D4F0E94D355019761F4C35ADD4F68
:104E700088819981AA81BB81CD55D240892B8A2B0B
:104E80008B2B41F4F6E0EF0EF11C4E145F0409F099
:104E9000A8CF02C0222423943A9431109ECF22201E
:104EA000B9F18FE692E0CF5FDD4F99838883C150DF
:104EB000D240F80182819381A481B581CD5FDD4F1D
:104EC00088839983AA83BB83C350D240BE016F5F9E
:104ED0007F4F85E199E00E94715367E473E085E1BB
:104EE00099E00E947353BE016F5F7D4F85E199E0A9
:104EF0000E945A58F80182819381A481B581C759D3
:104F0000DD4F88839983AA83BB83C956D2400DC0E5
:104F100067E373E085E199E00E947353BE016F5F20
:104F20007F4F85E199E00E94715385E199E00E94ED
:104F3000A852C759DD4F88819981AA81BB81C95682
:104F4000D240892B8A2B8B2B09F07DC00FE612E013
:104F5000CF5FDD4F19830883C150D240CD5FDD4F55
:104F6000188219821A821B82C350D24041E052E05B
:104F70004C0F5D1F4E5F5F4F24E030E060E08FE03C
:104F800090E00E941555CD5FDD4FC880D980EA8042
:104F9000FB80C350D240CB5ADD4F19830883C555DF
:104FA000D240C95ADD4F188219821A821B82C75516
:104FB000D24045E552E04C0F5D1F4E5F5F4F24E04D
:104FC00030E060E085E090E00E941555C95ADD4F61
:104FD00088819981AA81BB81C755D24080959095DF
:104FE000A095B0958C299D29AE29BF29C759DD4FC1
:104FF00088839983AA83BB83C956D24028E730E0CF
:1050000030931B0C20931A0CCF5FDD4F198308835C
:10501000C150D240CD5FDD4F88839983AA83BB8383
:10502000C350D24064E073E085E199E00E9473537D
:10503000BE016F5F7D4F85E199E00E945A5885E17E
:1050400099E00E94A85262EF72E085E199E00E9427
:1050500073535FE6652E52E0752ECF5FDD4F798288
:105060006882C150D240CD5FDD4F188219821A820A
:105070001B82C350D24041E052E04C0F5D1F4E5F97
:105080005F4F24E030E060E081E090E00E94155541
:10509000CB5ADD4F79826882C555D240C95ADD4F5F
:1050A000188219821A821B82C755D24045E552E008
:1050B0004C0F5D1F4E5F5F4F24E030E060E085E005
:1050C00090E00E941555C55ADD4F79826882CB5514
:1050D000D240C35ADD4F188219821A821B82CD55E5
:1050E000D2404BE552E04C0F5D1F4E5F5F4F24E016
:1050F00030E060E08FE090E00E9415556401CE0141
:1051000089599D4F7C018E01075D1D4F9E012F5FC8
:105110003D4FAE014B5A5D4FB5010C970E945F5851
:1051200085E199E00E944950CF5FDD4F7982688226
:10513000C150D240C759DD4F88819981AA81BB8176
:10514000C956D240CD5FDD4F88839983AA83BB8344
:10515000C350D240A401BE016F5F7D4FC5010E94C4
:10516000B6590E9475548CE19CE09093AF0A8093ED
:10517000AE0A81E08093280419821A821B821C8265
:1051800080E098E0A0E0B0E08D839E83AF83B88795
:10519000CE0101960E94DD5F88E0FE013196AEE609
:1051A000BAE001900D928A95E1F782E490E00E94C6
:1051B000A7709C01215031092E3F3F4F38F5AC01BB
:1051C0005F7034E0569547953A95E1F760E070E0FE
:1051D00049835A836B837C838F709927982F882704
:1051E000990F990F990FA0E0B0E08D839E83AF8354
:1051F000B887CE0101960E94DD5F88E0FE013196FE
:10520000A6E7BAE001900D928A95E1F76EE67AE0A2
:1052100086E79AE00E94875F882321F088E0EEE627
:10522000FAE00BC066E77AE086E69AE00E94875FC4
:10523000882349F088E0E6E6FAE0A6E7BAE00190C4
:105240000D928A95E1F7C0907A0AD0907B0AE0909F
:105250007C0AF0907D0A8090760A9090770AA09060
:10526000780AB090790A60E374E085E199E00E94E1
:1052700073532AE030E0B501A40185E199E00E9472
:10528000E7526DEB72E085E199E00E9471532AE0EC
:1052900030E0B701A60185E199E00E94E75285E17F
:1052A00099E00E94A85285E199E00E94495061E08E
:1052B0008DE00E94953260E08DE00E94EA2E83E04E
:1052C000E82E81E0F82EF092D00AE092CF0A10E1A9
:1052D0001093CE0A8FE991E490930F0A80930E0AFF
:1052E00082E59BE390930B0A80930A0A8CE39BE38D
:1052F00090930D0A80930C0A69E174E085E199E0CE
:105300000E94975385E199E00E94495086E89EE209
:105310009093E60A8093E50A80E590E09093E80A8E
:105320008093E70A81ED9AE09093EA0A8093E90A74
:1053300085E090E09093EC0A8093EB0A8EE69BE385
:105340009093EE0A8093ED0A88E69BE39093F00A2F
:105350008093EF0A0E949C2DCE01835B9D4F0E949B
:10536000E34CCE01875D9D4F0E940D3DCA5CDD4F31
:10537000F982E882C653D240CB5CDD4F1883C55317
:10538000D240CF5ADD4F88819981C155D240C35B4D
:10539000DD4F488159816A817B81CD54D240C35D04
:1053A000DD4F488359836A837B83CD52D240CF5CE3
:1053B000DD4F99838883C153D240BE016F5F7F4F19
:1053C000CE01875D9D4F0E94333D40E051E060E09B
:1053D00070E0CE0101960E942E2D20E030E040E0EA
:1053E00052E0BE016F5F7F4FCE01875D9D4F0E94EF
:1053F000923D6D8170E0762F66278E81680F711D5A
:10540000CE0101960E94E348CA5CDD4FF982E88232
:10541000C653D240CB5CDD4F1883C553D240CF5A20
:10542000DD4F88819981C155D240C35BDD4F4881F2
:1054300059816A817B81CD54D240C35DDD4F488361
:1054400059836A837B83CD52D240CF5CDD4F9983F1
:105450008883C153D240BE016F5F7F4FCE01875D0D
:105460009D4F0E94333D80912E04CB5ADD4F88839F
:10547000C555D240AE014B5A5D4F67E0CE01019653
:105480000E940F4A20E049E251E06DE0CE01019612
:105490000E94424A41E054E0BE016F5F7F4FCE015F
:1054A000875D9D4F0E94C04A48E250E064EF73E080
:1054B000CE018F5F9D4F0E94726D60919D0670912D
:1054C0009E0648E250E0CE018F5F9D4F0E94536DD3
:1054D00020E0AE014F5F5D4F60E2CE0101960E9479
:1054E000424A43EE53E0BE016F5F7F4FCE01875DBE
:1054F0009D4F0E94C04A4AE456E0BE016F5F7F4F55
:10550000CE01875D9D4F0E94C04A4CE056E0BE012F
:105510006F5F7F4FCE01875D9D4F0E94C04A20E0A4
:1055200030E040E052E0BE016F5F7F4FCE01875D0B
:105530009D4F0E94923D6D8170E0762F66278E818F
:10554000680F711DCE0101960E94E3486DEC73E077
:1055500085E199E00E94735385E199E00E94A85289
:105560000E94B44762EC73E085E199E00E947353B6
:1055700085E199E00E94A852C056DD4F0FB6F8941D
:10558000DEBF0FBECDBFDF91CF911F910F91FF9076
:10559000EF90DF90CF90BF90AF909F908F907F90D3
:1055A0006F905F904F903F902F900895F501138674
:1055B000C456DD4F1882CC59D2400C94981F6F927C
:1055C0007F928F929F92AF92BF92CF92DF92EF9293
:1055D000FF920F931F93CF93DF9300D000D0CDB7EE
:1055E000DEB78B016A0119821A821B821C8244E099
:1055F000FC01608180E09BE00E94DD4080916E08AC
:1056000090E020916D08821B9109049709F067C012
:10561000AE014F5F5F4F7A014E0155E0850E911C40
:10562000570180E09BE00E94683AF50181935F0199
:10563000E815F905B1F78C81982F9C709C3021F406
:10564000F601808323E004C08B81F601808322E091
:10565000F601808187FD46C08C7090E0AC015695C4
:105660004795840F951FFC01E05AFE4F60807180C2
:105670008280682DA301062E000C770B4A015B0186
:10568000FC01E55BFE4F408151816281F70180E0C2
:1056900090E0DC013191BA2FA92F982F8827832B16
:1056A0003E2F3E193217B0F3F80180839183A28315
:1056B000B38375016401C822D922EA22FB22CD28D6
:1056C000CE28CF2891F0062E000C770B842B952B3B
:1056D000A62BB72B80839183A283B38306C082E07D
:1056E00090E005C084E090E002C080E090E00F9080
:1056F0000F900F900F90DF91CF911F910F91FF901E
:10570000EF90DF90CF90BF90AF909F908F907F9061
:105710006F9008952F923F924F925F926F927F9277
:105720008F929F92AF92BF92CF92DF92EF92FF92B1
:105730000F931F93CF93DF93CDB7DEB727970FB6A5
:10574000F894DEBF0FBECDBF8C010E94BC6B2FEC66
:1057500037E040E050E00E94F170DC01CB0101969F
:10576000A11DB11DF80184839583A683B78380832F
:105770009183A283B3835801F7E4AF0EB11CC50136
:105780000E94273564E470E0C5010E941A3888231E
:1057900009F429C10E9459512B013C01812C912C03
:1057A000C8018A5B9F4F9E838D8318019EE3290E5B
:1057B000311C48EEC42E43E0D42EE12CF12CAD81F7
:1057C000BE818C91833009F4FDC0811120C0F801A5
:1057D00084819581A681B7810196A11DB11D848325
:1057E0009583A683B7830E94595164197509860968
:1057F0009709A70196010E94CF70A90161E0C80135
:105800000E94F25981E0AD81BE818C93C3C0843087
:10581000E9F4F80184819581A681B7810196A11DE3
:10582000B11D84839583A683B7830E94595164195F
:10583000750986099709A70196010E94CF70A901F1
:1058400063E0C8010E94F259E2E02AC0813061F5AC
:10585000D1014D915D916D917C919E012F5F3F4FE4
:10586000C8010E94FA5A8F83823009F08DC0898165
:105870009A81AB81BC81F80184839583A683B78329
:105880000E9459516419750986099709A701960163
:105890000E94CF70A90163E0C8010E94F259EF8114
:1058A000AD81BE81EC9376C0823009F073C0D10126
:1058B0004D915D916D917C919E012F5F3F4FC8018D
:1058C0000E94FA5A8F83853009F057C083E0ED813A
:1058D000FE818083F80182A193A1A4A1B5A1892BA7
:1058E0008A2B8B2B41F484E893E0A0E0B0E082A304
:1058F00093A3A4A3B5A3F80186A197A1A0A5B1A5E0
:10590000892B8A2B8B2B61F482A193A1A4A1B5A131
:10591000B695A7959795879586A397A3A0A7B1A7B6
:10592000D8019A964D915D916D917C919D97969637
:105930008D919D910D90BC91A02D452B462B472B11
:1059400059F4AC01BD01440F551F661F771FF801C4
:1059500042A753A764A775A7F80186A797A7A0AB8E
:10596000B1AB82A593A5A4A5B5A582AB93ABA4AB1F
:10597000B5AB88248394912C0DC0FF81F63021F4BF
:10598000AD81BE811C9206C0BF81BF3F19F4ED817D
:10599000FE811082F1E08F16910409F410CF0E946D
:1059A0005951DC01CB0184199509A609B709F80101
:1059B00022AD33AD44AD55AD281739074A075B0713
:1059C00008F0FDCEC5010E942735F801848195813C
:1059D000A681B7810196A11DB11D84839583A683FD
:1059E000B783C40102C080E090E027960FB6F89418
:1059F000DEBF0FBECDBFDF91CF911F910F91FF9002
:105A0000EF90DF90CF90BF90AF909F908F907F905E
:105A10006F905F904F903F902F900895FC013E96BD
:105A200024E0DF01322F1D923A95E9F73496DF0129
:105A3000322F1D923A95E9F73496DF01322F1D92ED
:105A40003A95E9F73496DF01322F1D923A95E9F73E
:105A50003496DF011D922A95E9F70895DF92EF92BF
:105A6000FF920F931F93CF93DF9300D000D0CDB759
:105A7000DEB7FC017C836B83248130E0322F222748
:105A80008581280F311DCA0102969A838983BA0144
:105A90006B5F7F4F620F731F613082E07807E8F51C
:105AA0007A01748365838F01020F131F82E1D8018D
:105AB0008C93C901019642E0BE016F5F7F4F8E0F4C
:105AC0009F1F0E94263D42E0BE016D5F7F4FC801CF
:105AD00003960E94263D0B5F1F4FE00EF11EDD2452
