:100000000C94FB040C942A050C942A050C942A05E4
:100010000C942A050C942A050C942A050C942A05A4
:100020000C942A050C94DD3A0C94093B0C94963DF3
:100030000C942A050C942A050C942A050C942A0584
:100040000C942A050C942A050C94E8650C942A0556
:100050000C9427690C945D690C942A050C942A056C
:100060000C942A050C942A050C9435270C942A0527
:100070000C94D4690C940A6A0C942A050C942A05F1
:100080000C942A050C942A050C942A0562101A1364
:100090001A134A0FD3101A13DF101A134211AE129B
:1000A000BC12EC120E13F0352E3645368036B836BB
:1000B000DB3619377537246727671A671E673E676F
:1000C0003E672B672F67356739674552524F523A63
:1000D00020756E6B6E6F776E20636F6D6D616E64F1
:1000E0003A202700270A00766572626F7369747977
:1000F0003A00766572626F736974790073616D702E
:100100006C696E67496E74657276616C5F313674C6
:10011000685F73005245424F4F543D7472756500DD
:10012000656570726F6D57726974653D00656570C5
:10013000726F6D526561643D005061636B65742040
:1001400076616C69642062757420696E636F727287
:1001500065637420726573706F6E7365002323236B
:10016000232323232323232323232323232323235F
:1001700023232300546F6F206D616E7920726574A4
:10018000726965733A20004157414B45210A00537B
:100190004C454550210A007320776974686F757467
:1001A000206D6573672061636B2C207265626F6FD1
:1001B00074696E670A00476F6E652000536574208E
:1001C000485720636C6F636B00454550524F4D207C
:1001D000636F6E74656E7473206C656E6774683AD5
:1001E0002000486561646572206C656E6774683ACA
:1001F00020006D6167446174615B005D3A200048D6
:10020000756D69646974793A20000A416D626965A7
:100210006E743A20000A4F626A65637420323A2095
:10022000004D4C582074656D703A20000A4F626A88
:1002300065637420313A2000537570706C792076B4
:100240006F6C746167653A20000A464C4331303068
:100250002074656D702E3A200054696D6573746169
:100260006D703A20000A53797374656D2074656D62
:10027000702E3A20002D2D2D2D0A53616D706C6962
:100280006E6720737461727465640A0053657475D7
:100290007020636F6D706C6574650053616D706C78
:1002A000696E6720696E74657276616C20287329A7
:1002B0003A2000436F756C64206E6F74206765741C
:1002C0002074696D652066726F6D20686172647755
:1002D000617265205254430A005365742073797328
:1002E00074656D20636C6F636B2066726F6D206840
:1002F00061726477617265205254430A00537973C6
:1003000074656D20636C6F636B3A2000436F6E669B
:1003100069677572696E672073797374656D2063A0
:100320006C6F636B0A004D4350373934317820636A
:10033000616C6962726174696F6E3A20004E6F2061
:1003400052544320666F756E640A00466F756E6482
:100350002052544320617420616464726573732079
:100360003078004175746F70726F62696E672074C7
:100370006F2066696E64205254430A00484948362B
:10038000317878004D4C583930363134006D656124
:100390006E0A006D656469616E0A007472696D6D44
:1003A000656420006E756D53616D706C65733A20E5
:1003B000000A6167677265676174653A20004144AD
:1003C000435B005D3A204F78002063682E200020B8
:1003D0006D697373696E670A002070726573656E6C
:1003E000740A00464C433130300020706F776572DC
:1003F0002D75702064656C617920286D73293A2011
:10040000002070726573656E7400206E6F74004911
:100410006E697469616C6973696E672000484D414B
:1004200043206B65793A200046616E2068797374C9
:100430002E3A200046616E2074656D702E3A2000C1
:100440000A4669726D776172653A204D6167436C47
:100450006F75642D302E3238610A465F4350553A2D
:1004600020384D487A0A436F6D6D733A20585246D2
:100470002057353130300A46656174757265733ABC
:1004800020464C43313030204849483631585820B6
:100490004D4C5839303631340A005243206F736363
:1004A0002E3A20000A434B53454C3A20000A4D4354
:1004B0005553523A20004C6F7720667573653A2089
:1004C000000A4869676820667573653A20000A4526
:1004D0007874656E64656420667573653A20006D96
:1004E00061696E7461696E2072657475726E65649F
:1004F0002000726562696E640072656E657765647E
:10050000006661696C65642C207265626F6F746946
:100510006E67006F6B0044484350206C65617365E3
:1005200020004163746976652073657474696E6731
:10053000733A0A004E6F2072656D6F746520686FA4
:1005400073742C20747279696E6720666F72203123
:1005500032307320746F20636F6D6D756E696361E7
:10056000746520746F200043616E6E6F7420726535
:10057000736F6C76652000207265736F6C7665739F
:1005800020746F200044484350206661696C6564A4
:100590002C207265626F6F74696E672E2E2E0A00B2
:1005A00052657175657374696E672049500A00550C
:1005B00073696E67207374617469632049500A001F
:1005C000202052656D6F746520686F73746E616D65
:1005D000653A2000454550524F4D2073657474694B
:1005E0006E67733A0A20204D41433A20000A2020CA
:1005F00052656D6F74653A2000286E6F6E65290034
:1006000020204C6F63616C3A20000A20204D6173FA
:100610006B3A20000A202047573A20000A20204445
:100620004E533A2000496E7374616C6C204657201B
:10063000726573756C743A20004669726D776172E9
:1006400065204352433A20000A446F776E6C6F6115
:1006500064204352433A20000A435243207374619A
:100660007475733A2000636F7069656420706172FD
:100670007469616C2073706D427566666572207472
:100680006F20666C6173683A20004669726D77610D
:10069000726520646F776E6C6F616420666F722084
:1006A0000020636F6D706C657465640A00636F7021
:1006B0006965642073706D42756666657220746F3B
:1006C00020666C6173683A2000457261736564202E
:1006D00074656D706F72617279206170706C69639E
:1006E0006174696F6E206172656120696E20666C4D
:1006F000617368200050726F63657373696E672061
:100700004657207570677261646520005570677286
:10071000616465206669726D7761726520746F200F
:1007200000416C7265616479206861766520666954
:10073000726D776172652076657273696F6E2000E5
:10074000526563656976656420757067726164657A
:10075000206669726D77617265207461673A200066
:1007600053414D504C494E4720494E5445525641F5
:100770004C204348414E4745442120005365727642
:1007800065722074696D653A20000A4F7572207495
:10079000696D653A20000A54696D65206572726F53
:1007A0007220286F75722D736572766572293A20F2
:1007B0000054696D65207365742066726F6D2073D7
:1007C00065727665720A003D3D3D3D0A003D3D3D46
:1007D0003D0A526573706F6E73653A0A0078A46AB9
:1007E000D756B7C7E8DB702024EECEBDC1AF0F7C73
:1007F000F52AC68747134630A8019546FDD898804C
:1008000069AFF7448BB15BFFFFBED75C89221190C3
:100810006B937198FD8E4379A62108B44962251E19
:10082000F640B340C0515A5E26AAC7B6E95D102F04
:10083000D65314440281E6A1D8C8FBD3E7E6CDE144
:1008400021D60737C3870DD5F4ED145A4505E9E3E2
:10085000A9F8A3EFFCD9026F678A4C2A8D4239FAB6
:10086000FF81F6718722619D6D0C38E5FD44EABE7B
:10087000A4A9CFDE4B604BBBF670BCBFBEC67E9B4F
:1008800028FA27A1EA8530EFD4051D880439D0D491
:10089000D9E599DBE6F87CA21F6556ACC444222951
:1008A000F497FF2A43A72394AB39A093FCC3595B69
:1008B0006592CC0C8F7DF4EFFFD15D84854F7EA8CF
:1008C0006FE0E62CFE144301A3A111084E827E5373
:1008D000F735F23ABDBBD2D72A91D386EB415441CA
:1008E000430D4154444E0D004368616E6E656C20AB
:1008F0006E756D6265723A20004154434E2000418E
:100900005452450D4154534D20320D002B2B2B00DA
:1009100054696D656F75742077616974696E6720BD
:10092000666F722058524620746F20706F77657220
:10093000206F6E0054696D656F75742077616974FE
:10094000696E6720666F722058524620746F20725D
:1009500065736574000000000000000001080302D8
:1009600000090A0000000000000000040700000069
:1009700000000000000102040801020408402010E9
:100980002040808040201008040201108080402018
:100990001008040201040404040202020204040216
:1009A000020202030303030303030304040101011E
:1009B00001010101010000200023002600290000A0
:1009C000002200250028002B000000210024002721
:1009D000002A0000B40B3B0E4B26BE38C0400C4929
:1009E000BB4BBB515957FB5B095C145C745EF763EE
:1009F00091693E6AF66A11241FBECFEFD0E4DEBFD4
:100A0000CDBF13E0A0E0B1E0E2EAFFED00E00BBFF4
:100A100002C007900D92A43CB107D9F72EE2A4ECD6
:100A2000B3E001C01D92A032B207E1F719E0C6EFB2
:100A3000D9E000E006C022970109FE010BBF0E9429
:100A4000B56DC43DD10780E00807A9F70E94EB6CA3
:100A50000C94CF6F0C9400000F931F93CF93DF93F0
:100A6000DB01ED018C01222717FD2095322F2BBFD2
:100A7000F8010791002331F011962881201309C055
:100A80000196EFCF4115510531F0FA01B183A083F2
:100A900002C080E001C081E0DF91CF911F910F91F2
:100AA0000895EF92FF920F931F93CF93DF93EC0182
:100AB0008B017A0163E571E00E94666BE00EF11E26
:100AC000011580E1180738F50E151F0521F165E6BF
:100AD00071E0CE010E94666BA80160E070E020E149
:100AE00030E0CE010E94FA6B63E671E0CE010E9415
:100AF000666BC8010E94AC6F482F50E060E070E068
:100B000020E130E0CE010E94FA6BCE010E94796BA9
:100B10000F5F1F4FD5CFCE01DF91CF911F910F9166
:100B2000FF90EF9008952F923F924F925F926F92B5
:100B30007F928F929F92AF92BF92CF92DF92EF926D
:100B4000FF920F931F93CF93DF93CDB7DEB72F970D
:100B50000FB6F894DEBF0FBECDBF6C017B01805B8A
:100B60009F4F9E878D87D701ED91FC910480F58181
:100B7000E02DC7010995892B09F4F7C1D701ED9143
:100B8000FC910680F781E02DC7010995482F8D3033
:100B900019F08A3009F0B5C1ED85FE8520813181DB
:100BA000C216D30608F0ADC1AE01455F5F4FB60176
:100BB0008DE291E00E942C05882309F44BC040E0AF
:100BC00050E0BE016F5F7F4F8B859C850E94146E45
:100BD0002B013C016115F0E17F078105910508F0CB
:100BE000B4C1E981FA812B853C85E217F30709F44A
:100BF000ACC120812C3209F0A8C1CF0101969A83A3
:100C000089839C878B8740E050E0BE016F5F7F4FF8
:100C10000E94146E16161706180619060CF095C1D8
:100C200093018201060F171F281F391F011510415C
:100C3000210531050CF089C1E981FA812B853C85BC
:100C4000E217F30709F481C1208121117EC1AB01B4
:100C5000B20177C1AE01455F5F4FB60180E291E01E
:100C60000E942C05882309F452C040E050E0BE01E8
:100C70006F5F7F4F8B859C850E94146E4B015C01DA
:100C8000E981FA818B859C85E817F907E9F1808174
:100C90008C32D1F52401350112018201081919099C
:100CA000411490E1590661047104A0F489819A818C
:100CB00001969A8389839C878B8740E050E0BE0130
:100CC0006F5F7F4F0E94146E6F3F71058105910524
:100CD00031F028F0B201601B710BA80132C1E9812B
:100CE000FA812B853C85E217F307A1F320812C3292
:100CF00011F02111EFCFC1010E94BA6F8FEF481A96
:100D0000580A680A780AC8CF68E671E020C1AE01C7
:100D1000455F5F4FB60184E191E00E942C05882376
:100D200091F06BE871E0C7010E94666BC7010E94F9
:100D3000796BD701ED91FC910284F385E02DC70119
:100D400009950E940F25AE01455F5F4FB6018CEFFC
:100D500090E00E942C05882309F47EC0EB85FC8579
:100D6000CF0101969C878B8720812D3309F045C0E8
:100D700040E050E0BE01675F7F4F0E94146E161680
:100D8000170618061906CCF5E985FA852B853C85EA
:100D9000E217F30791F1208121112FC08B019C01F3
:100DA0000F701127222733274BE0000F111F221F3E
:100DB000331F4A95D1F7AB01BC01407F66277727E7
:100DC000E4E07595679557954795EA95D1F7CE017B
:100DD00001960E94493C6CEF74E0CE0101960E949E
:100DE0006A3D81110AC0BE016F5F7F4F84EF94E0BE
:100DF0000E946A3D882309F4AEC0409004055090DB
:100E00000505609006057090070584E0440C551CAC
:100E1000661C771C8A95D1F7809108059091090589
:100E2000A0910A05B0910B052BE0B595A795979574
:100E300087952A95D1F7480E591E6A1E7B1E69E9CF
:100E400071E0C7010E94666B2AE030E0B301A201A5
:100E5000C7010E94FA6B39C0AE01455F5F4FB60112
:100E600082EF90E00E942C05882399F1EB85FC85A8
:100E7000CF0101969C878B8720812D33C9F440E0F8
:100E800050E0BE016F5F7F4F0E94146E6F3F71058F
:100E90008105910509F060F4E981FA812B853C8593
:100EA000E217F30729F02081211102C060938A2AFA
:100EB00010918A2A67EE70E0C7010E94436B4AE0F6
:100EC00050E0612FC7010E94596CC7010E94796BE5
:100ED0000EC06AEC70E0C7010E94436BB601C70107
:100EE0000E94666B64EE70E0C7010E94436BF601DE
:100EF00040E511924A95E9F7AD85BE85CD92DC9229
:100F000032CEED85FE850081118198012C193D09B5
:100F1000203531050CF027CE842F992787FD909539
:100F20004F870E944A6F4F85892B09F41CCE980188
:100F30002F5F3F4FAD85BE852D933C93F8014083D5
:100F400012CEC7010E945105D2CF62EB71E0C701FA
:100F50000E94666BCCCFFE013196A4E0B5E088E03C
:100F600001900D928A95E1F748CF2F960FB6F8942D
:100F7000DEBF0FBECDBFDF91CF911F910F91FF90CC
:100F8000EF90DF90CF90BF90AF909F908F907F9029
:100F90006F905F904F903F902F9008950F931F9305
:100FA000CF93DF93EC01CB018A01BE01685F7F4FD5
:100FB00044E00E94BC2DBE01645F7F4F42E0C80147
:100FC000DF91CF911F910F910C94BC2DEF92FF9266
:100FD0000F931F93CF93DF9300D0CDB7DEB77C0183
:100FE0008B01413082E0580788F064ED71E0809118
:100FF00026029091270249835A830E948F6B81E0D9
:1010000090E0F701918380835A814981B801C7013B
:101010008E5D9D4F0E948B65F70111821082E65F05
:10102000FD4F80819181049711F4118210820F90FD
:101030000F90DF91CF911F910F91FF90EF90089546
:101040002F923F924F925F926F927F928F929F92D8
:10105000AF92BF92CF92DF92EF92FF920F931F93C6
:10106000CF93DF93CDB7DEB762970FB6F894DEBFAC
:101070000FBECDBF362E272E4A01FA01C080D18087
:10108000A62EB72E10E09C01245D3D4F3A8B298B94
:101090002C0133ED431A3DEF530A3E0141E1640E4A
:1010A000711CC114D10419F160E0262F30E0C60193
:1010B000E3E0CE16D10410F082E090E02817390763
:1010C00090F4F501E20FF31F408150E0F901E25185
:1010D000FD4F8081992787FD90954817590709F0A2
:1010E0005BC06F5FE2CF32E0C316D10410F480E042
:1010F00060C0F4E0CF16D10408F441C0F50183814B
:1011000080FF4FC0F6E0CF16D104C8F1F50124816D
:1011100030E0322F22278581280F311DC216D306D9
:1011200070F1E989FA8940817901F8E0EF1AF0EE6F
:10113000FF0A83E0EE0CFF1C8A95E1F700E010E067
:1011400028E0429FA0011124F20160817181950184
:10115000CE0101960E946628DE011996F6013897A5
:10116000EA0DFB1D81E03D91219191E0321390E069
:101170008923A615B705B9F711E0882391F0F4018A
:1011800080819181C816D90699F0A601B501832DF9
:10119000922D0E946E6F0CC042E0C416D10408F478
:1011A000A6CFFFEFAF1ABF0A21E0C21AD10879CF4C
:1011B000812F62960FB6F894DEBF0FBECDBFDF91D0
:1011C000CF911F910F91FF90EF90DF90CF90BF9044
:1011D000AF909F908F907F906F905F904F903F90D7
:1011E0002F9008954F925F926F927F928F929F926D
:1011F000AF92BF92CF92DF92EF92FF920F931F9325
:10120000CF93DF93CDB7DEB767970FB6F894DEBF05
:101210000FBECDBF8C017B013A016C0124EFC21AD5
:101220002DEFD20AD6018D919C91009741F484E074
:1012300090E0F8019183808380E090E07EC2D80145
:101240001D921C92DC01ED91FC910288F389E02D46
:1012500009955801B6EFAB1ABDEFBB0AF5018081C5
:1012600091818130910509F45AC01CF4892B49F011
:1012700062C28230910509F463C0039709F4F6C095
:101280005AC27801FEEDEF1AFDEFFF0AC7010E9476
:101290006565811150C240E052E0B8016E5F7F4F3A
:1012A000C7010E94A7659C01780182E0E80EF81E44
:1012B000D7012D933C932115310509F43CC2F80167
:1012C000EC5FFD4F1182108281E090E0F501918387
:1012D0008083E091ED28F091EE28309709F42BC23D
:1012E000C901BF010E94166D882309F424C2AF0111
:1012F000481B51096A01C20ED31EF1E0CF16F2E07D
:10130000DF0608F018C2C901029660E070E0800FA5
:10131000911F0E94806FD701CD92DC920CC2F60122
:1013200080819181DC01ED91FC910484F585E02DB3
:101330000995882309F4FFC182E090E0F501F9C125
:101340007801FCEFEF1AFDEFFF0AD7018D919C9118
:10135000F801EE5FFD4F4F01892B71F480918A2ACD
:101360008A3051F4409126025091270260817181A8
:10137000C80102960E944C2ED7018D919C91892B19
:1013800051F4F60180819181DC01ED91FC9104889A
:10139000F589E02D0995F60180819181DC01ED91BF
:1013A000FC91008CF18DE02D0995009719F4F40162
:1013B00080819181F601A081B1812D913C9111979D
:1013C000F701608171816E5F7F4F600F711FF901BE
:1013D00022813381AC01CD01F9010995D7012D910D
:1013E0003C911197280F391F2D933C93F401808174
:1013F00091812817390709F09EC1D6018D919C91E2
:10140000DC01ED91FC910688F789E02D0995F80142
:10141000EA5FFD4F118210827801B2EFEB1ABDEF47
:10142000FB0A80ED97E0A0E0B0E0F70180839183B4
:10143000A283B38381E090E0918780870E94326627
:10144000D7014D905D906D907C90640D751D861D4B
:10145000971DF701648375838683978336978FEF93
:101460009FEF9183808383E090E07DC04801B2EFDD
:101470008B1ABDEF9B0AF40180859185892B51F46D
:101480000E943E66D40114962D913D914D915C9140
:10149000179707C00E943266F40124813581468186
:1014A0005781621B730B840B950B6095709580952B
:1014B0009095662797FD6395772788279927662358
:1014C00009F455C0C0902602D090270265EE71E065
:1014D000C6010E948F6B82E090E0D8018D939D93AE
:1014E0007D014801B2E08B0E9B1EF4014081B701E3
:1014F000CE0101960E94432F8C85823038F58F5F94
:101500008C87F801E45DFD4F2081319680819181C7
:101510009F878E872D8720E030E040E052E0B701C2
:10152000CE0101960E945632D4011D921C92F80100
:10153000468150E0542F44278781480F511DB70141
:10154000C8018E5D9D4F0E948B650BC064E771E002
:10155000C6010E94436BA60160E072E0C7010E94D1
:101560004C2E84E090E0D5018D939C93E4C0F6016D
:1015700080819181DC01ED91FC91028CF38DE02D55
:101580000995F60180819181DC01ED91FC91048047
:10159000F581E02D09952C01009709F4CCC0480194
:1015A000BAEF8B1ABDEF9B0AF401808191818615F9
:1015B000970560F081E090E0D8018D939C9334977B
:1015C00011821082F50111821082B5C0D6018D9171
:1015D0009C91DC01ED91FC910680F781E02D09954D
:1015E000F40120813181A9014F5F5F4F5183408316
:1015F000F701E20FF31F8083F1E04F1A510831F732
:10160000A401B701C8010E942008882309F493C0EF
:10161000680122E0C20ED11CAE014A5E5F4FBE01DE
:10162000605F7F4FC6010E94CE07AE014C5E5F4FE8
:10163000BE016F5F7F4FC7010E94CE07D70116968C
:101640002C91169730E0322F222717968C91280F75
:10165000311DF801808590E0982F88274185840FFF
:10166000911D2817390709F042C0488959896A89AC
:101670007B8989819A81AB81BC81481759076A07A8
:101680007B07A9F52E893F898C899D892817390701
:1016900071F5D70114962C91149730E0322F222740
:1016A00015968C91280F311D868190E0982F882700
:1016B0004781840F911D2E0D3F1DD9011A978C0D66
:1016C0009D1DFC013A975C914081541310C0119606
:1016D00031962C91808128130AC0F801EE5FFD4FEE
:1016E00011821082F5011182108281E025C0C09024
:1016F0002602D09027026DE571E0C6010E947D6B45
:1017000069E371E0C6010E947D6BD4016D917C910B
:10171000A601C7010E944C2E6DE571E0C6010E9432
:101720007D6BF40111821082F801E85FFD4F8FEFAD
:101730009FEF9183808380E090E067960FB6F894E6
:10174000DEBF0FBECDBFDF91CF911F910F91FF90F4
:10175000EF90DF90CF90BF90AF909F908F907F9051
:101760006F905F904F90089585EF91E09093C5033F
:101770008093C40384ED91E09093C7038093C603E4
:1017800085EE91E09093C9038093C803089581E0AA
:1017900080930501609304010895CF93DF93EC01DA
:1017A000FB012481358140815181628173810E94D6
:1017B000FA6BCE01DF91CF9108950F931F93CF93D2
:1017C000DF93EC01188219821A821B8281E090E07B
:1017D000998788870E943266088119812A813B8116
:1017E000600F711F821F931F6C837D838E839F8385
:1017F000DF91CF911F910F91089584B78093D50405
:1018000014BE88E10FB6F8948093600010926000D7
:101810000FBE08950F931F93CF93DF93CDB7DEB71D
:1018200028970FB6F894DEBF0FBECDBFCE0101964C
:101830000E94353B80910401882341F0BE016F5F17
:101840007F4F83E09CE20E94E33B0CC000E010E08D
:1018500020E030E0AE014F5F5F4F60E083E09CE24C
:101860000E94753A64E075E0CE0101960E94434003
:1018700000E010E027EC3BE0AE014F5F5F4F60E01F
:1018800083E09CE20E94B63E28960FB6F894DEBF35
:101890000FBECDBFDF91CF911F910F910895CF93D0
:1018A000DF9300D0CDB7DEB78A830E94DF658A81DF
:1018B0009091B60091FDFCCF9091B000998348E1E2
:1018C00028E130E059E29091D604911133C0F894A8
:1018D00097B3976097BB78949091B60091FDFCCF39
:1018E00099819093B0009091B60091FDFCCFF8944F
:1018F00093B7917F982B93BF93B7916093BF0FB627
:10190000F89440936000109260000FBE95B7906607
:1019100095BF9F7D95BF7894889593B79E7F93BF21
:1019200078940FB6F894A895209360000FBE50935A
:101930006000C9CF8091BC008B7E8093BC008091F9
:10194000BC0084608093BC000F900F90DF91CF911A
:101950000895CF92DF92EF92FF920F931F93CF9350
:10196000DF93CDB7DEB728970FB6F894DEBF0FBE72
:10197000CDBF7C016B011092060100E010E09801E0
:1019800040E050E0BA01CE0101960E94493C88E057
:10199000FE013196A6E1B5E001900D928A95E1F73E
:1019A0001092F2041092D8041092D70460E0809153
:1019B00018010E9478670DE91DE222E23FE04EED3A
:1019C0005CE2B601C7010E94CA2D80918A2A8A3042
:1019D00091F46DEC77E08EED9CE20E94436B4EED4E
:1019E0005CE2B601C7010E944C2E67EC77E08EEDF9
:1019F0009CE20E94436B66EB76E083E09CE20E94EF
:101A0000E33B28960FB6F894DEBF0FBECDBFDF9143
:101A1000CF911F910F91FF90EF90DF90CF9008959D
:101A2000EF92FF920F931F93CF93DF93CDB7DEB763
:101A3000A5970FB6F894DEBF0FBECDBF7C018B011A
:101A4000CE0101964CA35DA30E94BB6ACE0109960C
:101A50000E94FC5D88E10FB6F894809360001092BC
:101A600060000FBEB701CE0101960E9419574CA12C
:101A70005DA1B801CE0101960E94785949E228E1A2
:101A800030E00FB6F894A895209360000FBE409305
:101A90006000A5960FB6F894DEBF0FBECDBFDF91F4
:101AA000CF911F910F91FF90EF9008952F923F9249
:101AB0004F925F926F927F928F929F92AF92BF925E
:101AC000CF92DF92EF92FF920F931F93CF93DF930A
:101AD000CDB7DEB762970FB6F894DEBF0FBECDBFAD
:101AE0004C013A0182EB93E09A838983F8012280CA
:101AF0003380448055802B823C824D825E82988761
:101B00008F83F901028113812481358109871A8726
:101B10002B873C879E878D87FB0182819381A481DF
:101B2000B5818F87988BA98BBA8B60E076E0C40172
:101B30000E94436BBE01635F7F4FC4010E946F6BC5
:101B40006AE3C4010E94686B4AE050E0B301C4013B
:101B50000E94776C6AE076E0C4010E94436BBE018C
:101B6000695F7F4FC4010E946F6B64E176E0C4013E
:101B70000E94436BBE016F5F7F4FC4010E946F6B79
:101B80006CE176E0C4010E94436B870183E0782E0C
:101B900020E092EBE92E93E0F92EF8018281938107
:101BA000A481B581892B8A2B8B2BD9F0222339F084
:101BB0006091190170911A01C4010E94666BFA824A
:101BC000E982F80182819381A481B5818B839C8312
:101BD000AD83BE83BE016F5F7F4FC4010E946F6BF8
:101BE00021E07A940A5F1F4F7110D7CF211105C0F1
:101BF00069EF75E0C4010E94436B82EB93E09A8326
:101C00008983F60182819381A481B5818B839C8332
:101C1000AD83BE836DEE75E0C4010E94436BBE01CF
:101C20006F5F7F4FC4010E946F6B6AE3C4010E9423
:101C3000686B4AE050E0B501C4010E94776CC401B2
:101C40000E94796B62960FB6F894DEBF0FBECDBFCF
:101C5000DF91CF911F910F91FF90EF90DF90CF9088
:101C6000BF90AF909F908F907F906F905F904F90BC
:101C70003F902F9008950F931F9300E020E040E0E5
:101C800060E082EE9AE20E94C56A80912F03809301
:101C9000E02A809130038093E12A84E690E00E945C
:101CA000AC6F8093DF2A8FE690E00E94AC6F809348
:101CB000DE2A6BE77DE28EEB9AE20E94AF4F8BE863
:101CC0009AE20E94D96388ED90E00E94B46F9093ED
:101CD000892A8093882A81E999E20E941F338CE542
:101CE00090E00E94AC6F91E0811101C090E0909370
:101CF000902988E699E20E94FE438DE590E00E94DB
:101D0000AC6F91E0811101C090E09093672982E46B
:101D100099E20E940A468EE590E00E94AC6F91E045
:101D2000811101C090E0909341298FEE98E2909349
:101D3000402980933F291092C1081092C008109248
:101D4000C9081092C8081092CB081092CA081092C5
:101D5000CC081092CD081092CE081092CF0881E0E6
:101D600090E09093D5088093D4080E943266009149
:101D7000CC081091CD082091CE083091CF08600F8B
:101D8000711F821F931F6093D0087093D1088093B6
:101D9000D2089093D30886ED98E00E94DD0B40E0D6
:101DA00050E26DEE78E080EE98E00E94736486EB7E
:101DB00096E00E94353B00E010E0980141E050E0E1
:101DC00060E070E08EE195E00E94493C00E010E0A8
:101DD000980140E050E0BA0186E195E00E94493C5C
:101DE00000E010E0980142E050E060E070E08CE03C
:101DF00095E00E94493C00E010E098014EE150E07F
:101E000060E070E084E095E00E94493C00E010E072
:101E1000980145E050E060E070E08CEF94E00E94B3
:101E2000493C00E010E0980148E552E060E070E0D5
:101E300084EF94E00E94493C8CEC93E01F910F9159
:101E40000C94353B2F923F924F925F926F927F920C
:101E50008F929F92AF92BF92CF92DF92EF92FF92BA
:101E60000F931F93CF93DF93CDB7DEB7E6970FB6EF
:101E7000F894DEBF0FBECDBF8B017A01590190E00F
:101E8000FC013897ED30F10508F0D4C3EA5BFF4F51
:101E90000C947F6DCE0181960E94353BBE016F5D33
:101EA0007F4F83E09CE20E94E33B44E0B801CE0117
:101EB00089960E94BC2DB8016C5F7F4F42E0CE0135
:101EC0008D960E94BC2D0DA51EA520E030E049A5F1
:101ED0005AA56BA57CA5CE0149960E94493CBE013E
:101EE0006F5D7F4FCE0141960E943F3BBE01675E12
:101EF0007F4FCE0141960E949D400D891E892F89FA
:101F0000388D37FF07C030952095109501951F4FEC
:101F10002F4F3F4F49895A896B897C8977FF07C0CA
:101F200070956095509541955F4F6F4F7F4FCE01F3
:101F300009960E94493CBE01675F7F4F8EE195E0A4
:101F40000E946A3D882309F43FC0BE01675E7F4F4F
:101F500083E09CE20E94ED39BE01675F7F4F84E021
:101F600095E00E946A3D8823C9F0BE01675E7F4FFD
:101F7000CE0101960E943F3B64E075E0CE010196E0
:101F80000E94434000E010E027EC3BE0AE014F5FD1
:101F90005F4F60E083E09CE20E94B63E61EB77E039
:101FA0008EED9CE20E94436BBE016F5E7F4FCE01BF
:101FB00001960E94714088E0FE013196A6E1B5E0ED
:101FC00001900D928A95E1F780918A2A823008F477
:101FD00031C38D899E89AF89B88D8BAB9CABADAB7E
:101FE000BEAB2090190130901A01C988DA88EB88BD
:101FF000FC888DA09EA0AFA0B8A449A05AA06BA059
:102000007CA00DA51EA589A59AA5ABA5BCA58FA7EB
:1020100098ABA9ABBAAB6CE777E08EED9CE20E947F
:10202000436B2AE030E04FA558A969A97AA98EED43
:102030009CE20E944C6C60E28EED9CE20E94686B18
:102040004AE050E0B8018EED9CE20E94776C6AE8AD
:1020500077E08EED9CE20E94436B2AE030E0B30112
:10206000A2018EED9CE20E94FA6B60E28EED9CE292
:102070000E94686B2AE030E0B501A4018EED9CE27D
:102080000E94FA6B66E977E08EED9CE20E94436B5A
:102090002AE030E0B701A6018EED9CE20E94FA6BC7
:1020A000B1018EED9CE20E94666B2AE030E04BA904
:1020B0005CA96DA97EA98EED9CE20E94FA6B8EED63
:1020C0009CE26EC042E0CE0109960E94BC2D49857B
:1020D0005A858A010F701127102F0027110F110F39
:1020E000110F20E030E074E0569547957A95E1F7BE
:1020F00060E070E0CE0101960E94493C88E0FE015C
:102100003196A4E0B5E001900D928A95E1F76CEF6D
:1021100074E084E095E00E946A3D882321F088E025
:10212000ECEFF4E00BC064E075E084EF94E00E9413
:102130006A3D882349F088E0E4EFF4E0A4E0B5E0EC
:1021400001900D928A95E1F7C0900805D09009059D
:10215000E0900A05F0900B050091190110911A0109
:1021600040900405509005056090060570900705A5
:1021700060E677E0C5010E94436B2AE030E0B301DE
:10218000A201C5010E94FA6BB801C5010E94666BED
:102190002AE030E0B701A601C5010E94FA6BC50133
:1021A0000E94796B47C22EE088E190E00FB6F89468
:1021B000A895809360000FBE20936000FFCF8091B0
:1021C000E104811137C280E1FB01A1EEB4E001908E
:1021D0000D928A95E1F71092F10460E477E08EEDBC
:1021E0009CE20E94436B61EE74E08EED9CE20E94E3
:1021F000666B8EED9CE20E94796B40E150E066E1F7
:1022000072E081EE94E00E948E6F892BB1F41092FF
:10221000E10461E277E08EED9CE20E94436B66E1AF
:1022200072E08EED9CE20E94666B8EED9CE20E9455
:10223000796B81E08093F204FDC16CE077E08EED74
:102240009CE20E94436B61EE74E08EED9CE20E9482
:10225000666B8EED9CE20E94796BB801605F7F4FE8
:1022600042E08FED94E00E94BC2DB8016E5E7F4F7E
:1022700042E08DED94E00E94BC2D1092DC0410929F
:10228000DB04D8C142E0605F7F4FCE0109960E9417
:10229000BC2D40E150E0B80181EE94E00E948E6FC9
:1022A000892B09F0C7C1E090DB04F090DC0489853C
:1022B0009A85E816F90609F0BDC18091DF04909176
:1022C000E004E816F90608F0B5C19E2D9170992E2C
:1022D00065EF76E08EED9CE20E94436B4AE050E0B1
:1022E000B7018EED9CE20E94776C60E28EED9CE27D
:1022F0000E94686B4AE050E0692D8EED9CE20E94DE
:10230000596C8EED9CE20E94796BA92CB12CD50101
:10231000B695BA2FAA27B795A795AB52BC4FF8012F
:10232000729680E801900D928A95E1F7A1E09A12E9
:102330004FC08091DB049091DC040197A1F40E94CE
:10234000DB23182F69EC76E08EED9CE20E94436B54
:102350004AE050E0612F8EED9CE20E94596C8EEDB8
:102360009CE20E94796BC090DB04D090DC04CA1818
:10237000DB08E12CF12C37E0CC0CDD1CEE1CFF1C43
:102380003A95D1F720E045ED53E0C701B6010E9430
:102390001924182F6DEA76E08EED9CE20E94436BC3
:1023A0002AE030E0B701A6018EED9CE20E944C6C61
:1023B00060E28EED9CE20E94686B4AE050E0612F83
:1023C0008EED9CE20E94596C8EED9CE20E94796B2E
:1023D0002091DB043091DC048091DF049091E004D3
:1023E00001972817390709F0B2C06AE876E08EED48
:1023F0009CE20E94436B61EE74E08EED9CE20E94D1
:10240000666B61EA76E08EED9CE20E94436BB1E080
:102410009B16E9F140E850E06FEF70E085E594E04D
:102420000E94806FC090DB04D090DC04CA18DB08E7
:10243000E12CF12C27E0CC0CDD1CEE1CFF1C2A95B6
:10244000D1F720E045ED53E0C701B6010E94192401
:10245000182F66E676E08EED9CE20E94436B2AE040
:1024600030E0B701A6018EED9CE20E944C6C60E268
:102470008EED9CE20E94686B4AE050E0612F8EED89
:102480009CE20E94596C8EED9CE20E94796BCE0119
:1024900001960E94A924D82E09811A81E090DD04BA
:1024A000F090DE0469E376E08EED9CE20E94436BDF
:1024B0004AE050E0B7018EED9CE20E94776C68E440
:1024C00076E08EED9CE20E94436B4AE050E0B8015A
:1024D0008EED9CE20E94776C68E576E08EED9CE2E2
:1024E0000E94436B4AE050E06D2D8EED9CE20E940D
:1024F000596C8EED9CE20E94796B64E670E080E09E
:1025000090E00E9461668091DD049091DE040E945B
:10251000B924182F65E276E08EED9CE20E94436BB1
:102520004AE050E0612F8EED9CE20E94596C8EEDE6
:102530009CE20E94796B8EED9CE20E94446868EEFA
:1025400073E080E090E00E9461660E940F252F5F9B
:102550003F4F3093DC042093DB046CC042E089EDF4
:1025600094E00E94BC2DB8016E5F7F4F42E087ED82
:1025700094E00E94BC2D5EC042E0CE0101960E9414
:10258000BC2D6801E2E0CE0ED11C89819A81909326
:10259000DA048093D904C70102979093D8048093FA
:1025A000D7040E0D1F1DC016D10609F443C0898142
:1025B0009A819C01205231092031310520F0D60149
:1025C0006C910E94BA6F89819A8101969A8389835E
:1025D000BFEFCB1ADB0AE7CF41E0CE0109960E949C
:1025E000BC2D8985882331F1B8016F5F7F4F41E0B1
:1025F000CE0101960E94BC2D898181FB992790F91B
:10260000282F217089853FEF380F303198F480935F
:10261000852A2093862A9093872A0CC041E0CE0118
:1026200001960E94BC2D81E09981911101C080E04A
:102630008093F30480E0E6960FB6F894DEBF0FBEF9
:10264000CDBFDF91CF911F910F91FF90EF90DF9061
:10265000CF90BF90AF909F908F907F906F905F9042
:102660004F903F902F9008956F927F928F929F92FC
:10267000AF92BF92CF92DF92EF92FF920F931F9390
:10268000CF93DF93CDB7DEB7CC58D1090FB6F8940E
:10269000DEBF0FBECDBFA89546E050E060E770E01A
:1026A000CE018D579F4F0E949C6F44E050E060E543
:1026B00070E0CE0187579F4F0E949C6FBE01675705
:1026C0007F4FCE0183589F4F0E94DB6A44E050E069
:1026D00060EC70E0CE0187579F4F0E949C6FBE0157
:1026E00067577F4FCE0189589F4F0E94DB6A44E0B5
:1026F00050E064EC70E0CE0187579F4F0E949C6FC2
:10270000BE0167577F4FCE018F589F4F0E94DB6AF3
:10271000CE018F5B9F4F0E94BB6A81E490E08C0FDB
:102720009D1F06960E94BB6A81E490E08C0F9D1F5E
:102730000C960E94BB6ACE018F5B9F4F7C0108EC18
:1027400010E044E050E0B801CE0187579F4F0E944F
:102750009C6FBE0167577F4FCE0101960E94DB6AD6
:102760008B819C81AD81BE81F70182839383A48399
:10277000B5830C5F1F4FF6E0EF0EF11C043D110511
:1027800001F744E050E064E570E0CE0187579F4FC9
:102790000E949C6FBE0167577F4FCE0185599F4FA6
:1027A0000E94DB6A88E590E00E94B46F4C018AE5E4
:1027B00090E00E94B46F3C0140E450E060E870E0BB
:1027C000CE0101960E949C6F64ED75E08EED9CE257
:1027D0000E94436B8E010D571F4FB12C90E1E92EE3
:1027E000F12C6801F8018081803128F460E38EEDDE
:1027F0009CE20E94686B0F5F1F4FF601808190E0A2
:10280000A0E0B0E067968CAF9DAFAEAFBFAF67976B
:102810006996FFAEEEAE6997BE016D5A7F4F8EEDA1
:102820009CE20E94CD0BB394F6E0BF1631F06AE350
:102830008EED9CE20E94686BD4CF8EED9CE20E94EC
:10284000796B5301CE0185599F4F6C01FE01EF5BFF
:10285000FF4F7F018E010F581F4F9E0129583F4F98
:10286000A401BE0163587F4F8EED9CE20E94560D7D
:1028700060EC75E08EED9CE20E94436BBE016F5FE1
:102880007F4F8EED9CE20E94666B8EED9CE20E9473
:10289000796BA895C158DF4F88819981AA81BB8146
:1028A000CF57D040892B8A2B8B2B09F45EC06FEA5F
:1028B00075E08EED9CE20E94436B22EB33E065965F
:1028C0003FAF2EAF6597ED968CAD9DADAEADBFAD74
:1028D000ED9769968CAF9DAFAEAFBFAF69976B9622
:1028E0003FAF2EAF6B97E7968CAD9DADAEADBFAD54
:1028F000E7976F968CAF9DAFAEAFBFAF6F97A196C6
:102900003FAF2EAFA19727968CAD9DADAEADBFADBD
:102910002797A5968CAF9DAFAEAFBFAFA597A796F3
:102920003FAF2EAFA797C158DF4F88819981AA8109
:10293000BB81CF57D040AB968CAF9DAFAEAFBFAF92
:10294000AB97CE018D5A9F4F7C01085111099E0112
:10295000215A3F4FAE014B595F4FBE016D577F4F1C
:102960008DE89CE20E94F45A57C060EA75E08EED53
:102970009CE20E94436B88E10FB6F894809360005C
:10298000109260000FBE10EAE12E1FE0F12E00E071
:1029900010E020E63AEE40E050E0BE016D577F4F78
:1029A0008DE89CE20E944B5A892BB1F465E875E0F2
:1029B0008EED9CE20E94436B8EED9CE20E94446887
:1029C0002EE088E190E00FB6F894A895809360001F
:1029D0000FBE20936000FFCF29E288E190E00FB6A0
:1029E000F894A895809360000FBE209360006DE876
:1029F0007CE2CE018D5A9F4F0E94EB5B69968CADB5
:102A00009DADAEADBFAD699727968CAF9DAFAEAF14
:102A1000BFAF279710921701A8958981992787FD45
:102A200090950E944A6F892B09F492C0CE01875A73
:102A30009F4F0E94BB6AF3E0BF2EA12CA1E4EA2EB7
:102A4000F12CEC0EFD1E92E1E90EF11CB2EBCB2E47
:102A5000B3E0DB2E8E010F5B1F4FA895F80182813A
:102A60009381A481B5810097A105B10509F165960F
:102A7000DFAECEAE659769968CAF9DAFAEAFBFAF00
:102A80006997AE01475A5F4FBE016F5F7F4FCE011E
:102A90008D5A9F4F0E94100D019751F46F968CAD87
:102AA0009DADAEADBFAD6F97892B8A2B8B2B31F4CB
:102AB0000A5F1F4F0E151F0581F602C0AA24A394BA
:102AC000BA9441F6AA2099F182EB93E065969FAF04
:102AD0008EAF65976F968CAD9DADAEADBFAD6F9768
:102AE00069968CAF9DAFAEAFBFAF6997BE016F5F08
:102AF0007F4F8EED9CE20E94666B67E775E08EED7E
:102B00009CE20E94436BBE016D5A7F4F8EED9CE2AA
:102B10000E946F6B6F968CAD9DADAEADBFAD6F97E4
:102B2000E1968CAF9DAFAEAFBFAFE1970DC067E64A
:102B300075E08EED9CE20E94436BBE016F5F7F4F9C
:102B40008EED9CE20E94666B8EED9CE20E94796B9A
:102B5000E1968CAD9DADAEADBFADE197892B8A2BD3
:102B60008B2B09F056C06DE87CE2CE01875A9F4F4F
:102B70000E94A35B6F96CCACDDACEEACFFAC6F9764
:102B80006DE87CE2CE018D5A9F4F0E94BB5B699637
:102B90004CAD5DAD6EAD7FAD69974095509560953C
:102BA00070954C295D296E297F29CE01815A9F4F4E
:102BB0000E94D16AA5968CAD9DADAEADBFADA59777
:102BC000E1968CAF9DAFAEAFBFAFE19728E730E0A5
:102BD0003093892A2093882A22EB33E065963FAF11
:102BE0002EAF659769968CAF9DAFAEAFBFAF6997BB
:102BF00064E375E08EED9CE20E94436BBE016D5A6A
:102C00007F4F8EED9CE20E946F6B8EED9CE20E94E6
:102C1000796B62E275E08EED9CE20E94436B6DE899
:102C20007CE2CE018D5A9F4F0E94D35B6DE87CE21F
:102C3000CE01875A9F4F0E94BB5B6DE87CE2CE01BC
:102C4000815A9F4F0E94A35B5301CE0185599F4F2C
:102C50006C01FE01EF5BFF4F7F018E010D5A1F4F8C
:102C60009E01275A3F4FA401BE01615A7F4F8EED4E
:102C70009CE20E94560D8EED9CE20E94796B8EEDD7
:102C80009CE20E94446882EB93E065969FAF8EAF12
:102C90006597E1968CAD9DADAEADBFADE197699600
:102CA0008CAF9DAFAEAFBFAF6997E4E0EE2E0AE008
:102CB0009301AE014D5A5F4FB4018BE89AE20E9436
:102CC0000E64C457DF4F0FB6F894DEBF0FBECDBF02
:102CD000DF91CF911F910F91FF90EF90DF90CF90F8
:102CE000BF90AF909F908F907F906F9008950F93BB
:102CF0001F93CF93DF9300D000D000D0CDB7DEB7C5
:102D00008091DB2A882309F45CC08DE89CE20E9454
:102D10003F5B8C0166E175E08EED9CE20E94436BA7
:102D2000980133272230310551F13CF4211531054A
:102D300069F02130310569F029C02330310549F0AF
:102D40002430310519F562EF74E01BC063E175E0D2
:102D500018C061E075E08EED9CE20E947D6B8EED07
:102D60009CE20E9444682EE088E190E00FB6F8945F
:102D7000A895809360000FBE20936000FFCF69EF9D
:102D800074E08EED9CE20E947D6B1BC0802F90E072
:102D9000A0E0B0E089839A83AB83BC838AE090E0B3
:102DA0009E838D836FED74E08EED9CE20E94436BF9
:102DB000BE016F5F7F4F8EED9CE20E94CD0B0E94A3
:102DC000796B26960FB6F894DEBF0FBECDBFDF91AC
:102DD000CF911F910F9108952F923F924F925F9242
:102DE0006F927F928F929F92AF92BF92CF92DF921B
:102DF000EF92FF920F931F93CF93DF93CDB7DEB780
:102E0000E2970FB6F894DEBF0FBECDBF0E94FD0B58
:102E100029E288E190E00FB6F894A89580936000CD
:102E20000FBE2093600010E062E0812F0E943F6798
:102E30001F5F1032C9F78091DF2A8F3F41F061E0B8
:102E40000E943F6760E08091DF2A0E94786780914E
:102E5000DE2A8F3F41F061E00E943F6760E0809191
:102E6000DE2A0E9478678EE68EA78AE68FA78CE618
:102E700088AB81E08BA78CA78DA792E198A799A733
:102E80009AA78DA38EA38FA344E050E064ED70E079
:102E9000CE0181960E949C6F49A15AA16BA17CA191
:102EA000DB01CA01805C9241A109B109813E944EC7
:102EB000A340B10530F026E040E855E260E070E064
:102EC00001C026E08EED9CE20E94CB6884B78F7E25
:102ED00084BF8BB185608BB9E0E0F0E089E080933E
:102EE0005700D490E3E0F0E0809357008491E2E053
:102EF000F0E049E040935700449150E060E070E01A
:102F000049835A836B837C8300E110E01E830D8329
:102F100090E0A0E0B0E08B8B9C8BAD8BBE8B188FCC
:102F20000F8B8D2D90E0A0E0B0E08B8F9C8FAD8F4C
:102F3000BE8F18A30F8F66EB74E08EED9CE20E94AB
:102F4000436BBE01655E7F4F8EED9CE20E94CD0B10
:102F50007C0161EC74E00E94436BBE016D5E7F4FAB
:102F6000C7010E94CD0B7C016EEC74E00E94436BA4
:102F7000BE016F5F7F4FC7010E94CD0B0E94796B2E
:102F80004D2D4F70D42E8091D50490E0A0E0B0E09C
:102F900089839A83AB83BC831E830D83842F90E047
:102FA000A0E0B0E08B8B9C8BAD8BBE8B188F0F8B12
:102FB0006AE974E08EED9CE20E94436B61E070E090
:102FC00082E0D81611F060E070E04AE050E08EED4B
:102FD0009CE20E94446C64EA74E08EED9CE20E94E4
:102FE000436BBE016D5E7F4F8EED9CE20E94CD0B68
:102FF0008C016DEA74E00E94436BBE016F5F7F4FEE
:10300000C8010E94CD0B0E94796B60E474E08EEDE4
:103010009CE20E94436B8091D504857019F081E099
:103020008093DD2A61E084E00E943F6761E084E0F4
:103030000E94786761E08AE00E943F6761E08AE071
:103040000E94786761E08EE00E943F6761E08EE059
:103050000E9478678091DF2A8F3F61F180E690E0DF
:103060000E94B46F8C0164E374E08EED9CE20E94D8
:10307000436B4AE050E0B8018EED9CE20E94446C44
:103080008EED9CE20E94796B82E690E00E94B46F24
:103090008C0168E274E08EED9CE20E94436B4AE092
:1030A00050E0B8018EED9CE20E94446C8EED9CE2F3
:1030B0000E94796B6DE174E08EED9CE20E94436B9F
:1030C000B7E0EB2EB1E0FB2E00E210E080E1C82E6D
:1030D000D12CC8010E94AC6FF70181937F01482F6A
:1030E00050E060E070E049835A836B837C83DE822A
:1030F000CD8260E28EED9CE20E94686BBE016F5F44
:103100007F4F8EED9CE20E94CD0B0F5F1F4F00336F
:103110001105F9F68EED9CE20E94796B89EE9AE238
:103120000E94BB2540E150E060E270E087E091E062
:103130000E949C6F80E390E00E94B46F9093AA2B52
:103140008093A92B61E089E00E943F6761E089E0FC
:103150000E94786760911B0170911C0180911D0194
:1031600090911E010E94616600E010E0C801C296C5
:103170000E94AC6F18163CF4EEE2F0E0EC0FFD1F7D
:10318000E00FF11F8083C801C5960E94AC6F9FEFCE
:10319000980F943038F4EBE2F0E0EC0FFD1FE00FF5
:1031A000F11F8083C8018A589F4F0E94AC6F9FEF28
:1031B000980F923138F4E8E2F0E0EC0FFD1FE00FD9
:1031C000F11F8083C80187589F4F0E94AC6F9FEF0B
:1031D000980F983038F4E5E2F0E0EC0FFD1FE00FB7
:1031E000F11F80830F5F1F4F0330110509F0BECF21
:1031F00084E490E00E94AC6F782E8FEF870D8031D1
:1032000010F07724739485E490E00E94AC6FD82E80
:10321000FFEF8F1302C0DD24D39486E490E00E9478
:10322000AC6F91E0811101C090E09093F304809124
:103230009029882309F4B1C06FE074E08EED9CE220
:103240000E94436B63EE73E08EED9CE20E947D6B07
:10325000CE0185967C018E01085D1F4F9E01255D84
:103260003F4FAE01425D5F4F69E081E999E20E9404
:103270007433D1FA662460F82D2D217029AB709239
:10328000852A2093862A6092872AFCE9AF2EF9E2EC
:10329000BF2ECE018B966C01FE01BE962F0100E081
:1032A00010E0A0E12A2E312CF50181915F018823E5
:1032B00029F0E9ED8E2EE3E09E2E04C07FEC872EF0
:1032C00073E0972EF60121916F01F20181912F0198
:1032D00090E0A0E0B0E089839A83AB83BC833E8218
:1032E0002D826EEB73E08EED9CE22AAB0E94436B65
:1032F0004AE050E0B8018EED9CE20E94446C63EC21
:1033000073E08EED9CE20E94436BBE016F5F7F4FC6
:103310008EED9CE20E94CD0B7C0169EC73E00E9473
:10332000436B4AE050E02AA9622FC7010E94596C02
:10333000B401C7010E94436B0F5F1F4F033011059B
:1033400009F0B2CF64EA73E08EED9CE20E94436B19
:103350004AE050E0672D8EED9CE20E94596C61EBD3
:1033600073E08EED9CE20E94436B662031F06BE9C6
:1033700073E08EED9CE20E94436B29A9222319F091
:1033800063E973E002C06DE873E08EED9CE20E9499
:10339000436B8EED9CE20E94446863EE73E08EED19
:1033A0009CE20E94436B80919029811106C06AE0E3
:1033B00074E08EED9CE20E94436B61E074E08EED60
:1033C0009CE20E947D6B809190298823D1F063EE6E
:1033D00073E08EED9CE20E94436B6AEE73E08EED2B
:1033E0009CE20E94436B40911B0150911C01609133
:1033F0001D0170911E012AE030E08EED9CE20E94DA
:10340000936C809167298823A9F06FE074E08EEDBA
:103410009CE20E94436B64E873E08EED9CE20E94A4
:103420007D6B82E08093812988E699E20E942544A1
:103430008093672964E873E08EED9CE20E94436B01
:1034400080916729811106C06AE074E08EED9CE2EC
:103450000E94436B61E074E08EED9CE20E947D6B04
:10346000809167298823D1F064E873E08EED9CE2B7
:103470000E94436B6AEE73E08EED9CE20E94436B08
:1034800040911F0150912001609121017091220112
:103490002AE030E08EED9CE20E94936C80914129FD
:1034A0008823A9F06FE074E08EED9CE20E94436BEC
:1034B0006CE773E08EED9CE20E947D6B2FEF4DE197
:1034C0006CE182E499E20E944046809341296CE7D6
:1034D00073E08EED9CE20E94436B80914129811143
:1034E00006C06AE074E08EED9CE20E94436B61E0EE
:1034F00074E08EED9CE20E947D6B8AE390E00E9476
:10350000AC6F8F3F19F08093DB2A02C01092DB2A48
:103510008EE490E00E94AC6F8F3F09F481E0EE24CE
:10352000E3949091DB2A923008F4E12C082F2EE1ED
:1035300047E062E087E09CE20E94EE4763E673E0CA
:103540008EED9CE20E94436B8EED9CE20E944468EB
:1035500042E060EE7AE28CE19CE20E940C4C88230F
:10356000E9F080911C2C90E0A0E0B0E089839A8380
:10357000AB83BC8380E190E09E838D836BE473E03A
:103580008EED9CE20E94436BBE016F5F7F4F8EED1C
:103590009CE20E94CD0B0E94796B06C06DE373E044
:1035A0008EED9CE20E94436B8EED9CE20E9444688B
:1035B00061E08CE19CE20E94844D8BE490E00E94EB
:1035C000AC6F682F8CE19CE20E94E44B8CE19CE2A2
:1035D0000E949D4C80911D2C90911E2C019721F5ED
:1035E0008CE19CE20E94AD4D992787FD9095A92F13
:1035F000B92F89839A83AB83BC838AE090E09E8352
:103600008D8366E273E08EED9CE20E94436BBE0107
:103610006F5F7F4F8EED9CE20E94CD0B0E94796B15
:103620008EED9CE20E94446860E08FE00E943F675C
:103630006CE073E08EED9CE20E94436B8EED9CE2A9
:103640000E94446861E070E08CE19CE20E945D4D64
:1036500026E041E060E170E083E09CE20E94583C9B
:1036600080E190E090931505809314056DEF72E072
:103670008EED9CE20E94436B4AE050E060E170E016
:103680008EED9CE20E94776C6EEF71E08EED9CE215
:103690000E94666B40E050E0BE016F5F7F4F8CE19F
:1036A0009CE20E94154E882319F1CE0143960E9498
:1036B000353BCE0101960E9466496B8B7C8B8D8BCE
:1036C0009E8BCE0143960E94543BBE016D5E7F4FA0
:1036D00083E09CE20E94ED3988E0FE017396A6EB40
:1036E000B6E001900D928A95E1F769ED72E002C0B3
:1036F00063EB72E08EED9CE20E94436B8EED9CE2E8
:103700000E9444688091DB2A823001F50E943413C4
:103710000E94DF6581E1809318018BE89AE2909323
:10372000CB088093CA0881E08093DD2A81E090E095
:10373000A0E0B0E08093FC049093FD04A093FE040D
:10374000B093FF048CEF94E00E94543B8091DB2AFD
:10375000811122C062E072E08EED9CE20E948F6BCC
:1037600026E040E855E260E070E08BE79DE20E94D1
:10377000CB688CE090E09093EE288093ED2825E0D4
:1037800047E167E08EEB9AE20E94E64F8EEB9AE209
:103790009093CB088093CA0882E490E00E94B46FB3
:1037A0009C01215031092E3F3F4F00F58C010F70D5
:1037B0001127102F0027110F110F110F20E030E0FB
:1037C000AC015F7064E0569547956A95E1F760E05B
:1037D00070E0CE0143960E94493C88E0FE0173965A
:1037E000A4E0B5E001900D928A95E1F76CEF74E0EA
:1037F00084E095E00E946A3D882321F088E0ECEFA8
:10380000F4E00BC064E075E084EF94E00E946A3D50
:10381000882349F088E0E4EFF4E0A4E0B5E001900B
:103820000D928A95E1F7C0900805D0900905E090C7
:103830000A05F0900B050091190110911A01809072
:10384000040590900505A0900605B09007056BE96A
:1038500072E08EED9CE20E94436B2AE030E0B501FD
:10386000A4018EED9CE20E94FA6BB8018EED9CE201
:103870000E94666B2AE030E0B701A6018EED9CE263
:103880000E94FA6B8EED9CE20E94796B8EED9CE2B9
:103890000E94446861E0809118010E943F6760E0E7
:1038A000809118010E94786787E091E09093EC087E
:1038B0008093EB0880E18093EA086CE872E08EED7B
:1038C0009CE20E947D6B8EED9CE20E9444680E9407
:1038D0000A0CE2960FB6F894DEBF0FBECDBFDF91A3
:1038E000CF911F910F91FF90EF90DF90CF90BF90FD
:1038F000AF909F908F907F906F905F904F903F9090
:103900002F9008953F924F925F926F927F928F9285
:103910009F92AF92BF92CF92DF92EF92FF920F935E
:103920001F93CF93DF93CDB7DEB7C254D2400FB60B
:10393000F894DEBF0FBECDBFA89580910501882306
:1039400019F081E08093D6048091D6048823E1F1B8
:103950006CEC73E083E09CE20E94E33B8091902951
:10396000882351F08091912990919229009709F430
:1039700091C0099709F48EC08091682990916929B6
:10398000009709F4BDC0079709F4BAC08091442993
:1039900090914529009709F4B8C0059709F4B5C07E
:1039A0008091072C9091082C009709F4B3C00797D9
:1039B00009F4B0C01092D6041092D40365E772E007
:1039C0008EED9CE20E94436B80910501882321F0DB
:1039D000109205010E940A0C80919029882321F001
:1039E00081E999E20E94CF3580916729882321F0EF
:1039F00088E699E20E94154580914129882321F0AB
:103A000082E499E20E94D74687E09CE20E945248F5
:103A100040E951E066E275E08EEB96E00E94F20824
:103A2000892B31F060E971E086E295E00E94A90CF3
:103A30006EED7CE28FEE98E20E94930580919029D2
:103A4000882339F08091912990919229099709F062
:103A500016C680916729882339F080916829909152
:103A60006929079709F00BC680914129882339F00D
:103A70008091442990914529059709F000C68091CD
:103A8000072C9091082C009709F449C0079709F07A
:103A9000F6C545C001E010E01093922900939129EA
:103AA00061E0809194290E94786780911B01909138
:103AB0001C01A0911D01B0911E0180939F2990933C
:103AC000A029A093A129B093A2291093A82900931B
:103AD000A7290E94326600919F291091A029209168
:103AE000A1293091A229600F711F821F931F60933B
:103AF000A3297093A4298093A5299093A6293CCF4C
:103B000088E699E20E94434441CF82E499E20E9410
:103B1000844646CF87E09CE20E9418484BCF8091B4
:103B2000D4038111A3C481E08093D40300910E2CAF
:103B300010910F2CC090D003D090D103E090D2030D
:103B4000F090D303A0901901B0901A014090CC03DB
:103B50005090CD036090CE037090CF0369E572E082
:103B60008EED9CE20E94436B2AE030E0B301A2019B
:103B70008EED9CE20E94FA6BB5018EED9CE20E94F4
:103B8000666B2AE030E0B701A6018EED9CE20E9450
:103B9000FA6B65E672E08EED9CE20E94436B4AE0B0
:103BA00050E0B8018EED9CE20E94446C8091902917
:103BB000882389F00091B7291091B82969E472E04F
:103BC0008EED9CE20E94436B4AE050E0B8018EED1E
:103BD0009CE20E94446C8EED9CE20E94796B809185
:103BE0000C2C8823A9F00091102C1091112C68E363
:103BF00072E08EED9CE20E94436B4AE050E0B80117
:103C00008EED9CE20E94776C8EED9CE20E94796BB7
:103C1000809167298823D9F100916F29109170292B
:103C2000E0906D29F0906E2961E272E08EED9CE2E9
:103C30000E94436B4AE050E0B7018EED9CE20E9487
:103C4000446C6CE272E08EED9CE20E94436B4AE0B1
:103C500050E0B8018EED9CE20E94446C8091732983
:103C6000882389F0009171291091722965E172E031
:103C70008EED9CE20E94436B4AE050E0B8018EED6D
:103C80009CE20E94446C8EED9CE20E94796B8091D4
:103C90004129882331F10091582910915929E09048
:103CA0005A29F0905B296FEF71E08EED9CE20E9443
:103CB000436B4AE050E0B7018EED9CE20E94776CC6
:103CC0006AE072E08EED9CE20E94436B4AE050E0B5
:103CD000B8018EED9CE20E94446C8EED9CE20E9445
:103CE000796B80919029811106C080918A2A8B304E
:103CF00009F07DC037C09CE9A92E99E2B92E09EBE5
:103D000019E2912CD5018D915D01882321F1F801F3
:103D1000C080D180E280F38062EF71E08EED9CE2A2
:103D20000E94436B4AE050E0692D8EED9CE20E94B8
:103D3000596C6BEF71E08EED9CE20E94436B2AE0C0
:103D400030E0B701A6018EED9CE20E94FA6B8EED89
:103D50009CE20E94796B93940C5F1F4FF3E09F12DB
:103D6000D1CFC3CF80919029882309F440C01CE9AA
:103D7000812E19E2912E01E9A02E09E2B02E88E5EC
:103D8000782ED4018D914D01882351F1672D8EED50
:103D90009CE20E94686B6AE38EED9CE20E94686B75
:103DA00000E010E0F501E00FF11FC4A8D5A8E6A8D7
:103DB000F7A860E28EED9CE20E94686B2AE030E09A
:103DC000B701A6018EED9CE20E94FA6B0C5F1F4FBB
:103DD0000034110539F76AE08EED9CE20E94686BB1
:103DE000B0E4AB0EB11C7394EBE57E12CACFD09059
:103DF000DF2A8FEFD81641F180E690E00E94B46F81
:103E00008C0182E690E00E94B46F7C01F694E79406
:103E100098012E0D3F1D40910E2C50910F2C241710
:103E2000350724F461E08D2D0E9478670E191F0973
:103E300080910E2C90910F2C801791072CF460E04C
:103E40008091DF2A0E947867CE018D5E9D4F0E948F
:103E50002B2F87E091E0C05EDD4F99838883C052AD
:103E6000D24080E1C15EDD4F8883CF51D240909136
:103E70000401CC5EDD4F8881C451D240992311F0FA
:103E8000826001C08D7FCC5EDD4F8883C451D240FB
:103E90002091D0033091D1038091CC039091CD0338
:103EA000A091CE03B091CF03C95EDD4F8883998383
:103EB000AA83BB83C751D240C55EDD4F39832883B7
:103EC000CB51D24040E052E0BE016F5F7F4FCE0148
:103ED0008D5E9D4F0E94962F0D8110E0102F0027C0
:103EE0008E81080F111D62EE71E08EED9CE20E9442
:103EF000436B4AE050E0B8018EED9CE20E94776C83
:103F00008EED9CE20E94796B80919029882309F4C0
:103F100070C09090852A8090862A3090872A7CE90C
:103F2000472E79E2572EE5ECAE2EE9E2BE2EF9EBF4
:103F30006F2EF9E27F2E10E0D2018D912D018823A2
:103F4000F1F0F301C080D180E280F380FD0135976C
:103F500000810F70212F40E052E0BE016F5F7F4F64
:103F6000CE018D5E9D4F0E94EC2F8091F30488233B
:103F700031F080EE98E00E94656581113BC31F5FC0
:103F8000F0E4AF0EB11C84E0680E711C1330A1F692
:103F90008091B7299091B829C05CDD4F99838883BF
:103FA000C054D2408E01005C1D4F23E040E052E03F
:103FB000BE016F5F7F4FCE018D5E9D4F0E943430FA
:103FC000832D90E0880F991F99298829C25CDD4FC5
:103FD00099838883CE53D2400250110923E140E0F7
:103FE00052E0BE016F5F7F4FCE018D5E9D4F0E94FC
:103FF000343080910E2C90910F2CC45CDD4F99834E
:104000008883CC53D2408E01045C1D4F24E040E0F5
:1040100052E0BE016F5F7F4FCE018D5E9D4F0E94CB
:10402000343080910C2C8823B9F08091102C909121
:10403000112CC65CDD4F99838883CA53D24002504D
:10404000110925E040E052E0BE016F5F7F4FCE01D5
:104050008D5E9D4F0E9434302091040530910505FE
:1040600044E0220F331F4A95E1F7809108059091B3
:104070000905A0910A05B0910B055BE0B595A795E0
:10408000979587955A95D1F7282B392BC85CDD4F2A
:1040900039832883C853D2408E01085C1D4F28E025
:1040A00040E052E0BE016F5F7F4FCE018D5E9D4FBD
:1040B0000E94343080916729882309F449C0809197
:1040C0006D2990916E29CA5CDD4F99838883C65310
:1040D000D2400250110928E140E052E0BE016F5F7A
:1040E0007F4FCE018D5E9D4F0E94343080916F29AD
:1040F00090917029CC5CDD4F99838883C453D24062
:104100000250110929E140E052E0BE016F5F7F4F8C
:10411000CE018D5E9D4F0E9434308091732988239B
:10412000B9F08091712990917229CE5CDD4F99830D
:104130008883C253D240025011092AE140E052E084
:10414000BE016F5F7F4FCE018D5E9D4F0E94343068
:1041500080914129882379F180915829909159299A
:10416000C05DDD4F99838883C053D2408E01005DCE
:104170001D4F2BE140E052E0BE016F5F7F4FCE014B
:104180008D5E9D4F0E94343080915A2990915B2919
:10419000C25DDD4F99838883CE52D240025011090F
:1041A0002CE140E052E0BE016F5F7F4FCE018D5E9B
:1041B0009D4F0E943430809106018823B1F0809198
:1041C000D504CE5BDD4F8883C254D2408E010E5B96
:1041D0001D4F27E040E052E0BE016F5F7F4FCE01F0
:1041E0008D5E9D4F0E94343004C08091F20488237C
:1041F00069F006E112E02DE040E052E0BE016F5FA1
:104200007F4FCE018D5E9D4F0E94673000E010E031
:10421000980140E050E0BA01CE018F5F9D4F0E94AF
:10422000493CBE016F5F7D4F86E195E00E94443DB1
:10423000811116C0E0901A05F0901B05009116053B
:1042400010911705209118053091190540E052E0B2
:10425000BE016F5F7F4FCE018D5E9D4F0E94013189
:104260000091D7041091D8040115110519F169ECDA
:1042700071E08EED9CE20E94436B4AE050E0B80191
:104280008EED9CE20E94776C8EED9CE20E94796B31
:104290000091D7041091D8042091D9043091DA0408
:1042A00040E052E0BE016F5F7F4FCE018D5E9D4FBB
:1042B0000E944D312091ED283091EE2840E052E0EF
:1042C000BE016F5F7F4FCE018D5E9D4F0E945632C3
:1042D0004D8150E0542F44278E81480F511DBE015F
:1042E0006F5F7F4F8EEB96E00E94E6071091DC2A0D
:1042F0001F5F1093DC2A8091DD2A882381F08AE4F5
:1043000090E00E94AC6F882321F0181710F01092F3
:10431000DD2A6091DD2A809118010E94786740E0D3
:1043200050E0BE016F5F7D4F8CE19CE20E94154E14
:10433000CE018F5F9D4F0E9466496B017C01CE01CB
:104340008E5D9D4F0E94353BBE016E5D7D4F83E0CB
:104350009CE20E94E33BCE5DDD4F488159816A813A
:104360007B81C252D240D701C601841B950BA60B9C
:10437000B70BB7FF07C0B095A095909581959F4F5B
:10438000AF4FBF4F0397A105B105FCF0C65DDD4FF0
:10439000488359836A837B83CA52D240BE016F5FD0
:1043A0007D4FCE01865D9D4F0E94A04A40E050E0C7
:1043B000BE016F5F7D4F8CE19CE20E94BB4C6CEBB9
:1043C00071E08EED9CE20E947D6BCE5DDD4F8881B9
:1043D0009981AA81BB81C252D2404091B6065091C8
:1043E000B7066091B8067091B906841B950BA60BB1
:1043F000B70B0091882A1091892AA80160E070E02B
:10440000481759076A077B071CF566EB71E08EEDCC
:104410009CE20E94436B4AE050E0B8018EED9CE2C2
:104420000E94776C67E971E08EED9CE20E947D6BE3
:104430008EED9CE20E94446829E288E190E00FB68C
:10444000F894A895809360000FBE20936000FFCF82
:10445000B7FF0AC088E0FE01EE5DFD4FA6EBB6E0B7
:1044600001900D928A95E1F70E9477168091D6040B
:104470008111AAC08091E104882309F4A5C020918C
:10448000DB043091DC048091DF049091E004281774
:10449000390708F099C080EE98E00E94656588238E
:1044A00009F492C08091C8089091C908892B09F03D
:1044B0008BC08091AB2B8F5F8093AB2BCE018F5F36
:1044C0009D4F0E942B2F87E091E0C25FDD4F9983C3
:1044D0008883CE50D24080E1C35FDD4F8883CD50CA
:1044E000D240CE018D5E9D4F0E94353BBE016D5E78
:1044F0007D4F83E09CE20E94E33BC95EDD4F288153
:104500003981C751D240CD5EDD4F88819981AA8122
:10451000BB81C351D240CB5FDD4F88839983AA838F
:10452000BB83C550D240C75FDD4F39832883C95054
:10453000D24040E051E0BE016F5F7F4FCE018F5F00
:104540009D4F0E94962F0091DB041091DC0421EE18
:1045500034E040E051E0BE016F5F7F4FCE018F5FDE
:104560009D4F0E94C6302091ED283091EE2840E00A
:1045700051E0BE016F5F7F4FCE018F5F9D4F0E9464
:1045800056324D8150E0542F44278E81480F511DE3
:10459000BE016F5F7F4F8EEB96E00E94E6071091A1
:1045A000DC2A1F5F1093DC2A8091DD2A882361F0CA
:1045B0008AE490E00E94AC6F81112CC06091DD2AEA
:1045C000809118010E9478678091D604811157C0AC
:1045D00080EE98E00E9465652091C8083091C90876
:1045E000882319F021153105D1F02430310509F067
:1045F00046C015C06501E92C04E025E1210F40E02B
:1046000052E0BE016F5F7F4FCE018D5E9D4F0E94D5
:10461000B531B5CC181790F21092DD2ACFCF80912A
:10462000CA089091CB08DC01ED91FC910684F785D6
:10463000E02D0995882319F1809117018823F9F05D
:104640006CE075E084E095E00E946A3D811117C03E
:104650006FE871E08EED9CE20E94436B8EED9CE270
:104660000E94446886E00E944F0C67E871E08EED7E
:104670009CE20E94436B8EED9CE20E944468CE5BFC
:10468000DD4F0FB6F894DEBF0FBECDBFDF91CF91E7
:104690001F910F91FF90EF90DF90CF90BF90AF9060
:1046A0009F908F907F906F905F904F903F90089574
:1046B0008091E82A811115C08CE890EFA1E0B0E06C
:1046C000ABBFFC0187919791A791B691883539F4DA
:1046D000923429F4AA3619F4B093E82A02C081E092
:1046E000089580E00895CF92DF92EF92FF926B01E0
:1046F0007C010E94582381111AC08091E82A8130E0
:10470000A9F484E990EFA1E0B0E0ABBFFC012791F0
:104710003691C90101978E3F9F4F40F4C701B60102
:10472000F901FF90EF90DF90CF90099482E0FF9025
:10473000EF90DF90CF900895CF92DF92EF92FF92AB
:10474000CF93DF9300D01F92CDB7DEB76B017C0112
:104750002B8349835A830E9458232B8149815A8194
:1047600081111FC08091E82A8130D1F486E990EF51
:10477000A1E0B0E0ABBFFC01A791B691CD010197DC
:104780008E3F9F4F68F4C701B601FD010F900F9057
:104790000F90DF91CF91FF90EF90DF90CF90099431
:1047A00082E00F900F900F90DF91CF91FF90EF90EC
:1047B000DF90CF900895CF92DF92EF92FF920E9408
:1047C0005823811131C08091E82A813061F58AE94E
:1047D00090EFA1E0B0E0ABBFFC01879196919C0106
:1047E000215031092E3F3F4FC0F0C12C88EFD82E09
:1047F000E12CF12CC701B6010E947323811114C072
:104800008FEFD81AE80AF80AC114E0EFDE06E1E0FB
:10481000EE06F10479F780E007C0FC01FF90EF900D
:10482000DF90CF90099482E0FF90EF90DF90CF90DF
:104830000895CF92DF92EF92FF92CF93DF9300D053
:104840001F92CDB7DEB76B017C012B8349835A835E
:104850000E9458232B8149815A8181112FC0809158
:10486000E82A813051F58CE990EFA1E0B0E0ABBFD0
:10487000FC01A791B691CD0101978E3F9F4F80F02B
:10488000C701B60178508F4F9F4F0F900F900F9038
:10489000DF91CF91FF90EF90DF90CF900C949C230D
:1048A000C701B601FD010F900F900F90DF91CF91DE
:1048B000FF90EF90DF90CF90099482E00F900F90DF
:1048C0000F90DF91CF91FF90EF90DF90CF90089500
:1048D000CF92DF92EF92FF920F931F93260F371F15
:1048E000481F591FA0E0B0E06217730784079507BF
:1048F00009F424C06B017C01EFEFCE1ADE0AEE0A48
:10490000FE0A8BBFFB016791A6276A2F62956A2773
:10491000062E669566956025062E6695602567705D
:104920000A2EAB2F669507946795B02DA62706949F
:104930006795B025A627C701B601D6CFF801B18388
:10494000A08380E01F910F91FF90EF90DF90CF90B8
:1049500008950F931F938C0120E038EF40E050E062
:1049600060E078EF80E090E00E9468241F910F9152
:1049700008950F931F93CF93DF93CDB7DEB7DA95EA
:104980000FB6F894DEBF0FBECDBFDE01119600E07A
:104990001FEE21E030E0AD012BBFF80167916D9370
:1049A0000F5F1F4F2F4F3F4F011560EF160761E05C
:1049B0002607310589F728E5C550DF4F2883CB5FEF
:1049C000D04022E4C450DF4F2883CC5FD04029E49C
:1049D000C350DF4F2883CD5FD04026E4C250DF4F65
:1049E0002883CE5FD040C150DF4F9883CF5FD04047
:1049F000C050DF4F8883C050D14021E060E077EFA6
:104A000080E090E00E941924D3950FB6F894DEBFA1
:104A10000FBECDBFDF91CF911F910F910895F894F4
:104A200088E10FB6F89480936000109260000FBE8A
:104A300028E088E190E00FB6F894A8958093600094
:104A40000FBE20936000FFCF8091192B90E0209142
:104A50001A2B821B9109089520911A2B8091192BF2
:104A6000281750F4E22FF0E0E55EF44D808190E0ED
:104A70002F5F20931A2B08958FEF9FEF0895E091F9
:104A80001A2B8091192BE81730F4F0E0E55EF44D15
:104A9000808190E008958FEF9FEF08950895CF9261
:104AA000DF92EF92FF920F931F93CF93DF937C01DE
:104AB000CB018A012091F52A222389F0EB016B01B9
:104AC000C40ED51ECC15DD0569F06991D701ED91B5
:104AD000FC910190F081E02DC7010995F3CF642F7F
:104AE0000E940C27C801DF91CF911F910F91FF9079
:104AF000EF90DF90CF900895CF93DF931F92CDB7C3
:104B0000DEB769832091F52A2223D1F02091F62A7D
:104B1000203240F021E030E0FC013383228380E04A
:104B200090E015C08091F72AE82FF0E0E850F54DAD
:104B3000998190838F5F8093F72A8093F62A05C02E
:104B400061E0CE0101960E940C2781E090E00F9079
:104B5000DF91CF910895FC011382128248EE53E059
:104B600060E070E044835583668377838CE292E053
:104B700091838083089510921A2B1092192B109212
:104B8000F72A1092F62A0C944F2681E08093F52A9A
:104B90006093182B1092F72A1092F62A08950C941D
:104BA000C5250F93062F21E04091F62A68EF7AE29F
:104BB0008091182B0E94B5261092F72A1092F62A9F
:104BC0001092F52A0F9108958F929F92AF92BF9203
:104BD000CF92DF92EF92FF920F931F93CF93DF93C9
:104BE000EC01F62ED42E48015901EE2019F10E9455
:104BF000C5251E2D143008F013E01150B8F0E881DF
:104C0000F98128E0129FB0011124A501940104C08C
:104C100056954795379527956A95D2F7CA01B901F8
:104C20000190F081E02DCE010995E7CF60E0CE0143
:104C30000E94D1254D2D413208F040E22C2D6BE130
:104C40007BE28F2D0E946D2610921A2B8093192BD8
:104C5000DF91CF911F910F91FF90EF90DF90CF9058
:104C6000BF90AF909F908F900895CF92EF920F9347
:104C70001F93C22EE12C00E010E098010E94E42571
:104C80001F910F91EF90CF90089521E00C9435265D
:104C900061E00C94D12589EE9AE20C94AB25109238
:104CA000A82B81E08093A62B1092A52B61E084E1D4
:104CB0000E94786761E085E10E947867E9EBF0E0A7
:104CC00080818E7F808380818D7F808380E280934E
:104CD000B80085E48093BC000895413208F043C0D9
:104CE0009091A82B9111FCCF91E09093A82B209349
:104CF000A62B2FEF20933B2B1092802B240F209379
:104D00007F2B9093A72B9091A72B880F892B8093B3
:104D1000A72B8091A52B813061F41092A52B809157
:104D2000A72B8093BB008091BC0083FDF8CF85EC5E
:104D300001C085EE8093BC008091A82B8130E1F307
:104D40008091802B841710F44091802B21E83BE266
:104D5000FB01D9018A2F821B841718F48D9181934E
:104D6000F9CF842F089580E008950F93413208F021
:104D70004AC09091A82B9111FCCF92E09093A82B60
:104D80000093A62B9FEF90933B2B1092802B409388
:104D90007F2BFB0161E87BE2DB019A2F961B9417C6
:104DA00018F491919D93F9CF1092A72B9091A72B76
:104DB000880F892B8093A72B8091A52B813061F4DC
:104DC0001092A52B8091A72B8093BB008091BC00F3
:104DD00083FDF8CF85EC01C085EE8093BC002223D3
:104DE00021F08091A82B8230E1F380913B2B8F3F03
:104DF00061F080913B2B803251F080913B2B8033CE
:104E000041F483E007C081E005C080E003C082E098
:104E100001C084E00F910895613298F42091A82B8D
:104E2000243089F460935D2BFC018FE59BE2DC016B
:104E30002A2F281B261718F421912D93F9CF80E0F3
:104E4000089581E0089582E0089585ED8093BC0087
:104E50008091BC0084FDFCCF1092A82B089585ECB6
:104E60008093BC001092A82B08951F920F920FB64A
:104E70000F9211240BB60F922F933F934F935F9392
:104E80006F937F938F939F93AF93BF93EF93FF9312
:104E90008091B900887F803609F49EC078F5883209
:104EA00009F45DC090F4803109F456C038F48823C9
:104EB00009F4F5C0883009F44FC0F5C0883109F411
:104EC0004EC0803209F45FC0EEC0803409F46AC07D
:104ED00058F4803309F457C0883309F0E4C0809354
:104EE0003B2B0E942F27DFC0803509F44FC0883547
:104EF00009F45DC0883409F0D6C0D3C0883909F4FC
:104F0000C4C0A8F4883709F467C038F4883609F4B7
:104F100063C0803709F460C0C6C0883809F4B5C0E2
:104F2000803909F45FC0803809F0BDC05BC0803BA8
:104F300009F483C038F4803A09F466C0883A09F469
:104F40007CC0B1C0803C09F4A4C0883C09F4A1C075
:104F5000883B09F487C0A7C08091A72B10C090910F
:104F6000802B80917F2B981770F5E091802B81E04A
:104F70008E0F8093802BF0E0EF57F44D808180936B
:104F8000BB0085EC83C080933B2B8BC0E091802BD2
:104F900081E08E0F8093802B8091BB00F0E0EF5773
:104FA000F44D80839091802B80917F2B6BC0E0919A
:104FB000802B81E08E0F8093802B8091BB00F0E0EE
:104FC000EF57F44D80838091A62B81116AC081E058
:104FD0008093A52B84EA5EC083E08093A82B109277
:104FE0003C2BCFCF80913C2B803208F04EC0E0911B
:104FF0003C2B81E08E0F80933C2B8091BB00F0E036
:10500000E35CF44D8083BDCF0E942F2780913C2B21
:10501000803230F4E0913C2BF0E0E35CF44D108200
:1050200060913C2B70E0E091A12BF091A22B8DE3DD
:105030009BE2099510923C2B36C084E08093A82B0C
:1050400010925E2B10925D2BE091A32BF091A42B7C
:10505000099580915D2B811105C081E080935D2BC6
:1050600010925F2BE0915E2B81E08E0F80935E2B80
:10507000F0E0E15AF44D80818093BB0090915E2B6B
:1050800080915D2B981708F47CCF85E88093BC0055
:105090000AC085EC8093BC001092A82B04C010922B
:1050A0003B2B0E942527FF91EF91BF91AF919F91DC
:1050B0008F917F916F915F914F913F912F910F90C1
:1050C0000BBE0F900FBE0F901F9018952F923F921E
:1050D0004F925F926F927F928F929F92AF92BF9208
:1050E000CF92DF92EF92FF920F931F93CF93DF93B4
:1050F000CDB7DEB7C855D1090FB6F894DEBF0FBEE5
:10510000CDBF5C014901170128018E010F5F1F4FC0
:1051100080E4F80111928A95E9F74130F2E05F07E7
:1051200038F09A0140E050E0C8010E94E22C0AC029
:10513000495F5F4FE3E056954795EA95E1F7C8016F
:105140000E94656F6E0181E4C80ED11CF80196E3E0
:10515000808189278193EC15FD05D1F7C6010E9456
:10516000702AB801C6010E94962AA2019101340159
:105170002115F2E03F074105510518F1B301C601C1
:1051800066962FAF669767963FAF679768964FAF63
:10519000689769965FAF69970E94962AE0E46E0E61
:1051A000711C66962FAD669767963FAD67976896B8
:1051B0004FAD689769965FAD6997325041095109C3
:1051C000D7CFB201A101517066277727D201C10163
:1051D00029E0B695A795979587952A95D1F71C0153
:1051E00036E0220C331C3A95E1F7280C391CB1014A
:1051F000C6010E94242C48019AE6F4018081892787
:1052000081934F01EC15FD05C1F7BF01C5010E9457
:10521000DA2CC4010E94702AB801C4010E94962AA7
:1052200040E850E0B501C4010E94242CB401C5013E
:105230000E94DA2CC85ADF4F0FB6F894DEBF0FBEBB
:10524000CDBFDF91CF911F910F91FF90EF90DF9035
:10525000CF90BF90AF909F908F907F906F905F9016
:105260004F903F902F9008958F929F92AF92BF9250
:10527000EF92FF920F931F934B015C016095709525
:10528000809590956E217F218023912328213921BB
:105290004A215B21622B732B842B952B1F910F913D
:1052A000FF90EF90BF90AF909F908F9008958F9256
:1052B0009F92AF92BF92EF92FF920F931F934B0179
:1052C0005C01C801B7016095709580959095622347
:1052D0007323842395238E209F20A022B122682946
:1052E00079298A299B291F910F91FF90EF90BF90F8
:1052F000AF909F908F900895EF92FF920F931F931E
:105300002E253F254027512726273727482759276D
:10531000CA01B9011F910F91FF90EF900895EF928C
:10532000FF920F931F93E094F09400951095E62A56
:10533000F72A082B192BE226F32604271527C80184
:10534000B7011F910F91FF90EF9008952F923F9218
:105350004F925F926F927F928F929F92AF92BF9285
:10536000CF92DF92EF92FF920F931F93CF93DF9331
:10537000CDB7DEB760970FB6F894DEBF0FBECDBFD6
:105380004B01322E202E28E0E4E2F1E0DE011196FE
:1053900001900D922A95E1F74370642F70E05C0153
:1053A00024E0429FA00CB11C1124D5014D905D90CA
:1053B0006D907C906B01BFEFCB1ADB0AE3E0CE224D
:1053C000DD24CC0CDD1CCC0CDD1CC80ED91EFE016E
:1053D0003196EE0DF11DEE0DF11D9B012D5F3F4F3E
:1053E00023703327220F331F220F331F280F391F3B
:1053F000D901ED90FD900D911C91DB011296A370E7
:10540000BB27AA0FBB1FAA0FBB1FA80FB91F2D9147
:105410003D914D915C91D6016D917D918D919C91C5
:105420000190F081E02D0995B4E02B9EF00111244C
:10543000E352F84F2591359145915491D401ED9067
:10544000FD900D911C91E40CF51C061D171DE60E38
:10545000F71E081F191FE20EF31E041F151FB801C7
:10546000A701032C04C0440F551F661F771F0A9421
:10547000D2F720E22319D801C70104C0B695A79539
:10548000979587952A95D2F7482B592B6A2B7B2B1A
:10549000F60180819181A281B381480F591F6A1F53
:1054A0007B1FD5014D935D936D937C93139760960D
:1054B0000FB6F894DEBF0FBECDBFDF91CF911F9125
:1054C0000F91FF90EF90DF90CF90BF90AF909F90A3
:1054D0008F907F906F905F904F903F902F900895A6
:1054E000FC01108A118A128A138A41E053E265E4B2
:1054F00077E6408351836283738349E85BEA6DEC0E
:105500007FEE44835583668377834EEF5CED6AEBD1
:1055100078E9408751876287738746E754E562E3FD
:1055200070E1448755876687778708952F923F9269
:105530004F925F926F927F928F929F92AF92BF92A3
:10554000CF92DF92EF92FF920F931F93CF93DF934F
:10555000CDB7DEB7A2970FB6F894DEBF0FBECDBFB2
:105560001C017AA369A3FC0180819181A281B3818E
:1055700089839A83AB83BC8384819581A681B7811B
:105580008D839E83AF83B88780859185A285B385FF
:1055900089879A87AB87BC8784859585A685B785DB
:1055A0008D879E87AF87B88B87E08D8F8CE08E8F3D
:1055B00081E18F8F86E188A32B01A12CB12C3E01C4
:1055C000FDE16F0E711C65E0F62EF60C43011A2DFD
:1055D000110F110F1619C12CD12C012F080DF40138
:1055E00021914F014F2D4E1BB601640D751DE12C0D
:1055F000CE0101960E94A629F4E0CF0ED11C80E1D5
:10560000C816D10451F79FEFA91AB90AE0E14E0E6E
:10561000511CF4E0AF16B104C9F685E0898F89E02A
:105620008A8F8EE08B8F84E18C8FCC24C394D12C15
:105630003E0189E1680E711C5FE0552E5618460147
:10564000530114E0452C4C0C042D0A0DF501219159
:105650005F01B4016F707727660F771F660F771FA2
:1056600089A19AA1680F791FEE24E394412FCE01FE
:1056700001960E94A629115095E0890E911C1111E6
:10568000E3CFE4E0CE0ED11CF1E1CF16D104B9F6A0
:1056900084E08D8B8BE08E8B80E18F8B87E1888F10
:1056A00095E0C92ED12C3E0185E1680E711C25E2E2
:1056B000522E56184601530114E0452C4C18042D67
:1056C0000A0DF50121915F01B4016F707727660F14
:1056D000771F660F771F89A19AA1680F791F82E053
:1056E000E82E412FCE0101960E94A629115093E089
:1056F000890E911C1111E3CFE4E0CE1AD108F5EF29
:10570000CF16FFEFDF06B1F686E0898B8AE08A8B41
:105710008FE08B8B85E18C8BC12CD12C3E0181E1FC
:10572000680E711CA0E35A2E56184601530114E06E
:10573000452C4C18042D0A0DF50121915F01B4018F
:105740006F707727660F771F660F771F89A19AA161
:10575000680F791FF3E0EF2E412FCE0101960E94D2
:10576000A629115097E0890E911C1111E3CFE4E0B6
:10577000CE1AD108F0EFCF16FFEFDF06B1F6F10138
:1057800080819181A281B38149815A816B817C8121
:10579000840F951FA61FB71F80839183A283B383B5
:1057A00084819581A681B7814D815E816F817885E5
:1057B000840F951FA61FB71F84839583A683B78385
:1057C00080859185A285B38549855A856B857C85C1
:1057D000840F951FA61FB71F80879187A287B38765
:1057E00084859585A685B7854D855E856F85788985
:1057F000840F951FA61FB71F84879587A687B78735
:1058000080899189A289B3890196A11DB11D808BE0
:10581000918BA28BB38BA2960FB6F894DEBF0FBE0E
:10582000CDBFDF91CF911F910F91FF90EF90DF904F
:10583000CF90BF90AF909F908F907F906F905F9030
:105840004F903F902F9008956F927F928F929F92EA
:10585000AF92BF92CF92DF92EF92FF920F931F937E
:10586000CF93DF93CDB7DEB7C054D1090FB6F8940C
:10587000DEBF0FBECDBF8C013B014A017A016B0137
:10588000E114E2E0FE0650F0B601C8010E94962A3B
:1058900082E0F81A90E4C90ED11CF2CF5401AB2C6F
:1058A000BB24A694F6E0AA0CBB1CFA95E1F7A60C63
:1058B000B71C6401F1E0DF22CE0101967C0180E497
:1058C000F70111928A95E9F73601A3E0769467947F
:1058D000AA95E1F7A301B501C7010E94656FF7E042
:1058E0008F229924F701E60DF71D8114910471F0C0
:1058F000D501A60DB71D80E890E002C0959587956B
:105900008A94E2F79C91982B908302C080E8808370
:1059100088E0680E711C90E469167104A8F0B70164
:10592000C8010E94962AF80180899189A289B389C9
:105930000197A109B109808B918BA28BB38B88E36E
:10594000F70111928A95E9F7F80180899189A28976
:10595000B38979E0880F991FAA1FBB1F7A95D1F7E9
:105960008C0D9D1DA11DB11D9C01AD0189AF3AAFEC
:105970004BAF5CAF1DAE1EAE1FAE21961FAE219782
:10598000B701C8010E94962AC05CDF4F0FB6F89499
:10599000DEBF0FBECDBFDF91CF911F910F91FF9062
:1059A000EF90DF90CF90BF90AF909F908F907F90BF
:1059B0006F90089520E1FB01DC0101900D922A9582
:1059C000E1F708958F929F92AF92BF92CF92DF92AC
:1059D000EF92FF920F931F93CF93DF93CDB7DEB774
:1059E00068970FB6F894DEBF0FBECDBF6C017B0188
:1059F000CE0101962D8B3E8B4F8B588F0E94702AC3
:105A00002D893E894F89588D49015A01870181149A
:105A100082E09806A104B104A0F0B801CE0101967D
:105A20002D8B3E8B4F8B588F0E94962A005C1F4F08
:105A300082E0981AA108B108588D4F893E892D89B6
:105A4000E6CFDA01C9019170AA27BB27BA01A901E3
:105A5000B9E07695679557954795BA95D1F7BA010C
:105A600016E0660F771F1A95E1F76E0D7F1DAC01EA
:105A7000CE0101960E94242CBE016F5F7F4FC601AC
:105A80000E94DA2C68960FB6F894DEBF0FBECDBF29
:105A9000DF91CF911F910F91FF90EF90DF90CF900A
:105AA000BF90AF909F908F900895CF92DF92EF922A
:105AB000FF920F931F93CF93DF93182F7B016A01FF
:105AC000E90168E372E0C9010E94666B4AE050E0B8
:105AD000612FCE010E94596C6AE3CE010E94686B6F
