:100000000C94FF050C94A2320C9477320C944C3271
:100010000C9429060C9429060C9429060C942906A4
:100020000C9429060C9411390C94E7380C943B3944
:100030000C9429060C9429060C9429060C94290684
:100040000C9429060C9429060C9406320C9429066B
:100050000C9412490C94E8480C9429060C94290637
:100060000C9429060C9429060C94F5640C9429062A
:100070000C94B2480C9488480C9429060C942906D8
:100080000C9429060C9429060C942906C22CC52C24
:10009000B82CBC2CDC2CDC2CC92CCD2CD32CD72C94
:1000A000182D5B2D6B2D842DB22DE52DF12DE32E1A
:1000B000C12EED2EF92E0E30A154F459F459965458
:1000C0001C55F4592355F45986559E57AA57DA57AB
:1000D0000658F459F459F459F459F459F459F459A7
:1000E000F459F459F459F459F459F4590C5818586E
:1000F0005061636B65742076616C6964206275740D
:1001000020696E636F727265637420726573706FBD
:100110006E736500232323232323232323232323F5
:100120002323232323232323232300546F6F206DB2
:10013000616E7920726574726965733A20003D3D85
:100140003D3D0A003D3D3D3D0A526573706F6E7343
:10015000653A0A006D61696E7461696E207265743A
:1001600075726E65642000726562696E6400726506
:100170006E65776564006661696C6564006F6B002D
:1001800044484350206C6561736520004157414BE2
:1001900045210A00534C454550210A0073207769D8
:1001A00074686F7574206D6573672061636B2C20B4
:1001B0007265626F6F74696E670A00476F6E6520C3
:1001C0000053657420485720636C6F636B0045458E
:1001D00050524F4D20636F6E74656E7473206C6562
:1001E0006E6774683A2000486561646572206C65CA
:1001F0006E6774683A20000A5374617475733A200C
:10020000000A506F736974696F6E3A20004669780E
:100210002074696D653A2000474E53532076616C17
:1002200069643A200055736520474E53533A2000C5
:100230005D3A200052696F20646174615B000A417D
:100240006D6269656E743A200048756D6964697401
:10025000793A2000537570706C7920766F6C7461F8
:1002600067653A20000A52696F2074656D702E3AF6
:10027000200053797374656D2074656D702E3A207B
:100280000054696D657374616D703A2000474E5378
:10029000532073746174653A20002D2D0A53616DEB
:1002A000706C696E6720737461727465642C20725F
:1002B0006561736F6E3A200054696D6520657272D6
:1002C0006F7220286F75722D474E5353293A2000C4
:1002D000474E535320636C6F636B2076616C696487
:1002E0003A20005043463835323633004D435037BC
:1002F000393431780044533133303700756E6B6ECA
:100300006F776E2052544300F502EC02E302416322
:10031000746976652073657474696E67733A0A0050
:100320004E6F2072656D6F746520686F73742C203A
:10033000747279696E6720666F7220313230732073
:10034000746F20636F6D6D756E6963617465207481
:100350006F200043616E6E6F74207265736F6C76F0
:10036000652000207265736F6C76657320746F2052
:10037000004C6F6F6B696E672075702000646F6E44
:10038000650044484350206661696C6564005265AD
:100390007175657374696E672049502E2E2E20008A
:1003A0005573696E67207374617469632049500ADC
:1003B00000202052656D6F746520686F73746E61E4
:1003C0006D653A2000454550524F4D207365747459
:1003D000696E67733A0A20204D41433A2000536505
:1003E00074757020646F6E650053657474696E6710
:1003F0002073616D706C652074696D657273004661
:1004000072657175656E63793A2032304D487A00B5
:1004100041637475616C204D43553A2000546172FC
:10042000676574204D43553A2061746D656761318D
:100430003238347000436F6E666967757261746933
:100440006F6E20636F6D706C6574650053616D70C5
:100450006C696E6720696E74657276616C202873B2
:10046000293A2000436F756C64206E6F74206765B5
:10047000742074696D652066726F6D2068617264A6
:1004800077617265205254430A0053797374656D25
:1004900020636C6F636B207365742066726F6D20D0
:1004A0006861726477617265205254430A0053791F
:1004B0007374656D20636C6F636B3A2000436F6EDD
:1004C0006669677572696E672073797374656D20EC
:1004D000636C6F636B0A005254432063616C696202
:1004E000726174696F6E3A20004E6F20525443203F
:1004F000666F756E640A00206174206164647265C1
:10050000737320307800466F756E642000417574F7
:100510006F70726F62696E6720666F722000245080
:100520004F525A412C312C25642C310020746F20FD
:10053000004368616E67696E6720474E53532062BF
:1005400061756420726174652066726F6D20004869
:100550004948363178780020706F7765722D757054
:100560002064656C617920286D73293A2000207021
:10057000726573656E7400206E6F74006D65616ED8
:100580000A006D656469616E0A007472696D6D655B
:100590006420000A6167677265676174653A2000CC
:1005A0006E756D53616D706C65733A2000206D69D6
:1005B0007373696E670A002070726573656E740AE2
:1005C000002063682E20005D3A204F7800414443AC
:1005D0005B00206661696C656420746F20696E69D8
:1005E0007469616C6973650A0052696F00496E69CC
:1005F0007469616C6973696E672000484D414320DE
:100600006B65793A2000536974652049443A2000AB
:1006100046616E20687973742E3A200046616E2020
:1006200074656D702E3A200046656174757265734D
:100630003A20484F5553454B454550494E47205267
:10064000494F4D455445522048494836315858285D
:10065000576972652920474E535320425553595FBD
:1006600054494D455F50494E2841332900436F6D31
:100670006D733A205735313030287764745F726576
:1006800073657429000A4D435520636C6F636B3AA0
:100690002032304D487A0A4669726D776172653A48
:1006A0002052696F4C6F672D312E31620A45706F91
:1006B00063683A20323031380A000A4D43555352AC
:1006C0003A20000A434B53454C3A20000A5243203B
:1006D0006F73632E3A20000A457874656E64656412
:1006E00020667573653A20000A4869676820667558
:1006F00073653A20000A4C6F7720667573653A205F
:10070000000A5369676E61747572653A20000A4188
:10071000637475616C204D43553A200061746D65BA
:10072000676131323834700061746D6567613132F0
:1007300038340061746D65676136343470006174FB
:100740006D656761363434000A0A2D2D2D2D2D2D4F
:100750002D2D0A546172676574204D43553A20610E
:10076000746D6567613132383470000000220025F5
:100770000028002B00000000000000000108030218
:1007800000090A000000000000000004070000004B
:10079000000000000078A46AD756B7C7E8DB7020D5
:1007A00024EECEBDC1AF0F7CF52AC6874713463075
:1007B000A8019546FDD8988069AFF7448BB15BFFDF
:1007C000FFBED75C892211906B937198FD8E43799F
:1007D000A62108B44962251EF640B340C0515A5EB6
:1007E00026AAC7B6E95D102FD65314440281E6A1AC
:1007F000D8C8FBD3E7E6CDE121D60737C3870DD5AF
:10080000F4ED145A4505E9E3A9F8A3EFFCD9026F0A
:10081000678A4C2A8D4239FAFF81F6718722619DE1
:100820006D0C38E5FD44EABEA4A9CFDE4B604BBB9E
:10083000F670BCBFBEC67E9B28FA27A1EA8530EFC2
:10084000D4051D880439D0D4D9E599DBE6F87CA21B
:100850001F6556ACC4442229F497FF2A43A723946A
:10086000AB39A093FCC3595B6592CC0C8F7DF4EF40
:10087000FFD15D84854F7EA86FE0E62CFE14430116
:10088000A3A111084E827E53F735F23ABDBBD2D7F1
:100890002A91D386EB496E7374616C6C20465720A5
:1008A000726573756C743A20000A43524320737466
:1008B000617475733A20000A446F776E6C6F6164DF
:1008C000204352433A20004669726D776172652079
:1008D0004352433A2000636F70696564207061720F
:1008E0007469616C2073706D427566666572207400
:1008F0006F20666C6173683A200020636F6D706CC6
:10090000657465640A004669726D7761726520647A
:100910006F776E6C6F616420666F722000636F701A
:100920006965642073706D42756666657220746FC8
:1009300020666C6173683A200045726173656420BB
:1009400074656D706F72617279206170706C69632B
:100950006174696F6E206172656120696E20666CDA
:10096000617368200050726F63657373696E6720EE
:100970004657207570677261646520005570677214
:10098000616465206669726D7761726520746F209D
:1009900000416C72656164792068617665206669E2
:1009A000726D776172652076657273696F6E200073
:1009B0005265636569766564207570677261646508
:1009C000206669726D77617265207461673A2000F4
:1009D0005265626F6F7420636F6D6D616E6420721B
:1009E000656365697665642066726F6D20736572F4
:1009F0007665720A0053414D504C494E4720494E8E
:100A000054455256414C204348414E4745442120CD
:100A1000000A54696D65206572726F7220286F75C7
:100A2000722D736572766572293A20000A4F7572CD
:100A30002074696D653A2000536572766572207482
:100A4000696D653A200054696D6520736574206690
:100A5000726F6D207365727665720A003A20307885
:100A600000307800454550524F4D2076616C7565D9
:100A7000733A0A000A202052656D6F74653A2000AF
:100A8000286E6F6E6529000A2020444E533A2000DC
:100A90000A202047573A20000A20204D61736B3A04
:100AA000200020204C6F63616C3A20004552524F69
:100AB000523A206261642076616C75657320666FBE
:100AC0007220656570726F6D5265616400455252A7
:100AD0004F523A206261642076616C7565732066BE
:100AE0006F7220656570726F6D57726974650076FC
:100AF0006572626F736974793A20005265626F6F34
:100B00007420636F6D6D616E6420726563656976D4
:100B100065642066726F6D20636F6E736F6C650A1B
:100B2000005265626F6F74696E67202E2E2E0A0068
:100B300073616D706C696E67496E74657276616C15
:100B40005F313674685F733A2000556E6B6E6F7755
:100B50006E20636F6D6D616E643A20005072657631
:100B6000696F757320636F6D6D616E64207761735B
:100B700020746F6F206C6F6E6720666F72206275D5
:100B8000666665720A00556E6B6E6F776E204E4D0D
:100B900045412073656E74656E63653A200042615D
:100BA00064204E4D454120636865636B73756D3AF3
:100BB000200000002100240027002A000102040870
:100BC00001020408402010204080804020100804CA
:100BD0000201108080402010080402010404040473
:100BE00002020202040402020202030303030303DB
:100BF000030304040101010101010101C06C11247E
:100C00001FBECFEFD0E4DEBFCDBF14E0A0E0B1E067
:100C1000E2E9FFEE00E00BBF02C007900D92AE319B
:100C2000B107D9F724E3AEE1B4E001C01D92A839C1
:100C3000B207E1F715E0CFEFD5E004C02197FE0140
:100C40000E945577CE3FD107C9F70E94D66B0C940E
:100C5000C7770C9400002F923F924F925F926F9251
:100C60007F928F929F92AF92BF92CF92DF92EF923C
:100C7000FF920F931F93CF93DF93CDB7DEB7C0568C
:100C8000D4400FB6F894DEBF0FBECDBF80914504AF
:100C90008823B9F08FB7F8941091290A8FBF60EDBF
:100CA00072E08DE799E00E949F33612F70E08DE73D
:100CB00099E00E9457408DE799E00E941633109208
:100CC0004504EE24E39480EE98E00E942147892BAE
:100CD00009F453C080EE98E00E94FF462091460A36
:100CE0003091470A232B79F39091450A992359F3C0
:100CF000E091480AF091490A882321F08A3011F0E6
:100D00008D3009F510828091460A9091470A9093A0
:100D1000490A8093480ADC012C91243209F062C010
:100D2000BE016F5F7F4F0E949E4FFC0180818A321F
:100D300009F058C091818981981354C092818A81A9
:100D4000981350C068C080832091480A3091490AA6
:100D50008091450A90E001974091460A5091470AD8
:100D6000840F951F2817390708F0ADCF2F5F3F4F2D
:100D70003093490A2093480AA6CF30901501A895D0
:100D8000109144041123A9F0109244048FB7F894F1
:100D90009091290A992351F080903F0A9090400A3F
:100DA000A090410AB090420A01E001C000E08FBF6C
:100DB00001C000E0D0901401DD2009F41AC2809136
:100DC0004304882309F415C28091E20A9091E30A52
:100DD000A091E40AB091E50A892B8A2B8B2B09F4A8
:100DE00011C207C2E091720AF091730A309759F06C
:100DF000A091460AB091470A8C91882309F463CFE9
:100E000085E49AE00995E091460AF091470A8081CD
:100E10008111DDC158CF8091460A9091470ADC01CB
:100E200011962C91273441F4FC01228120934A0A27
:100E30006BE47AE0039605C010924A0A6BE47AE00C
:100E400001960E942D2C8C0164EC72E08BE49AE0F8
:100E50000E94A977892B09F0C6C0C45ADB4F1983B9
:100E60000883CC55D44080914A0A8093510AC80126
:100E70000E94742CC45ADB4F99838883CC55D4408C
:100E8000AE01445A5B4F62E00E94DC506093530A0B
:100E90007093540A8093550A9093560AC45ADB4FB4
:100EA000E881F981CC55D44020812C3219F4CF014E
:100EB000019615C0233589F42B013C0144275527A1
:100EC000BA0144195509660977094093530A5093AA
:100ED000540A6093550A7093560ACF010296C45A79
:100EE000DB4F99838883CC55D440AE01445A5B4F85
:100EF00063E0C45ADB4F88819981CC55D4400E946D
:100F0000DC506093570A7093580A8093590A909363
:100F10005A0AC45ADB4FE881F981CC55D44020816C
:100F20002C3219F4CF01019615C0273589F48B01B5
:100F30009C0144275527BA01401B510B620B730BD0
:100F40004093570A5093580A6093590A70935A0A6B
:100F5000CF010296C45ADB4F99838883CC55D44085
:100F6000C45ADB4FE881F981CC55D440208121530C
:100F700031E0223008F030E03093520ACF0102967F
:100F8000C45ADB4F99838883CC55D440AE01445A70
:100F90005B4F60E00E940C506093700AAE01445AAF
:100FA0005B4F61E0C45ADB4F88819981CC55D440B6
:100FB0000E940C506093710AAE01445A5B4F63E08B
:100FC000C45ADB4F88819981CC55D4400E940C5083
:100FD00060935B0A70935C0A80935D0A90935E0A4B
:100FE000E0925F0AF4C068EC72E08BE49AE00E9441
:100FF000A977892B09F0E3C0C65ADB4F1983088310
:10100000CA55D44080914A0A8093510AC8010E946F
:10101000742CC65ADB4F99838883CA55D44021E08B
:10102000DC013C91313409F020E02093520A029611
:10103000C65ADB4F99838883CA55D440AE01465ABD
:101040005B4F62E00E94DC506093530A7093540A35
:101050008093550A9093560AC65ADB4FE881F9816E
:10106000CA55D44020812C3219F4CF01019615C005
:10107000233589F42B013C0144275527BA01441933
:101080005509660977094093530A5093540A6093AF
:10109000550A7093560ACF010296C65ADB4F9983C0
:1010A0008883CA55D440AE01465A5B4F63E0C65AA6
:1010B000DB4F88819981CA55D4400E94DC506093EF
:1010C000570A7093580A8093590A90935A0AC65A3D
:1010D000DB4FE881F981CA55D44020812C3219F4C4
:1010E000CF01019615C0273589F48B019C01442757
:1010F0005527BA01401B510B620B730B4093570AE3
:101100005093580A6093590A70935A0ACF01029675
:10111000C65ADB4F99838883CA55D440AE01465ADC
:101120005B4F63E0C65ADB4F88819981CA55D44032
:101130000E940C506093600A7093610A8093620A67
:101140009093630AAE01465A5B4F63E0C65ADB4F89
:1011500088819981CA55D4400E940C506093640ADA
:101160007093650A8093660A9093670AC65ADB4FAC
:1011700008811981CA55D440D8018C918C3211F460
:10118000C8011AC062E0C8010E94C34F80936B0A75
:1011900062E0C80102960E94C34F80936A0A62E02F
:1011A000C80104960E94C34F8053984F9093690AD8
:1011B0008093680AC80106960E94E84F08C0E09133
:1011C000740AF091750A309709F01ACE1CCE8091FE
:1011D00021018C3009F077CD6091460A7091470A61
:1011E0008DE799E00E949D338DE799E00E941633C8
:1011F0006ACD3320D9F086EC9AE00E94FE431111AB
:1012000002C707C70023D9F02091DE0A3091DF0A18
:101210004091E00A5091E10AC501B4010E94E076D4
:10122000672B682B692B09F491C4ACC4112369F0B6
:10123000DD2059F010E00111A9C4111199C5332026
:1012400021F0109215010E940D5A8091880B811196
:101250000E94F12C8091650B882309F4E3C08091F2
:10126000740B9091750B8230910591F118F40197F0
:1012700041F0D8C083309105A9F1049709F4C5C0A5
:10128000D1C08EE79BE00E94575A882309F4CAC058
:1012900067E28091760B9091770B0E948366809134
:1012A000760B9091770B0E942766082F10E00115AE
:1012B000110519F06FEC72E025C04DE250E060E0DE
:1012C00070E08EE79BE00E94083F82E090E0A6C0BD
:1012D0008EE79BE00E94575A882309F4A3C083E05D
:1012E00090E09CC044E06091720B8091760B9091ED
:1012F000770B0E948D66082F10E00430110549F12C
:1013000068EE72E08DE799E00E949D33B8018DE7A9
:1013100099E00E945F408091730B8F3F19F060E06D
:101320000E949B2C85E090E09093750B8093740B4A
:101330002FEF3FE73093790B2093780B2FEF3FEFA0
:1013400030937B0B20937A0B90937D0B80937C0BD7
:1013500069C08E010F5F1F4F7E01B5E0EB0EF11CDF
:101360008091760B9091770BDC01ED91FC910284DA
:10137000F385E02D0995F80181938F01EE15FF05A6
:1013800079F72981822F90E056E0959587955A95B7
:10139000E1F790937D0B80937C0B2F7330E0322F1D
:1013A00022278A81282B0B81F0E40F9FA0011124B2
:1013B0008C81082F10E01695079516950795042B3C
:1013C000152BA0E1B7E20E941277EEEFCE2EEFE3ED
:1013D000DE2EE12CF12CA70196010E94E0763093DD
:1013E0007B0B20937A0B9801A4E7B0E40E9412775C
:1013F000A70196010E94E076205A3F403093790B76
:101400002093780B84E090E009C08091730B8F3FAC
:1014100019F060E00E949B2C85E090E09093750BA2
:101420008093740B86E690E00E9496768C0101967C
:1014300011F404EE1CE080917B0A90917C0A8330C9
:10144000910599F130F48130910561F00297A1F096
:101450008AC08530910509F456C070F1069709F4E9
:101460005DC081C086E89AE00E94575A882309F43B
:101470007AC082E090E04DC0809164008E7F8093BE
:10148000640085E690E00E948876813049F028F07B
:10149000823031F0833021F005C010921C0102C06F
:1014A00080931C0183E090E034C080917E0A0E940A
:1014B0007C3184E090E02DC080917E0A0E947C31D6
:1014C0002AE030E0DC010E9465779B01AC01D80185
:1014D0000E94FF767E5F8F4F9F4F2FEF33E040E0FB
:1014E00050E00E94E076205737413093830A2093E2
:1014F000820A8091800A882319F085E090E009C073
:1015000087E090E006C080917D0A0E947C3186E0F1
:1015100090E090937C0A80937B0A25C080917D0A9D
:101520000E947C31FC012091800A30E0D8010E94A9
:1015300012779B01AC01DF010E940A777E5F8F4F1B
:101540009F4F2FEF33E040E050E00E94BE76309393
:10155000850A2093840A8091810A8111D1CF10924B
:101560007C0A10927B0A8091160B9091170B0097C2
:1015700039F484E090E09093070B8093060B82C2CD
:101580001092070B1092060BDC01ED91FC91048880
:10159000F589E02D09958091140B9091150B813000
:1015A000910509F448C040F08230910509F458C013
:1015B000039709F4D5C066C28CE29BE00E94AA4959
:1015C000811160C2E090080BF090090B00910A0BAA
:1015D00010910B0B42E050E0BE016F5F7F4F8CE239
:1015E0009BE00E9450490297B1F449815A81E41668
:1015F000F50638F460E070E08CE29BE00E94504910
:101600000AC0B8018CE29BE00E94504929813A81CE
:101610008217930711F020E030E030930D0B2093F8
:101620000C0B232B09F42EC210920F0B10920E0BF1
:1016300081E090E010C08091160B9091170BDC01B7
:10164000ED91FC910684F785E02D0995882309F436
:1016500019C282E090E09093150B8093140B12C294
:1016600080910E0B90910F0B892B81F480912101B9
:101670008A3061F460910C0B70910D0B4DE759E0CD
:1016800080910A0B90910B0B0E94F73C80910E0BFE
:1016900090910F0B892B59F48091160B9091170B99
:1016A000DC01ED91FC910688F789E02D0995809188
:1016B000160B9091170BDC01ED91FC91028CF38DD0
:1016C000E02D0995AC01892B21F440910C0B509130
:1016D0000D0B8091160B9091170B60910A0B709176
:1016E0000B0B20910E0B30910F0B620F731FDC015F
:1016F000ED91FC910280F381E02D099520910E0B74
:1017000030910F0B820F931F90930F0B80930E0B52
:1017100020910C0B30910D0B8217930709F0B2C189
:101720008091160B9091170BDC01ED91FC91008CD0
:10173000F18DE02D09951092110B1092100B40EDD8
:1017400057E060E070E088E19BE00E94083F8FEF87
:101750009FEF9093130B8093120B83E090E07BCF6D
:1017600088E19BE00E94575A882309F4ABC06DEFD3
:1017700072E08DE799E00E941A3382E090E0909346
:10178000070B8093060B80910C0B00910A0B1091B4
:101790000B0BFF24F394F9821A822091B806309142
:1017A000B9063C832B831D821E821F8218861A86EF
:1017B00019869091B7069B871C861D861F861E86FC
:1017C0008E3078F142E050E0B80189E791E00E9464
:1017D0007A77892B31F5F80182818983868190E0BF
:1017E000982F88272781820F911D9C838B83AE01C0
:1017F000475F5F4FBE016B5F7F4FC8010E947E5AFB
:101800001A82D80113968C9180FF0BC0FA82C8010E
:101810000E94E764F801E80FF91F80818B878181BE
:101820008C878C858230C8F58F5F8C878091360BD2
:101830002091370B3091380B3F872E878D87409151
:10184000080B5091090B60910A0B70910B0B20E073
:1018500030E0CE0101960E943E3E10920D0B109298
:101860000C0B80910A0B90910B0BFC01648170E0D2
:10187000762F66272581620F711DC85ADB4F798349
:101880006883C855D4400E942A3F62E070E0CE01D0
:10189000885A9B4F0E942A3F12C06BE271E08DE78D
:1018A00099E00E949F336091080B7091090B4DE7FE
:1018B00059E080910A0B90910B0B0E94F73C84E059
:1018C00090E0C9CE8091160B9091170BDC01ED9141
:1018D000FC91048CF58DE02D09958091160B90916B
:1018E000170BDC01ED91FC910084F185E02D099549
:1018F0008C01892B09F4C6C08091100B9091110BBB
:101900008039914078F081E090E09093070B8093CC
:10191000060B10920D0B10920C0B1092150B1092DF
:10192000140BB0C08091160B9091170BDC01ED9158
:10193000FC910284F385E02D09952091100B3091E4
:10194000110B6901BFEFCB1ADB0AD092110BC092C9
:10195000100BF901E85BFB4F80830150110911F76F
:1019600010E028E4A22E24E0B22E4E01E1E18E0E1A
:10197000911CC114D10409F485C020E0822F90E0AD
:10198000A601F3E0CF16D10410F042E050E0841736
:101990009507B0F4F501E80FF91F408150E0FC0114
:1019A000E758FE4F8081082E000C990B4817590705
:1019B00011F42F5FE3CF02E0C016D10480F462C0BF
:1019C000B2E0CB16D10408F45DC024E0C216D10405
:1019D00008F449C0D50113968C9180FD07C03FEFF4
:1019E000A31AB30A41E0C41AD108C3CFE6E0CE1669
:1019F000D104C8F1F501E480F12CFE2CEE248581A0
:101A0000E80EF11CCE14DF0470F14091360BF8E0C3
:101A1000EF1AF0EEFF0A83E0EE0CFF1C8A95E1F767
:101A200000E010E028E0429FA00111246091370BF4
:101A30007091380B9501CE0101960E94533BDE0157
:101A40001996F6013897EA0DFB1D81E03D91219131
:101A500091E0321390E089238A169B06B9F711E0D2
:101A6000882309F4BCCF8091100B9091110BC816FC
:101A7000D90631F0A601B50188E494E00E94907780
:101A80001111E2C28DE799E00E942147892BD1F123
:101A900080914D0B90914E0B892BA1F180914F0BB2
:101AA0009091500B892B71F18DE799E00E94FF46D0
:101AB000E0914D0BF0914E0B20914F0B3091500B5C
:101AC000A091590BB0915A0B8D3019F08A3009F062
:101AD00072C2CD018E1B9F0B821793070CF443C279
:101AE0004091570B5091580B452B51F02E0F3F1F33
:101AF000F90131971082E091570BF091580B09953D
:101B00000E94A8698091880B882341F080918A0BFC
:101B100090918B0B0D9711F00C94341B8091650BF9
:101B2000882341F08091740B9091750B059711F00B
:101B30000C94341B80917B0A90917C0A009709F4E5
:101B400078C3079711F00C94341B73C389829A826F
:101B5000AB82BC821D821E821F821886CE01019636
:101B60000E94303888E0FE013196A6ECBAE0019080
:101B70000D928A95E1F7112309F4F8C011E02224AF
:101B8000239404C0112309F45ACB10E0C05DDB4F4D
:101B9000188219821A821B82C053D440CC5CDB4F5E
:101BA000188219821A821B82C453D440CE01805DF0
:101BB0009B4F0E94FE43CF5DDB4F88829982AA82B1
:101BC000BB82C152D440CB5DDB4F188219821A828E
:101BD0001B82C552D440CE018F5D9B4F0E9430388E
:101BE000C05DDB4F88819981AA81BB81C053D440FD
:101BF000CF5FDB4F88839983AA83BB83C150D440D6
:101C0000CC5CDB4F88819981AA81BB81C453D440CD
:101C1000CB5FDB4F88839983AA83BB83C550D440B5
:101C2000BE016F5D7B4FCE018F5F9B4F0E942746A9
:101C3000CB5FDB4F88819981AA81BB81C550D4409D
:101C4000B7FF07C0B095A095909581959F4FAF4F76
:101C5000BF4FCF5FDB4F488159816A817B81C15083
:101C6000D44077FF07C070956095509541955F4FC0
:101C70006F4F7F4F49835A836B837C838D839E8311
:101C8000AF83B887CE0101960E943038CE018F5DB8
:101C90009B4F0E949B45BE016F5F7F4F8EED9AE088
:101CA0000E94DA37882361F1CF5DDB4F888199810B
:101CB000AA81BB81C152D440C85CDB4F8883998321
:101CC000AA83BB83C853D440CB5DDB4F8881998105
:101CD000AA81BB81C552D440C45CDB4F8883998301
:101CE000AA83BB83CC53D4406EED7AE0CE01885CEE
:101CF0009B4F0E94B838CE01885C9B4F0E945A448B
:101D000080912101823008F498CACB5FDB4F888034
:101D10009980AA80BB80C550D440CF5FDB4F4880FC
:101D200059806A807B80C150D44068EB72E08DE7B7
:101D300099E00E949F332AE030E0B301A2018DE7D1
:101D400099E00E9455336CEC72E08DE799E00E94B7
:101D50009D332AE030E0B501A4018DE799E00E94AF
:101D600055338DE799E00E94163367CA22242394E5
:101D700061E08BE10E949B2C8091880B882351F0BD
:101D800080918A0B90918B0B009709F445C10D97B8
:101D900009F442C18091740B9091750B009711F07A
:101DA0000597A9F48091730B8F3F59F061E00E9471
:101DB0009B2C4BE450E060E070E08EE79BE00E94DB
:101DC000083F81E090E09093750B8093740B8091B5
:101DD0007B0A90917C0A009719F00797C9F412C00A
:101DE00080917F0A8F3F71F061E00E949B2C45E05B
:101DF00050E060E070E086E89AE00E94083F81E0F1
:101E000090E002C082E090E090937C0A80937B0A8D
:101E1000109213012FB7F8948091E5059091E60593
:101E2000A091E705B091E8057091290A711102C0EF
:101E300080E055C0C0903F0AD090400AE090410A2F
:101E4000F090420A40902A0A50902B0A60902C0A87
:101E500070902D0A80902E0A90902F0AA090300A40
:101E6000B090310A6091360A3091360A332341F03E
:101E70008091320A9091330AA091340AB091350AC8
:101E80005091280A4091430A3091440AC092E905D2
:101E9000D092EA05E092EB05F092EC054092DD0568
:101EA0005092DE056092DF057092E0058092E105B8
:101EB0009092E205A092E305B092E4056093DC0500
:101EC0008093E5059093E605A093E705B093E805B8
:101ED0005093DB054093DA053093D90581E02FBF9D
:101EE0008093D8058091E9059091EA05A091EB05D2
:101EF000B091EC050197A109B1098093E905909390
:101F0000EA05A093EB05B093EC05809121018823AD
:101F100089F06AE972E08DE799E00E949F334AE018
:101F200050E0622D8DE799E00E942C338DE799E017
:101F30000E9416338FB7F894009141041091420427
:101F40008FBF6DE872E08DE799E00E949F334AE011
:101F500050E0602F8DE799E00E942C338DE799E0E7
:101F60000E9416336CC9AE17BF0709F4CBCD1C9283
:101F70000091530B1091540B40914D0B50914E0B0F
:101F8000E091510BF091520B20E030E02017310727
:101F90008CF5C080D180CA017C01D6016D916D01A4
:101FA000662309F10196D7017C916717A9F32F5F8A
:101FB0003F4F3496EBCFAD014E1B5F0B21503109E3
:101FC0004217530734F48C93E091590BF0915A0B5C
:101FD00011828091590B90915A0B019690935A0B54
:101FE0008093590B8FCD0280F381E02D309709F05B
:101FF00086CD86CDE091550BF091560B309709F4C4
:102000007FCDCA017CCDDD2021F0F2E02F2E11E042
:1020100012C992E0292EACCE81E090E090938B0B18
:1020200080938A0B61E080918F0B0E949B2C4091E2
:102030001D0150911E0160911F01709120018BEFD5
:102040009BE00E94083FA6CEAE01405D5B4FBE0103
:102050006F5F7B4F80910A0B90910B0B0E947E5A11
:10206000AE014F5D5B4FBE016F5F7F4F88E494E030
:102070000E947E5AE0910A0BF0910B0B80914E0466
:1020800090E0982F882720914F04820F911D268180
:1020900030E0322F22274781240F311D821793070A
:1020A00009F0A0C0CF5FDB4F488159816A817B81F5
:1020B000C150D44089819A81AB81BC8148175907AE
:1020C0006A077B0709F08EC0C05DDB4F288139812C
:1020D000C053D440CF5DDB4F88819981C152D44039
:1020E0002817390709F07EC020914C0430E0322FC8
:1020F000222780914D04280F311D9481892F90E073
:10210000982F88274581840F911D8E0F9F1FDC011A
:102110001A97F901E25CFB4F5C914081541362C055
:102120001196F901E15CFB4F9C91808198135AC094
:1021300010920D0B10920C0B1092150B1092140BA9
:102140001092010119821A821B821C821D821E823A
:102150001F821886CE0101960E94303888E0FE0169
:102160003196AEEEBAE001900D928A95E1F71092A9
:102170003F0410923E0410923D0460E08DE00E9406
:102180009B2C80914C0490E0982F882720914D043F
:10219000820F911D8139914040F44EE654E56DE780
:1021A00079E088E494E00E94EF3F809121018A3039
:1021B000A1F464E471E08DE799E00E949F334DE75C
:1021C00059E060E971E088E494E00E94F73C6EE336
:1021D00071E08DE799E00E949F338EEF9AE00E94B4
:1021E000FE4350CC64E171E08DE799E00E94C33377
:1021F00060EF70E08DE799E00E94C3336091100BAF
:102200007091110B4DE759E088E494E00E94F73C8F
:1022100064E171E08DE799E00E94C3331092110BE5
:102220001092100B8FEF9FEF9093130B8093120B74
:1022300029CC8091130181110C947A1981E080934B
:10224000130180912101882381F1C090CA0AD090A6
:10225000CB0AE090CC0AF090CD0A8090C60A90900C
:10226000C70AA090C80AB090C90A61E872E08DE779
:1022700099E00E949F332AE030E0B501A4018DE788
:1022800099E00E9455336CEC72E08DE799E00E9472
:102290009D332AE030E0B701A6018DE799E00E9466
:1022A00055338DE799E00E9416330091820A109110
:1022B000830A62E772E08DE799E00E949F33B801DC
:1022C0008DE799E00E945740809121018823B9F061
:1022D0008091880B882399F000911E0C10911F0C9F
:1022E00065E672E08DE799E00E949F33B8018DE7C3
:1022F00099E00E9457408DE799E00E941633809143
:102300002101882329F08091800A81110C94561AAA
:1023100080912101882331F18091650B882311F18F
:102320000091780B1091790BE0907A0BF0907B0B79
:1023300069E472E08DE799E00E949F33B7018DE771
:1023400099E00E9471406EE372E08DE799E00E948F
:102350009F33B8018DE799E00E9457408DE799E0DF
:102360000E9416338091880B8823C9F18091210146
:102370008B30A9F510E080918D0B90918E0B899F89
:10238000802D1124181758F5B4E01B9FF00111247B
:10239000E05EF34FC080D180E280F38064E372E0BE
:1023A0008DE799E00E949F334AE050E0612F8DE76E
:1023B00099E00E942C3360E372E08DE799E00E947F
:1023C0009F332AE030E0B701A6018DE799E00E9433
:1023D00055338DE799E00E9416331F5FCCCF809173
:1023E0002101882309F4BAC080914304882311F0A5
:1023F00019E501C01EE465E272E08DE799E00E94F4
:102400009F33612F8DE799E00E944E338DE799E06D
:102410000E9416338091D805882311F019E501C078
:102420001EE468E172E08DE799E00E949F33612F1E
:102430008DE799E00E944E338DE799E00E941633B4
:102440008091D805882309F489C0C090E105D09017
:10245000E205E090E305F090E4058090DD059090C2
:10246000DE05A090DF05B090E0054090E9055090B2
:10247000EA056090EB057090EC056DE072E08DE789
:1024800099E00E949F332AE030E0B301A2018DE77A
:1024900099E00E94553361E072E08DE799E00E9477
:1024A0009F332AE030E0B501A4018DE799E00E9456
:1024B00055336CEC72E08DE799E00E949D332AE081
:1024C00030E0B701A6018DE799E00E945533809175
:1024D000DC058823B1F0C090E505D090E605E090DA
:1024E000E705F090E8056CEC72E08DE799E00E945A
:1024F0009D332AE030E0B701A6018DE799E00E9404
:1025000055330091D90510E0E090DA05F12CD09018
:10251000DB0567EF71E08DE799E00E949F336D2D39
:102520008DE799E00E944E336CEC72E08DE799E004
:102530000E949D33B7018DE799E00E9457406CECF3
:1025400072E08DE799E00E949D33B8018DE799E034
:102550000E9457408DE799E00E941633D090641096
:10256000EFEFDE1641F180E690E00E9496768C0156
:1025700082E690E00E9496767C01F694E7949801BA
:102580002E0D3F1D8091820A9091830A28173907EA
:1025900024F461E08D2D0E949B2C0E191F0980915F
:1025A000820A9091830A801791072CF460E0809151
:1025B00064100E949B2CCE018F5D9B4F0E94DE3CDD
:1025C00083E091E0C25DDB4F99838883CE52D44093
:1025D00080E1C35DDB4F8883CD52D44090910201EE
:1025E000CE5DDB4F8881C252D440992311F08260C6
:1025F00001C08D7FCE5DDB4F8883C252D440809175
:10260000CA0A9091CB0A4091C60A5091C70A6091BC
:10261000C80A7091C90ACB5DDB4F488359836A832E
:102620007B83C552D440C75DDB4F99838883C952F1
:10263000D440BE016F5F7F4FCE018F5D9B4F0E94E4
:10264000ED3D809121018823B1F00D8110E0102F24
:1026500000278E81080F111D67EE71E08DE799E06C
:102660000E949F33B8018DE799E00E9471408DE789
:1026700099E00E9416338091880B882309F492C058
:10268000E0902010F090291090902A1080918D0BEE
:1026900040918E0B849F402D112450E020E23CE0BD
:1026A00068E0CE0101960E94C56AE9E8CE2EEBE013
:1026B000DE2E03EF1BE0812CAA24A394B12C809181
:1026C0008D0B8816D8F5D8015C9120E030E080E0D1
:1026D00090E040E0B501082E01C0660F0A94EAF7C9
:1026E0006523C1F0A1E0B4E0AC0FBD1FE4E04E9F54
:1026F000A00DB11D1124F901E956FC4FEC0DFD1D93
:1027000040805180628073804D925D926D927C9288
:1027100013974F5F8730910531F001962C5F3F4F43
:102720004830C0F202C0442349F050E09E012F5FC0
:102730003B4F682DCE0101960E94C56A8394F0E25A
:10274000CF0ED11C0F5F1F4F78E0472E8410B7CFFC
:1027500080911E0C90911F0CCC5ADB4F998388837B
:10276000C455D4409E012C5A3B4F43E060E074E0D6
:10277000CE0101960E94DA40892D90E0880F991FC2
:102780009E298F29CA5ADB4F99838883C655D44026
:102790009E012A5A3B4F43E160E074E0CE0101966E
:1027A0000E94DA408091820A9091830ACE5ADB4FD0
:1027B00099838883C255D4409E012E5A3B4F44E0F2
:1027C00060E074E0CE0101960E94DA408091800AB8
:1027D0008823A1F08091840A9091850AC05BDB4F29
:1027E00099838883C055D4409E01205B3B4F45E0D0
:1027F00060E074E0CE0101960E94DA408091DE0A2A
:102800009091DF0A9C0144E0220F331F4A95E1F7C3
:102810008091E20A9091E30AA091E40AB091E50A5E
:102820005BE0B595A795979587955A95D1F7822B3B
:10283000932BC25BDB4F99838883CE54D4409E0197
:10284000225B3B4F48E060E074E0CE0101960E94BD
:10285000DA408091650B882341F18091780B90914B
:10286000790BC65BDB4F99838883CA54D4409E01A1
:10287000265B3B4F4BE160E074E0CE0101960E9485
:10288000DA4080917A0B90917B0BC45BDB4F99838C
:102890008883CC54D4409E01245B3B4F4CE160E0E4
:1028A00074E0CE0101960E94DA40809101018823F4
:1028B00091F080914004C05ADB4F8883C056D440C9
:1028C0009E01205A3B4F47E060E074E0CE01019644
:1028D0000E94DA4004C080913F04882351F000E058
:1028E0002BE231E04DE060E074E0CE0101960E9401
:1028F0001441CF5FDB4F188219821A821B82C150AC
:10290000D440CB5FDB4F188219821A821B82C550DC
:10291000D440CE018F5F9B4F0E943038BE016F5F65
:102920007B4F8EEE9AE00E940938811149C0809158
:10293000F20A9091F30A4091EE0A5091EF0A6091E9
:10294000F00A7091F10ACC5BDB4F488359836A83AC
:102950007B83C454D440C85BDB4F99838883C854BD
:10296000D4408D8190E0982F88272E81820F911D71
:102970008C01095F1F4F013024E0120708F5EE2497
:10298000E394F12CEC0EFD1EE80EF91E26E0D701B3
:102990002C93019644E0BE016C5B7B4FE1E0F0E0DC
:1029A000EC0FFD1F8E0F9F1F0E94E03D42E0BE0115
:1029B000685B7B4FC70105960E94E03D1D830E8337
:1029C00000913D0410913E0401151105E9F06EECF3
:1029D00071E08DE799E00E949F33B8018DE799E09F
:1029E0000E9471408DE799E00E94163320913D04CA
:1029F00030913E0440913B0450913C0460E074E00F
:102A0000CE0101960E94396990913A0480912B1071
:102A1000911161C5883008F45EC5909139048091A8
:102A20002C1091116AC5882309F467C5C090D90597
:102A3000B090DA05A090DB05D090D8058091E9052B
:102A40009091EA05A091EB05B091EC05C05CDB4FDD
:102A500088839983AA83BB83C054D4408D8190E03E
:102A6000982F88272E81820F911D7C01F8E0EF0EB0
:102A7000F11C01E0E01604E0F00638F501E010E09A
:102A80000C0F1D1F080F191F2DE1D8012C93019663
:102A900044E0BE01605C7B4FE1E0F0E0EC0FFD1F25
:102AA0008E0F9F1F0E94E03DDD2011F080E801C0E5
:102AB00080E0A82AD8011596AC9215971696BC927C
:102AC00016971796CC92FD82EE82DD2009F453C052
:102AD0008CE29BE00E94AA49882309F44CC08091B3
:102AE000DC0581111CC5B2E0FB2EB4E0FB9E900119
:102AF0001124CF5FDB4F39832883C150D4408D81AF
:102B000090E0982F88274E81840F911DAC014D5F76
:102B10005F4F240F351F2130E4E03E0760F53D8311
:102B20002E8301E010E00C0F1D1F080F191F2EE16E
:102B3000D8012C93019642E0BE016F5F7B4FE1E02C
:102B4000F0E0EC0FFD1F8E0F9F1F0E94E03D0D5F18
:102B50001F4FFDEDCF2EF5E0DF2EE12C44E0B60156
:102B6000C8010E94E03D0C5F1F4FF4E0CF0ED11C66
:102B7000E394FE10F3CF20E030E040E054E0BE01EB
:102B80006F5F7F4FCE018F5D9B4F0E943E3E6D81F8
:102B900070E0762F66278E81680F711DCE01019639
:102BA0000E94AE3F809147048F5F809347049091CD
:102BB0003804992369F090916210992321F08917C4
:102BC00010F010923804609138048DE00E949B2C24
:102BD000CE018F5F9B4F0E94A442CE018F5F9B4F1F
:102BE0000E9436516B017C01C05DDB4F1882198257
:102BF0001A821B82C053D440CC5CDB4F18821982EE
:102C00001A821B82C453D440CE01805D9B4F0E9428
:102C1000FE43C05DDB4F88809980AA80BB80C05393
:102C2000D440D701C60188199909AA09BB09B7FF81
:102C300007C0B095A095909581959F4FAF4FBF4F1E
:102C40000397A105B1050CF493C1C501B40120E8B7
:102C50003FE146E857E00E94E076B7FC02C0A22FB1
:102C600002C0AFEFA20F04E0A002600111247601C0
:102C700016E7E10EF11C0A2E000CBB0B20E830EE2B
:102C800049E758EF0E940A77680D791D8A1D9B1D40
:102C900020E831E541E050E00E94E07629013A0168
:102CA00089012CE330E040E050E00E94E076CF5F05
:102CB000DB4F79836883C150D440C9016CE370E075
:102CC0000E944177CD5FDB4F99838883C350D44006
:102CD000CB5FDB4F79836883C550D44028E442162C
:102CE00024E0520614F4C7010DC0820108541440B8
:102CF00039E7C30ED11CC55FDB4FD982C882CB50E8
:102D0000D44014C0382F292F01960D3641E0140706
:102D10001CF00D561140F6CFC55FDB4F3883CB500A
:102D2000D440C45FDB4F2883CC50D440C15FDB4F1D
:102D300019830883CF50D4400F5F1F4FC55FDB4F0F
:102D4000C880D980CB50D44054E9C51A58EFD50A71
:102D5000E12CF12C370161E06E0DC6010E94AF3706
:102D600090E06FEFE61AF60A801791071CF4081B33
:102D7000190BF0CFC75FDB4F6882C950D440C65FE4
:102D8000DB4F7882CA50D440C95FDB4F1983088378
:102D9000C750D440C501B40120E831E541E050E01E
:102DA0000E94E076C901019667E070E00E942D77ED
:102DB000C35FDB4F99838883CD50D440C85CDB4F21
:102DC0001882C853D440CE01885C9B4F0E945D425C
:102DD000F82EC85CDB4F8881C853D440882309F49F
:102DE000C1C08091790A90917A0A0297E9F46091C2
:102DF000780A86E69BE00E9483666EE286E69BE0A8
:102E00000E94726261E086E69BE00E94726264EA60
:102E100086E69BE00E94726260E086E69BE00E948C
:102E2000726210E000E020C00E94B2438091790AF3
:102E300090917A0A009749F0019749F483E00E9443
:102E40003542182F187300E004C000E801C000E00C
:102E500010E06091780A86E69BE00E9483666F2D01
:102E600086E69BE00E947262CF5FDB4F8881C15093
:102E7000D4400E942151802B90E00E94D540CD5F2C
:102E8000DB4F8881C350D4400E942151682F86E6D1
:102E90009BE00E947262CB5FDB4F8881C550D440BB
:102EA0000E942151682F86E69BE00E947262809109
:102EB000790A90917A0A029791F4C95FDB4F888171
:102EC000C750D4400E942151682F86E69BE00E94A3
:102ED0007262C35FDB4F8881CD50D44011C0C35FA5
:102EE000DB4F8881CD50D4408F5F0E942151812BD0
:102EF00090E00E94D540C95FDB4F8881C750D44025
:102F00000E942151682F86E69BE00E947262C75F93
:102F1000DB4F8881C950D4408F5F0E942151682FB8
:102F200086E69BE00E947262C85CDB4F8881C853D2
:102F3000D440873088F0C55FDB4F88819981CB50C2
:102F4000D44064E670E00E9441770E942151682FCE
:102F500086E69BE00E94726286E69BE00E942766FE
:102F60000E94954361EC71E08DE799E00E94C333C4
:102F7000C05DDB4F88819981AA81BB81C053D44059
:102F80004091FE0A5091FF0A6091000B7091010B75
:102F9000841B950BA60BB70B00912D1010912E10D2
:102FA000A80160E070E0481759076A077B0774F4CE
:102FB0006BEB71E08DE799E00E949F33B8018DE7DC
:102FC00099E00E9471406CE971E046C1B7FF0AC008
:102FD00088E0FE01E05DFB4FAEEFBAE001900D929C
:102FE0008A95E1F780911E04882309F469C1009154
:102FF000200A1091210A0115110509F4FDC00E9453
:10300000FA314B015C0178018EE3E80EF11CF70107
:1030100080819181A281B38124013501481A590A26
:103020006A0A7B0AC301B20128EE421623E0520667
:103030006104710408F447C028EE33E040E050E03A
:103040000E94BE7624013501461A570A680A790A99
:10305000F7014082518262827382F80186A597A5AA
:10306000A0A9B1A969017A01CC0CDD1CEE1CFF1CE2
:103070008C159D05AE05BF0528F416A617A610AA47
:1030800011AA09C0821B930BA40BB50BF80186A7EC
:1030900097A7A0ABB1ABF80182A993A9A4A9B5A940
:1030A0008C159D05AE05BF0528F412AA13AA14AA13
:1030B00015AA09C0821B930BA40BB50BF80182ABB8
:1030C00093ABA4ABB5ABF80186A597A5A0A9B1A910
:1030D000892B8A2B8B2B69F4EE5BFF4F8081833029
:1030E00041F484E08083C8010E94CE6601966C01A1
:1030F00002C0C12CD12CF80182A993A9A4A9B5A919
:10310000892B8A2B8B2BA1F4EE5BFF4F80818330C0
:1031100011F081110DC01082F8013E9684E1DF01AB
:103120001D928A95E9F7C8010E94CE6603966C014C
:10313000B2E0CB16D10429F0E4E0CE16D10409F0B8
:103140005DC0CE01885C9B4F0E946946C85CDB4F26
:1031500088819981C853D4400E94AF4A6091200A67
:103160007091210A625F7F4FCE01885C9B4F0E9465
:103170007C4808E314E00C0F1D1F0E5F1F4FC801B1
:103180000E94994A6091200A7091210A6A5E7F4FDD
:10319000CE01885C9B4F0E947C48C8010E94A74AD0
:1031A0006091200A7091210A6E5E7F4FCE01885C8B
:1031B0009B4F0E947C48C8010E94A04A0E94AE4AD0
:1031C0006091200A7091210A625E7F4FCE01885C77
:1031D0009B4F0E947C48C65CDB4F88819981AA8105
:1031E000BB81CA53D44080931C0A90931D0AA093BC
:1031F0001E0AB0931F0A02C0C12CD12C1C2DC11075
:103200000EC080912101813009F05AC060E871E060
:103210008DE799E00E949F336DE771E029C060E877
:1032200071E08DE799E00E949F33DD24F2E0CF1634
:10323000D104E1F024F4CA94CD2861F01EC033E03B
:10324000C316D10439F044E0C416D104B1F467E6E2
:1032500071E00EC066E771E08DE799E00E94C3332C
:103260008DE799E00E94B0470E9499666EE671E092
:103270008DE799E00E94C33323C0812F90E0A0E046
:10328000B0E0C85CDB4F88839983AA83BB83C853B3
:10329000D4408AE090E0C45CDB4F99838883CC53B0
:1032A000D44064E571E08DE799E00E949F33BE0150
:1032B000685C7B4F8DE799E00E94475A0E94163365
:1032C00060E08BE10E949B2C80912101811112C052
:1032D0006091460470E06F5F7F4F6770772760935F
:1032E00046046F5D8DE799E00E944E338DE799E0CB
:1032F0000E94163380912704882309F4C4C02091CA
:1033000025043091260480912304909124042817E9
:10331000390708F0B8C08CE29BE00E94AA498823D4
:1033200009F4B1C08091140B9091150B892B09F011
:10333000AAC08091B7068F5F8093B706CE018F5FDA
:103340009B4F0E94DE3C83E091E0C25FDB4F99839C
:103350008883CE50D44080E1C35FDB4F8883CD505B
:10336000D440CF5DDB4F188219821A821B82C15272
:10337000D440CB5DDB4F188219821A821B82C55262
:10338000D440CE018F5D9B4F0E94FE43CB5DDB4F4F
:1033900088819981C552D440CF5DDB4F48815981E6
:1033A0006A817B81C152D440CB5FDB4F4883598314
:1033B0006A837B83C550D440C75FDB4F9983888382
:1033C000C950D440BE016F5F7F4FCE018F5F9B4FCE
:1033D0000E94ED3D8091250490912604C05DDB4F55
:1033E00099838883C053D440AD81B0E0BA2FAA2717
:1033F0008E81A80FB11D8D010D5E1F4F0130F1E0D0
:103400001F0708F581E090E08C0F9D1F8A0F9B1F1E
:103410002FE0FC012083119644244394512C4C0E40
:103420005D1EA40DB51D20E1E7E2F4E001900D92D0
:103430002A95E1F742E0BE01605D7B4F41960E9414
:10344000E03D1D830E8320E030E040E051E0BE010E
:103450006F5F7F4FCE018F5F9B4F0E943E3E6D811D
:1034600070E0762F66278E81680F711DCE01019660
:103470000E94AE3F809147048F5F809347049091F4
:1034800038049111E3C08CE29BE00E94AA4920918C
:10349000140B3091150B882321F02115310509F407
:1034A00041C02430310509F0DFC03CC00091840ADE
:1034B0001091850A64E572E08DE799E00E949F33E0
:1034C000B8018DE799E00E9471408DE799E00E9474
:1034D00016330C948811C15ADB4F8883CF55D440E2
:1034E0009E01215A3B4F42E260E074E0CE0101961A
:1034F0000E94DA4010923A0490CAC25ADB4F888385
:10350000CE55D4409E01225A3B4F43E260E074E026
:10351000CE0101960E94DA401092390487CA23E056
:10352000F22EE3CA8091160B9091170BDC01ED91FE
:10353000FC910088F189E02D0995882309F494C055
:1035400080910001882309F48FC066EE7AE08EED49
:103550009AE00E94DA37811187C064E971E08DE753
:1035600099E00E949F338DE799E00E94B0470E9446
:1035700048498091B60081FDFCCF8091B0008983DD
:1035800028E139E28091150181114BC0F89487B38D
:10359000876087BB78948091B60081FDFCCF8981DC
:1035A0008093B0008091B60081FDFCCFF89483B782
:1035B000817F866083BF83B7816083BF0FB6F89435
:1035C000A8958091600088618093600010926000EF
:1035D0000FBE80911F0490912004A0912104B0910E
:1035E0002204893006E990070EE1A007B10551F0E9
:1035F00086309749AE41B10529F085B7806685BF11
:103600008F7D85BF7894889583B78E7F83BF7894AC
:103610000FB6F894A895209360000FBE3093600019
:10362000B1CF8091BC008B7E8093BC008091BC00A8
:1036300084608093BC006CE871E08DE799E00E94A3
:103640009F338DE799E00E94B0470EC090916210C1
:10365000992321F0891710F01092380460913804F2
:103660008DE00E949B2C0FCFC05ADB4F0FB6F89411
:10367000DEBF0FBECDBFDF91CF911F910F91FF90A5
:10368000EF90DF90CF90BF90AF909F908F907F9002
:103690006F905F904F903F902F9008952F923F92A0
:1036A0004F925F926F927F928F929F92AF92BF9252
:1036B000CF92DF92EF92FF920F931F93CF93DF93FE
:1036C000CDB7DEB7CB5AD2400FB6F894DEBF0FBEEF
:1036D000CDBF84B78093400414BE0FB6F894A8956C
:1036E00080916000886180936000109260000FBE3E
:1036F00099E288E10FB6F894A895809360000FBE18
:103700009093600010E062E0812F0E9440311F5FC3
:103710001032C9F7809164108F3F41F061E00E9440
:10372000403160E0809164100E949B2C8091631076
:103730008F3F41F061E00E94403160E08091631072
:103740000E949B2C61E08BE10E94403160E08BE1A4
:103750000E949B2C88E0EBE3F1E0DE01A35BBD4F10
:1037600001900D928A95E1F788E0E3E4F1E0DE0153
:10377000AB5ABD4F01900D928A95E1F744E050E0BD
:1037800064ED70E0CE0187569D4F0E947876C75653
:10379000DD4F488159816A817B81C959D240DB0163
:1037A000CA01805C9241A109B109813E944EA340B7
:1037B000B10520F040E052EC61E070E08DE799E067
:1037C0000E9477408DE799E00E94B04784B78F7ED2
:1037D00084BF8BB185608BB989E0E0E0F0E0809335
:1037E0005700F490E3E0F0E080935700E490E2E0CB
:1037F000F0E080935700149180911F049091200471
:10380000A0912104B0912204E0E0F0E031E2309395
:1038100057002491BA2FA92F982F8827822B3296F0
:10382000E630F105A1F780931F0490932004A09344
:103830002104B093220468E477E08DE799E00E94C8
:103840009F3380911F0490912004A0912104B09196
:1038500022048A3046E994074EE1A407B105C1F07D
:1038600040F489309649AE41B105D9F48EE397E032
:1038700014C0853027E992072EE1A207B10559F05F
:1038800086309749AE41B10561F488E297E005C002
:1038900083E397E002C08CE197E09093AA068093BF
:1038A000A906C090A906D090AA066EE077E08DE741
:1038B00099E00E949F33B6018DE799E00E949F3303
:1038C000812F90E0A0E0B0E0C55CDD4F8883998354
:1038D000AA83BB83CB53D24000E110E0C15CDD4F33
:1038E00019830883CF53D2408E2D90E0A0E0B0E042
:1038F000C75DDD4F88839983AA83BB83C952D240B9
:10390000C35DDD4F19830883CD52D2408F2D90E0E7
:10391000A0E0B0E0CF5FDD4F88839983AA83BB83AB
:10392000C150D240CB5FDD4F19830883C550D240D0
:1039300080911F0490912004A0912104B091220451
:1039400089839A83AB83BC831E830D8361E077E018
:103950008DE799E00E949F33CE0101963C01BC01A6
:103960008DE799E00E94475A6C0165EF76E00E946E
:103970009F33BE016F5F7D4FC6010E94475A6C01A5
:1039800068EE76E00E949F33BE01675D7D4FC60101
:103990000E94475A6C0167ED76E00E949F33BE019A
:1039A000655C7D4FC6010E94475A9F2D9F70F92E7E
:1039B0008091400490E0A0E0B0E0CF5FDD4F8883CD
:1039C0009983AA83BB83C150D240CB5FDD4F19835B
:1039D0000883C550D2408F2D90E0A0E0B0E08983ED
:1039E0009A83AB83BC831E830D836CEC76E08DE7FA
:1039F00099E00E949F3361E070E0A2E0FA1611F0B6
:103A000060E070E08DE799E00E94574063EC76E05B
:103A10008DE799E00E949F33B3018DE799E00E9402
:103A2000475A8C016AEB76E00E949F33BE016F5FBC
:103A30007D4FC8010E94475A65E876E08DE799E01E
:103A40000E949F336DE676E08DE799E00E949F33F8
:103A50008DE799E00E94163368E276E08DE799E001
:103A60000E949F338DE799E00E94163380914004B5
:103A7000857019F081E08093380461E084E00E9451
:103A8000403161E084E00E949B2C61E08AE00E946A
:103A9000403161E08AE00E949B2C61E08EE00E9450
:103AA000403161E08EE00E949B2C809164108F3F3A
:103AB00041F180E690E00E9496768C016CE176E020
:103AC0008DE799E00E949F33B8018DE799E00E944D
:103AD00057408DE799E00E94163382E690E00E94FD
:103AE00096768C0160E176E08DE799E00E949F3345
:103AF000B8018DE799E00E9457408DE799E00E9458
:103B0000163380E390E00E9496768C0166E076E0C2
:103B10008DE799E00E949F33B8018DE799E00E94FC
:103B200071408DE799E00E9416336BEF75E08DE7E9
:103B300099E00E949F3323E0E22E21E0F22E00E282
:103B400010E030E1C32ED12CC8010E948876F70125
:103B500081937F0190E0A0E0B0E089839A83AB83FA
:103B6000BC83DE82CD8260E28DE799E00E944E3315
:103B7000B3018DE799E00E94475A0F5F1F4F003352
:103B8000110511F78DE799E00E9416330E94936AA0
:103B900060E086E69BE00E94836686E090E00E94FB
:103BA000D54086E69BE00E94276660E086E69BE0C3
:103BB0000E94836684E090E00E94D54086E69BE008
:103BC0000E94276640E150E060E270E083E091E00F
:103BD0000E94787680E390E00E9496769093B906F2
:103BE0008093B80661E089E00E94403161E089E09D
:103BF0000E949B2C60911D0170911E0180911F01FC
:103C0000909120010E94C031CE01835B9D4FC7552A
:103C1000DD4F99838883C95AD240DE01AB5ABD4F2C
:103C2000CC55DD4FB983A883C45AD2407D016C01C5
:103C300000E011E0C8010E948876D6018D936D01E5
:103C4000C8019E5F0E9488769FEF980F943010F411
:103C5000F70180830F5F1F4FFFEFEF1AFF0A083055
:103C600021E0120739F784E490E00E948876482E1C
:103C70008FEF840D803110F04424439485E490E06C
:103C80000E948876C056DD4F8883C05AD2408F3F4D
:103C900031F441E0C056DD4F4883C05AD240809194
:103CA000880B882309F4A5C26DEE75E08DE799E0D5
:103CB0000E949F3369EE75E08DE799E00E94C3335F
:103CC00089E080938F0B61E00E9440311092900B4D
:103CD0008091890B81111AC00E94416A8EE390E0A5
:103CE0000E9488768F3F09F49BC0A2E38A9FC0019F
:103CF0001124092E000CAA0BBB0B80931D0190937D
:103D00001E01A0931F01B09320018AC08770809389
:103D1000190C0E94936A6091190C606286E69BE020
:103D20000E94836660E086E69BE00E9472626FEF0D
:103D300086E69BE00E94726260E086E69BE00E945D
:103D4000726260E086E69BE00E94726260E086E656
:103D50009BE00E94726260E086E69BE00E947262D5
:103D600060E086E69BE00E94726260E086E69BE08F
:103D70000E94726260E086E69BE00E94726260E0F0
:103D800086E69BE00E94726260E086E69BE00E940D
:103D9000726286E69BE00E94276600E010E0CC2479
:103DA000C394D12C80E00E946D6A7601002E01C080
:103DB000EE0C0A94EAF7682F6E2980E00E94266ACA
:103DC00086E00E946D6A682F6E2986E00E94266A4E
:103DD0000F5F1F4F0830110529F701E010E0EE24B6
:103DE000E394F12C80E00E946D6AB701002E01C0BF
:103DF000660F0A94EAF7D62ED094682F6D2180E0E2
:103E00000E94266A89E00E946D6A682F6D2189E010
:103E10000E94266A0F5F1F4F0630110519F75CCF0D
:103E200061E080918F0B0E949B2C40911D0150916D
:103E30001E0160911F01709120014115510561051E
:103E4000710521F448EE53E060E070E08BEF9BE0F9
:103E50000E94083F0E947D3A83E193E00E948876A9
:103E6000282E880F88518C70582EA9E8CA2EABE0F6
:103E7000DA2EEAEEFBE0C955DD4FF983E883C75A35
:103E8000D2407F018E01035B1D4FA12CB12CF1E0CC
:103E9000CA55DD4FF883C65AD24088248394912CAA
:103EA000D8013D908D018CEF830D8437A0F441E063
:103EB000632D86E69BE00E948D669091DE068091E0
:103EC000DD06981711F40C94212CF601308A81E05C
:103ED000D7018C9302C0F7011082D7018D917D012B
:103EE0008823E9F02091F20BC4010A2C01C0880F4D
:103EF0000A94EAF7822399F080E093E00E948876A2
:103F0000382E88E093E00E948876282F422D632D7A
:103F1000C3010E94066A8981F601808F03C0D60121
:103F200058965C92BFEFAB1ABB0AEFEFCE1ADE0ACF
:103F3000F8E0AF16B10409F0B3CFF3EFEF2EFBE0DA
:103F4000FF2E812C912C04E112E0D7011C92C801B4
:103F50000E948876F7018083C80104970E949676B4
:103F60009C01215031092031310508F081E0F70131
:103F7000E25DFB4F8083C80101970E948876582E2E
:103F8000880F88518C70C555DD4F8883CB5AD2403D
:103F90006801F4E1CF1AD108EAEE2E2EEBE03E2EB6
:103FA000A12CB12CC40182549109CE55DD4F9983C7
:103FB0008883C25AD240D1018D911D01882361F1BD
:103FC000F701208181E090E00A2C01C0880F0A945B
:103FD000EAF7822309F1C6010E948876CF55DD4FAA
:103FE0008883C15AD240C60108960E948876282F3D
:103FF000452DCF55DD4F6881C15AD240C3010E9483
:10400000066A8981CE55DD4FE881F981C25AD240D6
:10401000E20DF31D80830EC0CE55DD4FE881F9819E
:10402000C25AD240E20DF31DC555DD4F2881CB5A4F
:10403000D24020834FEFA41AB40A8FEFC81AD80ACF
:1040400098E0A916B10409F0B6CFAFEFEA1AFA0A60
:10405000005E1F4FB8E08B0E911C0431E3E01E0799
:1040600009F073CF88E68093E90BCA55DD4FF881DC
:10407000C65AD240F1110CC069EE75E08DE799E0A7
:104080000E949F3362ED75E08DE799E00E949F33B7
:10409000C056DD4F2881C05AD2402170922E4092E6
:1040A00020102093291081E0C056DD4F4881C05A6E
:1040B000D2404270842EC056DD4F9881C05AD24003
:1040C00091FF80E080932A1000E010E070E1C72E9D
:1040D000D12CC955DD4FA881B981C75AD2408D91E5
:1040E000C955DD4FB983A883C75AD240811105C095
:1040F0006DEAA62E65E0B62E04C057EBA52E55E05E
:10410000B52ECC55DD4FE881F981C45AD24051908B
:10411000CC55DD4FF983E883C45AD240C755DD4FF3
:10412000A881B981C95AD2408D91C755DD4FB98355
:10413000A883C95AD24090E0A0E0B0E089839A8376
:10414000AB83BC83DE82CD826DEC75E08DE799E0B8
:104150000E949F33B8018DE799E00E94574067ECB9
:1041600075E08DE799E00E949F33B3018DE799E0F8
:104170000E94475A7C0161EC75E00E949F334AE03F
:1041800050E0652DC7010E942C33B501C7010E9484
:104190009F330F5F1F4F0830110509F09ACF60EA77
:1041A00075E08DE799E00E949F334AE050E0642D6E
:1041B0008DE799E00E942C3363E975E08DE799E083
:1041C0000E949F33882031F06AE875E08DE799E01E
:1041D0000E949F33911003C06CE775E002C062E853
:1041E00075E08DE799E00E949F338DE799E00E948A
:1041F000B04769EE75E08DE799E00E949F338091AA
:10420000880B811106C067E775E08DE799E00E9491
:104210009F336EE675E08DE799E00E94C33380918D
:10422000880B8823E9F069EE75E08DE799E00E943C
:104230009F3367E575E08DE799E00E949F334091D9
:104240001D0150911E0160911F01709120012AE013
:104250008DE799E00E94CD328DE799E00E941633F8
:104260008091650B8823D1F06DEE75E08DE799E0C4
:104270000E949F336FE475E08DE799E00E94C3339D
:104280008FEF8093730B4BE450E060E070E08EE7BB
:104290009BE00E94083F81E08093650B6FE475E02E
:1042A0008DE799E00E949F338091650B811106C0D4
:1042B00067E775E08DE799E00E949F336EE675E051
:1042C0008DE799E00E94C3338AE390E00E948876EC
:1042D00080931E048EED90E00E94887691E081111B
:1042E00001C090E09093140181EE90E00E949076DE
:1042F0004B015C01DC01CB010197A109B1098E3FA3
:104300009F4FAF4FBF4F30F0812C42EC942EAA2428
:10431000A394B12CB501A40180EE98E00E947740EF
:1043200085E58093450A84E596E09093470A80935B
:10433000460A9093490A8093480A109254061092B4
:10434000A80660E086E00E94403182E892E5909302
:104350001B0180931A01809169008063809369003A
:10436000EA9A61E088E10E94403160E088E10E94C1
:104370009B2C65E070E080E090E00E94C03161E03D
:1043800088E10E949B2C64EF71E080E090E00E9445
:10439000C03185EE90E00E9490766B017C01DC01DB
:1043A000CB010197A109B1098E3F9F4FAF4FBF4F7E
:1043B00028F0C12C3BE4D32EE12CF12CC814D904F5
:1043C000EA04FB0409F447C061E375E08DE799E076
:1043D0000E949F332AE0B501A4018DE799E00E9475
:1043E000CD326CE275E08DE799E00E949F332AE0C0
:1043F000B701A6018DE799E00E94CD328DE799E0E3
:104400000E941633FF92EF92DF92CF928EE195E0F9
:104410009F938F931F9280E58F937F926F920E945C
:104420007E73C3010E94D66962E370E080E090E091
:104430000E94C031B701A60180EE98E00E9477404B
:1044400062E370E080E090E00E94C0310FB6F89423
:10445000DEBF0FBECDBF8DE093E00E94D6698CE138
:1044600093E00E94D66983E293E00E94D6698EE4CD
:1044700090E00E9488768F3F09F481E091E02091DE
:104480001E04223008F490E022E020937D0A27E009
:1044900020937E0A2EE120937F0A8093800A9093D6
:1044A000810A882321F060E08AE10E9440318091F6
:1044B0007E0A883010F4885E01C08FEF60E00E94B1
:1044C000403180917F0A8F3F19F061E00E944031B6
:1044D0006DE075E08DE799E00E949F338FED90E0ED
:1044E0000E948876082F10E0C356DD4F1983088399
:1044F000CD59D24080EE90E00E948876C156DD4FC3
:104500008883CF59D2400430110504F58850803794
:10451000E8F40430110540F4F801EE0FFF1FE85FE6
:10452000FC4F6591749102C06CEF72E08DE799E0E9
:104530000E949F338DE799E00E94163348E7BE0141
:1045400061567D4FCE0183569D4F0BC066E373E0ED
:104550008DE799E00E941A3346E06BE471E08EE447
:1045600091E00E94E0418823B1F18091780A90E0C7
:10457000A0E0B0E089839A83AB83BC8380E190E0C4
:104580009E838D83E091790AF0917A0AE430F105F7
:1045900038F4EE0FFF1FE85FFC4F0591149102C045
:1045A0000CEF12E066E075E08DE799E00E949F3322
:1045B000B8018DE799E00E949F3367EF74E08DE7C3
:1045C00099E00E949F33B3018DE799E00E94475A1A
:1045D0000E94163306C069EE74E08DE799E00E94F0
:1045E0009F338DE799E00E94B0478091790A9091BE
:1045F0007A0A82309105C1F56091780A86E69BE0DF
:104600000E94836663E286E69BE00E94726260E03D
:1046100086E69BE00E94726260E086E69BE00E9474
:10462000726262E186E69BE00E94726260E086E66A
:104630009BE00E94726260E086E69BE00E947262EC
:1046400067E086E69BE00E94726260E086E69BE09F
:104650000E94726260E086E69BE00E94726286E6DB
:104660009BE00E94276616C0019789F483E00E94B0
:10467000354283FD0CC00E94B24383E00E94354264
:10468000682F686083E00E947B430E94954380E02E
:104690000E94BB690E9495438BE490E00E9488765B
:1046A000182F8F3F09F410E0812F0E94BB698823E7
:1046B000E9F0812F90E0A0E0B0E089839A83AB839A
:1046C000BC838AE090E09E838D8367ED74E08DE784
:1046D00099E00E949F33B3018DE799E00E94475A09
:1046E0000E9416338DE799E00E94B04760E08FE0AA
:1046F0000E9440316DEB74E08DE799E00E949F339A
:104700008DE799E00E94B0478091790A90917A0AEA
:104710008130910581F068F00297B1F460E088E2A1
:104720000E947B4387E20E943542682F6F7787E2C1
:1047300009C063E106C087E00E943542887F682F88
:10474000636487E00E947B4380E090E89093C30A13
:104750008093C20A80E091E0980F903111F0892F88
:10476000FACF8093C40A81E090E0A0E0B0E08093AB
:10477000D1069093D206A093D306B093D40610929C
:10478000CE0680E091E0A0E0B0E08093BA0690937E
:10479000BB06A093BC06B093BD0619821A821B8289
:1047A0001C828D839E83AF83B887CE0101960E94C1
:1047B000303888E0FE013196AAEBBAE001900D9204
:1047C0008A95E1F71092700087B3876087BB91E00C
:1047D0009093C50A1092980A1092950A1092940A22
:1047E0001092910A1092900A1092990A1092970AC8
:1047F0001092960A1092930A1092920A2FB7F89488
:104800001092D9061092DA061092DB061092DC069E
:104810001092D5061092D6061092D7061092D8069E
:104820001092B6008091B60080648093B6008091AB
:10483000B60080628093B6001092B0001092B10072
:104840001092B2001092B3001092B4001092B00017
:104850009093B1008091B6008F71E1F787B38760C4
:1048600087BB81E0809370002FBF6EEA74E08DE714
:1048700099E00E949F3360E070E88DE799E00E9424
:1048800071406AE373E08DE799E00E949D33C35A5B
:10489000DD4F188219821A821B82CD55D240CF5922
:1048A000DD4F188219821A821B82C156D240CE0176
:1048B000855C9D4F0E94A442882321F1CE01855C36
:1048C0009D4F0E943651C35ADD4F688379838A8396
:1048D0009B83CD55D240CE01835A9D4F0E943038E4
:1048E000CE01835A9D4F0E949B4588E0FE01E35A0A
:1048F000FD4FAEEFBAE001900D928A95E1F76AE8BC
:1049000074E002C064E674E08DE799E00E949F3392
:104910008DE799E00E94B04780911E04823009F033
:1049200099C4A89546E050E060E770E0CE01815759
:104930009D4F0E94787644E050E060E570E0CE0143
:104940008B569D4F0E947876BE016B567D4FCE01EF
:1049500087579D4F0E947C4844E050E060EC70E037
:10496000CE018B569D4F0E947876BE016B567D4FCF
:10497000CE018D579D4F0E947C4844E050E064EC8E
:1049800070E0CE018B569D4F0E947876BE016B562B
:104990007D4FCE0183589D4F0E947C488EE892E067
:1049A000C75DDD4F99838883C952D240C55DDD4F15
:1049B000188219821A821B82CB52D240C15DDD4F10
:1049C00099838883CF52D240CF5CDD4F1882198201
:1049D0001A821B82C153D240CB5CDD4F99838883FE
:1049E000C553D240C95CDD4F188219821A821B82DE
:1049F000C753D240DE01A75DBD4F7D0108EC10E03A
:104A000044E050E0B801CE018B569D4F0E9478766D
:104A1000BE016B567D4FCE0101960E947C488B8172
:104A20009C81AD81BE81F70182839383A483B5838A
:104A30000C5F1F4FF6E0EF0EF11C043D110501F76E
:104A400044E050E064E570E0CE018B569D4F0E943B
:104A50007876BE016B567D4FCE0189589D4F0E94DE
:104A60007C4888E590E00E9496765C018AE590E0BB
:104A70000E9496764C0140E450E060E870E0CE0180
:104A800001960E94787665EC73E08DE799E00E94CC
:104A90009F338E0101571D4F712C80E1E82EF12CC0
:104AA0006801D8018C91803128F460E38DE799E0AA
:104AB0000E944E330F5F1F4FF601808190E0A0E00F
:104AC000B0E0CF5FDD4F88839983AA83BB83C15059
:104AD000D240CB5FDD4FF982E882C550D240BE01A3
:104AE0006F5F7D4F8DE799E00E94475A7394F6E01F
:104AF0007F1631F06AE38DE799E00E944E33D0CF04
:104B00008DE799E00E9416336401CE0189589D4FCC
:104B10007C018E01075D1D4F9E0123583D4FAE0164
:104B20004D575D4FB50142960E942D5D61EB73E0DC
:104B30008DE799E00E949F33BE016F5F7F4F8DE745
:104B400099E00E949D338DE799E00E941633A89565
:104B5000C557DD4F88819981AA81BB81CB58D2404E
:104B6000892B8A2B8B2B09F471C060EA73E08DE7E7
:104B700099E00E949F338EE892E0CF5FDD4F9983EA
:104B80008883C150D240CB57DD4F488159816A811B
:104B90007B81C558D240CD5FDD4F488359836A83FE
:104BA0007B83C350D240CB59DD4F99838883C55650
:104BB000D240C158DD4F488159816A817B81CF57EE
:104BC000D240C959DD4F488359836A837B83C756D6
:104BD000D240C559DD4F99838883CB56D240C55DFD
:104BE000DD4F488159816A817B81CB52D240C359C4
:104BF000DD4F488359836A837B83CD56D240CF589B
:104C0000DD4F99838883C157D240C557DD4F8881D6
:104C10009981AA81BB81CB58D240CD58DD4F888382
:104C20009983AA83BB83C357D240085211099E01BE
:104C30002B593D4FAE0145595D4FBE016F587D4F19
:104C4000CE0181579D4F0E94EB6829C16EE873E049
:104C50008DE799E00E949F338DE799E00E94B0476D
:104C600080914C06811107C081E396E00E94604D5F
:104C700081E080934C068EEE95E09093210A80931C
:104C8000200A0E945C68CE018F5F9D4F0E9469469A
:104C9000CF5FDD4F88819981C150D2400E94AF4AD9
:104CA00046E050E0BE0161577D4F89E090E00E94F0
:104CB0004F4A8EE892E0CF5FDD4F99838883C150E1
:104CC000D240CD5FDD4F1882C350D240CC5FDD4F64
:104CD0001882C450D240CB5FDD4F1882C550D240FD
:104CE000CA5FDD4F1882C650D24001E012E00C0FBF
:104CF0001D1F0E5F1F4FC8010E94994A0E94AE4AB5
:104D00008091200A9091210ADC0192961D921D92B9
:104D10001D921C929597FC0116A217A210A611A62F
:104D20009A961D921D921D921C929D9740E65AEEF6
:104D300060E070E046AB57AB60AF71AF40EA5FE058
:104D400060E070E0DA964D935D936D937C93DD9710
:104D50003E9624E1DF011D922A95E9F726E0FE0147
:104D6000E157FD4FDC01189601900D922A95E1F76D
:104D7000FC01EE5BFF4F10820E94CE6681309105F0
:104D800009F055C0CE018F5F9D4F0E946946CF5FED
:104D9000DD4F88819981C150D2400E94AF4A609115
:104DA000200A7091210A625F7F4FCE018F5F9D4F75
:104DB0000E947C48C8010E94994A6091200A709123
:104DC000210A6A5E7F4FCE018F5F9D4F0E947C4813
:104DD000C8010E94A74A6091200A7091210A6E5E64
:104DE0007F4FCE018F5F9D4F0E947C48C8010E947B
:104DF000A04A0E94AE4A6091200A7091210A625E28
:104E00007F4FCE018F5F9D4F0E947C48CD5FDD4F6D
:104E100088819981AA81BB81C350D24080931C0AAA
:104E200090931D0AA0931E0AB0931F0A0EC0892BEF
:104E300061F462E873E08DE799E00E949F338DE7AB
:104E400099E00E94B0470E94996699E288E10FB606
:104E5000F894A895809360000FBE909360008091B5
:104E60001C0A90911D0AA0911E0AB0911F0ACD5FE5
:104E7000DD4F88839983AA83BB83C350D240C55D2D
:104E8000DD4F88839983AA83BB83CB52D240109293
:104E900000016DE773E08DE799E00E94C333A895A8
:104EA0008981082E000C990B0E947377892B09F4D5
:104EB000DFC061E773E08DE799E00E949F33BE0198
:104EC0006F5F7F4F8DE799E00E949D338DE799E0FA
:104ED0000E9416338E0105591D4F8EE892E0F801AD
:104EE000918380831282138214821582F3E03F2E15
:104EF000212CA9E24A2EA2E05A2E4C0E5D1EB2E1F0
:104F00004B0E511C3C01CC24C394B2E0DB2ECC0EE2
:104F1000DD1EE8E0CE0ED11CCE01875D9D4F7C01E9
:104F2000A895F70182819381A481B5810097A1059D
:104F3000B10509F446C0C959DD4F88839983AA8316
:104F4000BB83C756D240CF5FDD4F79826882C150A4
:104F5000D240CD5FDD4F188219821A821B82C35066
:104F6000D240C6010E94604DC959DD4F88819981A8
:104F7000AA81BB81C756D240CD5FDD4F888399831C
:104F8000AA83BB83C350D240C95FDD4F1982188208
:104F9000C750D240A801BE016F5F7F4FCE018F5F27
:104FA0009D4F0E94AB5A019761F4C359DD4F888130
:104FB0009981AA81BB81CD56D240892B8A2B8B2B1C
:104FC00041F4F6E0EF0EF11C4E145F0409F0A8CF97
:104FD00002C0222423943A9431109ECF2220B9F1AA
:104FE0008EE892E0CF5FDD4F99838883C150D24035
:104FF000F80182819381A481B581CD5FDD4F8883E3
:105000009983AA83BB83C350D240BE016F5F7F4F99
:105010008DE799E00E949D3363E673E08DE799E0A8
:105020000E949F33BE016F5F7D4F8DE799E00E9424
:10503000285DF80182819381A481B581C758DD4F35
:1050400088839983AA83BB83C957D2400DC063E587
:1050500073E08DE799E00E949F33BE016F5F7F4F41
:105060008DE799E00E949D338DE799E00E94163309
:10507000C758DD4F88819981AA81BB81C957D24029
:10508000892B8A2B8B2B09F051C0CE018F5F9D4F4E
:105090000E94C05ECD5FDD4FC880D980EA80FB8072
:1050A000C350D240CE018B599D4F0E94EC5EC9592E
:1050B000DD4F88819981AA81BB81C756D2408095F6
:1050C0009095A095B0958C299D29AE29BF29C758E8
:1050D000DD4F88839983AA83BB83C957D24028E7D1
:1050E00030E030932E1020932D102EE832E0CF5F69
:1050F000DD4F39832883C150D240CD5FDD4F888397
:105100009983AA83BB83C350D24060E273E08DE7EA
:1051100099E00E949F33BE016F5F7D4F8DE799E05C
:105120000E94285D8DE799E00E9416336EE073E0DF
:105130008DE799E00E949F33EEE86E2EE2E07E2E2E
:10514000CF5FDD4F79826882C150D240CD5FDD4FA5
:10515000188219821A821B82C350D240CE018B5909
:105160009D4F0E946946CB59DD4F88819981C55674
:10517000D2400E94AF4A61E072E06C0F7D1F6E5F0B
:105180007F4F44E050E081E090E00E941F4A0E947F
:10519000AE4ACE018B599D4F0E94EC5ECE018559DF
:1051A0009D4F0E94C05E6401CE0189589D4F7C01D5
:1051B0008E01075D1D4F9E012F5F3D4FAE014B5984
:1051C0005D4FB5010C970E942D5D8DE799E00E941F
:1051D000B047CF5FDD4F79826882C150D240C75857
:1051E000DD4F88819981AA81BB81C957D240CD5FAB
:1051F000DD4F88839983AA83BB83C350D240A40127
:10520000BE016F5F7D4FC5010E94845E0E944849C8
:105210008FE290E19093170B8093160B81E08093BF
:10522000380419821A821B821C8280E098E0A0E078
:10523000B0E08D839E83AF83B887CE0101960E9434
:10524000303888E0FE013196A6EDBAE001900D926B
:105250008A95E1F782E490E00E9496769C012150C5
:1052600031092E3F3F4F38F5AC015F7064E0569531
:1052700047956A95E1F760E070E049835A836B8354
:105280007C838F709927982F8827990F990F990FF2
:10529000A0E0B0E08D839E83AF83B887CE010196F6
:1052A0000E94303888E0FE013196AEEDBAE0019000
:1052B0000D928A95E1F766ED7AE08EED9AE00E9414
:1052C000DA37882321F088E0E6EDFAE00BC06EEDD6
:1052D0007AE08EEC9AE00E94DA37882349F088E081
:1052E000EEECFAE0AEEDBAE001900D928A95E1F7AE
:1052F000C090E20AD090E30AE090E40AF090E50A58
:105300008090DE0A9090DF0AA090E00AB090E10A57
:105310006CE474E08DE799E00E949F332AE030E06E
:10532000B501A4018DE799E00E9455336CEC72E061
:105330008DE799E00E949D332AE030E0B701A60195
:105340008DE799E00E9455338DE799E00E9416336E
:105350008DE799E00E94B04761E08DE00E94403106
:1053600060E08DE00E949B2C03E011E01093380B6D
:105370000093370B80E1F82EF092360B8DED93E51C
:105380009093770A8093760A8BEB92E69093730A58
:105390008093720A85EA92E69093750A8093740A64
:1053A00065E374E08DE799E00E94C3338DE799E0EF
:1053B0000E94B0478AE298E090934E0B80934D0B89
:1053C00080E590E09093500B80934F0B89E39BE036
:1053D0009093520B8093510B85E090E09093540B87
:1053E0008093530B87ED92E69093560B8093550B69
:1053F00081ED92E69093580B8093570B0E94A86919
:10540000CE01835A9D4F0E94FE43CE01875D9D4F82
:105410000E94DE3CCA5CDD4F19830883C653D2402C
:10542000CB5CDD4FF882C553D240CF59DD4F888128
:105430009981C156D240C35ADD4F488159816A8152
:105440007B81CD55D240C35DDD4F488359836A834C
:105450007B83CD52D240CF5CDD4F99838883C1538B
:10546000D240BE016F5F7F4FCE01875D9D4F0E948E
:10547000ED3D20E031E040E053E060E072E0CE013D
:1054800001960E94396920E030E040E052E0BE0120
:105490006F5F7F4FCE01875D9D4F0E943E3E6D81C5
:1054A00070E0762F66278E81680F711DCE01019600
:1054B0000E94AE3FCA5CDD4F19830883C653D240B9
:1054C000CB5CDD4FF882C553D240CF59DD4F888188
:1054D0009981C156D240C35ADD4F488159816A81B2
:1054E0007B81CD55D240C35DDD4F488359836A83AC
:1054F0007B83CD52D240CF5CDD4F99838883C153EB
:10550000D240BE016F5F7F4FCE01875D9D4F0E94ED
:10551000ED3D20E031E040E052E060E072E0CE019D
:1055200001960E94396920E030E040E052E0BE017F
:105530006F5F7F4FCE01875D9D4F0E943E3E6D8124
:1055400070E0762F66278E81680F711DCE0101965F
:105550000E94AE3FCA5CDD4F19830883C653D24018
:10556000CB5CDD4FF882C553D240CF59DD4F8881E7
:105570009981C156D240C35ADD4F488159816A8111
:105580007B81CD55D240C35DDD4F488359836A830B
:105590007B83CD52D240CF5CDD4F99838883C1534A
:1055A000D240BE016F5F7F4FCE01875D9D4F0E944D
:1055B000ED3D20E031E040E051E060E072E0CE01FE
:1055C00001960E94396920E030E040E052E0BE01DF
:1055D0006F5F7F4FCE01875D9D4F0E943E3E6D8184
:1055E00070E0762F66278E81680F711DCE010196BF
:1055F0000E94AE3FCA5CDD4F19830883C653D24078
:10560000CB5CDD4FF882C553D240CF59DD4F888146
:105610009981C156D240C35ADD4F488159816A8170
:105620007B81CD55D240C35DDD4F488359836A836A
:105630007B83CD52D240CF5CDD4F99838883C153A9
:10564000D240BE016F5F7F4FCE01875D9D4F0E94AC
:10565000ED3D20E031E040E050E060E072E0CE015E
:1056600001960E94396920E030E040E052E0BE013E
:105670006F5F7F4FCE01875D9D4F0E943E3E6D81E3
:1056800070E0762F66278E81680F711DCE0101961E
:105690000E94AE3FCA5CDD4F19830883C653D240D7
:1056A000CB5CDD4FF882C553D240CF59DD4F8881A6
:1056B0009981C156D240C35ADD4F488159816A81D0
:1056C0007B81CD55D240C35DDD4F488359836A83CA
:1056D0007B83CD52D240CF5CDD4F99838883C15309
:1056E000D240BE016F5F7F4FCE01875D9D4F0E940C
:1056F000ED3D80914004CB59DD4F8883C556D240A3
:105700009E012B593D4F47E060E072E0CE010196CB
:105710000E94DA4000E02BE231E04DE060E072E010
:10572000CE0101960E9414414DE154E0BE016F5F2D
:105730007F4FCE01875D9D4F0E94934148E250E02C
:1057400060E174E0CE018F5F9D4F0E9461736091B4
:10575000A9067091AA0648E250E0CE018F5F9D4FE6
:105760000E9442739E012F5F3D4F40E260E072E075
:10577000CE0101960E9414414FEF53E0BE016F5FCE
:105780007F4FCE01875D9D4F0E9493414DE656E0CD
:10579000BE016F5F7F4FCE01875D9D4F0E94934199
:1057A00048E256E0BE016F5F7F4FCE01875D9D4F9F
:1057B0000E94934120E030E040E052E0BE016F5F84
:1057C0007F4FCE01875D9D4F0E943E3E6D8170E010
:1057D000762F66278E81680F711DCE0101960E947B
:1057E000AE3F69EE73E08DE799E00E949F338DE74D
:1057F00099E00E9416330E940D5A6EED73E08DE71A
:1058000099E00E949F338DE799E00E941633C555B9
:10581000DD4F0FB6F894DEBF0FBECDBFDF91CF9145
:105820001F910F91FF90EF90DF90CF90BF90AF90BE
:105830009F908F907F906F905F904F903F902F90B0
:105840000895F7011082CA55DD4F1882C65AD2401A
:105850000C946D1F08950E946C77BF92CF92DF92D7
:10586000EF92FF920F931F93CF93DF93EB0100977B
:1058700019F480E090E02EC07C0100E010E06701A8
:10588000F701B1907F01FCE2BF16A1F08B2D0E94C1
:10589000DA4F81111CC0209759F0C80101960630DB
:1058A000110514F08C0104C0B88221968C01E7CF59
:1058B000C801FCCF209741F0063011050CF4188286
:1058C000F60180818C32A9F6C601019603C02097AB
:1058D00099F7CFCFDF91CF911F910F91FF90EF906C
:1058E000DF90CF90BF900895CF93DF93FC0120818C
:1058F0002C32E9F0EC0162E00E94C34F80936C0A05
:1059000062E0CE0102960E94C34F80936D0A62E06E
:10591000CE0104960E94C34F80936E0A62E0CE01CE
:1059200007960E94C34F80936F0ACE010996DF91BC
:10593000CF910C94E84F362F90E0FC01EB58F84FD4
:105940004491FC01E454F44F2491FC01E452F44FDF
:105950008491882309F444C0442371F150E0FA0192
:105960003197EA30F10540F5EA5BFF4F0C9455772B
:10597000909180009F7703C0909180009F7D9093CD
:1059800080001AC094B59F7702C094B59F7D94BDE6
:1059900013C09091B0009F7703C09091B0009F7D9D
:1059A0009093B00009C0909190009F7703C09091B0
:1059B00090009F7D90939000E82FF0E0EE0FFF1F86
:1059C000E559F84FA591B4919FB7F894311104C0EF
:1059D0008C912095282302C0EC912E2B2C939FBFF5
:1059E00008952F923F924F925F926F927F928F9283
:1059F0009F92AF92BF92CF92DF92EF92FF920F935E
:105A00001F93CF93DF93CDB7DEB762970FB6F894AD
:105A1000DEBF0FBECDBFE0918A0BF0918B0B3197AB
:105A2000EC30F10508F013C4E05BFF4F0C945577A0
:105A300010921A0C10921B0C10921C0C10921D0C40
:105A400080E090E890931F0C80931E0C80918D0B4A
:105A500090918E0B899F902D1124E0E2FCE080E074
:105A600040E050E060E070E8981731F041935193C6
:105A7000619371938F5FF8CF49E85BE028E0C12C18
:105A8000D12CE12C00E8F02E80E090E0FC01E956FA
:105A9000FC4FE40FF51FC082D182E282F3820496AC
:105AA0008032910599F72150405E5F4F2111ECCF74
:105AB00082E090E00BC08BEF9BE00E94575A882356
:105AC00009F4C5C30E947D3A83E090E090938B0B6C
:105AD00080938A0BBCC319821A821B821C821D828E
