:100000000C94BB040C947F630C94AA630C94D5638A
:100010000C94EA040C94EA040C94EA040C94EA04A8
:100020000C94EA040C94593B0C94853B0C94123EBE
:100030000C94EA040C94EA040C94EA040C94EA0488
:100040000C94EA040C94EA040C9401640C94EA0401
:100050000C940C670C9442670C94EA040C94EA0428
:100060000C94EA040C94EA040C9460270C94EA04BF
:100070000C94B9670C94EF670C94EA040C94EA04AE
:100080000C94EA040C94EA040C94EA043910F1127A
:10009000F112400FAA10F112B610F11219118512C7
:1000A0009312C312E5126C36AA36C136FC363437C9
:1000B00057379537F1373265356528652C654C65BE
:1000C0004C6539653D65436547654552524F523A27
:1000D00020756E6B6E6F776E20636F6D6D616E64F1
:1000E0003A202700270A00766572626F7369747977
:1000F0003A00766572626F736974790073616D702E
:100100006C696E67496E74657276616C5F313674C6
:10011000685F73005245424F4F543D7472756500DD
:10012000656570726F6D57726974653D00656570C5
:10013000726F6D526561643D005061636B65742040
:1001400076616C69642062757420696E636F727287
:1001500065637420726573706F6E7365002323236B
:10016000232323232323232323232323232323235F
:1001700023232300546F6F206D616E7920726574A4
:10018000726965733A20004157414B45210A00537B
:100190004C454550210A007320776974686F757467
:1001A000206D6573672061636B2C207265626F6FD1
:1001B00074696E670A00476F6E652000536574208E
:1001C000485720636C6F636B00454550524F4D207C
:1001D000636F6E74656E7473206C656E6774683AD5
:1001E0002000486561646572206C656E6774683ACA
:1001F00020000A5374617475733A200046697820B0
:1002000074696D653A20000A506F736974696F6E86
:100210003A2000474E53532076616C69643A2000BF
:100220006D6167446174615B005D3A2000537570D5
:10023000706C7920766F6C746167653A2000546940
:100240006D657374616D703A20000A53797374653B
:100250006D2074656D702E3A20000A464C43313093
:10026000302074656D702E3A20002D2D2D2D0A53EF
:10027000616D706C696E6720737461727465640A75
:100280000054696D65206572726F7220286F7572F7
:100290002D474E5353293A200054696D65207365EC
:1002A000742066726F6D20474E53530A0053657475
:1002B000757020636F6D706C6574650053616D704F
:1002C0006C696E6720696E74657276616C20287344
:1002D000293A2000436F756C64206E6F7420676547
:1002E000742074696D652066726F6D206861726438
:1002F00077617265205254430A0053657420737904
:100300007374656D20636C6F636B2066726F6D2014
:100310006861726477617265205254430A005379B0
:100320007374656D20636C6F636B3A2000436F6E6E
:100330006669677572696E672073797374656D207D
:10034000636C6F636B0A004D43503739343178204A
:1003500063616C6962726174696F6E3A20004E6FFE
:100360002052544320666F756E640A00466F756EA6
:100370006420525443206174206164647265737315
:10038000203078004175746F70726F62696E6720FB
:10039000746F2066696E64205254430A006D656173
:1003A0006E0A006D656469616E0A007472696D6D34
:1003B000656420006E756D53616D706C65733A20D5
:1003C000000A6167677265676174653A200041449D
:1003D000435B005D3A204F78002063682E200020A8
:1003E0006D697373696E670A002070726573656E5C
:1003F000740A00464C433130300020706F776572CC
:100400002D75702064656C617920286D73293A2000
:10041000002070726573656E7400206E6F74004901
:100420006E697469616C6973696E672000484D413B
:1004300043206B65793A200046616E2068797374B9
:100440002E3A200046616E2074656D702E3A2000B1
:100450000A4669726D776172653A204D6167436C37
:100460006F75642D302E3237610A465F4350553A1E
:100470002031324D487A0A436F6D6D733A205735FB
:100480003130300A46656174757265733A20464CA6
:100490004331303020474E53530A005243206F738C
:1004A000632E3A20000A434B53454C3A20000A4D34
:1004B000435553523A20004C6F7720667573653A66
:1004C00020000A4869676820667573653A20000A4B
:1004D000457874656E64656420667573653A2000BE
:1004E0006D61696E7461696E2072657475726E6596
:1004F000642000726562696E640072656E6577657E
:1005000064006661696C65642C207265626F6F744B
:10051000696E67006F6B0044484350206C656173DF
:100520006520004163746976652073657474696E33
:1005300067733A0A004E6F2072656D6F74652068AC
:100540006F73742C20747279696E6720666F7220E5
:100550003132307320746F20636F6D6D756E696317
:1005600061746520746F200043616E6E6F74207239
:1005700065736F6C76652000207265736F6C7665AD
:100580007320746F200044484350206661696C6595
:10059000642C207265626F6F74696E672E2E2E0A4E
:1005A0000052657175657374696E672049500A0061
:1005B0005573696E67207374617469632049500ACA
:1005C00000202052656D6F746520686F73746E61D2
:1005D0006D653A2000454550524F4D207365747447
:1005E000696E67733A0A20204D41433A20000A2081
:1005F0002052656D6F74653A2000286E6F6E652914
:100600000020204C6F63616C3A20000A20204D616D
:10061000736B3A20000A202047573A20000A202016
:10062000444E533A2000496E7374616C6C204657F7
:1006300020726573756C743A20004669726D77613B
:100640007265204352433A20000A446F776E6C6F04
:100650006164204352433A20000A4352432073749A
:10066000617475733A2000636F706965642070610E
:10067000727469616C2073706D4275666665722074
:10068000746F20666C6173683A20004669726D77FA
:1006900061726520646F776E6C6F616420666F7243
:1006A000200020636F6D706C657465640A00636F71
:1006B000706965642073706D42756666657220743A
:1006C0006F20666C6173683A2000457261736564DF
:1006D0002074656D706F72617279206170706C69E1
:1006E000636174696F6E206172656120696E206656
:1006F0006C617368200050726F63657373696E6715
:1007000020465720757067726164652000557067D8
:1007100072616465206669726D7761726520746FBD
:100720002000416C7265616479206861766520669D
:1007300069726D776172652076657273696F6E207C
:1007400000526563656976656420757067726164DF
:1007500065206669726D77617265207461673A2001
:100760000053414D504C494E4720494E5445525636
:10077000414C204348414E47454421200053657277
:100780007665722074696D653A20000A4F75722093
:1007900074696D653A20000A54696D65206572724E
:1007A0006F7220286F75722D736572766572293AA3
:1007B000200054696D65207365742066726F6D202A
:1007C0007365727665720A003D3D3D3D0A003D3D10
:1007D0003D3D0A526573706F6E73653A0A0078A4E6
:1007E0006AD756B7C7E8DB702024EECEBDC1AF0F85
:1007F0007CF52AC68747134630A8019546FDD89850
:100800008069AFF7448BB15BFFFFBED75C892211D3
:10081000906B937198FD8E4379A62108B4496225A7
:100820001EF640B340C0515A5E26AAC7B6E95D1015
:100830002FD65314440281E6A1D8C8FBD3E7E6CDF6
:10084000E121D60737C3870DD5F4ED145A4505E9E4
:10085000E3A9F8A3EFFCD9026F678A4C2A8D4239CD
:10086000FAFF81F6718722619D6D0C38E5FD44EA3F
:10087000BEA4A9CFDE4B604BBBF670BCBFBEC67E2C
:100880009B28FA27A1EA8530EFD4051D880439D0CA
:10089000D4D9E599DBE6F87CA21F6556ACC44422A6
:1008A00029F497FF2A43A72394AB39A093FCC3599B
:1008B0005B6592CC0C8F7DF4EFFFD15D84854F7E1C
:1008C000A86FE0E62CFE144301A3A111084E827E1E
:1008D00053F735F23ABDBBD2D72A91D386EB00004D
:1008E00000000000000108030200090A00000000E7
:1008F00000000000040700000000000000000102EA
:10090000040801020408402010204080804020108C
:100910000804020110808040201008040201040431
:10092000040402020202040402020202030303039B
:10093000030303030404010101010101010100009B
:100940002200250028002B000000210024002700A1
:100950002A00720B640E76263A393C41D74286450E
:10096000984E234FC154635971597C59DC5B5F61C8
:1009700076672368DB6811241FBECFEFD0E4DEBFAB
:10098000CDBF13E0A0E0B1E0EEE7FBED00E00BBF70
:1009900002C007900D92A63CB107D9F72EE2A6EC53
:1009A000B3E001C01D92A338B207E1F719E0C6E732
:1009B000D9E000E006C022970109FE010BBF0E94AA
:1009C0009A6BC235D10780E00807A9F70E94D06A68
:1009D0000C94BD6D0C9400000F931F93CF93DF9385
:1009E000DB01ED018C01222717FD2095322F2BBF53
:1009F000F8010791002331F011962881201309C0D6
:100A00000196EFCF4115510531F0FA01B183A08372
:100A100002C080E001C081E0DF91CF911F910F9172
:100A20000895EF92FF920F931F93CF93DF93EC0102
:100A30008B017A0165E571E00E944B69E00EF11EC1
:100A4000011580E1180738F50E151F0521F167E63D
:100A500071E0CE010E944B69A80160E070E020E1E6
:100A600030E0CE010E94DF6965E671E0CE010E94B0
:100A70004B69C8010E949A6D482F50E060E070E019
:100A800020E130E0CE010E94DF69CE010E945E6964
:100A90000F5F1F4FD5CFCE01DF91CF911F910F91E7
:100AA000FF90EF9008952F923F924F925F926F9236
:100AB0007F928F929F92AF92BF92CF92DF92EF92EE
:100AC000FF920F931F93CF93DF93CDB7DEB72F978E
:100AD0000FB6F894DEBF0FBECDBF6C017B01805B0B
:100AE0009F4F9E878D87D701ED91FC910480F58102
:100AF000E02DC7010995892B09F4F7C1D701ED91C4
:100B0000FC910680F781E02DC7010995482F8D30B3
:100B100019F08A3009F0B5C1ED85FE85208131815B
:100B2000C216D30608F0ADC1AE01455F5F4FB601F6
:100B30008DE291E00E94EC04882309F44BC040E070
:100B400050E0BE016F5F7F4F8B859C850E94F96BE3
:100B50002B013C016115F0E17F078105910508F04B
:100B6000B4C1E981FA812B853C85E217F30709F4CA
:100B7000ACC120812C3209F0A8C1CF0101969A8323
:100B800089839C878B8740E050E0BE016F5F7F4F79
:100B90000E94F96B16161706180619060CF095C177
:100BA00093018201060F171F281F391F01151041DD
:100BB000210531050CF089C1E981FA812B853C853D
:100BC000E217F30709F481C1208121117EC1AB0135
:100BD000B20177C1AE01455F5F4FB60180E291E09F
:100BE0000E94EC04882309F452C040E050E0BE01AA
:100BF0006F5F7F4F8B859C850E94F96B4B015C0179
:100C0000E981FA818B859C85E817F907E9F18081F4
:100C10008C32D1F52401350112018201081919091C
:100C2000411490E1590661047104A0F489819A810C
:100C300001969A8389839C878B8740E050E0BE01B0
:100C40006F5F7F4F0E94F96B6F3F710581059105C2
:100C500031F028F0B201601B710BA80132C1E981AB
:100C6000FA812B853C85E217F307A1F320812C3212
:100C700011F02111EFCFC1010E94A86D8FEF481A2A
:100C8000580A680A780AC8CF6AE671E020C1AE0146
:100C9000455F5F4FB60184E191E00E94EC04882338
:100CA00091F06DE871E0C7010E944B69C7010E9495
:100CB0005E69D701ED91FC910284F385E02DC701B7
:100CC00009950E943A25AE01455F5F4FB6018CEF52
:100CD00090E00E94EC04882309F47EC0EB85FC853B
:100CE000CF0101969C878B8720812D3309F045C069
:100CF00040E050E0BE01675F7F4F0E94F96B16161F
:100D0000170618061906CCF5E985FA852B853C856A
:100D1000E217F30791F1208121112FC08B019C0173
:100D20000F701127222733274BE0000F111F221FBE
:100D3000331F4A95D1F7AB01BC01407F6627772767
:100D4000E4E07595679557954795EA95D1F7CE01FB
:100D500001960E94C53C6DEF74E0CE0101960E94A1
:100D6000E63D81110AC0BE016F5F7F4F85EF94E0C1
:100D70000E94E63D882309F4AEC0409005055090DE
:100D80000605609007057090080584E0440C551C2A
:100D9000661C771C8A95D1F78091090590910A0508
:100DA000A0910B05B0910C052BE0B595A7959795F3
:100DB00087952A95D1F7480E591E6A1E7B1E6BE94E
:100DC00071E0C7010E944B692AE030E0B301A20143
:100DD000C7010E94DF6939C0AE01455F5F4FB601B0
:100DE00082EF90E00E94EC04882399F1EB85FC856A
:100DF000CF0101969C878B8720812D33C9F440E079
:100E000050E0BE016F5F7F4F0E94F96B6F3F71052D
:100E10008105910509F060F4E981FA812B853C8513
:100E2000E217F30729F02081211102C06093BA2A4A
:100E30001091BA2A67EE70E0C7010E9428694AE063
:100E400050E0612FC7010E943E6AC7010E945E699F
:100E50000EC06AEC70E0C7010E942869B601C701A4
:100E60000E944B6964EE70E0C7010E942869F60198
:100E700040E511924A95E9F7AD85BE85CD92DC92A9
:100E800032CEED85FE850081118198012C193D0936
:100E9000203531050CF027CE842F992787FD9095BA
:100EA0004F870E942F6D4F85892B09F41CCE980126
:100EB0002F5F3F4FAD85BE852D933C93F801408356
:100EC00012CEC7010E941105D2CF64EB71E0C701B9
:100ED0000E944B69CCCFFE013196A5E0B5E088E0D9
:100EE00001900D928A95E1F748CF2F960FB6F894AE
:100EF000DEBF0FBECDBFDF91CF911F910F91FF904D
:100F0000EF90DF90CF90BF90AF909F908F907F90A9
:100F10006F905F904F903F902F9008950F931F9385
:100F2000CF93DF93EC01CB018A01BE01685F7F4F55
:100F300044E00E94E72DBE01645F7F4F42E0C8019C
:100F4000DF91CF911F910F910C94E72DEF92FF92BB
:100F50000F931F93CF93DF9300D0CDB7DEB77C0103
:100F60008B01413082E0580788F066ED71E0809196
:100F700040029091410249835A830E94746981E042
:100F800090E0F701918380835A814981B801C701BC
:100F90008E5D9D4F0E94F362F70111821082E65F21
:100FA000FD4F80819181049711F4118210820F907E
:100FB0000F90DF91CF911F910F91FF90EF900895C7
:100FC0002F923F924F925F926F927F928F929F9259
:100FD000AF92BF92CF92DF92EF92FF920F931F9347
:100FE000CF93DF93CDB7DEB762970FB6F894DEBF2D
:100FF0000FBECDBF362E272E4A01FA01C080D18008
:10100000A62EB72E10E09C01245D3D4F3A8B298B14
:101010002C0133ED431A3DEF530A3E0141E1640ECA
:10102000711CC114D10419F160E0262F30E0C60113
:10103000E3E0CE16D10410F082E090E028173907E3
:1010400090F4F501E20FF31F408150E0F901E85FF1
:10105000FC4F8081992787FD90954817590709F023
:1010600059C06F5FE2CF32E0C316D10410F480E0C4
:101070005EC0F4E0CF16D10408F43FC0F5018381CF
:1010800080FF4DC0F6E0CF16D104B8F1F501248100
:1010900030E0322F22278581280F311DC216D3065A
:1010A00060F1E989FA8940817901F8E0EF1AF0EE00
:1010B000FF0A83E0EE0CFF1C8A95E1F700E010E0E8
:1010C00028E0429FA0011124F20160817181950105
:1010D000CE0101960E949128DE011996F6013897FB
:1010E000EA0DFB1D81E02D919191291380E0A61559
:1010F000B705C9F711E0882391F0F401808191814F
:10110000C816D90699F0A601B501832D922D0E942B
:10111000536D0CC042E0C416D10408F4A8CFFFEF11
:10112000AF1ABF0A21E0C21AD1087BCF812F629685
:101130000FB6F894DEBF0FBECDBFDF91CF911F91E8
:101140000F91FF90EF90DF90CF90BF90AF909F9066
:101150008F907F906F905F904F903F902F90089569
:101160004F925F926F927F928F929F92AF92BF92B7
:10117000CF92DF92EF92FF920F931F93CF93DF9363
:10118000CDB7DEB767970FB6F894DEBF0FBECDBF01
:101190008C017B013A016C0124EFC21A2DEFD20AB7
:1011A000D6018D919C91009741F484E090E0F80184
:1011B0009183808380E090E07EC2D8011D921C92D2
:1011C000DC01ED91FC910288F389E02D099558012D
:1011D000B6EFAB1ABDEFBB0AF5018081918181307A
:1011E000910509F45AC01CF4892B49F062C282307F
:1011F000910509F463C0039709F4F6C05AC2780157
:10120000FEEDEF1AFDEFFF0AC7010E94CD628111CA
:1012100050C240E052E0B8016E5F7F4FC7010E94AC
:101220000F639C01780182E0E80EF81ED7012D9330
:101230003C932115310509F43CC2F801EC5FFD4FE8
:101240001182108281E090E0F50191838083E0912A
:10125000EE28F091EF28309709F42BC2C901BF01A5
:101260000E94FB6A882309F424C2AF01481B51097C
:101270006A01C20ED31EF1E0CF16F2E0DF0608F0DD
:1012800018C2C901029660E070E0800F911F0E94B1
:10129000656DD701CD92DC920CC2F60180819181FF
:1012A000DC01ED91FC910484F585E02D09958823FE
:1012B00009F4FFC182E090E0F501F9C17801FCEF8B
:1012C000EF1AFDEFFF0AD7018D919C91F801EE5FB7
:1012D000FD4F4F01892B71F48091BA2A8A3051F465
:1012E000409140025091410260817181C801029693
:1012F0000E94772ED7018D919C91892B51F4F60194
:1013000080819181DC01ED91FC910488F589E02DCB
:101310000995F60180819181DC01ED91FC91008CB1
:10132000F18DE02D0995009719F4F40180819181E8
:10133000F601A081B1812D913C911197F701608157
:1013400071816E5F7F4F600F711FF90122813381C0
:10135000AC01CD01F9010995D7012D913C9111976F
:10136000280F391F2D933C93F40180819181281718
:10137000390709F09EC1D6018D919C91DC01ED9158
:10138000FC910688F789E02D0995F801EA5FFD4F89
:10139000118210827801B2EFEB1ABDEFFB0A80EDEB
:1013A00097E0A0E0B0E0F70180839183A283B3834C
:1013B00081E090E0918780870E944B64D7014D9037
:1013C0005D906D907C90640D751D861D971DF701D5
:1013D000648375838683978336978FEF9FEF91831E
:1013E000808383E090E07DC04801B2EF8B1ABDEFAF
:1013F0009B0AF40180859185892B51F40E945764E2
:10140000D40114962D913D914D915C91179707C091
:101410000E944B64F4012481358146815781621B0F
:10142000730B840B950B609570958095909566274E
:1014300097FD6395772788279927662309F455C078
:10144000C0904002D090410267EE71E0C6010E9458
:10145000746982E090E0D8018D939D937D014801ED
:10146000B2E08B0E9B1EF4014081B701CE010196C4
:101470000E946E2F8C85823038F58F5F8C87F80143
:10148000E45DFD4F20813196808191819F878E8719
:101490002D8720E030E040E052E0B701CE01019618
:1014A0000E94D232D4011D921C92F801468150E074
:1014B000542F44278781480F511DB701C8018E5D05
:1014C0009D4F0E94F3620BC064E771E0C6010E9469
:1014D0002869A60160E072E0C7010E94772E84E0CF
:1014E00090E0D5018D939C93E4C0F60180819181B9
:1014F000DC01ED91FC91028CF38DE02D0995F60154
:1015000080819181DC01ED91FC910480F581E02DD9
:1015100009952C01009709F4CCC04801BAEF8B1A49
:10152000BDEF9B0AF401808191818615970560F0DB
:1015300081E090E0D8018D939C93349711821082C2
:10154000F50111821082B5C0D6018D919C91DC010C
:10155000ED91FC910680F781E02D0995F401208141
:101560003181A9014F5F5F4F51834083F701E20F43
:10157000F31F8083F1E04F1A510831F7A401B7013E
:10158000C8010E94E007882309F493C0680122E0A3
:10159000C20ED11CAE014A5E5F4FBE01605F7F4F3D
:1015A000C6010E948E07AE014C5E5F4FBE016F5FA9
:1015B0007F4FC7010E948E07D70116962C91169770
:1015C00030E0322F222717968C91280F311DF80119
:1015D000808590E0982F88274185840F911D2817DA
:1015E000390709F042C0488959896A897B8989810C
:1015F0009A81AB81BC81481759076A077B07A9F517
:101600002E893F898C899D892817390771F5D70163
:1016100014962C91149730E0322F222715968C9136
:10162000280F311D868190E0982F88274781840FED
:10163000911D2E0D3F1DD9011A978C0D9D1DFC018A
:101640003A975C914081541310C0119631962C91B9
:10165000808128130AC0F801EE5FFD4F11821082CD
:10166000F5011182108281E025C0C0904002D09027
:1016700041026DE571E0C6010E94626969E371E0B3
:10168000C6010E946269D4016D917C91A601C701D7
:101690000E94772E6DE571E0C6010E946269F40137
:1016A00011821082F801E85FFD4F8FEF9FEF918369
:1016B000808380E090E067960FB6F894DEBF0FBE9F
:1016C000CDBFDF91CF911F910F91FF90EF90DF90F1
:1016D000CF90BF90AF909F908F907F906F905F90D2
:1016E0004F90089587EF91E09093C7038093C603CE
:1016F00086ED91E09093C9038093C80387EE91E053
:101700009093CB038093CA03089581E080930501F1
:101710006093040108950F931F93FC018181882336
:1017200039F18091B429882351F18091BD2990919C
:10173000BE29892B19F40E94576402C00E944B6491
:101740000091B9291091BA292091BB293091BC2967
:10175000601B710B820B930B609570958095909533
:10176000662797FD6395772788279927662319F0C1
:101770001092B42938C081E08093BF2903C081E072
:101780008093B42980EB94E0A0E0B0E08093B52989
:101790009093B629A093B729B093B82981E090E03F
:1017A0009093BE298093BD298091BD299091BE2937
:1017B000892B19F40E94576402C00E944B64009167
:1017C000B5291091B6292091B7293091B829600F19
:1017D000711F821F931F6093B9297093BA29809358
:1017E000BB299093BC291F910F910895CF93DF934C
:1017F000EC01FB012481358140815181628173813B
:101800000E94DF69CE01DF91CF9108950F931F935E
:10181000CF93DF93EC01188219821A821B8281E038
:1018200090E0998788870E944B64088119812A81FA
:101830003B81600F711F821F931F6C837D838E839A
:101840009F83DF91CF911F910F91089584B780936B
:10185000D70414BE88E10FB6F8948093600010920C
:1018600060000FBE08950F931F93CF93DF93CDB702
:10187000DEB728970FB6F894DEBF0FBECDBFCE01FE
:1018800001960E94B13B80910401882341F0BE0182
:101890006F5F7F4F86E19CE20E945F3C0CC000E0DE
:1018A00010E020E030E0AE014F5F5F4F60E086E186
:1018B0009CE20E94F13A65E075E0CE0101960E943B
:1018C000BF4000E010E025E83BE0AE014F5F5F4F16
:1018D00060E086E19CE20E94323F28960FB6F894C1
:1018E000DEBF0FBECDBFDF91CF911F910F91089545
:1018F000CF93DF9300D0CDB7DEB78A830E944763D2
:101900008A819091B60091FDFCCF9091B0009983AF
:1019100048E128E130E059E290910501911133C08E
:10192000F89497B3976097BB78949091B60091FD27
:10193000FCCF99819093B0009091B60091FDFCCFBF
:10194000F89493B7917F982B93BF93B7916093BF0F
:101950000FB6F89440936000109260000FBE95B7E8
:10196000906695BF9F7D95BF7894889593B79E7F2D
:1019700093BF78940FB6F894A895209360000FBE9B
:1019800050936000C9CF8091BC008B7E8093BC00D7
:101990008091BC0084608093BC000F900F90DF9119
:1019A000CF910895CF92DF92EF92FF920F931F9302
:1019B000CF93DF93CDB7DEB728970FB6F894DEBF8D
:1019C0000FBECDBF7C016B011092060100E010E05C
:1019D000980140E050E0BA01CE0101960E94C53C5A
:1019E00088E0FE013196A7E1B5E001900D928A955D
:1019F000E1F71092F3041092D9041092D80460E039
:101A0000809118010E94866508EC1DE228E13FE004
:101A100041E45DE2B601C7010E94F52D8091BA2A2A
:101A20008A3091F46EEC77E081E49DE20E942869AF
:101A300041E45DE2B601C7010E94772E68EC77E0D1
:101A400081E49DE20E94286967EB76E086E19CE2F2
:101A50000E945F3C28960FB6F894DEBF0FBECDBF44
:101A6000DF91CF911F910F91FF90EF90DF90CF907A
:101A70000895EF92FF920F931F93CF93DF93CDB70B
:101A8000DEB7A5970FB6F894DEBF0FBECDBF7C01C1
:101A90008B01CE0101964CA35DA30E94A068CE01EC
:101AA00009960E94645B88E10FB6F8948093600009
:101AB000109260000FBEB701CE0101960E948154C2
:101AC0004CA15DA1B801CE0101960E94E05649E209
:101AD00028E130E00FB6F894A895209360000FBE7F
:101AE00040936000A5960FB6F894DEBF0FBECDBF41
:101AF000DF91CF911F910F91FF90EF9008952F925A
:101B00003F924F925F926F927F928F929F92AF928D
:101B1000BF92CF92DF92EF92FF920F931F93CF93DA
:101B2000DF93CDB7DEB762970FB6F894DEBF0FBE76
:101B3000CDBF4C013A0187EB93E09A838983F8018A
:101B400022803380448055802B823C824D825E828D
:101B500098878F83F9010281138124813581098758
:101B60001A872B873C879E878D87FB018281938113
:101B7000A481B5818F87988BA98BBA8B61E076E0C1
:101B8000C4010E942869BE01635F7F4FC4010E94A7
:101B900054696AE3C4010E944D694AE050E0B30110
:101BA000C4010E945C6A6BE076E0C4010E9428696F
:101BB000BE01695F7F4FC4010E94546965E176E010
:101BC000C4010E942869BE016F5F7F4FC4010E945B
:101BD00054696DE176E0C4010E942869870133E011
:101BE000732E20E047EBE42E43E0F42EF8018281CF
:101BF0009381A481B581892B8A2B8B2BD9F0222349
:101C000039F06091190170911A01C4010E944B6969
:101C1000FA82E982F80182819381A481B5818B8364
:101C20009C83AD83BE83BE016F5F7F4FC4010E9462
:101C3000546921E07A940A5F1F4F7110D7CF2111A8
:101C400005C06AEF75E0C4010E94286987EB93E044
:101C50009A838983F60182819381A481B5818B83E4
:101C60009C83AD83BE836EEE75E0C4010E9428693B
:101C7000BE016F5F7F4FC4010E9454696AE3C401D3
:101C80000E944D694AE050E0B501C4010E945C6ABF
:101C9000C4010E945E6962960FB6F894DEBF0FBE63
:101CA000CDBFDF91CF911F910F91FF90EF90DF900B
:101CB000CF90BF90AF909F908F907F906F905F90EC
:101CC0004F903F902F9008950F931F9300E020E0D6
:101CD00040E060E085EF9AE20E94AA6880914903A3
:101CE0008093F32A80914A038093F42A84E690E05B
:101CF0000E949A6D8093F22A8FE690E00E949A6D7E
:101D00008093F12A8BEB9AE20E94416188ED90E08A
:101D10000E94A26D9093B92A8093B82A81EC99E22F
:101D20000E949B338CE590E00E949A6D91E08111B6
:101D300001C090E09093C02985EB99E20E94060CC7
:101D400000E010E0980141E050E060E070E08CEAD3
:101D500099E20E94C53C80EF98E2909341298093DC
:101D600040291092C2081092C1081092CA0810921D
:101D7000C9081092CC081092CB088DEC98E00E9414
:101D8000060C87ED98E00E94060C40E050E26EEEF3
:101D900078E081EE98E00E94DB6187EB96E00E949C
:101DA000B13B00E010E0980141E050E060E070E0FD
:101DB0008FE195E00E94C53C00E010E0980140E012
:101DC00050E0BA0187E195E00E94C53C00E010E0D8
:101DD000980142E050E060E070E08DE095E00E9404
:101DE000C53C00E010E098014EE150E060E070E09A
:101DF00085E095E00E94C53C00E010E0980145E0D8
:101E000050E060E070E08DEF94E00E94C53C00E09F
:101E100010E0980148E552E060E070E085EF94E062
:101E20000E94C53C8EEC93E01F910F910C94B13B46
:101E30002F923F924F925F926F927F928F929F92DA
:101E4000AF92BF92CF92DF92EF92FF920F931F93C8
:101E5000CF93DF93CDB7DEB7AE970FB6F894DEBF62
:101E60000FBECDBF8B017A01590190E0FC0138977C
:101E7000ED30F10508F0B5C3EA5BFF4F0C94646BDD
:101E80008091B4298111ADC3CE0149960E94B13B26
:101E9000BE01675E7F4F86E19CE20E945F3C44E0AA
:101EA000B801CE0181960E94E72DB8016C5F7F4F8B
:101EB00042E0CE0185960E94E72D0DA11EA120E0F3
:101EC00030E049A15AA16BA17CA1CE0141960E94AC
:101ED000C53CBE01675E7F4FCE0109960E94BB3BA9
:101EE000BE016F5E7F4FCE0109960E9419410D859C
:101EF0001E852F85388937FF07C0309520951095AE
:101F000001951F4F2F4F3F4F49855A856B857C8523
:101F100077FF07C070956095509541955F4F6F4F63
:101F20007F4FCE0101960E94C53CBE016F5F7F4F7F
:101F30008FE195E00E94E63D8823E9F0BE016F5EE7
:101F40007F4F86E19CE20E94693A62EB77E081E490
:101F50009DE20E942869BE01675F7F4FCE01019616
:101F60000E94ED4088E0FE013196A7E1B5E00190C6
:101F70000D928A95E1F78091BA2A823008F431C334
:101F80008D859E85AF85B8898BA79CA7ADA7BEA779
:101F90002090190130901A01C984DA84EB84FC8402
:101FA0008D8C9E8CAF8CB8A0498C5A8C6B8C7C8CA1
:101FB0000DA11EA189A19AA1ABA1BCA18FA398A735
:101FC000A9A7BAA76DE777E081E49DE20E9428699E
:101FD0002AE030E04FA158A569A57AA581E49DE2E9
:101FE0000E94316A60E281E49DE20E944D694AE00C
:101FF00050E0B80181E49DE20E945C6A6BE877E002
:1020000081E49DE20E9428692AE030E0B301A20148
:1020100081E49DE20E94DF6960E281E49DE20E942A
:102020004D692AE030E0B501A40181E49DE20E94FF
:10203000DF6967E977E081E49DE20E9428692AE090
:1020400030E0B701A60181E49DE20E94DF69B101A1
:1020500081E49DE20E944B692AE030E04BA55CA53B
:102060006DA57EA581E49DE20E94DF6981E49DE289
:102070006EC042E0CE0109960E94E72D49855A853F
:102080008A010F701127102F0027110F110F110F48
:1020900020E030E0F4E056954795FA95E1F760E0EE
:1020A00070E0CE0101960E94C53C88E0FE013196A9
:1020B000A5E0B5E001900D928A95E1F76DEF74E02F
:1020C00085E095E00E94E63D882321F088E0EDEF71
:1020D000F4E00BC065E075E085EF94E00E94E63D1A
:1020E000882349F088E0E5EFF4E0A5E0B5E0019051
:1020F0000D928A95E1F7C0900905D0900A05E0900D
:102100000B05F0900C050091190110911A014090F7
:10211000050550900605609007057090080561E67A
:1021200077E0C5010E9428692AE030E0B301A201EE
:10213000C5010E94DF69B801C5010E944B692AE010
:1021400030E0B701A601C5010E94DF69C5010E9408
:102150005E6947C22EE088E190E00FB6F894A8953A
:10216000809360000FBE20936000FFCF8091E20457
:10217000811137C280E1FB01A2EEB4E001900D9223
:102180008A95E1F71092F20461E477E081E49DE240
:102190000E94286962EE74E081E49DE20E944B692E
:1021A00081E49DE20E945E6940E150E060E372E0FC
:1021B00082EE94E00E947C6D892BB1F41092E204CF
:1021C00062E277E081E49DE20E94286960E372E0C8
:1021D00081E49DE20E944B6981E49DE20E945E6978
:1021E00081E08093F304FDC16DE077E081E49DE23E
:1021F0000E94286962EE74E081E49DE20E944B69CE
:1022000081E49DE20E945E69B801605F7F4F42E019
:1022100080EE94E00E94E72DB8016E5E7F4F42E0B1
:102220008EED94E00E94E72D1092DD041092DC0404
:10223000D8C142E0605F7F4FCE0109960E94E72D32
:1022400040E150E0B80182EE94E00E947C6D892B61
:1022500009F0C7C1E090DC04F090DD0489859A851F
:10226000E816F90609F0BDC18091E0049091E104FF
:10227000E816F90608F0B5C19E2D9170992E66EF0B
:1022800076E081E49DE20E9428694AE050E0B701CF
:1022900081E49DE20E945C6A60E281E49DE20E942A
:1022A0004D694AE050E0692D81E49DE20E943E6A5A
:1022B00081E49DE20E945E69A92CB12CD501B695FE
:1022C000BA2FAA27B795A795A952BC4FF8017296C5
:1022D00080E801900D928A95E1F7A1E09A124FC033
:1022E0008091DC049091DD040197A1F40E94062402
:1022F000182F6AEC76E081E49DE20E9428694AE0AA
:1023000050E0612F81E49DE20E943E6A81E49DE2FB
:102310000E945E69C090DC04D090DD04CA18DB081E
:10232000E12CF12C67E0CC0CDD1CEE1CFF1C6A9547
:10233000D1F720E047ED53E0C701B6010E944424E5
:10234000182F6EEA76E081E49DE20E9428692AE077
:1023500030E0B701A60181E49DE20E94316A60E2AB
:1023600081E49DE20E944D694AE050E0612F81E4E2
:102370009DE20E943E6A81E49DE20E945E69209196
:10238000DC043091DD048091E0049091E104019738
:102390002817390709F0B2C06BE876E081E49DE2C6
:1023A0000E94286962EE74E081E49DE20E944B691C
:1023B00062EA76E081E49DE20E942869B1E09B1622
:1023C000E9F140E850E06FEF70E087E594E00E94AB
:1023D000656DC090DC04D090DD04CA18DB08E12CE8
:1023E000F12C57E0CC0CDD1CEE1CFF1C5A95D1F7EC
:1023F00020E047ED53E0C701B6010E944424182FA6
:1024000067E676E081E49DE20E9428692AE030E0F8
:10241000B701A60181E49DE20E94316A60E281E495
:102420009DE20E944D694AE050E0612F81E49DE207
:102430000E943E6A81E49DE20E945E69CE0101969F
:102440000E94D424D82E09811A81E090DE04F090F5
:10245000DF046AE376E081E49DE20E9428694AE0B5
:1024600050E0B70181E49DE20E945C6A69E476E095
:1024700081E49DE20E9428694AE050E0B80181E4CD
:102480009DE20E945C6A69E576E081E49DE20E943B
:1024900028694AE050E06D2D81E49DE20E943E6A89
:1024A00081E49DE20E945E6964E670E080E090E075
:1024B0000E9478648091DE049091DF040E94E424FD
:1024C000182F66E276E081E49DE20E9428694AE0E6
:1024D00050E0612F81E49DE20E943E6A81E49DE22A
:1024E0000E945E6981E49DE20E94296668EE73E0C5
:1024F00080E090E00E9478640E943A252F5F3F4F71
:102500003093DD042093DC046CC042E08AED94E05B
:102510000E94E72DB8016E5F7F4F42E088ED94E0A6
:102520000E94E72D5EC042E0CE0101960E94E72D99
:102530006801E2E0CE0ED11C89819A819093DB0480
:102540008093DA04C70102979093D9048093D8044A
:102550000E0D1F1DC016D10609F443C089819A8152
:102560009C01205231092031310520F0D6016C91B7
:102570000E94A86D89819A8101969A838983BFEF11
:10258000CB1ADB0AE7CF41E0CE0109960E94E72D86
:102590008985882331F1B8016F5F7F4F41E0CE011B
:1025A00001960E94E72D898181FB992790F9282FB8
:1025B000217089853FEF380F303198F48093B52A28
:1025C0002093B62A9093B72A0CC041E0CE01019621
:1025D0000E94E72D81E09981911101C080E08093F4
:1025E000F40480E0AE960FB6F894DEBF0FBECDBF08
:1025F000DF91CF911F910F91FF90EF90DF90CF90DF
:10260000BF90AF909F908F907F906F905F904F9012
:102610003F902F9008956F927F928F929F92AF92EA
:10262000BF92CF92DF92EF92FF920F931F93CF93BF
:10263000DF93CDB7DEB7CC58D1090FB6F894DEBF23
:102640000FBECDBFA89546E050E060E770E0CE0138
:102650008D579F4F0E948A6D44E050E060E570E026
:10266000CE0187579F4F0E948A6DBE0167577F4FEB
:10267000CE0183589F4F0E94C06844E050E060EC58
:1026800070E0CE0187579F4F0E948A6DBE01675749
:102690007F4FCE0189589F4F0E94C06844E050E0B0
:1026A00064EC70E0CE0187579F4F0E948A6DBE0197
:1026B00067577F4FCE018F589F4F0E94C068CE0151
:1026C0008F5B9F4F0E94A06881E490E08C0F9D1F5C
:1026D00006960E94A06881E490E08C0F9D1F0C96E6
:1026E0000E94A068CE018F5B9F4F7C0108EC10E038
:1026F00044E050E0B801CE0187579F4F0E948A6D99
:10270000BE0167577F4FCE0101960E94C0688B8142
:102710009C81AD81BE81F70182839383A483B583BD
:102720000C5F1F4FF6E0EF0EF11C043D110501F7A1
:1027300044E050E064E570E0CE0187579F4F0E946F
:102740008A6DBE0167577F4FCE0185599F4F0E940A
:10275000C06888E590E00E94A26D4C018AE590E097
:102760000E94A26D3C0140E450E060E870E0CE01C0
:1027700001960E948A6D65ED75E081E49DE20E94FC
:1027800028698E010D571F4FB12C90E1E92EF12CD5
:102790006801F8018081803128F460E381E49DE2E2
:1027A0000E944D690F5F1F4FF601808190E0A0E00D
:1027B000B0E067968CAF9DAFAEAFBFAF679769963D
:1027C000FFAEEEAE6997BE016D5A7F4F81E49DE288
:1027D0000E94F60BB394F6E0BF1631F06AE381E491
:1027E0009DE20E944D69D4CF81E49DE20E945E6922
:1027F0005301CE0185599F4F6C01FE01EF5BFF4FE6
:102800007F018E010F581F4F9E0129583F4FA40191
:10281000BE0163587F4F81E49DE20E947F0D61EC11
:1028200075E081E49DE20E942869BE016F5F7F4FE1
:1028300081E49DE20E944B6981E49DE20E945E6911
:10284000A895C158DF4F88819981AA81BB81CF5754
:10285000D040892B8A2B8B2B09F45EC060EB75E08E
:1028600081E49DE20E94286927EB33E065963FAF43
:102870002EAF6597ED968CAD9DADAEADBFADED972E
:1028800069968CAF9DAFAEAFBFAF69976B963FAF08
:102890002EAF6B97E7968CAD9DADAEADBFADE79714
:1028A0006F968CAF9DAFAEAFBFAF6F97A1963FAFA6
:1028B0002EAFA19727968CAD9DADAEADBFAD27973E
:1028C000A5968CAF9DAFAEAFBFAFA597A7963FAF14
:1028D0002EAFA797C158DF4F88819981AA81BB810C
:1028E000CF57D040AB968CAF9DAFAEAFBFAFAB97DD
:1028F000CE018D5A9F4F7C01085111099E01215A2A
:102900003F4FAE014B595F4FBE016D577F4F80EF78
:102910009CE20E945C5857C061EA75E081E49DE248
:102920000E94286988E10FB6F894809360001092A5
:1029300060000FBE10EAE12E1FE0F12E00E010E073
:1029400020E63AEE40E050E0BE016D577F4F80EF49
:102950009CE20E94B357892BB1F466E875E081E4EC
:102960009DE20E94286981E49DE20E9429662EE092
:1029700088E190E00FB6F894A895809360000FBEB0
:1029800020936000FFCF29E288E190E00FB6F89431
:10299000A895809360000FBE2093600060EF7CE2FA
:1029A000CE018D5A9F4F0E94535969968CAD9DADB3
:1029B000AEADBFAD699727968CAF9DAFAEAFBFAF41
:1029C000279710921701A8958981992787FD9095DF
:1029D0000E942F6D892B09F492C0CE01875A9F4F18
:1029E0000E94A068B3E0BB2EA12C11E4E12EF12CD3
:1029F000EC0EFD1E92E1E90EF11C07EBC02E03E088
:102A0000D02E8E010F5B1F4FA895F8018281938114
:102A1000A481B5810097A105B10509F16596DFAEE6
:102A2000CEAE659769968CAF9DAFAEAFBFAF6997DD
:102A3000AE01475A5F4FBE016F5F7F4FCE018D5A87
:102A40009F4F0E94390D019751F46F968CAD9DAD4B
:102A5000AEADBFAD6F97892B8A2B8B2B31F40A5FFC
:102A60001F4F0E151F0581F602C0AA24A394BA9425
:102A700041F6AA2099F187EB93E065969FAF8EAF60
:102A800065976F968CAD9DADAEADBFAD6F976996F6
:102A90008CAF9DAFAEAFBFAF6997BE016F5F7F4F89
:102AA00081E49DE20E944B6968E775E081E49DE264
:102AB0000E942869BE016D5A7F4F81E49DE20E9409
:102AC00054696F968CAD9DADAEADBFAD6F97E1967D
:102AD0008CAF9DAFAEAFBFAFE1970DC068E675E0BC
:102AE00081E49DE20E942869BE016F5F7F4F81E40F
:102AF0009DE20E944B6981E49DE20E945E69E1963D
:102B00008CAD9DADAEADBFADE197892B8A2B8B2BE4
:102B100009F056C060EF7CE2CE01875A9F4F0E94B9
:102B20000B596F96CCACDDACEEACFFAC6F9760EFA1
:102B30007CE2CE018D5A9F4F0E94235969964CAD7D
:102B40005DAD6EAD7FAD6997409550956095709580
:102B50004C295D296E297F29CE01815A9F4F0E9401
:102B6000B668A5968CAD9DADAEADBFADA597E1960F
:102B70008CAF9DAFAEAFBFAFE19728E730E03093A9
:102B8000B92A2093B82A27EB33E065963FAF2EAFE2
:102B9000659769968CAF9DAFAEAFBFAF699765E3A0
:102BA00075E081E49DE20E942869BE016D5A7F4F65
:102BB00081E49DE20E94546981E49DE20E945E6985
:102BC00063E275E081E49DE20E94286960EF7CE2A7
:102BD000CE018D5A9F4F0E943B5960EF7CE2CE019F
:102BE000875A9F4F0E94235960EF7CE2CE01815AA1
:102BF0009F4F0E940B595301CE0185599F4F6C0185
:102C0000FE01EF5BFF4F7F018E010D5A1F4F9E01AA
:102C1000275A3F4FA401BE01615A7F4F81E49DE2D4
:102C20000E947F0D81E49DE20E945E6981E49DE245
:102C30000E94296687EB93E065969FAF8EAF6597FC
:102C4000E1968CAD9DADAEADBFADE19769968CAF11
:102C50009DAFAEAFBFAF6997A4E0EA2E0AE0930143
:102C6000AE014D5A5F4FB4018BEB9AE20E94766140
:102C7000C457DF4F0FB6F894DEBF0FBECDBFDF9154
:102C8000CF911F910F91FF90EF90DF90CF90BF9069
:102C9000AF909F908F907F906F9008950F931F93A8
:102CA000CF93DF9300D000D000D0CDB7DEB78091B6
:102CB000EE2A882309F45CC080EF9CE20E94A758AA
:102CC0008C0167E175E081E49DE20E94286998012A
:102CD00033272230310551F13CF42115310569F0DB
:102CE0002130310569F029C02330310549F0243005
:102CF000310519F563EF74E01BC064E175E018C09D
:102D000062E075E081E49DE20E94626981E49DE2F7
:102D10000E9429662EE088E190E00FB6F894A8950D
:102D2000809360000FBE20936000FFCF6AEF74E0D5
:102D300081E49DE20E9462691BC0802F90E0A0E0C8
:102D4000B0E089839A83AB83BC838AE090E09E8362
:102D50008D8360EE74E081E49DE20E942869BE01EB
:102D60006F5F7F4F81E49DE20E94F60B0E945E69D7
:102D700026960FB6F894DEBF0FBECDBFDF91CF9180
:102D80001F910F9108952F923F924F925F926F92F1
:102D90007F928F929F92AF92BF92CF92DF92EF92EB
:102DA000FF920F931F93CF93DF93CDB7DEB7E297D8
:102DB0000FB6F894DEBF0FBECDBF0E94260C29E2ED
:102DC00088E190E00FB6F894A895809360000FBE5C
:102DD0002093600010E062E0812F0E944D651F5F2C
:102DE0001032C9F78091F22A8F3F41F061E00E94D2
:102DF0004D6560E08091F22A0E9486658091F12AFB
:102E00008F3F41F061E00E944D6560E08091F12AC2
:102E10000E9486658EE68EA78AE68FA78CE688AB31
:102E200081E08BA78CA78DA792E198A799A79AA775
:102E30008DA38EA38FA344E050E064ED70E0CE013B
:102E400081960E948A6D49A15AA16BA17CA1DB01E8
:102E5000CA01805C9241A109B109813E944EA34010
:102E6000B10530F026E040E052EC61E070E001C0D6
:102E700026E081E49DE20E94B06684B78F7E84BF25
:102E80008BB185608BB9E0E0F0E089E0809357007A
:102E9000D490E3E0F0E0809357008491E2E0F0E02A
:102EA00049E040935700449150E060E070E049836E
:102EB0005A836B837C8300E110E01E830D8390E0D6
:102EC000A0E0B0E08B8B9C8BAD8BBE8B188F0F8BF3
:102ED0008D2D90E0A0E0B0E08B8F9C8FAD8FBE8FEA
:102EE00018A30F8F67EB74E081E49DE20E942869CC
:102EF000BE01655E7F4F81E49DE20E94F60B7C017E
:102F000062EC74E00E942869BE016D5E7F4FC701CC
:102F10000E94F60B7C016FEC74E00E942869BE01F0
:102F20006F5F7F4FC7010E94F60B0E945E694D2DB7
:102F30004F70D42E8091D70490E0A0E0B0E0898358
:102F40009A83AB83BC831E830D83842F90E0A0E023
:102F5000B0E08B8B9C8BAD8BBE8B188F0F8B6BE98E
:102F600074E081E49DE20E94286961E070E082E003
:102F7000D81611F060E070E04AE050E081E49DE294
:102F80000E94296A65EA74E081E49DE20E94286952
:102F9000BE016D5E7F4F81E49DE20E94F60B8C01C5
:102FA0006EEA74E00E942869BE016F5F7F4FC8011E
:102FB0000E94F60B0E945E6960E574E081E49DE288
:102FC0000E9428698091D704857019F081E0809370
:102FD000F02A61E084E00E944D6561E084E00E9497
:102FE000866561E08AE00E944D6561E08AE00E94AA
:102FF000866561E08EE00E944D6561E08EE00E9492
:1030000086658091F22A8F3F61F180E690E00E9410
:10301000A26D8C0164E474E081E49DE20E94286961
:103020004AE050E0B80181E49DE20E94296A81E40F
:103030009DE20E945E6982E690E00E94A26D8C0192
:1030400068E374E081E49DE20E9428694AE050E070
:10305000B80181E49DE20E94296A81E49DE20E9418
:103060005E696DE274E081E49DE20E942869B7E048
:10307000EB2EB1E0FB2E00E210E080E1C82ED12C57
:10308000C8010E949A6DF70181937F01482F50E09B
:1030900060E070E049835A836B837C83DE82CD825B
:1030A00060E281E49DE20E944D69BE016F5F7F4F47
:1030B00081E49DE20E94F60B0F5F1F4F0033110564
:1030C000F9F681E49DE20E945E698CEF9AE20E942B
:1030D000E62540E150E060E270E087E091E00E9488
:1030E0008A6D80E390E00E94A26D9093BD2B809347
:1030F000BC2B61E089E00E944D6561E089E00E949F
:10310000866560911B0170911C0180911D01909159
:103110001E010E94786400E010E0C801C2960E947F
:103120009A6D18163CF4EEE2F0E0EC0FFD1FE00F94
:10313000F11F8083C801C5960E949A6D9FEF980F7A
:10314000943038F4EBE2F0E0EC0FFD1FE00FF11FDC
:103150008083C8018A589F4F0E949A6D9FEF980FF5
:10316000923138F4E8E2F0E0EC0FFD1FE00FF11FC0
:103170008083C80187589F4F0E949A6D9FEF980FD8
:10318000983038F4E5E2F0E0EC0FFD1FE00FF11F9E
:1031900080830F5F1F4F0330110509F0BECF84E419
:1031A00090E00E949A6D782E8FEF870D803110F09D
:1031B0007724739485E490E00E949A6DD82EFFEFF7
:1031C0008F1302C0DD24D39486E490E00E949A6DB0
:1031D00091E0811101C090E09093F4048091C029A6
:1031E000882309F4B1C06FE174E081E49DE20E949C
:1031F000286963EF73E081E49DE20E946269CE0179
:1032000085967C018E01085D1F4F9E01255D3F4F15
:10321000AE01425D5F4F69E081EC99E20E94F033BC
:10322000D1FA662460F82D2D217029AB7092B52A51
:103230002093B62A6092B72AFCECAF2EF9E2BF2E9B
:10324000CE018B966C01FE01BE962F0100E010E0CE
:10325000A0E12A2E312CF50181915F01882329F00C
:10326000E9EE8E2EE3E09E2E04C07FED872E73E004
:10327000972EF60121916F01F20181912F0190E0CB
:10328000A0E0B0E089839A83AB83BC833E822D8229
:103290006EEC73E081E49DE22AAB0E9428694AE06B
:1032A00050E0B80181E49DE20E94296A63ED73E079
:1032B00081E49DE20E942869BE016F5F7F4F81E437
:1032C0009DE20E94F60B7C0169ED73E00E94286983
:1032D0004AE050E02AA9622FC7010E943E6AB40169
:1032E000C7010E9428690F5F1F4F0330110509F0C5
:1032F000B2CF64EB73E081E49DE20E9428694AE06A
:1033000050E0672D81E49DE20E943E6A61EC73E02B
:1033100081E49DE20E942869662031F06BEA73E047
:1033200081E49DE20E94286929A9222319F063EA19
:1033300073E002C06DE973E081E49DE20E942869B8
:1033400081E49DE20E94296663EF73E081E49DE2DF
:103350000E9428698091C029811106C06AE174E049
:1033600081E49DE20E94286961E174E081E49DE2CC
:103370000E9462698091C0298823D1F063EF73E0D5
:1033800081E49DE20E9428696AEF73E081E49DE296
:103390000E94286940911B0150911C0160911D0100
:1033A00070911E012AE030E081E49DE20E94786A7B
:1033B0008AE390E00E949A6D8093EE2A26E040E036
:1033C00052EC61E070E08EED9DE20E94B06603E099
:1033D00026E045E567E579E282E39CE20E94234D21
:1033E00060E072E08EED9DE20E94A84A6FE072E01C
:1033F0008EED9DE20E94A84A66E172E08EED9DE2AC
:103400000E94A84A8EE490E00E949A6D8F3F09F4D2
:1034100081E0EE24E3949091EE2A923008F4E12CBE
:10342000082F2EE147E062E08AE19CE20E94B94168
:1034300064E873E081E49DE20E94286981E49DE2F2
:103440000E94296642E063EF7AE28FE29CE20E94EA
:10345000D7458823E9F080912F2C90E0A0E0B0E0E0
:1034600089839A83AB83BC8380E190E09E838D83C4
:103470006CE673E081E49DE20E942869BE016F5F03
:103480007F4F81E49DE20E94F60B0E945E6906C0B8
:103490006EE573E081E49DE20E94286981E49DE28B
:1034A0000E94296661E08FE29CE20E944F478BE414
:1034B00090E00E949A6D682F8FE29CE20E94AF45D7
:1034C0008FE29CE20E9468468091302C9091312CD2
:1034D000019721F58FE29CE20E947847992787FDAA
:1034E0009095A92FB92F89839A83AB83BC838AE0F7
:1034F00090E09E838D8367E473E081E49DE20E9407
:103500002869BE016F5F7F4F81E49DE20E94F60B48
:103510000E945E6981E49DE20E94296660E08FE07E
:103520000E944D656DE273E081E49DE20E9428698E
:1035300081E49DE20E94296663E070E08FE29CE2F4
:103540000E94284721E041E060E070E886E19CE2CB
:103550000E94D43C80E090E8909316058093150576
:1035600008E411E020E030E040E050E0BA01CE0194
:1035700001960E94C53C88E0FE013196ACEAB9E2B2
:1035800001900D928A95E1F70091150510911605AD
:103590006EE173E081E49DE20E9428694AE050E018
:1035A000B80181E49DE20E945C6A69E272E081E414
:1035B0009DE20E944B6940E050E0BE016F5F7F4F8B
:1035C0008FE29CE20E94E047882319F1CE014396E6
:1035D0000E94B13BCE0101960E9431436B8B7C8BE4
:1035E0008D8B9E8BCE0143960E94D03BBE016D5EBB
:1035F0007F4F86E19CE20E94693A88E0FE01739663
:10360000A7EBB6E001900D928A95E1F76AEF72E0C0
:1036100002C064ED72E081E49DE20E94286981E4C9
:103620009DE20E94296682E490E00E94A26D9C01C6
:10363000215031092E3F3F4F00F58C010F701127AB
:10364000102F0027110F110F110F20E030E0AC01F7
:103650005F7064E0569547956A95E1F760E070E029
:10366000CE0143960E94C53C88E0FE017396A5E01A
:10367000B5E001900D928A95E1F76DEF74E085E079
:1036800095E00E94E63D882321F088E0EDEFF4E02C
:103690000BC065E075E085EF94E00E94E63D88236D
:1036A00049F088E0E5EFF4E0A5E0B5E001900D9287
:1036B0008A95E1F7C0900905D0900A05E0900B05C6
:1036C000F0900C050091190110911A0180900505E8
:1036D00090900605A0900705B09008056CEB72E08D
:1036E00081E49DE20E9428692AE030E0B501A4014E
:1036F00081E49DE20E94DF69B80181E49DE20E94BD
:103700004B692AE030E0B701A60181E49DE20E9406
:10371000DF6981E49DE20E945E6981E49DE20E948E
:1037200029668091EE2A823081F40E940B130E9458
:10373000476381E1809318018BEB9AE29093CC0868
:103740008093CB0881E08093F02A61E0809118019A
:103750000E944D6560E0809118010E94866587E0B7
:1037600091E09093ED088093EC0880E18093EB0862
:103770008BE89BE09093812C8093802C6DEA72E023
:1037800081E49DE20E94626981E49DE20E942966D3
:103790000E94330CE2960FB6F894DEBF0FBECDBF89
:1037A000DF91CF911F910F91FF90EF90DF90CF901D
:1037B000BF90AF909F908F907F906F905F904F9051
:1037C0003F902F9008953F924F925F926F927F9219
:1037D0008F929F92AF92BF92CF92DF92EF92FF9221
:1037E0000F931F93CF93DF93CDB7DEB7C853D2406B
:1037F0000FB6F894DEBF0FBECDBFA8958091BF294C
:10380000882309F4C4C01092BF2980910501811159
:10381000BEC08091B429882309F4B9C0BE01665D99
:103820007D4F82E39CE20E94444D882309F4AFC09F
:10383000CE018E5D9D4F0E94B13BBE016E5D7D4FFE
:1038400086E19CE20E945F3CC65DDD4F4881598164
:103850006A817B81CA52D24000E010E09801CE011B
:103860008D5E9D4F0E94C53CBE016E5D7D4FCE01B9
:103870008F5F9D4F0E94BB3BBE016D5E7D4FCE01B1
:103880008F5F9D4F0E941941CB5FDD4F08811981E9
:103890002A813B81C550D24037FF07C03095209523
:1038A000109501951F4F2F4F3F4FCF5FDD4F488140
:1038B00059816A817B81C150D24077FF07C07095E2
:1038C0006095509541955F4F6F4F7F4FCE010196A8
:1038D0000E94C53CBE016F5F7F4F8CEA99E20E9457
:1038E000E63D8823E9F0BE016D5E7D4F86E19CE2F6
:1038F0000E94693A69E972E081E49DE20E942869C8
:10390000BE016F5F7D4FCE0101960E94ED4088E0C1
:10391000FE013196A7E1B5E001900D928A95E1F79D
:103920008091BA2A823098F1CB5FDD4FC880D98070
:10393000EA80FB80C550D2400091190110911A0114
:10394000CF5FDD4F88809980AA80BB80C150D24074
:1039500061E872E081E49DE20E9428692AE030E09B
:10396000B501A40181E49DE20E94DF69B80181E410
:103970009DE20E944B692AE030E0B701A60181E494
:103980009DE20E94DF6981E49DE20E945E69809170
:103990000501882309F45BC06EEC73E086E19CE2CC
:1039A0000E945F3C8091C029882351F08091C129F9
:1039B0009091C229009709F462C0099709F45FC089
:1039C00080911A2C90911B2C009709F48EC00797B8
:1039D00009F48BC0109205010E94330C1092D6039B
:1039E00022E4822E29E2922E33E4A32E39E2B32E72
:1039F00044E4C42E49E2D42E55E4E52E59E2F52ED6
:103A00000EE419E22AE439E246E459E263E579E298
:103A100082E39CE20E945B4D80935229809153295E
:103A200090915429A0915529B09156290197A10947
:103A3000B1098093532990935429A0935529B093A9
:103A400056296AE672E081E49DE20E94286980912D
:103A5000C029882321F081EC99E20E944B368AE14B
:103A60009CE20E941D428091BF29811143C08EEDCE
:103A70009DE20E94BC65892B09F067C03BC001E054
:103A800010E01093C2290093C12961E08091C429FC
:103A90000E94866580911B0190911C01A0911D01DF
:103AA000B0911E018093CF299093D029A093D12962
:103AB000B093D2291093D8290093D7290E944B6440
:103AC0000091CF291091D0292091D1293091D2296C
:103AD000600F711F821F931F6093D3297093D429A5
:103AE0008093D5299093D6296BCF8AE19CE20E94DE
:103AF000E34170CF40E951E067E275E08FEB96E07B
:103B00000E94B008892B31F060E971E087E295E00E
:103B10000E94D20C61E47DE280EF98E20E9453059E
:103B20008091C029882339F08091C1299091C229C0
:103B3000099709F0CFC580911A2C90911B2C009702
:103B4000C1F0079709F0C6C514C08EED9DE20E9432
:103B5000D565182F8091BA2A8C3029F4612F81E421
:103B60009DE20E944D69612F8FE49CE20E94934C7C
:103B70007ACF8091D6038111A2C481E08093D603CD
:103B80000091E7291091E829A090212CB090222CD7
:103B9000C090D203D090D303E090D403F090D5032B
:103BA0008090190190901A014090CE035090CF035D
:103BB0006090D0037090D1036EE372E081E49DE2E7
:103BC0000E9428692AE030E0B301A20181E49DE26D
:103BD0000E94DF69B40181E49DE20E944B692AE002
:103BE00030E0B701A60181E49DE20E94DF696AE44A
:103BF00072E081E49DE20E9428694AE050E0B5014C
:103C000081E49DE20E94296A6AE572E081E49DE216
:103C10000E9428694AE050E0B80181E49DE20E94D8
:103C2000296A81E49DE20E945E6980911F2C8823AD
:103C3000A9F00091232C1091242C6DE272E081E414
:103C40009DE20E9428694AE050E0B80181E49DE2CB
:103C50000E945C6A81E49DE20E945E698091C029B5
:103C6000811106C08091BA2A8B3009F07DC037C01F
:103C70009CECA92E99E2B92E09EE19E2912CD501FE
:103C80008D915D01882321F1F801C080D180E2800F
:103C9000F38060E272E081E49DE20E9428694AE0DC
:103CA00050E0692D81E49DE20E943E6A69E272E083
:103CB00081E49DE20E9428692AE030E0B701A60174
:103CC00081E49DE20E94DF6981E49DE20E945E69D9
:103CD00093940C5F1F4FF3E09F12D1CFC3CF80911D
:103CE000C029882309F440C01CEC812E19E2912ED2
:103CF00001ECA02E09E2B02E88E5782ED4018D913A
:103D00004D01882351F1672D81E49DE20E944D69A8
:103D10006AE381E49DE20E944D6900E010E0F50154
:103D2000E00FF11FC4A8D5A8E6A8F7A860E281E4D7
:103D30009DE20E944D692AE030E0B701A60181E4CE
:103D40009DE20E94DF690C5F1F4F0034110539F7B7
:103D50006AE081E49DE20E944D69B0E4AB0EB11CC3
:103D60007394EBE57E12CACF8091BA2A882309F4B6
:103D7000AFC080915229882311F019E501C01EE4DB
:103D800063E172E081E49DE20E942869612F81E491
:103D90009DE20E944D6981E49DE20E945E698091EE
:103DA0005229882309F494C0C0904A29D0904B2905
:103DB000E0904C29F0904D290091190110911A01C1
:103DC0008090462990904729A0904829B090492991
:103DD000409053295090542960905529709056294D
:103DE0006CEF71E081E49DE20E9428692AE030E0F6
:103DF000B301A20181E49DE20E94DF6967E072E005
:103E000081E49DE20E9428692AE030E0B501A40126
:103E100081E49DE20E94DF69B80181E49DE20E9495
:103E20004B692AE030E0B701A60181E49DE20E94DF
:103E3000DF69809145298823C1F0C0904E29D09038
:103E40004F29E0905029F09051296091190170910B
:103E50001A0181E49DE20E944B692AE030E0B7013B
:103E6000A60181E49DE20E94DF69E0904229F12CE5
:103E7000C0904329D12C0091190110911A01B090E2
:103E8000442962EF71E081E49DE20E9428696B2D74
:103E900081E49DE20E944D69B80181E49DE20E94A7
:103EA0004B694AE050E0B60181E49DE20E94296A34
:103EB000B80181E49DE20E944B694AE050E0B701FD
:103EC00081E49DE20E94296A81E49DE20E945E698C
:103ED000D090F22AFFEFDF1641F180E690E00E94D9
:103EE000A26D8C0182E690E00E94A26D7C01F694A6
:103EF000E79498012E0D3F1D4091212C5091222CCA
:103F00002417350724F461E08D2D0E9486650E1973
:103F10001F098091212C9091222C801791072CF45D
:103F200060E08091F22A0E948665CE018D5E9D4FF1
:103F30000E94562F87E091E0C05EDD4F9983888311
:103F4000C052D24080E1C15EDD4F8883CF51D24064
:103F500090910401CC5EDD4F8881C451D2409923F9
:103F600011F0826001C08D7FCC5EDD4F8883C4512B
:103F7000D2402091D2033091D3038091CE0390910F
:103F8000CF03A091D003B091D103C95EDD4F8883E8
:103F90009983AA83BB83C751D240C55EDD4F398365
:103FA0002883CB51D24040E052E0BE016F5F7F4F8B
:103FB000CE018D5E9D4F0E94C12F0D8110E0102F0C
:103FC00000278E81080F111D62EE71E081E49DE2F1
:103FD0000E9428694AE050E0B80181E49DE20E9415
:103FE0005C6A81E49DE20E945E698091C029882319
:103FF00009F470C05090B52A4090B62A3090B72A84
:104000007CEC672E79E2772EE5EFAE2EE9E2BE2E4C
:10401000F9EE8F2EF9E29F2E10E0D3018D913D0134
:104020008823F1F0F401C080D180E280F380FD01AB
:10403000359700810F70212F40E052E0BE016F5F85
:104040007F4FCE018D5E9D4F0E9417308091F4040A
:10405000882331F081EE98E00E94CD628111F3C295
:104060001F5FF0E4AF0EB11C84E0880E911C13308A
:10407000A1F68091E7299091E829CA5CDD4F9983E8
:104080008883C653D2408E010A5C1D4F23E040E076
:1040900052E0BE016F5F7F4FCE018D5E9D4F0E944B
:1040A0005F30832D90E0880F991F95298429CC5C7F
:1040B000DD4F99838883C453D2400250110923E114
:1040C00040E052E0BE016F5F7F4FCE018D5E9D4F9D
:1040D0000E945F308091212C9091222CCE5CDD4F8C
:1040E00099838883C253D2408E010E5C1D4F24E019
:1040F00040E052E0BE016F5F7F4FCE018D5E9D4F6D
:104100000E945F3080911F2C8823B9F08091232C6E
:104110009091242CC05DDD4F99838883C053D24099
:104120000250110925E040E052E0BE016F5F7F4F71
:10413000CE018D5E9D4F0E945F302091050530912C
:10414000060544E0220F331F4A95E1F780910905E7
:1041500090910A05A0910B05B0910C055BE0B59517
:10416000A795979587955A95D1F7282B392BC25D3E
:10417000DD4F39832883CE52D2408E01025D1D4F20
:1041800028E040E052E0BE016F5F7F4FCE018D5EC0
:104190009D4F0E945F30809106018823A9F0809195
:1041A000D704C85CDD4F8883C853D240065F1F4FD9
:1041B00027E040E052E0BE016F5F7F4FCE018D5E91
:1041C0009D4F0E945F3004C08091F304882369F002
:1041D00000E312E02DE040E052E0BE016F5F7F4F50
:1041E000CE018D5E9D4F0E94923000E010E098015C
:1041F00040E050E0BA01CE018F5F9D4F0E94C53C68
:10420000BE016F5F7D4F87E195E00E94C03D811147
:1042100016C0E0901B05F0901C0500911705109149
:1042200018052091190530911A0540E052E0BE01B1
:104230006F5F7F4FCE018D5E9D4F0E942C310091AC
:10424000D8041091D9040115110519F169EC71E038
:1042500081E49DE20E9428694AE050E0B80181E4CF
:104260009DE20E945C6A81E49DE20E945E69009189
:10427000D8041091D9042091DA043091DB0440E095
:1042800052E0BE016F5F7F4FCE018D5E9D4F0E9459
:10429000783100915329109154292091552930915A
:1042A000562980904229A0904329C0904429E0904B
:1042B000522940E052E0BE016F5F7F4FCE018D5E1C
:1042C0009D4F0E943432809152298823E1F081EE83
:1042D00098E00E94CD628823B1F080914529811138
:1042E000C2C182E036E4C32E39E2D32EE82E04E0C8
:1042F0002EE140E052E0BE016F5F7F4FCE018D5E48
:104300009D4F0E94E0312091EE283091EF2840E04F
:1043100052E0BE016F5F7F4FCE018D5E9D4F0E94C8
:10432000D2324D8150E0542F44278E81480F511DC9
:10433000BE016F5F7F4F8FEB96E00E94A607109142
:10434000EF2A1F5F1093EF2A8091F02A882381F0D3
:104350008AE490E00E949A6D882321F0181710F0EB
:104360001092F02A6091F02A809118010E948665CF
:1043700040E050E0BE016F5F7D4F8FE29CE20E9403
:10438000E047CE018F5F9D4F0E9431436B017C015E
:10439000CE018E5D9D4F0E94B13BBE016E5D7D4F93
:1043A00086E19CE20E945F3CCE5DDD4F48815981F1
:1043B0006A817B81C252D240D701C601841B950B12
:1043C000A60BB70BB7FF07C0B095A0959095819548
:1043D0009F4FAF4FBF4F0397A105B105FCF0C65DDE
:1043E000DD4F488359836A837B83CA52D240BE0122
:1043F0006F5F7D4FCE01865D9D4F0E946B4440E014
:1044000050E0BE016F5F7D4F8FE29CE20E948646C6
:104410006CEB71E081E49DE20E946269CE5DDD4F4C
:1044200088819981AA81BB81C252D2404091B7064E
:104430005091B8066091B9067091BA06841B950B2D
:10444000A60BB70B0091B82A1091B92AA80160E019
:1044500070E0481759076A077B071CF566EB71E0A7
:1044600081E49DE20E9428694AE050E0B80181E4BD
:104470009DE20E945C6A67E971E081E49DE20E942E
:10448000626981E49DE20E94296629E288E190E068
:104490000FB6F894A895809360000FBE209360003B
:1044A000FFCFB7FF0AC088E0FE01EE5DFD4FA7EB2E
:1044B000B6E001900D928A95E1F70E944E16809128
:1044C00005018111AAC08091E204882309F4A5C0E6
:1044D0002091DC043091DD048091E0049091E104AE
:1044E0002817390708F099C081EE98E00E94CD6244
:1044F000882309F492C08091C9089091CA08892B39
:1045000009F08BC08091BE2B8F5F8093BE2BCE01B4
:104510008F5F9D4F0E94562F87E091E0C25FDD4F75
:1045200099838883CE50D24080E1C35FDD4F88837A
:10453000CD50D240CE018D5E9D4F0E94B13BBE0159
:104540006D5E7D4F86E19CE20E945F3CC95EDD4F5F
:1045500028813981C751D240CD5EDD4F8881998154
:10456000AA81BB81C351D240CB5FDD4F8883998341
:10457000AA83BB83C550D240C75FDD4F39832883F0
:10458000C950D24040E051E0BE016F5F7F4FCE0185
:104590008F5F9D4F0E94C12F0091DC041091DD04BC
:1045A00022EE34E040E051E0BE016F5F7F4FCE016C
:1045B0008F5F9D4F0E94F1302091EE283091EF28BF
:1045C00040E051E0BE016F5F7F4FCE018F5F9D4F96
:1045D0000E94D2324D8150E0542F44278E81480FE3
:1045E000511DBE016F5F7F4F8FEB96E00E94A607C3
:1045F0001091EF2A1F5F1093EF2A8091F02A8823F1
:1046000061F08AE490E00E949A6D81112EC0609161
:10461000F02A809118010E94866580910501811120
:1046200059C081EE98E00E94CD622091C908309176
:10463000CA08882319F021153105E1F0243031052D
:1046400009F048C017C06501E52C04E025E1210F01
:1046500040E052E0BE016F5F7F4FCE018D5E9D4F07
:104660000E94E031FDCC83E03DCE181780F210921D
:10467000F02ACDCF8091CB089091CC08DC01ED9150
:10468000FC910684F785E02D0995882319F1809126
:1046900017018823F9F06DE075E085E095E00E9450
:1046A000E63D811117C06FE871E081E49DE20E9450
:1046B000286981E49DE20E94296686E00E94780CC8
:1046C00067E871E081E49DE20E94286981E49DE24F
:1046D0000E942966C85CDD4F0FB6F894DEBF0FBE9E
:1046E000CDBFDF91CF911F910F91FF90EF90DF90A1
:1046F000CF90BF90AF909F908F907F906F905F9082
:104700004F903F9008958091FB2A811115C08CE84D
:1047100090EFA1E0B0E0ABBFFC0187919791A7912A
:10472000B691883539F4923429F4AA3619F4B09345
:10473000FB2A02C081E0089580E00895CF92DF92C5
:10474000EF92FF926B017C010E94832381111AC0BA
:104750008091FB2A8130A9F484E990EFA1E0B0E0D8
:10476000ABBFFC0127913691C90101978E3F9F4F46
:1047700040F4C701B601F901FF90EF90DF90CF90B0
:10478000099482E0FF90EF90DF90CF900895CF9250
:10479000DF92EF92FF92CF93DF9300D01F92CDB7BD
:1047A000DEB76B017C012B8349835A830E948323EC
:1047B0002B8149815A8181111FC08091FB2A813050
:1047C000D1F486E990EFA1E0B0E0ABBFFC01A79186
:1047D000B691CD0101978E3F9F4F68F4C701B60196
:1047E000FD010F900F900F90DF91CF91FF90EF9010
:1047F000DF90CF90099482E00F900F900F90DF919F
:10480000CF91FF90EF90DF90CF900895CF92DF92FD
:10481000EF92FF920E948323811131C08091FB2A85
:10482000813061F58AE990EFA1E0B0E0ABBFFC0117
:10483000879196919C01215031092E3F3F4FC0F046
:10484000C12C88EFD82EE12CF12CC701B6010E94B3
:104850009E23811114C08FEFD81AE80AF80AC114F8
:10486000E0EFDE06E1E0EE06F10479F780E007C054
:10487000FC01FF90EF90DF90CF90099482E0FF90D1
:10488000EF90DF90CF900895CF92DF92EF92FF925A
:10489000CF93DF9300D01F92CDB7DEB76B017C01C1
:1048A0002B8349835A830E9483232B8149815A8118
:1048B00081112FC08091FB2A813051F58CE990EF56
:1048C000A1E0B0E0ABBFFC01A791B691CD0101978B
:1048D0008E3F9F4F80F0C701B60178508F4F9F4F9A
:1048E0000F900F900F90DF91CF91FF90EF90DF909E
:1048F000CF900C94C723C701B601FD010F900F9014
:104900000F90DF91CF91FF90EF90DF90CF900994BF
:1049100082E00F900F900F90DF91CF91FF90EF907A
:10492000DF90CF900895CF92DF92EF92FF920F9396
:104930001F93260F371F481F591FA0E0B0E06217D2
:1049400073078407950709F424C06B017C01EFEF1E
:10495000CE1ADE0AEE0AFE0A8BBFFB016791A6277C
:104960006A2F62956A27062E669566956025062E43
:104970006695602567700A2EAB2F6695079467953C
:10498000B02DA62706946795B025A627C701B601C6
:10499000D6CFF801B183A08380E01F910F91FF90E3
:1049A000EF90DF90CF9008950F931F938C0120E03C
:1049B00038EF40E050E060E078EF80E090E00E9467
:1049C00093241F910F9108950F931F93CF93DF931B
:1049D000CDB7DEB7DA950FB6F894DEBF0FBECDBF08
:1049E000DE01119600E01FEE21E030E0AD012BBFAB
:1049F000F80167916D930F5F1F4F2F4F3F4F0115C8
:104A000060EF160761E02607310589F728E5C550F4
:104A1000DF4F2883CB5FD04022E4C450DF4F288390
:104A2000CC5FD04029E4C350DF4F2883CD5FD04016
:104A300026E4C250DF4F2883CE5FD040C150DF4F05
:104A40009883CF5FD040C050DF4F8883C050D140A3
:104A500021E060E077EF80E090E00E944424D3956D
:104A60000FB6F894DEBF0FBECDBFDF91CF911F917F
:104A70000F910895F89488E10FB6F8948093600040
:104A8000109260000FBE28E088E190E00FB6F89425
:104A9000A895809360000FBE20936000FFCF8091A7
:104AA0002C2B90E020912D2B821B910908952091B1
:104AB0002D2B80912C2B281750F4E22FF0E0E25D93
:104AC000F44D808190E02F5F20932D2B08958FEF80
:104AD0009FEF0895E0912D2B80912C2BE81730F457
:104AE000F0E0E25DF44D808190E008958FEF9FEF5C
:104AF00008950895CF92DF92EF92FF920F931F9344
:104B0000CF93DF937C01CB018A012091082B2223D4
:104B100089F0EB016B01C40ED51ECC15DD0569F0E3
:104B20006991D701ED91FC910190F081E02DC701D1
:104B30000995F3CF642F0E943727C801DF91CF91E9
:104B40001F910F91FF90EF90DF90CF900895CF933A
:104B5000DF931F92CDB7DEB769832091082B222304
:104B6000D1F02091092B203240F021E030E0FC010F
:104B70003383228380E090E015C080910A2BE82FD8
:104B8000F0E0E55FF44D998190838F5F80930A2B6D
:104B90008093092B05C061E0CE0101960E94372762
:104BA00081E090E00F90DF91CF910895FC01138296
:104BB000128248EE53E060E070E0448355836683E0
:104BC000778386E492E091838083089510922D2B61
:104BD00010922C2B10920A2B1092092B0C947A26EF
:104BE00081E08093082B60932B2B10920A2B10925C
:104BF000092B08950C94F0250F93062F21E0409186
:104C0000092B6BE07BE280912B2B0E94E026109217
:104C10000A2B1092092B1092082B0F9108958F9256
:104C20009F92AF92BF92CF92DF92EF92FF920F933B
:104C30001F93CF93DF93EC01F62ED42E4801590138
:104C4000EE2019F10E94F0251E2D143008F013E01B
:104C50001150B8F0E881F98128E0129FB0011124C9
:104C6000A501940104C056954795379527956A95F7
:104C7000D2F7CA01B9010190F081E02DCE0109956A
:104C8000E7CF60E0CE010E94FC254D2D413208F0B7
:104C900040E22C2D6EE27BE28F2D0E94982610922E
:104CA0002D2B80932C2BDF91CF911F910F91FF9093
:104CB000EF90DF90CF90BF90AF909F908F9008952E
:104CC000CF92EF920F931F93C22EE12C00E010E0E1
:104CD00098010E940F261F910F91EF90CF90089599
:104CE00021E00C94602661E00C94FC258CEF9AE2A4
:104CF0000C94D6251092BB2B81E08093B92B109297
:104D0000B82B61E084E10E94866561E085E10E9444
:104D10008665E9EBF0E080818E7F808380818D7FE6
:104D2000808384E38093B80085E48093BC00089579
:104D3000413208F043C09091BB2B9111FCCF91E020
:104D40009093BB2B2093B92B2FEF20934E2B1092D7
:104D5000932B240F2093922B9093BA2B9091BA2BE4
:104D6000880F892B8093BA2B8091B82B813061F406
:104D70001092B82B8091BA2B8093BB008091BC001D
:104D800083FDF8CF85EC01C085EE8093BC00809157
:104D9000BB2B8130E1F38091932B841710F4409169
:104DA000932B24E93BE2FB01D9018A2F821B841754
:104DB00018F48D918193F9CF842F089580E00895A0
:104DC0000F93413208F04AC09091BB2B9111FCCF58
:104DD00092E09093BB2B0093B92B9FEF90934E2BB7
:104DE0001092932B4093922BFB0164E97BE2DB0151
:104DF0009A2F961B941718F491919D93F9CF1092C6
:104E0000BA2B9091BA2B880F892B8093BA2B809163
:104E1000B82B813061F41092B82B8091BA2B80931B
:104E2000BB008091BC0083FDF8CF85EC01C085EE0E
:104E30008093BC00222321F08091BB2B8230E1F3D0
:104E400080914E2B8F3F61F080914E2B803251F03C
:104E500080914E2B803341F483E007C081E005C090
:104E600080E003C082E001C084E00F9108956132C8
:104E700098F42091BB2B243089F46093702BFC01B3
:104E800082E79BE2DC012A2F281B261718F42191C8
:104E90002D93F9CF80E0089581E0089582E0089590
:104EA00085ED8093BC008091BC0084FDFCCF109206
:104EB000BB2B089585EC8093BC001092BB2B08950A
:104EC0001F920F920FB60F9211240BB60F922F93D1
:104ED0003F934F935F936F937F938F939F93AF9382
:104EE000BF93EF93FF938091B900887F803609F4D8
:104EF0009EC078F5883209F45DC090F4803109F4E1
:104F000056C038F4882309F4F5C0883009F44FC03E
:104F1000F5C0883109F44EC0803209F45FC0EEC09C
:104F2000803409F46AC058F4803309F457C08833D8
:104F300009F0E4C080934E2B0E945A27DFC08035D1
:104F400009F44FC0883509F45DC0883409F0D6C033
:104F5000D3C0883909F4C4C0A8F4883709F467C0FD
:104F600038F4883609F463C0803709F460C0C6C0DD
:104F7000883809F4B5C0803909F45FC0803809F079
:104F8000BDC05BC0803B09F483C038F4803A09F4AB
:104F900066C0883A09F47CC0B1C0803C09F4A4C062
:104FA000883C09F4A1C0883B09F487C0A7C0809160
:104FB000BA2B10C09091932B8091922B981770F57B
:104FC000E091932B81E08E0F8093932BF0E0EC56D1
:104FD000F44D80818093BB0085EC83C080934E2B81
:104FE0008BC0E091932B81E08E0F8093932B809167
:104FF000BB00F0E0EC56F44D80839091932B8091B0
:10500000922B6BC0E091932B81E08E0F8093932BBA
:105010008091BB00F0E0EC56F44D80838091B92B79
:1050200081116AC081E08093B82B84EA5EC083E07E
:105030008093BB2B10924F2BCFCF80914F2B803280
:1050400008F04EC0E0914F2B81E08E0F80934F2BE4
:105050008091BB00F0E0E05BF44D8083BDCF0E9407
:105060005A2780914F2B803230F4E0914F2BF0E0A3
:10507000E05BF44D108260914F2B70E0E091B42B17
:10508000F091B52B80E59BE2099510924F2B36C02D
:1050900084E08093BB2B1092712B1092702BE091C7
:1050A000B62BF091B72B09958091702B811105C01B
:1050B00081E08093702B1092722BE091712B81E034
:1050C0008E0F8093712BF0E0EE58F44D8081809329
:1050D000BB009091712B8091702B981708F47CCFB6
:1050E00085E88093BC000AC085EC8093BC001092D8
:1050F000BB2B04C010924E2B0E945027FF91EF91C2
:10510000BF91AF919F918F917F916F915F914F91DF
:105110003F912F910F900BBE0F900FBE0F901F90DD
:1051200018952F923F924F925F926F927F928F923B
:105130009F92AF92BF92CF92DF92EF92FF920F9326
:105140001F93CF93DF93CDB7DEB7C855D1090FB604
:10515000F894DEBF0FBECDBF5C01490117012801E5
:105160008E010F5F1F4F80E4F80111928A95E9F7D5
:105170004130F2E05F0738F09A0140E050E0C801AA
:105180000E940D2D0AC0495F5F4FE3E05695479599
:10519000EA95E1F7C8010E944A6D6E0181E4C80EEC
:1051A000D11CF80196E3808189278193EC15FD05D8
:1051B000D1F7C6010E949B2AB801C6010E94C12AEC
:1051C000A201910134012115F2E03F07410551058B
:1051D00018F1B301C60166962FAF669767963FAF89
:1051E000679768964FAF689769965FAF69970E9417
:1051F000C12AE0E46E0E711C66962FAD6697679625
:105200003FAD679768964FAD689769965FAD6997B0
:10521000325041095109D7CFB201A101517066271F
:105220007727D201C10129E0B695A7959795879573
:105230002A95D1F71C0136E0220C331C3A95E1F790
:10524000280C391CB101C6010E944F2C48019AE676
:10525000F4018081892781934F01EC15FD05C1F789
:10526000BF01C5010E94052DC4010E949B2AB801FF
:10527000C4010E94C12A40E850E0B501C4010E9467
:105280004F2CB401C5010E94052DC85ADF4F0FB63F
:10529000F894DEBF0FBECDBFDF91CF911F910F916C
:1052A000FF90EF90DF90CF90BF90AF909F908F9046
:1052B0007F906F905F904F903F902F9008958F92C6
:1052C0009F92AF92BF92EF92FF920F931F934B0169
:1052D0005C0160957095809590956E217F2180236B
:1052E0009123282139214A215B21622B732B842BA6
:1052F000952B1F910F91FF90EF90BF90AF909F90D3
:105300008F9008958F929F92AF92BF92EF92FF92EB
:105310000F931F934B015C01C801B7016095709515
:105320008095909562237323842395238E209F205C
:10533000A022B122682979298A299B291F910F91DE
:10534000FF90EF90BF90AF909F908F900895EF9255
:10535000FF920F931F932E253F2540275127262785
:10536000372748275927CA01B9011F910F91FF908C
:10537000EF900895EF92FF920F931F93E094F094B3
:1053800000951095E62AF72A082B192BE226F3261A
:1053900004271527C801B7011F910F91FF90EF90C7
:1053A00008952F923F924F925F926F927F928F92C9
:1053B0009F92AF92BF92CF92DF92EF92FF920F93A4
:1053C0001F93CF93DF93CDB7DEB760970FB6F894F6
:1053D000DEBF0FBECDBF4B01322E202E28E0E6E20D
:1053E000F1E0DE01119601900D922A95E1F74370EC
:1053F000642F70E05C0124E0429FA00CB11C1124DA
:10540000D5014D905D906D907C906B01BFEFCB1AF4
:10541000DB0AE3E0CE22DD24CC0CDD1CCC0CDD1C51
:10542000C80ED91EFE013196EE0DF11DEE0DF11DD7
:105430009B012D5F3F4F23703327220F331F220F15
:10544000331F280F391FD901ED90FD900D911C914C
:10545000DB011296A370BB27AA0FBB1FAA0FBB1FAD
:10546000A80FB91F2D913D914D915C91D6016D9181
:105470007D918D919C910190F081E02D0995B4E092
:105480002B9EF0011124E252F84F25913591459160
:105490005491D401ED90FD900D911C91E40CF51CFC
:1054A000061D171DE60EF71E081F191FE20EF31E3C
:1054B000041F151FB801A701032C04C0440F551F7A
:1054C000661F771F0A94D2F720E22319D801C7017B
:1054D00004C0B695A795979587952A95D2F7482B3E
:1054E000592B6A2B7B2BF60180819181A281B3819C
:1054F000480F591F6A1F7B1FD5014D935D936D9314
:105500007C93139760960FB6F894DEBF0FBECDBFA5
:10551000DF91CF911F910F91FF90EF90DF90CF908F
:10552000BF90AF909F908F907F906F905F904F90C3
:105530003F902F900895FC01108A118A128A138AD5
:1055400041E053E265E477E64083518362837383ED
:1055500049E85BEA6DEC7FEE44835583668377838D
:105560004EEF5CED6AEB78E940875187628773877D
:1055700046E754E562E370E144875587668777879D
:1055800008952F923F924F925F926F927F928F92E7
:105590009F92AF92BF92CF92DF92EF92FF920F93C2
:1055A0001F93CF93DF93CDB7DEB7A2970FB6F894D2
:1055B000DEBF0FBECDBF1C017AA369A3FC018081B1
:1055C0009181A281B38189839A83AB83BC838481D7
:1055D0009581A681B7818D839E83AF83B8878085AF
:1055E0009185A285B38589879A87AB87BC87848597
:1055F0009585A685B7858D879E87AF87B88B87E011
:105600008D8F8CE08E8F81E18F8F86E188A32B01B7
:10561000A12CB12C3E01FDE16F0E711C65E0F62E50
:10562000F60C43011A2D110F110F1619C12CD12C94
:10563000012F080DF40121914F014F2D4E1BB60192
:10564000640D751DE12CCE0101960E94D129F4E074
:10565000CF0ED11C80E1C816D10451F79FEFA91AD3
:10566000B90AE0E14E0E511CF4E0AF16B104C9F6E0
:1056700085E0898F89E08A8F8EE08B8F84E18C8F23
:10568000CC24C394D12C3E0189E1680E711C5FE0EB
:10569000552E56184601530114E0452C4C0C042D90
:1056A0000A0DF50121915F01B4016F707727660F34
:1056B000771F660F771F89A19AA1680F791FEE24C3
:1056C000E394412FCE0101960E94D129115095E01B
:1056D000890E911C1111E3CFE4E0CE0ED11CF1E153
:1056E000CF16D104B9F684E08D8B8BE08E8B80E1F0
:1056F0008F8B87E1888F95E0C92ED12C3E0185E103
:10570000680E711C25E2522E56184601530114E012
:10571000452C4C18042D0A0DF50121915F01B401AF
:105720006F707727660F771F660F771F89A19AA181
:10573000680F791F82E0E82E412FCE0101960E946A
:10574000D129115093E0890E911C1111E3CFE4E0AF
:10575000CE1AD108F5EFCF16FFEFDF06B1F686E0DF
:10576000898B8AE08A8B8FE08B8B85E18C8BC12CB7
:10577000D12C3E0181E1680E711CA0E35A2E56180F
:105780004601530114E0452C4C18042D0A0DF50177
:1057900021915F01B4016F707727660F771F660F45
:1057A000771F89A19AA1680F791FF3E0EF2E412F8F
:1057B000CE0101960E94D129115097E0890E911CCB
:1057C0001111E3CFE4E0CE1AD108F0EFCF16FFEFCE
:1057D000DF06B1F6F10180819181A281B381498117
:1057E0005A816B817C81840F951FA61FB71F808310
:1057F0009183A283B38384819581A681B7814D81F2
:105800005E816F817885840F951FA61FB71F8483E3
:105810009583A683B78380859185A285B3854985C5
:105820005A856B857C85840F951FA61FB71F8087BF
:105830009187A287B38784859585A685B7854D8591
:105840005E856F857889840F951FA61FB71F848793
:105850009587A687B78780899189A289B3890196A0
:10586000A11DB11D808B918BA28BB38BA2960FB61D
:10587000F894DEBF0FBECDBFDF91CF911F910F9186
:10588000FF90EF90DF90CF90BF90AF909F908F9060
:105890007F906F905F904F903F902F9008956F9200
:1058A0007F928F929F92AF92BF92CF92DF92EF92B0
:1058B000FF920F931F93CF93DF93CDB7DEB7C05402
:1058C000D1090FB6F894DEBF0FBECDBF8C013B01EE
:1058D0004A017A016B01E114E2E0FE0650F0B601E4
:1058E000C8010E94C12A82E0F81A90E4C90ED11CB6
:1058F000F2CF5401AB2CBB24A694F6E0AA0CBB1C3F
:10590000FA95E1F7A60CB71C6401F1E0DF22CE01A5
:1059100001967C0180E4F70111928A95E9F736013E
:10592000A3E076946794AA95E1F7A301B501C701B6
:105930000E944A6DF7E08F229924F701E60DF71DCA
:105940008114910471F0D501A60DB71D80E890E097
:1059500002C0959587958A94E2F79C91982B908345
:1059600002C080E8808388E0680E711C90E46916AC
:105970007104A8F0B701C8010E94C12AF80180890A
:105980009189A289B3890197A109B109808B918B73
:10599000A28BB38B88E3F70111928A95E9F7F8019E
:1059A00080899189A289B38979E0880F991FAA1FFC
:1059B000BB1F7A95D1F78C0D9D1DA11DB11D9C01BA
:1059C000AD0189AF3AAF4BAF5CAF1DAE1EAE1FAE9F
:1059D00021961FAE2197B701C8010E94C12AC05C61
:1059E000DF4F0FB6F894DEBF0FBECDBFDF91CF9172
:1059F0001F910F91FF90EF90DF90CF90BF90AF90ED
:105A00009F908F907F906F90089520E1FB01DC01C3
:105A100001900D922A95E1F708958F929F92AF928F
:105A2000BF92CF92DF92EF92FF920F931F93CF938B
:105A3000DF93CDB7DEB768970FB6F894DEBF0FBE21
:105A4000CDBF6C017B01CE0101962D8B3E8B4F8B20
:105A5000588F0E949B2A2D893E894F89588D490174
:105A60005A018701811482E09806A104B104A0F0D4
:105A7000B801CE0101962D8B3E8B4F8B588F0E9423
:105A8000C12A005C1F4F82E0981AA108B108588D06
:105A90004F893E892D89E6CFDA01C9019170AA2785
:105AA000BB27BA01A901B9E0769567955795479547
:105AB000BA95D1F7BA0116E0660F771F1A95E1F78C
:105AC0006E0D7F1DAC01CE0101960E944F2CBE01D0
:105AD0006F5F7F4FC6010E94052D68960FB6F89440
