:100000000C94B0040C94BA630C94E5630C941064E3
:100010000C94DF040C94DF040C94DF040C94DF04D4
:100020000C94DF040C94943B0C94C03B0C944D3E18
:100030000C94DF040C94DF040C94DF040C94DF04B4
:100040000C94DF040C94DF040C943C640C94DF04E7
:100050000C9447670C947D670C94DF040C94DF04C8
:100060000C94DF040C94DF040C949B270C94DF04A5
:100070000C94F4670C942A680C94DF040C94DF044D
:100080000C94DF040C94DF040C94DF04481000137C
:1000900000132C0FB9100013C5100013281194126F
:1000A000A212D212F412A736E536FC3637376F3774
:1000B0009237D0372C386D657065636567658765E5
:1000C0008765746578657E6582654552524F523A00
:1000D00020756E6B6E6F776E20636F6D6D616E64F1
:1000E0003A202700270A00766572626F7369747977
:1000F0003A00766572626F736974790073616D702E
:100100006C696E67496E74657276616C5F313674C6
:10011000685F73005245424F4F543D7472756500DD
:10012000656570726F6D57726974653D00656570C5
:10013000726F6D526561643D005061636B65742040
:1001400076616C69642062757420696E636F727287
:1001500065637420726573706F6E7365002323236B
:10016000232323232323232323232323232323235F
:1001700023232300546F6F206D616E7920726574A4
:10018000726965733A20004157414B45210A00537B
:100190004C454550210A007320776974686F757467
:1001A000206D6573672061636B2C207265626F6FD1
:1001B00074696E670A00476F6E652000536574208E
:1001C000485720636C6F636B00454550524F4D207C
:1001D000636F6E74656E7473206C656E6774683AD5
:1001E0002000486561646572206C656E6774683ACA
:1001F00020000A5374617475733A200046697820B0
:1002000074696D653A20000A506F736974696F6E86
:100210003A2000474E53532076616C69643A2000BF
:100220006D6167446174615B005D3A2000537570D5
:10023000706C7920766F6C746167653A20000A46AD
:100240004C433130302074656D702E3A2000546973
:100250006D657374616D703A20000A53797374652B
:100260006D2074656D702E3A20002D2D0A53616D3E
:10027000706C696E6720737461727465640A0054EF
:10028000696D65206572726F7220286F75722D47D7
:100290004E5353293A2000536574757020636F6D77
:1002A000706C6574650053616D706C696E67206970
:1002B0006E74657276616C202873293A2000436F52
:1002C000756C64206E6F74206765742074696D6549
:1002D0002066726F6D20686172647761726520526A
:1002E00054430A005365742073797374656D2063F9
:1002F0006C6F636B2066726F6D20686172647761EA
:100300007265205254430A0053797374656D2063FB
:100310006C6F636B3A2000436F6E66696775726934
:100320006E672073797374656D20636C6F636B0AFD
:10033000004D435037393431782063616C69627203
:100340006174696F6E3A20004E6F205254432066EC
:100350006F756E640A00466F756E642052544320B8
:100360006174206164647265737320307800417534
:10037000746F70726F62696E6720746F2066696E49
:1003800064205254430A006D65616E0A006D656415
:1003900069616E0A007472696D6D656420006E7526
:1003A0006D53616D706C65733A20000A6167677206
:1003B00065676174653A20004144435B005D3A2003
:1003C0004F78002063682E2000206D697373696E7A
:1003D000670A002070726573656E740A00464C43AC
:1003E0003130300020706F7765722D757020646534
:1003F0006C617920286D73293A2000207072657332
:10040000656E7400206E6F7400496E697469616C6A
:100410006973696E672000484D4143206B65793AE6
:10042000200046616E20687973742E3A2000466180
:100430006E2074656D702E3A20000A4669726D77E1
:100440006172653A204D6167436C6F75642D302E83
:100450003330610A465F4350553A2031324D487A75
:100460000A436F6D6D733A2057353130300A466557
:100470006174757265733A20464C433130302047C1
:100480004E53530A005243206F73632E3A20000AE2
:10049000434B53454C3A20000A4D435553523A20A2
:1004A000004C6F7720667573653A20000A486967CB
:1004B0006820667573653A20000A457874656E6435
:1004C000656420667573653A20006D61696E7461BC
:1004D000696E2072657475726E6564200072656263
:1004E000696E640072656E65776564006661696C4B
:1004F00065642C207265626F6F74696E67006F6B44
:100500000044484350206C6561736520004163746A
:100510006976652073657474696E67733A0A004E74
:100520006F2072656D6F746520686F73742C207412
:100530007279696E6720666F722031323073207471
:100540006F20636F6D6D756E696361746520746F84
:10055000200043616E6E6F74207265736F6C7665F8
:100560002000207265736F6C76657320746F2000B5
:1005700044484350206661696C65642C2072656252
:100580006F6F74696E672E2E2E0A00526571756545
:100590007374696E672049500A005573696E67204D
:1005A0007374617469632049500A00202052656D9C
:1005B0006F746520686F73746E616D653A200045D5
:1005C0004550524F4D2073657474696E67733A0AD3
:1005D00020204D41433A20000A202052656D6F745F
:1005E000653A2000286E6F6E65290020204C6F63ED
:1005F000616C3A20000A20204D61736B3A20000A9A
:10060000202047573A20000A2020444E533A200029
:10061000496E7374616C6C20465720726573756CFB
:10062000743A20004669726D7761726520435243C7
:100630003A20000A446F776E6C6F61642043524326
:100640003A20000A435243207374617475733A2050
:1006500000636F70696564207061727469616C20F9
:1006600073706D42756666657220746F20666C618A
:1006700073683A20004669726D7761726520646F15
:10068000776E6C6F616420666F72200020636F6DFF
:10069000706C657465640A00636F706965642073CB
:1006A000706D42756666657220746F20666C61734A
:1006B000683A20004572617365642074656D706FDF
:1006C00072617279206170706C69636174696F6EB8
:1006D000206172656120696E20666C61736820001C
:1006E00050726F63657373696E672046572075702B
:1006F0006772616465200055706772616465206689
:1007000069726D7761726520746F2000416C72654B
:100710006164792068617665206669726D776172BF
:10072000652076657273696F6E2000526563656936
:100730007665642075706772616465206669726DA4
:1007400077617265207461673A200053414D504CC7
:10075000494E4720494E54455256414C204348414A
:100760004E474544212000536572766572207469B6
:100770006D653A20000A4F75722074696D653A20E4
:10078000000A54696D65206572726F7220286F755A
:10079000722D736572766572293A200054696D6511
:1007A000207365742066726F6D2073657276657252
:1007B0000A003D3D3D3D0A003D3D3D3D0A52657309
:1007C000706F6E73653A0A0078A46AD756B7C7E8A7
:1007D000DB702024EECEBDC1AF0F7CF52AC6874763
:1007E000134630A8019546FDD8988069AFF7448B31
:1007F000B15BFFFFBED75C892211906B937198FDAE
:100800008E4379A62108B44962251EF640B340C044
:10081000515A5E26AAC7B6E95D102FD6531444027A
:1008200081E6A1D8C8FBD3E7E6CDE121D60737C3DF
:10083000870DD5F4ED145A4505E9E3A9F8A3EFFCBB
:10084000D9026F678A4C2A8D4239FAFF81F6718787
:1008500022619D6D0C38E5FD44EABEA4A9CFDE4BB4
:10086000604BBBF670BCBFBEC67E9B28FA27A1EAD0
:100870008530EFD4051D880439D0D4D9E599DBE65D
:10088000F87CA21F6556ACC4442229F497FF2A4382
:10089000A72394AB39A093FCC3595B6592CC0C8F12
:1008A0007DF4EFFFD15D84854F7EA86FE0E62CFEDE
:1008B000144301A3A111084E827E53F735F23ABDCD
:1008C000BBD2D72A91D386EB0000000000000001C4
:1008D00008030200090A00000000000000000407ED
:1008E00000000000000000000102040801020408EA
:1008F0004020102040808040201008040201108019
:1009000080402010080402010404040402020202D0
:1009100004040202020203030303030303030404A7
:100920000101010101010101000022002500280050
:100930002B0000002100240027002A00690B5B0E19
:10094000B126753977411243C145D34E5E4FFC54F1
:100950009E59AC59B759175C9A61B1675E681669C0
:1009600011241FBECFEFD0E4DEBFCDBF13E0A0E067
:10097000B1E0E4EFFBED00E00BBF02C007900D9289
:10098000A63CB107D9F72EE2A6ECB3E001C01D9258
:10099000AB37B207E1F719E0C0E6D9E000E006C0E6
:1009A00022970109FE010BBF0E94D56BCC33D10702
:1009B00080E00807A9F70E940B6B0C94F86D0C946B
:1009C00000000F931F93CF93DF93DB01ED018C01A8
:1009D000222717FD2095322F2BBFF8010791002306
:1009E00031F011962881201309C00196EFCF4115EF
:1009F000510531F0FA01B183A08302C080E001C04B
:100A000081E0DF91CF911F910F910895EF92FF92B6
:100A10000F931F93CF93DF93EC018B017A0165E570
:100A200071E00E948669E00EF11E011580E1180751
:100A300038F50E151F0521F167E671E0CE010E9421
:100A40008669A80160E070E020E130E0CE010E94FC
:100A50001A6A65E671E0CE010E948669C8010E94AB
:100A6000D56D482F50E060E070E020E130E0CE012D
:100A70000E941A6ACE010E9499690F5F1F4FD5CF5D
:100A8000CE01DF91CF911F910F91FF90EF900895CC
:100A90002F923F924F925F926F927F928F929F928E
:100AA000AF92BF92CF92DF92EF92FF920F931F937C
:100AB000CF93DF93CDB7DEB72F970FB6F894DEBF95
:100AC0000FBECDBF6C017B01805B9F4F9E878D87E2
:100AD000D701ED91FC910480F581E02DC7010995C6
:100AE000892B09F4F7C1D701ED91FC910680F781BC
:100AF000E02DC7010995482F8D3019F08A3009F093
:100B0000B5C1ED85FE8520813181C216D30608F07E
:100B1000ADC1AE01455F5F4FB6018DE291E00E942D
:100B2000E104882309F44BC040E050E0BE016F5F50
:100B30007F4F8B859C850E94346C2B013C01611595
:100B4000F0E17F078105910508F0B4C1E981FA81E0
:100B50002B853C85E217F30709F4ACC120812C32C8
:100B600009F0A8C1CF0101969A8389839C878B875E
:100B700040E050E0BE016F5F7F4F0E94346C16165C
:100B80001706180619060CF095C193018201060F8D
:100B9000171F281F391F01151041210531050CF0C1
:100BA00089C1E981FA812B853C85E217F30709F4B5
:100BB00081C1208121117EC1AB01B20177C1AE019B
:100BC000455F5F4FB60180E291E00E94E104882317
:100BD00009F452C040E050E0BE016F5F7F4F8B854B
:100BE0009C850E94346C4B015C01E981FA818B8504
:100BF0009C85E817F907E9F180818C32D1F5240151
:100C000035011201820108191909411490E15906B0
:100C100061047104A0F489819A8101969A83898381
:100C20009C878B8740E050E0BE016F5F7F4F0E9442
:100C3000346C6F3F71058105910531F028F0B201E8
:100C4000601B710BA80132C1E981FA812B853C85BB
:100C5000E217F307A1F320812C3211F02111EFCF1D
:100C6000C1010E94E36D8FEF481A580A680A780A9A
:100C7000C8CF6AE671E020C1AE01455F5F4FB601A3
:100C800084E191E00E94E104882391F06DE871E035
:100C9000C7010E948669C7010E949969D701ED9139
:100CA000FC910284F385E02DC70109950E9475250A
:100CB000AE01455F5F4FB6018CEF90E00E94E1040A
:100CC000882309F47EC0EB85FC85CF0101969C87C3
:100CD0008B8720812D3309F045C040E050E0BE01F4
:100CE000675F7F4F0E94346C1616170618061906A8
:100CF000CCF5E985FA852B853C85E217F30791F160
:100D0000208121112FC08B019C010F7011272227F8
:100D100033274BE0000F111F221F331F4A95D1F7D5
:100D2000AB01BC01407F66277727E4E075956795A6
:100D300057954795EA95D1F7CE0101960E94003D5F
:100D40006DEF74E0CE0101960E94213E81110AC030
:100D5000BE016F5F7F4F85EF94E00E94213E8823A4
:100D600009F4AEC040900505509006056090070557
:100D70007090080584E0440C551C661C771C8A950D
:100D8000D1F78091090590910A05A0910B05B091CA
:100D90000C052BE0B595A795979587952A95D1F7E2
:100DA000480E591E6A1E7B1E6BE971E0C7010E9446
:100DB00086692AE030E0B301A201C7010E941A6AE5
:100DC00039C0AE01455F5F4FB60182EF90E00E94EF
:100DD000E104882399F1EB85FC85CF0101969C877E
:100DE0008B8720812D33C9F440E050E0BE016F5F56
:100DF0007F4F0E94346C6F3F71058105910509F0AA
:100E000060F4E981FA812B853C85E217F30729F02C
:100E10002081211102C06093B22A1091B22A67EE9C
:100E200070E0C7010E9463694AE050E0612FC7018A
:100E30000E94796AC7010E9499690EC06AEC70E04D
:100E4000C7010E946369B601C7010E94866964EE0A
:100E500070E0C7010E946369F60140E511924A956E
:100E6000E9F7AD85BE85CD92DC9232CEED85FE856B
:100E70000081118198012C193D09203531050CF0B4
:100E800027CE842F992787FD90954F870E946A6D02
:100E90004F85892B09F41CCE98012F5F3F4FAD85FC
:100EA000BE852D933C93F801408312CEC7010E946A
:100EB0000605D2CF64EB71E0C7010E948669CCCFF2
:100EC000FE013196A5E0B5E088E001900D928A958B
:100ED000E1F748CF2F960FB6F894DEBF0FBECDBF17
:100EE000DF91CF911F910F91FF90EF90DF90CF9006
:100EF000BF90AF909F908F907F906F905F904F903A
:100F00003F902F9008950F931F93CF93DF93EC01A1
:100F1000CB018A01BE01685F7F4F44E00E94222E10
:100F2000BE01645F7F4F42E0C801DF91CF911F9106
:100F30000F910C94222EEF92FF920F931F93CF9359
:100F4000DF9300D0CDB7DEB77C018B01413082E06A
:100F5000580788F066ED71E080914002909141025F
:100F600049835A830E94AF6981E090E0F701918341
:100F700080835A814981B801C7018E5D9D4F0E94CF
:100F80002E63F70111821082E65FFD4F808191810F
:100F9000049711F4118210820F900F90DF91CF917E
:100FA0001F910F91FF90EF9008952F923F924F92D3
:100FB0005F926F927F928F929F92AF92BF92CF92E9
:100FC000DF92EF92FF920F931F93CF93DF93CDB7F2
:100FD000DEB762970FB6F894DEBF0FBECDBF362ED8
:100FE000272E4A01FA01C080D180A62EB72E10E02C
:100FF0009C01245D3D4F3A8B298B2C0133ED431A24
:101000003DEF530A3E0141E1640E711CC114D1044D
:1010100019F160E0262F30E0C601E3E0CE16D104DE
:1010200010F082E090E02817390790F4F501E20F04
:10103000F31F408150E0F901E85FFC4F8081992760
:1010400087FD90954817590709F05BC06F5FE2CFA5
:1010500032E0C316D10410F480E060C0F4E0CF1693
:10106000D10408F441C0F501838180FF4FC0F6E050
:10107000CF16D104C8F1F501248130E0322F2227A8
:101080008581280F311DC216D30670F1E989FA89CE
:1010900040817901F8E0EF1AF0EEFF0A83E0EE0CF0
:1010A000FF1C8A95E1F700E010E028E0429FA001D4
:1010B0001124F201608171819501CE0101960E9497
:1010C000CC28DE011996F6013897EA0DFB1D81E068
:1010D0003D91219191E0321390E08923A615B70547
:1010E000B9F711E0882391F0F40180819181C8164D
:1010F000D90699F0A601B501832D922D0E948E6D1F
:101100000CC042E0C416D10408F4A6CFFFEFAF1A1A
:10111000BF0A21E0C21AD10879CF812F62960FB69B
:10112000F894DEBF0FBECDBFDF91CF911F910F911D
:10113000FF90EF90DF90CF90BF90AF909F908F90F7
:101140007F906F905F904F903F902F9008954F92B7
:101150005F926F927F928F929F92AF92BF92CF9247
:10116000DF92EF92FF920F931F93CF93DF93CDB750
:10117000DEB767970FB6F894DEBF0FBECDBF8C0108
:101180007B013A016C0124EFC21A2DEFD20AD6017D
:101190008D919C91009741F484E090E0F801918357
:1011A000808380E090E07EC2D8011D921C92DC0119
:1011B000ED91FC910288F389E02D09955801B6EF75
:1011C000AB1ABDEFBB0AF501808191818130910599
:1011D00009F45AC01CF4892B49F062C2823091058F
:1011E00009F463C0039709F4F6C05AC27801FEED12
:1011F000EF1AFDEFFF0AC7010E940863811150C278
:1012000040E052E0B8016E5F7F4FC7010E944A6321
:101210009C01780182E0E80EF81ED7012D933C93E3
:101220002115310509F43CC2F801EC5FFD4F118234
:10123000108281E090E0F50191838083E091EE28B7
:10124000F091EF28309709F42BC2C901BF010E9429
:10125000366B882309F424C2AF01481B51096A0187
:10126000C20ED31EF1E0CF16F2E0DF0608F018C27E
:10127000C901029660E070E0800F911F0E94A06D8E
:10128000D701CD92DC920CC2F60180819181DC0104
:10129000ED91FC910484F585E02D0995882309F4EE
:1012A000FFC182E090E0F501F9C17801FCEFEF1A8F
:1012B000FDEFFF0AD7018D919C91F801EE5FFD4F84
:1012C0004F01892B71F48091B22A8A3051F44091F8
:1012D00040025091410260817181C80102960E94D2
:1012E000B22ED7018D919C91892B51F4F60180810A
:1012F0009181DC01ED91FC910488F589E02D09953F
:10130000F60180819181DC01ED91FC91008CF18DE1
:10131000E02D0995009719F4F40180819181F6017F
:10132000A081B1812D913C911197F701608171816C
:101330006E5F7F4F600F711FF90122813381AC0115
:10134000CD01F9010995D7012D913C911197280FF5
:10135000391F2D933C93F40180819181281739071F
:1013600009F09EC1D6018D919C91DC01ED91FC911B
:101370000688F789E02D0995F801EA5FFD4F118293
:1013800010827801B2EFEB1ABDEFFB0A80ED97E017
:10139000A0E0B0E0F70180839183A283B38381E072
:1013A00090E0918780870E948664D7014D905D9080
:1013B0006D907C90640D751D861D971DF7016483EB
:1013C00075838683978336978FEF9FEF9183808312
:1013D00083E090E07DC04801B2EF8B1ABDEF9B0A1D
:1013E000F40180859185892B51F40E949264D40187
:1013F00014962D913D914D915C91179707C00E94D5
:101400008664F4012481358146815781621B730B08
:10141000840B950B6095709580959095662797FD48
:101420006395772788279927662309F455C0C090CC
:101430004002D090410267EE71E0C6010E94AF69A0
:1014400082E090E0D8018D939D937D014801B2E048
:101450008B0E9B1EF4014081B701CE0101960E94C4
:10146000A92F8C85823038F58F5F8C87F801E45D79
:10147000FD4F20813196808191819F878E872D87B6
:1014800020E030E040E052E0B701CE0101960E943A
:101490000D33D4011D921C92F801468150E0542F67
:1014A00044278781480F511DB701C8018E5D9D4FAC
:1014B0000E942E630BC064E771E0C6010E9463695D
:1014C000A60160E072E0C7010E94B22E84E090E0C5
:1014D000D5018D939C93E4C0F60180819181DC015C
:1014E000ED91FC91028CF38DE02D0995F601808140
:1014F0009181DC01ED91FC910480F581E02D09954D
:101500002C01009709F4CCC04801BAEF8B1ABDEF4B
:101510009B0AF401808191818615970560F081E036
:1015200090E0D8018D939C93349711821082F5013D
:1015300011821082B5C0D6018D919C91DC01ED9194
:10154000FC910680F781E02D0995F401208131811D
:10155000A9014F5F5F4F51834083F701E20FF31FF3
:101560008083F1E04F1A510831F7A401B701C80197
:101570000E94D507882309F493C0680122E0C20EB7
:10158000D11CAE014A5E5F4FBE01605F7F4FC60156
:101590000E948307AE014C5E5F4FBE016F5F7F4FBD
:1015A000C7010E948307D70116962C91169730E049
:1015B000322F222717968C91280F311DF801808534
:1015C00090E0982F88274185840F911D28173907AF
:1015D00009F042C0488959896A897B8989819A8141
:1015E000AB81BC81481759076A077B07A9F52E898B
:1015F0003F898C899D892817390771F5D701149681
:101600002C91149730E0322F222715968C91280FB9
:10161000311D868190E0982F88274781840F911D86
:101620002E0D3F1DD9011A978C0D9D1DFC013A9777
:101630005C914081541310C0119631962C91808199
:1016400028130AC0F801EE5FFD4F11821082F501E8
:101650001182108281E025C0C0904002D0904102EA
:101660006DE571E0C6010E949D6969E371E0C60104
:101670000E949D69D4016D917C91A601C7010E94D1
:10168000B22E6DE571E0C6010E949D69F4011182E0
:101690001082F801E85FFD4F8FEF9FEF9183808309
:1016A00080E090E067960FB6F894DEBF0FBECDBF26
:1016B000DF91CF911F910F91FF90EF90DF90CF902E
:1016C000BF90AF909F908F907F906F905F904F9062
:1016D000089587EF91E09093C7038093C60386ED4A
:1016E00091E09093C9038093C80387EE91E09093B3
:1016F000CB038093CA03089581E080930501609332
:10170000040108950F931F93FC018181882339F10F
:101710008091AC29882351F18091B5299091B62907
:10172000892B19F40E94926402C00E948664009181
:10173000B1291091B2292091B3293091B429601BAD
:10174000710B820B930B6095709580959095662731
:1017500097FD6395772788279927662319F01092BC
:10176000AC2938C081E08093B72903C081E0809321
:10177000AC2980EB94E0A0E0B0E08093AD29909399
:10178000AE29A093AF29B093B02981E090E0909367
:10179000B6298093B5298091B5299091B629892BD6
:1017A00019F40E94926402C00E9486640091AD29DF
:1017B0001091AE292091AF293091B029600F711F8F
:1017C000821F931F6093B1297093B2298093B3292C
:1017D0009093B4291F910F910895CF93DF93EC015B
:1017E000FB012481358140815181628173810E9496
:1017F0001A6ACE01DF91CF9108950F931F93CF9373
:10180000DF93EC01188219821A821B8281E090E03A
:10181000998788870E948664088119812A813B8183
:10182000600F711F821F931F6C837D838E839F8344
:10183000DF91CF911F910F91089584B78093D704C2
:1018400014BE88E10FB6F894809360001092600097
:101850000FBE08950F931F93CF93DF93CDB7DEB7DD
:1018600028970FB6F894DEBF0FBECDBFCE0101960C
:101870000E94EC3B80910401882341F0BE016F5F20
:101880007F4F8EE09CE20E949A3C0CC000E010E08A
:1018900020E030E0AE014F5F5F4F60E08EE09CE201
:1018A0000E942C3B65E075E0CE0101960E94FA4053
:1018B00000E010E02CE73BE0AE014F5F5F4F60E0DF
:1018C0008EE09CE20E946D3F28960FB6F894DEBF32
:1018D0000FBECDBFDF91CF911F910F910895CF9390
:1018E000DF9300D0CDB7DEB78A830E9482638A81FE
:1018F0009091B60091FDFCCF9091B000998348E1A2
:1019000028E130E059E290910501911133C0F8943B
:1019100097B3976097BB78949091B60091FDFCCFF8
:1019200099819093B0009091B60091FDFCCFF8940E
:1019300093B7917F982B93BF93B7916093BF0FB6E6
:10194000F89440936000109260000FBE95B79066C7
:1019500095BF9F7D95BF7894889593B79E7F93BFE1
:1019600078940FB6F894A895209360000FBE50931A
:101970006000C9CF8091BC008B7E8093BC008091B9
:10198000BC0084608093BC000F900F90DF91CF91DA
:101990000895CF92DF92EF92FF920F931F93CF9310
:1019A000DF93CDB7DEB728970FB6F894DEBF0FBE32
:1019B000CDBF7C016B011092060100E010E09801A0
:1019C00040E050E0BA01CE0101960E94003D88E05F
:1019D000FE013196A7E1B5E001900D928A95E1F7FD
:1019E0001092F3041092D9041092D80460E0809110
:1019F00018010E94C16503E01EE224E03FE049E3D4
:101A00005DE2B601C7010E94302E8091B22A8A3071
:101A100091F468EB77E089E39DE20E94636949E312
:101A20005DE2B601C7010E94B22E62EB77E089E366
:101A30009DE20E94636967EB76E08EE09CE20E9483
:101A40009A3C28960FB6F894DEBF0FBECDBFDF914B
:101A5000CF911F910F91FF90EF90DF90CF9008955D
:101A6000EF92FF920F931F93CF93DF93CDB7DEB723
:101A7000A5970FB6F894DEBF0FBECDBF7C018B01DA
:101A8000CE0101964CA35DA30E94DB68CE010996AE
:101A90000E949F5B88E10FB6F894809360001092DB
:101AA00060000FBEB701CE0101960E94BC544CA14C
:101AB0005DA1B801CE0101960E941B5749E228E1C1
:101AC00030E00FB6F894A895209360000FBE4093C5
:101AD0006000A5960FB6F894DEBF0FBECDBFDF91B4
:101AE000CF911F910F91FF90EF9008952F923F9209
:101AF0004F925F926F927F928F929F92AF92BF921E
:101B0000CF92DF92EF92FF920F931F93CF93DF93C9
:101B1000CDB7DEB762970FB6F894DEBF0FBECDBF6C
:101B20004C013A0187EB93E09A838983F801228084
:101B30003380448055802B823C824D825E82988720
:101B40008F83F901028113812481358109871A87E6
:101B50002B873C879E878D87FB0182819381A4819F
:101B6000B5818F87988BA98BBA8B6BEE75E0C4011A
:101B70000E946369BE01635F7F4FC4010E948F6949
:101B80006AE3C4010E9488694AE050E0B301C401DD
:101B90000E94976A65EF75E0C4010E946369BE0107
:101BA000695F7F4FC4010E948F696FEF75E0C401C8
:101BB0000E946369BE016F5F7F4FC4010E948F69FD
:101BC00067E076E0C4010E946369870133E0732E09
:101BD00020E047EBE42E43E0F42EF801828193816C
:101BE000A481B581892B8A2B8B2BD9F0222339F044
:101BF0006091190170911A01C4010E948669FA82EC
:101C0000E982F80182819381A481B5818B839C83D1
:101C1000AD83BE83BE016F5F7F4FC4010E948F6999
:101C200021E07A940A5F1F4F7110D7CF211105C0B0
:101C300064EE75E0C4010E94636987EB93E09A83C8
:101C40008983F60182819381A481B5818B839C83F2
:101C5000AD83BE8368ED75E0C4010E946369BE0177
:101C60006F5F7F4FC4010E948F696AE3C4010E94C5
:101C700088694AE050E0B501C4010E94976AC40136
:101C80000E94996962960FB6F894DEBF0FBECDBF71
:101C9000DF91CF911F910F91FF90EF90DF90CF9048
:101CA000BF90AF909F908F907F906F905F904F907C
:101CB0003F902F9008950F931F9300E020E040E0A5
:101CC00060E08DEE9AE20E94E5688091490380937E
:101CD000EB2A80914A038093EC2A84E690E00E94EC
:101CE000D56D8093EA2A8FE690E00E94D56D8093AF
:101CF000E92A83EB9AE20E947C6188ED90E00E94E1
:101D0000DD6D9093B12A8093B02A89EB99E20E940D
:101D1000D6338CE590E00E94D56D91E0811101C031
:101D200090E09093B8298DEA99E20E94FD0B80EF34
:101D300098E290934129809340291092C208109212
:101D4000C1081092CA081092C9081092CC081092CB
:101D5000CB088DEC98E00E94FD0B87ED98E00E9487
:101D6000FD0B40E050E26EEE78E081EE98E00E94DC
:101D7000166287EB96E00E94EC3B00E010E09801D1
:101D800041E050E060E070E08FE195E00E94003DAE
:101D900000E010E0980140E050E0BA0187E195E0F2
:101DA0000E94003D00E010E0980142E050E060E059
:101DB00070E08DE095E00E94003D00E010E09801A9
:101DC0004EE150E060E070E085E095E00E94003D6B
:101DD00000E010E0980145E050E060E070E08DEF39
:101DE00094E00E94003D00E010E0980148E552E0D8
:101DF00060E070E085EF94E00E94003D8EEC93E09F
:101E00001F910F910C94EC3B2F923F924F925F9257
:101E10006F927F928F929F92AF92BF92CF92DF92FA
:101E2000EF92FF920F931F93CF93DF93CDB7DEB75F
:101E3000E6970FB6F894DEBF0FBECDBF8B017A01D7
:101E4000590190E0FC013897ED30F10508F0D8C356
:101E5000EA5BFF4F0C949F6B8091AC298111D0C33A
:101E6000CE0181960E94EC3BBE016F5D7F4F8EE0FC
:101E70009CE20E949A3C44E0B801CE0189960E94FF
:101E8000222EB8016C5F7F4F42E0CE018D960E94FA
:101E9000222E0DA51EA520E030E049A55AA56BA570
:101EA0007CA5CE0149960E94003DBE016F5D7F4F2B
:101EB000CE0141960E94F63BBE01675E7F4FCE0188
:101EC00041960E9454410D891E892F89388D37FF14
:101ED00007C030952095109501951F4F2F4F3F4F0C
:101EE00049895A896B897C8977FF07C0709560950D
:101EF000509541955F4F6F4F7F4FCE0109960E94DD
:101F0000003DBE01675F7F4F8FE195E00E94213E5B
:101F1000882309F43FC0BE01675E7F4F8EE09CE2DC
:101F20000E94A43ABE01675F7F4F85E095E00E9462
:101F3000213E8823C9F0BE01675E7F4FCE01019626
:101F40000E94F63B65E075E0CE0101960E94FA40E2
:101F500000E010E02CE73BE0AE014F5F5F4F60E038
:101F60008EE09CE20E946D3F6CE977E089E39DE2A0
:101F70000E946369BE016F5E7F4FCE0101960E9491
:101F8000284188E0FE013196A7E1B5E001900D926D
:101F90008A95E1F78091B22A823008F431C38D89A5
:101FA0009E89AF89B88D8BAB9CABADABBEAB20909F
:101FB000190130901A01C988DA88EB88FC888DA055
:101FC0009EA0AFA0B8A449A05AA06BA07CA00DA56C
:101FD0001EA589A59AA5ABA5BCA58FA798ABA9AB53
:101FE000BAAB67E677E089E39DE20E9463692AE085
:101FF00030E04FA558A969A97AA989E39DE20E941A
:102000006C6A60E289E39DE20E9488694AE050E0E0
:10201000B80189E39DE20E94976A65E777E089E36A
:102020009DE20E9463692AE030E0B301A20189E3E6
:102030009DE20E941A6A60E289E39DE20E9488693B
:102040002AE030E0B501A40189E39DE20E941A6A0A
:1020500061E877E089E39DE20E9463692AE030E06D
:10206000B701A60189E39DE20E941A6AB10189E3E2
:102070009DE20E9486692AE030E04BA95CA96DA927
:102080007EA989E39DE20E941A6A89E39DE26EC0FF
:1020900042E0CE0109960E94222E49855A858A0186
:1020A0000F701127102F0027110F110F110F20E0B3
:1020B00030E0F4E056954795FA95E1F760E070E07E
:1020C000CE0101960E94003D88E0FE013196A5E018
:1020D000B5E001900D928A95E1F76DEF74E085E02F
:1020E00095E00E94213E882321F088E0EDEFF4E0A6
:1020F0000BC065E075E085EF94E00E94213E8823E7
:1021000049F088E0E5EFF4E0A5E0B5E001900D923C
:102110008A95E1F7C0900905D0900A05E0900B057B
:10212000F0900C050091190110911A0140900505DD
:102130005090060560900705709008056BE477E005
:10214000C5010E9463692AE030E0B301A201C50124
:102150000E941A6AB801C5010E9486692AE030E02F
:10216000B701A601C5010E941A6AC5010E949969BA
:1021700047C22EE088E190E00FB6F894A8958093CE
:1021800060000FBE20936000FFCF8091E2048111B8
:1021900037C280E1FB01A2EEB4E001900D928A9576
:1021A000E1F71092F2046BE277E089E39DE20E948E
:1021B000636962EE74E089E39DE20E94866989E3C7
:1021C0009DE20E94996940E150E060E372E082EE96
:1021D00094E00E94B76D892BB1F41092E2046CE098
:1021E00077E089E39DE20E94636960E372E089E33E
:1021F0009DE20E94866989E39DE20E94996981E0DF
:102200008093F304FDC167EF76E089E39DE20E94CD
:10221000636962EE74E089E39DE20E94866989E366
:102220009DE20E949969B801605F7F4F42E080EEB5
:1022300094E00E94222EB8016E5E7F4F42E08EED48
:1022400094E00E94222E1092DD041092DC04D8C18A
:1022500042E0605F7F4FCE0109960E94222E40E14E
:1022600050E0B80182EE94E00E94B76D892B09F02E
:10227000C7C1E090DC04F090DD0489859A85E816FA
:10228000F90609F0BDC18091E0049091E104E816DF
:10229000F90608F0B5C19E2D9170992E60EE76E09A
:1022A00089E39DE20E9463694AE050E0B70189E357
:1022B0009DE20E94976A60E289E39DE20E9488693C
:1022C0004AE050E0692D89E39DE20E94796A89E342
:1022D0009DE20E949969A92CB12CD501B695BA2F1F
:1022E000AA27B795A795A952BC4FF801729680E826
:1022F00001900D928A95E1F7A1E09A124FC080916A
:10230000DC049091DD040197A1F40E944124182F70
:1023100064EB76E089E39DE20E9463694AE050E065
:10232000612F89E39DE20E94796A89E39DE20E9420
:102330009969C090DC04D090DD04CA18DB08E12C58
:10234000F12C67E0CC0CDD1CEE1CFF1C6A95D1F76C
:1023500020E047ED53E0C701B6010E947F24182F0B
:1023600068E976E089E39DE20E9463692AE030E053
:10237000B701A60189E39DE20E946C6A60E289E3ED
:102380009DE20E9488694AE050E0612F89E39DE266
:102390000E94796A89E39DE20E9499692091DC0498
:1023A0003091DD048091E0049091E10401972817B9
:1023B000390709F0B2C065E776E089E39DE20E9443
:1023C000636962EE74E089E39DE20E9486696CE8CD
:1023D00076E089E39DE20E946369B1E09B16E9F132
:1023E00040E850E06FEF70E087E594E00E94A06D58
:1023F000C090DC04D090DD04CA18DB08E12CF12C7D
:1024000057E0CC0CDD1CEE1CFF1C5A95D1F720E0E8
:1024100047ED53E0C701B6010E947F24182F61E504
:1024200076E089E39DE20E9463692AE030E0B7012B
:10243000A60189E39DE20E946C6A60E289E39DE265
:102440000E9488694AE050E0612F89E39DE20E9482
:10245000796A89E39DE20E949969CE0101960E9402
:102460000F25D82E09811A81E090DE04F090DF0458
:1024700064E276E089E39DE20E9463694AE050E00D
:10248000B70189E39DE20E94976A63E376E089E3FE
:102490009DE20E9463694AE050E0B80189E39DE251
:1024A0000E94976A63E476E089E39DE20E94636993
:1024B0004AE050E06D2D89E39DE20E94796A89E34C
:1024C0009DE20E94996964E670E080E090E00E94DD
:1024D000B3648091DE049091DF040E941F25182FC1
:1024E00060E176E089E39DE20E9463694AE050E0A2
:1024F000612F89E39DE20E94796A89E39DE20E944F
:10250000996989E39DE20E94646668EE73E080E069
:1025100090E00E94B3640E9475252F5F3F4F309377
:10252000DD042093DC046CC042E08AED94E00E945C
:10253000222EB8016E5F7F4F42E088ED94E00E944A
:10254000222E5EC042E0CE0101960E94222E68013A
:10255000E2E0CE0ED11C89819A819093DB048093B6
:10256000DA04C70102979093D9048093D8040E0D22
:102570001F1DC016D10609F443C089819A819C01B0
:10258000205231092031310520F0D6016C910E9492
:10259000E36D89819A8101969A838983BFEFCB1A73
:1025A000DB0AE7CF41E0CE0109960E94222E898501
:1025B000882331F1B8016F5F7F4F41E0CE01019672
:1025C0000E94222E898181FB992790F9282F217062
:1025D00089853FEF380F303198F48093AD2A2093EE
:1025E000AE2A9093AF2A0CC041E0CE0101960E9422
:1025F000222E81E09981911101C080E08093F40442
:1026000080E0E6960FB6F894DEBF0FBECDBFDF9137
:10261000CF911F910F91FF90EF90DF90CF90BF90DF
:10262000AF909F908F907F906F905F904F903F9072
:102630002F9008956F927F928F929F92AF92BF9248
:10264000CF92DF92EF92FF920F931F93CF93DF937E
:10265000CDB7DEB7CC58D1090FB6F894DEBF0FBEA8
:10266000CDBFA89546E050E060E770E0CE018D5701
:102670009F4F0E94C56D44E050E060E570E0CE01E0
:1026800087579F4F0E94C56DBE0167577F4FCE0190
:1026900083589F4F0E94FB6844E050E060EC70E07C
:1026A000CE0187579F4F0E94C56DBE0167577F4F70
:1026B000CE0189589F4F0E94FB6844E050E064ECD3
:1026C00070E0CE0187579F4F0E94C56DBE016757CE
:1026D0007F4FCE018F589F4F0E94FB68CE018F5BCA
:1026E0009F4F0E94DB6881E490E08C0F9D1F06964F
:1026F0000E94DB6881E490E08C0F9D1F0C960E9485
:10270000DB68CE018F5B9F4F7C0108EC10E044E05A
:1027100050E0B801CE0187579F4F0E94C56DBE01A2
:1027200067577F4FCE0101960E94FB688B819C8189
:10273000AD81BE81F70182839383A483B5830C5F4F
:102740001F4FF6E0EF0EF11C043D110501F744E0C8
:1027500050E064E570E0CE0187579F4F0E94C56D41
:10276000BE0167577F4FCE0185599F4F0E94FB687E
:1027700088E590E00E94DD6D4C018AE590E00E94C2
:10278000DD6D3C0140E450E060E870E0CE01019670
:102790000E94C56D6FEB75E089E39DE20E9463695D
:1027A0008E010D571F4FB12C90E1E92EF12C6801DD
:1027B000F8018081803128F460E389E39DE20E9482
:1027C00088690F5F1F4FF601808190E0A0E0B0E0C4
:1027D00067968CAF9DAFAEAFBFAF67976996FFAE00
:1027E000EEAE6997BE016D5A7F4F89E39DE20E946C
:1027F000ED0BB394F6E0BF1631F06AE389E39DE296
:102800000E948869D4CF89E39DE20E9499695301AF
:10281000CE0185599F4F6C01FE01EF5BFF4F7F0199
:102820008E010F581F4F9E0129583F4FA401BE0132
:1028300063587F4F89E39DE20E94760D6BEA75E055
:1028400089E39DE20E946369BE016F5F7F4F89E368
:102850009DE20E94866989E39DE20E949969A8959C
:10286000C158DF4F88819981AA81BB81CF57D04061
:10287000892B8A2B8B2B09F45EC06AE975E089E30A
:102880009DE20E94636927EB33E065963FAF2EAF70
:102890006597ED968CAD9DADAEADBFADED976996EC
:1028A0008CAF9DAFAEAFBFAF69976B963FAF2EAF0A
:1028B0006B97E7968CAD9DADAEADBFADE7976F96CC
:1028C0008CAF9DAFAEAFBFAF6F97A1963FAF2EAFAE
:1028D000A19727968CAD9DADAEADBFAD2797A596C0
:1028E0008CAF9DAFAEAFBFAFA597A7963FAF2EAF52
:1028F000A797C158DF4F88819981AA81BB81CF57A3
:10290000D040AB968CAF9DAFAEAFBFAFAB97CE0113
:102910008D5A9F4F7C01085111099E01215A3F4F4A
:10292000AE014B595F4FBE016D577F4F88EE9CE261
:102930000E94975857C06BE875E089E39DE20E94BA
:10294000636988E10FB6F89480936000109260008C
:102950000FBE10EAE12E1FE0F12E00E010E020E6AD
:102960003AEE40E050E0BE016D577F4F88EE9CE2AA
:102970000E94EE57892BB1F460E775E089E39DE290
:102980000E94636989E39DE20E9464662EE088E10B
:1029900090E00FB6F894A895809360000FBE209346
:1029A0006000FFCF29E288E190E00FB6F894A89587
:1029B000809360000FBE2093600068EE7CE2CE0141
:1029C0008D5A9F4F0E948E5969968CAD9DADAEADCC
:1029D000BFAD699727968CAF9DAFAEAFBFAF2797BE
:1029E00010921701A8958981992787FD90950E94DB
:1029F0006A6D892B09F492C0CE01875A9F4F0E94BD
:102A0000DB68B3E0BB2EA12C11E4E12EF12CEC0E1F
:102A1000FD1E92E1E90EF11C07EBC02E03E0D02E63
:102A20008E010F5B1F4FA895F80182819381A481CD
:102A3000B5810097A105B10509F16596DFAECEAE6F
:102A4000659769968CAF9DAFAEAFBFAF6997AE018A
:102A5000475A5F4FBE016F5F7F4FCE018D5A9F4F28
:102A60000E94300D019751F46F968CAD9DADAEADC7
:102A7000BFAD6F97892B8A2B8B2B31F40A5F1F4FC9
:102A80000E151F0581F602C0AA24A394BA9441F63C
:102A9000AA2099F187EB93E065969FAF8EAF65977B
:102AA0006F968CAD9DADAEADBFAD6F9769968CAF97
:102AB0009DAFAEAFBFAF6997BE016F5F7F4F89E338
:102AC0009DE20E94866962E675E089E39DE20E94CC
:102AD0006369BE016D5A7F4F89E39DE20E948F6951
:102AE0006F968CAD9DADAEADBFAD6F97E1968CAFDF
:102AF0009DAFAEAFBFAFE1970DC062E575E089E372
:102B00009DE20E946369BE016F5F7F4F89E39DE292
:102B10000E94866989E39DE20E949969E1968CADE5
:102B20009DADAEADBFADE197892B8A2B8B2B09F004
:102B300056C068EE7CE2CE01875A9F4F0E944659EC
:102B40006F96CCACDDACEEACFFAC6F9768EE7CE280
:102B5000CE018D5A9F4F0E945E5969964CAD5DAD76
:102B60006EAD7FAD699740955095609570954C29F5
:102B70005D296E297F29CE01815A9F4F0E94F168FD
:102B8000A5968CAD9DADAEADBFADA597E1968CAFD2
:102B90009DAFAEAFBFAFE19728E730E03093B12AE9
:102BA0002093B02A27EB33E065963FAF2EAF6597B1
:102BB00069968CAF9DAFAEAFBFAF69976FE175E01F
:102BC00089E39DE20E946369BE016D5A7F4F89E3EC
:102BD0009DE20E948F6989E39DE20E9499696DE000
:102BE00075E089E39DE20E94636968EE7CE2CE01B4
:102BF0008D5A9F4F0E94765968EE7CE2CE01875A2B
:102C00009F4F0E945E5968EE7CE2CE01815A9F4F31
:102C10000E9446595301CE0185599F4F6C01FE0118
:102C2000EF5BFF4F7F018E010D5A1F4F9E01275A08
:102C30003F4FA401BE01615A7F4F89E39DE20E948C
:102C4000760D89E39DE20E94996989E39DE20E94E5
:102C5000646687EB93E065969FAF8EAF6597E196CC
:102C60008CAD9DADAEADBFADE19769968CAF9DAF1C
:102C7000AEAFBFAF6997A4E0EA2E0AE09301AE01C0
:102C80004D5A5F4FB40183EB9AE20E94B161C45781
:102C9000DF4F0FB6F894DEBF0FBECDBFDF91CF91EF
:102CA0001F910F91FF90EF90DF90CF90BF90AF906A
:102CB0009F908F907F906F9008950F931F93CF9365
:102CC000DF9300D000D000D0CDB7DEB78091E62AE8
:102CD000882309F45CC088EE9CE20E94E2588C01D3
:102CE00061E075E089E39DE20E9463699801332702
:102CF0002230310551F13CF42115310569F02130C4
:102D0000310569F029C02330310549F024303105FF
:102D100019F56DED74E01BC06EEF74E018C06CEE39
:102D200074E089E39DE20E949D6989E39DE20E942F
:102D300064662EE088E190E00FB6F894A895809341
:102D400060000FBE20936000FFCF64EE74E089E363
:102D50009DE20E949D691BC0802F90E0A0E0B0E042
:102D600089839A83AB83BC838AE090E09E838D83C2
:102D70006AEC74E089E39DE20E946369BE016F5FC3
:102D80007F4F89E39DE20E94ED0B0E949969269690
:102D90000FB6F894DEBF0FBECDBFDF91CF911F916C
:102DA0000F9108952F923F924F925F926F927F9270
:102DB0008F929F92AF92BF92CF92DF92EF92FF924B
:102DC0000F931F93CF93DF93CDB7DEB7E2970FB684
:102DD000F894DEBF0FBECDBF0E941D0C29E288E132
:102DE00090E00FB6F894A895809360000FBE2093F2
:102DF000600010E062E0812F0E9488651F5F103242
:102E0000C9F78091EA2A8F3F41F061E00E9488650E
:102E100060E08091EA2A0E94C1658091E92A8F3F93
:102E200041F061E00E94886560E08091E92A0E949B
:102E3000C1658EE68EA78AE68FA78CE688AB81E017
:102E40008BA78CA78DA792E198A799A79AA78DA386
:102E50008EA38FA344E050E064ED70E0CE01819634
:102E60000E94C56D49A15AA16BA17CA1DB01CA01D9
:102E7000805C9241A109B109813E944EA340B10505
:102E800030F026E040E052EC61E070E001C026E066
:102E900089E39DE20E94EB6684B78F7E84BF8BB18D
:102EA00085608BB9E0E0F0E089E080935700D49032
:102EB000E3E0F0E0809357008491E2E0F0E049E045
:102EC00040935700449150E060E070E049835A839A
:102ED0006B837C8300E110E01E830D8390E0A0E013
:102EE000B0E08B8B9C8BAD8BBE8B188F0F8B8D2D99
:102EF00090E0A0E0B0E08B8F9C8FAD8FBE8F18A3C9
:102F00000F8F61EA74E089E39DE20E946369BE016C
:102F1000655E7F4F89E39DE20E94ED0B7C016CEAC8
:102F200074E00E946369BE016D5E7F4FC7010E941D
:102F3000ED0B7C0169EB74E00E946369BE016F5F79
:102F40007F4FC7010E94ED0B0E9499694D2D4F7074
:102F5000D42E8091D70490E0A0E0B0E089839A83DA
:102F6000AB83BC831E830D83842F90E0A0E0B0E090
:102F70008B8B9C8BAD8BBE8B188F0F8B65E874E0B1
:102F800089E39DE20E94636961E070E082E0D81607
:102F900011F060E070E04AE050E089E39DE20E94B9
:102FA000646A6FE874E089E39DE20E946369BE0190
:102FB0006D5E7F4F89E39DE20E94ED0B8C0168E915
:102FC00074E00E946369BE016F5F7F4FC8010E9479
:102FD000ED0B0E9499696AE374E089E39DE20E9427
:102FE00063698091D704857019F081E08093E82AA5
:102FF00061E084E00E94886561E084E00E94C16530
:1030000061E08AE00E94886561E08AE00E94C16513
:1030100061E08EE00E94886561E08EE00E94C165FB
:103020008091EA2A8F3F61F180E690E00E94DD6D99
:103030008C016EE274E089E39DE20E9463694AE0DC
:1030400050E0B80189E39DE20E94646A89E39DE251
:103050000E94996982E690E00E94DD6D8C0162E237
:1030600074E089E39DE20E9463694AE050E0B801A0
:1030700089E39DE20E94646A89E39DE20E94996966
:1030800067E174E089E39DE20E946369B7E0EB2E9B
:10309000B1E0FB2E00E210E080E1C82ED12CC80187
:1030A0000E94D56DF70181937F01482F50E060E0C9
:1030B00070E049835A836B837C83DE82CD8260E239
:1030C00089E39DE20E948869BE016F5F7F4F89E3BB
:1030D0009DE20E94ED0B0F5F1F4F00331105F9F6C3
:1030E00089E39DE20E94996984EF9AE20E94212679
:1030F00040E150E060E270E087E091E00E94C56D41
:1031000080E390E00E94DD6D9093B52B8093B42B0B
:1031100061E089E00E94886561E089E00E94C16504
:1031200060911B0170911C0180911D0190911E0105
:103130000E94B36400E010E0C801C2960E94D56D01
:1031400018163CF4EEE2F0E0EC0FFD1FE00FF11F6B
:103150008083C801C5960E94D56D9FEF980F94306B
:1031600038F4EBE2F0E0EC0FFD1FE00FF11F80837D
:10317000C8018A589F4F0E94D56D9FEF980F9231DA
:1031800038F4E8E2F0E0EC0FFD1FE00FF11F808360
:10319000C80187589F4F0E94D56D9FEF980F9830B8
:1031A00038F4E5E2F0E0EC0FFD1FE00FF11F808343
:1031B0000F5F1F4F0330110509F0BECF84E490E08C
:1031C0000E94D56D782E8FEF870D803110F0772417
:1031D000739485E490E00E94D56DD82EFFEF8F1395
:1031E00002C0DD24D39486E490E00E94D56D91E086
:1031F000811101C090E09093F4048091B829882354
:1032000009F4B1C069E074E089E39DE20E9463695A
:103210006DED73E089E39DE20E949D69CE01859684
:103220007C018E01085D1F4F9E01255D3F4FAE0161
:10323000425D5F4F69E089EB99E20E942B34D1FA3D
:10324000662460F82D2D217029AB7092AD2A209351
:10325000AE2A6092AF2AF4ECAF2EF9E2BF2ECE0177
:103260008B966C01FE01BE962F0100E010E0A0E1FC
:103270002A2E312CF50181915F01882329F0E3ED9D
:103280008E2EE3E09E2E04C079EC872E73E0972EFD
:10329000F60121916F01F20181912F0190E0A0E0F0
:1032A000B0E089839A83AB83BC833E822D8268EB36
:1032B00073E089E39DE22AAB0E9463694AE050E033
:1032C000B80189E39DE20E94646A6DEB73E089E3D3
:1032D0009DE20E946369BE016F5F7F4F89E39DE2BB
:1032E0000E94ED0B7C0163EC73E00E9463694AE08D
:1032F00050E02AA9622FC7010E94796AB401C70170
:103300000E9463690F5F1F4F0330110509F0B2CFB0
:103310006EE973E089E39DE20E9463694AE050E050
:10332000672D89E39DE20E94796A6BEA73E089E385
:103330009DE20E946369662031F065E973E089E3EC
:103340009DE20E94636929A9222319F06DE873E0C8
:1033500002C067E873E089E39DE20E94636989E344
:103360009DE20E9464666DED73E089E39DE20E9438
:1033700063698091B829811106C064E074E089E333
:103380009DE20E9463696BEF73E089E39DE20E9416
:103390009D698091B8298823D1F06DED73E089E3B0
:1033A0009DE20E94636964EE73E089E39DE20E94FE
:1033B000636940911B0150911C0160911D01709146
:1033C0001E012AE030E089E39DE20E94B36A8AE3AD
:1033D00090E00E94D56D8093E62A26E040E052EC12
:1033E00061E070E086ED9DE20E94EB6603E026E07E
:1033F00045E567E579E28AE29CE20E945E4D60E085
:1034000072E086ED9DE20E94E34A6FE072E086ED95
:103410009DE20E94E34A66E172E086ED9DE20E9431
:10342000E34A8EE490E00E94D56D8F3F09F481E07D
:10343000EE24E3949091E62A923008F4E12C082FD0
:103440002EE147E062E082E19CE20E94F4416EE6F8
:1034500073E089E39DE20E94636989E39DE20E9433
:10346000646642E06BEE7AE287E29CE20E941246DA
:103470008823E9F08091272C90E0A0E0B0E08983D8
:103480009A83AB83BC8380E190E09E838D8366E565
:1034900073E089E39DE20E946369BE016F5F7F4F25
:1034A00089E39DE20E94ED0B0E94996906C068E4E1
:1034B00073E089E39DE20E94636989E39DE20E94D3
:1034C000646661E087E29CE20E948A478BE490E0B8
:1034D0000E94D56D682F87E29CE20E94EA4587E250
:1034E0009CE20E94A3468091282C9091292C019760
:1034F00021F587E29CE20E94B347992787FD9095CA
:10350000A92FB92F89839A83AB83BC838AE090E08B
:103510009E838D8361E373E089E39DE20E9463698A
:10352000BE016F5F7F4F89E39DE20E94ED0B0E9419
:10353000996989E39DE20E94646660E08FE00E94E1
:10354000886567E173E089E39DE20E94636989E32E
:103550009DE20E94646663E070E087E29CE20E9464
:10356000634721E041E060E070E88EE09CE20E9469
:103570000F3D80E090E8909316058093150568E074
:1035800073E089E39DE20E9463694AE050E060E0F5
:1035900070E889E39DE20E94976A69E272E089E33C
:1035A0009DE20E94866940E050E0BE016F5F7F4F60
:1035B00087E29CE20E941B48882319F1CE014396C2
:1035C0000E94EC3BCE0101960E946C436B8B7C8B7E
:1035D0008D8B9E8BCE0143960E940B3CBE016D5E8F
:1035E0007F4F8EE09CE20E94A43A88E0FE01739631
:1035F000A7EBB6E001900D928A95E1F764EE72E0D8
:1036000002C06EEB72E089E39DE20E94636989E388
:103610009DE20E9464668091E62A823001F50E9454
:103620001A130E94826381E18093180183EB9AE26E
:103630009093CC088093CB0881E08093E82A81E0C6
:1036400090E0A0E0B0E08093FD049093FE04A0938E
:10365000FF04B09300058DEF94E00E940B3C82E4E0
:1036600090E00E94DD6D9C01215031092E3F3F4FBB
:1036700000F58C010F701127102F0027110F110F6B
:10368000110F20E030E0AC015F7064E05695479583
:103690006A95E1F760E070E0CE0143960E94003D3C
:1036A00088E0FE017396A5E0B5E001900D928A9541
:1036B000E1F76DEF74E085E095E00E94213E8823FC
:1036C00021F088E0EDEFF4E00BC065E075E085EFF8
:1036D00094E00E94213E882349F088E0E5EFF4E081
:1036E000A5E0B5E001900D928A95E1F7C09009053B
:1036F000D0900A05E0900B05F0900C05009119019F
:1037000010911A018090050590900605A09007057C
:10371000B090080566EA72E089E39DE20E94636961
:103720002AE030E0B501A40189E39DE20E941A6A13
:10373000B80189E39DE20E9486692AE030E0B70182
:10374000A60189E39DE20E941A6A89E39DE20E9434
:10375000996989E39DE20E94646661E080911801A5
:103760000E94886560E0809118010E94C16587E031
:1037700091E09093ED088093EC0880E18093EB0852
:1037800082E89BE09093792C8093782C67E972E033
:1037900089E39DE20E949D6989E39DE20E9464663F
:1037A0000E942A0CE2960FB6F894DEBF0FBECDBF82
:1037B000DF91CF911F910F91FF90EF90DF90CF900D
:1037C000BF90AF909F908F907F906F905F904F9041
:1037D0003F902F9008953F924F925F926F927F9209
:1037E0008F929F92AF92BF92CF92DF92EF92FF9211
:1037F0000F931F93CF93DF93CDB7DEB7C054D24062
:103800000FB6F894DEBF0FBECDBFA8958091B72943
:10381000882349F0BE016E5C7D4F8AE29CE20E94E3
:103820007F4D182F01C010E08091AC29882309F446
:1038300063C18091090590910A05A0910B05B09193
:103840000C05892B8A2B8B2B09F056C11123C1F053
:10385000CE5CDD4F688179818A819B81C253D240E1
:103860002091050530910605409107055091080506
:103870000E94806BBB24B394672B682B692B09F0E3
:10388000B12C8091B729882309F4B8C01092B729C8
:10389000112309F4B3C0CE01865D9D4F0E94EC3B1D
:1038A000BE01665D7D4F8EE09CE20E949A3CCE5C3C
:1038B000DD4F488159816A817B81C253D24000E04B
:1038C00010E09801CE018E5D9D4F0E94003DBE012B
:1038D000665D7D4FCE018D5E9D4F0E94F63BBE0121
:1038E0006E5D7D4FCE018D5E9D4F0E945441C95E3D
:1038F000DD4F088119812A813B81C751D24037FFB2
:1039000007C030952095109501951F4F2F4F3F4FC1
:10391000CD5EDD4F488159816A817B81C351D240A0
:1039200077FF07C070956095509541955F4F6F4F39
:103930007F4FCE018F5F9D4F0E94003DBE016E5DA7
:103940007D4F8EE09CE20E94A43ABE016F5F7D4FE6
:1039500085E095E00E94213E8823C9F0BE016E5D9E
:103960007D4FCE0101960E94F63B65E075E0CE01E9
:1039700001960E94FA4000E010E02CE73BE0AE0127
:103980004F5F5F4F60E08EE09CE20E946D3F809150
:10399000B22A823098F1C95EDD4FC880D980EA80B2
:1039A000FB80C751D2400091190110911A01CD5EE0
:1039B000DD4F488059806A807B80C351D2406FE7D9
:1039C00072E089E39DE20E9463692AE030E0B3017E
:1039D000A20189E39DE20E941A6AB80189E39DE28F
:1039E0000E9486692AE030E0B701A60189E39DE2E2
:1039F0000E941A6A89E39DE20E949969BB2009F43A
:103A00005BC06EEC73E08EE09CE20E949A3C809179
:103A1000B829882351F08091B9299091BA2900974B
:103A200009F46DC0099709F46AC08091122C909135
:103A3000132C009709F499C0079709F496C01092C7
:103A4000D60322E4822E29E2922E33E4A32E39E219
:103A5000B32E44E4C42E49E2D42E55E4E52E59E2B7
:103A6000F52E0EE419E22AE439E246E459E263E570
:103A700079E28AE29CE20E94964D809352298091DD
:103A8000532990915429A0915529B0915629019715
:103A9000A109B1098093532990935429A0935529E2
:103AA000B09356298091B22A882331F06AE672E0F9
:103AB00089E39DE20E94636980910501882321F0DA
:103AC000109205010E942A0C8091B829882321F0C8
:103AD00089EB99E20E94863682E19CE20E9458427C
:103AE0008091B72981115AC086ED9DE20E94F76549
:103AF000892B09F03FC052C0B0900501C2CE01E051
:103B000010E01093BA290093B92961E08091BC2993
:103B10000E94C16580911B0190911C01A0911D0123
:103B2000B0911E018093C7299093C829A093C929F9
:103B3000B093CA291093D0290093CF290E9486649C
:103B40000091C7291091C8292091C9293091CA290B
:103B5000600F711F821F931F6093CB297093CC2934
:103B60008093CD299093CE2960CF82E19CE20E9480
:103B70001E4265CF86ED9DE20E941066182F80914F
:103B8000B22A8C3029F4612F89E39DE20E94886972
:103B9000612F87E49CE20E94CE4CA2CF40E951E025
:103BA00067E275E08FEB96E00E94A708892B31F061
:103BB00060E971E087E295E00E94C90C69E37DE26B
:103BC00080EF98E20E9448058091B829882339F057
:103BD0008091B9299091BA29099709F0B6C58091C9
:103BE000122C9091132C009719F0079709F0ADC58E
:103BF0008091D6038111A6C481E08093D603009101
:103C0000192C10911A2CC090D203D090D303E090BD
:103C1000D403F090D503A0901901B0901A01409000
:103C2000CE035090CF036090D0037090D1036EE428
:103C300072E089E39DE20E9463692AE030E0B3010B
:103C4000A20189E39DE20E941A6AB50189E39DE21F
:103C50000E9486692AE030E0B701A60189E39DE26F
:103C60000E941A6A6AE572E089E39DE20E94636934
:103C70004AE050E0B80189E39DE20E94646A8091C5
:103C8000B829882389F00091DF291091E0296EE39B
:103C900072E089E39DE20E9463694AE050E0B80166
:103CA00089E39DE20E94646A89E39DE20E9499692A
:103CB0008091172C8823A9F000911B2C10911C2CAB
:103CC0006DE272E089E39DE20E9463694AE050E0A0
:103CD000B80189E39DE20E94976A89E39DE20E9410
:103CE00099698091B829811106C08091B22A8B30E0
:103CF00009F07DC037C094ECA92E99E2B92E01EEEF
:103D000019E2912CD5018D915D01882321F1F801F3
:103D1000C080D180E280F38060E272E089E39DE2BE
:103D20000E9463694AE050E0692D89E39DE20E94A8
:103D3000796A69E272E089E39DE20E9463692AE0A0
:103D400030E0B701A60189E39DE20E941A6A89E387
:103D50009DE20E94996993940C5F1F4FF3E09F12BC
:103D6000D1CFC3CF8091B829882309F440C014EC87
:103D7000812E19E2912E09EBA02E09E2B02E88E5E2
:103D8000782ED4018D914D01882351F1672D89E35F
:103D90009DE20E9488696AE389E39DE20E94886946
:103DA00000E010E0F501E00FF11FC4A8D5A8E6A8D7
:103DB000F7A860E289E39DE20E9488692AE030E08A
:103DC000B701A60189E39DE20E941A6A0C5F1F4FAA
:103DD0000034110539F76AE089E39DE20E948869A1
:103DE000B0E4AB0EB11C7394EBE57E12CACF8091A8
:103DF000B22A882309F4AFC080915229882311F098
:103E000019E501C01EE463E172E089E39DE20E94CE
:103E10006369612F89E39DE20E94886989E39DE2DD
:103E20000E94996980915229882309F494C0C09016
:103E30004A29D0904B29E0904C29F0904D290091CF
:103E4000190110911A018090462990904729A0905D
:103E50004829B090492940905329509054296090A6
:103E60005529709056296CEF71E089E39DE20E941C
:103E700063692AE030E0B301A20189E39DE20E9478
:103E80001A6A67E072E089E39DE20E9463692AE0B2
:103E900030E0B501A40189E39DE20E941A6AB801ED
:103EA00089E39DE20E9486692AE030E0B701A6011D
:103EB00089E39DE20E941A6A809145298823C1F016
:103EC000C0904E29D0904F29E0905029F090512970
:103ED0006091190170911A0189E39DE20E9486693F
:103EE0002AE030E0B701A60189E39DE20E941A6A48
:103EF000E0904229F12CC0904329D12C0091190166
:103F000010911A01B090442962EF71E089E39DE2BB
:103F10000E9463696B2D89E39DE20E948869B80164
:103F200089E39DE20E9486694AE050E0B60189E398
:103F30009DE20E94646AB80189E39DE20E9486695D
:103F40004AE050E0B70189E39DE20E94646A89E398
:103F50009DE20E949969D090EA2AFFEFDF1641F1B5
:103F600080E690E00E94DD6D8C0182E690E00E9488
:103F7000DD6D7C01F694E79498012E0D3F1D409174
:103F8000192C50911A2C2417350724F461E08D2D3B
:103F90000E94C1650E191F098091192C90911A2C4D
:103FA000801791072CF460E08091EA2A0E94C16595
:103FB000CE018D5E9D4F0E94912F87E091E0C05E03
:103FC000DD4F99838883C052D24080E1C15EDD4FCE
:103FD0008883CF51D24090910401CC5EDD4F88811F
:103FE000C451D240992311F0826001C08D7FCC5E14
:103FF000DD4F8883C451D2402091D2033091D30346
:104000008091CE039091CF03A091D003B091D103C2
:10401000C95EDD4F88839983AA83BB83C751D24091
:10402000C55EDD4F39832883CB51D24040E052E05A
:10403000BE016F5F7F4FCE018D5E9D4F0E94FC2FB2
:104040000D8110E0102F00278E81080F111D62EEE8
:1040500071E089E39DE20E9463694AE050E0B801A3
:1040600089E39DE20E94976A89E39DE20E94996933
:104070008091B829882309F470C05090AD2A4090EF
:10408000AE2A3090AF2A74EC672E79E2772EEDEEEF
:10409000AE2EE9E2BE2EF1EE8F2EF9E29F2E10E059
:1040A000D3018D913D018823F1F0F401C080D180CE
:1040B000E280F380FD01359700810F70212F40E0F1
:1040C00052E0BE016F5F7F4FCE018D5E9D4F0E941B
:1040D00052308091F404882331F081EE98E00E9400
:1040E00008638111EBC21F5FF0E4AF0EB11C84E0E6
:1040F000880E911C1330A1F68091DF299091E02960
:10410000C25CDD4F99838883CE53D2408E01025C1E
:104110001D4F23E040E052E0BE016F5F7F4FCE01B4
:104120008D5E9D4F0E949A30832D90E0880F991FDD
:1041300095298429C45CDD4F99838883CC53D24070
:104140000250110923E140E052E0BE016F5F7F4F52
:10415000CE018D5E9D4F0E949A308091192C9091D6
:104160001A2CC65CDD4F99838883CA53D2408E01D6
:10417000065C1D4F24E040E052E0BE016F5F7F4FC0
:10418000CE018D5E9D4F0E949A308091172C88231E
:10419000B9F080911B2C90911C2CC85CDD4F998349
:1041A0008883C853D2400250110925E040E052E014
:1041B000BE016F5F7F4FCE018D5E9D4F0E949A3092
:1041C000209105053091060544E0220F331F4A95E2
:1041D000E1F78091090590910A05A0910B05B09136
:1041E0000C055BE0B595A795979587955A95D1F7FE
:1041F000282B392BCA5CDD4F39832883C653D24024
:104200008E010A5C1D4F28E040E052E0BE016F5F66
:104210007F4FCE018D5E9D4F0E949A3080910601A6
:104220008823A9F08091D704C05CDD4F8883C054F7
:10423000D240065F1F4F27E040E052E0BE016F5FB3
:104240007F4FCE018D5E9D4F0E949A3004C08091B9
:10425000F304882369F000E312E02DE040E052E02F
:10426000BE016F5F7F4FCE018D5E9D4F0E94CD30AE
:1042700000E010E0980140E050E0BA01CE018F5F0D
:104280009D4F0E94003DBE016F5F7D4F87E195E02D
:104290000E94FB3D811116C0E0901B05F0901C05AB
:1042A00000911705109118052091190530911A05F4
:1042B00040E052E0BE016F5F7F4FCE018D5E9D4FAB
:1042C0000E9467310091D8041091D904011511059D
:1042D00019F169EC71E089E39DE20E9463694AE0AB
:1042E00050E0B80189E39DE20E94976A89E39DE26C
:1042F0000E9499690091D8041091D9042091DA04A0
:104300003091DB0440E052E0BE016F5F7F4FCE0191
:104310008D5E9D4F0E94B331009153291091542915
:10432000209155293091562980904229A090432907
:10433000C0904429E090522940E052E0BE016F5FF6
:104340007F4FCE018D5E9D4F0E946F32809152292A
:104350008823E1F081EE98E00E9408638823B1F0A1
:10436000809145298111BAC182E036E4C32E39E239
:10437000D32EE82E04E02EE140E052E0BE016F5F54
:104380007F4FCE018D5E9D4F0E941B322091EE2803
:104390003091EF2840E052E0BE016F5F7F4FCE01C9
:1043A0008D5E9D4F0E940D334D8150E0542F442768
:1043B0008E81480F511DBE016F5F7F4F8FEB96E0DE
:1043C0000E949B071091E72A1F5F1093E72A8091B4
:1043D000E82A882381F08AE490E00E94D56D882342
:1043E00021F0181710F01092E82A6091E82A8091C5
:1043F00018010E94C16540E050E0BE016F5F7D4F33
:1044000087E29CE20E941B48CE018F5F9D4F0E9475
:104410006C436B017C01CE018E5D9D4F0E94EC3B95
:10442000BE016E5D7D4F8EE09CE20E949A3CCE5DA7
:10443000DD4F488159816A817B81C252D240D701C8
:10444000C601841B950BA60BB70BB7FF07C0B09531
:10445000A095909581959F4FAF4FBF4F0397A105B2
:10446000B105FCF0C65DDD4F488359836A837B83C9
:10447000CA52D240BE016F5F7D4FCE01865D9D4F17
:104480000E94A64440E050E0BE016F5F7D4F87E28E
:104490009CE20E94C1466CEB71E089E39DE20E94C0
:1044A0009D69CE5DDD4F88819981AA81BB81C25211
:1044B000D2404091B7065091B8066091B90670910C
:1044C000BA06841B950BA60BB70B0091B02A10916E
:1044D000B12AA80160E070E0481759076A077B0716
:1044E0001CF566EB71E089E39DE20E9463694AE096
:1044F00050E0B80189E39DE20E94976A67E971E0A4
:1045000089E39DE20E949D6989E39DE20E946466C1
:1045100029E288E190E00FB6F894A89580936000B6
:104520000FBE20936000FFCFB7FF0AC088E0FE01F6
:10453000EE5DFD4FA7EBB6E001900D928A95E1F795
:104540000E945D168091E204882309F4A5C02091A1
:10455000DC043091DD048091E0049091E10428179F
:10456000390708F099C081EE98E00E94086388231B
:1045700009F492C08091C9089091CA08892B09F06A
:104580008BC08091B62B8F5F8093B62BCE018F5F4F
:104590009D4F0E94912F87E091E0C25FDD4F99838C
:1045A0008883CE50D24080E1C35FDD4F8883CD50F9
:1045B000D240CE018D5E9D4F0E94EC3BBE016D5EF0
:1045C0007D4F8EE09CE20E949A3CC95EDD4F2881BF
:1045D0003981C751D240CD5EDD4F88819981AA8152
:1045E000BB81C351D240CB5FDD4F88839983AA83BF
:1045F000BB83C550D240C75FDD4F39832883C95084
:10460000D24040E051E0BE016F5F7F4FCE018F5F2F
:104610009D4F0E94FC2F0091DC041091DD0422EEDE
:1046200034E040E051E0BE016F5F7F4FCE018F5F0D
:104630009D4F0E942C312091EE283091EF2840E0D0
:1046400051E0BE016F5F7F4FCE018F5F9D4F0E9493
:104650000D334D8150E0542F44278E81480F511D5A
:10466000BE016F5F7F4F8FEB96E00E949B0710911A
:10467000E72A1F5F1093E72A8091E82A882361F0D8
:104680008AE490E00E94D56D81112AC06091E82AE9
:10469000809118010E94C16581EE98E00E94086334
:1046A0002091C9083091CA08882319F021153105D5
:1046B000E1F02430310509F048C017C06501E52C50
:1046C00004E025E1210F40E052E0BE016F5F7F4F23
:1046D000CE018D5E9D4F0E941B3205CD83E045CEFD
:1046E0001817A0F21092E82AD1CF8091CB089091B0
:1046F000CC08DC01ED91FC910684F785E02D09954D
:10470000882319F1809117018823F9F06DE075E095
:1047100085E095E00E94213E811117C06FE871E0AD
:1047200089E39DE20E94636989E39DE20E946466D9
:1047300086E00E946F0C67E871E089E39DE20E94C9
:10474000636989E39DE20E946466C05CDD4F0FB639
:10475000F894DEBF0FBECDBFDF91CF911F910F91B7
:10476000FF90EF90DF90CF90BF90AF909F908F9091
:104770007F906F905F904F903F9008958091F32AC3
:10478000811115C08CE890EFA1E0B0E0ABBFFC0157
:1047900087919791A791B691883539F4923429F48D
:1047A000AA3619F4B093F32A02C081E0089580E09C
:1047B0000895CF92DF92EF92FF926B017C010E94ED
:1047C000BE2381111AC08091F32A8130A9F484E9B3
:1047D00090EFA1E0B0E0ABBFFC0127913691C90199
:1047E00001978E3F9F4F40F4C701B601F901FF903A
:1047F000EF90DF90CF90099482E0FF90EF90DF90F0
:10480000CF900895CF92DF92EF92FF92CF93DF93F4
:1048100000D01F92CDB7DEB76B017C012B8349839B
:104820005A830E94BE232B8149815A8181111FC066
:104830008091F32A8130D1F486E990EFA1E0B0E0D5
:10484000ABBFFC01A791B691CD0101978E3F9F4F61
:1048500068F4C701B601FD010F900F900F90DF9132
:10486000CF91FF90EF90DF90CF90099482E00F906E
:104870000F900F90DF91CF91FF90EF90DF90CF904E
:104880000895CF92DF92EF92FF920E94BE23811192
:1048900031C08091F32A813061F58AE990EFA1E07F
:1048A000B0E0ABBFFC01879196919C01215031098A
:1048B0002E3F3F4FC0F0C12C88EFD82EE12CF12CB9
:1048C000C701B6010E94D923811114C08FEFD81AF5
:1048D000E80AF80AC114E0EFDE06E1E0EE06F104B2
:1048E00079F780E007C0FC01FF90EF90DF90CF9058
:1048F000099482E0FF90EF90DF90CF900895CF92DF
:10490000DF92EF92FF92CF93DF9300D01F92CDB74B
:10491000DEB76B017C012B8349835A830E94BE233F
:104920002B8149815A8181112FC08091F32A8130D6
:1049300051F58CE990EFA1E0B0E0ABBFFC01A7918D
:10494000B691CD0101978E3F9F4F80F0C701B60110
:1049500078508F4F9F4F0F900F900F90DF91CF9116
:10496000FF90EF90DF90CF900C940224C701B60126
:10497000FD010F900F900F90DF91CF91FF90EF907E
:10498000DF90CF90099482E00F900F900F90DF910D
:10499000CF91FF90EF90DF90CF900895CF92DF926C
:1049A000EF92FF920F931F93260F371F481F591F37
:1049B000A0E0B0E0621773078407950709F424C0EC
:1049C0006B017C01EFEFCE1ADE0AEE0AFE0A8BBF06
:1049D000FB016791A6276A2F62956A27062E6695C6
:1049E00066956025062E6695602567700A2EAB2FAA
:1049F000669507946795B02DA62706946795B02510
:104A0000A627C701B601D6CFF801B183A08380E005
:104A10001F910F91FF90EF90DF90CF9008950F932B
:104A20001F938C0120E038EF40E050E060E078EF29
:104A300080E090E00E94CE241F910F9108950F9383
:104A40001F93CF93DF93CDB7DEB7DA950FB6F89407
:104A5000DEBF0FBECDBFDE01119600E01FEE21E0EC
:104A600030E0AD012BBFF80167916D930F5F1F4FD1
:104A70002F4F3F4F011560EF160761E02607310504
:104A800089F728E5C550DF4F2883CB5FD04022E46B
:104A9000C450DF4F2883CC5FD04029E4C350DF4FA0
:104AA0002883CD5FD04026E4C250DF4F2883CE5FFD
:104AB000D040C150DF4F9883CF5FD040C050DF4F10
:104AC0008883C050D14021E060E077EF80E090E043
:104AD0000E947F24D3950FB6F894DEBF0FBECDBFE2
:104AE000DF91CF911F910F910895F89488E10FB64F
:104AF000F89480936000109260000FBE28E088E177
:104B000090E00FB6F894A895809360000FBE2093B4
:104B10006000FFCF8091242B90E02091252B821BF9
:104B2000910908952091252B8091242B281750F46A
:104B3000E22FF0E0EA5DF44D808190E02F5F20935A
:104B4000252B08958FEF9FEF0895E091252B8091FD
:104B5000242BE81730F4F0E0EA5DF44D808190E01A
:104B600008958FEF9FEF08950895CF92DF92EF920F
:104B7000FF920F931F93CF93DF937C01CB018A01A8
:104B80002091002B222389F0EB016B01C40ED51E6E
:104B9000CC15DD0569F06991D701ED91FC9101908B
:104BA000F081E02DC7010995F3CF642F0E94722791
:104BB000C801DF91CF911F910F91FF90EF90DF908F
:104BC000CF900895CF93DF931F92CDB7DEB769835F
:104BD0002091002B2223D1F02091012B203240F094
:104BE00021E030E0FC013383228380E090E015C0B7
:104BF0008091022BE82FF0E0ED5FF44D99819083D6
:104C00008F5F8093022B8093012B05C061E0CE0162
:104C100001960E94722781E090E00F90DF91CF9182
:104C20000895FC011382128248EE53E060E070E0C8
:104C3000448355836683778386E492E091838083FF
:104C400008951092252B1092242B1092022B109273
:104C5000012B0C94B52681E08093002B6093232BCD
:104C60001092022B1092012B08950C942B260F9377
:104C7000062F21E04091012B63E07BE28091232B02
:104C80000E941B271092022B1092012B1092002BD6
:104C90000F9108958F929F92AF92BF92CF92DF9221
:104CA000EF92FF920F931F93CF93DF93EC01F62EB9
:104CB000D42E48015901EE2019F10E942B261E2DF9
:104CC000143008F013E01150B8F0E881F98128E0C1
:104CD000129FB0011124A501940104C05695479577
:104CE000379527956A95D2F7CA01B9010190F081ED
:104CF000E02DCE010995E7CF60E0CE010E94372676
:104D00004D2D413208F040E22C2D66E27BE28F2DE2
:104D10000E94D3261092252B8093242BDF91CF91D4
:104D20001F910F91FF90EF90DF90CF90BF90AF90C9
:104D30009F908F900895CF92EF920F931F93C22E62
:104D4000E12C00E010E098010E944A261F910F918B
:104D5000EF90CF90089521E00C949B2661E00C9495
:104D6000372684EF9AE20C9411261092B32B81E03F
:104D70008093B12B1092B02B61E084E10E94C16559
:104D800061E085E10E94C165E9EBF0E080818E7F02
:104D9000808380818D7F808384E38093B80085E465
:104DA0008093BC000895413208F043C09091B32B2A
:104DB0009111FCCF91E09093B32B2093B12B2FEF67
:104DC0002093462B10928B2B240F20938A2B9093A9
:104DD000B22B9091B22B880F892B8093B22B8091AC
:104DE000B02B813061F41092B02B8091B22B809364
:104DF000BB008091BC0083FDF8CF85EC01C085EE3F
:104E00008093BC008091B32B8130E1F380918B2B98
:104E1000841710F440918B2B2CE83BE2FB01D90165
:104E20008A2F821B841718F48D918193F9CF842FD8
:104E3000089580E008950F93413208F04AC09091A0
:104E4000B32B9111FCCF92E09093B32B0093B12B35
:104E50009FEF9093462B10928B2B40938A2BFB0154
:104E60006CE87BE2DB019A2F961B941718F4919162
:104E70009D93F9CF1092B22B9091B22B880F892B72
:104E80008093B22B8091B02B813061F41092B02BC3
:104E90008091B22B8093BB008091BC0083FDF8CF42
:104EA00085EC01C085EE8093BC00222321F0809127
:104EB000B32B8230E1F38091462B8F3F61F08091DC
:104EC000462B803251F08091462B803341F483E0B1
:104ED00007C081E005C080E003C082E001C084E03B
:104EE0000F910895613298F42091B32B243089F406
:104EF0006093682BFC018AE69BE2DC012A2F281BC9
:104F0000261718F421912D93F9CF80E0089581E0C0
:104F1000089582E0089585ED8093BC008091BC00E7
:104F200084FDFCCF1092B32B089585EC8093BC00D8
:104F30001092B32B08951F920F920FB60F92112467
:104F40000BB60F922F933F934F935F936F937F9383
:104F50008F939F93AF93BF93EF93FF938091B9008B
:104F6000887F803609F49EC078F5883209F45DC0E8
:104F700090F4803109F456C038F4882309F4F5C060
:104F8000883009F44FC0F5C0883109F44EC0803232
:104F900009F45FC0EEC0803409F46AC058F480336D
:104FA00009F457C0883309F0E4C08093462B0E946F
:104FB0009527DFC0803509F44FC0883509F45DC0FE
:104FC000883409F0D6C0D3C0883909F4C4C0A8F425
:104FD000883709F467C038F4883609F463C080372D
:104FE00009F460C0C6C0883809F4B5C0803909F436
:104FF0005FC0803809F0BDC05BC0803B09F483C04E
:1050000038F4803A09F466C0883A09F47CC0B1C02B
:10501000803C09F4A4C0883C09F4A1C0883B09F491
:1050200087C0A7C08091B22B10C090918B2B80912C
:105030008A2B981770F5E0918B2B81E08E0F80936F
:105040008B2BF0E0E457F44D80818093BB0085EC1E
:1050500083C08093462B8BC0E0918B2B81E08E0F19
:1050600080938B2B8091BB00F0E0E457F44D80835C
:1050700090918B2B80918A2B6BC0E0918B2B81E0E0
:105080008E0F80938B2B8091BB00F0E0E457F44DA2
:1050900080838091B12B81116AC081E08093B02B15
:1050A00084EA5EC083E08093B32B1092472BCFCF6E
:1050B0008091472B803208F04EC0E091472B81E071
:1050C0008E0F8093472B8091BB00F0E0E85BF44D9E
:1050D0008083BDCF0E9495278091472B803230F48A
:1050E000E091472BF0E0E85BF44D10826091472B94
:1050F00070E0E091AC2BF091AD2B88E49BE2099538
:105100001092472B36C084E08093B32B1092692B0A
:105110001092682BE091AE2BF091AF2B0995809106
:10512000682B811105C081E08093682B10926A2B57
:10513000E091692B81E08E0F8093692BF0E0E659B6
:10514000F44D80818093BB009091692B8091682BF6
:10515000981708F47CCF85E88093BC000AC085ECE2
:105160008093BC001092B32B04C01092462B0E9477
:105170008B27FF91EF91BF91AF919F918F917F917D
:105180006F915F914F913F912F910F900BBE0F90B8
:105190000FBE0F901F9018952F923F924F925F92E3
:1051A0006F927F928F929F92AF92BF92CF92DF9237
:1051B000EF92FF920F931F93CF93DF93CDB7DEB79C
:1051C000C855D1090FB6F894DEBF0FBECDBF5C0144
:1051D0004901170128018E010F5F1F4F80E4F8017C
:1051E00011928A95E9F74130F2E05F0738F09A01B1
:1051F00040E050E0C8010E94482D0AC0495F5F4F5F
:10520000E3E056954795EA95E1F7C8010E94856D60
:105210006E0181E4C80ED11CF80196E380818927D4
:105220008193EC15FD05D1F7C6010E94D62AB8017D
:10523000C6010E94FC2AA201910134012115F2E06D
:105240003F074105510518F1B301C60166962FAF1E
:10525000669767963FAF679768964FAF689769966E
:105260005FAF69970E94FC2AE0E46E0E711C66969F
:105270002FAD669767963FAD679768964FAD689775
:1052800069965FAD6997325041095109D7CFB20194
:10529000A101517066277727D201C10129E0B69597
:1052A000A795979587952A95D1F71C0136E0220C92
:1052B000331C3A95E1F7280C391CB101C6010E9454
:1052C0008A2C48019AE6F4018081892781934F0155
:1052D000EC15FD05C1F7BF01C5010E94402DC401B9
:1052E0000E94D62AB801C4010E94FC2A40E850E07E
:1052F000B501C4010E948A2CB401C5010E94402D51
:10530000C85ADF4F0FB6F894DEBF0FBECDBFDF9196
:10531000CF911F910F91FF90EF90DF90CF90BF90B2
:10532000AF909F908F907F906F905F904F903F9045
:105330002F9008958F929F92AF92BF92EF92FF921B
:105340000F931F934B015C0160957095809590952C
:105350006E217F2180239123282139214A215B213D
:10536000622B732B842B952B1F910F91FF90EF9045
:10537000BF90AF909F908F9008958F929F92AF9221
:10538000BF92EF92FF920F931F934B015C01C801F4
:10539000B70160957095809590956223732384235F
:1053A00095238E209F20A022B122682979298A295D
:1053B0009B291F910F91FF90EF90BF90AF909F900E
:1053C0008F900895EF92FF920F931F932E253F2504
:1053D000402751272627372748275927CA01B901CF
:1053E0001F910F91FF90EF900895EF92FF920F930E
:1053F0001F93E094F09400951095E62AF72A082B65
:10540000192BE226F32604271527C801B7011F919F
:105410000F91FF90EF9008952F923F924F925F92DD
:105420006F927F928F929F92AF92BF92CF92DF92B4
:10543000EF92FF920F931F93CF93DF93CDB7DEB719
:1054400060970FB6F894DEBF0FBECDBF4B01322E72
:10545000202E28E0E6E2F1E0DE01119601900D92A7
:105460002A95E1F74370642F70E05C0124E0429FCD
:10547000A00CB11C1124D5014D905D906D907C90D5
:105480006B01BFEFCB1ADB0AE3E0CE22DD24CC0CAC
:10549000DD1CCC0CDD1CC80ED91EFE013196EE0DB4
:1054A000F11DEE0DF11D9B012D5F3F4F2370332742
:1054B000220F331F220F331F280F391FD901ED9000
:1054C000FD900D911C91DB011296A370BB27AA0FD2
:1054D000BB1FAA0FBB1FA80FB91F2D913D914D9166
:1054E0005C91D6016D917D918D919C910190F0819F
:1054F000E02D0995B4E02B9EF0011124E853F84FFC
:105500002591359145915491D401ED90FD900D91E7
:105510001C91E40CF51C061D171DE60EF71E081F56
:10552000191FE20EF31E041F151FB801A701032C5B
:1055300004C0440F551F661F771F0A94D2F720E25C
:105540002319D801C70104C0B695A79597958795EB
:105550002A95D2F7482B592B6A2B7B2BF601808199
:105560009181A281B381480F591F6A1F7B1FD5010A
:105570004D935D936D937C93139760960FB6F8945B
:10558000DEBF0FBECDBFDF91CF911F910F91FF9076
:10559000EF90DF90CF90BF90AF909F908F907F90D3
:1055A0006F905F904F903F902F900895FC01108A6C
:1055B000118A128A138A41E053E265E477E6408358
:1055C00051836283738349E85BEA6DEC7FEE448329
:1055D0005583668377834EEF5CED6AEB78E940870D
:1055E00051876287738746E754E562E370E1448739
:1055F00055876687778708952F923F924F925F92E3
:105600006F927F928F929F92AF92BF92CF92DF92D2
:10561000EF92FF920F931F93CF93DF93CDB7DEB737
:10562000A2970FB6F894DEBF0FBECDBF1C017AA3C0
:1056300069A3FC0180819181A281B38189839A83CE
:10564000AB83BC8384819581A681B7818D839E8342
:10565000AF83B88780859185A285B38589879A872E
:10566000AB87BC8784859585A685B7858D879E8702
:10567000AF87B88B87E08D8F8CE08E8F81E18F8F25
:1056800086E188A32B01A12CB12C3E01FDE16F0E18
:10569000711C65E0F62EF60C43011A2D110F110F47
:1056A0001619C12CD12C012F080DF40121914F01A5
:1056B0004F2D4E1BB601640D751DE12CCE010196D8
:1056C0000E940C2AF4E0CF0ED11C80E1C816D10450
:1056D00051F79FEFA91AB90AE0E14E0E511CF4E010
:1056E000AF16B104C9F685E0898F89E08A8F8EE014
:1056F0008B8F84E18C8FCC24C394D12C3E0189E123
:10570000680E711C5FE0552E56184601530114E0D7
:10571000452C4C0C042D0A0DF50121915F01B401BB
:105720006F707727660F771F660F771F89A19AA181
:10573000680F791FEE24E394412FCE0101960E9459
:105740000C2A115095E0890E911C1111E3CFE4E071
:10575000CE0ED11CF1E1CF16D104B9F684E08D8BC9
:105760008BE08E8B80E18F8B87E1888F95E0C92E4F
:10577000D12C3E0185E1680E711C25E2522E56188F
:105780004601530114E0452C4C18042D0A0DF50177
:1057900021915F01B4016F707727660F771F660F45
:1057A000771F89A19AA1680F791F82E0E82E412F07
:1057B000CE0101960E940C2A115093E0890E911C93
:1057C0001111E3CFE4E0CE1AD108F5EFCF16FFEFC9
:1057D000DF06B1F686E0898B8AE08A8B8FE08B8BBF
:1057E00085E18C8BC12CD12C3E0181E1680E711CAE
:1057F000A0E35A2E56184601530114E0452C4C18CC
:10580000042D0A0DF50121915F01B4016F70772716
:10581000660F771F660F771F89A19AA1680F791FFE
:10582000F3E0EF2E412FCE0101960E940C2A115079
:1058300097E0890E911C1111E3CFE4E0CE1AD10854
:10584000F0EFCF16FFEFDF06B1F6F1018081918115
:10585000A281B38149815A816B817C81840F951F1C
:10586000A61FB71F80839183A283B3838481958110
:10587000A681B7814D815E816F817885840F951FE8
:10588000A61FB71F84839583A683B78380859185E0
:10589000A285B38549855A856B857C85840F951FC4
:1058A000A61FB71F80879187A287B38784859585B8
:1058B000A685B7854D855E856F857889840F951F90
:1058C000A61FB71F84879587A687B7878089918988
:1058D000A289B3890196A11DB11D808B918BA28BEA
:1058E000B38BA2960FB6F894DEBF0FBECDBFDF918B
:1058F000CF911F910F91FF90EF90DF90CF90BF90CD
:10590000AF909F908F907F906F905F904F903F905F
:105910002F9008956F927F928F929F92AF92BF9235
:10592000CF92DF92EF92FF920F931F93CF93DF936B
:10593000CDB7DEB7C054D1090FB6F894DEBF0FBEA5
:10594000CDBF8C013B014A017A016B01E114E2E019
:10595000FE0650F0B601C8010E94FC2A82E0F81A47
:1059600090E4C90ED11CF2CF5401AB2CBB24A694F9
:10597000F6E0AA0CBB1CFA95E1F7A60CB71C640173
:10598000F1E0DF22CE0101967C0180E4F701119263
:105990008A95E9F73601A3E076946794AA95E1F732
:1059A000A301B501C7010E94856DF7E08F229924FC
:1059B000F701E60DF71D8114910471F0D501A60DD4
:1059C000B71D80E890E002C0959587958A94E2F72C
:1059D0009C91982B908302C080E8808388E0680EB9
:1059E000711C90E469167104A8F0B701C8010E9407
:1059F000FC2AF80180899189A289B3890197A109BC
:105A0000B109808B918BA28BB38B88E3F701119244
:105A10008A95E9F7F80180899189A289B38979E0AB
:105A2000880F991FAA1FBB1F7A95D1F78C0D9D1D5A
:105A3000A11DB11D9C01AD0189AF3AAF4BAF5CAF69
:105A40001DAE1EAE1FAE21961FAE2197B701C80135
:105A50000E94FC2AC05CDF4F0FB6F894DEBF0FBE79
:105A6000CDBFDF91CF911F910F91FF90EF90DF900D
:105A7000CF90BF90AF909F908F907F906F90089540
:105A800020E1FB01DC0101900D922A95E1F70895D8
:105A90008F929F92AF92BF92CF92DF92EF92FF923E
:105AA0000F931F93CF93DF93CDB7DEB768970FB6F1
:105AB000F894DEBF0FBECDBF6C017B01CE01019615
:105AC0002D8B3E8B4F8B588F0E94D62A2D893E8975
:105AD0004F89588D49015A018701811482E0980647
